{
	"contracts/bookManagment.sol": {
		"BookManagment": {
			"abi": [
				{
					"inputs": [
						{
							"internalType": "uint256",
							"name": "id",
							"type": "uint256"
						},
						{
							"internalType": "string",
							"name": "_title",
							"type": "string"
						},
						{
							"internalType": "string",
							"name": "_author",
							"type": "string"
						},
						{
							"internalType": "bool",
							"name": "",
							"type": "bool"
						}
					],
					"name": "addBook",
					"outputs": [],
					"stateMutability": "nonpayable",
					"type": "function"
				},
				{
					"inputs": [
						{
							"internalType": "uint256",
							"name": "id",
							"type": "uint256"
						}
					],
					"name": "del",
					"outputs": [],
					"stateMutability": "nonpayable",
					"type": "function"
				},
				{
					"inputs": [
						{
							"internalType": "uint256",
							"name": "id",
							"type": "uint256"
						}
					],
					"name": "getBooks",
					"outputs": [
						{
							"components": [
								{
									"internalType": "string",
									"name": "title",
									"type": "string"
								},
								{
									"internalType": "string",
									"name": "author",
									"type": "string"
								},
								{
									"internalType": "bool",
									"name": "completed",
									"type": "bool"
								}
							],
							"internalType": "struct BookManagment.book",
							"name": "",
							"type": "tuple"
						}
					],
					"stateMutability": "view",
					"type": "function"
				},
				{
					"inputs": [
						{
							"internalType": "uint256",
							"name": "id",
							"type": "uint256"
						}
					],
					"name": "update",
					"outputs": [],
					"stateMutability": "nonpayable",
					"type": "function"
				}
			],
			"devdoc": {
				"kind": "dev",
				"methods": {},
				"version": 1
			},
			"evm": {
				"assembly": "    /* \"contracts/bookManagment.sol\":63:799  contract BookManagment{... */\n  mstore(0x40, 0x80)\n  callvalue\n  dup1\n  iszero\n  tag_1\n  jumpi\n  0x00\n  dup1\n  revert\ntag_1:\n  pop\n  dataSize(sub_0)\n  dup1\n  dataOffset(sub_0)\n  0x00\n  codecopy\n  0x00\n  return\nstop\n\nsub_0: assembly {\n        /* \"contracts/bookManagment.sol\":63:799  contract BookManagment{... */\n      mstore(0x40, 0x80)\n      callvalue\n      dup1\n      iszero\n      tag_1\n      jumpi\n      0x00\n      dup1\n      revert\n    tag_1:\n      pop\n      jumpi(tag_2, lt(calldatasize, 0x04))\n      shr(0xe0, calldataload(0x00))\n      dup1\n      0x57771a23\n      eq\n      tag_3\n      jumpi\n      dup1\n      0x5ac3e19e\n      eq\n      tag_4\n      jumpi\n      dup1\n      0x7ec5acfb\n      eq\n      tag_5\n      jumpi\n      dup1\n      0x82ab890a\n      eq\n      tag_6\n      jumpi\n    tag_2:\n      0x00\n      dup1\n      revert\n        /* \"contracts/bookManagment.sol\":722:795  function del(uint id) public{... */\n    tag_3:\n      tag_7\n      0x04\n      dup1\n      calldatasize\n      sub\n      dup2\n      add\n      swap1\n      tag_8\n      swap2\n      swap1\n      tag_9\n      jump\t// in\n    tag_8:\n      tag_10\n      jump\t// in\n    tag_7:\n      stop\n        /* \"contracts/bookManagment.sol\":387:491  function getBooks(uint id)public view returns(book memory) {... */\n    tag_4:\n      tag_11\n      0x04\n      dup1\n      calldatasize\n      sub\n      dup2\n      add\n      swap1\n      tag_12\n      swap2\n      swap1\n      tag_9\n      jump\t// in\n    tag_12:\n      tag_13\n      jump\t// in\n    tag_11:\n      mload(0x40)\n      tag_14\n      swap2\n      swap1\n      tag_15\n      jump\t// in\n    tag_14:\n      mload(0x40)\n      dup1\n      swap2\n      sub\n      swap1\n      return\n        /* \"contracts/bookManagment.sol\":234:382  function addBook(uint id,string memory _title,string memory _author,bool ) public{... */\n    tag_5:\n      tag_16\n      0x04\n      dup1\n      calldatasize\n      sub\n      dup2\n      add\n      swap1\n      tag_17\n      swap2\n      swap1\n      tag_18\n      jump\t// in\n    tag_17:\n      tag_19\n      jump\t// in\n    tag_16:\n      stop\n        /* \"contracts/bookManagment.sol\":498:717  function update(uint id) public{... */\n    tag_6:\n      tag_20\n      0x04\n      dup1\n      calldatasize\n      sub\n      dup2\n      add\n      swap1\n      tag_21\n      swap2\n      swap1\n      tag_9\n      jump\t// in\n    tag_21:\n      tag_22\n      jump\t// in\n    tag_20:\n      stop\n        /* \"contracts/bookManagment.sol\":722:795  function del(uint id) public{... */\n    tag_10:\n        /* \"contracts/bookManagment.sol\":767:772  books */\n      0x00\n        /* \"contracts/bookManagment.sol\":767:784  books[msg.sender] */\n      dup1\n        /* \"contracts/bookManagment.sol\":773:783  msg.sender */\n      caller\n        /* \"contracts/bookManagment.sol\":767:784  books[msg.sender] */\n      0xffffffffffffffffffffffffffffffffffffffff\n      and\n      0xffffffffffffffffffffffffffffffffffffffff\n      and\n      dup2\n      mstore\n      0x20\n      add\n      swap1\n      dup2\n      mstore\n      0x20\n      add\n      0x00\n      keccak256\n        /* \"contracts/bookManagment.sol\":767:788  books[msg.sender][id] */\n      0x00\n        /* \"contracts/bookManagment.sol\":785:787  id */\n      dup3\n        /* \"contracts/bookManagment.sol\":767:788  books[msg.sender][id] */\n      dup2\n      mstore\n      0x20\n      add\n      swap1\n      dup2\n      mstore\n      0x20\n      add\n      0x00\n      keccak256\n      0x00\n        /* \"contracts/bookManagment.sol\":760:788  delete books[msg.sender][id] */\n      dup1\n      dup3\n      add\n      0x00\n      tag_24\n      swap2\n      swap1\n      tag_25\n      jump\t// in\n    tag_24:\n      0x01\n      dup3\n      add\n      0x00\n      tag_26\n      swap2\n      swap1\n      tag_25\n      jump\t// in\n    tag_26:\n      0x02\n      dup3\n      add\n      exp(0x0100, 0x00)\n      dup2\n      sload\n      swap1\n      0xff\n      mul\n      not\n      and\n      swap1\n      sstore\n      pop\n      pop\n        /* \"contracts/bookManagment.sol\":722:795  function del(uint id) public{... */\n      pop\n      jump\t// out\n        /* \"contracts/bookManagment.sol\":387:491  function getBooks(uint id)public view returns(book memory) {... */\n    tag_13:\n        /* \"contracts/bookManagment.sol\":433:444  book memory */\n      tag_27\n      tag_28\n      jump\t// in\n    tag_27:\n        /* \"contracts/bookManagment.sol\":463:468  books */\n      0x00\n        /* \"contracts/bookManagment.sol\":463:480  books[msg.sender] */\n      dup1\n        /* \"contracts/bookManagment.sol\":469:479  msg.sender */\n      caller\n        /* \"contracts/bookManagment.sol\":463:480  books[msg.sender] */\n      0xffffffffffffffffffffffffffffffffffffffff\n      and\n      0xffffffffffffffffffffffffffffffffffffffff\n      and\n      dup2\n      mstore\n      0x20\n      add\n      swap1\n      dup2\n      mstore\n      0x20\n      add\n      0x00\n      keccak256\n        /* \"contracts/bookManagment.sol\":463:484  books[msg.sender][id] */\n      0x00\n        /* \"contracts/bookManagment.sol\":481:483  id */\n      dup4\n        /* \"contracts/bookManagment.sol\":463:484  books[msg.sender][id] */\n      dup2\n      mstore\n      0x20\n      add\n      swap1\n      dup2\n      mstore\n      0x20\n      add\n      0x00\n      keccak256\n        /* \"contracts/bookManagment.sol\":456:484  return books[msg.sender][id] */\n      mload(0x40)\n      dup1\n      0x60\n      add\n      0x40\n      mstore\n      swap1\n      dup2\n      0x00\n      dup3\n      add\n      dup1\n      sload\n      tag_30\n      swap1\n      tag_31\n      jump\t// in\n    tag_30:\n      dup1\n      0x1f\n      add\n      0x20\n      dup1\n      swap2\n      div\n      mul\n      0x20\n      add\n      mload(0x40)\n      swap1\n      dup2\n      add\n      0x40\n      mstore\n      dup1\n      swap3\n      swap2\n      swap1\n      dup2\n      dup2\n      mstore\n      0x20\n      add\n      dup3\n      dup1\n      sload\n      tag_32\n      swap1\n      tag_31\n      jump\t// in\n    tag_32:\n      dup1\n      iszero\n      tag_33\n      jumpi\n      dup1\n      0x1f\n      lt\n      tag_34\n      jumpi\n      0x0100\n      dup1\n      dup4\n      sload\n      div\n      mul\n      dup4\n      mstore\n      swap2\n      0x20\n      add\n      swap2\n      jump(tag_33)\n    tag_34:\n      dup3\n      add\n      swap2\n      swap1\n      0x00\n      mstore\n      keccak256(0x00, 0x20)\n      swap1\n    tag_35:\n      dup2\n      sload\n      dup2\n      mstore\n      swap1\n      0x01\n      add\n      swap1\n      0x20\n      add\n      dup1\n      dup4\n      gt\n      tag_35\n      jumpi\n      dup3\n      swap1\n      sub\n      0x1f\n      and\n      dup3\n      add\n      swap2\n    tag_33:\n      pop\n      pop\n      pop\n      pop\n      pop\n      dup2\n      mstore\n      0x20\n      add\n      0x01\n      dup3\n      add\n      dup1\n      sload\n      tag_36\n      swap1\n      tag_31\n      jump\t// in\n    tag_36:\n      dup1\n      0x1f\n      add\n      0x20\n      dup1\n      swap2\n      div\n      mul\n      0x20\n      add\n      mload(0x40)\n      swap1\n      dup2\n      add\n      0x40\n      mstore\n      dup1\n      swap3\n      swap2\n      swap1\n      dup2\n      dup2\n      mstore\n      0x20\n      add\n      dup3\n      dup1\n      sload\n      tag_37\n      swap1\n      tag_31\n      jump\t// in\n    tag_37:\n      dup1\n      iszero\n      tag_38\n      jumpi\n      dup1\n      0x1f\n      lt\n      tag_39\n      jumpi\n      0x0100\n      dup1\n      dup4\n      sload\n      div\n      mul\n      dup4\n      mstore\n      swap2\n      0x20\n      add\n      swap2\n      jump(tag_38)\n    tag_39:\n      dup3\n      add\n      swap2\n      swap1\n      0x00\n      mstore\n      keccak256(0x00, 0x20)\n      swap1\n    tag_40:\n      dup2\n      sload\n      dup2\n      mstore\n      swap1\n      0x01\n      add\n      swap1\n      0x20\n      add\n      dup1\n      dup4\n      gt\n      tag_40\n      jumpi\n      dup3\n      swap1\n      sub\n      0x1f\n      and\n      dup3\n      add\n      swap2\n    tag_38:\n      pop\n      pop\n      pop\n      pop\n      pop\n      dup2\n      mstore\n      0x20\n      add\n      0x02\n      dup3\n      add\n      0x00\n      swap1\n      sload\n      swap1\n      0x0100\n      exp\n      swap1\n      div\n      0xff\n      and\n      iszero\n      iszero\n      iszero\n      iszero\n      dup2\n      mstore\n      pop\n      pop\n      swap1\n      pop\n        /* \"contracts/bookManagment.sol\":387:491  function getBooks(uint id)public view returns(book memory) {... */\n      swap2\n      swap1\n      pop\n      jump\t// out\n        /* \"contracts/bookManagment.sol\":234:382  function addBook(uint id,string memory _title,string memory _author,bool ) public{... */\n    tag_19:\n        /* \"contracts/bookManagment.sol\":347:374  book(_title, _author,false) */\n      mload(0x40)\n      dup1\n      0x60\n      add\n      0x40\n      mstore\n      dup1\n        /* \"contracts/bookManagment.sol\":352:358  _title */\n      dup5\n        /* \"contracts/bookManagment.sol\":347:374  book(_title, _author,false) */\n      dup2\n      mstore\n      0x20\n      add\n        /* \"contracts/bookManagment.sol\":360:367  _author */\n      dup4\n        /* \"contracts/bookManagment.sol\":347:374  book(_title, _author,false) */\n      dup2\n      mstore\n      0x20\n      add\n        /* \"contracts/bookManagment.sol\":368:373  false */\n      0x00\n        /* \"contracts/bookManagment.sol\":347:374  book(_title, _author,false) */\n      iszero\n      iszero\n      dup2\n      mstore\n      pop\n        /* \"contracts/bookManagment.sol\":325:330  books */\n      0x00\n        /* \"contracts/bookManagment.sol\":325:342  books[msg.sender] */\n      dup1\n        /* \"contracts/bookManagment.sol\":331:341  msg.sender */\n      caller\n        /* \"contracts/bookManagment.sol\":325:342  books[msg.sender] */\n      0xffffffffffffffffffffffffffffffffffffffff\n      and\n      0xffffffffffffffffffffffffffffffffffffffff\n      and\n      dup2\n      mstore\n      0x20\n      add\n      swap1\n      dup2\n      mstore\n      0x20\n      add\n      0x00\n      keccak256\n        /* \"contracts/bookManagment.sol\":325:346  books[msg.sender][id] */\n      0x00\n        /* \"contracts/bookManagment.sol\":343:345  id */\n      dup7\n        /* \"contracts/bookManagment.sol\":325:346  books[msg.sender][id] */\n      dup2\n      mstore\n      0x20\n      add\n      swap1\n      dup2\n      mstore\n      0x20\n      add\n      0x00\n      keccak256\n        /* \"contracts/bookManagment.sol\":325:374  books[msg.sender][id]=book(_title, _author,false) */\n      0x00\n      dup3\n      add\n      mload\n      dup2\n      0x00\n      add\n      swap1\n      dup2\n      tag_42\n      swap2\n      swap1\n      tag_43\n      jump\t// in\n    tag_42:\n      pop\n      0x20\n      dup3\n      add\n      mload\n      dup2\n      0x01\n      add\n      swap1\n      dup2\n      tag_44\n      swap2\n      swap1\n      tag_43\n      jump\t// in\n    tag_44:\n      pop\n      0x40\n      dup3\n      add\n      mload\n      dup2\n      0x02\n      add\n      exp(0x0100, 0x00)\n      dup2\n      sload\n      dup2\n      0xff\n      mul\n      not\n      and\n      swap1\n      dup4\n      iszero\n      iszero\n      mul\n      or\n      swap1\n      sstore\n      pop\n      swap1\n      pop\n      pop\n        /* \"contracts/bookManagment.sol\":234:382  function addBook(uint id,string memory _title,string memory _author,bool ) public{... */\n      pop\n      pop\n      pop\n      pop\n      jump\t// out\n        /* \"contracts/bookManagment.sol\":498:717  function update(uint id) public{... */\n    tag_22:\n        /* \"contracts/bookManagment.sol\":575:579  true */\n      0x01\n        /* \"contracts/bookManagment.sol\":542:579  books[msg.sender][id].completed==true */\n      iszero\n      iszero\n        /* \"contracts/bookManagment.sol\":542:547  books */\n      0x00\n        /* \"contracts/bookManagment.sol\":542:559  books[msg.sender] */\n      dup1\n        /* \"contracts/bookManagment.sol\":548:558  msg.sender */\n      caller\n        /* \"contracts/bookManagment.sol\":542:559  books[msg.sender] */\n      0xffffffffffffffffffffffffffffffffffffffff\n      and\n      0xffffffffffffffffffffffffffffffffffffffff\n      and\n      dup2\n      mstore\n      0x20\n      add\n      swap1\n      dup2\n      mstore\n      0x20\n      add\n      0x00\n      keccak256\n        /* \"contracts/bookManagment.sol\":542:563  books[msg.sender][id] */\n      0x00\n        /* \"contracts/bookManagment.sol\":560:562  id */\n      dup4\n        /* \"contracts/bookManagment.sol\":542:563  books[msg.sender][id] */\n      dup2\n      mstore\n      0x20\n      add\n      swap1\n      dup2\n      mstore\n      0x20\n      add\n      0x00\n      keccak256\n        /* \"contracts/bookManagment.sol\":542:573  books[msg.sender][id].completed */\n      0x02\n      add\n      0x00\n      swap1\n      sload\n      swap1\n      0x0100\n      exp\n      swap1\n      div\n      0xff\n      and\n        /* \"contracts/bookManagment.sol\":542:579  books[msg.sender][id].completed==true */\n      iszero\n      iszero\n      sub\n        /* \"contracts/bookManagment.sol\":538:711  if (books[msg.sender][id].completed==true){... */\n      tag_46\n      jumpi\n        /* \"contracts/bookManagment.sol\":625:630  false */\n      0x00\n        /* \"contracts/bookManagment.sol\":593:598  books */\n      dup1\n        /* \"contracts/bookManagment.sol\":593:610  books[msg.sender] */\n      0x00\n        /* \"contracts/bookManagment.sol\":599:609  msg.sender */\n      caller\n        /* \"contracts/bookManagment.sol\":593:610  books[msg.sender] */\n      0xffffffffffffffffffffffffffffffffffffffff\n      and\n      0xffffffffffffffffffffffffffffffffffffffff\n      and\n      dup2\n      mstore\n      0x20\n      add\n      swap1\n      dup2\n      mstore\n      0x20\n      add\n      0x00\n      keccak256\n        /* \"contracts/bookManagment.sol\":593:614  books[msg.sender][id] */\n      0x00\n        /* \"contracts/bookManagment.sol\":611:613  id */\n      dup4\n        /* \"contracts/bookManagment.sol\":593:614  books[msg.sender][id] */\n      dup2\n      mstore\n      0x20\n      add\n      swap1\n      dup2\n      mstore\n      0x20\n      add\n      0x00\n      keccak256\n        /* \"contracts/bookManagment.sol\":593:624  books[msg.sender][id].completed */\n      0x02\n      add\n      0x00\n        /* \"contracts/bookManagment.sol\":593:630  books[msg.sender][id].completed=false */\n      0x0100\n      exp\n      dup2\n      sload\n      dup2\n      0xff\n      mul\n      not\n      and\n      swap1\n      dup4\n      iszero\n      iszero\n      mul\n      or\n      swap1\n      sstore\n      pop\n        /* \"contracts/bookManagment.sol\":538:711  if (books[msg.sender][id].completed==true){... */\n      jump(tag_47)\n    tag_46:\n        /* \"contracts/bookManagment.sol\":697:701  true */\n      0x01\n        /* \"contracts/bookManagment.sol\":665:670  books */\n      0x00\n        /* \"contracts/bookManagment.sol\":665:682  books[msg.sender] */\n      dup1\n        /* \"contracts/bookManagment.sol\":671:681  msg.sender */\n      caller\n        /* \"contracts/bookManagment.sol\":665:682  books[msg.sender] */\n      0xffffffffffffffffffffffffffffffffffffffff\n      and\n      0xffffffffffffffffffffffffffffffffffffffff\n      and\n      dup2\n      mstore\n      0x20\n      add\n      swap1\n      dup2\n      mstore\n      0x20\n      add\n      0x00\n      keccak256\n        /* \"contracts/bookManagment.sol\":665:686  books[msg.sender][id] */\n      0x00\n        /* \"contracts/bookManagment.sol\":683:685  id */\n      dup4\n        /* \"contracts/bookManagment.sol\":665:686  books[msg.sender][id] */\n      dup2\n      mstore\n      0x20\n      add\n      swap1\n      dup2\n      mstore\n      0x20\n      add\n      0x00\n      keccak256\n        /* \"contracts/bookManagment.sol\":665:696  books[msg.sender][id].completed */\n      0x02\n      add\n      0x00\n        /* \"contracts/bookManagment.sol\":665:701  books[msg.sender][id].completed=true */\n      0x0100\n      exp\n      dup2\n      sload\n      dup2\n      0xff\n      mul\n      not\n      and\n      swap1\n      dup4\n      iszero\n      iszero\n      mul\n      or\n      swap1\n      sstore\n      pop\n        /* \"contracts/bookManagment.sol\":538:711  if (books[msg.sender][id].completed==true){... */\n    tag_47:\n        /* \"contracts/bookManagment.sol\":498:717  function update(uint id) public{... */\n      pop\n      jump\t// out\n    tag_25:\n      pop\n      dup1\n      sload\n      tag_48\n      swap1\n      tag_31\n      jump\t// in\n    tag_48:\n      0x00\n      dup3\n      sstore\n      dup1\n      0x1f\n      lt\n      tag_50\n      jumpi\n      pop\n      jump(tag_49)\n    tag_50:\n      0x1f\n      add\n      0x20\n      swap1\n      div\n      swap1\n      0x00\n      mstore\n      keccak256(0x00, 0x20)\n      swap1\n      dup2\n      add\n      swap1\n      tag_51\n      swap2\n      swap1\n      tag_52\n      jump\t// in\n    tag_51:\n    tag_49:\n      pop\n      jump\t// out\n    tag_28:\n      mload(0x40)\n      dup1\n      0x60\n      add\n      0x40\n      mstore\n      dup1\n      0x60\n      dup2\n      mstore\n      0x20\n      add\n      0x60\n      dup2\n      mstore\n      0x20\n      add\n      iszero(iszero(0x00))\n      dup2\n      mstore\n      pop\n      swap1\n      jump\t// out\n    tag_52:\n    tag_53:\n      dup1\n      dup3\n      gt\n      iszero\n      tag_54\n      jumpi\n      0x00\n      dup2\n      0x00\n      swap1\n      sstore\n      pop\n      0x01\n      add\n      jump(tag_53)\n    tag_54:\n      pop\n      swap1\n      jump\t// out\n        /* \"#utility.yul\":7:82   */\n    tag_55:\n        /* \"#utility.yul\":40:46   */\n      0x00\n        /* \"#utility.yul\":73:75   */\n      0x40\n        /* \"#utility.yul\":67:76   */\n      mload\n        /* \"#utility.yul\":57:76   */\n      swap1\n      pop\n        /* \"#utility.yul\":7:82   */\n      swap1\n      jump\t// out\n        /* \"#utility.yul\":88:205   */\n    tag_56:\n        /* \"#utility.yul\":197:198   */\n      0x00\n        /* \"#utility.yul\":194:195   */\n      dup1\n        /* \"#utility.yul\":187:199   */\n      revert\n        /* \"#utility.yul\":211:328   */\n    tag_57:\n        /* \"#utility.yul\":320:321   */\n      0x00\n        /* \"#utility.yul\":317:318   */\n      dup1\n        /* \"#utility.yul\":310:322   */\n      revert\n        /* \"#utility.yul\":334:411   */\n    tag_58:\n        /* \"#utility.yul\":371:378   */\n      0x00\n        /* \"#utility.yul\":400:405   */\n      dup2\n        /* \"#utility.yul\":389:405   */\n      swap1\n      pop\n        /* \"#utility.yul\":334:411   */\n      swap2\n      swap1\n      pop\n      jump\t// out\n        /* \"#utility.yul\":417:539   */\n    tag_59:\n        /* \"#utility.yul\":490:514   */\n      tag_102\n        /* \"#utility.yul\":508:513   */\n      dup2\n        /* \"#utility.yul\":490:514   */\n      tag_58\n      jump\t// in\n    tag_102:\n        /* \"#utility.yul\":483:488   */\n      dup2\n        /* \"#utility.yul\":480:515   */\n      eq\n        /* \"#utility.yul\":470:533   */\n      tag_103\n      jumpi\n        /* \"#utility.yul\":529:530   */\n      0x00\n        /* \"#utility.yul\":526:527   */\n      dup1\n        /* \"#utility.yul\":519:531   */\n      revert\n        /* \"#utility.yul\":470:533   */\n    tag_103:\n        /* \"#utility.yul\":417:539   */\n      pop\n      jump\t// out\n        /* \"#utility.yul\":545:684   */\n    tag_60:\n        /* \"#utility.yul\":591:596   */\n      0x00\n        /* \"#utility.yul\":629:635   */\n      dup2\n        /* \"#utility.yul\":616:636   */\n      calldataload\n        /* \"#utility.yul\":607:636   */\n      swap1\n      pop\n        /* \"#utility.yul\":645:678   */\n      tag_105\n        /* \"#utility.yul\":672:677   */\n      dup2\n        /* \"#utility.yul\":645:678   */\n      tag_59\n      jump\t// in\n    tag_105:\n        /* \"#utility.yul\":545:684   */\n      swap3\n      swap2\n      pop\n      pop\n      jump\t// out\n        /* \"#utility.yul\":690:1019   */\n    tag_9:\n        /* \"#utility.yul\":749:755   */\n      0x00\n        /* \"#utility.yul\":798:800   */\n      0x20\n        /* \"#utility.yul\":786:795   */\n      dup3\n        /* \"#utility.yul\":777:784   */\n      dup5\n        /* \"#utility.yul\":773:796   */\n      sub\n        /* \"#utility.yul\":769:801   */\n      slt\n        /* \"#utility.yul\":766:885   */\n      iszero\n      tag_107\n      jumpi\n        /* \"#utility.yul\":804:883   */\n      tag_108\n      tag_56\n      jump\t// in\n    tag_108:\n        /* \"#utility.yul\":766:885   */\n    tag_107:\n        /* \"#utility.yul\":924:925   */\n      0x00\n        /* \"#utility.yul\":949:1002   */\n      tag_109\n        /* \"#utility.yul\":994:1001   */\n      dup5\n        /* \"#utility.yul\":985:991   */\n      dup3\n        /* \"#utility.yul\":974:983   */\n      dup6\n        /* \"#utility.yul\":970:992   */\n      add\n        /* \"#utility.yul\":949:1002   */\n      tag_60\n      jump\t// in\n    tag_109:\n        /* \"#utility.yul\":939:1002   */\n      swap2\n      pop\n        /* \"#utility.yul\":895:1012   */\n      pop\n        /* \"#utility.yul\":690:1019   */\n      swap3\n      swap2\n      pop\n      pop\n      jump\t// out\n        /* \"#utility.yul\":1025:1124   */\n    tag_61:\n        /* \"#utility.yul\":1077:1083   */\n      0x00\n        /* \"#utility.yul\":1111:1116   */\n      dup2\n        /* \"#utility.yul\":1105:1117   */\n      mload\n        /* \"#utility.yul\":1095:1117   */\n      swap1\n      pop\n        /* \"#utility.yul\":1025:1124   */\n      swap2\n      swap1\n      pop\n      jump\t// out\n        /* \"#utility.yul\":1130:1289   */\n    tag_62:\n        /* \"#utility.yul\":1204:1215   */\n      0x00\n        /* \"#utility.yul\":1238:1244   */\n      dup3\n        /* \"#utility.yul\":1233:1236   */\n      dup3\n        /* \"#utility.yul\":1226:1245   */\n      mstore\n        /* \"#utility.yul\":1278:1282   */\n      0x20\n        /* \"#utility.yul\":1273:1276   */\n      dup3\n        /* \"#utility.yul\":1269:1283   */\n      add\n        /* \"#utility.yul\":1254:1283   */\n      swap1\n      pop\n        /* \"#utility.yul\":1130:1289   */\n      swap3\n      swap2\n      pop\n      pop\n      jump\t// out\n        /* \"#utility.yul\":1295:1541   */\n    tag_63:\n        /* \"#utility.yul\":1376:1377   */\n      0x00\n        /* \"#utility.yul\":1386:1499   */\n    tag_113:\n        /* \"#utility.yul\":1400:1406   */\n      dup4\n        /* \"#utility.yul\":1397:1398   */\n      dup2\n        /* \"#utility.yul\":1394:1407   */\n      lt\n        /* \"#utility.yul\":1386:1499   */\n      iszero\n      tag_115\n      jumpi\n        /* \"#utility.yul\":1485:1486   */\n      dup1\n        /* \"#utility.yul\":1480:1483   */\n      dup3\n        /* \"#utility.yul\":1476:1487   */\n      add\n        /* \"#utility.yul\":1470:1488   */\n      mload\n        /* \"#utility.yul\":1466:1467   */\n      dup2\n        /* \"#utility.yul\":1461:1464   */\n      dup5\n        /* \"#utility.yul\":1457:1468   */\n      add\n        /* \"#utility.yul\":1450:1489   */\n      mstore\n        /* \"#utility.yul\":1422:1424   */\n      0x20\n        /* \"#utility.yul\":1419:1420   */\n      dup2\n        /* \"#utility.yul\":1415:1425   */\n      add\n        /* \"#utility.yul\":1410:1425   */\n      swap1\n      pop\n        /* \"#utility.yul\":1386:1499   */\n      jump(tag_113)\n    tag_115:\n        /* \"#utility.yul\":1533:1534   */\n      0x00\n        /* \"#utility.yul\":1524:1530   */\n      dup5\n        /* \"#utility.yul\":1519:1522   */\n      dup5\n        /* \"#utility.yul\":1515:1531   */\n      add\n        /* \"#utility.yul\":1508:1535   */\n      mstore\n        /* \"#utility.yul\":1357:1541   */\n      pop\n        /* \"#utility.yul\":1295:1541   */\n      pop\n      pop\n      pop\n      jump\t// out\n        /* \"#utility.yul\":1547:1649   */\n    tag_64:\n        /* \"#utility.yul\":1588:1594   */\n      0x00\n        /* \"#utility.yul\":1639:1641   */\n      0x1f\n        /* \"#utility.yul\":1635:1642   */\n      not\n        /* \"#utility.yul\":1630:1632   */\n      0x1f\n        /* \"#utility.yul\":1623:1628   */\n      dup4\n        /* \"#utility.yul\":1619:1633   */\n      add\n        /* \"#utility.yul\":1615:1643   */\n      and\n        /* \"#utility.yul\":1605:1643   */\n      swap1\n      pop\n        /* \"#utility.yul\":1547:1649   */\n      swap2\n      swap1\n      pop\n      jump\t// out\n        /* \"#utility.yul\":1655:2012   */\n    tag_65:\n        /* \"#utility.yul\":1733:1736   */\n      0x00\n        /* \"#utility.yul\":1761:1800   */\n      tag_118\n        /* \"#utility.yul\":1794:1799   */\n      dup3\n        /* \"#utility.yul\":1761:1800   */\n      tag_61\n      jump\t// in\n    tag_118:\n        /* \"#utility.yul\":1816:1877   */\n      tag_119\n        /* \"#utility.yul\":1870:1876   */\n      dup2\n        /* \"#utility.yul\":1865:1868   */\n      dup6\n        /* \"#utility.yul\":1816:1877   */\n      tag_62\n      jump\t// in\n    tag_119:\n        /* \"#utility.yul\":1809:1877   */\n      swap4\n      pop\n        /* \"#utility.yul\":1886:1951   */\n      tag_120\n        /* \"#utility.yul\":1944:1950   */\n      dup2\n        /* \"#utility.yul\":1939:1942   */\n      dup6\n        /* \"#utility.yul\":1932:1936   */\n      0x20\n        /* \"#utility.yul\":1925:1930   */\n      dup7\n        /* \"#utility.yul\":1921:1937   */\n      add\n        /* \"#utility.yul\":1886:1951   */\n      tag_63\n      jump\t// in\n    tag_120:\n        /* \"#utility.yul\":1976:2005   */\n      tag_121\n        /* \"#utility.yul\":1998:2004   */\n      dup2\n        /* \"#utility.yul\":1976:2005   */\n      tag_64\n      jump\t// in\n    tag_121:\n        /* \"#utility.yul\":1971:1974   */\n      dup5\n        /* \"#utility.yul\":1967:2006   */\n      add\n        /* \"#utility.yul\":1960:2006   */\n      swap2\n      pop\n        /* \"#utility.yul\":1737:2012   */\n      pop\n        /* \"#utility.yul\":1655:2012   */\n      swap3\n      swap2\n      pop\n      pop\n      jump\t// out\n        /* \"#utility.yul\":2018:2108   */\n    tag_66:\n        /* \"#utility.yul\":2052:2059   */\n      0x00\n        /* \"#utility.yul\":2095:2100   */\n      dup2\n        /* \"#utility.yul\":2088:2101   */\n      iszero\n        /* \"#utility.yul\":2081:2102   */\n      iszero\n        /* \"#utility.yul\":2070:2102   */\n      swap1\n      pop\n        /* \"#utility.yul\":2018:2108   */\n      swap2\n      swap1\n      pop\n      jump\t// out\n        /* \"#utility.yul\":2114:2213   */\n    tag_67:\n        /* \"#utility.yul\":2185:2206   */\n      tag_124\n        /* \"#utility.yul\":2200:2205   */\n      dup2\n        /* \"#utility.yul\":2185:2206   */\n      tag_66\n      jump\t// in\n    tag_124:\n        /* \"#utility.yul\":2180:2183   */\n      dup3\n        /* \"#utility.yul\":2173:2207   */\n      mstore\n        /* \"#utility.yul\":2114:2213   */\n      pop\n      pop\n      jump\t// out\n        /* \"#utility.yul\":2281:3122   */\n    tag_68:\n        /* \"#utility.yul\":2388:2391   */\n      0x00\n        /* \"#utility.yul\":2424:2428   */\n      0x60\n        /* \"#utility.yul\":2419:2422   */\n      dup4\n        /* \"#utility.yul\":2415:2429   */\n      add\n        /* \"#utility.yul\":2512:2516   */\n      0x00\n        /* \"#utility.yul\":2505:2510   */\n      dup4\n        /* \"#utility.yul\":2501:2517   */\n      add\n        /* \"#utility.yul\":2495:2518   */\n      mload\n        /* \"#utility.yul\":2565:2568   */\n      dup5\n        /* \"#utility.yul\":2559:2563   */\n      dup3\n        /* \"#utility.yul\":2555:2569   */\n      sub\n        /* \"#utility.yul\":2548:2552   */\n      0x00\n        /* \"#utility.yul\":2543:2546   */\n      dup7\n        /* \"#utility.yul\":2539:2553   */\n      add\n        /* \"#utility.yul\":2532:2570   */\n      mstore\n        /* \"#utility.yul\":2591:2664   */\n      tag_126\n        /* \"#utility.yul\":2659:2663   */\n      dup3\n        /* \"#utility.yul\":2645:2657   */\n      dup3\n        /* \"#utility.yul\":2591:2664   */\n      tag_65\n      jump\t// in\n    tag_126:\n        /* \"#utility.yul\":2583:2664   */\n      swap2\n      pop\n        /* \"#utility.yul\":2439:2675   */\n      pop\n        /* \"#utility.yul\":2759:2763   */\n      0x20\n        /* \"#utility.yul\":2752:2757   */\n      dup4\n        /* \"#utility.yul\":2748:2764   */\n      add\n        /* \"#utility.yul\":2742:2765   */\n      mload\n        /* \"#utility.yul\":2812:2815   */\n      dup5\n        /* \"#utility.yul\":2806:2810   */\n      dup3\n        /* \"#utility.yul\":2802:2816   */\n      sub\n        /* \"#utility.yul\":2795:2799   */\n      0x20\n        /* \"#utility.yul\":2790:2793   */\n      dup7\n        /* \"#utility.yul\":2786:2800   */\n      add\n        /* \"#utility.yul\":2779:2817   */\n      mstore\n        /* \"#utility.yul\":2838:2911   */\n      tag_127\n        /* \"#utility.yul\":2906:2910   */\n      dup3\n        /* \"#utility.yul\":2892:2904   */\n      dup3\n        /* \"#utility.yul\":2838:2911   */\n      tag_65\n      jump\t// in\n    tag_127:\n        /* \"#utility.yul\":2830:2911   */\n      swap2\n      pop\n        /* \"#utility.yul\":2685:2922   */\n      pop\n        /* \"#utility.yul\":3009:3013   */\n      0x40\n        /* \"#utility.yul\":3002:3007   */\n      dup4\n        /* \"#utility.yul\":2998:3014   */\n      add\n        /* \"#utility.yul\":2992:3015   */\n      mload\n        /* \"#utility.yul\":3028:3085   */\n      tag_128\n        /* \"#utility.yul\":3079:3083   */\n      0x40\n        /* \"#utility.yul\":3074:3077   */\n      dup7\n        /* \"#utility.yul\":3070:3084   */\n      add\n        /* \"#utility.yul\":3056:3068   */\n      dup3\n        /* \"#utility.yul\":3028:3085   */\n      tag_67\n      jump\t// in\n    tag_128:\n        /* \"#utility.yul\":2932:3095   */\n      pop\n        /* \"#utility.yul\":3112:3116   */\n      dup1\n        /* \"#utility.yul\":3105:3116   */\n      swap2\n      pop\n        /* \"#utility.yul\":2393:3122   */\n      pop\n        /* \"#utility.yul\":2281:3122   */\n      swap3\n      swap2\n      pop\n      pop\n      jump\t// out\n        /* \"#utility.yul\":3128:3477   */\n    tag_15:\n        /* \"#utility.yul\":3259:3263   */\n      0x00\n        /* \"#utility.yul\":3297:3299   */\n      0x20\n        /* \"#utility.yul\":3286:3295   */\n      dup3\n        /* \"#utility.yul\":3282:3300   */\n      add\n        /* \"#utility.yul\":3274:3300   */\n      swap1\n      pop\n        /* \"#utility.yul\":3346:3355   */\n      dup2\n        /* \"#utility.yul\":3340:3344   */\n      dup2\n        /* \"#utility.yul\":3336:3356   */\n      sub\n        /* \"#utility.yul\":3332:3333   */\n      0x00\n        /* \"#utility.yul\":3321:3330   */\n      dup4\n        /* \"#utility.yul\":3317:3334   */\n      add\n        /* \"#utility.yul\":3310:3357   */\n      mstore\n        /* \"#utility.yul\":3374:3470   */\n      tag_130\n        /* \"#utility.yul\":3465:3469   */\n      dup2\n        /* \"#utility.yul\":3456:3462   */\n      dup5\n        /* \"#utility.yul\":3374:3470   */\n      tag_68\n      jump\t// in\n    tag_130:\n        /* \"#utility.yul\":3366:3470   */\n      swap1\n      pop\n        /* \"#utility.yul\":3128:3477   */\n      swap3\n      swap2\n      pop\n      pop\n      jump\t// out\n        /* \"#utility.yul\":3483:3600   */\n    tag_69:\n        /* \"#utility.yul\":3592:3593   */\n      0x00\n        /* \"#utility.yul\":3589:3590   */\n      dup1\n        /* \"#utility.yul\":3582:3594   */\n      revert\n        /* \"#utility.yul\":3606:3723   */\n    tag_70:\n        /* \"#utility.yul\":3715:3716   */\n      0x00\n        /* \"#utility.yul\":3712:3713   */\n      dup1\n        /* \"#utility.yul\":3705:3717   */\n      revert\n        /* \"#utility.yul\":3729:3909   */\n    tag_71:\n        /* \"#utility.yul\":3777:3854   */\n      0x4e487b7100000000000000000000000000000000000000000000000000000000\n        /* \"#utility.yul\":3774:3775   */\n      0x00\n        /* \"#utility.yul\":3767:3855   */\n      mstore\n        /* \"#utility.yul\":3874:3878   */\n      0x41\n        /* \"#utility.yul\":3871:3872   */\n      0x04\n        /* \"#utility.yul\":3864:3879   */\n      mstore\n        /* \"#utility.yul\":3898:3902   */\n      0x24\n        /* \"#utility.yul\":3895:3896   */\n      0x00\n        /* \"#utility.yul\":3888:3903   */\n      revert\n        /* \"#utility.yul\":3915:4196   */\n    tag_72:\n        /* \"#utility.yul\":3998:4025   */\n      tag_135\n        /* \"#utility.yul\":4020:4024   */\n      dup3\n        /* \"#utility.yul\":3998:4025   */\n      tag_64\n      jump\t// in\n    tag_135:\n        /* \"#utility.yul\":3990:3996   */\n      dup2\n        /* \"#utility.yul\":3986:4026   */\n      add\n        /* \"#utility.yul\":4128:4134   */\n      dup2\n        /* \"#utility.yul\":4116:4126   */\n      dup2\n        /* \"#utility.yul\":4113:4135   */\n      lt\n        /* \"#utility.yul\":4092:4110   */\n      0xffffffffffffffff\n        /* \"#utility.yul\":4080:4090   */\n      dup3\n        /* \"#utility.yul\":4077:4111   */\n      gt\n        /* \"#utility.yul\":4074:4136   */\n      or\n        /* \"#utility.yul\":4071:4159   */\n      iszero\n      tag_136\n      jumpi\n        /* \"#utility.yul\":4139:4157   */\n      tag_137\n      tag_71\n      jump\t// in\n    tag_137:\n        /* \"#utility.yul\":4071:4159   */\n    tag_136:\n        /* \"#utility.yul\":4179:4189   */\n      dup1\n        /* \"#utility.yul\":4175:4177   */\n      0x40\n        /* \"#utility.yul\":4168:4190   */\n      mstore\n        /* \"#utility.yul\":3958:4196   */\n      pop\n        /* \"#utility.yul\":3915:4196   */\n      pop\n      pop\n      jump\t// out\n        /* \"#utility.yul\":4202:4331   */\n    tag_73:\n        /* \"#utility.yul\":4236:4242   */\n      0x00\n        /* \"#utility.yul\":4263:4283   */\n      tag_139\n      tag_55\n      jump\t// in\n    tag_139:\n        /* \"#utility.yul\":4253:4283   */\n      swap1\n      pop\n        /* \"#utility.yul\":4292:4325   */\n      tag_140\n        /* \"#utility.yul\":4320:4324   */\n      dup3\n        /* \"#utility.yul\":4312:4318   */\n      dup3\n        /* \"#utility.yul\":4292:4325   */\n      tag_72\n      jump\t// in\n    tag_140:\n        /* \"#utility.yul\":4202:4331   */\n      swap2\n      swap1\n      pop\n      jump\t// out\n        /* \"#utility.yul\":4337:4645   */\n    tag_74:\n        /* \"#utility.yul\":4399:4403   */\n      0x00\n        /* \"#utility.yul\":4489:4507   */\n      0xffffffffffffffff\n        /* \"#utility.yul\":4481:4487   */\n      dup3\n        /* \"#utility.yul\":4478:4508   */\n      gt\n        /* \"#utility.yul\":4475:4531   */\n      iszero\n      tag_142\n      jumpi\n        /* \"#utility.yul\":4511:4529   */\n      tag_143\n      tag_71\n      jump\t// in\n    tag_143:\n        /* \"#utility.yul\":4475:4531   */\n    tag_142:\n        /* \"#utility.yul\":4549:4578   */\n      tag_144\n        /* \"#utility.yul\":4571:4577   */\n      dup3\n        /* \"#utility.yul\":4549:4578   */\n      tag_64\n      jump\t// in\n    tag_144:\n        /* \"#utility.yul\":4541:4578   */\n      swap1\n      pop\n        /* \"#utility.yul\":4633:4637   */\n      0x20\n        /* \"#utility.yul\":4627:4631   */\n      dup2\n        /* \"#utility.yul\":4623:4638   */\n      add\n        /* \"#utility.yul\":4615:4638   */\n      swap1\n      pop\n        /* \"#utility.yul\":4337:4645   */\n      swap2\n      swap1\n      pop\n      jump\t// out\n        /* \"#utility.yul\":4651:4797   */\n    tag_75:\n        /* \"#utility.yul\":4748:4754   */\n      dup3\n        /* \"#utility.yul\":4743:4746   */\n      dup2\n        /* \"#utility.yul\":4738:4741   */\n      dup4\n        /* \"#utility.yul\":4725:4755   */\n      calldatacopy\n        /* \"#utility.yul\":4789:4790   */\n      0x00\n        /* \"#utility.yul\":4780:4786   */\n      dup4\n        /* \"#utility.yul\":4775:4778   */\n      dup4\n        /* \"#utility.yul\":4771:4787   */\n      add\n        /* \"#utility.yul\":4764:4791   */\n      mstore\n        /* \"#utility.yul\":4651:4797   */\n      pop\n      pop\n      pop\n      jump\t// out\n        /* \"#utility.yul\":4803:5228   */\n    tag_76:\n        /* \"#utility.yul\":4881:4886   */\n      0x00\n        /* \"#utility.yul\":4906:4972   */\n      tag_147\n        /* \"#utility.yul\":4922:4971   */\n      tag_148\n        /* \"#utility.yul\":4964:4970   */\n      dup5\n        /* \"#utility.yul\":4922:4971   */\n      tag_74\n      jump\t// in\n    tag_148:\n        /* \"#utility.yul\":4906:4972   */\n      tag_73\n      jump\t// in\n    tag_147:\n        /* \"#utility.yul\":4897:4972   */\n      swap1\n      pop\n        /* \"#utility.yul\":4995:5001   */\n      dup3\n        /* \"#utility.yul\":4988:4993   */\n      dup2\n        /* \"#utility.yul\":4981:5002   */\n      mstore\n        /* \"#utility.yul\":5033:5037   */\n      0x20\n        /* \"#utility.yul\":5026:5031   */\n      dup2\n        /* \"#utility.yul\":5022:5038   */\n      add\n        /* \"#utility.yul\":5071:5074   */\n      dup5\n        /* \"#utility.yul\":5062:5068   */\n      dup5\n        /* \"#utility.yul\":5057:5060   */\n      dup5\n        /* \"#utility.yul\":5053:5069   */\n      add\n        /* \"#utility.yul\":5050:5075   */\n      gt\n        /* \"#utility.yul\":5047:5159   */\n      iszero\n      tag_149\n      jumpi\n        /* \"#utility.yul\":5078:5157   */\n      tag_150\n      tag_70\n      jump\t// in\n    tag_150:\n        /* \"#utility.yul\":5047:5159   */\n    tag_149:\n        /* \"#utility.yul\":5168:5222   */\n      tag_151\n        /* \"#utility.yul\":5215:5221   */\n      dup5\n        /* \"#utility.yul\":5210:5213   */\n      dup3\n        /* \"#utility.yul\":5205:5208   */\n      dup6\n        /* \"#utility.yul\":5168:5222   */\n      tag_75\n      jump\t// in\n    tag_151:\n        /* \"#utility.yul\":4887:5228   */\n      pop\n        /* \"#utility.yul\":4803:5228   */\n      swap4\n      swap3\n      pop\n      pop\n      pop\n      jump\t// out\n        /* \"#utility.yul\":5248:5588   */\n    tag_77:\n        /* \"#utility.yul\":5304:5309   */\n      0x00\n        /* \"#utility.yul\":5353:5356   */\n      dup3\n        /* \"#utility.yul\":5346:5350   */\n      0x1f\n        /* \"#utility.yul\":5338:5344   */\n      dup4\n        /* \"#utility.yul\":5334:5351   */\n      add\n        /* \"#utility.yul\":5330:5357   */\n      slt\n        /* \"#utility.yul\":5320:5442   */\n      tag_153\n      jumpi\n        /* \"#utility.yul\":5361:5440   */\n      tag_154\n      tag_69\n      jump\t// in\n    tag_154:\n        /* \"#utility.yul\":5320:5442   */\n    tag_153:\n        /* \"#utility.yul\":5478:5484   */\n      dup2\n        /* \"#utility.yul\":5465:5485   */\n      calldataload\n        /* \"#utility.yul\":5503:5582   */\n      tag_155\n        /* \"#utility.yul\":5578:5581   */\n      dup5\n        /* \"#utility.yul\":5570:5576   */\n      dup3\n        /* \"#utility.yul\":5563:5567   */\n      0x20\n        /* \"#utility.yul\":5555:5561   */\n      dup7\n        /* \"#utility.yul\":5551:5568   */\n      add\n        /* \"#utility.yul\":5503:5582   */\n      tag_76\n      jump\t// in\n    tag_155:\n        /* \"#utility.yul\":5494:5582   */\n      swap2\n      pop\n        /* \"#utility.yul\":5310:5588   */\n      pop\n        /* \"#utility.yul\":5248:5588   */\n      swap3\n      swap2\n      pop\n      pop\n      jump\t// out\n        /* \"#utility.yul\":5594:5710   */\n    tag_78:\n        /* \"#utility.yul\":5664:5685   */\n      tag_157\n        /* \"#utility.yul\":5679:5684   */\n      dup2\n        /* \"#utility.yul\":5664:5685   */\n      tag_66\n      jump\t// in\n    tag_157:\n        /* \"#utility.yul\":5657:5662   */\n      dup2\n        /* \"#utility.yul\":5654:5686   */\n      eq\n        /* \"#utility.yul\":5644:5704   */\n      tag_158\n      jumpi\n        /* \"#utility.yul\":5700:5701   */\n      0x00\n        /* \"#utility.yul\":5697:5698   */\n      dup1\n        /* \"#utility.yul\":5690:5702   */\n      revert\n        /* \"#utility.yul\":5644:5704   */\n    tag_158:\n        /* \"#utility.yul\":5594:5710   */\n      pop\n      jump\t// out\n        /* \"#utility.yul\":5716:5849   */\n    tag_79:\n        /* \"#utility.yul\":5759:5764   */\n      0x00\n        /* \"#utility.yul\":5797:5803   */\n      dup2\n        /* \"#utility.yul\":5784:5804   */\n      calldataload\n        /* \"#utility.yul\":5775:5804   */\n      swap1\n      pop\n        /* \"#utility.yul\":5813:5843   */\n      tag_160\n        /* \"#utility.yul\":5837:5842   */\n      dup2\n        /* \"#utility.yul\":5813:5843   */\n      tag_78\n      jump\t// in\n    tag_160:\n        /* \"#utility.yul\":5716:5849   */\n      swap3\n      swap2\n      pop\n      pop\n      jump\t// out\n        /* \"#utility.yul\":5855:6974   */\n    tag_18:\n        /* \"#utility.yul\":5958:5964   */\n      0x00\n        /* \"#utility.yul\":5966:5972   */\n      dup1\n        /* \"#utility.yul\":5974:5980   */\n      0x00\n        /* \"#utility.yul\":5982:5988   */\n      dup1\n        /* \"#utility.yul\":6031:6034   */\n      0x80\n        /* \"#utility.yul\":6019:6028   */\n      dup6\n        /* \"#utility.yul\":6010:6017   */\n      dup8\n        /* \"#utility.yul\":6006:6029   */\n      sub\n        /* \"#utility.yul\":6002:6035   */\n      slt\n        /* \"#utility.yul\":5999:6119   */\n      iszero\n      tag_162\n      jumpi\n        /* \"#utility.yul\":6038:6117   */\n      tag_163\n      tag_56\n      jump\t// in\n    tag_163:\n        /* \"#utility.yul\":5999:6119   */\n    tag_162:\n        /* \"#utility.yul\":6158:6159   */\n      0x00\n        /* \"#utility.yul\":6183:6236   */\n      tag_164\n        /* \"#utility.yul\":6228:6235   */\n      dup8\n        /* \"#utility.yul\":6219:6225   */\n      dup3\n        /* \"#utility.yul\":6208:6217   */\n      dup9\n        /* \"#utility.yul\":6204:6226   */\n      add\n        /* \"#utility.yul\":6183:6236   */\n      tag_60\n      jump\t// in\n    tag_164:\n        /* \"#utility.yul\":6173:6236   */\n      swap5\n      pop\n        /* \"#utility.yul\":6129:6246   */\n      pop\n        /* \"#utility.yul\":6313:6315   */\n      0x20\n        /* \"#utility.yul\":6302:6311   */\n      dup6\n        /* \"#utility.yul\":6298:6316   */\n      add\n        /* \"#utility.yul\":6285:6317   */\n      calldataload\n        /* \"#utility.yul\":6344:6362   */\n      0xffffffffffffffff\n        /* \"#utility.yul\":6336:6342   */\n      dup2\n        /* \"#utility.yul\":6333:6363   */\n      gt\n        /* \"#utility.yul\":6330:6447   */\n      iszero\n      tag_165\n      jumpi\n        /* \"#utility.yul\":6366:6445   */\n      tag_166\n      tag_57\n      jump\t// in\n    tag_166:\n        /* \"#utility.yul\":6330:6447   */\n    tag_165:\n        /* \"#utility.yul\":6471:6534   */\n      tag_167\n        /* \"#utility.yul\":6526:6533   */\n      dup8\n        /* \"#utility.yul\":6517:6523   */\n      dup3\n        /* \"#utility.yul\":6506:6515   */\n      dup9\n        /* \"#utility.yul\":6502:6524   */\n      add\n        /* \"#utility.yul\":6471:6534   */\n      tag_77\n      jump\t// in\n    tag_167:\n        /* \"#utility.yul\":6461:6534   */\n      swap4\n      pop\n        /* \"#utility.yul\":6256:6544   */\n      pop\n        /* \"#utility.yul\":6611:6613   */\n      0x40\n        /* \"#utility.yul\":6600:6609   */\n      dup6\n        /* \"#utility.yul\":6596:6614   */\n      add\n        /* \"#utility.yul\":6583:6615   */\n      calldataload\n        /* \"#utility.yul\":6642:6660   */\n      0xffffffffffffffff\n        /* \"#utility.yul\":6634:6640   */\n      dup2\n        /* \"#utility.yul\":6631:6661   */\n      gt\n        /* \"#utility.yul\":6628:6745   */\n      iszero\n      tag_168\n      jumpi\n        /* \"#utility.yul\":6664:6743   */\n      tag_169\n      tag_57\n      jump\t// in\n    tag_169:\n        /* \"#utility.yul\":6628:6745   */\n    tag_168:\n        /* \"#utility.yul\":6769:6832   */\n      tag_170\n        /* \"#utility.yul\":6824:6831   */\n      dup8\n        /* \"#utility.yul\":6815:6821   */\n      dup3\n        /* \"#utility.yul\":6804:6813   */\n      dup9\n        /* \"#utility.yul\":6800:6822   */\n      add\n        /* \"#utility.yul\":6769:6832   */\n      tag_77\n      jump\t// in\n    tag_170:\n        /* \"#utility.yul\":6759:6832   */\n      swap3\n      pop\n        /* \"#utility.yul\":6554:6842   */\n      pop\n        /* \"#utility.yul\":6881:6883   */\n      0x60\n        /* \"#utility.yul\":6907:6957   */\n      tag_171\n        /* \"#utility.yul\":6949:6956   */\n      dup8\n        /* \"#utility.yul\":6940:6946   */\n      dup3\n        /* \"#utility.yul\":6929:6938   */\n      dup9\n        /* \"#utility.yul\":6925:6947   */\n      add\n        /* \"#utility.yul\":6907:6957   */\n      tag_79\n      jump\t// in\n    tag_171:\n        /* \"#utility.yul\":6897:6957   */\n      swap2\n      pop\n        /* \"#utility.yul\":6852:6967   */\n      pop\n        /* \"#utility.yul\":5855:6974   */\n      swap3\n      swap6\n      swap2\n      swap5\n      pop\n      swap3\n      pop\n      jump\t// out\n        /* \"#utility.yul\":6980:7160   */\n    tag_80:\n        /* \"#utility.yul\":7028:7105   */\n      0x4e487b7100000000000000000000000000000000000000000000000000000000\n        /* \"#utility.yul\":7025:7026   */\n      0x00\n        /* \"#utility.yul\":7018:7106   */\n      mstore\n        /* \"#utility.yul\":7125:7129   */\n      0x22\n        /* \"#utility.yul\":7122:7123   */\n      0x04\n        /* \"#utility.yul\":7115:7130   */\n      mstore\n        /* \"#utility.yul\":7149:7153   */\n      0x24\n        /* \"#utility.yul\":7146:7147   */\n      0x00\n        /* \"#utility.yul\":7139:7154   */\n      revert\n        /* \"#utility.yul\":7166:7486   */\n    tag_31:\n        /* \"#utility.yul\":7210:7216   */\n      0x00\n        /* \"#utility.yul\":7247:7248   */\n      0x02\n        /* \"#utility.yul\":7241:7245   */\n      dup3\n        /* \"#utility.yul\":7237:7249   */\n      div\n        /* \"#utility.yul\":7227:7249   */\n      swap1\n      pop\n        /* \"#utility.yul\":7294:7295   */\n      0x01\n        /* \"#utility.yul\":7288:7292   */\n      dup3\n        /* \"#utility.yul\":7284:7296   */\n      and\n        /* \"#utility.yul\":7315:7333   */\n      dup1\n        /* \"#utility.yul\":7305:7386   */\n      tag_174\n      jumpi\n        /* \"#utility.yul\":7371:7375   */\n      0x7f\n        /* \"#utility.yul\":7363:7369   */\n      dup3\n        /* \"#utility.yul\":7359:7376   */\n      and\n        /* \"#utility.yul\":7349:7376   */\n      swap2\n      pop\n        /* \"#utility.yul\":7305:7386   */\n    tag_174:\n        /* \"#utility.yul\":7433:7435   */\n      0x20\n        /* \"#utility.yul\":7425:7431   */\n      dup3\n        /* \"#utility.yul\":7422:7436   */\n      lt\n        /* \"#utility.yul\":7402:7420   */\n      dup2\n        /* \"#utility.yul\":7399:7437   */\n      sub\n        /* \"#utility.yul\":7396:7480   */\n      tag_175\n      jumpi\n        /* \"#utility.yul\":7452:7470   */\n      tag_176\n      tag_80\n      jump\t// in\n    tag_176:\n        /* \"#utility.yul\":7396:7480   */\n    tag_175:\n        /* \"#utility.yul\":7217:7486   */\n      pop\n        /* \"#utility.yul\":7166:7486   */\n      swap2\n      swap1\n      pop\n      jump\t// out\n        /* \"#utility.yul\":7492:7633   */\n    tag_81:\n        /* \"#utility.yul\":7541:7545   */\n      0x00\n        /* \"#utility.yul\":7564:7567   */\n      dup2\n        /* \"#utility.yul\":7556:7567   */\n      swap1\n      pop\n        /* \"#utility.yul\":7587:7590   */\n      dup2\n        /* \"#utility.yul\":7584:7585   */\n      0x00\n        /* \"#utility.yul\":7577:7591   */\n      mstore\n        /* \"#utility.yul\":7621:7625   */\n      0x20\n        /* \"#utility.yul\":7618:7619   */\n      0x00\n        /* \"#utility.yul\":7608:7626   */\n      keccak256\n        /* \"#utility.yul\":7600:7626   */\n      swap1\n      pop\n        /* \"#utility.yul\":7492:7633   */\n      swap2\n      swap1\n      pop\n      jump\t// out\n        /* \"#utility.yul\":7639:7732   */\n    tag_82:\n        /* \"#utility.yul\":7676:7682   */\n      0x00\n        /* \"#utility.yul\":7723:7725   */\n      0x20\n        /* \"#utility.yul\":7718:7720   */\n      0x1f\n        /* \"#utility.yul\":7711:7716   */\n      dup4\n        /* \"#utility.yul\":7707:7721   */\n      add\n        /* \"#utility.yul\":7703:7726   */\n      div\n        /* \"#utility.yul\":7693:7726   */\n      swap1\n      pop\n        /* \"#utility.yul\":7639:7732   */\n      swap2\n      swap1\n      pop\n      jump\t// out\n        /* \"#utility.yul\":7738:7845   */\n    tag_83:\n        /* \"#utility.yul\":7782:7790   */\n      0x00\n        /* \"#utility.yul\":7832:7837   */\n      dup3\n        /* \"#utility.yul\":7826:7830   */\n      dup3\n        /* \"#utility.yul\":7822:7838   */\n      shl\n        /* \"#utility.yul\":7801:7838   */\n      swap1\n      pop\n        /* \"#utility.yul\":7738:7845   */\n      swap3\n      swap2\n      pop\n      pop\n      jump\t// out\n        /* \"#utility.yul\":7851:8244   */\n    tag_84:\n        /* \"#utility.yul\":7920:7926   */\n      0x00\n        /* \"#utility.yul\":7970:7971   */\n      0x08\n        /* \"#utility.yul\":7958:7968   */\n      dup4\n        /* \"#utility.yul\":7954:7972   */\n      mul\n        /* \"#utility.yul\":7993:8090   */\n      tag_181\n        /* \"#utility.yul\":8023:8089   */\n      0xffffffffffffffffffffffffffffffffffffffffffffffffffffffffffffffff\n        /* \"#utility.yul\":8012:8021   */\n      dup3\n        /* \"#utility.yul\":7993:8090   */\n      tag_83\n      jump\t// in\n    tag_181:\n        /* \"#utility.yul\":8111:8150   */\n      tag_182\n        /* \"#utility.yul\":8141:8149   */\n      dup7\n        /* \"#utility.yul\":8130:8139   */\n      dup4\n        /* \"#utility.yul\":8111:8150   */\n      tag_83\n      jump\t// in\n    tag_182:\n        /* \"#utility.yul\":8099:8150   */\n      swap6\n      pop\n        /* \"#utility.yul\":8183:8187   */\n      dup1\n        /* \"#utility.yul\":8179:8188   */\n      not\n        /* \"#utility.yul\":8172:8177   */\n      dup5\n        /* \"#utility.yul\":8168:8189   */\n      and\n        /* \"#utility.yul\":8159:8189   */\n      swap4\n      pop\n        /* \"#utility.yul\":8232:8236   */\n      dup1\n        /* \"#utility.yul\":8222:8230   */\n      dup7\n        /* \"#utility.yul\":8218:8237   */\n      and\n        /* \"#utility.yul\":8211:8216   */\n      dup5\n        /* \"#utility.yul\":8208:8238   */\n      or\n        /* \"#utility.yul\":8198:8238   */\n      swap3\n      pop\n        /* \"#utility.yul\":7927:8244   */\n      pop\n      pop\n        /* \"#utility.yul\":7851:8244   */\n      swap4\n      swap3\n      pop\n      pop\n      pop\n      jump\t// out\n        /* \"#utility.yul\":8250:8310   */\n    tag_85:\n        /* \"#utility.yul\":8278:8281   */\n      0x00\n        /* \"#utility.yul\":8299:8304   */\n      dup2\n        /* \"#utility.yul\":8292:8304   */\n      swap1\n      pop\n        /* \"#utility.yul\":8250:8310   */\n      swap2\n      swap1\n      pop\n      jump\t// out\n        /* \"#utility.yul\":8316:8458   */\n    tag_86:\n        /* \"#utility.yul\":8366:8375   */\n      0x00\n        /* \"#utility.yul\":8399:8452   */\n      tag_185\n        /* \"#utility.yul\":8417:8451   */\n      tag_186\n        /* \"#utility.yul\":8426:8450   */\n      tag_187\n        /* \"#utility.yul\":8444:8449   */\n      dup5\n        /* \"#utility.yul\":8426:8450   */\n      tag_58\n      jump\t// in\n    tag_187:\n        /* \"#utility.yul\":8417:8451   */\n      tag_85\n      jump\t// in\n    tag_186:\n        /* \"#utility.yul\":8399:8452   */\n      tag_58\n      jump\t// in\n    tag_185:\n        /* \"#utility.yul\":8386:8452   */\n      swap1\n      pop\n        /* \"#utility.yul\":8316:8458   */\n      swap2\n      swap1\n      pop\n      jump\t// out\n        /* \"#utility.yul\":8464:8539   */\n    tag_87:\n        /* \"#utility.yul\":8507:8510   */\n      0x00\n        /* \"#utility.yul\":8528:8533   */\n      dup2\n        /* \"#utility.yul\":8521:8533   */\n      swap1\n      pop\n        /* \"#utility.yul\":8464:8539   */\n      swap2\n      swap1\n      pop\n      jump\t// out\n        /* \"#utility.yul\":8545:8814   */\n    tag_88:\n        /* \"#utility.yul\":8655:8694   */\n      tag_190\n        /* \"#utility.yul\":8686:8693   */\n      dup4\n        /* \"#utility.yul\":8655:8694   */\n      tag_86\n      jump\t// in\n    tag_190:\n        /* \"#utility.yul\":8716:8807   */\n      tag_191\n        /* \"#utility.yul\":8765:8806   */\n      tag_192\n        /* \"#utility.yul\":8789:8805   */\n      dup3\n        /* \"#utility.yul\":8765:8806   */\n      tag_87\n      jump\t// in\n    tag_192:\n        /* \"#utility.yul\":8757:8763   */\n      dup5\n        /* \"#utility.yul\":8750:8754   */\n      dup5\n        /* \"#utility.yul\":8744:8755   */\n      sload\n        /* \"#utility.yul\":8716:8807   */\n      tag_84\n      jump\t// in\n    tag_191:\n        /* \"#utility.yul\":8710:8714   */\n      dup3\n        /* \"#utility.yul\":8703:8808   */\n      sstore\n        /* \"#utility.yul\":8621:8814   */\n      pop\n        /* \"#utility.yul\":8545:8814   */\n      pop\n      pop\n      pop\n      jump\t// out\n        /* \"#utility.yul\":8820:8893   */\n    tag_89:\n        /* \"#utility.yul\":8865:8868   */\n      0x00\n        /* \"#utility.yul\":8820:8893   */\n      swap1\n      jump\t// out\n        /* \"#utility.yul\":8899:9088   */\n    tag_90:\n        /* \"#utility.yul\":8976:9008   */\n      tag_195\n      tag_89\n      jump\t// in\n    tag_195:\n        /* \"#utility.yul\":9017:9082   */\n      tag_196\n        /* \"#utility.yul\":9075:9081   */\n      dup2\n        /* \"#utility.yul\":9067:9073   */\n      dup5\n        /* \"#utility.yul\":9061:9065   */\n      dup5\n        /* \"#utility.yul\":9017:9082   */\n      tag_88\n      jump\t// in\n    tag_196:\n        /* \"#utility.yul\":8952:9088   */\n      pop\n        /* \"#utility.yul\":8899:9088   */\n      pop\n      pop\n      jump\t// out\n        /* \"#utility.yul\":9094:9280   */\n    tag_91:\n        /* \"#utility.yul\":9154:9274   */\n    tag_198:\n        /* \"#utility.yul\":9171:9174   */\n      dup2\n        /* \"#utility.yul\":9164:9169   */\n      dup2\n        /* \"#utility.yul\":9161:9175   */\n      lt\n        /* \"#utility.yul\":9154:9274   */\n      iszero\n      tag_200\n      jumpi\n        /* \"#utility.yul\":9225:9264   */\n      tag_201\n        /* \"#utility.yul\":9262:9263   */\n      0x00\n        /* \"#utility.yul\":9255:9260   */\n      dup3\n        /* \"#utility.yul\":9225:9264   */\n      tag_90\n      jump\t// in\n    tag_201:\n        /* \"#utility.yul\":9198:9199   */\n      0x01\n        /* \"#utility.yul\":9191:9196   */\n      dup2\n        /* \"#utility.yul\":9187:9200   */\n      add\n        /* \"#utility.yul\":9178:9200   */\n      swap1\n      pop\n        /* \"#utility.yul\":9154:9274   */\n      jump(tag_198)\n    tag_200:\n        /* \"#utility.yul\":9094:9280   */\n      pop\n      pop\n      jump\t// out\n        /* \"#utility.yul\":9286:9829   */\n    tag_92:\n        /* \"#utility.yul\":9387:9389   */\n      0x1f\n        /* \"#utility.yul\":9382:9385   */\n      dup3\n        /* \"#utility.yul\":9379:9390   */\n      gt\n        /* \"#utility.yul\":9376:9822   */\n      iszero\n      tag_203\n      jumpi\n        /* \"#utility.yul\":9421:9459   */\n      tag_204\n        /* \"#utility.yul\":9453:9458   */\n      dup2\n        /* \"#utility.yul\":9421:9459   */\n      tag_81\n      jump\t// in\n    tag_204:\n        /* \"#utility.yul\":9505:9534   */\n      tag_205\n        /* \"#utility.yul\":9523:9533   */\n      dup5\n        /* \"#utility.yul\":9505:9534   */\n      tag_82\n      jump\t// in\n    tag_205:\n        /* \"#utility.yul\":9495:9503   */\n      dup2\n        /* \"#utility.yul\":9491:9535   */\n      add\n        /* \"#utility.yul\":9688:9690   */\n      0x20\n        /* \"#utility.yul\":9676:9686   */\n      dup6\n        /* \"#utility.yul\":9673:9691   */\n      lt\n        /* \"#utility.yul\":9670:9719   */\n      iszero\n      tag_206\n      jumpi\n        /* \"#utility.yul\":9709:9717   */\n      dup2\n        /* \"#utility.yul\":9694:9717   */\n      swap1\n      pop\n        /* \"#utility.yul\":9670:9719   */\n    tag_206:\n        /* \"#utility.yul\":9732:9812   */\n      tag_207\n        /* \"#utility.yul\":9788:9810   */\n      tag_208\n        /* \"#utility.yul\":9806:9809   */\n      dup6\n        /* \"#utility.yul\":9788:9810   */\n      tag_82\n      jump\t// in\n    tag_208:\n        /* \"#utility.yul\":9778:9786   */\n      dup4\n        /* \"#utility.yul\":9774:9811   */\n      add\n        /* \"#utility.yul\":9761:9772   */\n      dup3\n        /* \"#utility.yul\":9732:9812   */\n      tag_91\n      jump\t// in\n    tag_207:\n        /* \"#utility.yul\":9391:9822   */\n      pop\n      pop\n        /* \"#utility.yul\":9376:9822   */\n    tag_203:\n        /* \"#utility.yul\":9286:9829   */\n      pop\n      pop\n      pop\n      jump\t// out\n        /* \"#utility.yul\":9835:9952   */\n    tag_93:\n        /* \"#utility.yul\":9889:9897   */\n      0x00\n        /* \"#utility.yul\":9939:9944   */\n      dup3\n        /* \"#utility.yul\":9933:9937   */\n      dup3\n        /* \"#utility.yul\":9929:9945   */\n      shr\n        /* \"#utility.yul\":9908:9945   */\n      swap1\n      pop\n        /* \"#utility.yul\":9835:9952   */\n      swap3\n      swap2\n      pop\n      pop\n      jump\t// out\n        /* \"#utility.yul\":9958:10127   */\n    tag_94:\n        /* \"#utility.yul\":10002:10008   */\n      0x00\n        /* \"#utility.yul\":10035:10086   */\n      tag_211\n        /* \"#utility.yul\":10083:10084   */\n      0x00\n        /* \"#utility.yul\":10079:10085   */\n      not\n        /* \"#utility.yul\":10071:10076   */\n      dup5\n        /* \"#utility.yul\":10068:10069   */\n      0x08\n        /* \"#utility.yul\":10064:10077   */\n      mul\n        /* \"#utility.yul\":10035:10086   */\n      tag_93\n      jump\t// in\n    tag_211:\n        /* \"#utility.yul\":10031:10087   */\n      not\n        /* \"#utility.yul\":10116:10120   */\n      dup1\n        /* \"#utility.yul\":10110:10114   */\n      dup4\n        /* \"#utility.yul\":10106:10121   */\n      and\n        /* \"#utility.yul\":10096:10121   */\n      swap2\n      pop\n        /* \"#utility.yul\":10009:10127   */\n      pop\n        /* \"#utility.yul\":9958:10127   */\n      swap3\n      swap2\n      pop\n      pop\n      jump\t// out\n        /* \"#utility.yul\":10132:10427   */\n    tag_95:\n        /* \"#utility.yul\":10208:10212   */\n      0x00\n        /* \"#utility.yul\":10354:10383   */\n      tag_213\n        /* \"#utility.yul\":10379:10382   */\n      dup4\n        /* \"#utility.yul\":10373:10377   */\n      dup4\n        /* \"#utility.yul\":10354:10383   */\n      tag_94\n      jump\t// in\n    tag_213:\n        /* \"#utility.yul\":10346:10383   */\n      swap2\n      pop\n        /* \"#utility.yul\":10416:10419   */\n      dup3\n        /* \"#utility.yul\":10413:10414   */\n      0x02\n        /* \"#utility.yul\":10409:10420   */\n      mul\n        /* \"#utility.yul\":10403:10407   */\n      dup3\n        /* \"#utility.yul\":10400:10421   */\n      or\n        /* \"#utility.yul\":10392:10421   */\n      swap1\n      pop\n        /* \"#utility.yul\":10132:10427   */\n      swap3\n      swap2\n      pop\n      pop\n      jump\t// out\n        /* \"#utility.yul\":10432:11827   */\n    tag_43:\n        /* \"#utility.yul\":10549:10586   */\n      tag_215\n        /* \"#utility.yul\":10582:10585   */\n      dup3\n        /* \"#utility.yul\":10549:10586   */\n      tag_61\n      jump\t// in\n    tag_215:\n        /* \"#utility.yul\":10651:10669   */\n      0xffffffffffffffff\n        /* \"#utility.yul\":10643:10649   */\n      dup2\n        /* \"#utility.yul\":10640:10670   */\n      gt\n        /* \"#utility.yul\":10637:10693   */\n      iszero\n      tag_216\n      jumpi\n        /* \"#utility.yul\":10673:10691   */\n      tag_217\n      tag_71\n      jump\t// in\n    tag_217:\n        /* \"#utility.yul\":10637:10693   */\n    tag_216:\n        /* \"#utility.yul\":10717:10755   */\n      tag_218\n        /* \"#utility.yul\":10749:10753   */\n      dup3\n        /* \"#utility.yul\":10743:10754   */\n      sload\n        /* \"#utility.yul\":10717:10755   */\n      tag_31\n      jump\t// in\n    tag_218:\n        /* \"#utility.yul\":10802:10869   */\n      tag_219\n        /* \"#utility.yul\":10862:10868   */\n      dup3\n        /* \"#utility.yul\":10854:10860   */\n      dup3\n        /* \"#utility.yul\":10848:10852   */\n      dup6\n        /* \"#utility.yul\":10802:10869   */\n      tag_92\n      jump\t// in\n    tag_219:\n        /* \"#utility.yul\":10896:10897   */\n      0x00\n        /* \"#utility.yul\":10920:10924   */\n      0x20\n        /* \"#utility.yul\":10907:10924   */\n      swap1\n      pop\n        /* \"#utility.yul\":10952:10954   */\n      0x1f\n        /* \"#utility.yul\":10944:10950   */\n      dup4\n        /* \"#utility.yul\":10941:10955   */\n      gt\n        /* \"#utility.yul\":10969:10970   */\n      0x01\n        /* \"#utility.yul\":10964:11582   */\n      dup2\n      eq\n      tag_221\n      jumpi\n        /* \"#utility.yul\":11626:11627   */\n      0x00\n        /* \"#utility.yul\":11643:11649   */\n      dup5\n        /* \"#utility.yul\":11640:11717   */\n      iszero\n      tag_222\n      jumpi\n        /* \"#utility.yul\":11692:11701   */\n      dup3\n        /* \"#utility.yul\":11687:11690   */\n      dup8\n        /* \"#utility.yul\":11683:11702   */\n      add\n        /* \"#utility.yul\":11677:11703   */\n      mload\n        /* \"#utility.yul\":11668:11703   */\n      swap1\n      pop\n        /* \"#utility.yul\":11640:11717   */\n    tag_222:\n        /* \"#utility.yul\":11743:11810   */\n      tag_223\n        /* \"#utility.yul\":11803:11809   */\n      dup6\n        /* \"#utility.yul\":11796:11801   */\n      dup3\n        /* \"#utility.yul\":11743:11810   */\n      tag_95\n      jump\t// in\n    tag_223:\n        /* \"#utility.yul\":11737:11741   */\n      dup7\n        /* \"#utility.yul\":11730:11811   */\n      sstore\n        /* \"#utility.yul\":11599:11821   */\n      pop\n        /* \"#utility.yul\":10934:11821   */\n      jump(tag_220)\n        /* \"#utility.yul\":10964:11582   */\n    tag_221:\n        /* \"#utility.yul\":11016:11020   */\n      0x1f\n        /* \"#utility.yul\":11012:11021   */\n      not\n        /* \"#utility.yul\":11004:11010   */\n      dup5\n        /* \"#utility.yul\":11000:11022   */\n      and\n        /* \"#utility.yul\":11050:11087   */\n      tag_224\n        /* \"#utility.yul\":11082:11086   */\n      dup7\n        /* \"#utility.yul\":11050:11087   */\n      tag_81\n      jump\t// in\n    tag_224:\n        /* \"#utility.yul\":11109:11110   */\n      0x00\n        /* \"#utility.yul\":11123:11331   */\n    tag_225:\n        /* \"#utility.yul\":11137:11144   */\n      dup3\n        /* \"#utility.yul\":11134:11135   */\n      dup2\n        /* \"#utility.yul\":11131:11145   */\n      lt\n        /* \"#utility.yul\":11123:11331   */\n      iszero\n      tag_227\n      jumpi\n        /* \"#utility.yul\":11216:11225   */\n      dup5\n        /* \"#utility.yul\":11211:11214   */\n      dup10\n        /* \"#utility.yul\":11207:11226   */\n      add\n        /* \"#utility.yul\":11201:11227   */\n      mload\n        /* \"#utility.yul\":11193:11199   */\n      dup3\n        /* \"#utility.yul\":11186:11228   */\n      sstore\n        /* \"#utility.yul\":11267:11268   */\n      0x01\n        /* \"#utility.yul\":11259:11265   */\n      dup3\n        /* \"#utility.yul\":11255:11269   */\n      add\n        /* \"#utility.yul\":11245:11269   */\n      swap2\n      pop\n        /* \"#utility.yul\":11314:11316   */\n      0x20\n        /* \"#utility.yul\":11303:11312   */\n      dup6\n        /* \"#utility.yul\":11299:11317   */\n      add\n        /* \"#utility.yul\":11286:11317   */\n      swap5\n      pop\n        /* \"#utility.yul\":11160:11164   */\n      0x20\n        /* \"#utility.yul\":11157:11158   */\n      dup2\n        /* \"#utility.yul\":11153:11165   */\n      add\n        /* \"#utility.yul\":11148:11165   */\n      swap1\n      pop\n        /* \"#utility.yul\":11123:11331   */\n      jump(tag_225)\n    tag_227:\n        /* \"#utility.yul\":11359:11365   */\n      dup7\n        /* \"#utility.yul\":11350:11357   */\n      dup4\n        /* \"#utility.yul\":11347:11366   */\n      lt\n        /* \"#utility.yul\":11344:11523   */\n      iszero\n      tag_228\n      jumpi\n        /* \"#utility.yul\":11417:11426   */\n      dup5\n        /* \"#utility.yul\":11412:11415   */\n      dup10\n        /* \"#utility.yul\":11408:11427   */\n      add\n        /* \"#utility.yul\":11402:11428   */\n      mload\n        /* \"#utility.yul\":11460:11508   */\n      tag_229\n        /* \"#utility.yul\":11502:11506   */\n      0x1f\n        /* \"#utility.yul\":11494:11500   */\n      dup10\n        /* \"#utility.yul\":11490:11507   */\n      and\n        /* \"#utility.yul\":11479:11488   */\n      dup3\n        /* \"#utility.yul\":11460:11508   */\n      tag_94\n      jump\t// in\n    tag_229:\n        /* \"#utility.yul\":11452:11458   */\n      dup4\n        /* \"#utility.yul\":11445:11509   */\n      sstore\n        /* \"#utility.yul\":11367:11523   */\n      pop\n        /* \"#utility.yul\":11344:11523   */\n    tag_228:\n        /* \"#utility.yul\":11569:11570   */\n      0x01\n        /* \"#utility.yul\":11565:11566   */\n      0x02\n        /* \"#utility.yul\":11557:11563   */\n      dup9\n        /* \"#utility.yul\":11553:11567   */\n      mul\n        /* \"#utility.yul\":11549:11571   */\n      add\n        /* \"#utility.yul\":11543:11547   */\n      dup9\n        /* \"#utility.yul\":11536:11572   */\n      sstore\n        /* \"#utility.yul\":10971:11582   */\n      pop\n      pop\n      pop\n        /* \"#utility.yul\":10934:11821   */\n    tag_220:\n      pop\n        /* \"#utility.yul\":10524:11827   */\n      pop\n      pop\n      pop\n        /* \"#utility.yul\":10432:11827   */\n      pop\n      pop\n      jump\t// out\n\n    auxdata: 0xa264697066735822122085ce823dd985fe164118d63ef0a6467183d357ea4808c8fd243b6421e1af2cf764736f6c63430008120033\n}\n",
				"bytecode": {
					"linkReferences": {},
					"object": "608060405234801561001057600080fd5b50610c41806100206000396000f3fe608060405234801561001057600080fd5b506004361061004c5760003560e01c806357771a23146100515780635ac3e19e1461006d5780637ec5acfb1461009d57806382ab890a146100b9575b600080fd5b61006b600480360381019061006691906105dc565b6100d5565b005b610087600480360381019061008291906105dc565b61015e565b604051610094919061070b565b60405180910390f35b6100b760048036038101906100b2919061088e565b610306565b005b6100d360048036038101906100ce91906105dc565b6103c8565b005b6000803373ffffffffffffffffffffffffffffffffffffffff1673ffffffffffffffffffffffffffffffffffffffff1681526020019081526020016000206000828152602001908152602001600020600080820160006101359190610512565b6001820160006101459190610512565b6002820160006101000a81549060ff0219169055505050565b610166610552565b6000803373ffffffffffffffffffffffffffffffffffffffff1673ffffffffffffffffffffffffffffffffffffffff16815260200190815260200160002060008381526020019081526020016000206040518060600160405290816000820180546101d09061095c565b80601f01602080910402602001604051908101604052809291908181526020018280546101fc9061095c565b80156102495780601f1061021e57610100808354040283529160200191610249565b820191906000526020600020905b81548152906001019060200180831161022c57829003601f168201915b505050505081526020016001820180546102629061095c565b80601f016020809104026020016040519081016040528092919081815260200182805461028e9061095c565b80156102db5780601f106102b0576101008083540402835291602001916102db565b820191906000526020600020905b8154815290600101906020018083116102be57829003601f168201915b505050505081526020016002820160009054906101000a900460ff1615151515815250509050919050565b6040518060600160405280848152602001838152602001600015158152506000803373ffffffffffffffffffffffffffffffffffffffff1673ffffffffffffffffffffffffffffffffffffffff168152602001908152602001600020600086815260200190815260200160002060008201518160000190816103889190610b39565b50602082015181600101908161039e9190610b39565b5060408201518160020160006101000a81548160ff02191690831515021790555090505050505050565b600115156000803373ffffffffffffffffffffffffffffffffffffffff1673ffffffffffffffffffffffffffffffffffffffff168152602001908152602001600020600083815260200190815260200160002060020160009054906101000a900460ff161515036104a35760008060003373ffffffffffffffffffffffffffffffffffffffff1673ffffffffffffffffffffffffffffffffffffffff168152602001908152602001600020600083815260200190815260200160002060020160006101000a81548160ff02191690831515021790555061050f565b60016000803373ffffffffffffffffffffffffffffffffffffffff1673ffffffffffffffffffffffffffffffffffffffff168152602001908152602001600020600083815260200190815260200160002060020160006101000a81548160ff0219169083151502179055505b50565b50805461051e9061095c565b6000825580601f10610530575061054f565b601f01602090049060005260206000209081019061054e9190610575565b5b50565b604051806060016040528060608152602001606081526020016000151581525090565b5b8082111561058e576000816000905550600101610576565b5090565b6000604051905090565b600080fd5b600080fd5b6000819050919050565b6105b9816105a6565b81146105c457600080fd5b50565b6000813590506105d6816105b0565b92915050565b6000602082840312156105f2576105f161059c565b5b6000610600848285016105c7565b91505092915050565b600081519050919050565b600082825260208201905092915050565b60005b83811015610643578082015181840152602081019050610628565b60008484015250505050565b6000601f19601f8301169050919050565b600061066b82610609565b6106758185610614565b9350610685818560208601610625565b61068e8161064f565b840191505092915050565b60008115159050919050565b6106ae81610699565b82525050565b600060608301600083015184820360008601526106d18282610660565b915050602083015184820360208601526106eb8282610660565b915050604083015161070060408601826106a5565b508091505092915050565b6000602082019050818103600083015261072581846106b4565b905092915050565b600080fd5b600080fd5b7f4e487b7100000000000000000000000000000000000000000000000000000000600052604160045260246000fd5b61076f8261064f565b810181811067ffffffffffffffff8211171561078e5761078d610737565b5b80604052505050565b60006107a1610592565b90506107ad8282610766565b919050565b600067ffffffffffffffff8211156107cd576107cc610737565b5b6107d68261064f565b9050602081019050919050565b82818337600083830152505050565b6000610805610800846107b2565b610797565b90508281526020810184848401111561082157610820610732565b5b61082c8482856107e3565b509392505050565b600082601f8301126108495761084861072d565b5b81356108598482602086016107f2565b91505092915050565b61086b81610699565b811461087657600080fd5b50565b60008135905061088881610862565b92915050565b600080600080608085870312156108a8576108a761059c565b5b60006108b6878288016105c7565b945050602085013567ffffffffffffffff8111156108d7576108d66105a1565b5b6108e387828801610834565b935050604085013567ffffffffffffffff811115610904576109036105a1565b5b61091087828801610834565b925050606061092187828801610879565b91505092959194509250565b7f4e487b7100000000000000000000000000000000000000000000000000000000600052602260045260246000fd5b6000600282049050600182168061097457607f821691505b6020821081036109875761098661092d565b5b50919050565b60008190508160005260206000209050919050565b60006020601f8301049050919050565b600082821b905092915050565b6000600883026109ef7fffffffffffffffffffffffffffffffffffffffffffffffffffffffffffffffff826109b2565b6109f986836109b2565b95508019841693508086168417925050509392505050565b6000819050919050565b6000610a36610a31610a2c846105a6565b610a11565b6105a6565b9050919050565b6000819050919050565b610a5083610a1b565b610a64610a5c82610a3d565b8484546109bf565b825550505050565b600090565b610a79610a6c565b610a84818484610a47565b505050565b5b81811015610aa857610a9d600082610a71565b600181019050610a8a565b5050565b601f821115610aed57610abe8161098d565b610ac7846109a2565b81016020851015610ad6578190505b610aea610ae2856109a2565b830182610a89565b50505b505050565b600082821c905092915050565b6000610b1060001984600802610af2565b1980831691505092915050565b6000610b298383610aff565b9150826002028217905092915050565b610b4282610609565b67ffffffffffffffff811115610b5b57610b5a610737565b5b610b65825461095c565b610b70828285610aac565b600060209050601f831160018114610ba35760008415610b91578287015190505b610b9b8582610b1d565b865550610c03565b601f198416610bb18661098d565b60005b82811015610bd957848901518255600182019150602085019450602081019050610bb4565b86831015610bf65784890151610bf2601f891682610aff565b8355505b6001600288020188555050505b50505050505056fea264697066735822122085ce823dd985fe164118d63ef0a6467183d357ea4808c8fd243b6421e1af2cf764736f6c63430008120033",
					"opcodes": "PUSH1 0x80 PUSH1 0x40 MSTORE CALLVALUE DUP1 ISZERO PUSH2 0x10 JUMPI PUSH1 0x0 DUP1 REVERT JUMPDEST POP PUSH2 0xC41 DUP1 PUSH2 0x20 PUSH1 0x0 CODECOPY PUSH1 0x0 RETURN INVALID PUSH1 0x80 PUSH1 0x40 MSTORE CALLVALUE DUP1 ISZERO PUSH2 0x10 JUMPI PUSH1 0x0 DUP1 REVERT JUMPDEST POP PUSH1 0x4 CALLDATASIZE LT PUSH2 0x4C JUMPI PUSH1 0x0 CALLDATALOAD PUSH1 0xE0 SHR DUP1 PUSH4 0x57771A23 EQ PUSH2 0x51 JUMPI DUP1 PUSH4 0x5AC3E19E EQ PUSH2 0x6D JUMPI DUP1 PUSH4 0x7EC5ACFB EQ PUSH2 0x9D JUMPI DUP1 PUSH4 0x82AB890A EQ PUSH2 0xB9 JUMPI JUMPDEST PUSH1 0x0 DUP1 REVERT JUMPDEST PUSH2 0x6B PUSH1 0x4 DUP1 CALLDATASIZE SUB DUP2 ADD SWAP1 PUSH2 0x66 SWAP2 SWAP1 PUSH2 0x5DC JUMP JUMPDEST PUSH2 0xD5 JUMP JUMPDEST STOP JUMPDEST PUSH2 0x87 PUSH1 0x4 DUP1 CALLDATASIZE SUB DUP2 ADD SWAP1 PUSH2 0x82 SWAP2 SWAP1 PUSH2 0x5DC JUMP JUMPDEST PUSH2 0x15E JUMP JUMPDEST PUSH1 0x40 MLOAD PUSH2 0x94 SWAP2 SWAP1 PUSH2 0x70B JUMP JUMPDEST PUSH1 0x40 MLOAD DUP1 SWAP2 SUB SWAP1 RETURN JUMPDEST PUSH2 0xB7 PUSH1 0x4 DUP1 CALLDATASIZE SUB DUP2 ADD SWAP1 PUSH2 0xB2 SWAP2 SWAP1 PUSH2 0x88E JUMP JUMPDEST PUSH2 0x306 JUMP JUMPDEST STOP JUMPDEST PUSH2 0xD3 PUSH1 0x4 DUP1 CALLDATASIZE SUB DUP2 ADD SWAP1 PUSH2 0xCE SWAP2 SWAP1 PUSH2 0x5DC JUMP JUMPDEST PUSH2 0x3C8 JUMP JUMPDEST STOP JUMPDEST PUSH1 0x0 DUP1 CALLER PUSH20 0xFFFFFFFFFFFFFFFFFFFFFFFFFFFFFFFFFFFFFFFF AND PUSH20 0xFFFFFFFFFFFFFFFFFFFFFFFFFFFFFFFFFFFFFFFF AND DUP2 MSTORE PUSH1 0x20 ADD SWAP1 DUP2 MSTORE PUSH1 0x20 ADD PUSH1 0x0 KECCAK256 PUSH1 0x0 DUP3 DUP2 MSTORE PUSH1 0x20 ADD SWAP1 DUP2 MSTORE PUSH1 0x20 ADD PUSH1 0x0 KECCAK256 PUSH1 0x0 DUP1 DUP3 ADD PUSH1 0x0 PUSH2 0x135 SWAP2 SWAP1 PUSH2 0x512 JUMP JUMPDEST PUSH1 0x1 DUP3 ADD PUSH1 0x0 PUSH2 0x145 SWAP2 SWAP1 PUSH2 0x512 JUMP JUMPDEST PUSH1 0x2 DUP3 ADD PUSH1 0x0 PUSH2 0x100 EXP DUP2 SLOAD SWAP1 PUSH1 0xFF MUL NOT AND SWAP1 SSTORE POP POP POP JUMP JUMPDEST PUSH2 0x166 PUSH2 0x552 JUMP JUMPDEST PUSH1 0x0 DUP1 CALLER PUSH20 0xFFFFFFFFFFFFFFFFFFFFFFFFFFFFFFFFFFFFFFFF AND PUSH20 0xFFFFFFFFFFFFFFFFFFFFFFFFFFFFFFFFFFFFFFFF AND DUP2 MSTORE PUSH1 0x20 ADD SWAP1 DUP2 MSTORE PUSH1 0x20 ADD PUSH1 0x0 KECCAK256 PUSH1 0x0 DUP4 DUP2 MSTORE PUSH1 0x20 ADD SWAP1 DUP2 MSTORE PUSH1 0x20 ADD PUSH1 0x0 KECCAK256 PUSH1 0x40 MLOAD DUP1 PUSH1 0x60 ADD PUSH1 0x40 MSTORE SWAP1 DUP2 PUSH1 0x0 DUP3 ADD DUP1 SLOAD PUSH2 0x1D0 SWAP1 PUSH2 0x95C JUMP JUMPDEST DUP1 PUSH1 0x1F ADD PUSH1 0x20 DUP1 SWAP2 DIV MUL PUSH1 0x20 ADD PUSH1 0x40 MLOAD SWAP1 DUP2 ADD PUSH1 0x40 MSTORE DUP1 SWAP3 SWAP2 SWAP1 DUP2 DUP2 MSTORE PUSH1 0x20 ADD DUP3 DUP1 SLOAD PUSH2 0x1FC SWAP1 PUSH2 0x95C JUMP JUMPDEST DUP1 ISZERO PUSH2 0x249 JUMPI DUP1 PUSH1 0x1F LT PUSH2 0x21E JUMPI PUSH2 0x100 DUP1 DUP4 SLOAD DIV MUL DUP4 MSTORE SWAP2 PUSH1 0x20 ADD SWAP2 PUSH2 0x249 JUMP JUMPDEST DUP3 ADD SWAP2 SWAP1 PUSH1 0x0 MSTORE PUSH1 0x20 PUSH1 0x0 KECCAK256 SWAP1 JUMPDEST DUP2 SLOAD DUP2 MSTORE SWAP1 PUSH1 0x1 ADD SWAP1 PUSH1 0x20 ADD DUP1 DUP4 GT PUSH2 0x22C JUMPI DUP3 SWAP1 SUB PUSH1 0x1F AND DUP3 ADD SWAP2 JUMPDEST POP POP POP POP POP DUP2 MSTORE PUSH1 0x20 ADD PUSH1 0x1 DUP3 ADD DUP1 SLOAD PUSH2 0x262 SWAP1 PUSH2 0x95C JUMP JUMPDEST DUP1 PUSH1 0x1F ADD PUSH1 0x20 DUP1 SWAP2 DIV MUL PUSH1 0x20 ADD PUSH1 0x40 MLOAD SWAP1 DUP2 ADD PUSH1 0x40 MSTORE DUP1 SWAP3 SWAP2 SWAP1 DUP2 DUP2 MSTORE PUSH1 0x20 ADD DUP3 DUP1 SLOAD PUSH2 0x28E SWAP1 PUSH2 0x95C JUMP JUMPDEST DUP1 ISZERO PUSH2 0x2DB JUMPI DUP1 PUSH1 0x1F LT PUSH2 0x2B0 JUMPI PUSH2 0x100 DUP1 DUP4 SLOAD DIV MUL DUP4 MSTORE SWAP2 PUSH1 0x20 ADD SWAP2 PUSH2 0x2DB JUMP JUMPDEST DUP3 ADD SWAP2 SWAP1 PUSH1 0x0 MSTORE PUSH1 0x20 PUSH1 0x0 KECCAK256 SWAP1 JUMPDEST DUP2 SLOAD DUP2 MSTORE SWAP1 PUSH1 0x1 ADD SWAP1 PUSH1 0x20 ADD DUP1 DUP4 GT PUSH2 0x2BE JUMPI DUP3 SWAP1 SUB PUSH1 0x1F AND DUP3 ADD SWAP2 JUMPDEST POP POP POP POP POP DUP2 MSTORE PUSH1 0x20 ADD PUSH1 0x2 DUP3 ADD PUSH1 0x0 SWAP1 SLOAD SWAP1 PUSH2 0x100 EXP SWAP1 DIV PUSH1 0xFF AND ISZERO ISZERO ISZERO ISZERO DUP2 MSTORE POP POP SWAP1 POP SWAP2 SWAP1 POP JUMP JUMPDEST PUSH1 0x40 MLOAD DUP1 PUSH1 0x60 ADD PUSH1 0x40 MSTORE DUP1 DUP5 DUP2 MSTORE PUSH1 0x20 ADD DUP4 DUP2 MSTORE PUSH1 0x20 ADD PUSH1 0x0 ISZERO ISZERO DUP2 MSTORE POP PUSH1 0x0 DUP1 CALLER PUSH20 0xFFFFFFFFFFFFFFFFFFFFFFFFFFFFFFFFFFFFFFFF AND PUSH20 0xFFFFFFFFFFFFFFFFFFFFFFFFFFFFFFFFFFFFFFFF AND DUP2 MSTORE PUSH1 0x20 ADD SWAP1 DUP2 MSTORE PUSH1 0x20 ADD PUSH1 0x0 KECCAK256 PUSH1 0x0 DUP7 DUP2 MSTORE PUSH1 0x20 ADD SWAP1 DUP2 MSTORE PUSH1 0x20 ADD PUSH1 0x0 KECCAK256 PUSH1 0x0 DUP3 ADD MLOAD DUP2 PUSH1 0x0 ADD SWAP1 DUP2 PUSH2 0x388 SWAP2 SWAP1 PUSH2 0xB39 JUMP JUMPDEST POP PUSH1 0x20 DUP3 ADD MLOAD DUP2 PUSH1 0x1 ADD SWAP1 DUP2 PUSH2 0x39E SWAP2 SWAP1 PUSH2 0xB39 JUMP JUMPDEST POP PUSH1 0x40 DUP3 ADD MLOAD DUP2 PUSH1 0x2 ADD PUSH1 0x0 PUSH2 0x100 EXP DUP2 SLOAD DUP2 PUSH1 0xFF MUL NOT AND SWAP1 DUP4 ISZERO ISZERO MUL OR SWAP1 SSTORE POP SWAP1 POP POP POP POP POP POP JUMP JUMPDEST PUSH1 0x1 ISZERO ISZERO PUSH1 0x0 DUP1 CALLER PUSH20 0xFFFFFFFFFFFFFFFFFFFFFFFFFFFFFFFFFFFFFFFF AND PUSH20 0xFFFFFFFFFFFFFFFFFFFFFFFFFFFFFFFFFFFFFFFF AND DUP2 MSTORE PUSH1 0x20 ADD SWAP1 DUP2 MSTORE PUSH1 0x20 ADD PUSH1 0x0 KECCAK256 PUSH1 0x0 DUP4 DUP2 MSTORE PUSH1 0x20 ADD SWAP1 DUP2 MSTORE PUSH1 0x20 ADD PUSH1 0x0 KECCAK256 PUSH1 0x2 ADD PUSH1 0x0 SWAP1 SLOAD SWAP1 PUSH2 0x100 EXP SWAP1 DIV PUSH1 0xFF AND ISZERO ISZERO SUB PUSH2 0x4A3 JUMPI PUSH1 0x0 DUP1 PUSH1 0x0 CALLER PUSH20 0xFFFFFFFFFFFFFFFFFFFFFFFFFFFFFFFFFFFFFFFF AND PUSH20 0xFFFFFFFFFFFFFFFFFFFFFFFFFFFFFFFFFFFFFFFF AND DUP2 MSTORE PUSH1 0x20 ADD SWAP1 DUP2 MSTORE PUSH1 0x20 ADD PUSH1 0x0 KECCAK256 PUSH1 0x0 DUP4 DUP2 MSTORE PUSH1 0x20 ADD SWAP1 DUP2 MSTORE PUSH1 0x20 ADD PUSH1 0x0 KECCAK256 PUSH1 0x2 ADD PUSH1 0x0 PUSH2 0x100 EXP DUP2 SLOAD DUP2 PUSH1 0xFF MUL NOT AND SWAP1 DUP4 ISZERO ISZERO MUL OR SWAP1 SSTORE POP PUSH2 0x50F JUMP JUMPDEST PUSH1 0x1 PUSH1 0x0 DUP1 CALLER PUSH20 0xFFFFFFFFFFFFFFFFFFFFFFFFFFFFFFFFFFFFFFFF AND PUSH20 0xFFFFFFFFFFFFFFFFFFFFFFFFFFFFFFFFFFFFFFFF AND DUP2 MSTORE PUSH1 0x20 ADD SWAP1 DUP2 MSTORE PUSH1 0x20 ADD PUSH1 0x0 KECCAK256 PUSH1 0x0 DUP4 DUP2 MSTORE PUSH1 0x20 ADD SWAP1 DUP2 MSTORE PUSH1 0x20 ADD PUSH1 0x0 KECCAK256 PUSH1 0x2 ADD PUSH1 0x0 PUSH2 0x100 EXP DUP2 SLOAD DUP2 PUSH1 0xFF MUL NOT AND SWAP1 DUP4 ISZERO ISZERO MUL OR SWAP1 SSTORE POP JUMPDEST POP JUMP JUMPDEST POP DUP1 SLOAD PUSH2 0x51E SWAP1 PUSH2 0x95C JUMP JUMPDEST PUSH1 0x0 DUP3 SSTORE DUP1 PUSH1 0x1F LT PUSH2 0x530 JUMPI POP PUSH2 0x54F JUMP JUMPDEST PUSH1 0x1F ADD PUSH1 0x20 SWAP1 DIV SWAP1 PUSH1 0x0 MSTORE PUSH1 0x20 PUSH1 0x0 KECCAK256 SWAP1 DUP2 ADD SWAP1 PUSH2 0x54E SWAP2 SWAP1 PUSH2 0x575 JUMP JUMPDEST JUMPDEST POP JUMP JUMPDEST PUSH1 0x40 MLOAD DUP1 PUSH1 0x60 ADD PUSH1 0x40 MSTORE DUP1 PUSH1 0x60 DUP2 MSTORE PUSH1 0x20 ADD PUSH1 0x60 DUP2 MSTORE PUSH1 0x20 ADD PUSH1 0x0 ISZERO ISZERO DUP2 MSTORE POP SWAP1 JUMP JUMPDEST JUMPDEST DUP1 DUP3 GT ISZERO PUSH2 0x58E JUMPI PUSH1 0x0 DUP2 PUSH1 0x0 SWAP1 SSTORE POP PUSH1 0x1 ADD PUSH2 0x576 JUMP JUMPDEST POP SWAP1 JUMP JUMPDEST PUSH1 0x0 PUSH1 0x40 MLOAD SWAP1 POP SWAP1 JUMP JUMPDEST PUSH1 0x0 DUP1 REVERT JUMPDEST PUSH1 0x0 DUP1 REVERT JUMPDEST PUSH1 0x0 DUP2 SWAP1 POP SWAP2 SWAP1 POP JUMP JUMPDEST PUSH2 0x5B9 DUP2 PUSH2 0x5A6 JUMP JUMPDEST DUP2 EQ PUSH2 0x5C4 JUMPI PUSH1 0x0 DUP1 REVERT JUMPDEST POP JUMP JUMPDEST PUSH1 0x0 DUP2 CALLDATALOAD SWAP1 POP PUSH2 0x5D6 DUP2 PUSH2 0x5B0 JUMP JUMPDEST SWAP3 SWAP2 POP POP JUMP JUMPDEST PUSH1 0x0 PUSH1 0x20 DUP3 DUP5 SUB SLT ISZERO PUSH2 0x5F2 JUMPI PUSH2 0x5F1 PUSH2 0x59C JUMP JUMPDEST JUMPDEST PUSH1 0x0 PUSH2 0x600 DUP5 DUP3 DUP6 ADD PUSH2 0x5C7 JUMP JUMPDEST SWAP2 POP POP SWAP3 SWAP2 POP POP JUMP JUMPDEST PUSH1 0x0 DUP2 MLOAD SWAP1 POP SWAP2 SWAP1 POP JUMP JUMPDEST PUSH1 0x0 DUP3 DUP3 MSTORE PUSH1 0x20 DUP3 ADD SWAP1 POP SWAP3 SWAP2 POP POP JUMP JUMPDEST PUSH1 0x0 JUMPDEST DUP4 DUP2 LT ISZERO PUSH2 0x643 JUMPI DUP1 DUP3 ADD MLOAD DUP2 DUP5 ADD MSTORE PUSH1 0x20 DUP2 ADD SWAP1 POP PUSH2 0x628 JUMP JUMPDEST PUSH1 0x0 DUP5 DUP5 ADD MSTORE POP POP POP POP JUMP JUMPDEST PUSH1 0x0 PUSH1 0x1F NOT PUSH1 0x1F DUP4 ADD AND SWAP1 POP SWAP2 SWAP1 POP JUMP JUMPDEST PUSH1 0x0 PUSH2 0x66B DUP3 PUSH2 0x609 JUMP JUMPDEST PUSH2 0x675 DUP2 DUP6 PUSH2 0x614 JUMP JUMPDEST SWAP4 POP PUSH2 0x685 DUP2 DUP6 PUSH1 0x20 DUP7 ADD PUSH2 0x625 JUMP JUMPDEST PUSH2 0x68E DUP2 PUSH2 0x64F JUMP JUMPDEST DUP5 ADD SWAP2 POP POP SWAP3 SWAP2 POP POP JUMP JUMPDEST PUSH1 0x0 DUP2 ISZERO ISZERO SWAP1 POP SWAP2 SWAP1 POP JUMP JUMPDEST PUSH2 0x6AE DUP2 PUSH2 0x699 JUMP JUMPDEST DUP3 MSTORE POP POP JUMP JUMPDEST PUSH1 0x0 PUSH1 0x60 DUP4 ADD PUSH1 0x0 DUP4 ADD MLOAD DUP5 DUP3 SUB PUSH1 0x0 DUP7 ADD MSTORE PUSH2 0x6D1 DUP3 DUP3 PUSH2 0x660 JUMP JUMPDEST SWAP2 POP POP PUSH1 0x20 DUP4 ADD MLOAD DUP5 DUP3 SUB PUSH1 0x20 DUP7 ADD MSTORE PUSH2 0x6EB DUP3 DUP3 PUSH2 0x660 JUMP JUMPDEST SWAP2 POP POP PUSH1 0x40 DUP4 ADD MLOAD PUSH2 0x700 PUSH1 0x40 DUP7 ADD DUP3 PUSH2 0x6A5 JUMP JUMPDEST POP DUP1 SWAP2 POP POP SWAP3 SWAP2 POP POP JUMP JUMPDEST PUSH1 0x0 PUSH1 0x20 DUP3 ADD SWAP1 POP DUP2 DUP2 SUB PUSH1 0x0 DUP4 ADD MSTORE PUSH2 0x725 DUP2 DUP5 PUSH2 0x6B4 JUMP JUMPDEST SWAP1 POP SWAP3 SWAP2 POP POP JUMP JUMPDEST PUSH1 0x0 DUP1 REVERT JUMPDEST PUSH1 0x0 DUP1 REVERT JUMPDEST PUSH32 0x4E487B7100000000000000000000000000000000000000000000000000000000 PUSH1 0x0 MSTORE PUSH1 0x41 PUSH1 0x4 MSTORE PUSH1 0x24 PUSH1 0x0 REVERT JUMPDEST PUSH2 0x76F DUP3 PUSH2 0x64F JUMP JUMPDEST DUP2 ADD DUP2 DUP2 LT PUSH8 0xFFFFFFFFFFFFFFFF DUP3 GT OR ISZERO PUSH2 0x78E JUMPI PUSH2 0x78D PUSH2 0x737 JUMP JUMPDEST JUMPDEST DUP1 PUSH1 0x40 MSTORE POP POP POP JUMP JUMPDEST PUSH1 0x0 PUSH2 0x7A1 PUSH2 0x592 JUMP JUMPDEST SWAP1 POP PUSH2 0x7AD DUP3 DUP3 PUSH2 0x766 JUMP JUMPDEST SWAP2 SWAP1 POP JUMP JUMPDEST PUSH1 0x0 PUSH8 0xFFFFFFFFFFFFFFFF DUP3 GT ISZERO PUSH2 0x7CD JUMPI PUSH2 0x7CC PUSH2 0x737 JUMP JUMPDEST JUMPDEST PUSH2 0x7D6 DUP3 PUSH2 0x64F JUMP JUMPDEST SWAP1 POP PUSH1 0x20 DUP2 ADD SWAP1 POP SWAP2 SWAP1 POP JUMP JUMPDEST DUP3 DUP2 DUP4 CALLDATACOPY PUSH1 0x0 DUP4 DUP4 ADD MSTORE POP POP POP JUMP JUMPDEST PUSH1 0x0 PUSH2 0x805 PUSH2 0x800 DUP5 PUSH2 0x7B2 JUMP JUMPDEST PUSH2 0x797 JUMP JUMPDEST SWAP1 POP DUP3 DUP2 MSTORE PUSH1 0x20 DUP2 ADD DUP5 DUP5 DUP5 ADD GT ISZERO PUSH2 0x821 JUMPI PUSH2 0x820 PUSH2 0x732 JUMP JUMPDEST JUMPDEST PUSH2 0x82C DUP5 DUP3 DUP6 PUSH2 0x7E3 JUMP JUMPDEST POP SWAP4 SWAP3 POP POP POP JUMP JUMPDEST PUSH1 0x0 DUP3 PUSH1 0x1F DUP4 ADD SLT PUSH2 0x849 JUMPI PUSH2 0x848 PUSH2 0x72D JUMP JUMPDEST JUMPDEST DUP2 CALLDATALOAD PUSH2 0x859 DUP5 DUP3 PUSH1 0x20 DUP7 ADD PUSH2 0x7F2 JUMP JUMPDEST SWAP2 POP POP SWAP3 SWAP2 POP POP JUMP JUMPDEST PUSH2 0x86B DUP2 PUSH2 0x699 JUMP JUMPDEST DUP2 EQ PUSH2 0x876 JUMPI PUSH1 0x0 DUP1 REVERT JUMPDEST POP JUMP JUMPDEST PUSH1 0x0 DUP2 CALLDATALOAD SWAP1 POP PUSH2 0x888 DUP2 PUSH2 0x862 JUMP JUMPDEST SWAP3 SWAP2 POP POP JUMP JUMPDEST PUSH1 0x0 DUP1 PUSH1 0x0 DUP1 PUSH1 0x80 DUP6 DUP8 SUB SLT ISZERO PUSH2 0x8A8 JUMPI PUSH2 0x8A7 PUSH2 0x59C JUMP JUMPDEST JUMPDEST PUSH1 0x0 PUSH2 0x8B6 DUP8 DUP3 DUP9 ADD PUSH2 0x5C7 JUMP JUMPDEST SWAP5 POP POP PUSH1 0x20 DUP6 ADD CALLDATALOAD PUSH8 0xFFFFFFFFFFFFFFFF DUP2 GT ISZERO PUSH2 0x8D7 JUMPI PUSH2 0x8D6 PUSH2 0x5A1 JUMP JUMPDEST JUMPDEST PUSH2 0x8E3 DUP8 DUP3 DUP9 ADD PUSH2 0x834 JUMP JUMPDEST SWAP4 POP POP PUSH1 0x40 DUP6 ADD CALLDATALOAD PUSH8 0xFFFFFFFFFFFFFFFF DUP2 GT ISZERO PUSH2 0x904 JUMPI PUSH2 0x903 PUSH2 0x5A1 JUMP JUMPDEST JUMPDEST PUSH2 0x910 DUP8 DUP3 DUP9 ADD PUSH2 0x834 JUMP JUMPDEST SWAP3 POP POP PUSH1 0x60 PUSH2 0x921 DUP8 DUP3 DUP9 ADD PUSH2 0x879 JUMP JUMPDEST SWAP2 POP POP SWAP3 SWAP6 SWAP2 SWAP5 POP SWAP3 POP JUMP JUMPDEST PUSH32 0x4E487B7100000000000000000000000000000000000000000000000000000000 PUSH1 0x0 MSTORE PUSH1 0x22 PUSH1 0x4 MSTORE PUSH1 0x24 PUSH1 0x0 REVERT JUMPDEST PUSH1 0x0 PUSH1 0x2 DUP3 DIV SWAP1 POP PUSH1 0x1 DUP3 AND DUP1 PUSH2 0x974 JUMPI PUSH1 0x7F DUP3 AND SWAP2 POP JUMPDEST PUSH1 0x20 DUP3 LT DUP2 SUB PUSH2 0x987 JUMPI PUSH2 0x986 PUSH2 0x92D JUMP JUMPDEST JUMPDEST POP SWAP2 SWAP1 POP JUMP JUMPDEST PUSH1 0x0 DUP2 SWAP1 POP DUP2 PUSH1 0x0 MSTORE PUSH1 0x20 PUSH1 0x0 KECCAK256 SWAP1 POP SWAP2 SWAP1 POP JUMP JUMPDEST PUSH1 0x0 PUSH1 0x20 PUSH1 0x1F DUP4 ADD DIV SWAP1 POP SWAP2 SWAP1 POP JUMP JUMPDEST PUSH1 0x0 DUP3 DUP3 SHL SWAP1 POP SWAP3 SWAP2 POP POP JUMP JUMPDEST PUSH1 0x0 PUSH1 0x8 DUP4 MUL PUSH2 0x9EF PUSH32 0xFFFFFFFFFFFFFFFFFFFFFFFFFFFFFFFFFFFFFFFFFFFFFFFFFFFFFFFFFFFFFFFF DUP3 PUSH2 0x9B2 JUMP JUMPDEST PUSH2 0x9F9 DUP7 DUP4 PUSH2 0x9B2 JUMP JUMPDEST SWAP6 POP DUP1 NOT DUP5 AND SWAP4 POP DUP1 DUP7 AND DUP5 OR SWAP3 POP POP POP SWAP4 SWAP3 POP POP POP JUMP JUMPDEST PUSH1 0x0 DUP2 SWAP1 POP SWAP2 SWAP1 POP JUMP JUMPDEST PUSH1 0x0 PUSH2 0xA36 PUSH2 0xA31 PUSH2 0xA2C DUP5 PUSH2 0x5A6 JUMP JUMPDEST PUSH2 0xA11 JUMP JUMPDEST PUSH2 0x5A6 JUMP JUMPDEST SWAP1 POP SWAP2 SWAP1 POP JUMP JUMPDEST PUSH1 0x0 DUP2 SWAP1 POP SWAP2 SWAP1 POP JUMP JUMPDEST PUSH2 0xA50 DUP4 PUSH2 0xA1B JUMP JUMPDEST PUSH2 0xA64 PUSH2 0xA5C DUP3 PUSH2 0xA3D JUMP JUMPDEST DUP5 DUP5 SLOAD PUSH2 0x9BF JUMP JUMPDEST DUP3 SSTORE POP POP POP POP JUMP JUMPDEST PUSH1 0x0 SWAP1 JUMP JUMPDEST PUSH2 0xA79 PUSH2 0xA6C JUMP JUMPDEST PUSH2 0xA84 DUP2 DUP5 DUP5 PUSH2 0xA47 JUMP JUMPDEST POP POP POP JUMP JUMPDEST JUMPDEST DUP2 DUP2 LT ISZERO PUSH2 0xAA8 JUMPI PUSH2 0xA9D PUSH1 0x0 DUP3 PUSH2 0xA71 JUMP JUMPDEST PUSH1 0x1 DUP2 ADD SWAP1 POP PUSH2 0xA8A JUMP JUMPDEST POP POP JUMP JUMPDEST PUSH1 0x1F DUP3 GT ISZERO PUSH2 0xAED JUMPI PUSH2 0xABE DUP2 PUSH2 0x98D JUMP JUMPDEST PUSH2 0xAC7 DUP5 PUSH2 0x9A2 JUMP JUMPDEST DUP2 ADD PUSH1 0x20 DUP6 LT ISZERO PUSH2 0xAD6 JUMPI DUP2 SWAP1 POP JUMPDEST PUSH2 0xAEA PUSH2 0xAE2 DUP6 PUSH2 0x9A2 JUMP JUMPDEST DUP4 ADD DUP3 PUSH2 0xA89 JUMP JUMPDEST POP POP JUMPDEST POP POP POP JUMP JUMPDEST PUSH1 0x0 DUP3 DUP3 SHR SWAP1 POP SWAP3 SWAP2 POP POP JUMP JUMPDEST PUSH1 0x0 PUSH2 0xB10 PUSH1 0x0 NOT DUP5 PUSH1 0x8 MUL PUSH2 0xAF2 JUMP JUMPDEST NOT DUP1 DUP4 AND SWAP2 POP POP SWAP3 SWAP2 POP POP JUMP JUMPDEST PUSH1 0x0 PUSH2 0xB29 DUP4 DUP4 PUSH2 0xAFF JUMP JUMPDEST SWAP2 POP DUP3 PUSH1 0x2 MUL DUP3 OR SWAP1 POP SWAP3 SWAP2 POP POP JUMP JUMPDEST PUSH2 0xB42 DUP3 PUSH2 0x609 JUMP JUMPDEST PUSH8 0xFFFFFFFFFFFFFFFF DUP2 GT ISZERO PUSH2 0xB5B JUMPI PUSH2 0xB5A PUSH2 0x737 JUMP JUMPDEST JUMPDEST PUSH2 0xB65 DUP3 SLOAD PUSH2 0x95C JUMP JUMPDEST PUSH2 0xB70 DUP3 DUP3 DUP6 PUSH2 0xAAC JUMP JUMPDEST PUSH1 0x0 PUSH1 0x20 SWAP1 POP PUSH1 0x1F DUP4 GT PUSH1 0x1 DUP2 EQ PUSH2 0xBA3 JUMPI PUSH1 0x0 DUP5 ISZERO PUSH2 0xB91 JUMPI DUP3 DUP8 ADD MLOAD SWAP1 POP JUMPDEST PUSH2 0xB9B DUP6 DUP3 PUSH2 0xB1D JUMP JUMPDEST DUP7 SSTORE POP PUSH2 0xC03 JUMP JUMPDEST PUSH1 0x1F NOT DUP5 AND PUSH2 0xBB1 DUP7 PUSH2 0x98D JUMP JUMPDEST PUSH1 0x0 JUMPDEST DUP3 DUP2 LT ISZERO PUSH2 0xBD9 JUMPI DUP5 DUP10 ADD MLOAD DUP3 SSTORE PUSH1 0x1 DUP3 ADD SWAP2 POP PUSH1 0x20 DUP6 ADD SWAP5 POP PUSH1 0x20 DUP2 ADD SWAP1 POP PUSH2 0xBB4 JUMP JUMPDEST DUP7 DUP4 LT ISZERO PUSH2 0xBF6 JUMPI DUP5 DUP10 ADD MLOAD PUSH2 0xBF2 PUSH1 0x1F DUP10 AND DUP3 PUSH2 0xAFF JUMP JUMPDEST DUP4 SSTORE POP JUMPDEST PUSH1 0x1 PUSH1 0x2 DUP9 MUL ADD DUP9 SSTORE POP POP POP JUMPDEST POP POP POP POP POP POP JUMP INVALID LOG2 PUSH5 0x6970667358 0x22 SLT KECCAK256 DUP6 0xCE DUP3 RETURNDATASIZE 0xD9 DUP6 INVALID AND COINBASE XOR 0xD6 RETURNDATACOPY CREATE 0xA6 CHAINID PUSH18 0x83D357EA4808C8FD243B6421E1AF2CF76473 PUSH16 0x6C634300081200330000000000000000 "
				},
				"gasEstimates": {
					"creation": {
						"codeDepositCost": "627400",
						"executionCost": "664",
						"totalCost": "628064"
					},
					"external": {
						"addBook(uint256,string,string,bool)": "infinite",
						"del(uint256)": "infinite",
						"getBooks(uint256)": "infinite",
						"update(uint256)": "27245"
					}
				},
				"methodIdentifiers": {
					"addBook(uint256,string,string,bool)": "7ec5acfb",
					"del(uint256)": "57771a23",
					"getBooks(uint256)": "5ac3e19e",
					"update(uint256)": "82ab890a"
				}
			},
			"storageLayout": {
				"storage": [
					{
						"astId": 15,
						"contract": "contracts/bookManagment.sol:BookManagment",
						"label": "books",
						"offset": 0,
						"slot": "0",
						"type": "t_mapping(t_address,t_mapping(t_uint256,t_struct(book)8_storage))"
					}
				],
				"types": {
					"t_address": {
						"encoding": "inplace",
						"label": "address",
						"numberOfBytes": "20"
					},
					"t_bool": {
						"encoding": "inplace",
						"label": "bool",
						"numberOfBytes": "1"
					},
					"t_mapping(t_address,t_mapping(t_uint256,t_struct(book)8_storage))": {
						"encoding": "mapping",
						"key": "t_address",
						"label": "mapping(address => mapping(uint256 => struct BookManagment.book))",
						"numberOfBytes": "32",
						"value": "t_mapping(t_uint256,t_struct(book)8_storage)"
					},
					"t_mapping(t_uint256,t_struct(book)8_storage)": {
						"encoding": "mapping",
						"key": "t_uint256",
						"label": "mapping(uint256 => struct BookManagment.book)",
						"numberOfBytes": "32",
						"value": "t_struct(book)8_storage"
					},
					"t_string_storage": {
						"encoding": "bytes",
						"label": "string",
						"numberOfBytes": "32"
					},
					"t_struct(book)8_storage": {
						"encoding": "inplace",
						"label": "struct BookManagment.book",
						"members": [
							{
								"astId": 3,
								"contract": "contracts/bookManagment.sol:BookManagment",
								"label": "title",
								"offset": 0,
								"slot": "0",
								"type": "t_string_storage"
							},
							{
								"astId": 5,
								"contract": "contracts/bookManagment.sol:BookManagment",
								"label": "author",
								"offset": 0,
								"slot": "1",
								"type": "t_string_storage"
							},
							{
								"astId": 7,
								"contract": "contracts/bookManagment.sol:BookManagment",
								"label": "completed",
								"offset": 0,
								"slot": "2",
								"type": "t_bool"
							}
						],
						"numberOfBytes": "96"
					},
					"t_uint256": {
						"encoding": "inplace",
						"label": "uint256",
						"numberOfBytes": "32"
					}
				}
			},
			"userdoc": {
				"kind": "user",
				"methods": {},
				"version": 1
			}
		}
	}
}