{
	"contracts/automotive.sol": {
		"automotive": {
			"abi": [
				{
					"inputs": [],
					"stateMutability": "nonpayable",
					"type": "constructor"
				},
				{
					"inputs": [
						{
							"internalType": "string",
							"name": "_model",
							"type": "string"
						},
						{
							"internalType": "string",
							"name": "_make",
							"type": "string"
						},
						{
							"internalType": "uint256",
							"name": "_price",
							"type": "uint256"
						}
					],
					"name": "addCar",
					"outputs": [],
					"stateMutability": "nonpayable",
					"type": "function"
				},
				{
					"inputs": [
						{
							"internalType": "uint256",
							"name": "_carID",
							"type": "uint256"
						}
					],
					"name": "buyCar",
					"outputs": [],
					"stateMutability": "payable",
					"type": "function"
				},
				{
					"inputs": [
						{
							"internalType": "address",
							"name": "_buyerAddress",
							"type": "address"
						},
						{
							"internalType": "uint256",
							"name": "_ID",
							"type": "uint256"
						}
					],
					"name": "buyersInfo",
					"outputs": [
						{
							"components": [
								{
									"internalType": "string",
									"name": "model",
									"type": "string"
								},
								{
									"internalType": "string",
									"name": "make",
									"type": "string"
								},
								{
									"internalType": "uint256",
									"name": "price",
									"type": "uint256"
								},
								{
									"internalType": "bool",
									"name": "forSale",
									"type": "bool"
								}
							],
							"internalType": "struct automotive.car",
							"name": "",
							"type": "tuple"
						}
					],
					"stateMutability": "view",
					"type": "function"
				},
				{
					"inputs": [
						{
							"internalType": "uint256",
							"name": "",
							"type": "uint256"
						}
					],
					"name": "cars",
					"outputs": [
						{
							"internalType": "string",
							"name": "model",
							"type": "string"
						},
						{
							"internalType": "string",
							"name": "make",
							"type": "string"
						},
						{
							"internalType": "uint256",
							"name": "price",
							"type": "uint256"
						},
						{
							"internalType": "bool",
							"name": "forSale",
							"type": "bool"
						}
					],
					"stateMutability": "view",
					"type": "function"
				},
				{
					"inputs": [
						{
							"internalType": "uint256",
							"name": "_carID",
							"type": "uint256"
						}
					],
					"name": "getCarPrice",
					"outputs": [
						{
							"internalType": "uint256",
							"name": "",
							"type": "uint256"
						}
					],
					"stateMutability": "view",
					"type": "function"
				},
				{
					"inputs": [],
					"name": "getCars",
					"outputs": [
						{
							"components": [
								{
									"internalType": "string",
									"name": "model",
									"type": "string"
								},
								{
									"internalType": "string",
									"name": "make",
									"type": "string"
								},
								{
									"internalType": "uint256",
									"name": "price",
									"type": "uint256"
								},
								{
									"internalType": "bool",
									"name": "forSale",
									"type": "bool"
								}
							],
							"internalType": "struct automotive.car[]",
							"name": "",
							"type": "tuple[]"
						}
					],
					"stateMutability": "view",
					"type": "function"
				},
				{
					"inputs": [
						{
							"internalType": "uint256",
							"name": "_carID",
							"type": "uint256"
						},
						{
							"internalType": "uint256",
							"name": "_price",
							"type": "uint256"
						}
					],
					"name": "updatePrice",
					"outputs": [],
					"stateMutability": "nonpayable",
					"type": "function"
				}
			],
			"devdoc": {
				"kind": "dev",
				"methods": {},
				"version": 1
			},
			"evm": {
				"assembly": "    /* \"contracts/automotive.sol\":56:1678  contract automotive{... */\n  mstore(0x40, 0x80)\n    /* \"contracts/automotive.sol\":347:348  1 */\n  0x01\n    /* \"contracts/automotive.sol\":328:348  uint private carID=1 */\n  0x03\n  sstore\n    /* \"contracts/automotive.sol\":376:377  1 */\n  0x01\n    /* \"contracts/automotive.sol\":354:377  uint private buyersID=1 */\n  0x04\n  sstore\n    /* \"contracts/automotive.sol\":384:440  constructor(){... */\n  callvalue\n  dup1\n  iszero\n  tag_1\n  jumpi\n  0x00\n  dup1\n  revert\ntag_1:\n  pop\n    /* \"contracts/automotive.sol\":422:432  msg.sender */\n  caller\n    /* \"contracts/automotive.sol\":407:412  owner */\n  0x00\n  dup1\n    /* \"contracts/automotive.sol\":407:433  owner= payable(msg.sender) */\n  0x0100\n  exp\n  dup2\n  sload\n  dup2\n  0xffffffffffffffffffffffffffffffffffffffff\n  mul\n  not\n  and\n  swap1\n  dup4\n  0xffffffffffffffffffffffffffffffffffffffff\n  and\n  mul\n  or\n  swap1\n  sstore\n  pop\n    /* \"contracts/automotive.sol\":56:1678  contract automotive{... */\n  dataSize(sub_0)\n  dup1\n  dataOffset(sub_0)\n  0x00\n  codecopy\n  0x00\n  return\nstop\n\nsub_0: assembly {\n        /* \"contracts/automotive.sol\":56:1678  contract automotive{... */\n      mstore(0x40, 0x80)\n      jumpi(tag_1, lt(calldatasize, 0x04))\n      shr(0xe0, calldataload(0x00))\n      dup1\n      0x71e69a32\n      gt\n      tag_9\n      jumpi\n      dup1\n      0x71e69a32\n      eq\n      tag_5\n      jumpi\n      dup1\n      0x82367b2d\n      eq\n      tag_6\n      jumpi\n      dup1\n      0xf159e5ac\n      eq\n      tag_7\n      jumpi\n      dup1\n      0xf7746e36\n      eq\n      tag_8\n      jumpi\n      jump(tag_1)\n    tag_9:\n      dup1\n      0x05574ee9\n      eq\n      tag_2\n      jumpi\n      dup1\n      0x17c39286\n      eq\n      tag_3\n      jumpi\n      dup1\n      0x6c231060\n      eq\n      tag_4\n      jumpi\n    tag_1:\n      0x00\n      dup1\n      revert\n        /* \"contracts/automotive.sol\":446:657  function addCar(string memory _model,string memory _make,uint _price) public{... */\n    tag_2:\n      callvalue\n      dup1\n      iszero\n      tag_10\n      jumpi\n      0x00\n      dup1\n      revert\n    tag_10:\n      pop\n      tag_11\n      0x04\n      dup1\n      calldatasize\n      sub\n      dup2\n      add\n      swap1\n      tag_12\n      swap2\n      swap1\n      tag_13\n      jump\t// in\n    tag_12:\n      tag_14\n      jump\t// in\n    tag_11:\n      stop\n        /* \"contracts/automotive.sol\":1386:1569  function getCars() external view returns(car[] memory){... */\n    tag_3:\n      callvalue\n      dup1\n      iszero\n      tag_15\n      jumpi\n      0x00\n      dup1\n      revert\n    tag_15:\n      pop\n      tag_16\n      tag_17\n      jump\t// in\n    tag_16:\n      mload(0x40)\n      tag_18\n      swap2\n      swap1\n      tag_19\n      jump\t// in\n    tag_18:\n      mload(0x40)\n      dup1\n      swap2\n      sub\n      swap1\n      return\n        /* \"contracts/automotive.sol\":662:1074  function buyCar(uint _carID) public payable {... */\n    tag_4:\n      tag_20\n      0x04\n      dup1\n      calldatasize\n      sub\n      dup2\n      add\n      swap1\n      tag_21\n      swap2\n      swap1\n      tag_22\n      jump\t// in\n    tag_21:\n      tag_23\n      jump\t// in\n    tag_20:\n      stop\n        /* \"contracts/automotive.sol\":1574:1675  function getCarPrice(uint _carID) public view returns(uint){... */\n    tag_5:\n      callvalue\n      dup1\n      iszero\n      tag_24\n      jumpi\n      0x00\n      dup1\n      revert\n    tag_24:\n      pop\n      tag_25\n      0x04\n      dup1\n      calldatasize\n      sub\n      dup2\n      add\n      swap1\n      tag_26\n      swap2\n      swap1\n      tag_22\n      jump\t// in\n    tag_26:\n      tag_27\n      jump\t// in\n    tag_25:\n      mload(0x40)\n      tag_28\n      swap2\n      swap1\n      tag_29\n      jump\t// in\n    tag_28:\n      mload(0x40)\n      dup1\n      swap2\n      sub\n      swap1\n      return\n        /* \"contracts/automotive.sol\":1220:1375  function updatePrice(uint _carID,uint _price) public {... */\n    tag_6:\n      callvalue\n      dup1\n      iszero\n      tag_30\n      jumpi\n      0x00\n      dup1\n      revert\n    tag_30:\n      pop\n      tag_31\n      0x04\n      dup1\n      calldatasize\n      sub\n      dup2\n      add\n      swap1\n      tag_32\n      swap2\n      swap1\n      tag_33\n      jump\t// in\n    tag_32:\n      tag_34\n      jump\t// in\n    tag_31:\n      stop\n        /* \"contracts/automotive.sol\":1080:1214  function buyersInfo(address _buyerAddress,uint _ID) public view returns(car memory ){... */\n    tag_7:\n      callvalue\n      dup1\n      iszero\n      tag_35\n      jumpi\n      0x00\n      dup1\n      revert\n    tag_35:\n      pop\n      tag_36\n      0x04\n      dup1\n      calldatasize\n      sub\n      dup2\n      add\n      swap1\n      tag_37\n      swap2\n      swap1\n      tag_38\n      jump\t// in\n    tag_37:\n      tag_39\n      jump\t// in\n    tag_36:\n      mload(0x40)\n      tag_40\n      swap2\n      swap1\n      tag_41\n      jump\t// in\n    tag_40:\n      mload(0x40)\n      dup1\n      swap2\n      sub\n      swap1\n      return\n        /* \"contracts/automotive.sol\":292:322  mapping(uint=>car) public cars */\n    tag_8:\n      callvalue\n      dup1\n      iszero\n      tag_42\n      jumpi\n      0x00\n      dup1\n      revert\n    tag_42:\n      pop\n      tag_43\n      0x04\n      dup1\n      calldatasize\n      sub\n      dup2\n      add\n      swap1\n      tag_44\n      swap2\n      swap1\n      tag_22\n      jump\t// in\n    tag_44:\n      tag_45\n      jump\t// in\n    tag_43:\n      mload(0x40)\n      tag_46\n      swap5\n      swap4\n      swap3\n      swap2\n      swap1\n      tag_47\n      jump\t// in\n    tag_46:\n      mload(0x40)\n      dup1\n      swap2\n      sub\n      swap1\n      return\n        /* \"contracts/automotive.sol\":446:657  function addCar(string memory _model,string memory _make,uint _price) public{... */\n    tag_14:\n        /* \"contracts/automotive.sol\":552:557  owner */\n      0x00\n      dup1\n      sload\n      swap1\n      0x0100\n      exp\n      swap1\n      div\n      0xffffffffffffffffffffffffffffffffffffffff\n      and\n        /* \"contracts/automotive.sol\":540:557  msg.sender==owner */\n      0xffffffffffffffffffffffffffffffffffffffff\n      and\n        /* \"contracts/automotive.sol\":540:550  msg.sender */\n      caller\n        /* \"contracts/automotive.sol\":540:557  msg.sender==owner */\n      0xffffffffffffffffffffffffffffffffffffffff\n      and\n      eq\n        /* \"contracts/automotive.sol\":532:582  require(msg.sender==owner,\"you are not the owner\") */\n      tag_49\n      jumpi\n      mload(0x40)\n      0x08c379a000000000000000000000000000000000000000000000000000000000\n      dup2\n      mstore\n      0x04\n      add\n      tag_50\n      swap1\n      tag_51\n      jump\t// in\n    tag_50:\n      mload(0x40)\n      dup1\n      swap2\n      sub\n      swap1\n      revert\n    tag_49:\n        /* \"contracts/automotive.sol\":604:633  car(_model,_make,_price,true) */\n      mload(0x40)\n      dup1\n      0x80\n      add\n      0x40\n      mstore\n      dup1\n        /* \"contracts/automotive.sol\":608:614  _model */\n      dup5\n        /* \"contracts/automotive.sol\":604:633  car(_model,_make,_price,true) */\n      dup2\n      mstore\n      0x20\n      add\n        /* \"contracts/automotive.sol\":615:620  _make */\n      dup4\n        /* \"contracts/automotive.sol\":604:633  car(_model,_make,_price,true) */\n      dup2\n      mstore\n      0x20\n      add\n        /* \"contracts/automotive.sol\":621:627  _price */\n      dup3\n        /* \"contracts/automotive.sol\":604:633  car(_model,_make,_price,true) */\n      dup2\n      mstore\n      0x20\n      add\n        /* \"contracts/automotive.sol\":628:632  true */\n      0x01\n        /* \"contracts/automotive.sol\":604:633  car(_model,_make,_price,true) */\n      iszero\n      iszero\n      dup2\n      mstore\n      pop\n        /* \"contracts/automotive.sol\":592:596  cars */\n      0x02\n        /* \"contracts/automotive.sol\":592:603  cars[carID] */\n      0x00\n        /* \"contracts/automotive.sol\":597:602  carID */\n      sload(0x03)\n        /* \"contracts/automotive.sol\":592:603  cars[carID] */\n      dup2\n      mstore\n      0x20\n      add\n      swap1\n      dup2\n      mstore\n      0x20\n      add\n      0x00\n      keccak256\n        /* \"contracts/automotive.sol\":592:633  cars[carID]=car(_model,_make,_price,true) */\n      0x00\n      dup3\n      add\n      mload\n      dup2\n      0x00\n      add\n      swap1\n      dup2\n      tag_52\n      swap2\n      swap1\n      tag_53\n      jump\t// in\n    tag_52:\n      pop\n      0x20\n      dup3\n      add\n      mload\n      dup2\n      0x01\n      add\n      swap1\n      dup2\n      tag_54\n      swap2\n      swap1\n      tag_53\n      jump\t// in\n    tag_54:\n      pop\n      0x40\n      dup3\n      add\n      mload\n      dup2\n      0x02\n      add\n      sstore\n      0x60\n      dup3\n      add\n      mload\n      dup2\n      0x03\n      add\n      exp(0x0100, 0x00)\n      dup2\n      sload\n      dup2\n      0xff\n      mul\n      not\n      and\n      swap1\n      dup4\n      iszero\n      iszero\n      mul\n      or\n      swap1\n      sstore\n      pop\n      swap1\n      pop\n      pop\n        /* \"contracts/automotive.sol\":643:648  carID */\n      0x03\n      0x00\n        /* \"contracts/automotive.sol\":643:650  carID++ */\n      dup2\n      sload\n      dup1\n      swap3\n      swap2\n      swap1\n      tag_55\n      swap1\n      tag_56\n      jump\t// in\n    tag_55:\n      swap2\n      swap1\n      pop\n      sstore\n      pop\n        /* \"contracts/automotive.sol\":446:657  function addCar(string memory _model,string memory _make,uint _price) public{... */\n      pop\n      pop\n      pop\n      jump\t// out\n        /* \"contracts/automotive.sol\":1386:1569  function getCars() external view returns(car[] memory){... */\n    tag_17:\n        /* \"contracts/automotive.sol\":1427:1439  car[] memory */\n      0x60\n        /* \"contracts/automotive.sol\":1446:1463  car[] memory _car */\n      0x00\n        /* \"contracts/automotive.sol\":1482:1483  1 */\n      0x01\n        /* \"contracts/automotive.sol\":1476:1481  carID */\n      sload(0x03)\n        /* \"contracts/automotive.sol\":1476:1483  carID-1 */\n      tag_58\n      swap2\n      swap1\n      tag_59\n      jump\t// in\n    tag_58:\n        /* \"contracts/automotive.sol\":1466:1484  new car[](carID-1) */\n      0xffffffffffffffff\n      dup2\n      gt\n      iszero\n      tag_60\n      jumpi\n      tag_61\n      tag_62\n      jump\t// in\n    tag_61:\n    tag_60:\n      mload(0x40)\n      swap1\n      dup1\n      dup3\n      mstore\n      dup1\n      0x20\n      mul\n      0x20\n      add\n      dup3\n      add\n      0x40\n      mstore\n      dup1\n      iszero\n      tag_63\n      jumpi\n      dup2\n      0x20\n      add\n    tag_64:\n      tag_65\n      tag_66\n      jump\t// in\n    tag_65:\n      dup2\n      mstore\n      0x20\n      add\n      swap1\n      0x01\n      swap1\n      sub\n      swap1\n      dup2\n      tag_64\n      jumpi\n      swap1\n      pop\n    tag_63:\n      pop\n        /* \"contracts/automotive.sol\":1446:1484  car[] memory _car = new car[](carID-1) */\n      swap1\n      pop\n        /* \"contracts/automotive.sol\":1495:1501  uint i */\n      0x00\n        /* \"contracts/automotive.sol\":1502:1503  1 */\n      0x01\n        /* \"contracts/automotive.sol\":1495:1503  uint i=1 */\n      swap1\n      pop\n        /* \"contracts/automotive.sol\":1491:1550  for(uint i=1;i<carID;i++){... */\n    tag_67:\n        /* \"contracts/automotive.sol\":1506:1511  carID */\n      sload(0x03)\n        /* \"contracts/automotive.sol\":1504:1505  i */\n      dup2\n        /* \"contracts/automotive.sol\":1504:1511  i<carID */\n      lt\n        /* \"contracts/automotive.sol\":1491:1550  for(uint i=1;i<carID;i++){... */\n      iszero\n      tag_68\n      jumpi\n        /* \"contracts/automotive.sol\":1536:1540  cars */\n      0x02\n        /* \"contracts/automotive.sol\":1536:1543  cars[i] */\n      0x00\n        /* \"contracts/automotive.sol\":1541:1542  i */\n      dup3\n        /* \"contracts/automotive.sol\":1536:1543  cars[i] */\n      dup2\n      mstore\n      0x20\n      add\n      swap1\n      dup2\n      mstore\n      0x20\n      add\n      0x00\n      keccak256\n        /* \"contracts/automotive.sol\":1526:1543  _car[i-1]=cars[i] */\n      mload(0x40)\n      dup1\n      0x80\n      add\n      0x40\n      mstore\n      swap1\n      dup2\n      0x00\n      dup3\n      add\n      dup1\n      sload\n      tag_70\n      swap1\n      tag_71\n      jump\t// in\n    tag_70:\n      dup1\n      0x1f\n      add\n      0x20\n      dup1\n      swap2\n      div\n      mul\n      0x20\n      add\n      mload(0x40)\n      swap1\n      dup2\n      add\n      0x40\n      mstore\n      dup1\n      swap3\n      swap2\n      swap1\n      dup2\n      dup2\n      mstore\n      0x20\n      add\n      dup3\n      dup1\n      sload\n      tag_72\n      swap1\n      tag_71\n      jump\t// in\n    tag_72:\n      dup1\n      iszero\n      tag_73\n      jumpi\n      dup1\n      0x1f\n      lt\n      tag_74\n      jumpi\n      0x0100\n      dup1\n      dup4\n      sload\n      div\n      mul\n      dup4\n      mstore\n      swap2\n      0x20\n      add\n      swap2\n      jump(tag_73)\n    tag_74:\n      dup3\n      add\n      swap2\n      swap1\n      0x00\n      mstore\n      keccak256(0x00, 0x20)\n      swap1\n    tag_75:\n      dup2\n      sload\n      dup2\n      mstore\n      swap1\n      0x01\n      add\n      swap1\n      0x20\n      add\n      dup1\n      dup4\n      gt\n      tag_75\n      jumpi\n      dup3\n      swap1\n      sub\n      0x1f\n      and\n      dup3\n      add\n      swap2\n    tag_73:\n      pop\n      pop\n      pop\n      pop\n      pop\n      dup2\n      mstore\n      0x20\n      add\n      0x01\n      dup3\n      add\n      dup1\n      sload\n      tag_76\n      swap1\n      tag_71\n      jump\t// in\n    tag_76:\n      dup1\n      0x1f\n      add\n      0x20\n      dup1\n      swap2\n      div\n      mul\n      0x20\n      add\n      mload(0x40)\n      swap1\n      dup2\n      add\n      0x40\n      mstore\n      dup1\n      swap3\n      swap2\n      swap1\n      dup2\n      dup2\n      mstore\n      0x20\n      add\n      dup3\n      dup1\n      sload\n      tag_77\n      swap1\n      tag_71\n      jump\t// in\n    tag_77:\n      dup1\n      iszero\n      tag_78\n      jumpi\n      dup1\n      0x1f\n      lt\n      tag_79\n      jumpi\n      0x0100\n      dup1\n      dup4\n      sload\n      div\n      mul\n      dup4\n      mstore\n      swap2\n      0x20\n      add\n      swap2\n      jump(tag_78)\n    tag_79:\n      dup3\n      add\n      swap2\n      swap1\n      0x00\n      mstore\n      keccak256(0x00, 0x20)\n      swap1\n    tag_80:\n      dup2\n      sload\n      dup2\n      mstore\n      swap1\n      0x01\n      add\n      swap1\n      0x20\n      add\n      dup1\n      dup4\n      gt\n      tag_80\n      jumpi\n      dup3\n      swap1\n      sub\n      0x1f\n      and\n      dup3\n      add\n      swap2\n    tag_78:\n      pop\n      pop\n      pop\n      pop\n      pop\n      dup2\n      mstore\n      0x20\n      add\n      0x02\n      dup3\n      add\n      sload\n      dup2\n      mstore\n      0x20\n      add\n      0x03\n      dup3\n      add\n      0x00\n      swap1\n      sload\n      swap1\n      0x0100\n      exp\n      swap1\n      div\n      0xff\n      and\n      iszero\n      iszero\n      iszero\n      iszero\n      dup2\n      mstore\n      pop\n      pop\n        /* \"contracts/automotive.sol\":1526:1530  _car */\n      dup3\n        /* \"contracts/automotive.sol\":1533:1534  1 */\n      0x01\n        /* \"contracts/automotive.sol\":1531:1532  i */\n      dup4\n        /* \"contracts/automotive.sol\":1531:1534  i-1 */\n      tag_81\n      swap2\n      swap1\n      tag_59\n      jump\t// in\n    tag_81:\n        /* \"contracts/automotive.sol\":1526:1535  _car[i-1] */\n      dup2\n      mload\n      dup2\n      lt\n      tag_82\n      jumpi\n      tag_83\n      tag_84\n      jump\t// in\n    tag_83:\n    tag_82:\n      0x20\n      mul\n      0x20\n      add\n      add\n        /* \"contracts/automotive.sol\":1526:1543  _car[i-1]=cars[i] */\n      dup2\n      swap1\n      mstore\n      pop\n        /* \"contracts/automotive.sol\":1512:1515  i++ */\n      dup1\n      dup1\n      tag_85\n      swap1\n      tag_56\n      jump\t// in\n    tag_85:\n      swap2\n      pop\n      pop\n        /* \"contracts/automotive.sol\":1491:1550  for(uint i=1;i<carID;i++){... */\n      jump(tag_67)\n    tag_68:\n      pop\n        /* \"contracts/automotive.sol\":1562:1566  _car */\n      dup1\n        /* \"contracts/automotive.sol\":1555:1566  return _car */\n      swap2\n      pop\n      pop\n        /* \"contracts/automotive.sol\":1386:1569  function getCars() external view returns(car[] memory){... */\n      swap1\n      jump\t// out\n        /* \"contracts/automotive.sol\":662:1074  function buyCar(uint _carID) public payable {... */\n    tag_23:\n        /* \"contracts/automotive.sol\":736:741  owner */\n      0x00\n      dup1\n      sload\n      swap1\n      0x0100\n      exp\n      swap1\n      div\n      0xffffffffffffffffffffffffffffffffffffffff\n      and\n        /* \"contracts/automotive.sol\":724:741  msg.sender!=owner */\n      0xffffffffffffffffffffffffffffffffffffffff\n      and\n        /* \"contracts/automotive.sol\":724:734  msg.sender */\n      caller\n        /* \"contracts/automotive.sol\":724:741  msg.sender!=owner */\n      0xffffffffffffffffffffffffffffffffffffffff\n      and\n      sub\n        /* \"contracts/automotive.sol\":716:781  require(msg.sender!=owner,\"you cannot buy because you are owner\") */\n      tag_87\n      jumpi\n      mload(0x40)\n      0x08c379a000000000000000000000000000000000000000000000000000000000\n      dup2\n      mstore\n      0x04\n      add\n      tag_88\n      swap1\n      tag_89\n      jump\t// in\n    tag_88:\n      mload(0x40)\n      dup1\n      swap2\n      sub\n      swap1\n      revert\n    tag_87:\n        /* \"contracts/automotive.sol\":810:814  cars */\n      0x02\n        /* \"contracts/automotive.sol\":810:822  cars[_carID] */\n      0x00\n        /* \"contracts/automotive.sol\":815:821  _carID */\n      dup3\n        /* \"contracts/automotive.sol\":810:822  cars[_carID] */\n      dup2\n      mstore\n      0x20\n      add\n      swap1\n      dup2\n      mstore\n      0x20\n      add\n      0x00\n      keccak256\n        /* \"contracts/automotive.sol\":810:828  cars[_carID].price */\n      0x02\n      add\n      sload\n        /* \"contracts/automotive.sol\":799:808  msg.value */\n      callvalue\n        /* \"contracts/automotive.sol\":799:828  msg.value>=cars[_carID].price */\n      lt\n      iszero\n        /* \"contracts/automotive.sol\":791:852  require(msg.value>=cars[_carID].price,\"amount is not enough\") */\n      tag_90\n      jumpi\n      mload(0x40)\n      0x08c379a000000000000000000000000000000000000000000000000000000000\n      dup2\n      mstore\n      0x04\n      add\n      tag_91\n      swap1\n      tag_92\n      jump\t// in\n    tag_91:\n      mload(0x40)\n      dup1\n      swap2\n      sub\n      swap1\n      revert\n    tag_90:\n        /* \"contracts/automotive.sol\":892:896  true */\n      0x01\n        /* \"contracts/automotive.sol\":870:896  cars[_carID].forSale==true */\n      iszero\n      iszero\n        /* \"contracts/automotive.sol\":870:874  cars */\n      0x02\n        /* \"contracts/automotive.sol\":870:882  cars[_carID] */\n      0x00\n        /* \"contracts/automotive.sol\":875:881  _carID */\n      dup4\n        /* \"contracts/automotive.sol\":870:882  cars[_carID] */\n      dup2\n      mstore\n      0x20\n      add\n      swap1\n      dup2\n      mstore\n      0x20\n      add\n      0x00\n      keccak256\n        /* \"contracts/automotive.sol\":870:890  cars[_carID].forSale */\n      0x03\n      add\n      0x00\n      swap1\n      sload\n      swap1\n      0x0100\n      exp\n      swap1\n      div\n      0xff\n      and\n        /* \"contracts/automotive.sol\":870:896  cars[_carID].forSale==true */\n      iszero\n      iszero\n      eq\n        /* \"contracts/automotive.sol\":862:916  require(cars[_carID].forSale==true,\"already sold out\") */\n      tag_93\n      jumpi\n      mload(0x40)\n      0x08c379a000000000000000000000000000000000000000000000000000000000\n      dup2\n      mstore\n      0x04\n      add\n      tag_94\n      swap1\n      tag_95\n      jump\t// in\n    tag_94:\n      mload(0x40)\n      dup1\n      swap2\n      sub\n      swap1\n      revert\n    tag_93:\n        /* \"contracts/automotive.sol\":926:931  owner */\n      0x00\n      dup1\n      sload\n      swap1\n      0x0100\n      exp\n      swap1\n      div\n      0xffffffffffffffffffffffffffffffffffffffff\n      and\n        /* \"contracts/automotive.sol\":926:940  owner.transfer */\n      0xffffffffffffffffffffffffffffffffffffffff\n      and\n        /* \"contracts/automotive.sol\":926:951  owner.transfer(msg.value) */\n      0x08fc\n        /* \"contracts/automotive.sol\":941:950  msg.value */\n      callvalue\n        /* \"contracts/automotive.sol\":926:951  owner.transfer(msg.value) */\n      swap1\n      dup2\n      iszero\n      mul\n      swap1\n      mload(0x40)\n      0x00\n      mload(0x40)\n      dup1\n      dup4\n      sub\n      dup2\n      dup6\n      dup9\n      dup9\n      call\n      swap4\n      pop\n      pop\n      pop\n      pop\n      iszero\n      dup1\n      iszero\n      tag_97\n      jumpi\n      returndatasize\n      0x00\n      dup1\n      returndatacopy\n      revert(0x00, returndatasize)\n    tag_97:\n      pop\n        /* \"contracts/automotive.sol\":982:987  false */\n      0x00\n        /* \"contracts/automotive.sol\":961:965  cars */\n      0x02\n        /* \"contracts/automotive.sol\":961:973  cars[_carID] */\n      0x00\n        /* \"contracts/automotive.sol\":966:972  _carID */\n      dup4\n        /* \"contracts/automotive.sol\":961:973  cars[_carID] */\n      dup2\n      mstore\n      0x20\n      add\n      swap1\n      dup2\n      mstore\n      0x20\n      add\n      0x00\n      keccak256\n        /* \"contracts/automotive.sol\":961:981  cars[_carID].forSale */\n      0x03\n      add\n      0x00\n        /* \"contracts/automotive.sol\":961:987  cars[_carID].forSale=false */\n      0x0100\n      exp\n      dup2\n      sload\n      dup2\n      0xff\n      mul\n      not\n      and\n      swap1\n      dup4\n      iszero\n      iszero\n      mul\n      or\n      swap1\n      sstore\n      pop\n        /* \"contracts/automotive.sol\":1026:1030  cars */\n      0x02\n        /* \"contracts/automotive.sol\":1026:1038  cars[_carID] */\n      0x00\n        /* \"contracts/automotive.sol\":1031:1037  _carID */\n      dup3\n        /* \"contracts/automotive.sol\":1026:1038  cars[_carID] */\n      dup2\n      mstore\n      0x20\n      add\n      swap1\n      dup2\n      mstore\n      0x20\n      add\n      0x00\n      keccak256\n        /* \"contracts/automotive.sol\":997:1003  buyers */\n      0x01\n        /* \"contracts/automotive.sol\":997:1015  buyers[msg.sender] */\n      0x00\n        /* \"contracts/automotive.sol\":1004:1014  msg.sender */\n      caller\n        /* \"contracts/automotive.sol\":997:1015  buyers[msg.sender] */\n      0xffffffffffffffffffffffffffffffffffffffff\n      and\n      0xffffffffffffffffffffffffffffffffffffffff\n      and\n      dup2\n      mstore\n      0x20\n      add\n      swap1\n      dup2\n      mstore\n      0x20\n      add\n      0x00\n      keccak256\n        /* \"contracts/automotive.sol\":997:1025  buyers[msg.sender][buyersID] */\n      0x00\n        /* \"contracts/automotive.sol\":1016:1024  buyersID */\n      sload(0x04)\n        /* \"contracts/automotive.sol\":997:1025  buyers[msg.sender][buyersID] */\n      dup2\n      mstore\n      0x20\n      add\n      swap1\n      dup2\n      mstore\n      0x20\n      add\n      0x00\n      keccak256\n        /* \"contracts/automotive.sol\":997:1038  buyers[msg.sender][buyersID]=cars[_carID] */\n      0x00\n      dup3\n      add\n      dup2\n      0x00\n      add\n      swap1\n      dup2\n      tag_98\n      swap2\n      swap1\n      tag_99\n      jump\t// in\n    tag_98:\n      pop\n      0x01\n      dup3\n      add\n      dup2\n      0x01\n      add\n      swap1\n      dup2\n      tag_100\n      swap2\n      swap1\n      tag_99\n      jump\t// in\n    tag_100:\n      pop\n      0x02\n      dup3\n      add\n      sload\n      dup2\n      0x02\n      add\n      sstore\n      0x03\n      dup3\n      add\n      0x00\n      swap1\n      sload\n      swap1\n      0x0100\n      exp\n      swap1\n      div\n      0xff\n      and\n      dup2\n      0x03\n      add\n      exp(0x0100, 0x00)\n      dup2\n      sload\n      dup2\n      0xff\n      mul\n      not\n      and\n      swap1\n      dup4\n      iszero\n      iszero\n      mul\n      or\n      swap1\n      sstore\n      pop\n      swap1\n      pop\n      pop\n        /* \"contracts/automotive.sol\":1048:1056  buyersID */\n      0x04\n      0x00\n        /* \"contracts/automotive.sol\":1048:1058  buyersID++ */\n      dup2\n      sload\n      dup1\n      swap3\n      swap2\n      swap1\n      tag_101\n      swap1\n      tag_56\n      jump\t// in\n    tag_101:\n      swap2\n      swap1\n      pop\n      sstore\n      pop\n        /* \"contracts/automotive.sol\":662:1074  function buyCar(uint _carID) public payable {... */\n      pop\n      jump\t// out\n        /* \"contracts/automotive.sol\":1574:1675  function getCarPrice(uint _carID) public view returns(uint){... */\n    tag_27:\n        /* \"contracts/automotive.sol\":1628:1632  uint */\n      0x00\n        /* \"contracts/automotive.sol\":1650:1654  cars */\n      0x02\n        /* \"contracts/automotive.sol\":1650:1662  cars[_carID] */\n      0x00\n        /* \"contracts/automotive.sol\":1655:1661  _carID */\n      dup4\n        /* \"contracts/automotive.sol\":1650:1662  cars[_carID] */\n      dup2\n      mstore\n      0x20\n      add\n      swap1\n      dup2\n      mstore\n      0x20\n      add\n      0x00\n      keccak256\n        /* \"contracts/automotive.sol\":1650:1668  cars[_carID].price */\n      0x02\n      add\n      sload\n        /* \"contracts/automotive.sol\":1643:1668  return cars[_carID].price */\n      swap1\n      pop\n        /* \"contracts/automotive.sol\":1574:1675  function getCarPrice(uint _carID) public view returns(uint){... */\n      swap2\n      swap1\n      pop\n      jump\t// out\n        /* \"contracts/automotive.sol\":1220:1375  function updatePrice(uint _carID,uint _price) public {... */\n    tag_34:\n        /* \"contracts/automotive.sol\":1303:1308  owner */\n      0x00\n      dup1\n      sload\n      swap1\n      0x0100\n      exp\n      swap1\n      div\n      0xffffffffffffffffffffffffffffffffffffffff\n      and\n        /* \"contracts/automotive.sol\":1291:1308  msg.sender==owner */\n      0xffffffffffffffffffffffffffffffffffffffff\n      and\n        /* \"contracts/automotive.sol\":1291:1301  msg.sender */\n      caller\n        /* \"contracts/automotive.sol\":1291:1308  msg.sender==owner */\n      0xffffffffffffffffffffffffffffffffffffffff\n      and\n      eq\n        /* \"contracts/automotive.sol\":1283:1333  require(msg.sender==owner,\"you are not the owner\") */\n      tag_104\n      jumpi\n      mload(0x40)\n      0x08c379a000000000000000000000000000000000000000000000000000000000\n      dup2\n      mstore\n      0x04\n      add\n      tag_105\n      swap1\n      tag_51\n      jump\t// in\n    tag_105:\n      mload(0x40)\n      dup1\n      swap2\n      sub\n      swap1\n      revert\n    tag_104:\n        /* \"contracts/automotive.sol\":1362:1368  _price */\n      dup1\n        /* \"contracts/automotive.sol\":1343:1347  cars */\n      0x02\n        /* \"contracts/automotive.sol\":1343:1355  cars[_carID] */\n      0x00\n        /* \"contracts/automotive.sol\":1348:1354  _carID */\n      dup5\n        /* \"contracts/automotive.sol\":1343:1355  cars[_carID] */\n      dup2\n      mstore\n      0x20\n      add\n      swap1\n      dup2\n      mstore\n      0x20\n      add\n      0x00\n      keccak256\n        /* \"contracts/automotive.sol\":1343:1361  cars[_carID].price */\n      0x02\n      add\n        /* \"contracts/automotive.sol\":1343:1368  cars[_carID].price=_price */\n      dup2\n      swap1\n      sstore\n      pop\n        /* \"contracts/automotive.sol\":1220:1375  function updatePrice(uint _carID,uint _price) public {... */\n      pop\n      pop\n      jump\t// out\n        /* \"contracts/automotive.sol\":1080:1214  function buyersInfo(address _buyerAddress,uint _ID) public view returns(car memory ){... */\n    tag_39:\n        /* \"contracts/automotive.sol\":1152:1162  car memory */\n      tag_106\n      tag_66\n      jump\t// in\n    tag_106:\n        /* \"contracts/automotive.sol\":1181:1187  buyers */\n      0x01\n        /* \"contracts/automotive.sol\":1181:1202  buyers[_buyerAddress] */\n      0x00\n        /* \"contracts/automotive.sol\":1188:1201  _buyerAddress */\n      dup5\n        /* \"contracts/automotive.sol\":1181:1202  buyers[_buyerAddress] */\n      0xffffffffffffffffffffffffffffffffffffffff\n      and\n      0xffffffffffffffffffffffffffffffffffffffff\n      and\n      dup2\n      mstore\n      0x20\n      add\n      swap1\n      dup2\n      mstore\n      0x20\n      add\n      0x00\n      keccak256\n        /* \"contracts/automotive.sol\":1181:1207  buyers[_buyerAddress][_ID] */\n      0x00\n        /* \"contracts/automotive.sol\":1203:1206  _ID */\n      dup4\n        /* \"contracts/automotive.sol\":1181:1207  buyers[_buyerAddress][_ID] */\n      dup2\n      mstore\n      0x20\n      add\n      swap1\n      dup2\n      mstore\n      0x20\n      add\n      0x00\n      keccak256\n        /* \"contracts/automotive.sol\":1174:1207  return buyers[_buyerAddress][_ID] */\n      mload(0x40)\n      dup1\n      0x80\n      add\n      0x40\n      mstore\n      swap1\n      dup2\n      0x00\n      dup3\n      add\n      dup1\n      sload\n      tag_108\n      swap1\n      tag_71\n      jump\t// in\n    tag_108:\n      dup1\n      0x1f\n      add\n      0x20\n      dup1\n      swap2\n      div\n      mul\n      0x20\n      add\n      mload(0x40)\n      swap1\n      dup2\n      add\n      0x40\n      mstore\n      dup1\n      swap3\n      swap2\n      swap1\n      dup2\n      dup2\n      mstore\n      0x20\n      add\n      dup3\n      dup1\n      sload\n      tag_109\n      swap1\n      tag_71\n      jump\t// in\n    tag_109:\n      dup1\n      iszero\n      tag_110\n      jumpi\n      dup1\n      0x1f\n      lt\n      tag_111\n      jumpi\n      0x0100\n      dup1\n      dup4\n      sload\n      div\n      mul\n      dup4\n      mstore\n      swap2\n      0x20\n      add\n      swap2\n      jump(tag_110)\n    tag_111:\n      dup3\n      add\n      swap2\n      swap1\n      0x00\n      mstore\n      keccak256(0x00, 0x20)\n      swap1\n    tag_112:\n      dup2\n      sload\n      dup2\n      mstore\n      swap1\n      0x01\n      add\n      swap1\n      0x20\n      add\n      dup1\n      dup4\n      gt\n      tag_112\n      jumpi\n      dup3\n      swap1\n      sub\n      0x1f\n      and\n      dup3\n      add\n      swap2\n    tag_110:\n      pop\n      pop\n      pop\n      pop\n      pop\n      dup2\n      mstore\n      0x20\n      add\n      0x01\n      dup3\n      add\n      dup1\n      sload\n      tag_113\n      swap1\n      tag_71\n      jump\t// in\n    tag_113:\n      dup1\n      0x1f\n      add\n      0x20\n      dup1\n      swap2\n      div\n      mul\n      0x20\n      add\n      mload(0x40)\n      swap1\n      dup2\n      add\n      0x40\n      mstore\n      dup1\n      swap3\n      swap2\n      swap1\n      dup2\n      dup2\n      mstore\n      0x20\n      add\n      dup3\n      dup1\n      sload\n      tag_114\n      swap1\n      tag_71\n      jump\t// in\n    tag_114:\n      dup1\n      iszero\n      tag_115\n      jumpi\n      dup1\n      0x1f\n      lt\n      tag_116\n      jumpi\n      0x0100\n      dup1\n      dup4\n      sload\n      div\n      mul\n      dup4\n      mstore\n      swap2\n      0x20\n      add\n      swap2\n      jump(tag_115)\n    tag_116:\n      dup3\n      add\n      swap2\n      swap1\n      0x00\n      mstore\n      keccak256(0x00, 0x20)\n      swap1\n    tag_117:\n      dup2\n      sload\n      dup2\n      mstore\n      swap1\n      0x01\n      add\n      swap1\n      0x20\n      add\n      dup1\n      dup4\n      gt\n      tag_117\n      jumpi\n      dup3\n      swap1\n      sub\n      0x1f\n      and\n      dup3\n      add\n      swap2\n    tag_115:\n      pop\n      pop\n      pop\n      pop\n      pop\n      dup2\n      mstore\n      0x20\n      add\n      0x02\n      dup3\n      add\n      sload\n      dup2\n      mstore\n      0x20\n      add\n      0x03\n      dup3\n      add\n      0x00\n      swap1\n      sload\n      swap1\n      0x0100\n      exp\n      swap1\n      div\n      0xff\n      and\n      iszero\n      iszero\n      iszero\n      iszero\n      dup2\n      mstore\n      pop\n      pop\n      swap1\n      pop\n        /* \"contracts/automotive.sol\":1080:1214  function buyersInfo(address _buyerAddress,uint _ID) public view returns(car memory ){... */\n      swap3\n      swap2\n      pop\n      pop\n      jump\t// out\n        /* \"contracts/automotive.sol\":292:322  mapping(uint=>car) public cars */\n    tag_45:\n      mstore(0x20, 0x02)\n      dup1\n      0x00\n      mstore\n      keccak256(0x00, 0x40)\n      0x00\n      swap2\n      pop\n      swap1\n      pop\n      dup1\n      0x00\n      add\n      dup1\n      sload\n      tag_118\n      swap1\n      tag_71\n      jump\t// in\n    tag_118:\n      dup1\n      0x1f\n      add\n      0x20\n      dup1\n      swap2\n      div\n      mul\n      0x20\n      add\n      mload(0x40)\n      swap1\n      dup2\n      add\n      0x40\n      mstore\n      dup1\n      swap3\n      swap2\n      swap1\n      dup2\n      dup2\n      mstore\n      0x20\n      add\n      dup3\n      dup1\n      sload\n      tag_119\n      swap1\n      tag_71\n      jump\t// in\n    tag_119:\n      dup1\n      iszero\n      tag_120\n      jumpi\n      dup1\n      0x1f\n      lt\n      tag_121\n      jumpi\n      0x0100\n      dup1\n      dup4\n      sload\n      div\n      mul\n      dup4\n      mstore\n      swap2\n      0x20\n      add\n      swap2\n      jump(tag_120)\n    tag_121:\n      dup3\n      add\n      swap2\n      swap1\n      0x00\n      mstore\n      keccak256(0x00, 0x20)\n      swap1\n    tag_122:\n      dup2\n      sload\n      dup2\n      mstore\n      swap1\n      0x01\n      add\n      swap1\n      0x20\n      add\n      dup1\n      dup4\n      gt\n      tag_122\n      jumpi\n      dup3\n      swap1\n      sub\n      0x1f\n      and\n      dup3\n      add\n      swap2\n    tag_120:\n      pop\n      pop\n      pop\n      pop\n      pop\n      swap1\n      dup1\n      0x01\n      add\n      dup1\n      sload\n      tag_123\n      swap1\n      tag_71\n      jump\t// in\n    tag_123:\n      dup1\n      0x1f\n      add\n      0x20\n      dup1\n      swap2\n      div\n      mul\n      0x20\n      add\n      mload(0x40)\n      swap1\n      dup2\n      add\n      0x40\n      mstore\n      dup1\n      swap3\n      swap2\n      swap1\n      dup2\n      dup2\n      mstore\n      0x20\n      add\n      dup3\n      dup1\n      sload\n      tag_124\n      swap1\n      tag_71\n      jump\t// in\n    tag_124:\n      dup1\n      iszero\n      tag_125\n      jumpi\n      dup1\n      0x1f\n      lt\n      tag_126\n      jumpi\n      0x0100\n      dup1\n      dup4\n      sload\n      div\n      mul\n      dup4\n      mstore\n      swap2\n      0x20\n      add\n      swap2\n      jump(tag_125)\n    tag_126:\n      dup3\n      add\n      swap2\n      swap1\n      0x00\n      mstore\n      keccak256(0x00, 0x20)\n      swap1\n    tag_127:\n      dup2\n      sload\n      dup2\n      mstore\n      swap1\n      0x01\n      add\n      swap1\n      0x20\n      add\n      dup1\n      dup4\n      gt\n      tag_127\n      jumpi\n      dup3\n      swap1\n      sub\n      0x1f\n      and\n      dup3\n      add\n      swap2\n    tag_125:\n      pop\n      pop\n      pop\n      pop\n      pop\n      swap1\n      dup1\n      0x02\n      add\n      sload\n      swap1\n      dup1\n      0x03\n      add\n      0x00\n      swap1\n      sload\n      swap1\n      0x0100\n      exp\n      swap1\n      div\n      0xff\n      and\n      swap1\n      pop\n      dup5\n      jump\t// out\n    tag_66:\n      mload(0x40)\n      dup1\n      0x80\n      add\n      0x40\n      mstore\n      dup1\n      0x60\n      dup2\n      mstore\n      0x20\n      add\n      0x60\n      dup2\n      mstore\n      0x20\n      add\n      0x00\n      dup2\n      mstore\n      0x20\n      add\n      iszero(iszero(0x00))\n      dup2\n      mstore\n      pop\n      swap1\n      jump\t// out\n        /* \"#utility.yul\":7:82   */\n    tag_128:\n        /* \"#utility.yul\":40:46   */\n      0x00\n        /* \"#utility.yul\":73:75   */\n      0x40\n        /* \"#utility.yul\":67:76   */\n      mload\n        /* \"#utility.yul\":57:76   */\n      swap1\n      pop\n        /* \"#utility.yul\":7:82   */\n      swap1\n      jump\t// out\n        /* \"#utility.yul\":88:205   */\n    tag_129:\n        /* \"#utility.yul\":197:198   */\n      0x00\n        /* \"#utility.yul\":194:195   */\n      dup1\n        /* \"#utility.yul\":187:199   */\n      revert\n        /* \"#utility.yul\":211:328   */\n    tag_130:\n        /* \"#utility.yul\":320:321   */\n      0x00\n        /* \"#utility.yul\":317:318   */\n      dup1\n        /* \"#utility.yul\":310:322   */\n      revert\n        /* \"#utility.yul\":334:451   */\n    tag_131:\n        /* \"#utility.yul\":443:444   */\n      0x00\n        /* \"#utility.yul\":440:441   */\n      dup1\n        /* \"#utility.yul\":433:445   */\n      revert\n        /* \"#utility.yul\":457:574   */\n    tag_132:\n        /* \"#utility.yul\":566:567   */\n      0x00\n        /* \"#utility.yul\":563:564   */\n      dup1\n        /* \"#utility.yul\":556:568   */\n      revert\n        /* \"#utility.yul\":580:682   */\n    tag_133:\n        /* \"#utility.yul\":621:627   */\n      0x00\n        /* \"#utility.yul\":672:674   */\n      0x1f\n        /* \"#utility.yul\":668:675   */\n      not\n        /* \"#utility.yul\":663:665   */\n      0x1f\n        /* \"#utility.yul\":656:661   */\n      dup4\n        /* \"#utility.yul\":652:666   */\n      add\n        /* \"#utility.yul\":648:676   */\n      and\n        /* \"#utility.yul\":638:676   */\n      swap1\n      pop\n        /* \"#utility.yul\":580:682   */\n      swap2\n      swap1\n      pop\n      jump\t// out\n        /* \"#utility.yul\":688:868   */\n    tag_62:\n        /* \"#utility.yul\":736:813   */\n      0x4e487b7100000000000000000000000000000000000000000000000000000000\n        /* \"#utility.yul\":733:734   */\n      0x00\n        /* \"#utility.yul\":726:814   */\n      mstore\n        /* \"#utility.yul\":833:837   */\n      0x41\n        /* \"#utility.yul\":830:831   */\n      0x04\n        /* \"#utility.yul\":823:838   */\n      mstore\n        /* \"#utility.yul\":857:861   */\n      0x24\n        /* \"#utility.yul\":854:855   */\n      0x00\n        /* \"#utility.yul\":847:862   */\n      revert\n        /* \"#utility.yul\":874:1155   */\n    tag_134:\n        /* \"#utility.yul\":957:984   */\n      tag_201\n        /* \"#utility.yul\":979:983   */\n      dup3\n        /* \"#utility.yul\":957:984   */\n      tag_133\n      jump\t// in\n    tag_201:\n        /* \"#utility.yul\":949:955   */\n      dup2\n        /* \"#utility.yul\":945:985   */\n      add\n        /* \"#utility.yul\":1087:1093   */\n      dup2\n        /* \"#utility.yul\":1075:1085   */\n      dup2\n        /* \"#utility.yul\":1072:1094   */\n      lt\n        /* \"#utility.yul\":1051:1069   */\n      0xffffffffffffffff\n        /* \"#utility.yul\":1039:1049   */\n      dup3\n        /* \"#utility.yul\":1036:1070   */\n      gt\n        /* \"#utility.yul\":1033:1095   */\n      or\n        /* \"#utility.yul\":1030:1118   */\n      iszero\n      tag_202\n      jumpi\n        /* \"#utility.yul\":1098:1116   */\n      tag_203\n      tag_62\n      jump\t// in\n    tag_203:\n        /* \"#utility.yul\":1030:1118   */\n    tag_202:\n        /* \"#utility.yul\":1138:1148   */\n      dup1\n        /* \"#utility.yul\":1134:1136   */\n      0x40\n        /* \"#utility.yul\":1127:1149   */\n      mstore\n        /* \"#utility.yul\":917:1155   */\n      pop\n        /* \"#utility.yul\":874:1155   */\n      pop\n      pop\n      jump\t// out\n        /* \"#utility.yul\":1161:1290   */\n    tag_135:\n        /* \"#utility.yul\":1195:1201   */\n      0x00\n        /* \"#utility.yul\":1222:1242   */\n      tag_205\n      tag_128\n      jump\t// in\n    tag_205:\n        /* \"#utility.yul\":1212:1242   */\n      swap1\n      pop\n        /* \"#utility.yul\":1251:1284   */\n      tag_206\n        /* \"#utility.yul\":1279:1283   */\n      dup3\n        /* \"#utility.yul\":1271:1277   */\n      dup3\n        /* \"#utility.yul\":1251:1284   */\n      tag_134\n      jump\t// in\n    tag_206:\n        /* \"#utility.yul\":1161:1290   */\n      swap2\n      swap1\n      pop\n      jump\t// out\n        /* \"#utility.yul\":1296:1604   */\n    tag_136:\n        /* \"#utility.yul\":1358:1362   */\n      0x00\n        /* \"#utility.yul\":1448:1466   */\n      0xffffffffffffffff\n        /* \"#utility.yul\":1440:1446   */\n      dup3\n        /* \"#utility.yul\":1437:1467   */\n      gt\n        /* \"#utility.yul\":1434:1490   */\n      iszero\n      tag_208\n      jumpi\n        /* \"#utility.yul\":1470:1488   */\n      tag_209\n      tag_62\n      jump\t// in\n    tag_209:\n        /* \"#utility.yul\":1434:1490   */\n    tag_208:\n        /* \"#utility.yul\":1508:1537   */\n      tag_210\n        /* \"#utility.yul\":1530:1536   */\n      dup3\n        /* \"#utility.yul\":1508:1537   */\n      tag_133\n      jump\t// in\n    tag_210:\n        /* \"#utility.yul\":1500:1537   */\n      swap1\n      pop\n        /* \"#utility.yul\":1592:1596   */\n      0x20\n        /* \"#utility.yul\":1586:1590   */\n      dup2\n        /* \"#utility.yul\":1582:1597   */\n      add\n        /* \"#utility.yul\":1574:1597   */\n      swap1\n      pop\n        /* \"#utility.yul\":1296:1604   */\n      swap2\n      swap1\n      pop\n      jump\t// out\n        /* \"#utility.yul\":1610:1756   */\n    tag_137:\n        /* \"#utility.yul\":1707:1713   */\n      dup3\n        /* \"#utility.yul\":1702:1705   */\n      dup2\n        /* \"#utility.yul\":1697:1700   */\n      dup4\n        /* \"#utility.yul\":1684:1714   */\n      calldatacopy\n        /* \"#utility.yul\":1748:1749   */\n      0x00\n        /* \"#utility.yul\":1739:1745   */\n      dup4\n        /* \"#utility.yul\":1734:1737   */\n      dup4\n        /* \"#utility.yul\":1730:1746   */\n      add\n        /* \"#utility.yul\":1723:1750   */\n      mstore\n        /* \"#utility.yul\":1610:1756   */\n      pop\n      pop\n      pop\n      jump\t// out\n        /* \"#utility.yul\":1762:2187   */\n    tag_138:\n        /* \"#utility.yul\":1840:1845   */\n      0x00\n        /* \"#utility.yul\":1865:1931   */\n      tag_213\n        /* \"#utility.yul\":1881:1930   */\n      tag_214\n        /* \"#utility.yul\":1923:1929   */\n      dup5\n        /* \"#utility.yul\":1881:1930   */\n      tag_136\n      jump\t// in\n    tag_214:\n        /* \"#utility.yul\":1865:1931   */\n      tag_135\n      jump\t// in\n    tag_213:\n        /* \"#utility.yul\":1856:1931   */\n      swap1\n      pop\n        /* \"#utility.yul\":1954:1960   */\n      dup3\n        /* \"#utility.yul\":1947:1952   */\n      dup2\n        /* \"#utility.yul\":1940:1961   */\n      mstore\n        /* \"#utility.yul\":1992:1996   */\n      0x20\n        /* \"#utility.yul\":1985:1990   */\n      dup2\n        /* \"#utility.yul\":1981:1997   */\n      add\n        /* \"#utility.yul\":2030:2033   */\n      dup5\n        /* \"#utility.yul\":2021:2027   */\n      dup5\n        /* \"#utility.yul\":2016:2019   */\n      dup5\n        /* \"#utility.yul\":2012:2028   */\n      add\n        /* \"#utility.yul\":2009:2034   */\n      gt\n        /* \"#utility.yul\":2006:2118   */\n      iszero\n      tag_215\n      jumpi\n        /* \"#utility.yul\":2037:2116   */\n      tag_216\n      tag_132\n      jump\t// in\n    tag_216:\n        /* \"#utility.yul\":2006:2118   */\n    tag_215:\n        /* \"#utility.yul\":2127:2181   */\n      tag_217\n        /* \"#utility.yul\":2174:2180   */\n      dup5\n        /* \"#utility.yul\":2169:2172   */\n      dup3\n        /* \"#utility.yul\":2164:2167   */\n      dup6\n        /* \"#utility.yul\":2127:2181   */\n      tag_137\n      jump\t// in\n    tag_217:\n        /* \"#utility.yul\":1846:2187   */\n      pop\n        /* \"#utility.yul\":1762:2187   */\n      swap4\n      swap3\n      pop\n      pop\n      pop\n      jump\t// out\n        /* \"#utility.yul\":2207:2547   */\n    tag_139:\n        /* \"#utility.yul\":2263:2268   */\n      0x00\n        /* \"#utility.yul\":2312:2315   */\n      dup3\n        /* \"#utility.yul\":2305:2309   */\n      0x1f\n        /* \"#utility.yul\":2297:2303   */\n      dup4\n        /* \"#utility.yul\":2293:2310   */\n      add\n        /* \"#utility.yul\":2289:2316   */\n      slt\n        /* \"#utility.yul\":2279:2401   */\n      tag_219\n      jumpi\n        /* \"#utility.yul\":2320:2399   */\n      tag_220\n      tag_131\n      jump\t// in\n    tag_220:\n        /* \"#utility.yul\":2279:2401   */\n    tag_219:\n        /* \"#utility.yul\":2437:2443   */\n      dup2\n        /* \"#utility.yul\":2424:2444   */\n      calldataload\n        /* \"#utility.yul\":2462:2541   */\n      tag_221\n        /* \"#utility.yul\":2537:2540   */\n      dup5\n        /* \"#utility.yul\":2529:2535   */\n      dup3\n        /* \"#utility.yul\":2522:2526   */\n      0x20\n        /* \"#utility.yul\":2514:2520   */\n      dup7\n        /* \"#utility.yul\":2510:2527   */\n      add\n        /* \"#utility.yul\":2462:2541   */\n      tag_138\n      jump\t// in\n    tag_221:\n        /* \"#utility.yul\":2453:2541   */\n      swap2\n      pop\n        /* \"#utility.yul\":2269:2547   */\n      pop\n        /* \"#utility.yul\":2207:2547   */\n      swap3\n      swap2\n      pop\n      pop\n      jump\t// out\n        /* \"#utility.yul\":2553:2630   */\n    tag_140:\n        /* \"#utility.yul\":2590:2597   */\n      0x00\n        /* \"#utility.yul\":2619:2624   */\n      dup2\n        /* \"#utility.yul\":2608:2624   */\n      swap1\n      pop\n        /* \"#utility.yul\":2553:2630   */\n      swap2\n      swap1\n      pop\n      jump\t// out\n        /* \"#utility.yul\":2636:2758   */\n    tag_141:\n        /* \"#utility.yul\":2709:2733   */\n      tag_224\n        /* \"#utility.yul\":2727:2732   */\n      dup2\n        /* \"#utility.yul\":2709:2733   */\n      tag_140\n      jump\t// in\n    tag_224:\n        /* \"#utility.yul\":2702:2707   */\n      dup2\n        /* \"#utility.yul\":2699:2734   */\n      eq\n        /* \"#utility.yul\":2689:2752   */\n      tag_225\n      jumpi\n        /* \"#utility.yul\":2748:2749   */\n      0x00\n        /* \"#utility.yul\":2745:2746   */\n      dup1\n        /* \"#utility.yul\":2738:2750   */\n      revert\n        /* \"#utility.yul\":2689:2752   */\n    tag_225:\n        /* \"#utility.yul\":2636:2758   */\n      pop\n      jump\t// out\n        /* \"#utility.yul\":2764:2903   */\n    tag_142:\n        /* \"#utility.yul\":2810:2815   */\n      0x00\n        /* \"#utility.yul\":2848:2854   */\n      dup2\n        /* \"#utility.yul\":2835:2855   */\n      calldataload\n        /* \"#utility.yul\":2826:2855   */\n      swap1\n      pop\n        /* \"#utility.yul\":2864:2897   */\n      tag_227\n        /* \"#utility.yul\":2891:2896   */\n      dup2\n        /* \"#utility.yul\":2864:2897   */\n      tag_141\n      jump\t// in\n    tag_227:\n        /* \"#utility.yul\":2764:2903   */\n      swap3\n      swap2\n      pop\n      pop\n      jump\t// out\n        /* \"#utility.yul\":2909:3888   */\n    tag_13:\n        /* \"#utility.yul\":3006:3012   */\n      0x00\n        /* \"#utility.yul\":3014:3020   */\n      dup1\n        /* \"#utility.yul\":3022:3028   */\n      0x00\n        /* \"#utility.yul\":3071:3073   */\n      0x60\n        /* \"#utility.yul\":3059:3068   */\n      dup5\n        /* \"#utility.yul\":3050:3057   */\n      dup7\n        /* \"#utility.yul\":3046:3069   */\n      sub\n        /* \"#utility.yul\":3042:3074   */\n      slt\n        /* \"#utility.yul\":3039:3158   */\n      iszero\n      tag_229\n      jumpi\n        /* \"#utility.yul\":3077:3156   */\n      tag_230\n      tag_129\n      jump\t// in\n    tag_230:\n        /* \"#utility.yul\":3039:3158   */\n    tag_229:\n        /* \"#utility.yul\":3225:3226   */\n      0x00\n        /* \"#utility.yul\":3214:3223   */\n      dup5\n        /* \"#utility.yul\":3210:3227   */\n      add\n        /* \"#utility.yul\":3197:3228   */\n      calldataload\n        /* \"#utility.yul\":3255:3273   */\n      0xffffffffffffffff\n        /* \"#utility.yul\":3247:3253   */\n      dup2\n        /* \"#utility.yul\":3244:3274   */\n      gt\n        /* \"#utility.yul\":3241:3358   */\n      iszero\n      tag_231\n      jumpi\n        /* \"#utility.yul\":3277:3356   */\n      tag_232\n      tag_130\n      jump\t// in\n    tag_232:\n        /* \"#utility.yul\":3241:3358   */\n    tag_231:\n        /* \"#utility.yul\":3382:3445   */\n      tag_233\n        /* \"#utility.yul\":3437:3444   */\n      dup7\n        /* \"#utility.yul\":3428:3434   */\n      dup3\n        /* \"#utility.yul\":3417:3426   */\n      dup8\n        /* \"#utility.yul\":3413:3435   */\n      add\n        /* \"#utility.yul\":3382:3445   */\n      tag_139\n      jump\t// in\n    tag_233:\n        /* \"#utility.yul\":3372:3445   */\n      swap4\n      pop\n        /* \"#utility.yul\":3168:3455   */\n      pop\n        /* \"#utility.yul\":3522:3524   */\n      0x20\n        /* \"#utility.yul\":3511:3520   */\n      dup5\n        /* \"#utility.yul\":3507:3525   */\n      add\n        /* \"#utility.yul\":3494:3526   */\n      calldataload\n        /* \"#utility.yul\":3553:3571   */\n      0xffffffffffffffff\n        /* \"#utility.yul\":3545:3551   */\n      dup2\n        /* \"#utility.yul\":3542:3572   */\n      gt\n        /* \"#utility.yul\":3539:3656   */\n      iszero\n      tag_234\n      jumpi\n        /* \"#utility.yul\":3575:3654   */\n      tag_235\n      tag_130\n      jump\t// in\n    tag_235:\n        /* \"#utility.yul\":3539:3656   */\n    tag_234:\n        /* \"#utility.yul\":3680:3743   */\n      tag_236\n        /* \"#utility.yul\":3735:3742   */\n      dup7\n        /* \"#utility.yul\":3726:3732   */\n      dup3\n        /* \"#utility.yul\":3715:3724   */\n      dup8\n        /* \"#utility.yul\":3711:3733   */\n      add\n        /* \"#utility.yul\":3680:3743   */\n      tag_139\n      jump\t// in\n    tag_236:\n        /* \"#utility.yul\":3670:3743   */\n      swap3\n      pop\n        /* \"#utility.yul\":3465:3753   */\n      pop\n        /* \"#utility.yul\":3792:3794   */\n      0x40\n        /* \"#utility.yul\":3818:3871   */\n      tag_237\n        /* \"#utility.yul\":3863:3870   */\n      dup7\n        /* \"#utility.yul\":3854:3860   */\n      dup3\n        /* \"#utility.yul\":3843:3852   */\n      dup8\n        /* \"#utility.yul\":3839:3861   */\n      add\n        /* \"#utility.yul\":3818:3871   */\n      tag_142\n      jump\t// in\n    tag_237:\n        /* \"#utility.yul\":3808:3871   */\n      swap2\n      pop\n        /* \"#utility.yul\":3763:3881   */\n      pop\n        /* \"#utility.yul\":2909:3888   */\n      swap3\n      pop\n      swap3\n      pop\n      swap3\n      jump\t// out\n        /* \"#utility.yul\":3894:4027   */\n    tag_143:\n        /* \"#utility.yul\":3980:3986   */\n      0x00\n        /* \"#utility.yul\":4014:4019   */\n      dup2\n        /* \"#utility.yul\":4008:4020   */\n      mload\n        /* \"#utility.yul\":3998:4020   */\n      swap1\n      pop\n        /* \"#utility.yul\":3894:4027   */\n      swap2\n      swap1\n      pop\n      jump\t// out\n        /* \"#utility.yul\":4033:4236   */\n    tag_144:\n        /* \"#utility.yul\":4151:4162   */\n      0x00\n        /* \"#utility.yul\":4185:4191   */\n      dup3\n        /* \"#utility.yul\":4180:4183   */\n      dup3\n        /* \"#utility.yul\":4173:4192   */\n      mstore\n        /* \"#utility.yul\":4225:4229   */\n      0x20\n        /* \"#utility.yul\":4220:4223   */\n      dup3\n        /* \"#utility.yul\":4216:4230   */\n      add\n        /* \"#utility.yul\":4201:4230   */\n      swap1\n      pop\n        /* \"#utility.yul\":4033:4236   */\n      swap3\n      swap2\n      pop\n      pop\n      jump\t// out\n        /* \"#utility.yul\":4242:4393   */\n    tag_145:\n        /* \"#utility.yul\":4328:4332   */\n      0x00\n        /* \"#utility.yul\":4351:4354   */\n      dup2\n        /* \"#utility.yul\":4343:4354   */\n      swap1\n      pop\n        /* \"#utility.yul\":4381:4385   */\n      0x20\n        /* \"#utility.yul\":4376:4379   */\n      dup3\n        /* \"#utility.yul\":4372:4386   */\n      add\n        /* \"#utility.yul\":4364:4386   */\n      swap1\n      pop\n        /* \"#utility.yul\":4242:4393   */\n      swap2\n      swap1\n      pop\n      jump\t// out\n        /* \"#utility.yul\":4399:4498   */\n    tag_146:\n        /* \"#utility.yul\":4451:4457   */\n      0x00\n        /* \"#utility.yul\":4485:4490   */\n      dup2\n        /* \"#utility.yul\":4479:4491   */\n      mload\n        /* \"#utility.yul\":4469:4491   */\n      swap1\n      pop\n        /* \"#utility.yul\":4399:4498   */\n      swap2\n      swap1\n      pop\n      jump\t// out\n        /* \"#utility.yul\":4504:4663   */\n    tag_147:\n        /* \"#utility.yul\":4578:4589   */\n      0x00\n        /* \"#utility.yul\":4612:4618   */\n      dup3\n        /* \"#utility.yul\":4607:4610   */\n      dup3\n        /* \"#utility.yul\":4600:4619   */\n      mstore\n        /* \"#utility.yul\":4652:4656   */\n      0x20\n        /* \"#utility.yul\":4647:4650   */\n      dup3\n        /* \"#utility.yul\":4643:4657   */\n      add\n        /* \"#utility.yul\":4628:4657   */\n      swap1\n      pop\n        /* \"#utility.yul\":4504:4663   */\n      swap3\n      swap2\n      pop\n      pop\n      jump\t// out\n        /* \"#utility.yul\":4669:4915   */\n    tag_148:\n        /* \"#utility.yul\":4750:4751   */\n      0x00\n        /* \"#utility.yul\":4760:4873   */\n    tag_244:\n        /* \"#utility.yul\":4774:4780   */\n      dup4\n        /* \"#utility.yul\":4771:4772   */\n      dup2\n        /* \"#utility.yul\":4768:4781   */\n      lt\n        /* \"#utility.yul\":4760:4873   */\n      iszero\n      tag_246\n      jumpi\n        /* \"#utility.yul\":4859:4860   */\n      dup1\n        /* \"#utility.yul\":4854:4857   */\n      dup3\n        /* \"#utility.yul\":4850:4861   */\n      add\n        /* \"#utility.yul\":4844:4862   */\n      mload\n        /* \"#utility.yul\":4840:4841   */\n      dup2\n        /* \"#utility.yul\":4835:4838   */\n      dup5\n        /* \"#utility.yul\":4831:4842   */\n      add\n        /* \"#utility.yul\":4824:4863   */\n      mstore\n        /* \"#utility.yul\":4796:4798   */\n      0x20\n        /* \"#utility.yul\":4793:4794   */\n      dup2\n        /* \"#utility.yul\":4789:4799   */\n      add\n        /* \"#utility.yul\":4784:4799   */\n      swap1\n      pop\n        /* \"#utility.yul\":4760:4873   */\n      jump(tag_244)\n    tag_246:\n        /* \"#utility.yul\":4907:4908   */\n      0x00\n        /* \"#utility.yul\":4898:4904   */\n      dup5\n        /* \"#utility.yul\":4893:4896   */\n      dup5\n        /* \"#utility.yul\":4889:4905   */\n      add\n        /* \"#utility.yul\":4882:4909   */\n      mstore\n        /* \"#utility.yul\":4731:4915   */\n      pop\n        /* \"#utility.yul\":4669:4915   */\n      pop\n      pop\n      pop\n      jump\t// out\n        /* \"#utility.yul\":4921:5278   */\n    tag_149:\n        /* \"#utility.yul\":4999:5002   */\n      0x00\n        /* \"#utility.yul\":5027:5066   */\n      tag_248\n        /* \"#utility.yul\":5060:5065   */\n      dup3\n        /* \"#utility.yul\":5027:5066   */\n      tag_146\n      jump\t// in\n    tag_248:\n        /* \"#utility.yul\":5082:5143   */\n      tag_249\n        /* \"#utility.yul\":5136:5142   */\n      dup2\n        /* \"#utility.yul\":5131:5134   */\n      dup6\n        /* \"#utility.yul\":5082:5143   */\n      tag_147\n      jump\t// in\n    tag_249:\n        /* \"#utility.yul\":5075:5143   */\n      swap4\n      pop\n        /* \"#utility.yul\":5152:5217   */\n      tag_250\n        /* \"#utility.yul\":5210:5216   */\n      dup2\n        /* \"#utility.yul\":5205:5208   */\n      dup6\n        /* \"#utility.yul\":5198:5202   */\n      0x20\n        /* \"#utility.yul\":5191:5196   */\n      dup7\n        /* \"#utility.yul\":5187:5203   */\n      add\n        /* \"#utility.yul\":5152:5217   */\n      tag_148\n      jump\t// in\n    tag_250:\n        /* \"#utility.yul\":5242:5271   */\n      tag_251\n        /* \"#utility.yul\":5264:5270   */\n      dup2\n        /* \"#utility.yul\":5242:5271   */\n      tag_133\n      jump\t// in\n    tag_251:\n        /* \"#utility.yul\":5237:5240   */\n      dup5\n        /* \"#utility.yul\":5233:5272   */\n      add\n        /* \"#utility.yul\":5226:5272   */\n      swap2\n      pop\n        /* \"#utility.yul\":5003:5278   */\n      pop\n        /* \"#utility.yul\":4921:5278   */\n      swap3\n      swap2\n      pop\n      pop\n      jump\t// out\n        /* \"#utility.yul\":5284:5392   */\n    tag_150:\n        /* \"#utility.yul\":5361:5385   */\n      tag_253\n        /* \"#utility.yul\":5379:5384   */\n      dup2\n        /* \"#utility.yul\":5361:5385   */\n      tag_140\n      jump\t// in\n    tag_253:\n        /* \"#utility.yul\":5356:5359   */\n      dup3\n        /* \"#utility.yul\":5349:5386   */\n      mstore\n        /* \"#utility.yul\":5284:5392   */\n      pop\n      pop\n      jump\t// out\n        /* \"#utility.yul\":5398:5488   */\n    tag_151:\n        /* \"#utility.yul\":5432:5439   */\n      0x00\n        /* \"#utility.yul\":5475:5480   */\n      dup2\n        /* \"#utility.yul\":5468:5481   */\n      iszero\n        /* \"#utility.yul\":5461:5482   */\n      iszero\n        /* \"#utility.yul\":5450:5482   */\n      swap1\n      pop\n        /* \"#utility.yul\":5398:5488   */\n      swap2\n      swap1\n      pop\n      jump\t// out\n        /* \"#utility.yul\":5494:5593   */\n    tag_152:\n        /* \"#utility.yul\":5565:5586   */\n      tag_256\n        /* \"#utility.yul\":5580:5585   */\n      dup2\n        /* \"#utility.yul\":5565:5586   */\n      tag_151\n      jump\t// in\n    tag_256:\n        /* \"#utility.yul\":5560:5563   */\n      dup3\n        /* \"#utility.yul\":5553:5587   */\n      mstore\n        /* \"#utility.yul\":5494:5593   */\n      pop\n      pop\n      jump\t// out\n        /* \"#utility.yul\":5653:6655   */\n    tag_153:\n        /* \"#utility.yul\":5750:5753   */\n      0x00\n        /* \"#utility.yul\":5786:5790   */\n      0x80\n        /* \"#utility.yul\":5781:5784   */\n      dup4\n        /* \"#utility.yul\":5777:5791   */\n      add\n        /* \"#utility.yul\":5874:5878   */\n      0x00\n        /* \"#utility.yul\":5867:5872   */\n      dup4\n        /* \"#utility.yul\":5863:5879   */\n      add\n        /* \"#utility.yul\":5857:5880   */\n      mload\n        /* \"#utility.yul\":5927:5930   */\n      dup5\n        /* \"#utility.yul\":5921:5925   */\n      dup3\n        /* \"#utility.yul\":5917:5931   */\n      sub\n        /* \"#utility.yul\":5910:5914   */\n      0x00\n        /* \"#utility.yul\":5905:5908   */\n      dup7\n        /* \"#utility.yul\":5901:5915   */\n      add\n        /* \"#utility.yul\":5894:5932   */\n      mstore\n        /* \"#utility.yul\":5953:6026   */\n      tag_258\n        /* \"#utility.yul\":6021:6025   */\n      dup3\n        /* \"#utility.yul\":6007:6019   */\n      dup3\n        /* \"#utility.yul\":5953:6026   */\n      tag_149\n      jump\t// in\n    tag_258:\n        /* \"#utility.yul\":5945:6026   */\n      swap2\n      pop\n        /* \"#utility.yul\":5801:6037   */\n      pop\n        /* \"#utility.yul\":6119:6123   */\n      0x20\n        /* \"#utility.yul\":6112:6117   */\n      dup4\n        /* \"#utility.yul\":6108:6124   */\n      add\n        /* \"#utility.yul\":6102:6125   */\n      mload\n        /* \"#utility.yul\":6172:6175   */\n      dup5\n        /* \"#utility.yul\":6166:6170   */\n      dup3\n        /* \"#utility.yul\":6162:6176   */\n      sub\n        /* \"#utility.yul\":6155:6159   */\n      0x20\n        /* \"#utility.yul\":6150:6153   */\n      dup7\n        /* \"#utility.yul\":6146:6160   */\n      add\n        /* \"#utility.yul\":6139:6177   */\n      mstore\n        /* \"#utility.yul\":6198:6271   */\n      tag_259\n        /* \"#utility.yul\":6266:6270   */\n      dup3\n        /* \"#utility.yul\":6252:6264   */\n      dup3\n        /* \"#utility.yul\":6198:6271   */\n      tag_149\n      jump\t// in\n    tag_259:\n        /* \"#utility.yul\":6190:6271   */\n      swap2\n      pop\n        /* \"#utility.yul\":6047:6282   */\n      pop\n        /* \"#utility.yul\":6365:6369   */\n      0x40\n        /* \"#utility.yul\":6358:6363   */\n      dup4\n        /* \"#utility.yul\":6354:6370   */\n      add\n        /* \"#utility.yul\":6348:6371   */\n      mload\n        /* \"#utility.yul\":6384:6447   */\n      tag_260\n        /* \"#utility.yul\":6441:6445   */\n      0x40\n        /* \"#utility.yul\":6436:6439   */\n      dup7\n        /* \"#utility.yul\":6432:6446   */\n      add\n        /* \"#utility.yul\":6418:6430   */\n      dup3\n        /* \"#utility.yul\":6384:6447   */\n      tag_150\n      jump\t// in\n    tag_260:\n        /* \"#utility.yul\":6292:6457   */\n      pop\n        /* \"#utility.yul\":6542:6546   */\n      0x60\n        /* \"#utility.yul\":6535:6540   */\n      dup4\n        /* \"#utility.yul\":6531:6547   */\n      add\n        /* \"#utility.yul\":6525:6548   */\n      mload\n        /* \"#utility.yul\":6561:6618   */\n      tag_261\n        /* \"#utility.yul\":6612:6616   */\n      0x60\n        /* \"#utility.yul\":6607:6610   */\n      dup7\n        /* \"#utility.yul\":6603:6617   */\n      add\n        /* \"#utility.yul\":6589:6601   */\n      dup3\n        /* \"#utility.yul\":6561:6618   */\n      tag_152\n      jump\t// in\n    tag_261:\n        /* \"#utility.yul\":6467:6628   */\n      pop\n        /* \"#utility.yul\":6645:6649   */\n      dup1\n        /* \"#utility.yul\":6638:6649   */\n      swap2\n      pop\n        /* \"#utility.yul\":5755:6655   */\n      pop\n        /* \"#utility.yul\":5653:6655   */\n      swap3\n      swap2\n      pop\n      pop\n      jump\t// out\n        /* \"#utility.yul\":6661:6893   */\n    tag_154:\n        /* \"#utility.yul\":6768:6778   */\n      0x00\n        /* \"#utility.yul\":6803:6887   */\n      tag_263\n        /* \"#utility.yul\":6883:6886   */\n      dup4\n        /* \"#utility.yul\":6875:6881   */\n      dup4\n        /* \"#utility.yul\":6803:6887   */\n      tag_153\n      jump\t// in\n    tag_263:\n        /* \"#utility.yul\":6789:6887   */\n      swap1\n      pop\n        /* \"#utility.yul\":6661:6893   */\n      swap3\n      swap2\n      pop\n      pop\n      jump\t// out\n        /* \"#utility.yul\":6899:7031   */\n    tag_155:\n        /* \"#utility.yul\":6988:6992   */\n      0x00\n        /* \"#utility.yul\":7020:7024   */\n      0x20\n        /* \"#utility.yul\":7015:7018   */\n      dup3\n        /* \"#utility.yul\":7011:7025   */\n      add\n        /* \"#utility.yul\":7003:7025   */\n      swap1\n      pop\n        /* \"#utility.yul\":6899:7031   */\n      swap2\n      swap1\n      pop\n      jump\t// out\n        /* \"#utility.yul\":7095:8158   */\n    tag_156:\n        /* \"#utility.yul\":7252:7255   */\n      0x00\n        /* \"#utility.yul\":7281:7354   */\n      tag_266\n        /* \"#utility.yul\":7348:7353   */\n      dup3\n        /* \"#utility.yul\":7281:7354   */\n      tag_143\n      jump\t// in\n    tag_266:\n        /* \"#utility.yul\":7370:7475   */\n      tag_267\n        /* \"#utility.yul\":7468:7474   */\n      dup2\n        /* \"#utility.yul\":7463:7466   */\n      dup6\n        /* \"#utility.yul\":7370:7475   */\n      tag_144\n      jump\t// in\n    tag_267:\n        /* \"#utility.yul\":7363:7475   */\n      swap4\n      pop\n        /* \"#utility.yul\":7501:7504   */\n      dup4\n        /* \"#utility.yul\":7546:7550   */\n      0x20\n        /* \"#utility.yul\":7538:7544   */\n      dup3\n        /* \"#utility.yul\":7534:7551   */\n      mul\n        /* \"#utility.yul\":7529:7532   */\n      dup6\n        /* \"#utility.yul\":7525:7552   */\n      add\n        /* \"#utility.yul\":7576:7651   */\n      tag_268\n        /* \"#utility.yul\":7645:7650   */\n      dup6\n        /* \"#utility.yul\":7576:7651   */\n      tag_145\n      jump\t// in\n    tag_268:\n        /* \"#utility.yul\":7674:7681   */\n      dup1\n        /* \"#utility.yul\":7705:7706   */\n      0x00\n        /* \"#utility.yul\":7690:8113   */\n    tag_269:\n        /* \"#utility.yul\":7715:7721   */\n      dup6\n        /* \"#utility.yul\":7712:7713   */\n      dup2\n        /* \"#utility.yul\":7709:7722   */\n      lt\n        /* \"#utility.yul\":7690:8113   */\n      iszero\n      tag_271\n      jumpi\n        /* \"#utility.yul\":7786:7795   */\n      dup5\n        /* \"#utility.yul\":7780:7784   */\n      dup5\n        /* \"#utility.yul\":7776:7796   */\n      sub\n        /* \"#utility.yul\":7771:7774   */\n      dup10\n        /* \"#utility.yul\":7764:7797   */\n      mstore\n        /* \"#utility.yul\":7837:7843   */\n      dup2\n        /* \"#utility.yul\":7831:7844   */\n      mload\n        /* \"#utility.yul\":7865:7967   */\n      tag_272\n        /* \"#utility.yul\":7962:7966   */\n      dup6\n        /* \"#utility.yul\":7947:7960   */\n      dup3\n        /* \"#utility.yul\":7865:7967   */\n      tag_154\n      jump\t// in\n    tag_272:\n        /* \"#utility.yul\":7857:7967   */\n      swap5\n      pop\n        /* \"#utility.yul\":7990:8069   */\n      tag_273\n        /* \"#utility.yul\":8062:8068   */\n      dup4\n        /* \"#utility.yul\":7990:8069   */\n      tag_155\n      jump\t// in\n    tag_273:\n        /* \"#utility.yul\":7980:8069   */\n      swap3\n      pop\n        /* \"#utility.yul\":8098:8102   */\n      0x20\n        /* \"#utility.yul\":8093:8096   */\n      dup11\n        /* \"#utility.yul\":8089:8103   */\n      add\n        /* \"#utility.yul\":8082:8103   */\n      swap10\n      pop\n        /* \"#utility.yul\":7750:8113   */\n      pop\n        /* \"#utility.yul\":7737:7738   */\n      0x01\n        /* \"#utility.yul\":7734:7735   */\n      dup2\n        /* \"#utility.yul\":7730:7739   */\n      add\n        /* \"#utility.yul\":7725:7739   */\n      swap1\n      pop\n        /* \"#utility.yul\":7690:8113   */\n      jump(tag_269)\n    tag_271:\n        /* \"#utility.yul\":7694:7708   */\n      pop\n        /* \"#utility.yul\":8129:8133   */\n      dup3\n        /* \"#utility.yul\":8122:8133   */\n      swap8\n      pop\n        /* \"#utility.yul\":8149:8152   */\n      dup8\n        /* \"#utility.yul\":8142:8152   */\n      swap6\n      pop\n        /* \"#utility.yul\":7257:8158   */\n      pop\n      pop\n      pop\n      pop\n      pop\n        /* \"#utility.yul\":7095:8158   */\n      swap3\n      swap2\n      pop\n      pop\n      jump\t// out\n        /* \"#utility.yul\":8164:8613   */\n    tag_19:\n        /* \"#utility.yul\":8345:8349   */\n      0x00\n        /* \"#utility.yul\":8383:8385   */\n      0x20\n        /* \"#utility.yul\":8372:8381   */\n      dup3\n        /* \"#utility.yul\":8368:8386   */\n      add\n        /* \"#utility.yul\":8360:8386   */\n      swap1\n      pop\n        /* \"#utility.yul\":8432:8441   */\n      dup2\n        /* \"#utility.yul\":8426:8430   */\n      dup2\n        /* \"#utility.yul\":8422:8442   */\n      sub\n        /* \"#utility.yul\":8418:8419   */\n      0x00\n        /* \"#utility.yul\":8407:8416   */\n      dup4\n        /* \"#utility.yul\":8403:8420   */\n      add\n        /* \"#utility.yul\":8396:8443   */\n      mstore\n        /* \"#utility.yul\":8460:8606   */\n      tag_275\n        /* \"#utility.yul\":8601:8605   */\n      dup2\n        /* \"#utility.yul\":8592:8598   */\n      dup5\n        /* \"#utility.yul\":8460:8606   */\n      tag_156\n      jump\t// in\n    tag_275:\n        /* \"#utility.yul\":8452:8606   */\n      swap1\n      pop\n        /* \"#utility.yul\":8164:8613   */\n      swap3\n      swap2\n      pop\n      pop\n      jump\t// out\n        /* \"#utility.yul\":8619:8948   */\n    tag_22:\n        /* \"#utility.yul\":8678:8684   */\n      0x00\n        /* \"#utility.yul\":8727:8729   */\n      0x20\n        /* \"#utility.yul\":8715:8724   */\n      dup3\n        /* \"#utility.yul\":8706:8713   */\n      dup5\n        /* \"#utility.yul\":8702:8725   */\n      sub\n        /* \"#utility.yul\":8698:8730   */\n      slt\n        /* \"#utility.yul\":8695:8814   */\n      iszero\n      tag_277\n      jumpi\n        /* \"#utility.yul\":8733:8812   */\n      tag_278\n      tag_129\n      jump\t// in\n    tag_278:\n        /* \"#utility.yul\":8695:8814   */\n    tag_277:\n        /* \"#utility.yul\":8853:8854   */\n      0x00\n        /* \"#utility.yul\":8878:8931   */\n      tag_279\n        /* \"#utility.yul\":8923:8930   */\n      dup5\n        /* \"#utility.yul\":8914:8920   */\n      dup3\n        /* \"#utility.yul\":8903:8912   */\n      dup6\n        /* \"#utility.yul\":8899:8921   */\n      add\n        /* \"#utility.yul\":8878:8931   */\n      tag_142\n      jump\t// in\n    tag_279:\n        /* \"#utility.yul\":8868:8931   */\n      swap2\n      pop\n        /* \"#utility.yul\":8824:8941   */\n      pop\n        /* \"#utility.yul\":8619:8948   */\n      swap3\n      swap2\n      pop\n      pop\n      jump\t// out\n        /* \"#utility.yul\":8954:9072   */\n    tag_157:\n        /* \"#utility.yul\":9041:9065   */\n      tag_281\n        /* \"#utility.yul\":9059:9064   */\n      dup2\n        /* \"#utility.yul\":9041:9065   */\n      tag_140\n      jump\t// in\n    tag_281:\n        /* \"#utility.yul\":9036:9039   */\n      dup3\n        /* \"#utility.yul\":9029:9066   */\n      mstore\n        /* \"#utility.yul\":8954:9072   */\n      pop\n      pop\n      jump\t// out\n        /* \"#utility.yul\":9078:9300   */\n    tag_29:\n        /* \"#utility.yul\":9171:9175   */\n      0x00\n        /* \"#utility.yul\":9209:9211   */\n      0x20\n        /* \"#utility.yul\":9198:9207   */\n      dup3\n        /* \"#utility.yul\":9194:9212   */\n      add\n        /* \"#utility.yul\":9186:9212   */\n      swap1\n      pop\n        /* \"#utility.yul\":9222:9293   */\n      tag_283\n        /* \"#utility.yul\":9290:9291   */\n      0x00\n        /* \"#utility.yul\":9279:9288   */\n      dup4\n        /* \"#utility.yul\":9275:9292   */\n      add\n        /* \"#utility.yul\":9266:9272   */\n      dup5\n        /* \"#utility.yul\":9222:9293   */\n      tag_157\n      jump\t// in\n    tag_283:\n        /* \"#utility.yul\":9078:9300   */\n      swap3\n      swap2\n      pop\n      pop\n      jump\t// out\n        /* \"#utility.yul\":9306:9780   */\n    tag_33:\n        /* \"#utility.yul\":9374:9380   */\n      0x00\n        /* \"#utility.yul\":9382:9388   */\n      dup1\n        /* \"#utility.yul\":9431:9433   */\n      0x40\n        /* \"#utility.yul\":9419:9428   */\n      dup4\n        /* \"#utility.yul\":9410:9417   */\n      dup6\n        /* \"#utility.yul\":9406:9429   */\n      sub\n        /* \"#utility.yul\":9402:9434   */\n      slt\n        /* \"#utility.yul\":9399:9518   */\n      iszero\n      tag_285\n      jumpi\n        /* \"#utility.yul\":9437:9516   */\n      tag_286\n      tag_129\n      jump\t// in\n    tag_286:\n        /* \"#utility.yul\":9399:9518   */\n    tag_285:\n        /* \"#utility.yul\":9557:9558   */\n      0x00\n        /* \"#utility.yul\":9582:9635   */\n      tag_287\n        /* \"#utility.yul\":9627:9634   */\n      dup6\n        /* \"#utility.yul\":9618:9624   */\n      dup3\n        /* \"#utility.yul\":9607:9616   */\n      dup7\n        /* \"#utility.yul\":9603:9625   */\n      add\n        /* \"#utility.yul\":9582:9635   */\n      tag_142\n      jump\t// in\n    tag_287:\n        /* \"#utility.yul\":9572:9635   */\n      swap3\n      pop\n        /* \"#utility.yul\":9528:9645   */\n      pop\n        /* \"#utility.yul\":9684:9686   */\n      0x20\n        /* \"#utility.yul\":9710:9763   */\n      tag_288\n        /* \"#utility.yul\":9755:9762   */\n      dup6\n        /* \"#utility.yul\":9746:9752   */\n      dup3\n        /* \"#utility.yul\":9735:9744   */\n      dup7\n        /* \"#utility.yul\":9731:9753   */\n      add\n        /* \"#utility.yul\":9710:9763   */\n      tag_142\n      jump\t// in\n    tag_288:\n        /* \"#utility.yul\":9700:9763   */\n      swap2\n      pop\n        /* \"#utility.yul\":9655:9773   */\n      pop\n        /* \"#utility.yul\":9306:9780   */\n      swap3\n      pop\n      swap3\n      swap1\n      pop\n      jump\t// out\n        /* \"#utility.yul\":9786:9912   */\n    tag_158:\n        /* \"#utility.yul\":9823:9830   */\n      0x00\n        /* \"#utility.yul\":9863:9905   */\n      0xffffffffffffffffffffffffffffffffffffffff\n        /* \"#utility.yul\":9856:9861   */\n      dup3\n        /* \"#utility.yul\":9852:9906   */\n      and\n        /* \"#utility.yul\":9841:9906   */\n      swap1\n      pop\n        /* \"#utility.yul\":9786:9912   */\n      swap2\n      swap1\n      pop\n      jump\t// out\n        /* \"#utility.yul\":9918:10014   */\n    tag_159:\n        /* \"#utility.yul\":9955:9962   */\n      0x00\n        /* \"#utility.yul\":9984:10008   */\n      tag_291\n        /* \"#utility.yul\":10002:10007   */\n      dup3\n        /* \"#utility.yul\":9984:10008   */\n      tag_158\n      jump\t// in\n    tag_291:\n        /* \"#utility.yul\":9973:10008   */\n      swap1\n      pop\n        /* \"#utility.yul\":9918:10014   */\n      swap2\n      swap1\n      pop\n      jump\t// out\n        /* \"#utility.yul\":10020:10142   */\n    tag_160:\n        /* \"#utility.yul\":10093:10117   */\n      tag_293\n        /* \"#utility.yul\":10111:10116   */\n      dup2\n        /* \"#utility.yul\":10093:10117   */\n      tag_159\n      jump\t// in\n    tag_293:\n        /* \"#utility.yul\":10086:10091   */\n      dup2\n        /* \"#utility.yul\":10083:10118   */\n      eq\n        /* \"#utility.yul\":10073:10136   */\n      tag_294\n      jumpi\n        /* \"#utility.yul\":10132:10133   */\n      0x00\n        /* \"#utility.yul\":10129:10130   */\n      dup1\n        /* \"#utility.yul\":10122:10134   */\n      revert\n        /* \"#utility.yul\":10073:10136   */\n    tag_294:\n        /* \"#utility.yul\":10020:10142   */\n      pop\n      jump\t// out\n        /* \"#utility.yul\":10148:10287   */\n    tag_161:\n        /* \"#utility.yul\":10194:10199   */\n      0x00\n        /* \"#utility.yul\":10232:10238   */\n      dup2\n        /* \"#utility.yul\":10219:10239   */\n      calldataload\n        /* \"#utility.yul\":10210:10239   */\n      swap1\n      pop\n        /* \"#utility.yul\":10248:10281   */\n      tag_296\n        /* \"#utility.yul\":10275:10280   */\n      dup2\n        /* \"#utility.yul\":10248:10281   */\n      tag_160\n      jump\t// in\n    tag_296:\n        /* \"#utility.yul\":10148:10287   */\n      swap3\n      swap2\n      pop\n      pop\n      jump\t// out\n        /* \"#utility.yul\":10293:10767   */\n    tag_38:\n        /* \"#utility.yul\":10361:10367   */\n      0x00\n        /* \"#utility.yul\":10369:10375   */\n      dup1\n        /* \"#utility.yul\":10418:10420   */\n      0x40\n        /* \"#utility.yul\":10406:10415   */\n      dup4\n        /* \"#utility.yul\":10397:10404   */\n      dup6\n        /* \"#utility.yul\":10393:10416   */\n      sub\n        /* \"#utility.yul\":10389:10421   */\n      slt\n        /* \"#utility.yul\":10386:10505   */\n      iszero\n      tag_298\n      jumpi\n        /* \"#utility.yul\":10424:10503   */\n      tag_299\n      tag_129\n      jump\t// in\n    tag_299:\n        /* \"#utility.yul\":10386:10505   */\n    tag_298:\n        /* \"#utility.yul\":10544:10545   */\n      0x00\n        /* \"#utility.yul\":10569:10622   */\n      tag_300\n        /* \"#utility.yul\":10614:10621   */\n      dup6\n        /* \"#utility.yul\":10605:10611   */\n      dup3\n        /* \"#utility.yul\":10594:10603   */\n      dup7\n        /* \"#utility.yul\":10590:10612   */\n      add\n        /* \"#utility.yul\":10569:10622   */\n      tag_161\n      jump\t// in\n    tag_300:\n        /* \"#utility.yul\":10559:10622   */\n      swap3\n      pop\n        /* \"#utility.yul\":10515:10632   */\n      pop\n        /* \"#utility.yul\":10671:10673   */\n      0x20\n        /* \"#utility.yul\":10697:10750   */\n      tag_301\n        /* \"#utility.yul\":10742:10749   */\n      dup6\n        /* \"#utility.yul\":10733:10739   */\n      dup3\n        /* \"#utility.yul\":10722:10731   */\n      dup7\n        /* \"#utility.yul\":10718:10740   */\n      add\n        /* \"#utility.yul\":10697:10750   */\n      tag_142\n      jump\t// in\n    tag_301:\n        /* \"#utility.yul\":10687:10750   */\n      swap2\n      pop\n        /* \"#utility.yul\":10642:10760   */\n      pop\n        /* \"#utility.yul\":10293:10767   */\n      swap3\n      pop\n      swap3\n      swap1\n      pop\n      jump\t// out\n        /* \"#utility.yul\":10827:11839   */\n    tag_162:\n        /* \"#utility.yul\":10934:10937   */\n      0x00\n        /* \"#utility.yul\":10970:10974   */\n      0x80\n        /* \"#utility.yul\":10965:10968   */\n      dup4\n        /* \"#utility.yul\":10961:10975   */\n      add\n        /* \"#utility.yul\":11058:11062   */\n      0x00\n        /* \"#utility.yul\":11051:11056   */\n      dup4\n        /* \"#utility.yul\":11047:11063   */\n      add\n        /* \"#utility.yul\":11041:11064   */\n      mload\n        /* \"#utility.yul\":11111:11114   */\n      dup5\n        /* \"#utility.yul\":11105:11109   */\n      dup3\n        /* \"#utility.yul\":11101:11115   */\n      sub\n        /* \"#utility.yul\":11094:11098   */\n      0x00\n        /* \"#utility.yul\":11089:11092   */\n      dup7\n        /* \"#utility.yul\":11085:11099   */\n      add\n        /* \"#utility.yul\":11078:11116   */\n      mstore\n        /* \"#utility.yul\":11137:11210   */\n      tag_303\n        /* \"#utility.yul\":11205:11209   */\n      dup3\n        /* \"#utility.yul\":11191:11203   */\n      dup3\n        /* \"#utility.yul\":11137:11210   */\n      tag_149\n      jump\t// in\n    tag_303:\n        /* \"#utility.yul\":11129:11210   */\n      swap2\n      pop\n        /* \"#utility.yul\":10985:11221   */\n      pop\n        /* \"#utility.yul\":11303:11307   */\n      0x20\n        /* \"#utility.yul\":11296:11301   */\n      dup4\n        /* \"#utility.yul\":11292:11308   */\n      add\n        /* \"#utility.yul\":11286:11309   */\n      mload\n        /* \"#utility.yul\":11356:11359   */\n      dup5\n        /* \"#utility.yul\":11350:11354   */\n      dup3\n        /* \"#utility.yul\":11346:11360   */\n      sub\n        /* \"#utility.yul\":11339:11343   */\n      0x20\n        /* \"#utility.yul\":11334:11337   */\n      dup7\n        /* \"#utility.yul\":11330:11344   */\n      add\n        /* \"#utility.yul\":11323:11361   */\n      mstore\n        /* \"#utility.yul\":11382:11455   */\n      tag_304\n        /* \"#utility.yul\":11450:11454   */\n      dup3\n        /* \"#utility.yul\":11436:11448   */\n      dup3\n        /* \"#utility.yul\":11382:11455   */\n      tag_149\n      jump\t// in\n    tag_304:\n        /* \"#utility.yul\":11374:11455   */\n      swap2\n      pop\n        /* \"#utility.yul\":11231:11466   */\n      pop\n        /* \"#utility.yul\":11549:11553   */\n      0x40\n        /* \"#utility.yul\":11542:11547   */\n      dup4\n        /* \"#utility.yul\":11538:11554   */\n      add\n        /* \"#utility.yul\":11532:11555   */\n      mload\n        /* \"#utility.yul\":11568:11631   */\n      tag_305\n        /* \"#utility.yul\":11625:11629   */\n      0x40\n        /* \"#utility.yul\":11620:11623   */\n      dup7\n        /* \"#utility.yul\":11616:11630   */\n      add\n        /* \"#utility.yul\":11602:11614   */\n      dup3\n        /* \"#utility.yul\":11568:11631   */\n      tag_150\n      jump\t// in\n    tag_305:\n        /* \"#utility.yul\":11476:11641   */\n      pop\n        /* \"#utility.yul\":11726:11730   */\n      0x60\n        /* \"#utility.yul\":11719:11724   */\n      dup4\n        /* \"#utility.yul\":11715:11731   */\n      add\n        /* \"#utility.yul\":11709:11732   */\n      mload\n        /* \"#utility.yul\":11745:11802   */\n      tag_306\n        /* \"#utility.yul\":11796:11800   */\n      0x60\n        /* \"#utility.yul\":11791:11794   */\n      dup7\n        /* \"#utility.yul\":11787:11801   */\n      add\n        /* \"#utility.yul\":11773:11785   */\n      dup3\n        /* \"#utility.yul\":11745:11802   */\n      tag_152\n      jump\t// in\n    tag_306:\n        /* \"#utility.yul\":11651:11812   */\n      pop\n        /* \"#utility.yul\":11829:11833   */\n      dup1\n        /* \"#utility.yul\":11822:11833   */\n      swap2\n      pop\n        /* \"#utility.yul\":10939:11839   */\n      pop\n        /* \"#utility.yul\":10827:11839   */\n      swap3\n      swap2\n      pop\n      pop\n      jump\t// out\n        /* \"#utility.yul\":11845:12194   */\n    tag_41:\n        /* \"#utility.yul\":11976:11980   */\n      0x00\n        /* \"#utility.yul\":12014:12016   */\n      0x20\n        /* \"#utility.yul\":12003:12012   */\n      dup3\n        /* \"#utility.yul\":11999:12017   */\n      add\n        /* \"#utility.yul\":11991:12017   */\n      swap1\n      pop\n        /* \"#utility.yul\":12063:12072   */\n      dup2\n        /* \"#utility.yul\":12057:12061   */\n      dup2\n        /* \"#utility.yul\":12053:12073   */\n      sub\n        /* \"#utility.yul\":12049:12050   */\n      0x00\n        /* \"#utility.yul\":12038:12047   */\n      dup4\n        /* \"#utility.yul\":12034:12051   */\n      add\n        /* \"#utility.yul\":12027:12074   */\n      mstore\n        /* \"#utility.yul\":12091:12187   */\n      tag_308\n        /* \"#utility.yul\":12182:12186   */\n      dup2\n        /* \"#utility.yul\":12173:12179   */\n      dup5\n        /* \"#utility.yul\":12091:12187   */\n      tag_162\n      jump\t// in\n    tag_308:\n        /* \"#utility.yul\":12083:12187   */\n      swap1\n      pop\n        /* \"#utility.yul\":11845:12194   */\n      swap3\n      swap2\n      pop\n      pop\n      jump\t// out\n        /* \"#utility.yul\":12200:12369   */\n    tag_163:\n        /* \"#utility.yul\":12284:12295   */\n      0x00\n        /* \"#utility.yul\":12318:12324   */\n      dup3\n        /* \"#utility.yul\":12313:12316   */\n      dup3\n        /* \"#utility.yul\":12306:12325   */\n      mstore\n        /* \"#utility.yul\":12358:12362   */\n      0x20\n        /* \"#utility.yul\":12353:12356   */\n      dup3\n        /* \"#utility.yul\":12349:12363   */\n      add\n        /* \"#utility.yul\":12334:12363   */\n      swap1\n      pop\n        /* \"#utility.yul\":12200:12369   */\n      swap3\n      swap2\n      pop\n      pop\n      jump\t// out\n        /* \"#utility.yul\":12375:12752   */\n    tag_164:\n        /* \"#utility.yul\":12463:12466   */\n      0x00\n        /* \"#utility.yul\":12491:12530   */\n      tag_311\n        /* \"#utility.yul\":12524:12529   */\n      dup3\n        /* \"#utility.yul\":12491:12530   */\n      tag_146\n      jump\t// in\n    tag_311:\n        /* \"#utility.yul\":12546:12617   */\n      tag_312\n        /* \"#utility.yul\":12610:12616   */\n      dup2\n        /* \"#utility.yul\":12605:12608   */\n      dup6\n        /* \"#utility.yul\":12546:12617   */\n      tag_163\n      jump\t// in\n    tag_312:\n        /* \"#utility.yul\":12539:12617   */\n      swap4\n      pop\n        /* \"#utility.yul\":12626:12691   */\n      tag_313\n        /* \"#utility.yul\":12684:12690   */\n      dup2\n        /* \"#utility.yul\":12679:12682   */\n      dup6\n        /* \"#utility.yul\":12672:12676   */\n      0x20\n        /* \"#utility.yul\":12665:12670   */\n      dup7\n        /* \"#utility.yul\":12661:12677   */\n      add\n        /* \"#utility.yul\":12626:12691   */\n      tag_148\n      jump\t// in\n    tag_313:\n        /* \"#utility.yul\":12716:12745   */\n      tag_314\n        /* \"#utility.yul\":12738:12744   */\n      dup2\n        /* \"#utility.yul\":12716:12745   */\n      tag_133\n      jump\t// in\n    tag_314:\n        /* \"#utility.yul\":12711:12714   */\n      dup5\n        /* \"#utility.yul\":12707:12746   */\n      add\n        /* \"#utility.yul\":12700:12746   */\n      swap2\n      pop\n        /* \"#utility.yul\":12467:12752   */\n      pop\n        /* \"#utility.yul\":12375:12752   */\n      swap3\n      swap2\n      pop\n      pop\n      jump\t// out\n        /* \"#utility.yul\":12758:12867   */\n    tag_165:\n        /* \"#utility.yul\":12839:12860   */\n      tag_316\n        /* \"#utility.yul\":12854:12859   */\n      dup2\n        /* \"#utility.yul\":12839:12860   */\n      tag_151\n      jump\t// in\n    tag_316:\n        /* \"#utility.yul\":12834:12837   */\n      dup3\n        /* \"#utility.yul\":12827:12861   */\n      mstore\n        /* \"#utility.yul\":12758:12867   */\n      pop\n      pop\n      jump\t// out\n        /* \"#utility.yul\":12873:13596   */\n    tag_47:\n        /* \"#utility.yul\":13084:13088   */\n      0x00\n        /* \"#utility.yul\":13122:13125   */\n      0x80\n        /* \"#utility.yul\":13111:13120   */\n      dup3\n        /* \"#utility.yul\":13107:13126   */\n      add\n        /* \"#utility.yul\":13099:13126   */\n      swap1\n      pop\n        /* \"#utility.yul\":13172:13181   */\n      dup2\n        /* \"#utility.yul\":13166:13170   */\n      dup2\n        /* \"#utility.yul\":13162:13182   */\n      sub\n        /* \"#utility.yul\":13158:13159   */\n      0x00\n        /* \"#utility.yul\":13147:13156   */\n      dup4\n        /* \"#utility.yul\":13143:13160   */\n      add\n        /* \"#utility.yul\":13136:13183   */\n      mstore\n        /* \"#utility.yul\":13200:13278   */\n      tag_318\n        /* \"#utility.yul\":13273:13277   */\n      dup2\n        /* \"#utility.yul\":13264:13270   */\n      dup8\n        /* \"#utility.yul\":13200:13278   */\n      tag_164\n      jump\t// in\n    tag_318:\n        /* \"#utility.yul\":13192:13278   */\n      swap1\n      pop\n        /* \"#utility.yul\":13325:13334   */\n      dup2\n        /* \"#utility.yul\":13319:13323   */\n      dup2\n        /* \"#utility.yul\":13315:13335   */\n      sub\n        /* \"#utility.yul\":13310:13312   */\n      0x20\n        /* \"#utility.yul\":13299:13308   */\n      dup4\n        /* \"#utility.yul\":13295:13313   */\n      add\n        /* \"#utility.yul\":13288:13336   */\n      mstore\n        /* \"#utility.yul\":13353:13431   */\n      tag_319\n        /* \"#utility.yul\":13426:13430   */\n      dup2\n        /* \"#utility.yul\":13417:13423   */\n      dup7\n        /* \"#utility.yul\":13353:13431   */\n      tag_164\n      jump\t// in\n    tag_319:\n        /* \"#utility.yul\":13345:13431   */\n      swap1\n      pop\n        /* \"#utility.yul\":13441:13513   */\n      tag_320\n        /* \"#utility.yul\":13509:13511   */\n      0x40\n        /* \"#utility.yul\":13498:13507   */\n      dup4\n        /* \"#utility.yul\":13494:13512   */\n      add\n        /* \"#utility.yul\":13485:13491   */\n      dup6\n        /* \"#utility.yul\":13441:13513   */\n      tag_157\n      jump\t// in\n    tag_320:\n        /* \"#utility.yul\":13523:13589   */\n      tag_321\n        /* \"#utility.yul\":13585:13587   */\n      0x60\n        /* \"#utility.yul\":13574:13583   */\n      dup4\n        /* \"#utility.yul\":13570:13588   */\n      add\n        /* \"#utility.yul\":13561:13567   */\n      dup5\n        /* \"#utility.yul\":13523:13589   */\n      tag_165\n      jump\t// in\n    tag_321:\n        /* \"#utility.yul\":12873:13596   */\n      swap6\n      swap5\n      pop\n      pop\n      pop\n      pop\n      pop\n      jump\t// out\n        /* \"#utility.yul\":13602:13773   */\n    tag_166:\n        /* \"#utility.yul\":13742:13765   */\n      0x796f7520617265206e6f7420746865206f776e65720000000000000000000000\n        /* \"#utility.yul\":13738:13739   */\n      0x00\n        /* \"#utility.yul\":13730:13736   */\n      dup3\n        /* \"#utility.yul\":13726:13740   */\n      add\n        /* \"#utility.yul\":13719:13766   */\n      mstore\n        /* \"#utility.yul\":13602:13773   */\n      pop\n      jump\t// out\n        /* \"#utility.yul\":13779:14145   */\n    tag_167:\n        /* \"#utility.yul\":13921:13924   */\n      0x00\n        /* \"#utility.yul\":13942:14009   */\n      tag_324\n        /* \"#utility.yul\":14006:14008   */\n      0x15\n        /* \"#utility.yul\":14001:14004   */\n      dup4\n        /* \"#utility.yul\":13942:14009   */\n      tag_163\n      jump\t// in\n    tag_324:\n        /* \"#utility.yul\":13935:14009   */\n      swap2\n      pop\n        /* \"#utility.yul\":14018:14111   */\n      tag_325\n        /* \"#utility.yul\":14107:14110   */\n      dup3\n        /* \"#utility.yul\":14018:14111   */\n      tag_166\n      jump\t// in\n    tag_325:\n        /* \"#utility.yul\":14136:14138   */\n      0x20\n        /* \"#utility.yul\":14131:14134   */\n      dup3\n        /* \"#utility.yul\":14127:14139   */\n      add\n        /* \"#utility.yul\":14120:14139   */\n      swap1\n      pop\n        /* \"#utility.yul\":13779:14145   */\n      swap2\n      swap1\n      pop\n      jump\t// out\n        /* \"#utility.yul\":14151:14570   */\n    tag_51:\n        /* \"#utility.yul\":14317:14321   */\n      0x00\n        /* \"#utility.yul\":14355:14357   */\n      0x20\n        /* \"#utility.yul\":14344:14353   */\n      dup3\n        /* \"#utility.yul\":14340:14358   */\n      add\n        /* \"#utility.yul\":14332:14358   */\n      swap1\n      pop\n        /* \"#utility.yul\":14404:14413   */\n      dup2\n        /* \"#utility.yul\":14398:14402   */\n      dup2\n        /* \"#utility.yul\":14394:14414   */\n      sub\n        /* \"#utility.yul\":14390:14391   */\n      0x00\n        /* \"#utility.yul\":14379:14388   */\n      dup4\n        /* \"#utility.yul\":14375:14392   */\n      add\n        /* \"#utility.yul\":14368:14415   */\n      mstore\n        /* \"#utility.yul\":14432:14563   */\n      tag_327\n        /* \"#utility.yul\":14558:14562   */\n      dup2\n        /* \"#utility.yul\":14432:14563   */\n      tag_167\n      jump\t// in\n    tag_327:\n        /* \"#utility.yul\":14424:14563   */\n      swap1\n      pop\n        /* \"#utility.yul\":14151:14570   */\n      swap2\n      swap1\n      pop\n      jump\t// out\n        /* \"#utility.yul\":14576:14756   */\n    tag_168:\n        /* \"#utility.yul\":14624:14701   */\n      0x4e487b7100000000000000000000000000000000000000000000000000000000\n        /* \"#utility.yul\":14621:14622   */\n      0x00\n        /* \"#utility.yul\":14614:14702   */\n      mstore\n        /* \"#utility.yul\":14721:14725   */\n      0x22\n        /* \"#utility.yul\":14718:14719   */\n      0x04\n        /* \"#utility.yul\":14711:14726   */\n      mstore\n        /* \"#utility.yul\":14745:14749   */\n      0x24\n        /* \"#utility.yul\":14742:14743   */\n      0x00\n        /* \"#utility.yul\":14735:14750   */\n      revert\n        /* \"#utility.yul\":14762:15082   */\n    tag_71:\n        /* \"#utility.yul\":14806:14812   */\n      0x00\n        /* \"#utility.yul\":14843:14844   */\n      0x02\n        /* \"#utility.yul\":14837:14841   */\n      dup3\n        /* \"#utility.yul\":14833:14845   */\n      div\n        /* \"#utility.yul\":14823:14845   */\n      swap1\n      pop\n        /* \"#utility.yul\":14890:14891   */\n      0x01\n        /* \"#utility.yul\":14884:14888   */\n      dup3\n        /* \"#utility.yul\":14880:14892   */\n      and\n        /* \"#utility.yul\":14911:14929   */\n      dup1\n        /* \"#utility.yul\":14901:14982   */\n      tag_330\n      jumpi\n        /* \"#utility.yul\":14967:14971   */\n      0x7f\n        /* \"#utility.yul\":14959:14965   */\n      dup3\n        /* \"#utility.yul\":14955:14972   */\n      and\n        /* \"#utility.yul\":14945:14972   */\n      swap2\n      pop\n        /* \"#utility.yul\":14901:14982   */\n    tag_330:\n        /* \"#utility.yul\":15029:15031   */\n      0x20\n        /* \"#utility.yul\":15021:15027   */\n      dup3\n        /* \"#utility.yul\":15018:15032   */\n      lt\n        /* \"#utility.yul\":14998:15016   */\n      dup2\n        /* \"#utility.yul\":14995:15033   */\n      sub\n        /* \"#utility.yul\":14992:15076   */\n      tag_331\n      jumpi\n        /* \"#utility.yul\":15048:15066   */\n      tag_332\n      tag_168\n      jump\t// in\n    tag_332:\n        /* \"#utility.yul\":14992:15076   */\n    tag_331:\n        /* \"#utility.yul\":14813:15082   */\n      pop\n        /* \"#utility.yul\":14762:15082   */\n      swap2\n      swap1\n      pop\n      jump\t// out\n        /* \"#utility.yul\":15088:15229   */\n    tag_169:\n        /* \"#utility.yul\":15137:15141   */\n      0x00\n        /* \"#utility.yul\":15160:15163   */\n      dup2\n        /* \"#utility.yul\":15152:15163   */\n      swap1\n      pop\n        /* \"#utility.yul\":15183:15186   */\n      dup2\n        /* \"#utility.yul\":15180:15181   */\n      0x00\n        /* \"#utility.yul\":15173:15187   */\n      mstore\n        /* \"#utility.yul\":15217:15221   */\n      0x20\n        /* \"#utility.yul\":15214:15215   */\n      0x00\n        /* \"#utility.yul\":15204:15222   */\n      keccak256\n        /* \"#utility.yul\":15196:15222   */\n      swap1\n      pop\n        /* \"#utility.yul\":15088:15229   */\n      swap2\n      swap1\n      pop\n      jump\t// out\n        /* \"#utility.yul\":15235:15328   */\n    tag_170:\n        /* \"#utility.yul\":15272:15278   */\n      0x00\n        /* \"#utility.yul\":15319:15321   */\n      0x20\n        /* \"#utility.yul\":15314:15316   */\n      0x1f\n        /* \"#utility.yul\":15307:15312   */\n      dup4\n        /* \"#utility.yul\":15303:15317   */\n      add\n        /* \"#utility.yul\":15299:15322   */\n      div\n        /* \"#utility.yul\":15289:15322   */\n      swap1\n      pop\n        /* \"#utility.yul\":15235:15328   */\n      swap2\n      swap1\n      pop\n      jump\t// out\n        /* \"#utility.yul\":15334:15441   */\n    tag_171:\n        /* \"#utility.yul\":15378:15386   */\n      0x00\n        /* \"#utility.yul\":15428:15433   */\n      dup3\n        /* \"#utility.yul\":15422:15426   */\n      dup3\n        /* \"#utility.yul\":15418:15434   */\n      shl\n        /* \"#utility.yul\":15397:15434   */\n      swap1\n      pop\n        /* \"#utility.yul\":15334:15441   */\n      swap3\n      swap2\n      pop\n      pop\n      jump\t// out\n        /* \"#utility.yul\":15447:15840   */\n    tag_172:\n        /* \"#utility.yul\":15516:15522   */\n      0x00\n        /* \"#utility.yul\":15566:15567   */\n      0x08\n        /* \"#utility.yul\":15554:15564   */\n      dup4\n        /* \"#utility.yul\":15550:15568   */\n      mul\n        /* \"#utility.yul\":15589:15686   */\n      tag_337\n        /* \"#utility.yul\":15619:15685   */\n      0xffffffffffffffffffffffffffffffffffffffffffffffffffffffffffffffff\n        /* \"#utility.yul\":15608:15617   */\n      dup3\n        /* \"#utility.yul\":15589:15686   */\n      tag_171\n      jump\t// in\n    tag_337:\n        /* \"#utility.yul\":15707:15746   */\n      tag_338\n        /* \"#utility.yul\":15737:15745   */\n      dup7\n        /* \"#utility.yul\":15726:15735   */\n      dup4\n        /* \"#utility.yul\":15707:15746   */\n      tag_171\n      jump\t// in\n    tag_338:\n        /* \"#utility.yul\":15695:15746   */\n      swap6\n      pop\n        /* \"#utility.yul\":15779:15783   */\n      dup1\n        /* \"#utility.yul\":15775:15784   */\n      not\n        /* \"#utility.yul\":15768:15773   */\n      dup5\n        /* \"#utility.yul\":15764:15785   */\n      and\n        /* \"#utility.yul\":15755:15785   */\n      swap4\n      pop\n        /* \"#utility.yul\":15828:15832   */\n      dup1\n        /* \"#utility.yul\":15818:15826   */\n      dup7\n        /* \"#utility.yul\":15814:15833   */\n      and\n        /* \"#utility.yul\":15807:15812   */\n      dup5\n        /* \"#utility.yul\":15804:15834   */\n      or\n        /* \"#utility.yul\":15794:15834   */\n      swap3\n      pop\n        /* \"#utility.yul\":15523:15840   */\n      pop\n      pop\n        /* \"#utility.yul\":15447:15840   */\n      swap4\n      swap3\n      pop\n      pop\n      pop\n      jump\t// out\n        /* \"#utility.yul\":15846:15906   */\n    tag_173:\n        /* \"#utility.yul\":15874:15877   */\n      0x00\n        /* \"#utility.yul\":15895:15900   */\n      dup2\n        /* \"#utility.yul\":15888:15900   */\n      swap1\n      pop\n        /* \"#utility.yul\":15846:15906   */\n      swap2\n      swap1\n      pop\n      jump\t// out\n        /* \"#utility.yul\":15912:16054   */\n    tag_174:\n        /* \"#utility.yul\":15962:15971   */\n      0x00\n        /* \"#utility.yul\":15995:16048   */\n      tag_341\n        /* \"#utility.yul\":16013:16047   */\n      tag_342\n        /* \"#utility.yul\":16022:16046   */\n      tag_343\n        /* \"#utility.yul\":16040:16045   */\n      dup5\n        /* \"#utility.yul\":16022:16046   */\n      tag_140\n      jump\t// in\n    tag_343:\n        /* \"#utility.yul\":16013:16047   */\n      tag_173\n      jump\t// in\n    tag_342:\n        /* \"#utility.yul\":15995:16048   */\n      tag_140\n      jump\t// in\n    tag_341:\n        /* \"#utility.yul\":15982:16048   */\n      swap1\n      pop\n        /* \"#utility.yul\":15912:16054   */\n      swap2\n      swap1\n      pop\n      jump\t// out\n        /* \"#utility.yul\":16060:16135   */\n    tag_175:\n        /* \"#utility.yul\":16103:16106   */\n      0x00\n        /* \"#utility.yul\":16124:16129   */\n      dup2\n        /* \"#utility.yul\":16117:16129   */\n      swap1\n      pop\n        /* \"#utility.yul\":16060:16135   */\n      swap2\n      swap1\n      pop\n      jump\t// out\n        /* \"#utility.yul\":16141:16410   */\n    tag_176:\n        /* \"#utility.yul\":16251:16290   */\n      tag_346\n        /* \"#utility.yul\":16282:16289   */\n      dup4\n        /* \"#utility.yul\":16251:16290   */\n      tag_174\n      jump\t// in\n    tag_346:\n        /* \"#utility.yul\":16312:16403   */\n      tag_347\n        /* \"#utility.yul\":16361:16402   */\n      tag_348\n        /* \"#utility.yul\":16385:16401   */\n      dup3\n        /* \"#utility.yul\":16361:16402   */\n      tag_175\n      jump\t// in\n    tag_348:\n        /* \"#utility.yul\":16353:16359   */\n      dup5\n        /* \"#utility.yul\":16346:16350   */\n      dup5\n        /* \"#utility.yul\":16340:16351   */\n      sload\n        /* \"#utility.yul\":16312:16403   */\n      tag_172\n      jump\t// in\n    tag_347:\n        /* \"#utility.yul\":16306:16310   */\n      dup3\n        /* \"#utility.yul\":16299:16404   */\n      sstore\n        /* \"#utility.yul\":16217:16410   */\n      pop\n        /* \"#utility.yul\":16141:16410   */\n      pop\n      pop\n      pop\n      jump\t// out\n        /* \"#utility.yul\":16416:16489   */\n    tag_177:\n        /* \"#utility.yul\":16461:16464   */\n      0x00\n        /* \"#utility.yul\":16416:16489   */\n      swap1\n      jump\t// out\n        /* \"#utility.yul\":16495:16684   */\n    tag_178:\n        /* \"#utility.yul\":16572:16604   */\n      tag_351\n      tag_177\n      jump\t// in\n    tag_351:\n        /* \"#utility.yul\":16613:16678   */\n      tag_352\n        /* \"#utility.yul\":16671:16677   */\n      dup2\n        /* \"#utility.yul\":16663:16669   */\n      dup5\n        /* \"#utility.yul\":16657:16661   */\n      dup5\n        /* \"#utility.yul\":16613:16678   */\n      tag_176\n      jump\t// in\n    tag_352:\n        /* \"#utility.yul\":16548:16684   */\n      pop\n        /* \"#utility.yul\":16495:16684   */\n      pop\n      pop\n      jump\t// out\n        /* \"#utility.yul\":16690:16876   */\n    tag_179:\n        /* \"#utility.yul\":16750:16870   */\n    tag_354:\n        /* \"#utility.yul\":16767:16770   */\n      dup2\n        /* \"#utility.yul\":16760:16765   */\n      dup2\n        /* \"#utility.yul\":16757:16771   */\n      lt\n        /* \"#utility.yul\":16750:16870   */\n      iszero\n      tag_356\n      jumpi\n        /* \"#utility.yul\":16821:16860   */\n      tag_357\n        /* \"#utility.yul\":16858:16859   */\n      0x00\n        /* \"#utility.yul\":16851:16856   */\n      dup3\n        /* \"#utility.yul\":16821:16860   */\n      tag_178\n      jump\t// in\n    tag_357:\n        /* \"#utility.yul\":16794:16795   */\n      0x01\n        /* \"#utility.yul\":16787:16792   */\n      dup2\n        /* \"#utility.yul\":16783:16796   */\n      add\n        /* \"#utility.yul\":16774:16796   */\n      swap1\n      pop\n        /* \"#utility.yul\":16750:16870   */\n      jump(tag_354)\n    tag_356:\n        /* \"#utility.yul\":16690:16876   */\n      pop\n      pop\n      jump\t// out\n        /* \"#utility.yul\":16882:17425   */\n    tag_180:\n        /* \"#utility.yul\":16983:16985   */\n      0x1f\n        /* \"#utility.yul\":16978:16981   */\n      dup3\n        /* \"#utility.yul\":16975:16986   */\n      gt\n        /* \"#utility.yul\":16972:17418   */\n      iszero\n      tag_359\n      jumpi\n        /* \"#utility.yul\":17017:17055   */\n      tag_360\n        /* \"#utility.yul\":17049:17054   */\n      dup2\n        /* \"#utility.yul\":17017:17055   */\n      tag_169\n      jump\t// in\n    tag_360:\n        /* \"#utility.yul\":17101:17130   */\n      tag_361\n        /* \"#utility.yul\":17119:17129   */\n      dup5\n        /* \"#utility.yul\":17101:17130   */\n      tag_170\n      jump\t// in\n    tag_361:\n        /* \"#utility.yul\":17091:17099   */\n      dup2\n        /* \"#utility.yul\":17087:17131   */\n      add\n        /* \"#utility.yul\":17284:17286   */\n      0x20\n        /* \"#utility.yul\":17272:17282   */\n      dup6\n        /* \"#utility.yul\":17269:17287   */\n      lt\n        /* \"#utility.yul\":17266:17315   */\n      iszero\n      tag_362\n      jumpi\n        /* \"#utility.yul\":17305:17313   */\n      dup2\n        /* \"#utility.yul\":17290:17313   */\n      swap1\n      pop\n        /* \"#utility.yul\":17266:17315   */\n    tag_362:\n        /* \"#utility.yul\":17328:17408   */\n      tag_363\n        /* \"#utility.yul\":17384:17406   */\n      tag_364\n        /* \"#utility.yul\":17402:17405   */\n      dup6\n        /* \"#utility.yul\":17384:17406   */\n      tag_170\n      jump\t// in\n    tag_364:\n        /* \"#utility.yul\":17374:17382   */\n      dup4\n        /* \"#utility.yul\":17370:17407   */\n      add\n        /* \"#utility.yul\":17357:17368   */\n      dup3\n        /* \"#utility.yul\":17328:17408   */\n      tag_179\n      jump\t// in\n    tag_363:\n        /* \"#utility.yul\":16987:17418   */\n      pop\n      pop\n        /* \"#utility.yul\":16972:17418   */\n    tag_359:\n        /* \"#utility.yul\":16882:17425   */\n      pop\n      pop\n      pop\n      jump\t// out\n        /* \"#utility.yul\":17431:17548   */\n    tag_181:\n        /* \"#utility.yul\":17485:17493   */\n      0x00\n        /* \"#utility.yul\":17535:17540   */\n      dup3\n        /* \"#utility.yul\":17529:17533   */\n      dup3\n        /* \"#utility.yul\":17525:17541   */\n      shr\n        /* \"#utility.yul\":17504:17541   */\n      swap1\n      pop\n        /* \"#utility.yul\":17431:17548   */\n      swap3\n      swap2\n      pop\n      pop\n      jump\t// out\n        /* \"#utility.yul\":17554:17723   */\n    tag_182:\n        /* \"#utility.yul\":17598:17604   */\n      0x00\n        /* \"#utility.yul\":17631:17682   */\n      tag_367\n        /* \"#utility.yul\":17679:17680   */\n      0x00\n        /* \"#utility.yul\":17675:17681   */\n      not\n        /* \"#utility.yul\":17667:17672   */\n      dup5\n        /* \"#utility.yul\":17664:17665   */\n      0x08\n        /* \"#utility.yul\":17660:17673   */\n      mul\n        /* \"#utility.yul\":17631:17682   */\n      tag_181\n      jump\t// in\n    tag_367:\n        /* \"#utility.yul\":17627:17683   */\n      not\n        /* \"#utility.yul\":17712:17716   */\n      dup1\n        /* \"#utility.yul\":17706:17710   */\n      dup4\n        /* \"#utility.yul\":17702:17717   */\n      and\n        /* \"#utility.yul\":17692:17717   */\n      swap2\n      pop\n        /* \"#utility.yul\":17605:17723   */\n      pop\n        /* \"#utility.yul\":17554:17723   */\n      swap3\n      swap2\n      pop\n      pop\n      jump\t// out\n        /* \"#utility.yul\":17728:18023   */\n    tag_183:\n        /* \"#utility.yul\":17804:17808   */\n      0x00\n        /* \"#utility.yul\":17950:17979   */\n      tag_369\n        /* \"#utility.yul\":17975:17978   */\n      dup4\n        /* \"#utility.yul\":17969:17973   */\n      dup4\n        /* \"#utility.yul\":17950:17979   */\n      tag_182\n      jump\t// in\n    tag_369:\n        /* \"#utility.yul\":17942:17979   */\n      swap2\n      pop\n        /* \"#utility.yul\":18012:18015   */\n      dup3\n        /* \"#utility.yul\":18009:18010   */\n      0x02\n        /* \"#utility.yul\":18005:18016   */\n      mul\n        /* \"#utility.yul\":17999:18003   */\n      dup3\n        /* \"#utility.yul\":17996:18017   */\n      or\n        /* \"#utility.yul\":17988:18017   */\n      swap1\n      pop\n        /* \"#utility.yul\":17728:18023   */\n      swap3\n      swap2\n      pop\n      pop\n      jump\t// out\n        /* \"#utility.yul\":18028:19423   */\n    tag_53:\n        /* \"#utility.yul\":18145:18182   */\n      tag_371\n        /* \"#utility.yul\":18178:18181   */\n      dup3\n        /* \"#utility.yul\":18145:18182   */\n      tag_146\n      jump\t// in\n    tag_371:\n        /* \"#utility.yul\":18247:18265   */\n      0xffffffffffffffff\n        /* \"#utility.yul\":18239:18245   */\n      dup2\n        /* \"#utility.yul\":18236:18266   */\n      gt\n        /* \"#utility.yul\":18233:18289   */\n      iszero\n      tag_372\n      jumpi\n        /* \"#utility.yul\":18269:18287   */\n      tag_373\n      tag_62\n      jump\t// in\n    tag_373:\n        /* \"#utility.yul\":18233:18289   */\n    tag_372:\n        /* \"#utility.yul\":18313:18351   */\n      tag_374\n        /* \"#utility.yul\":18345:18349   */\n      dup3\n        /* \"#utility.yul\":18339:18350   */\n      sload\n        /* \"#utility.yul\":18313:18351   */\n      tag_71\n      jump\t// in\n    tag_374:\n        /* \"#utility.yul\":18398:18465   */\n      tag_375\n        /* \"#utility.yul\":18458:18464   */\n      dup3\n        /* \"#utility.yul\":18450:18456   */\n      dup3\n        /* \"#utility.yul\":18444:18448   */\n      dup6\n        /* \"#utility.yul\":18398:18465   */\n      tag_180\n      jump\t// in\n    tag_375:\n        /* \"#utility.yul\":18492:18493   */\n      0x00\n        /* \"#utility.yul\":18516:18520   */\n      0x20\n        /* \"#utility.yul\":18503:18520   */\n      swap1\n      pop\n        /* \"#utility.yul\":18548:18550   */\n      0x1f\n        /* \"#utility.yul\":18540:18546   */\n      dup4\n        /* \"#utility.yul\":18537:18551   */\n      gt\n        /* \"#utility.yul\":18565:18566   */\n      0x01\n        /* \"#utility.yul\":18560:19178   */\n      dup2\n      eq\n      tag_377\n      jumpi\n        /* \"#utility.yul\":19222:19223   */\n      0x00\n        /* \"#utility.yul\":19239:19245   */\n      dup5\n        /* \"#utility.yul\":19236:19313   */\n      iszero\n      tag_378\n      jumpi\n        /* \"#utility.yul\":19288:19297   */\n      dup3\n        /* \"#utility.yul\":19283:19286   */\n      dup8\n        /* \"#utility.yul\":19279:19298   */\n      add\n        /* \"#utility.yul\":19273:19299   */\n      mload\n        /* \"#utility.yul\":19264:19299   */\n      swap1\n      pop\n        /* \"#utility.yul\":19236:19313   */\n    tag_378:\n        /* \"#utility.yul\":19339:19406   */\n      tag_379\n        /* \"#utility.yul\":19399:19405   */\n      dup6\n        /* \"#utility.yul\":19392:19397   */\n      dup3\n        /* \"#utility.yul\":19339:19406   */\n      tag_183\n      jump\t// in\n    tag_379:\n        /* \"#utility.yul\":19333:19337   */\n      dup7\n        /* \"#utility.yul\":19326:19407   */\n      sstore\n        /* \"#utility.yul\":19195:19417   */\n      pop\n        /* \"#utility.yul\":18530:19417   */\n      jump(tag_376)\n        /* \"#utility.yul\":18560:19178   */\n    tag_377:\n        /* \"#utility.yul\":18612:18616   */\n      0x1f\n        /* \"#utility.yul\":18608:18617   */\n      not\n        /* \"#utility.yul\":18600:18606   */\n      dup5\n        /* \"#utility.yul\":18596:18618   */\n      and\n        /* \"#utility.yul\":18646:18683   */\n      tag_380\n        /* \"#utility.yul\":18678:18682   */\n      dup7\n        /* \"#utility.yul\":18646:18683   */\n      tag_169\n      jump\t// in\n    tag_380:\n        /* \"#utility.yul\":18705:18706   */\n      0x00\n        /* \"#utility.yul\":18719:18927   */\n    tag_381:\n        /* \"#utility.yul\":18733:18740   */\n      dup3\n        /* \"#utility.yul\":18730:18731   */\n      dup2\n        /* \"#utility.yul\":18727:18741   */\n      lt\n        /* \"#utility.yul\":18719:18927   */\n      iszero\n      tag_383\n      jumpi\n        /* \"#utility.yul\":18812:18821   */\n      dup5\n        /* \"#utility.yul\":18807:18810   */\n      dup10\n        /* \"#utility.yul\":18803:18822   */\n      add\n        /* \"#utility.yul\":18797:18823   */\n      mload\n        /* \"#utility.yul\":18789:18795   */\n      dup3\n        /* \"#utility.yul\":18782:18824   */\n      sstore\n        /* \"#utility.yul\":18863:18864   */\n      0x01\n        /* \"#utility.yul\":18855:18861   */\n      dup3\n        /* \"#utility.yul\":18851:18865   */\n      add\n        /* \"#utility.yul\":18841:18865   */\n      swap2\n      pop\n        /* \"#utility.yul\":18910:18912   */\n      0x20\n        /* \"#utility.yul\":18899:18908   */\n      dup6\n        /* \"#utility.yul\":18895:18913   */\n      add\n        /* \"#utility.yul\":18882:18913   */\n      swap5\n      pop\n        /* \"#utility.yul\":18756:18760   */\n      0x20\n        /* \"#utility.yul\":18753:18754   */\n      dup2\n        /* \"#utility.yul\":18749:18761   */\n      add\n        /* \"#utility.yul\":18744:18761   */\n      swap1\n      pop\n        /* \"#utility.yul\":18719:18927   */\n      jump(tag_381)\n    tag_383:\n        /* \"#utility.yul\":18955:18961   */\n      dup7\n        /* \"#utility.yul\":18946:18953   */\n      dup4\n        /* \"#utility.yul\":18943:18962   */\n      lt\n        /* \"#utility.yul\":18940:19119   */\n      iszero\n      tag_384\n      jumpi\n        /* \"#utility.yul\":19013:19022   */\n      dup5\n        /* \"#utility.yul\":19008:19011   */\n      dup10\n        /* \"#utility.yul\":19004:19023   */\n      add\n        /* \"#utility.yul\":18998:19024   */\n      mload\n        /* \"#utility.yul\":19056:19104   */\n      tag_385\n        /* \"#utility.yul\":19098:19102   */\n      0x1f\n        /* \"#utility.yul\":19090:19096   */\n      dup10\n        /* \"#utility.yul\":19086:19103   */\n      and\n        /* \"#utility.yul\":19075:19084   */\n      dup3\n        /* \"#utility.yul\":19056:19104   */\n      tag_182\n      jump\t// in\n    tag_385:\n        /* \"#utility.yul\":19048:19054   */\n      dup4\n        /* \"#utility.yul\":19041:19105   */\n      sstore\n        /* \"#utility.yul\":18963:19119   */\n      pop\n        /* \"#utility.yul\":18940:19119   */\n    tag_384:\n        /* \"#utility.yul\":19165:19166   */\n      0x01\n        /* \"#utility.yul\":19161:19162   */\n      0x02\n        /* \"#utility.yul\":19153:19159   */\n      dup9\n        /* \"#utility.yul\":19149:19163   */\n      mul\n        /* \"#utility.yul\":19145:19167   */\n      add\n        /* \"#utility.yul\":19139:19143   */\n      dup9\n        /* \"#utility.yul\":19132:19168   */\n      sstore\n        /* \"#utility.yul\":18567:19178   */\n      pop\n      pop\n      pop\n        /* \"#utility.yul\":18530:19417   */\n    tag_376:\n      pop\n        /* \"#utility.yul\":18120:19423   */\n      pop\n      pop\n      pop\n        /* \"#utility.yul\":18028:19423   */\n      pop\n      pop\n      jump\t// out\n        /* \"#utility.yul\":19429:19609   */\n    tag_184:\n        /* \"#utility.yul\":19477:19554   */\n      0x4e487b7100000000000000000000000000000000000000000000000000000000\n        /* \"#utility.yul\":19474:19475   */\n      0x00\n        /* \"#utility.yul\":19467:19555   */\n      mstore\n        /* \"#utility.yul\":19574:19578   */\n      0x11\n        /* \"#utility.yul\":19571:19572   */\n      0x04\n        /* \"#utility.yul\":19564:19579   */\n      mstore\n        /* \"#utility.yul\":19598:19602   */\n      0x24\n        /* \"#utility.yul\":19595:19596   */\n      0x00\n        /* \"#utility.yul\":19588:19603   */\n      revert\n        /* \"#utility.yul\":19615:19848   */\n    tag_56:\n        /* \"#utility.yul\":19654:19657   */\n      0x00\n        /* \"#utility.yul\":19677:19701   */\n      tag_388\n        /* \"#utility.yul\":19695:19700   */\n      dup3\n        /* \"#utility.yul\":19677:19701   */\n      tag_140\n      jump\t// in\n    tag_388:\n        /* \"#utility.yul\":19668:19701   */\n      swap2\n      pop\n        /* \"#utility.yul\":19723:19789   */\n      0xffffffffffffffffffffffffffffffffffffffffffffffffffffffffffffffff\n        /* \"#utility.yul\":19716:19721   */\n      dup3\n        /* \"#utility.yul\":19713:19790   */\n      sub\n        /* \"#utility.yul\":19710:19813   */\n      tag_389\n      jumpi\n        /* \"#utility.yul\":19793:19811   */\n      tag_390\n      tag_184\n      jump\t// in\n    tag_390:\n        /* \"#utility.yul\":19710:19813   */\n    tag_389:\n        /* \"#utility.yul\":19840:19841   */\n      0x01\n        /* \"#utility.yul\":19833:19838   */\n      dup3\n        /* \"#utility.yul\":19829:19842   */\n      add\n        /* \"#utility.yul\":19822:19842   */\n      swap1\n      pop\n        /* \"#utility.yul\":19615:19848   */\n      swap2\n      swap1\n      pop\n      jump\t// out\n        /* \"#utility.yul\":19854:20048   */\n    tag_59:\n        /* \"#utility.yul\":19894:19898   */\n      0x00\n        /* \"#utility.yul\":19914:19934   */\n      tag_392\n        /* \"#utility.yul\":19932:19933   */\n      dup3\n        /* \"#utility.yul\":19914:19934   */\n      tag_140\n      jump\t// in\n    tag_392:\n        /* \"#utility.yul\":19909:19934   */\n      swap2\n      pop\n        /* \"#utility.yul\":19948:19968   */\n      tag_393\n        /* \"#utility.yul\":19966:19967   */\n      dup4\n        /* \"#utility.yul\":19948:19968   */\n      tag_140\n      jump\t// in\n    tag_393:\n        /* \"#utility.yul\":19943:19968   */\n      swap3\n      pop\n        /* \"#utility.yul\":19992:19993   */\n      dup3\n        /* \"#utility.yul\":19989:19990   */\n      dup3\n        /* \"#utility.yul\":19985:19994   */\n      sub\n        /* \"#utility.yul\":19977:19994   */\n      swap1\n      pop\n        /* \"#utility.yul\":20016:20017   */\n      dup2\n        /* \"#utility.yul\":20010:20014   */\n      dup2\n        /* \"#utility.yul\":20007:20018   */\n      gt\n        /* \"#utility.yul\":20004:20041   */\n      iszero\n      tag_394\n      jumpi\n        /* \"#utility.yul\":20021:20039   */\n      tag_395\n      tag_184\n      jump\t// in\n    tag_395:\n        /* \"#utility.yul\":20004:20041   */\n    tag_394:\n        /* \"#utility.yul\":19854:20048   */\n      swap3\n      swap2\n      pop\n      pop\n      jump\t// out\n        /* \"#utility.yul\":20054:20234   */\n    tag_84:\n        /* \"#utility.yul\":20102:20179   */\n      0x4e487b7100000000000000000000000000000000000000000000000000000000\n        /* \"#utility.yul\":20099:20100   */\n      0x00\n        /* \"#utility.yul\":20092:20180   */\n      mstore\n        /* \"#utility.yul\":20199:20203   */\n      0x32\n        /* \"#utility.yul\":20196:20197   */\n      0x04\n        /* \"#utility.yul\":20189:20204   */\n      mstore\n        /* \"#utility.yul\":20223:20227   */\n      0x24\n        /* \"#utility.yul\":20220:20221   */\n      0x00\n        /* \"#utility.yul\":20213:20228   */\n      revert\n        /* \"#utility.yul\":20240:20463   */\n    tag_185:\n        /* \"#utility.yul\":20380:20414   */\n      0x796f752063616e6e6f7420627579206265636175736520796f7520617265206f\n        /* \"#utility.yul\":20376:20377   */\n      0x00\n        /* \"#utility.yul\":20368:20374   */\n      dup3\n        /* \"#utility.yul\":20364:20378   */\n      add\n        /* \"#utility.yul\":20357:20415   */\n      mstore\n        /* \"#utility.yul\":20449:20455   */\n      0x776e657200000000000000000000000000000000000000000000000000000000\n        /* \"#utility.yul\":20444:20446   */\n      0x20\n        /* \"#utility.yul\":20436:20442   */\n      dup3\n        /* \"#utility.yul\":20432:20447   */\n      add\n        /* \"#utility.yul\":20425:20456   */\n      mstore\n        /* \"#utility.yul\":20240:20463   */\n      pop\n      jump\t// out\n        /* \"#utility.yul\":20469:20835   */\n    tag_186:\n        /* \"#utility.yul\":20611:20614   */\n      0x00\n        /* \"#utility.yul\":20632:20699   */\n      tag_399\n        /* \"#utility.yul\":20696:20698   */\n      0x24\n        /* \"#utility.yul\":20691:20694   */\n      dup4\n        /* \"#utility.yul\":20632:20699   */\n      tag_163\n      jump\t// in\n    tag_399:\n        /* \"#utility.yul\":20625:20699   */\n      swap2\n      pop\n        /* \"#utility.yul\":20708:20801   */\n      tag_400\n        /* \"#utility.yul\":20797:20800   */\n      dup3\n        /* \"#utility.yul\":20708:20801   */\n      tag_185\n      jump\t// in\n    tag_400:\n        /* \"#utility.yul\":20826:20828   */\n      0x40\n        /* \"#utility.yul\":20821:20824   */\n      dup3\n        /* \"#utility.yul\":20817:20829   */\n      add\n        /* \"#utility.yul\":20810:20829   */\n      swap1\n      pop\n        /* \"#utility.yul\":20469:20835   */\n      swap2\n      swap1\n      pop\n      jump\t// out\n        /* \"#utility.yul\":20841:21260   */\n    tag_89:\n        /* \"#utility.yul\":21007:21011   */\n      0x00\n        /* \"#utility.yul\":21045:21047   */\n      0x20\n        /* \"#utility.yul\":21034:21043   */\n      dup3\n        /* \"#utility.yul\":21030:21048   */\n      add\n        /* \"#utility.yul\":21022:21048   */\n      swap1\n      pop\n        /* \"#utility.yul\":21094:21103   */\n      dup2\n        /* \"#utility.yul\":21088:21092   */\n      dup2\n        /* \"#utility.yul\":21084:21104   */\n      sub\n        /* \"#utility.yul\":21080:21081   */\n      0x00\n        /* \"#utility.yul\":21069:21078   */\n      dup4\n        /* \"#utility.yul\":21065:21082   */\n      add\n        /* \"#utility.yul\":21058:21105   */\n      mstore\n        /* \"#utility.yul\":21122:21253   */\n      tag_402\n        /* \"#utility.yul\":21248:21252   */\n      dup2\n        /* \"#utility.yul\":21122:21253   */\n      tag_186\n      jump\t// in\n    tag_402:\n        /* \"#utility.yul\":21114:21253   */\n      swap1\n      pop\n        /* \"#utility.yul\":20841:21260   */\n      swap2\n      swap1\n      pop\n      jump\t// out\n        /* \"#utility.yul\":21266:21436   */\n    tag_187:\n        /* \"#utility.yul\":21406:21428   */\n      0x616d6f756e74206973206e6f7420656e6f756768000000000000000000000000\n        /* \"#utility.yul\":21402:21403   */\n      0x00\n        /* \"#utility.yul\":21394:21400   */\n      dup3\n        /* \"#utility.yul\":21390:21404   */\n      add\n        /* \"#utility.yul\":21383:21429   */\n      mstore\n        /* \"#utility.yul\":21266:21436   */\n      pop\n      jump\t// out\n        /* \"#utility.yul\":21442:21808   */\n    tag_188:\n        /* \"#utility.yul\":21584:21587   */\n      0x00\n        /* \"#utility.yul\":21605:21672   */\n      tag_405\n        /* \"#utility.yul\":21669:21671   */\n      0x14\n        /* \"#utility.yul\":21664:21667   */\n      dup4\n        /* \"#utility.yul\":21605:21672   */\n      tag_163\n      jump\t// in\n    tag_405:\n        /* \"#utility.yul\":21598:21672   */\n      swap2\n      pop\n        /* \"#utility.yul\":21681:21774   */\n      tag_406\n        /* \"#utility.yul\":21770:21773   */\n      dup3\n        /* \"#utility.yul\":21681:21774   */\n      tag_187\n      jump\t// in\n    tag_406:\n        /* \"#utility.yul\":21799:21801   */\n      0x20\n        /* \"#utility.yul\":21794:21797   */\n      dup3\n        /* \"#utility.yul\":21790:21802   */\n      add\n        /* \"#utility.yul\":21783:21802   */\n      swap1\n      pop\n        /* \"#utility.yul\":21442:21808   */\n      swap2\n      swap1\n      pop\n      jump\t// out\n        /* \"#utility.yul\":21814:22233   */\n    tag_92:\n        /* \"#utility.yul\":21980:21984   */\n      0x00\n        /* \"#utility.yul\":22018:22020   */\n      0x20\n        /* \"#utility.yul\":22007:22016   */\n      dup3\n        /* \"#utility.yul\":22003:22021   */\n      add\n        /* \"#utility.yul\":21995:22021   */\n      swap1\n      pop\n        /* \"#utility.yul\":22067:22076   */\n      dup2\n        /* \"#utility.yul\":22061:22065   */\n      dup2\n        /* \"#utility.yul\":22057:22077   */\n      sub\n        /* \"#utility.yul\":22053:22054   */\n      0x00\n        /* \"#utility.yul\":22042:22051   */\n      dup4\n        /* \"#utility.yul\":22038:22055   */\n      add\n        /* \"#utility.yul\":22031:22078   */\n      mstore\n        /* \"#utility.yul\":22095:22226   */\n      tag_408\n        /* \"#utility.yul\":22221:22225   */\n      dup2\n        /* \"#utility.yul\":22095:22226   */\n      tag_188\n      jump\t// in\n    tag_408:\n        /* \"#utility.yul\":22087:22226   */\n      swap1\n      pop\n        /* \"#utility.yul\":21814:22233   */\n      swap2\n      swap1\n      pop\n      jump\t// out\n        /* \"#utility.yul\":22239:22405   */\n    tag_189:\n        /* \"#utility.yul\":22379:22397   */\n      0x616c726561647920736f6c64206f757400000000000000000000000000000000\n        /* \"#utility.yul\":22375:22376   */\n      0x00\n        /* \"#utility.yul\":22367:22373   */\n      dup3\n        /* \"#utility.yul\":22363:22377   */\n      add\n        /* \"#utility.yul\":22356:22398   */\n      mstore\n        /* \"#utility.yul\":22239:22405   */\n      pop\n      jump\t// out\n        /* \"#utility.yul\":22411:22777   */\n    tag_190:\n        /* \"#utility.yul\":22553:22556   */\n      0x00\n        /* \"#utility.yul\":22574:22641   */\n      tag_411\n        /* \"#utility.yul\":22638:22640   */\n      0x10\n        /* \"#utility.yul\":22633:22636   */\n      dup4\n        /* \"#utility.yul\":22574:22641   */\n      tag_163\n      jump\t// in\n    tag_411:\n        /* \"#utility.yul\":22567:22641   */\n      swap2\n      pop\n        /* \"#utility.yul\":22650:22743   */\n      tag_412\n        /* \"#utility.yul\":22739:22742   */\n      dup3\n        /* \"#utility.yul\":22650:22743   */\n      tag_189\n      jump\t// in\n    tag_412:\n        /* \"#utility.yul\":22768:22770   */\n      0x20\n        /* \"#utility.yul\":22763:22766   */\n      dup3\n        /* \"#utility.yul\":22759:22771   */\n      add\n        /* \"#utility.yul\":22752:22771   */\n      swap1\n      pop\n        /* \"#utility.yul\":22411:22777   */\n      swap2\n      swap1\n      pop\n      jump\t// out\n        /* \"#utility.yul\":22783:23202   */\n    tag_95:\n        /* \"#utility.yul\":22949:22953   */\n      0x00\n        /* \"#utility.yul\":22987:22989   */\n      0x20\n        /* \"#utility.yul\":22976:22985   */\n      dup3\n        /* \"#utility.yul\":22972:22990   */\n      add\n        /* \"#utility.yul\":22964:22990   */\n      swap1\n      pop\n        /* \"#utility.yul\":23036:23045   */\n      dup2\n        /* \"#utility.yul\":23030:23034   */\n      dup2\n        /* \"#utility.yul\":23026:23046   */\n      sub\n        /* \"#utility.yul\":23022:23023   */\n      0x00\n        /* \"#utility.yul\":23011:23020   */\n      dup4\n        /* \"#utility.yul\":23007:23024   */\n      add\n        /* \"#utility.yul\":23000:23047   */\n      mstore\n        /* \"#utility.yul\":23064:23195   */\n      tag_414\n        /* \"#utility.yul\":23190:23194   */\n      dup2\n        /* \"#utility.yul\":23064:23195   */\n      tag_190\n      jump\t// in\n    tag_414:\n        /* \"#utility.yul\":23056:23195   */\n      swap1\n      pop\n        /* \"#utility.yul\":22783:23202   */\n      swap2\n      swap1\n      pop\n      jump\t// out\n        /* \"#utility.yul\":23208:23357   */\n    tag_191:\n        /* \"#utility.yul\":23257:23263   */\n      0x00\n        /* \"#utility.yul\":23291:23296   */\n      dup2\n        /* \"#utility.yul\":23285:23297   */\n      sload\n        /* \"#utility.yul\":23275:23297   */\n      swap1\n      pop\n        /* \"#utility.yul\":23317:23350   */\n      tag_416\n        /* \"#utility.yul\":23343:23349   */\n      dup2\n        /* \"#utility.yul\":23317:23350   */\n      tag_71\n      jump\t// in\n    tag_416:\n        /* \"#utility.yul\":23307:23350   */\n      swap1\n      pop\n        /* \"#utility.yul\":23208:23357   */\n      swap2\n      swap1\n      pop\n      jump\t// out\n        /* \"#utility.yul\":23363:24814   */\n    tag_99:\n        /* \"#utility.yul\":23474:23477   */\n      dup2\n        /* \"#utility.yul\":23468:23472   */\n      dup2\n        /* \"#utility.yul\":23465:23478   */\n      sub\n        /* \"#utility.yul\":23462:23488   */\n      tag_418\n      jumpi\n        /* \"#utility.yul\":23481:23486   */\n      pop\n      pop\n      jump(tag_417)\n        /* \"#utility.yul\":23462:23488   */\n    tag_418:\n        /* \"#utility.yul\":23512:23546   */\n      tag_419\n        /* \"#utility.yul\":23542:23545   */\n      dup3\n        /* \"#utility.yul\":23512:23546   */\n      tag_191\n      jump\t// in\n    tag_419:\n        /* \"#utility.yul\":23611:23629   */\n      0xffffffffffffffff\n        /* \"#utility.yul\":23603:23609   */\n      dup2\n        /* \"#utility.yul\":23600:23630   */\n      gt\n        /* \"#utility.yul\":23597:23653   */\n      iszero\n      tag_420\n      jumpi\n        /* \"#utility.yul\":23633:23651   */\n      tag_421\n      tag_62\n      jump\t// in\n    tag_421:\n        /* \"#utility.yul\":23597:23653   */\n    tag_420:\n        /* \"#utility.yul\":23677:23715   */\n      tag_422\n        /* \"#utility.yul\":23709:23713   */\n      dup3\n        /* \"#utility.yul\":23703:23714   */\n      sload\n        /* \"#utility.yul\":23677:23715   */\n      tag_71\n      jump\t// in\n    tag_422:\n        /* \"#utility.yul\":23762:23829   */\n      tag_423\n        /* \"#utility.yul\":23822:23828   */\n      dup3\n        /* \"#utility.yul\":23814:23820   */\n      dup3\n        /* \"#utility.yul\":23808:23812   */\n      dup6\n        /* \"#utility.yul\":23762:23829   */\n      tag_180\n      jump\t// in\n    tag_423:\n        /* \"#utility.yul\":23856:23857   */\n      0x00\n        /* \"#utility.yul\":23885:23887   */\n      0x1f\n        /* \"#utility.yul\":23877:23883   */\n      dup4\n        /* \"#utility.yul\":23874:23888   */\n      gt\n        /* \"#utility.yul\":23902:23903   */\n      0x01\n        /* \"#utility.yul\":23897:24569   */\n      dup2\n      eq\n      tag_425\n      jumpi\n        /* \"#utility.yul\":24613:24614   */\n      0x00\n        /* \"#utility.yul\":24630:24636   */\n      dup5\n        /* \"#utility.yul\":24627:24704   */\n      iszero\n      tag_426\n      jumpi\n        /* \"#utility.yul\":24679:24688   */\n      dup3\n        /* \"#utility.yul\":24674:24677   */\n      dup8\n        /* \"#utility.yul\":24670:24689   */\n      add\n        /* \"#utility.yul\":24664:24690   */\n      sload\n        /* \"#utility.yul\":24655:24690   */\n      swap1\n      pop\n        /* \"#utility.yul\":24627:24704   */\n    tag_426:\n        /* \"#utility.yul\":24730:24797   */\n      tag_427\n        /* \"#utility.yul\":24790:24796   */\n      dup6\n        /* \"#utility.yul\":24783:24788   */\n      dup3\n        /* \"#utility.yul\":24730:24797   */\n      tag_183\n      jump\t// in\n    tag_427:\n        /* \"#utility.yul\":24724:24728   */\n      dup7\n        /* \"#utility.yul\":24717:24798   */\n      sstore\n        /* \"#utility.yul\":24586:24808   */\n      pop\n        /* \"#utility.yul\":23867:24808   */\n      jump(tag_424)\n        /* \"#utility.yul\":23897:24569   */\n    tag_425:\n        /* \"#utility.yul\":23949:23953   */\n      0x1f\n        /* \"#utility.yul\":23945:23954   */\n      not\n        /* \"#utility.yul\":23937:23943   */\n      dup5\n        /* \"#utility.yul\":23933:23955   */\n      and\n        /* \"#utility.yul\":23975:24011   */\n      tag_428\n        /* \"#utility.yul\":24007:24010   */\n      dup8\n        /* \"#utility.yul\":23975:24011   */\n      tag_169\n      jump\t// in\n    tag_428:\n        /* \"#utility.yul\":23968:24011   */\n      swap7\n      pop\n        /* \"#utility.yul\":24038:24075   */\n      tag_429\n        /* \"#utility.yul\":24070:24074   */\n      dup7\n        /* \"#utility.yul\":24038:24075   */\n      tag_169\n      jump\t// in\n    tag_429:\n        /* \"#utility.yul\":24097:24098   */\n      0x00\n        /* \"#utility.yul\":24111:24318   */\n    tag_430:\n        /* \"#utility.yul\":24125:24132   */\n      dup3\n        /* \"#utility.yul\":24122:24123   */\n      dup2\n        /* \"#utility.yul\":24119:24133   */\n      lt\n        /* \"#utility.yul\":24111:24318   */\n      iszero\n      tag_432\n      jumpi\n        /* \"#utility.yul\":24204:24213   */\n      dup5\n        /* \"#utility.yul\":24199:24202   */\n      dup10\n        /* \"#utility.yul\":24195:24214   */\n      add\n        /* \"#utility.yul\":24189:24215   */\n      sload\n        /* \"#utility.yul\":24181:24187   */\n      dup3\n        /* \"#utility.yul\":24174:24216   */\n      sstore\n        /* \"#utility.yul\":24255:24256   */\n      0x01\n        /* \"#utility.yul\":24247:24253   */\n      dup3\n        /* \"#utility.yul\":24243:24257   */\n      add\n        /* \"#utility.yul\":24233:24257   */\n      swap2\n      pop\n        /* \"#utility.yul\":24302:24303   */\n      0x01\n        /* \"#utility.yul\":24291:24300   */\n      dup6\n        /* \"#utility.yul\":24287:24304   */\n      add\n        /* \"#utility.yul\":24274:24304   */\n      swap5\n      pop\n        /* \"#utility.yul\":24148:24152   */\n      0x20\n        /* \"#utility.yul\":24145:24146   */\n      dup2\n        /* \"#utility.yul\":24141:24153   */\n      add\n        /* \"#utility.yul\":24136:24153   */\n      swap1\n      pop\n        /* \"#utility.yul\":24111:24318   */\n      jump(tag_430)\n    tag_432:\n        /* \"#utility.yul\":24346:24352   */\n      dup7\n        /* \"#utility.yul\":24337:24344   */\n      dup4\n        /* \"#utility.yul\":24334:24353   */\n      lt\n        /* \"#utility.yul\":24331:24510   */\n      iszero\n      tag_433\n      jumpi\n        /* \"#utility.yul\":24404:24413   */\n      dup5\n        /* \"#utility.yul\":24399:24402   */\n      dup10\n        /* \"#utility.yul\":24395:24414   */\n      add\n        /* \"#utility.yul\":24389:24415   */\n      sload\n        /* \"#utility.yul\":24447:24495   */\n      tag_434\n        /* \"#utility.yul\":24489:24493   */\n      0x1f\n        /* \"#utility.yul\":24481:24487   */\n      dup10\n        /* \"#utility.yul\":24477:24494   */\n      and\n        /* \"#utility.yul\":24466:24475   */\n      dup3\n        /* \"#utility.yul\":24447:24495   */\n      tag_182\n      jump\t// in\n    tag_434:\n        /* \"#utility.yul\":24439:24445   */\n      dup4\n        /* \"#utility.yul\":24432:24496   */\n      sstore\n        /* \"#utility.yul\":24354:24510   */\n      pop\n        /* \"#utility.yul\":24331:24510   */\n    tag_433:\n        /* \"#utility.yul\":24556:24557   */\n      0x01\n        /* \"#utility.yul\":24552:24553   */\n      0x02\n        /* \"#utility.yul\":24544:24550   */\n      dup9\n        /* \"#utility.yul\":24540:24554   */\n      mul\n        /* \"#utility.yul\":24536:24558   */\n      add\n        /* \"#utility.yul\":24530:24534   */\n      dup9\n        /* \"#utility.yul\":24523:24559   */\n      sstore\n        /* \"#utility.yul\":23904:24569   */\n      pop\n      pop\n      pop\n        /* \"#utility.yul\":23867:24808   */\n    tag_424:\n      pop\n        /* \"#utility.yul\":23452:24814   */\n      pop\n      pop\n      pop\n        /* \"#utility.yul\":23363:24814   */\n      pop\n      pop\n    tag_417:\n      jump\t// out\n\n    auxdata: 0xa26469706673582212205de956f5c7e46475cf9057e308e5505df6f5de3d14595cd06407bfc1c2eb1cda64736f6c63430008120033\n}\n",
				"bytecode": {
					"linkReferences": {},
					"object": "60806040526001600355600160045534801561001a57600080fd5b50336000806101000a81548173ffffffffffffffffffffffffffffffffffffffff021916908373ffffffffffffffffffffffffffffffffffffffff16021790555061192e8061006a6000396000f3fe6080604052600436106100705760003560e01c806371e69a321161004e57806371e69a32146100e557806382367b2d14610122578063f159e5ac1461014b578063f7746e361461018857610070565b806305574ee91461007557806317c392861461009e5780636c231060146100c9575b600080fd5b34801561008157600080fd5b5061009c60048036038101906100979190610d7d565b6101c8565b005b3480156100aa57600080fd5b506100b3610305565b6040516100c09190610fdd565b60405180910390f35b6100e360048036038101906100de9190610fff565b61052a565b005b3480156100f157600080fd5b5061010c60048036038101906101079190610fff565b6107f5565b604051610119919061103b565b60405180910390f35b34801561012e57600080fd5b5061014960048036038101906101449190611056565b610815565b005b34801561015757600080fd5b50610172600480360381019061016d91906110f4565b6108c2565b60405161017f919061119e565b60405180910390f35b34801561019457600080fd5b506101af60048036038101906101aa9190610fff565b610a76565b6040516101bf9493929190611219565b60405180910390f35b60008054906101000a900473ffffffffffffffffffffffffffffffffffffffff1673ffffffffffffffffffffffffffffffffffffffff163373ffffffffffffffffffffffffffffffffffffffff1614610256576040517f08c379a000000000000000000000000000000000000000000000000000000000815260040161024d906112b8565b60405180910390fd5b60405180608001604052808481526020018381526020018281526020016001151581525060026000600354815260200190815260200160002060008201518160000190816102a491906114e4565b5060208201518160010190816102ba91906114e4565b506040820151816002015560608201518160030160006101000a81548160ff021916908315150217905550905050600360008154809291906102fb906115e5565b9190505550505050565b606060006001600354610318919061162d565b67ffffffffffffffff81111561033157610330610c1c565b5b60405190808252806020026020018201604052801561036a57816020015b610357610bc3565b81526020019060019003908161034f5790505b5090506000600190505b60035481101561052257600260008281526020019081526020016000206040518060800160405290816000820180546103ac90611307565b80601f01602080910402602001604051908101604052809291908181526020018280546103d890611307565b80156104255780601f106103fa57610100808354040283529160200191610425565b820191906000526020600020905b81548152906001019060200180831161040857829003601f168201915b5050505050815260200160018201805461043e90611307565b80601f016020809104026020016040519081016040528092919081815260200182805461046a90611307565b80156104b75780601f1061048c576101008083540402835291602001916104b7565b820191906000526020600020905b81548152906001019060200180831161049a57829003601f168201915b50505050508152602001600282015481526020016003820160009054906101000a900460ff161515151581525050826001836104f3919061162d565b8151811061050457610503611661565b5b6020026020010181905250808061051a906115e5565b915050610374565b508091505090565b60008054906101000a900473ffffffffffffffffffffffffffffffffffffffff1673ffffffffffffffffffffffffffffffffffffffff163373ffffffffffffffffffffffffffffffffffffffff16036105b8576040517f08c379a00000000000000000000000000000000000000000000000000000000081526004016105af90611702565b60405180910390fd5b6002600082815260200190815260200160002060020154341015610611576040517f08c379a00000000000000000000000000000000000000000000000000000000081526004016106089061176e565b60405180910390fd5b600115156002600083815260200190815260200160002060030160009054906101000a900460ff1615151461067b576040517f08c379a0000000000000000000000000000000000000000000000000000000008152600401610672906117da565b60405180910390fd5b60008054906101000a900473ffffffffffffffffffffffffffffffffffffffff1673ffffffffffffffffffffffffffffffffffffffff166108fc349081150290604051600060405180830381858888f193505050501580156106e1573d6000803e3d6000fd5b5060006002600083815260200190815260200160002060030160006101000a81548160ff02191690831515021790555060026000828152602001908152602001600020600160003373ffffffffffffffffffffffffffffffffffffffff1673ffffffffffffffffffffffffffffffffffffffff168152602001908152602001600020600060045481526020019081526020016000206000820181600001908161078a9190611810565b506001820181600101908161079f9190611810565b50600282015481600201556003820160009054906101000a900460ff168160030160006101000a81548160ff021916908315150217905550905050600460008154809291906107ed906115e5565b919050555050565b600060026000838152602001908152602001600020600201549050919050565b60008054906101000a900473ffffffffffffffffffffffffffffffffffffffff1673ffffffffffffffffffffffffffffffffffffffff163373ffffffffffffffffffffffffffffffffffffffff16146108a3576040517f08c379a000000000000000000000000000000000000000000000000000000000815260040161089a906112b8565b60405180910390fd5b8060026000848152602001908152602001600020600201819055505050565b6108ca610bc3565b600160008473ffffffffffffffffffffffffffffffffffffffff1673ffffffffffffffffffffffffffffffffffffffff168152602001908152602001600020600083815260200190815260200160002060405180608001604052908160008201805461093590611307565b80601f016020809104026020016040519081016040528092919081815260200182805461096190611307565b80156109ae5780601f10610983576101008083540402835291602001916109ae565b820191906000526020600020905b81548152906001019060200180831161099157829003601f168201915b505050505081526020016001820180546109c790611307565b80601f01602080910402602001604051908101604052809291908181526020018280546109f390611307565b8015610a405780601f10610a1557610100808354040283529160200191610a40565b820191906000526020600020905b815481529060010190602001808311610a2357829003601f168201915b50505050508152602001600282015481526020016003820160009054906101000a900460ff161515151581525050905092915050565b6002602052806000526040600020600091509050806000018054610a9990611307565b80601f0160208091040260200160405190810160405280929190818152602001828054610ac590611307565b8015610b125780601f10610ae757610100808354040283529160200191610b12565b820191906000526020600020905b815481529060010190602001808311610af557829003601f168201915b505050505090806001018054610b2790611307565b80601f0160208091040260200160405190810160405280929190818152602001828054610b5390611307565b8015610ba05780601f10610b7557610100808354040283529160200191610ba0565b820191906000526020600020905b815481529060010190602001808311610b8357829003601f168201915b5050505050908060020154908060030160009054906101000a900460ff16905084565b60405180608001604052806060815260200160608152602001600081526020016000151581525090565b6000604051905090565b600080fd5b600080fd5b600080fd5b600080fd5b6000601f19601f8301169050919050565b7f4e487b7100000000000000000000000000000000000000000000000000000000600052604160045260246000fd5b610c5482610c0b565b810181811067ffffffffffffffff82111715610c7357610c72610c1c565b5b80604052505050565b6000610c86610bed565b9050610c928282610c4b565b919050565b600067ffffffffffffffff821115610cb257610cb1610c1c565b5b610cbb82610c0b565b9050602081019050919050565b82818337600083830152505050565b6000610cea610ce584610c97565b610c7c565b905082815260208101848484011115610d0657610d05610c06565b5b610d11848285610cc8565b509392505050565b600082601f830112610d2e57610d2d610c01565b5b8135610d3e848260208601610cd7565b91505092915050565b6000819050919050565b610d5a81610d47565b8114610d6557600080fd5b50565b600081359050610d7781610d51565b92915050565b600080600060608486031215610d9657610d95610bf7565b5b600084013567ffffffffffffffff811115610db457610db3610bfc565b5b610dc086828701610d19565b935050602084013567ffffffffffffffff811115610de157610de0610bfc565b5b610ded86828701610d19565b9250506040610dfe86828701610d68565b9150509250925092565b600081519050919050565b600082825260208201905092915050565b6000819050602082019050919050565b600081519050919050565b600082825260208201905092915050565b60005b83811015610e6e578082015181840152602081019050610e53565b60008484015250505050565b6000610e8582610e34565b610e8f8185610e3f565b9350610e9f818560208601610e50565b610ea881610c0b565b840191505092915050565b610ebc81610d47565b82525050565b60008115159050919050565b610ed781610ec2565b82525050565b60006080830160008301518482036000860152610efa8282610e7a565b91505060208301518482036020860152610f148282610e7a565b9150506040830151610f296040860182610eb3565b506060830151610f3c6060860182610ece565b508091505092915050565b6000610f538383610edd565b905092915050565b6000602082019050919050565b6000610f7382610e08565b610f7d8185610e13565b935083602082028501610f8f85610e24565b8060005b85811015610fcb5784840389528151610fac8582610f47565b9450610fb783610f5b565b925060208a01995050600181019050610f93565b50829750879550505050505092915050565b60006020820190508181036000830152610ff78184610f68565b905092915050565b60006020828403121561101557611014610bf7565b5b600061102384828501610d68565b91505092915050565b61103581610d47565b82525050565b6000602082019050611050600083018461102c565b92915050565b6000806040838503121561106d5761106c610bf7565b5b600061107b85828601610d68565b925050602061108c85828601610d68565b9150509250929050565b600073ffffffffffffffffffffffffffffffffffffffff82169050919050565b60006110c182611096565b9050919050565b6110d1816110b6565b81146110dc57600080fd5b50565b6000813590506110ee816110c8565b92915050565b6000806040838503121561110b5761110a610bf7565b5b6000611119858286016110df565b925050602061112a85828601610d68565b9150509250929050565b600060808301600083015184820360008601526111518282610e7a565b9150506020830151848203602086015261116b8282610e7a565b91505060408301516111806040860182610eb3565b5060608301516111936060860182610ece565b508091505092915050565b600060208201905081810360008301526111b88184611134565b905092915050565b600082825260208201905092915050565b60006111dc82610e34565b6111e681856111c0565b93506111f6818560208601610e50565b6111ff81610c0b565b840191505092915050565b61121381610ec2565b82525050565b6000608082019050818103600083015261123381876111d1565b9050818103602083015261124781866111d1565b9050611256604083018561102c565b611263606083018461120a565b95945050505050565b7f796f7520617265206e6f7420746865206f776e65720000000000000000000000600082015250565b60006112a26015836111c0565b91506112ad8261126c565b602082019050919050565b600060208201905081810360008301526112d181611295565b9050919050565b7f4e487b7100000000000000000000000000000000000000000000000000000000600052602260045260246000fd5b6000600282049050600182168061131f57607f821691505b602082108103611332576113316112d8565b5b50919050565b60008190508160005260206000209050919050565b60006020601f8301049050919050565b600082821b905092915050565b60006008830261139a7fffffffffffffffffffffffffffffffffffffffffffffffffffffffffffffffff8261135d565b6113a4868361135d565b95508019841693508086168417925050509392505050565b6000819050919050565b60006113e16113dc6113d784610d47565b6113bc565b610d47565b9050919050565b6000819050919050565b6113fb836113c6565b61140f611407826113e8565b84845461136a565b825550505050565b600090565b611424611417565b61142f8184846113f2565b505050565b5b818110156114535761144860008261141c565b600181019050611435565b5050565b601f8211156114985761146981611338565b6114728461134d565b81016020851015611481578190505b61149561148d8561134d565b830182611434565b50505b505050565b600082821c905092915050565b60006114bb6000198460080261149d565b1980831691505092915050565b60006114d483836114aa565b9150826002028217905092915050565b6114ed82610e34565b67ffffffffffffffff81111561150657611505610c1c565b5b6115108254611307565b61151b828285611457565b600060209050601f83116001811461154e576000841561153c578287015190505b61154685826114c8565b8655506115ae565b601f19841661155c86611338565b60005b828110156115845784890151825560018201915060208501945060208101905061155f565b868310156115a1578489015161159d601f8916826114aa565b8355505b6001600288020188555050505b505050505050565b7f4e487b7100000000000000000000000000000000000000000000000000000000600052601160045260246000fd5b60006115f082610d47565b91507fffffffffffffffffffffffffffffffffffffffffffffffffffffffffffffffff8203611622576116216115b6565b5b600182019050919050565b600061163882610d47565b915061164383610d47565b925082820390508181111561165b5761165a6115b6565b5b92915050565b7f4e487b7100000000000000000000000000000000000000000000000000000000600052603260045260246000fd5b7f796f752063616e6e6f7420627579206265636175736520796f7520617265206f60008201527f776e657200000000000000000000000000000000000000000000000000000000602082015250565b60006116ec6024836111c0565b91506116f782611690565b604082019050919050565b6000602082019050818103600083015261171b816116df565b9050919050565b7f616d6f756e74206973206e6f7420656e6f756768000000000000000000000000600082015250565b60006117586014836111c0565b915061176382611722565b602082019050919050565b600060208201905081810360008301526117878161174b565b9050919050565b7f616c726561647920736f6c64206f757400000000000000000000000000000000600082015250565b60006117c46010836111c0565b91506117cf8261178e565b602082019050919050565b600060208201905081810360008301526117f3816117b7565b9050919050565b60008154905061180981611307565b9050919050565b81810361181e5750506118f6565b611827826117fa565b67ffffffffffffffff8111156118405761183f610c1c565b5b61184a8254611307565b611855828285611457565b6000601f8311600181146118845760008415611872578287015490505b61187c85826114c8565b8655506118ef565b601f19841661189287611338565b965061189d86611338565b60005b828110156118c5578489015482556001820191506001850194506020810190506118a0565b868310156118e257848901546118de601f8916826114aa565b8355505b6001600288020188555050505b5050505050505b56fea26469706673582212205de956f5c7e46475cf9057e308e5505df6f5de3d14595cd06407bfc1c2eb1cda64736f6c63430008120033",
					"opcodes": "PUSH1 0x80 PUSH1 0x40 MSTORE PUSH1 0x1 PUSH1 0x3 SSTORE PUSH1 0x1 PUSH1 0x4 SSTORE CALLVALUE DUP1 ISZERO PUSH2 0x1A JUMPI PUSH1 0x0 DUP1 REVERT JUMPDEST POP CALLER PUSH1 0x0 DUP1 PUSH2 0x100 EXP DUP2 SLOAD DUP2 PUSH20 0xFFFFFFFFFFFFFFFFFFFFFFFFFFFFFFFFFFFFFFFF MUL NOT AND SWAP1 DUP4 PUSH20 0xFFFFFFFFFFFFFFFFFFFFFFFFFFFFFFFFFFFFFFFF AND MUL OR SWAP1 SSTORE POP PUSH2 0x192E DUP1 PUSH2 0x6A PUSH1 0x0 CODECOPY PUSH1 0x0 RETURN INVALID PUSH1 0x80 PUSH1 0x40 MSTORE PUSH1 0x4 CALLDATASIZE LT PUSH2 0x70 JUMPI PUSH1 0x0 CALLDATALOAD PUSH1 0xE0 SHR DUP1 PUSH4 0x71E69A32 GT PUSH2 0x4E JUMPI DUP1 PUSH4 0x71E69A32 EQ PUSH2 0xE5 JUMPI DUP1 PUSH4 0x82367B2D EQ PUSH2 0x122 JUMPI DUP1 PUSH4 0xF159E5AC EQ PUSH2 0x14B JUMPI DUP1 PUSH4 0xF7746E36 EQ PUSH2 0x188 JUMPI PUSH2 0x70 JUMP JUMPDEST DUP1 PUSH4 0x5574EE9 EQ PUSH2 0x75 JUMPI DUP1 PUSH4 0x17C39286 EQ PUSH2 0x9E JUMPI DUP1 PUSH4 0x6C231060 EQ PUSH2 0xC9 JUMPI JUMPDEST PUSH1 0x0 DUP1 REVERT JUMPDEST CALLVALUE DUP1 ISZERO PUSH2 0x81 JUMPI PUSH1 0x0 DUP1 REVERT JUMPDEST POP PUSH2 0x9C PUSH1 0x4 DUP1 CALLDATASIZE SUB DUP2 ADD SWAP1 PUSH2 0x97 SWAP2 SWAP1 PUSH2 0xD7D JUMP JUMPDEST PUSH2 0x1C8 JUMP JUMPDEST STOP JUMPDEST CALLVALUE DUP1 ISZERO PUSH2 0xAA JUMPI PUSH1 0x0 DUP1 REVERT JUMPDEST POP PUSH2 0xB3 PUSH2 0x305 JUMP JUMPDEST PUSH1 0x40 MLOAD PUSH2 0xC0 SWAP2 SWAP1 PUSH2 0xFDD JUMP JUMPDEST PUSH1 0x40 MLOAD DUP1 SWAP2 SUB SWAP1 RETURN JUMPDEST PUSH2 0xE3 PUSH1 0x4 DUP1 CALLDATASIZE SUB DUP2 ADD SWAP1 PUSH2 0xDE SWAP2 SWAP1 PUSH2 0xFFF JUMP JUMPDEST PUSH2 0x52A JUMP JUMPDEST STOP JUMPDEST CALLVALUE DUP1 ISZERO PUSH2 0xF1 JUMPI PUSH1 0x0 DUP1 REVERT JUMPDEST POP PUSH2 0x10C PUSH1 0x4 DUP1 CALLDATASIZE SUB DUP2 ADD SWAP1 PUSH2 0x107 SWAP2 SWAP1 PUSH2 0xFFF JUMP JUMPDEST PUSH2 0x7F5 JUMP JUMPDEST PUSH1 0x40 MLOAD PUSH2 0x119 SWAP2 SWAP1 PUSH2 0x103B JUMP JUMPDEST PUSH1 0x40 MLOAD DUP1 SWAP2 SUB SWAP1 RETURN JUMPDEST CALLVALUE DUP1 ISZERO PUSH2 0x12E JUMPI PUSH1 0x0 DUP1 REVERT JUMPDEST POP PUSH2 0x149 PUSH1 0x4 DUP1 CALLDATASIZE SUB DUP2 ADD SWAP1 PUSH2 0x144 SWAP2 SWAP1 PUSH2 0x1056 JUMP JUMPDEST PUSH2 0x815 JUMP JUMPDEST STOP JUMPDEST CALLVALUE DUP1 ISZERO PUSH2 0x157 JUMPI PUSH1 0x0 DUP1 REVERT JUMPDEST POP PUSH2 0x172 PUSH1 0x4 DUP1 CALLDATASIZE SUB DUP2 ADD SWAP1 PUSH2 0x16D SWAP2 SWAP1 PUSH2 0x10F4 JUMP JUMPDEST PUSH2 0x8C2 JUMP JUMPDEST PUSH1 0x40 MLOAD PUSH2 0x17F SWAP2 SWAP1 PUSH2 0x119E JUMP JUMPDEST PUSH1 0x40 MLOAD DUP1 SWAP2 SUB SWAP1 RETURN JUMPDEST CALLVALUE DUP1 ISZERO PUSH2 0x194 JUMPI PUSH1 0x0 DUP1 REVERT JUMPDEST POP PUSH2 0x1AF PUSH1 0x4 DUP1 CALLDATASIZE SUB DUP2 ADD SWAP1 PUSH2 0x1AA SWAP2 SWAP1 PUSH2 0xFFF JUMP JUMPDEST PUSH2 0xA76 JUMP JUMPDEST PUSH1 0x40 MLOAD PUSH2 0x1BF SWAP5 SWAP4 SWAP3 SWAP2 SWAP1 PUSH2 0x1219 JUMP JUMPDEST PUSH1 0x40 MLOAD DUP1 SWAP2 SUB SWAP1 RETURN JUMPDEST PUSH1 0x0 DUP1 SLOAD SWAP1 PUSH2 0x100 EXP SWAP1 DIV PUSH20 0xFFFFFFFFFFFFFFFFFFFFFFFFFFFFFFFFFFFFFFFF AND PUSH20 0xFFFFFFFFFFFFFFFFFFFFFFFFFFFFFFFFFFFFFFFF AND CALLER PUSH20 0xFFFFFFFFFFFFFFFFFFFFFFFFFFFFFFFFFFFFFFFF AND EQ PUSH2 0x256 JUMPI PUSH1 0x40 MLOAD PUSH32 0x8C379A000000000000000000000000000000000000000000000000000000000 DUP2 MSTORE PUSH1 0x4 ADD PUSH2 0x24D SWAP1 PUSH2 0x12B8 JUMP JUMPDEST PUSH1 0x40 MLOAD DUP1 SWAP2 SUB SWAP1 REVERT JUMPDEST PUSH1 0x40 MLOAD DUP1 PUSH1 0x80 ADD PUSH1 0x40 MSTORE DUP1 DUP5 DUP2 MSTORE PUSH1 0x20 ADD DUP4 DUP2 MSTORE PUSH1 0x20 ADD DUP3 DUP2 MSTORE PUSH1 0x20 ADD PUSH1 0x1 ISZERO ISZERO DUP2 MSTORE POP PUSH1 0x2 PUSH1 0x0 PUSH1 0x3 SLOAD DUP2 MSTORE PUSH1 0x20 ADD SWAP1 DUP2 MSTORE PUSH1 0x20 ADD PUSH1 0x0 KECCAK256 PUSH1 0x0 DUP3 ADD MLOAD DUP2 PUSH1 0x0 ADD SWAP1 DUP2 PUSH2 0x2A4 SWAP2 SWAP1 PUSH2 0x14E4 JUMP JUMPDEST POP PUSH1 0x20 DUP3 ADD MLOAD DUP2 PUSH1 0x1 ADD SWAP1 DUP2 PUSH2 0x2BA SWAP2 SWAP1 PUSH2 0x14E4 JUMP JUMPDEST POP PUSH1 0x40 DUP3 ADD MLOAD DUP2 PUSH1 0x2 ADD SSTORE PUSH1 0x60 DUP3 ADD MLOAD DUP2 PUSH1 0x3 ADD PUSH1 0x0 PUSH2 0x100 EXP DUP2 SLOAD DUP2 PUSH1 0xFF MUL NOT AND SWAP1 DUP4 ISZERO ISZERO MUL OR SWAP1 SSTORE POP SWAP1 POP POP PUSH1 0x3 PUSH1 0x0 DUP2 SLOAD DUP1 SWAP3 SWAP2 SWAP1 PUSH2 0x2FB SWAP1 PUSH2 0x15E5 JUMP JUMPDEST SWAP2 SWAP1 POP SSTORE POP POP POP POP JUMP JUMPDEST PUSH1 0x60 PUSH1 0x0 PUSH1 0x1 PUSH1 0x3 SLOAD PUSH2 0x318 SWAP2 SWAP1 PUSH2 0x162D JUMP JUMPDEST PUSH8 0xFFFFFFFFFFFFFFFF DUP2 GT ISZERO PUSH2 0x331 JUMPI PUSH2 0x330 PUSH2 0xC1C JUMP JUMPDEST JUMPDEST PUSH1 0x40 MLOAD SWAP1 DUP1 DUP3 MSTORE DUP1 PUSH1 0x20 MUL PUSH1 0x20 ADD DUP3 ADD PUSH1 0x40 MSTORE DUP1 ISZERO PUSH2 0x36A JUMPI DUP2 PUSH1 0x20 ADD JUMPDEST PUSH2 0x357 PUSH2 0xBC3 JUMP JUMPDEST DUP2 MSTORE PUSH1 0x20 ADD SWAP1 PUSH1 0x1 SWAP1 SUB SWAP1 DUP2 PUSH2 0x34F JUMPI SWAP1 POP JUMPDEST POP SWAP1 POP PUSH1 0x0 PUSH1 0x1 SWAP1 POP JUMPDEST PUSH1 0x3 SLOAD DUP2 LT ISZERO PUSH2 0x522 JUMPI PUSH1 0x2 PUSH1 0x0 DUP3 DUP2 MSTORE PUSH1 0x20 ADD SWAP1 DUP2 MSTORE PUSH1 0x20 ADD PUSH1 0x0 KECCAK256 PUSH1 0x40 MLOAD DUP1 PUSH1 0x80 ADD PUSH1 0x40 MSTORE SWAP1 DUP2 PUSH1 0x0 DUP3 ADD DUP1 SLOAD PUSH2 0x3AC SWAP1 PUSH2 0x1307 JUMP JUMPDEST DUP1 PUSH1 0x1F ADD PUSH1 0x20 DUP1 SWAP2 DIV MUL PUSH1 0x20 ADD PUSH1 0x40 MLOAD SWAP1 DUP2 ADD PUSH1 0x40 MSTORE DUP1 SWAP3 SWAP2 SWAP1 DUP2 DUP2 MSTORE PUSH1 0x20 ADD DUP3 DUP1 SLOAD PUSH2 0x3D8 SWAP1 PUSH2 0x1307 JUMP JUMPDEST DUP1 ISZERO PUSH2 0x425 JUMPI DUP1 PUSH1 0x1F LT PUSH2 0x3FA JUMPI PUSH2 0x100 DUP1 DUP4 SLOAD DIV MUL DUP4 MSTORE SWAP2 PUSH1 0x20 ADD SWAP2 PUSH2 0x425 JUMP JUMPDEST DUP3 ADD SWAP2 SWAP1 PUSH1 0x0 MSTORE PUSH1 0x20 PUSH1 0x0 KECCAK256 SWAP1 JUMPDEST DUP2 SLOAD DUP2 MSTORE SWAP1 PUSH1 0x1 ADD SWAP1 PUSH1 0x20 ADD DUP1 DUP4 GT PUSH2 0x408 JUMPI DUP3 SWAP1 SUB PUSH1 0x1F AND DUP3 ADD SWAP2 JUMPDEST POP POP POP POP POP DUP2 MSTORE PUSH1 0x20 ADD PUSH1 0x1 DUP3 ADD DUP1 SLOAD PUSH2 0x43E SWAP1 PUSH2 0x1307 JUMP JUMPDEST DUP1 PUSH1 0x1F ADD PUSH1 0x20 DUP1 SWAP2 DIV MUL PUSH1 0x20 ADD PUSH1 0x40 MLOAD SWAP1 DUP2 ADD PUSH1 0x40 MSTORE DUP1 SWAP3 SWAP2 SWAP1 DUP2 DUP2 MSTORE PUSH1 0x20 ADD DUP3 DUP1 SLOAD PUSH2 0x46A SWAP1 PUSH2 0x1307 JUMP JUMPDEST DUP1 ISZERO PUSH2 0x4B7 JUMPI DUP1 PUSH1 0x1F LT PUSH2 0x48C JUMPI PUSH2 0x100 DUP1 DUP4 SLOAD DIV MUL DUP4 MSTORE SWAP2 PUSH1 0x20 ADD SWAP2 PUSH2 0x4B7 JUMP JUMPDEST DUP3 ADD SWAP2 SWAP1 PUSH1 0x0 MSTORE PUSH1 0x20 PUSH1 0x0 KECCAK256 SWAP1 JUMPDEST DUP2 SLOAD DUP2 MSTORE SWAP1 PUSH1 0x1 ADD SWAP1 PUSH1 0x20 ADD DUP1 DUP4 GT PUSH2 0x49A JUMPI DUP3 SWAP1 SUB PUSH1 0x1F AND DUP3 ADD SWAP2 JUMPDEST POP POP POP POP POP DUP2 MSTORE PUSH1 0x20 ADD PUSH1 0x2 DUP3 ADD SLOAD DUP2 MSTORE PUSH1 0x20 ADD PUSH1 0x3 DUP3 ADD PUSH1 0x0 SWAP1 SLOAD SWAP1 PUSH2 0x100 EXP SWAP1 DIV PUSH1 0xFF AND ISZERO ISZERO ISZERO ISZERO DUP2 MSTORE POP POP DUP3 PUSH1 0x1 DUP4 PUSH2 0x4F3 SWAP2 SWAP1 PUSH2 0x162D JUMP JUMPDEST DUP2 MLOAD DUP2 LT PUSH2 0x504 JUMPI PUSH2 0x503 PUSH2 0x1661 JUMP JUMPDEST JUMPDEST PUSH1 0x20 MUL PUSH1 0x20 ADD ADD DUP2 SWAP1 MSTORE POP DUP1 DUP1 PUSH2 0x51A SWAP1 PUSH2 0x15E5 JUMP JUMPDEST SWAP2 POP POP PUSH2 0x374 JUMP JUMPDEST POP DUP1 SWAP2 POP POP SWAP1 JUMP JUMPDEST PUSH1 0x0 DUP1 SLOAD SWAP1 PUSH2 0x100 EXP SWAP1 DIV PUSH20 0xFFFFFFFFFFFFFFFFFFFFFFFFFFFFFFFFFFFFFFFF AND PUSH20 0xFFFFFFFFFFFFFFFFFFFFFFFFFFFFFFFFFFFFFFFF AND CALLER PUSH20 0xFFFFFFFFFFFFFFFFFFFFFFFFFFFFFFFFFFFFFFFF AND SUB PUSH2 0x5B8 JUMPI PUSH1 0x40 MLOAD PUSH32 0x8C379A000000000000000000000000000000000000000000000000000000000 DUP2 MSTORE PUSH1 0x4 ADD PUSH2 0x5AF SWAP1 PUSH2 0x1702 JUMP JUMPDEST PUSH1 0x40 MLOAD DUP1 SWAP2 SUB SWAP1 REVERT JUMPDEST PUSH1 0x2 PUSH1 0x0 DUP3 DUP2 MSTORE PUSH1 0x20 ADD SWAP1 DUP2 MSTORE PUSH1 0x20 ADD PUSH1 0x0 KECCAK256 PUSH1 0x2 ADD SLOAD CALLVALUE LT ISZERO PUSH2 0x611 JUMPI PUSH1 0x40 MLOAD PUSH32 0x8C379A000000000000000000000000000000000000000000000000000000000 DUP2 MSTORE PUSH1 0x4 ADD PUSH2 0x608 SWAP1 PUSH2 0x176E JUMP JUMPDEST PUSH1 0x40 MLOAD DUP1 SWAP2 SUB SWAP1 REVERT JUMPDEST PUSH1 0x1 ISZERO ISZERO PUSH1 0x2 PUSH1 0x0 DUP4 DUP2 MSTORE PUSH1 0x20 ADD SWAP1 DUP2 MSTORE PUSH1 0x20 ADD PUSH1 0x0 KECCAK256 PUSH1 0x3 ADD PUSH1 0x0 SWAP1 SLOAD SWAP1 PUSH2 0x100 EXP SWAP1 DIV PUSH1 0xFF AND ISZERO ISZERO EQ PUSH2 0x67B JUMPI PUSH1 0x40 MLOAD PUSH32 0x8C379A000000000000000000000000000000000000000000000000000000000 DUP2 MSTORE PUSH1 0x4 ADD PUSH2 0x672 SWAP1 PUSH2 0x17DA JUMP JUMPDEST PUSH1 0x40 MLOAD DUP1 SWAP2 SUB SWAP1 REVERT JUMPDEST PUSH1 0x0 DUP1 SLOAD SWAP1 PUSH2 0x100 EXP SWAP1 DIV PUSH20 0xFFFFFFFFFFFFFFFFFFFFFFFFFFFFFFFFFFFFFFFF AND PUSH20 0xFFFFFFFFFFFFFFFFFFFFFFFFFFFFFFFFFFFFFFFF AND PUSH2 0x8FC CALLVALUE SWAP1 DUP2 ISZERO MUL SWAP1 PUSH1 0x40 MLOAD PUSH1 0x0 PUSH1 0x40 MLOAD DUP1 DUP4 SUB DUP2 DUP6 DUP9 DUP9 CALL SWAP4 POP POP POP POP ISZERO DUP1 ISZERO PUSH2 0x6E1 JUMPI RETURNDATASIZE PUSH1 0x0 DUP1 RETURNDATACOPY RETURNDATASIZE PUSH1 0x0 REVERT JUMPDEST POP PUSH1 0x0 PUSH1 0x2 PUSH1 0x0 DUP4 DUP2 MSTORE PUSH1 0x20 ADD SWAP1 DUP2 MSTORE PUSH1 0x20 ADD PUSH1 0x0 KECCAK256 PUSH1 0x3 ADD PUSH1 0x0 PUSH2 0x100 EXP DUP2 SLOAD DUP2 PUSH1 0xFF MUL NOT AND SWAP1 DUP4 ISZERO ISZERO MUL OR SWAP1 SSTORE POP PUSH1 0x2 PUSH1 0x0 DUP3 DUP2 MSTORE PUSH1 0x20 ADD SWAP1 DUP2 MSTORE PUSH1 0x20 ADD PUSH1 0x0 KECCAK256 PUSH1 0x1 PUSH1 0x0 CALLER PUSH20 0xFFFFFFFFFFFFFFFFFFFFFFFFFFFFFFFFFFFFFFFF AND PUSH20 0xFFFFFFFFFFFFFFFFFFFFFFFFFFFFFFFFFFFFFFFF AND DUP2 MSTORE PUSH1 0x20 ADD SWAP1 DUP2 MSTORE PUSH1 0x20 ADD PUSH1 0x0 KECCAK256 PUSH1 0x0 PUSH1 0x4 SLOAD DUP2 MSTORE PUSH1 0x20 ADD SWAP1 DUP2 MSTORE PUSH1 0x20 ADD PUSH1 0x0 KECCAK256 PUSH1 0x0 DUP3 ADD DUP2 PUSH1 0x0 ADD SWAP1 DUP2 PUSH2 0x78A SWAP2 SWAP1 PUSH2 0x1810 JUMP JUMPDEST POP PUSH1 0x1 DUP3 ADD DUP2 PUSH1 0x1 ADD SWAP1 DUP2 PUSH2 0x79F SWAP2 SWAP1 PUSH2 0x1810 JUMP JUMPDEST POP PUSH1 0x2 DUP3 ADD SLOAD DUP2 PUSH1 0x2 ADD SSTORE PUSH1 0x3 DUP3 ADD PUSH1 0x0 SWAP1 SLOAD SWAP1 PUSH2 0x100 EXP SWAP1 DIV PUSH1 0xFF AND DUP2 PUSH1 0x3 ADD PUSH1 0x0 PUSH2 0x100 EXP DUP2 SLOAD DUP2 PUSH1 0xFF MUL NOT AND SWAP1 DUP4 ISZERO ISZERO MUL OR SWAP1 SSTORE POP SWAP1 POP POP PUSH1 0x4 PUSH1 0x0 DUP2 SLOAD DUP1 SWAP3 SWAP2 SWAP1 PUSH2 0x7ED SWAP1 PUSH2 0x15E5 JUMP JUMPDEST SWAP2 SWAP1 POP SSTORE POP POP JUMP JUMPDEST PUSH1 0x0 PUSH1 0x2 PUSH1 0x0 DUP4 DUP2 MSTORE PUSH1 0x20 ADD SWAP1 DUP2 MSTORE PUSH1 0x20 ADD PUSH1 0x0 KECCAK256 PUSH1 0x2 ADD SLOAD SWAP1 POP SWAP2 SWAP1 POP JUMP JUMPDEST PUSH1 0x0 DUP1 SLOAD SWAP1 PUSH2 0x100 EXP SWAP1 DIV PUSH20 0xFFFFFFFFFFFFFFFFFFFFFFFFFFFFFFFFFFFFFFFF AND PUSH20 0xFFFFFFFFFFFFFFFFFFFFFFFFFFFFFFFFFFFFFFFF AND CALLER PUSH20 0xFFFFFFFFFFFFFFFFFFFFFFFFFFFFFFFFFFFFFFFF AND EQ PUSH2 0x8A3 JUMPI PUSH1 0x40 MLOAD PUSH32 0x8C379A000000000000000000000000000000000000000000000000000000000 DUP2 MSTORE PUSH1 0x4 ADD PUSH2 0x89A SWAP1 PUSH2 0x12B8 JUMP JUMPDEST PUSH1 0x40 MLOAD DUP1 SWAP2 SUB SWAP1 REVERT JUMPDEST DUP1 PUSH1 0x2 PUSH1 0x0 DUP5 DUP2 MSTORE PUSH1 0x20 ADD SWAP1 DUP2 MSTORE PUSH1 0x20 ADD PUSH1 0x0 KECCAK256 PUSH1 0x2 ADD DUP2 SWAP1 SSTORE POP POP POP JUMP JUMPDEST PUSH2 0x8CA PUSH2 0xBC3 JUMP JUMPDEST PUSH1 0x1 PUSH1 0x0 DUP5 PUSH20 0xFFFFFFFFFFFFFFFFFFFFFFFFFFFFFFFFFFFFFFFF AND PUSH20 0xFFFFFFFFFFFFFFFFFFFFFFFFFFFFFFFFFFFFFFFF AND DUP2 MSTORE PUSH1 0x20 ADD SWAP1 DUP2 MSTORE PUSH1 0x20 ADD PUSH1 0x0 KECCAK256 PUSH1 0x0 DUP4 DUP2 MSTORE PUSH1 0x20 ADD SWAP1 DUP2 MSTORE PUSH1 0x20 ADD PUSH1 0x0 KECCAK256 PUSH1 0x40 MLOAD DUP1 PUSH1 0x80 ADD PUSH1 0x40 MSTORE SWAP1 DUP2 PUSH1 0x0 DUP3 ADD DUP1 SLOAD PUSH2 0x935 SWAP1 PUSH2 0x1307 JUMP JUMPDEST DUP1 PUSH1 0x1F ADD PUSH1 0x20 DUP1 SWAP2 DIV MUL PUSH1 0x20 ADD PUSH1 0x40 MLOAD SWAP1 DUP2 ADD PUSH1 0x40 MSTORE DUP1 SWAP3 SWAP2 SWAP1 DUP2 DUP2 MSTORE PUSH1 0x20 ADD DUP3 DUP1 SLOAD PUSH2 0x961 SWAP1 PUSH2 0x1307 JUMP JUMPDEST DUP1 ISZERO PUSH2 0x9AE JUMPI DUP1 PUSH1 0x1F LT PUSH2 0x983 JUMPI PUSH2 0x100 DUP1 DUP4 SLOAD DIV MUL DUP4 MSTORE SWAP2 PUSH1 0x20 ADD SWAP2 PUSH2 0x9AE JUMP JUMPDEST DUP3 ADD SWAP2 SWAP1 PUSH1 0x0 MSTORE PUSH1 0x20 PUSH1 0x0 KECCAK256 SWAP1 JUMPDEST DUP2 SLOAD DUP2 MSTORE SWAP1 PUSH1 0x1 ADD SWAP1 PUSH1 0x20 ADD DUP1 DUP4 GT PUSH2 0x991 JUMPI DUP3 SWAP1 SUB PUSH1 0x1F AND DUP3 ADD SWAP2 JUMPDEST POP POP POP POP POP DUP2 MSTORE PUSH1 0x20 ADD PUSH1 0x1 DUP3 ADD DUP1 SLOAD PUSH2 0x9C7 SWAP1 PUSH2 0x1307 JUMP JUMPDEST DUP1 PUSH1 0x1F ADD PUSH1 0x20 DUP1 SWAP2 DIV MUL PUSH1 0x20 ADD PUSH1 0x40 MLOAD SWAP1 DUP2 ADD PUSH1 0x40 MSTORE DUP1 SWAP3 SWAP2 SWAP1 DUP2 DUP2 MSTORE PUSH1 0x20 ADD DUP3 DUP1 SLOAD PUSH2 0x9F3 SWAP1 PUSH2 0x1307 JUMP JUMPDEST DUP1 ISZERO PUSH2 0xA40 JUMPI DUP1 PUSH1 0x1F LT PUSH2 0xA15 JUMPI PUSH2 0x100 DUP1 DUP4 SLOAD DIV MUL DUP4 MSTORE SWAP2 PUSH1 0x20 ADD SWAP2 PUSH2 0xA40 JUMP JUMPDEST DUP3 ADD SWAP2 SWAP1 PUSH1 0x0 MSTORE PUSH1 0x20 PUSH1 0x0 KECCAK256 SWAP1 JUMPDEST DUP2 SLOAD DUP2 MSTORE SWAP1 PUSH1 0x1 ADD SWAP1 PUSH1 0x20 ADD DUP1 DUP4 GT PUSH2 0xA23 JUMPI DUP3 SWAP1 SUB PUSH1 0x1F AND DUP3 ADD SWAP2 JUMPDEST POP POP POP POP POP DUP2 MSTORE PUSH1 0x20 ADD PUSH1 0x2 DUP3 ADD SLOAD DUP2 MSTORE PUSH1 0x20 ADD PUSH1 0x3 DUP3 ADD PUSH1 0x0 SWAP1 SLOAD SWAP1 PUSH2 0x100 EXP SWAP1 DIV PUSH1 0xFF AND ISZERO ISZERO ISZERO ISZERO DUP2 MSTORE POP POP SWAP1 POP SWAP3 SWAP2 POP POP JUMP JUMPDEST PUSH1 0x2 PUSH1 0x20 MSTORE DUP1 PUSH1 0x0 MSTORE PUSH1 0x40 PUSH1 0x0 KECCAK256 PUSH1 0x0 SWAP2 POP SWAP1 POP DUP1 PUSH1 0x0 ADD DUP1 SLOAD PUSH2 0xA99 SWAP1 PUSH2 0x1307 JUMP JUMPDEST DUP1 PUSH1 0x1F ADD PUSH1 0x20 DUP1 SWAP2 DIV MUL PUSH1 0x20 ADD PUSH1 0x40 MLOAD SWAP1 DUP2 ADD PUSH1 0x40 MSTORE DUP1 SWAP3 SWAP2 SWAP1 DUP2 DUP2 MSTORE PUSH1 0x20 ADD DUP3 DUP1 SLOAD PUSH2 0xAC5 SWAP1 PUSH2 0x1307 JUMP JUMPDEST DUP1 ISZERO PUSH2 0xB12 JUMPI DUP1 PUSH1 0x1F LT PUSH2 0xAE7 JUMPI PUSH2 0x100 DUP1 DUP4 SLOAD DIV MUL DUP4 MSTORE SWAP2 PUSH1 0x20 ADD SWAP2 PUSH2 0xB12 JUMP JUMPDEST DUP3 ADD SWAP2 SWAP1 PUSH1 0x0 MSTORE PUSH1 0x20 PUSH1 0x0 KECCAK256 SWAP1 JUMPDEST DUP2 SLOAD DUP2 MSTORE SWAP1 PUSH1 0x1 ADD SWAP1 PUSH1 0x20 ADD DUP1 DUP4 GT PUSH2 0xAF5 JUMPI DUP3 SWAP1 SUB PUSH1 0x1F AND DUP3 ADD SWAP2 JUMPDEST POP POP POP POP POP SWAP1 DUP1 PUSH1 0x1 ADD DUP1 SLOAD PUSH2 0xB27 SWAP1 PUSH2 0x1307 JUMP JUMPDEST DUP1 PUSH1 0x1F ADD PUSH1 0x20 DUP1 SWAP2 DIV MUL PUSH1 0x20 ADD PUSH1 0x40 MLOAD SWAP1 DUP2 ADD PUSH1 0x40 MSTORE DUP1 SWAP3 SWAP2 SWAP1 DUP2 DUP2 MSTORE PUSH1 0x20 ADD DUP3 DUP1 SLOAD PUSH2 0xB53 SWAP1 PUSH2 0x1307 JUMP JUMPDEST DUP1 ISZERO PUSH2 0xBA0 JUMPI DUP1 PUSH1 0x1F LT PUSH2 0xB75 JUMPI PUSH2 0x100 DUP1 DUP4 SLOAD DIV MUL DUP4 MSTORE SWAP2 PUSH1 0x20 ADD SWAP2 PUSH2 0xBA0 JUMP JUMPDEST DUP3 ADD SWAP2 SWAP1 PUSH1 0x0 MSTORE PUSH1 0x20 PUSH1 0x0 KECCAK256 SWAP1 JUMPDEST DUP2 SLOAD DUP2 MSTORE SWAP1 PUSH1 0x1 ADD SWAP1 PUSH1 0x20 ADD DUP1 DUP4 GT PUSH2 0xB83 JUMPI DUP3 SWAP1 SUB PUSH1 0x1F AND DUP3 ADD SWAP2 JUMPDEST POP POP POP POP POP SWAP1 DUP1 PUSH1 0x2 ADD SLOAD SWAP1 DUP1 PUSH1 0x3 ADD PUSH1 0x0 SWAP1 SLOAD SWAP1 PUSH2 0x100 EXP SWAP1 DIV PUSH1 0xFF AND SWAP1 POP DUP5 JUMP JUMPDEST PUSH1 0x40 MLOAD DUP1 PUSH1 0x80 ADD PUSH1 0x40 MSTORE DUP1 PUSH1 0x60 DUP2 MSTORE PUSH1 0x20 ADD PUSH1 0x60 DUP2 MSTORE PUSH1 0x20 ADD PUSH1 0x0 DUP2 MSTORE PUSH1 0x20 ADD PUSH1 0x0 ISZERO ISZERO DUP2 MSTORE POP SWAP1 JUMP JUMPDEST PUSH1 0x0 PUSH1 0x40 MLOAD SWAP1 POP SWAP1 JUMP JUMPDEST PUSH1 0x0 DUP1 REVERT JUMPDEST PUSH1 0x0 DUP1 REVERT JUMPDEST PUSH1 0x0 DUP1 REVERT JUMPDEST PUSH1 0x0 DUP1 REVERT JUMPDEST PUSH1 0x0 PUSH1 0x1F NOT PUSH1 0x1F DUP4 ADD AND SWAP1 POP SWAP2 SWAP1 POP JUMP JUMPDEST PUSH32 0x4E487B7100000000000000000000000000000000000000000000000000000000 PUSH1 0x0 MSTORE PUSH1 0x41 PUSH1 0x4 MSTORE PUSH1 0x24 PUSH1 0x0 REVERT JUMPDEST PUSH2 0xC54 DUP3 PUSH2 0xC0B JUMP JUMPDEST DUP2 ADD DUP2 DUP2 LT PUSH8 0xFFFFFFFFFFFFFFFF DUP3 GT OR ISZERO PUSH2 0xC73 JUMPI PUSH2 0xC72 PUSH2 0xC1C JUMP JUMPDEST JUMPDEST DUP1 PUSH1 0x40 MSTORE POP POP POP JUMP JUMPDEST PUSH1 0x0 PUSH2 0xC86 PUSH2 0xBED JUMP JUMPDEST SWAP1 POP PUSH2 0xC92 DUP3 DUP3 PUSH2 0xC4B JUMP JUMPDEST SWAP2 SWAP1 POP JUMP JUMPDEST PUSH1 0x0 PUSH8 0xFFFFFFFFFFFFFFFF DUP3 GT ISZERO PUSH2 0xCB2 JUMPI PUSH2 0xCB1 PUSH2 0xC1C JUMP JUMPDEST JUMPDEST PUSH2 0xCBB DUP3 PUSH2 0xC0B JUMP JUMPDEST SWAP1 POP PUSH1 0x20 DUP2 ADD SWAP1 POP SWAP2 SWAP1 POP JUMP JUMPDEST DUP3 DUP2 DUP4 CALLDATACOPY PUSH1 0x0 DUP4 DUP4 ADD MSTORE POP POP POP JUMP JUMPDEST PUSH1 0x0 PUSH2 0xCEA PUSH2 0xCE5 DUP5 PUSH2 0xC97 JUMP JUMPDEST PUSH2 0xC7C JUMP JUMPDEST SWAP1 POP DUP3 DUP2 MSTORE PUSH1 0x20 DUP2 ADD DUP5 DUP5 DUP5 ADD GT ISZERO PUSH2 0xD06 JUMPI PUSH2 0xD05 PUSH2 0xC06 JUMP JUMPDEST JUMPDEST PUSH2 0xD11 DUP5 DUP3 DUP6 PUSH2 0xCC8 JUMP JUMPDEST POP SWAP4 SWAP3 POP POP POP JUMP JUMPDEST PUSH1 0x0 DUP3 PUSH1 0x1F DUP4 ADD SLT PUSH2 0xD2E JUMPI PUSH2 0xD2D PUSH2 0xC01 JUMP JUMPDEST JUMPDEST DUP2 CALLDATALOAD PUSH2 0xD3E DUP5 DUP3 PUSH1 0x20 DUP7 ADD PUSH2 0xCD7 JUMP JUMPDEST SWAP2 POP POP SWAP3 SWAP2 POP POP JUMP JUMPDEST PUSH1 0x0 DUP2 SWAP1 POP SWAP2 SWAP1 POP JUMP JUMPDEST PUSH2 0xD5A DUP2 PUSH2 0xD47 JUMP JUMPDEST DUP2 EQ PUSH2 0xD65 JUMPI PUSH1 0x0 DUP1 REVERT JUMPDEST POP JUMP JUMPDEST PUSH1 0x0 DUP2 CALLDATALOAD SWAP1 POP PUSH2 0xD77 DUP2 PUSH2 0xD51 JUMP JUMPDEST SWAP3 SWAP2 POP POP JUMP JUMPDEST PUSH1 0x0 DUP1 PUSH1 0x0 PUSH1 0x60 DUP5 DUP7 SUB SLT ISZERO PUSH2 0xD96 JUMPI PUSH2 0xD95 PUSH2 0xBF7 JUMP JUMPDEST JUMPDEST PUSH1 0x0 DUP5 ADD CALLDATALOAD PUSH8 0xFFFFFFFFFFFFFFFF DUP2 GT ISZERO PUSH2 0xDB4 JUMPI PUSH2 0xDB3 PUSH2 0xBFC JUMP JUMPDEST JUMPDEST PUSH2 0xDC0 DUP7 DUP3 DUP8 ADD PUSH2 0xD19 JUMP JUMPDEST SWAP4 POP POP PUSH1 0x20 DUP5 ADD CALLDATALOAD PUSH8 0xFFFFFFFFFFFFFFFF DUP2 GT ISZERO PUSH2 0xDE1 JUMPI PUSH2 0xDE0 PUSH2 0xBFC JUMP JUMPDEST JUMPDEST PUSH2 0xDED DUP7 DUP3 DUP8 ADD PUSH2 0xD19 JUMP JUMPDEST SWAP3 POP POP PUSH1 0x40 PUSH2 0xDFE DUP7 DUP3 DUP8 ADD PUSH2 0xD68 JUMP JUMPDEST SWAP2 POP POP SWAP3 POP SWAP3 POP SWAP3 JUMP JUMPDEST PUSH1 0x0 DUP2 MLOAD SWAP1 POP SWAP2 SWAP1 POP JUMP JUMPDEST PUSH1 0x0 DUP3 DUP3 MSTORE PUSH1 0x20 DUP3 ADD SWAP1 POP SWAP3 SWAP2 POP POP JUMP JUMPDEST PUSH1 0x0 DUP2 SWAP1 POP PUSH1 0x20 DUP3 ADD SWAP1 POP SWAP2 SWAP1 POP JUMP JUMPDEST PUSH1 0x0 DUP2 MLOAD SWAP1 POP SWAP2 SWAP1 POP JUMP JUMPDEST PUSH1 0x0 DUP3 DUP3 MSTORE PUSH1 0x20 DUP3 ADD SWAP1 POP SWAP3 SWAP2 POP POP JUMP JUMPDEST PUSH1 0x0 JUMPDEST DUP4 DUP2 LT ISZERO PUSH2 0xE6E JUMPI DUP1 DUP3 ADD MLOAD DUP2 DUP5 ADD MSTORE PUSH1 0x20 DUP2 ADD SWAP1 POP PUSH2 0xE53 JUMP JUMPDEST PUSH1 0x0 DUP5 DUP5 ADD MSTORE POP POP POP POP JUMP JUMPDEST PUSH1 0x0 PUSH2 0xE85 DUP3 PUSH2 0xE34 JUMP JUMPDEST PUSH2 0xE8F DUP2 DUP6 PUSH2 0xE3F JUMP JUMPDEST SWAP4 POP PUSH2 0xE9F DUP2 DUP6 PUSH1 0x20 DUP7 ADD PUSH2 0xE50 JUMP JUMPDEST PUSH2 0xEA8 DUP2 PUSH2 0xC0B JUMP JUMPDEST DUP5 ADD SWAP2 POP POP SWAP3 SWAP2 POP POP JUMP JUMPDEST PUSH2 0xEBC DUP2 PUSH2 0xD47 JUMP JUMPDEST DUP3 MSTORE POP POP JUMP JUMPDEST PUSH1 0x0 DUP2 ISZERO ISZERO SWAP1 POP SWAP2 SWAP1 POP JUMP JUMPDEST PUSH2 0xED7 DUP2 PUSH2 0xEC2 JUMP JUMPDEST DUP3 MSTORE POP POP JUMP JUMPDEST PUSH1 0x0 PUSH1 0x80 DUP4 ADD PUSH1 0x0 DUP4 ADD MLOAD DUP5 DUP3 SUB PUSH1 0x0 DUP7 ADD MSTORE PUSH2 0xEFA DUP3 DUP3 PUSH2 0xE7A JUMP JUMPDEST SWAP2 POP POP PUSH1 0x20 DUP4 ADD MLOAD DUP5 DUP3 SUB PUSH1 0x20 DUP7 ADD MSTORE PUSH2 0xF14 DUP3 DUP3 PUSH2 0xE7A JUMP JUMPDEST SWAP2 POP POP PUSH1 0x40 DUP4 ADD MLOAD PUSH2 0xF29 PUSH1 0x40 DUP7 ADD DUP3 PUSH2 0xEB3 JUMP JUMPDEST POP PUSH1 0x60 DUP4 ADD MLOAD PUSH2 0xF3C PUSH1 0x60 DUP7 ADD DUP3 PUSH2 0xECE JUMP JUMPDEST POP DUP1 SWAP2 POP POP SWAP3 SWAP2 POP POP JUMP JUMPDEST PUSH1 0x0 PUSH2 0xF53 DUP4 DUP4 PUSH2 0xEDD JUMP JUMPDEST SWAP1 POP SWAP3 SWAP2 POP POP JUMP JUMPDEST PUSH1 0x0 PUSH1 0x20 DUP3 ADD SWAP1 POP SWAP2 SWAP1 POP JUMP JUMPDEST PUSH1 0x0 PUSH2 0xF73 DUP3 PUSH2 0xE08 JUMP JUMPDEST PUSH2 0xF7D DUP2 DUP6 PUSH2 0xE13 JUMP JUMPDEST SWAP4 POP DUP4 PUSH1 0x20 DUP3 MUL DUP6 ADD PUSH2 0xF8F DUP6 PUSH2 0xE24 JUMP JUMPDEST DUP1 PUSH1 0x0 JUMPDEST DUP6 DUP2 LT ISZERO PUSH2 0xFCB JUMPI DUP5 DUP5 SUB DUP10 MSTORE DUP2 MLOAD PUSH2 0xFAC DUP6 DUP3 PUSH2 0xF47 JUMP JUMPDEST SWAP5 POP PUSH2 0xFB7 DUP4 PUSH2 0xF5B JUMP JUMPDEST SWAP3 POP PUSH1 0x20 DUP11 ADD SWAP10 POP POP PUSH1 0x1 DUP2 ADD SWAP1 POP PUSH2 0xF93 JUMP JUMPDEST POP DUP3 SWAP8 POP DUP8 SWAP6 POP POP POP POP POP POP SWAP3 SWAP2 POP POP JUMP JUMPDEST PUSH1 0x0 PUSH1 0x20 DUP3 ADD SWAP1 POP DUP2 DUP2 SUB PUSH1 0x0 DUP4 ADD MSTORE PUSH2 0xFF7 DUP2 DUP5 PUSH2 0xF68 JUMP JUMPDEST SWAP1 POP SWAP3 SWAP2 POP POP JUMP JUMPDEST PUSH1 0x0 PUSH1 0x20 DUP3 DUP5 SUB SLT ISZERO PUSH2 0x1015 JUMPI PUSH2 0x1014 PUSH2 0xBF7 JUMP JUMPDEST JUMPDEST PUSH1 0x0 PUSH2 0x1023 DUP5 DUP3 DUP6 ADD PUSH2 0xD68 JUMP JUMPDEST SWAP2 POP POP SWAP3 SWAP2 POP POP JUMP JUMPDEST PUSH2 0x1035 DUP2 PUSH2 0xD47 JUMP JUMPDEST DUP3 MSTORE POP POP JUMP JUMPDEST PUSH1 0x0 PUSH1 0x20 DUP3 ADD SWAP1 POP PUSH2 0x1050 PUSH1 0x0 DUP4 ADD DUP5 PUSH2 0x102C JUMP JUMPDEST SWAP3 SWAP2 POP POP JUMP JUMPDEST PUSH1 0x0 DUP1 PUSH1 0x40 DUP4 DUP6 SUB SLT ISZERO PUSH2 0x106D JUMPI PUSH2 0x106C PUSH2 0xBF7 JUMP JUMPDEST JUMPDEST PUSH1 0x0 PUSH2 0x107B DUP6 DUP3 DUP7 ADD PUSH2 0xD68 JUMP JUMPDEST SWAP3 POP POP PUSH1 0x20 PUSH2 0x108C DUP6 DUP3 DUP7 ADD PUSH2 0xD68 JUMP JUMPDEST SWAP2 POP POP SWAP3 POP SWAP3 SWAP1 POP JUMP JUMPDEST PUSH1 0x0 PUSH20 0xFFFFFFFFFFFFFFFFFFFFFFFFFFFFFFFFFFFFFFFF DUP3 AND SWAP1 POP SWAP2 SWAP1 POP JUMP JUMPDEST PUSH1 0x0 PUSH2 0x10C1 DUP3 PUSH2 0x1096 JUMP JUMPDEST SWAP1 POP SWAP2 SWAP1 POP JUMP JUMPDEST PUSH2 0x10D1 DUP2 PUSH2 0x10B6 JUMP JUMPDEST DUP2 EQ PUSH2 0x10DC JUMPI PUSH1 0x0 DUP1 REVERT JUMPDEST POP JUMP JUMPDEST PUSH1 0x0 DUP2 CALLDATALOAD SWAP1 POP PUSH2 0x10EE DUP2 PUSH2 0x10C8 JUMP JUMPDEST SWAP3 SWAP2 POP POP JUMP JUMPDEST PUSH1 0x0 DUP1 PUSH1 0x40 DUP4 DUP6 SUB SLT ISZERO PUSH2 0x110B JUMPI PUSH2 0x110A PUSH2 0xBF7 JUMP JUMPDEST JUMPDEST PUSH1 0x0 PUSH2 0x1119 DUP6 DUP3 DUP7 ADD PUSH2 0x10DF JUMP JUMPDEST SWAP3 POP POP PUSH1 0x20 PUSH2 0x112A DUP6 DUP3 DUP7 ADD PUSH2 0xD68 JUMP JUMPDEST SWAP2 POP POP SWAP3 POP SWAP3 SWAP1 POP JUMP JUMPDEST PUSH1 0x0 PUSH1 0x80 DUP4 ADD PUSH1 0x0 DUP4 ADD MLOAD DUP5 DUP3 SUB PUSH1 0x0 DUP7 ADD MSTORE PUSH2 0x1151 DUP3 DUP3 PUSH2 0xE7A JUMP JUMPDEST SWAP2 POP POP PUSH1 0x20 DUP4 ADD MLOAD DUP5 DUP3 SUB PUSH1 0x20 DUP7 ADD MSTORE PUSH2 0x116B DUP3 DUP3 PUSH2 0xE7A JUMP JUMPDEST SWAP2 POP POP PUSH1 0x40 DUP4 ADD MLOAD PUSH2 0x1180 PUSH1 0x40 DUP7 ADD DUP3 PUSH2 0xEB3 JUMP JUMPDEST POP PUSH1 0x60 DUP4 ADD MLOAD PUSH2 0x1193 PUSH1 0x60 DUP7 ADD DUP3 PUSH2 0xECE JUMP JUMPDEST POP DUP1 SWAP2 POP POP SWAP3 SWAP2 POP POP JUMP JUMPDEST PUSH1 0x0 PUSH1 0x20 DUP3 ADD SWAP1 POP DUP2 DUP2 SUB PUSH1 0x0 DUP4 ADD MSTORE PUSH2 0x11B8 DUP2 DUP5 PUSH2 0x1134 JUMP JUMPDEST SWAP1 POP SWAP3 SWAP2 POP POP JUMP JUMPDEST PUSH1 0x0 DUP3 DUP3 MSTORE PUSH1 0x20 DUP3 ADD SWAP1 POP SWAP3 SWAP2 POP POP JUMP JUMPDEST PUSH1 0x0 PUSH2 0x11DC DUP3 PUSH2 0xE34 JUMP JUMPDEST PUSH2 0x11E6 DUP2 DUP6 PUSH2 0x11C0 JUMP JUMPDEST SWAP4 POP PUSH2 0x11F6 DUP2 DUP6 PUSH1 0x20 DUP7 ADD PUSH2 0xE50 JUMP JUMPDEST PUSH2 0x11FF DUP2 PUSH2 0xC0B JUMP JUMPDEST DUP5 ADD SWAP2 POP POP SWAP3 SWAP2 POP POP JUMP JUMPDEST PUSH2 0x1213 DUP2 PUSH2 0xEC2 JUMP JUMPDEST DUP3 MSTORE POP POP JUMP JUMPDEST PUSH1 0x0 PUSH1 0x80 DUP3 ADD SWAP1 POP DUP2 DUP2 SUB PUSH1 0x0 DUP4 ADD MSTORE PUSH2 0x1233 DUP2 DUP8 PUSH2 0x11D1 JUMP JUMPDEST SWAP1 POP DUP2 DUP2 SUB PUSH1 0x20 DUP4 ADD MSTORE PUSH2 0x1247 DUP2 DUP7 PUSH2 0x11D1 JUMP JUMPDEST SWAP1 POP PUSH2 0x1256 PUSH1 0x40 DUP4 ADD DUP6 PUSH2 0x102C JUMP JUMPDEST PUSH2 0x1263 PUSH1 0x60 DUP4 ADD DUP5 PUSH2 0x120A JUMP JUMPDEST SWAP6 SWAP5 POP POP POP POP POP JUMP JUMPDEST PUSH32 0x796F7520617265206E6F7420746865206F776E65720000000000000000000000 PUSH1 0x0 DUP3 ADD MSTORE POP JUMP JUMPDEST PUSH1 0x0 PUSH2 0x12A2 PUSH1 0x15 DUP4 PUSH2 0x11C0 JUMP JUMPDEST SWAP2 POP PUSH2 0x12AD DUP3 PUSH2 0x126C JUMP JUMPDEST PUSH1 0x20 DUP3 ADD SWAP1 POP SWAP2 SWAP1 POP JUMP JUMPDEST PUSH1 0x0 PUSH1 0x20 DUP3 ADD SWAP1 POP DUP2 DUP2 SUB PUSH1 0x0 DUP4 ADD MSTORE PUSH2 0x12D1 DUP2 PUSH2 0x1295 JUMP JUMPDEST SWAP1 POP SWAP2 SWAP1 POP JUMP JUMPDEST PUSH32 0x4E487B7100000000000000000000000000000000000000000000000000000000 PUSH1 0x0 MSTORE PUSH1 0x22 PUSH1 0x4 MSTORE PUSH1 0x24 PUSH1 0x0 REVERT JUMPDEST PUSH1 0x0 PUSH1 0x2 DUP3 DIV SWAP1 POP PUSH1 0x1 DUP3 AND DUP1 PUSH2 0x131F JUMPI PUSH1 0x7F DUP3 AND SWAP2 POP JUMPDEST PUSH1 0x20 DUP3 LT DUP2 SUB PUSH2 0x1332 JUMPI PUSH2 0x1331 PUSH2 0x12D8 JUMP JUMPDEST JUMPDEST POP SWAP2 SWAP1 POP JUMP JUMPDEST PUSH1 0x0 DUP2 SWAP1 POP DUP2 PUSH1 0x0 MSTORE PUSH1 0x20 PUSH1 0x0 KECCAK256 SWAP1 POP SWAP2 SWAP1 POP JUMP JUMPDEST PUSH1 0x0 PUSH1 0x20 PUSH1 0x1F DUP4 ADD DIV SWAP1 POP SWAP2 SWAP1 POP JUMP JUMPDEST PUSH1 0x0 DUP3 DUP3 SHL SWAP1 POP SWAP3 SWAP2 POP POP JUMP JUMPDEST PUSH1 0x0 PUSH1 0x8 DUP4 MUL PUSH2 0x139A PUSH32 0xFFFFFFFFFFFFFFFFFFFFFFFFFFFFFFFFFFFFFFFFFFFFFFFFFFFFFFFFFFFFFFFF DUP3 PUSH2 0x135D JUMP JUMPDEST PUSH2 0x13A4 DUP7 DUP4 PUSH2 0x135D JUMP JUMPDEST SWAP6 POP DUP1 NOT DUP5 AND SWAP4 POP DUP1 DUP7 AND DUP5 OR SWAP3 POP POP POP SWAP4 SWAP3 POP POP POP JUMP JUMPDEST PUSH1 0x0 DUP2 SWAP1 POP SWAP2 SWAP1 POP JUMP JUMPDEST PUSH1 0x0 PUSH2 0x13E1 PUSH2 0x13DC PUSH2 0x13D7 DUP5 PUSH2 0xD47 JUMP JUMPDEST PUSH2 0x13BC JUMP JUMPDEST PUSH2 0xD47 JUMP JUMPDEST SWAP1 POP SWAP2 SWAP1 POP JUMP JUMPDEST PUSH1 0x0 DUP2 SWAP1 POP SWAP2 SWAP1 POP JUMP JUMPDEST PUSH2 0x13FB DUP4 PUSH2 0x13C6 JUMP JUMPDEST PUSH2 0x140F PUSH2 0x1407 DUP3 PUSH2 0x13E8 JUMP JUMPDEST DUP5 DUP5 SLOAD PUSH2 0x136A JUMP JUMPDEST DUP3 SSTORE POP POP POP POP JUMP JUMPDEST PUSH1 0x0 SWAP1 JUMP JUMPDEST PUSH2 0x1424 PUSH2 0x1417 JUMP JUMPDEST PUSH2 0x142F DUP2 DUP5 DUP5 PUSH2 0x13F2 JUMP JUMPDEST POP POP POP JUMP JUMPDEST JUMPDEST DUP2 DUP2 LT ISZERO PUSH2 0x1453 JUMPI PUSH2 0x1448 PUSH1 0x0 DUP3 PUSH2 0x141C JUMP JUMPDEST PUSH1 0x1 DUP2 ADD SWAP1 POP PUSH2 0x1435 JUMP JUMPDEST POP POP JUMP JUMPDEST PUSH1 0x1F DUP3 GT ISZERO PUSH2 0x1498 JUMPI PUSH2 0x1469 DUP2 PUSH2 0x1338 JUMP JUMPDEST PUSH2 0x1472 DUP5 PUSH2 0x134D JUMP JUMPDEST DUP2 ADD PUSH1 0x20 DUP6 LT ISZERO PUSH2 0x1481 JUMPI DUP2 SWAP1 POP JUMPDEST PUSH2 0x1495 PUSH2 0x148D DUP6 PUSH2 0x134D JUMP JUMPDEST DUP4 ADD DUP3 PUSH2 0x1434 JUMP JUMPDEST POP POP JUMPDEST POP POP POP JUMP JUMPDEST PUSH1 0x0 DUP3 DUP3 SHR SWAP1 POP SWAP3 SWAP2 POP POP JUMP JUMPDEST PUSH1 0x0 PUSH2 0x14BB PUSH1 0x0 NOT DUP5 PUSH1 0x8 MUL PUSH2 0x149D JUMP JUMPDEST NOT DUP1 DUP4 AND SWAP2 POP POP SWAP3 SWAP2 POP POP JUMP JUMPDEST PUSH1 0x0 PUSH2 0x14D4 DUP4 DUP4 PUSH2 0x14AA JUMP JUMPDEST SWAP2 POP DUP3 PUSH1 0x2 MUL DUP3 OR SWAP1 POP SWAP3 SWAP2 POP POP JUMP JUMPDEST PUSH2 0x14ED DUP3 PUSH2 0xE34 JUMP JUMPDEST PUSH8 0xFFFFFFFFFFFFFFFF DUP2 GT ISZERO PUSH2 0x1506 JUMPI PUSH2 0x1505 PUSH2 0xC1C JUMP JUMPDEST JUMPDEST PUSH2 0x1510 DUP3 SLOAD PUSH2 0x1307 JUMP JUMPDEST PUSH2 0x151B DUP3 DUP3 DUP6 PUSH2 0x1457 JUMP JUMPDEST PUSH1 0x0 PUSH1 0x20 SWAP1 POP PUSH1 0x1F DUP4 GT PUSH1 0x1 DUP2 EQ PUSH2 0x154E JUMPI PUSH1 0x0 DUP5 ISZERO PUSH2 0x153C JUMPI DUP3 DUP8 ADD MLOAD SWAP1 POP JUMPDEST PUSH2 0x1546 DUP6 DUP3 PUSH2 0x14C8 JUMP JUMPDEST DUP7 SSTORE POP PUSH2 0x15AE JUMP JUMPDEST PUSH1 0x1F NOT DUP5 AND PUSH2 0x155C DUP7 PUSH2 0x1338 JUMP JUMPDEST PUSH1 0x0 JUMPDEST DUP3 DUP2 LT ISZERO PUSH2 0x1584 JUMPI DUP5 DUP10 ADD MLOAD DUP3 SSTORE PUSH1 0x1 DUP3 ADD SWAP2 POP PUSH1 0x20 DUP6 ADD SWAP5 POP PUSH1 0x20 DUP2 ADD SWAP1 POP PUSH2 0x155F JUMP JUMPDEST DUP7 DUP4 LT ISZERO PUSH2 0x15A1 JUMPI DUP5 DUP10 ADD MLOAD PUSH2 0x159D PUSH1 0x1F DUP10 AND DUP3 PUSH2 0x14AA JUMP JUMPDEST DUP4 SSTORE POP JUMPDEST PUSH1 0x1 PUSH1 0x2 DUP9 MUL ADD DUP9 SSTORE POP POP POP JUMPDEST POP POP POP POP POP POP JUMP JUMPDEST PUSH32 0x4E487B7100000000000000000000000000000000000000000000000000000000 PUSH1 0x0 MSTORE PUSH1 0x11 PUSH1 0x4 MSTORE PUSH1 0x24 PUSH1 0x0 REVERT JUMPDEST PUSH1 0x0 PUSH2 0x15F0 DUP3 PUSH2 0xD47 JUMP JUMPDEST SWAP2 POP PUSH32 0xFFFFFFFFFFFFFFFFFFFFFFFFFFFFFFFFFFFFFFFFFFFFFFFFFFFFFFFFFFFFFFFF DUP3 SUB PUSH2 0x1622 JUMPI PUSH2 0x1621 PUSH2 0x15B6 JUMP JUMPDEST JUMPDEST PUSH1 0x1 DUP3 ADD SWAP1 POP SWAP2 SWAP1 POP JUMP JUMPDEST PUSH1 0x0 PUSH2 0x1638 DUP3 PUSH2 0xD47 JUMP JUMPDEST SWAP2 POP PUSH2 0x1643 DUP4 PUSH2 0xD47 JUMP JUMPDEST SWAP3 POP DUP3 DUP3 SUB SWAP1 POP DUP2 DUP2 GT ISZERO PUSH2 0x165B JUMPI PUSH2 0x165A PUSH2 0x15B6 JUMP JUMPDEST JUMPDEST SWAP3 SWAP2 POP POP JUMP JUMPDEST PUSH32 0x4E487B7100000000000000000000000000000000000000000000000000000000 PUSH1 0x0 MSTORE PUSH1 0x32 PUSH1 0x4 MSTORE PUSH1 0x24 PUSH1 0x0 REVERT JUMPDEST PUSH32 0x796F752063616E6E6F7420627579206265636175736520796F7520617265206F PUSH1 0x0 DUP3 ADD MSTORE PUSH32 0x776E657200000000000000000000000000000000000000000000000000000000 PUSH1 0x20 DUP3 ADD MSTORE POP JUMP JUMPDEST PUSH1 0x0 PUSH2 0x16EC PUSH1 0x24 DUP4 PUSH2 0x11C0 JUMP JUMPDEST SWAP2 POP PUSH2 0x16F7 DUP3 PUSH2 0x1690 JUMP JUMPDEST PUSH1 0x40 DUP3 ADD SWAP1 POP SWAP2 SWAP1 POP JUMP JUMPDEST PUSH1 0x0 PUSH1 0x20 DUP3 ADD SWAP1 POP DUP2 DUP2 SUB PUSH1 0x0 DUP4 ADD MSTORE PUSH2 0x171B DUP2 PUSH2 0x16DF JUMP JUMPDEST SWAP1 POP SWAP2 SWAP1 POP JUMP JUMPDEST PUSH32 0x616D6F756E74206973206E6F7420656E6F756768000000000000000000000000 PUSH1 0x0 DUP3 ADD MSTORE POP JUMP JUMPDEST PUSH1 0x0 PUSH2 0x1758 PUSH1 0x14 DUP4 PUSH2 0x11C0 JUMP JUMPDEST SWAP2 POP PUSH2 0x1763 DUP3 PUSH2 0x1722 JUMP JUMPDEST PUSH1 0x20 DUP3 ADD SWAP1 POP SWAP2 SWAP1 POP JUMP JUMPDEST PUSH1 0x0 PUSH1 0x20 DUP3 ADD SWAP1 POP DUP2 DUP2 SUB PUSH1 0x0 DUP4 ADD MSTORE PUSH2 0x1787 DUP2 PUSH2 0x174B JUMP JUMPDEST SWAP1 POP SWAP2 SWAP1 POP JUMP JUMPDEST PUSH32 0x616C726561647920736F6C64206F757400000000000000000000000000000000 PUSH1 0x0 DUP3 ADD MSTORE POP JUMP JUMPDEST PUSH1 0x0 PUSH2 0x17C4 PUSH1 0x10 DUP4 PUSH2 0x11C0 JUMP JUMPDEST SWAP2 POP PUSH2 0x17CF DUP3 PUSH2 0x178E JUMP JUMPDEST PUSH1 0x20 DUP3 ADD SWAP1 POP SWAP2 SWAP1 POP JUMP JUMPDEST PUSH1 0x0 PUSH1 0x20 DUP3 ADD SWAP1 POP DUP2 DUP2 SUB PUSH1 0x0 DUP4 ADD MSTORE PUSH2 0x17F3 DUP2 PUSH2 0x17B7 JUMP JUMPDEST SWAP1 POP SWAP2 SWAP1 POP JUMP JUMPDEST PUSH1 0x0 DUP2 SLOAD SWAP1 POP PUSH2 0x1809 DUP2 PUSH2 0x1307 JUMP JUMPDEST SWAP1 POP SWAP2 SWAP1 POP JUMP JUMPDEST DUP2 DUP2 SUB PUSH2 0x181E JUMPI POP POP PUSH2 0x18F6 JUMP JUMPDEST PUSH2 0x1827 DUP3 PUSH2 0x17FA JUMP JUMPDEST PUSH8 0xFFFFFFFFFFFFFFFF DUP2 GT ISZERO PUSH2 0x1840 JUMPI PUSH2 0x183F PUSH2 0xC1C JUMP JUMPDEST JUMPDEST PUSH2 0x184A DUP3 SLOAD PUSH2 0x1307 JUMP JUMPDEST PUSH2 0x1855 DUP3 DUP3 DUP6 PUSH2 0x1457 JUMP JUMPDEST PUSH1 0x0 PUSH1 0x1F DUP4 GT PUSH1 0x1 DUP2 EQ PUSH2 0x1884 JUMPI PUSH1 0x0 DUP5 ISZERO PUSH2 0x1872 JUMPI DUP3 DUP8 ADD SLOAD SWAP1 POP JUMPDEST PUSH2 0x187C DUP6 DUP3 PUSH2 0x14C8 JUMP JUMPDEST DUP7 SSTORE POP PUSH2 0x18EF JUMP JUMPDEST PUSH1 0x1F NOT DUP5 AND PUSH2 0x1892 DUP8 PUSH2 0x1338 JUMP JUMPDEST SWAP7 POP PUSH2 0x189D DUP7 PUSH2 0x1338 JUMP JUMPDEST PUSH1 0x0 JUMPDEST DUP3 DUP2 LT ISZERO PUSH2 0x18C5 JUMPI DUP5 DUP10 ADD SLOAD DUP3 SSTORE PUSH1 0x1 DUP3 ADD SWAP2 POP PUSH1 0x1 DUP6 ADD SWAP5 POP PUSH1 0x20 DUP2 ADD SWAP1 POP PUSH2 0x18A0 JUMP JUMPDEST DUP7 DUP4 LT ISZERO PUSH2 0x18E2 JUMPI DUP5 DUP10 ADD SLOAD PUSH2 0x18DE PUSH1 0x1F DUP10 AND DUP3 PUSH2 0x14AA JUMP JUMPDEST DUP4 SSTORE POP JUMPDEST PUSH1 0x1 PUSH1 0x2 DUP9 MUL ADD DUP9 SSTORE POP POP POP JUMPDEST POP POP POP POP POP POP JUMPDEST JUMP INVALID LOG2 PUSH5 0x6970667358 0x22 SLT KECCAK256 0x5D 0xE9 JUMP CREATE2 0xC7 0xE4 PUSH5 0x75CF9057E3 ADDMOD 0xE5 POP 0x5D 0xF6 CREATE2 0xDE RETURNDATASIZE EQ MSIZE 0x5C 0xD0 PUSH5 0x7BFC1C2EB SHR 0xDA PUSH5 0x736F6C6343 STOP ADDMOD SLT STOP CALLER "
				},
				"gasEstimates": {
					"creation": {
						"codeDepositCost": "1289200",
						"executionCost": "69820",
						"totalCost": "1359020"
					},
					"external": {
						"addCar(string,string,uint256)": "infinite",
						"buyCar(uint256)": "infinite",
						"buyersInfo(address,uint256)": "infinite",
						"cars(uint256)": "infinite",
						"getCarPrice(uint256)": "infinite",
						"getCars()": "infinite",
						"updatePrice(uint256,uint256)": "infinite"
					}
				},
				"methodIdentifiers": {
					"addCar(string,string,uint256)": "05574ee9",
					"buyCar(uint256)": "6c231060",
					"buyersInfo(address,uint256)": "f159e5ac",
					"cars(uint256)": "f7746e36",
					"getCarPrice(uint256)": "71e69a32",
					"getCars()": "17c39286",
					"updatePrice(uint256,uint256)": "82367b2d"
				}
			},
			"storageLayout": {
				"storage": [
					{
						"astId": 12,
						"contract": "contracts/automotive.sol:automotive",
						"label": "owner",
						"offset": 0,
						"slot": "0",
						"type": "t_address_payable"
					},
					{
						"astId": 19,
						"contract": "contracts/automotive.sol:automotive",
						"label": "buyers",
						"offset": 0,
						"slot": "1",
						"type": "t_mapping(t_address,t_mapping(t_uint256,t_struct(car)10_storage))"
					},
					{
						"astId": 24,
						"contract": "contracts/automotive.sol:automotive",
						"label": "cars",
						"offset": 0,
						"slot": "2",
						"type": "t_mapping(t_uint256,t_struct(car)10_storage)"
					},
					{
						"astId": 27,
						"contract": "contracts/automotive.sol:automotive",
						"label": "carID",
						"offset": 0,
						"slot": "3",
						"type": "t_uint256"
					},
					{
						"astId": 30,
						"contract": "contracts/automotive.sol:automotive",
						"label": "buyersID",
						"offset": 0,
						"slot": "4",
						"type": "t_uint256"
					}
				],
				"types": {
					"t_address": {
						"encoding": "inplace",
						"label": "address",
						"numberOfBytes": "20"
					},
					"t_address_payable": {
						"encoding": "inplace",
						"label": "address payable",
						"numberOfBytes": "20"
					},
					"t_bool": {
						"encoding": "inplace",
						"label": "bool",
						"numberOfBytes": "1"
					},
					"t_mapping(t_address,t_mapping(t_uint256,t_struct(car)10_storage))": {
						"encoding": "mapping",
						"key": "t_address",
						"label": "mapping(address => mapping(uint256 => struct automotive.car))",
						"numberOfBytes": "32",
						"value": "t_mapping(t_uint256,t_struct(car)10_storage)"
					},
					"t_mapping(t_uint256,t_struct(car)10_storage)": {
						"encoding": "mapping",
						"key": "t_uint256",
						"label": "mapping(uint256 => struct automotive.car)",
						"numberOfBytes": "32",
						"value": "t_struct(car)10_storage"
					},
					"t_string_storage": {
						"encoding": "bytes",
						"label": "string",
						"numberOfBytes": "32"
					},
					"t_struct(car)10_storage": {
						"encoding": "inplace",
						"label": "struct automotive.car",
						"members": [
							{
								"astId": 3,
								"contract": "contracts/automotive.sol:automotive",
								"label": "model",
								"offset": 0,
								"slot": "0",
								"type": "t_string_storage"
							},
							{
								"astId": 5,
								"contract": "contracts/automotive.sol:automotive",
								"label": "make",
								"offset": 0,
								"slot": "1",
								"type": "t_string_storage"
							},
							{
								"astId": 7,
								"contract": "contracts/automotive.sol:automotive",
								"label": "price",
								"offset": 0,
								"slot": "2",
								"type": "t_uint256"
							},
							{
								"astId": 9,
								"contract": "contracts/automotive.sol:automotive",
								"label": "forSale",
								"offset": 0,
								"slot": "3",
								"type": "t_bool"
							}
						],
						"numberOfBytes": "128"
					},
					"t_uint256": {
						"encoding": "inplace",
						"label": "uint256",
						"numberOfBytes": "32"
					}
				}
			},
			"userdoc": {
				"kind": "user",
				"methods": {},
				"version": 1
			}
		}
	}
}