{
	"contracts/google_dapp.sol": {
		"dApp": {
			"abi": [
				{
					"inputs": [
						{
							"internalType": "address",
							"name": "_user",
							"type": "address"
						},
						{
							"internalType": "string",
							"name": "url",
							"type": "string"
						}
					],
					"name": "add",
					"outputs": [],
					"stateMutability": "nonpayable",
					"type": "function"
				},
				{
					"inputs": [
						{
							"internalType": "address",
							"name": "user",
							"type": "address"
						}
					],
					"name": "allow",
					"outputs": [],
					"stateMutability": "nonpayable",
					"type": "function"
				},
				{
					"inputs": [
						{
							"internalType": "address",
							"name": "user",
							"type": "address"
						}
					],
					"name": "disallow",
					"outputs": [],
					"stateMutability": "nonpayable",
					"type": "function"
				},
				{
					"inputs": [
						{
							"internalType": "address",
							"name": "_user",
							"type": "address"
						}
					],
					"name": "display",
					"outputs": [
						{
							"internalType": "string[]",
							"name": "",
							"type": "string[]"
						}
					],
					"stateMutability": "view",
					"type": "function"
				},
				{
					"inputs": [],
					"name": "share",
					"outputs": [
						{
							"components": [
								{
									"internalType": "address",
									"name": "user",
									"type": "address"
								},
								{
									"internalType": "bool",
									"name": "access",
									"type": "bool"
								}
							],
							"internalType": "struct dApp.Access[]",
							"name": "",
							"type": "tuple[]"
						}
					],
					"stateMutability": "view",
					"type": "function"
				}
			],
			"devdoc": {
				"kind": "dev",
				"methods": {},
				"version": 1
			},
			"evm": {
				"assembly": "    /* \"contracts/google_dapp.sol\":64:1512  contract dApp{... */\n  mstore(0x40, 0x80)\n  callvalue\n  dup1\n  iszero\n  tag_1\n  jumpi\n  0x00\n  dup1\n  revert\ntag_1:\n  pop\n  dataSize(sub_0)\n  dup1\n  dataOffset(sub_0)\n  0x00\n  codecopy\n  0x00\n  return\nstop\n\nsub_0: assembly {\n        /* \"contracts/google_dapp.sol\":64:1512  contract dApp{... */\n      mstore(0x40, 0x80)\n      callvalue\n      dup1\n      iszero\n      tag_1\n      jumpi\n      0x00\n      dup1\n      revert\n    tag_1:\n      pop\n      jumpi(tag_2, lt(calldatasize, 0x04))\n      shr(0xe0, calldataload(0x00))\n      dup1\n      0x36d6da55\n      eq\n      tag_3\n      jumpi\n      dup1\n      0xa8d5fd65\n      eq\n      tag_4\n      jumpi\n      dup1\n      0xa9ed9cb8\n      eq\n      tag_5\n      jumpi\n      dup1\n      0xeb39113f\n      eq\n      tag_6\n      jumpi\n      dup1\n      0xff9913e8\n      eq\n      tag_7\n      jumpi\n    tag_2:\n      0x00\n      dup1\n      revert\n        /* \"contracts/google_dapp.sol\":349:450  function add(address _user,string memory url) public{... */\n    tag_3:\n      tag_8\n      0x04\n      dup1\n      calldatasize\n      sub\n      dup2\n      add\n      swap1\n      tag_9\n      swap2\n      swap1\n      tag_10\n      jump\t// in\n    tag_9:\n      tag_11\n      jump\t// in\n    tag_8:\n      stop\n        /* \"contracts/google_dapp.sol\":1410:1509  function share() public view returns(Access[] memory){... */\n    tag_4:\n      tag_12\n      tag_13\n      jump\t// in\n    tag_12:\n      mload(0x40)\n      tag_14\n      swap2\n      swap1\n      tag_15\n      jump\t// in\n    tag_14:\n      mload(0x40)\n      dup1\n      swap2\n      sub\n      swap1\n      return\n        /* \"contracts/google_dapp.sol\":923:1205  function disallow(address user) public{... */\n    tag_5:\n      tag_16\n      0x04\n      dup1\n      calldatasize\n      sub\n      dup2\n      add\n      swap1\n      tag_17\n      swap2\n      swap1\n      tag_18\n      jump\t// in\n    tag_17:\n      tag_19\n      jump\t// in\n    tag_16:\n      stop\n        /* \"contracts/google_dapp.sol\":1210:1405  function display(address _user) public view returns(string[] memory){... */\n    tag_6:\n      tag_20\n      0x04\n      dup1\n      calldatasize\n      sub\n      dup2\n      add\n      swap1\n      tag_21\n      swap2\n      swap1\n      tag_18\n      jump\t// in\n    tag_21:\n      tag_22\n      jump\t// in\n    tag_20:\n      mload(0x40)\n      tag_23\n      swap2\n      swap1\n      tag_24\n      jump\t// in\n    tag_23:\n      mload(0x40)\n      dup1\n      swap2\n      sub\n      swap1\n      return\n        /* \"contracts/google_dapp.sol\":455:918  function allow(address user) public{... */\n    tag_7:\n      tag_25\n      0x04\n      dup1\n      calldatasize\n      sub\n      dup2\n      add\n      swap1\n      tag_26\n      swap2\n      swap1\n      tag_18\n      jump\t// in\n    tag_26:\n      tag_27\n      jump\t// in\n    tag_25:\n      stop\n        /* \"contracts/google_dapp.sol\":349:450  function add(address _user,string memory url) public{... */\n    tag_11:\n        /* \"contracts/google_dapp.sol\":412:417  value */\n      0x00\n        /* \"contracts/google_dapp.sol\":412:424  value[_user] */\n      dup1\n        /* \"contracts/google_dapp.sol\":418:423  _user */\n      dup4\n        /* \"contracts/google_dapp.sol\":412:424  value[_user] */\n      0xffffffffffffffffffffffffffffffffffffffff\n      and\n      0xffffffffffffffffffffffffffffffffffffffff\n      and\n      dup2\n      mstore\n      0x20\n      add\n      swap1\n      dup2\n      mstore\n      0x20\n      add\n      0x00\n      keccak256\n        /* \"contracts/google_dapp.sol\":430:433  url */\n      dup2\n        /* \"contracts/google_dapp.sol\":412:434  value[_user].push(url) */\n      swap1\n      dup1\n      0x01\n      dup2\n      sload\n      add\n      dup1\n      dup3\n      sstore\n      dup1\n      swap2\n      pop\n      pop\n      0x01\n      swap1\n      sub\n      swap1\n      0x00\n      mstore\n      keccak256(0x00, 0x20)\n      add\n      0x00\n      swap1\n      swap2\n      swap1\n      swap2\n      swap1\n      swap2\n      pop\n      swap1\n      dup2\n      tag_30\n      swap2\n      swap1\n      tag_31\n      jump\t// in\n    tag_30:\n      pop\n        /* \"contracts/google_dapp.sol\":349:450  function add(address _user,string memory url) public{... */\n      pop\n      pop\n      jump\t// out\n        /* \"contracts/google_dapp.sol\":1410:1509  function share() public view returns(Access[] memory){... */\n    tag_13:\n        /* \"contracts/google_dapp.sol\":1447:1462  Access[] memory */\n      0x60\n        /* \"contracts/google_dapp.sol\":1480:1490  accessList */\n      0x03\n        /* \"contracts/google_dapp.sol\":1480:1502  accessList[msg.sender] */\n      0x00\n        /* \"contracts/google_dapp.sol\":1491:1501  msg.sender */\n      caller\n        /* \"contracts/google_dapp.sol\":1480:1502  accessList[msg.sender] */\n      0xffffffffffffffffffffffffffffffffffffffff\n      and\n      0xffffffffffffffffffffffffffffffffffffffff\n      and\n      dup2\n      mstore\n      0x20\n      add\n      swap1\n      dup2\n      mstore\n      0x20\n      add\n      0x00\n      keccak256\n        /* \"contracts/google_dapp.sol\":1473:1502  return accessList[msg.sender] */\n      dup1\n      sload\n      dup1\n      0x20\n      mul\n      0x20\n      add\n      mload(0x40)\n      swap1\n      dup2\n      add\n      0x40\n      mstore\n      dup1\n      swap3\n      swap2\n      swap1\n      dup2\n      dup2\n      mstore\n      0x20\n      add\n      0x00\n      swap1\n    tag_33:\n      dup3\n      dup3\n      lt\n      iszero\n      tag_34\n      jumpi\n      dup4\n      dup3\n      swap1\n      0x00\n      mstore\n      keccak256(0x00, 0x20)\n      add\n      mload(0x40)\n      dup1\n      0x40\n      add\n      0x40\n      mstore\n      swap1\n      dup2\n      0x00\n      dup3\n      add\n      0x00\n      swap1\n      sload\n      swap1\n      0x0100\n      exp\n      swap1\n      div\n      0xffffffffffffffffffffffffffffffffffffffff\n      and\n      0xffffffffffffffffffffffffffffffffffffffff\n      and\n      0xffffffffffffffffffffffffffffffffffffffff\n      and\n      dup2\n      mstore\n      0x20\n      add\n      0x00\n      dup3\n      add\n      0x14\n      swap1\n      sload\n      swap1\n      0x0100\n      exp\n      swap1\n      div\n      0xff\n      and\n      iszero\n      iszero\n      iszero\n      iszero\n      dup2\n      mstore\n      pop\n      pop\n      dup2\n      mstore\n      0x20\n      add\n      swap1\n      0x01\n      add\n      swap1\n      jump(tag_33)\n    tag_34:\n      pop\n      pop\n      pop\n      pop\n      swap1\n      pop\n        /* \"contracts/google_dapp.sol\":1410:1509  function share() public view returns(Access[] memory){... */\n      swap1\n      jump\t// out\n        /* \"contracts/google_dapp.sol\":923:1205  function disallow(address user) public{... */\n    tag_19:\n        /* \"contracts/google_dapp.sol\":999:1004  false */\n      0x00\n        /* \"contracts/google_dapp.sol\":971:980  ownerShip */\n      0x01\n        /* \"contracts/google_dapp.sol\":971:992  ownerShip[msg.sender] */\n      0x00\n        /* \"contracts/google_dapp.sol\":981:991  msg.sender */\n      caller\n        /* \"contracts/google_dapp.sol\":971:992  ownerShip[msg.sender] */\n      0xffffffffffffffffffffffffffffffffffffffff\n      and\n      0xffffffffffffffffffffffffffffffffffffffff\n      and\n      dup2\n      mstore\n      0x20\n      add\n      swap1\n      dup2\n      mstore\n      0x20\n      add\n      0x00\n      keccak256\n        /* \"contracts/google_dapp.sol\":971:998  ownerShip[msg.sender][user] */\n      0x00\n        /* \"contracts/google_dapp.sol\":993:997  user */\n      dup4\n        /* \"contracts/google_dapp.sol\":971:998  ownerShip[msg.sender][user] */\n      0xffffffffffffffffffffffffffffffffffffffff\n      and\n      0xffffffffffffffffffffffffffffffffffffffff\n      and\n      dup2\n      mstore\n      0x20\n      add\n      swap1\n      dup2\n      mstore\n      0x20\n      add\n      0x00\n      keccak256\n      0x00\n        /* \"contracts/google_dapp.sol\":971:1004  ownerShip[msg.sender][user]=false */\n      0x0100\n      exp\n      dup2\n      sload\n      dup2\n      0xff\n      mul\n      not\n      and\n      swap1\n      dup4\n      iszero\n      iszero\n      mul\n      or\n      swap1\n      sstore\n      pop\n        /* \"contracts/google_dapp.sol\":1018:1024  uint i */\n      0x00\n        /* \"contracts/google_dapp.sol\":1014:1199  for(uint i=0 ;i<accessList[msg.sender].length;i++){... */\n    tag_37:\n        /* \"contracts/google_dapp.sol\":1030:1040  accessList */\n      0x03\n        /* \"contracts/google_dapp.sol\":1030:1052  accessList[msg.sender] */\n      0x00\n        /* \"contracts/google_dapp.sol\":1041:1051  msg.sender */\n      caller\n        /* \"contracts/google_dapp.sol\":1030:1052  accessList[msg.sender] */\n      0xffffffffffffffffffffffffffffffffffffffff\n      and\n      0xffffffffffffffffffffffffffffffffffffffff\n      and\n      dup2\n      mstore\n      0x20\n      add\n      swap1\n      dup2\n      mstore\n      0x20\n      add\n      0x00\n      keccak256\n        /* \"contracts/google_dapp.sol\":1030:1059  accessList[msg.sender].length */\n      dup1\n      sload\n      swap1\n      pop\n        /* \"contracts/google_dapp.sol\":1028:1029  i */\n      dup2\n        /* \"contracts/google_dapp.sol\":1028:1059  i<accessList[msg.sender].length */\n      lt\n        /* \"contracts/google_dapp.sol\":1014:1199  for(uint i=0 ;i<accessList[msg.sender].length;i++){... */\n      iszero\n      tag_38\n      jumpi\n        /* \"contracts/google_dapp.sol\":1113:1117  user */\n      dup2\n        /* \"contracts/google_dapp.sol\":1081:1117  accessList[msg.sender][i].user==user */\n      0xffffffffffffffffffffffffffffffffffffffff\n      and\n        /* \"contracts/google_dapp.sol\":1081:1091  accessList */\n      0x03\n        /* \"contracts/google_dapp.sol\":1081:1103  accessList[msg.sender] */\n      0x00\n        /* \"contracts/google_dapp.sol\":1092:1102  msg.sender */\n      caller\n        /* \"contracts/google_dapp.sol\":1081:1103  accessList[msg.sender] */\n      0xffffffffffffffffffffffffffffffffffffffff\n      and\n      0xffffffffffffffffffffffffffffffffffffffff\n      and\n      dup2\n      mstore\n      0x20\n      add\n      swap1\n      dup2\n      mstore\n      0x20\n      add\n      0x00\n      keccak256\n        /* \"contracts/google_dapp.sol\":1104:1105  i */\n      dup3\n        /* \"contracts/google_dapp.sol\":1081:1106  accessList[msg.sender][i] */\n      dup2\n      sload\n      dup2\n      lt\n      tag_40\n      jumpi\n      tag_41\n      tag_42\n      jump\t// in\n    tag_41:\n    tag_40:\n      swap1\n      0x00\n      mstore\n      keccak256(0x00, 0x20)\n      add\n        /* \"contracts/google_dapp.sol\":1081:1111  accessList[msg.sender][i].user */\n      0x00\n      add\n      0x00\n      swap1\n      sload\n      swap1\n      0x0100\n      exp\n      swap1\n      div\n      0xffffffffffffffffffffffffffffffffffffffff\n      and\n        /* \"contracts/google_dapp.sol\":1081:1117  accessList[msg.sender][i].user==user */\n      0xffffffffffffffffffffffffffffffffffffffff\n      and\n      sub\n        /* \"contracts/google_dapp.sol\":1078:1189  if(accessList[msg.sender][i].user==user){... */\n      tag_44\n      jumpi\n        /* \"contracts/google_dapp.sol\":1169:1174  false */\n      0x00\n        /* \"contracts/google_dapp.sol\":1136:1146  accessList */\n      0x03\n        /* \"contracts/google_dapp.sol\":1136:1158  accessList[msg.sender] */\n      0x00\n        /* \"contracts/google_dapp.sol\":1147:1157  msg.sender */\n      caller\n        /* \"contracts/google_dapp.sol\":1136:1158  accessList[msg.sender] */\n      0xffffffffffffffffffffffffffffffffffffffff\n      and\n      0xffffffffffffffffffffffffffffffffffffffff\n      and\n      dup2\n      mstore\n      0x20\n      add\n      swap1\n      dup2\n      mstore\n      0x20\n      add\n      0x00\n      keccak256\n        /* \"contracts/google_dapp.sol\":1159:1160  i */\n      dup3\n        /* \"contracts/google_dapp.sol\":1136:1161  accessList[msg.sender][i] */\n      dup2\n      sload\n      dup2\n      lt\n      tag_45\n      jumpi\n      tag_46\n      tag_42\n      jump\t// in\n    tag_46:\n    tag_45:\n      swap1\n      0x00\n      mstore\n      keccak256(0x00, 0x20)\n      add\n        /* \"contracts/google_dapp.sol\":1136:1168  accessList[msg.sender][i].access */\n      0x00\n      add\n      0x14\n        /* \"contracts/google_dapp.sol\":1136:1174  accessList[msg.sender][i].access=false */\n      0x0100\n      exp\n      dup2\n      sload\n      dup2\n      0xff\n      mul\n      not\n      and\n      swap1\n      dup4\n      iszero\n      iszero\n      mul\n      or\n      swap1\n      sstore\n      pop\n        /* \"contracts/google_dapp.sol\":1078:1189  if(accessList[msg.sender][i].user==user){... */\n    tag_44:\n        /* \"contracts/google_dapp.sol\":1060:1063  i++ */\n      dup1\n      dup1\n      tag_48\n      swap1\n      tag_49\n      jump\t// in\n    tag_48:\n      swap2\n      pop\n      pop\n        /* \"contracts/google_dapp.sol\":1014:1199  for(uint i=0 ;i<accessList[msg.sender].length;i++){... */\n      jump(tag_37)\n    tag_38:\n      pop\n        /* \"contracts/google_dapp.sol\":923:1205  function disallow(address user) public{... */\n      pop\n      jump\t// out\n        /* \"contracts/google_dapp.sol\":1210:1405  function display(address _user) public view returns(string[] memory){... */\n    tag_22:\n        /* \"contracts/google_dapp.sol\":1262:1277  string[] memory */\n      0x60\n        /* \"contracts/google_dapp.sol\":1303:1313  msg.sender */\n      caller\n        /* \"contracts/google_dapp.sol\":1296:1313  _user==msg.sender */\n      0xffffffffffffffffffffffffffffffffffffffff\n      and\n        /* \"contracts/google_dapp.sol\":1296:1301  _user */\n      dup3\n        /* \"contracts/google_dapp.sol\":1296:1313  _user==msg.sender */\n      0xffffffffffffffffffffffffffffffffffffffff\n      and\n      eq\n        /* \"contracts/google_dapp.sol\":1296:1345  _user==msg.sender || ownerShip[_user][msg.sender] */\n      dup1\n      tag_51\n      jumpi\n      pop\n        /* \"contracts/google_dapp.sol\":1317:1326  ownerShip */\n      0x01\n        /* \"contracts/google_dapp.sol\":1317:1333  ownerShip[_user] */\n      0x00\n        /* \"contracts/google_dapp.sol\":1327:1332  _user */\n      dup4\n        /* \"contracts/google_dapp.sol\":1317:1333  ownerShip[_user] */\n      0xffffffffffffffffffffffffffffffffffffffff\n      and\n      0xffffffffffffffffffffffffffffffffffffffff\n      and\n      dup2\n      mstore\n      0x20\n      add\n      swap1\n      dup2\n      mstore\n      0x20\n      add\n      0x00\n      keccak256\n        /* \"contracts/google_dapp.sol\":1317:1345  ownerShip[_user][msg.sender] */\n      0x00\n        /* \"contracts/google_dapp.sol\":1334:1344  msg.sender */\n      caller\n        /* \"contracts/google_dapp.sol\":1317:1345  ownerShip[_user][msg.sender] */\n      0xffffffffffffffffffffffffffffffffffffffff\n      and\n      0xffffffffffffffffffffffffffffffffffffffff\n      and\n      dup2\n      mstore\n      0x20\n      add\n      swap1\n      dup2\n      mstore\n      0x20\n      add\n      0x00\n      keccak256\n      0x00\n      swap1\n      sload\n      swap1\n      0x0100\n      exp\n      swap1\n      div\n      0xff\n      and\n        /* \"contracts/google_dapp.sol\":1296:1345  _user==msg.sender || ownerShip[_user][msg.sender] */\n    tag_51:\n        /* \"contracts/google_dapp.sol\":1288:1368  require(_user==msg.sender || ownerShip[_user][msg.sender],\"you are not allowed\") */\n      tag_52\n      jumpi\n      mload(0x40)\n      0x08c379a000000000000000000000000000000000000000000000000000000000\n      dup2\n      mstore\n      0x04\n      add\n      tag_53\n      swap1\n      tag_54\n      jump\t// in\n    tag_53:\n      mload(0x40)\n      dup1\n      swap2\n      sub\n      swap1\n      revert\n    tag_52:\n        /* \"contracts/google_dapp.sol\":1385:1390  value */\n      0x00\n        /* \"contracts/google_dapp.sol\":1385:1397  value[_user] */\n      dup1\n        /* \"contracts/google_dapp.sol\":1391:1396  _user */\n      dup4\n        /* \"contracts/google_dapp.sol\":1385:1397  value[_user] */\n      0xffffffffffffffffffffffffffffffffffffffff\n      and\n      0xffffffffffffffffffffffffffffffffffffffff\n      and\n      dup2\n      mstore\n      0x20\n      add\n      swap1\n      dup2\n      mstore\n      0x20\n      add\n      0x00\n      keccak256\n        /* \"contracts/google_dapp.sol\":1378:1397  return value[_user] */\n      dup1\n      sload\n      dup1\n      0x20\n      mul\n      0x20\n      add\n      mload(0x40)\n      swap1\n      dup2\n      add\n      0x40\n      mstore\n      dup1\n      swap3\n      swap2\n      swap1\n      dup2\n      dup2\n      mstore\n      0x20\n      add\n      0x00\n      swap1\n    tag_55:\n      dup3\n      dup3\n      lt\n      iszero\n      tag_56\n      jumpi\n      dup4\n      dup3\n      swap1\n      0x00\n      mstore\n      keccak256(0x00, 0x20)\n      add\n      dup1\n      sload\n      tag_58\n      swap1\n      tag_59\n      jump\t// in\n    tag_58:\n      dup1\n      0x1f\n      add\n      0x20\n      dup1\n      swap2\n      div\n      mul\n      0x20\n      add\n      mload(0x40)\n      swap1\n      dup2\n      add\n      0x40\n      mstore\n      dup1\n      swap3\n      swap2\n      swap1\n      dup2\n      dup2\n      mstore\n      0x20\n      add\n      dup3\n      dup1\n      sload\n      tag_60\n      swap1\n      tag_59\n      jump\t// in\n    tag_60:\n      dup1\n      iszero\n      tag_61\n      jumpi\n      dup1\n      0x1f\n      lt\n      tag_62\n      jumpi\n      0x0100\n      dup1\n      dup4\n      sload\n      div\n      mul\n      dup4\n      mstore\n      swap2\n      0x20\n      add\n      swap2\n      jump(tag_61)\n    tag_62:\n      dup3\n      add\n      swap2\n      swap1\n      0x00\n      mstore\n      keccak256(0x00, 0x20)\n      swap1\n    tag_63:\n      dup2\n      sload\n      dup2\n      mstore\n      swap1\n      0x01\n      add\n      swap1\n      0x20\n      add\n      dup1\n      dup4\n      gt\n      tag_63\n      jumpi\n      dup3\n      swap1\n      sub\n      0x1f\n      and\n      dup3\n      add\n      swap2\n    tag_61:\n      pop\n      pop\n      pop\n      pop\n      pop\n      dup2\n      mstore\n      0x20\n      add\n      swap1\n      0x01\n      add\n      swap1\n      jump(tag_55)\n    tag_56:\n      pop\n      pop\n      pop\n      pop\n      swap1\n      pop\n        /* \"contracts/google_dapp.sol\":1210:1405  function display(address _user) public view returns(string[] memory){... */\n      swap2\n      swap1\n      pop\n      jump\t// out\n        /* \"contracts/google_dapp.sol\":455:918  function allow(address user) public{... */\n    tag_27:\n        /* \"contracts/google_dapp.sol\":528:532  true */\n      0x01\n        /* \"contracts/google_dapp.sol\":500:509  ownerShip */\n      dup1\n        /* \"contracts/google_dapp.sol\":500:521  ownerShip[msg.sender] */\n      0x00\n        /* \"contracts/google_dapp.sol\":510:520  msg.sender */\n      caller\n        /* \"contracts/google_dapp.sol\":500:521  ownerShip[msg.sender] */\n      0xffffffffffffffffffffffffffffffffffffffff\n      and\n      0xffffffffffffffffffffffffffffffffffffffff\n      and\n      dup2\n      mstore\n      0x20\n      add\n      swap1\n      dup2\n      mstore\n      0x20\n      add\n      0x00\n      keccak256\n        /* \"contracts/google_dapp.sol\":500:527  ownerShip[msg.sender][user] */\n      0x00\n        /* \"contracts/google_dapp.sol\":522:526  user */\n      dup4\n        /* \"contracts/google_dapp.sol\":500:527  ownerShip[msg.sender][user] */\n      0xffffffffffffffffffffffffffffffffffffffff\n      and\n      0xffffffffffffffffffffffffffffffffffffffff\n      and\n      dup2\n      mstore\n      0x20\n      add\n      swap1\n      dup2\n      mstore\n      0x20\n      add\n      0x00\n      keccak256\n      0x00\n        /* \"contracts/google_dapp.sol\":500:532  ownerShip[msg.sender][user]=true */\n      0x0100\n      exp\n      dup2\n      sload\n      dup2\n      0xff\n      mul\n      not\n      and\n      swap1\n      dup4\n      iszero\n      iszero\n      mul\n      or\n      swap1\n      sstore\n      pop\n        /* \"contracts/google_dapp.sol\":545:557  previousdata */\n      0x02\n        /* \"contracts/google_dapp.sol\":545:569  previousdata[msg.sender] */\n      0x00\n        /* \"contracts/google_dapp.sol\":558:568  msg.sender */\n      caller\n        /* \"contracts/google_dapp.sol\":545:569  previousdata[msg.sender] */\n      0xffffffffffffffffffffffffffffffffffffffff\n      and\n      0xffffffffffffffffffffffffffffffffffffffff\n      and\n      dup2\n      mstore\n      0x20\n      add\n      swap1\n      dup2\n      mstore\n      0x20\n      add\n      0x00\n      keccak256\n        /* \"contracts/google_dapp.sol\":545:575  previousdata[msg.sender][user] */\n      0x00\n        /* \"contracts/google_dapp.sol\":570:574  user */\n      dup3\n        /* \"contracts/google_dapp.sol\":545:575  previousdata[msg.sender][user] */\n      0xffffffffffffffffffffffffffffffffffffffff\n      and\n      0xffffffffffffffffffffffffffffffffffffffff\n      and\n      dup2\n      mstore\n      0x20\n      add\n      swap1\n      dup2\n      mstore\n      0x20\n      add\n      0x00\n      keccak256\n      0x00\n      swap1\n      sload\n      swap1\n      0x0100\n      exp\n      swap1\n      div\n      0xff\n      and\n        /* \"contracts/google_dapp.sol\":542:909  if(previousdata[msg.sender][user]){... */\n      iszero\n      tag_65\n      jumpi\n        /* \"contracts/google_dapp.sol\":594:600  uint i */\n      0x00\n        /* \"contracts/google_dapp.sol\":590:774  for(uint i=0 ;i<accessList[msg.sender].length;i++){... */\n    tag_66:\n        /* \"contracts/google_dapp.sol\":606:616  accessList */\n      0x03\n        /* \"contracts/google_dapp.sol\":606:628  accessList[msg.sender] */\n      0x00\n        /* \"contracts/google_dapp.sol\":617:627  msg.sender */\n      caller\n        /* \"contracts/google_dapp.sol\":606:628  accessList[msg.sender] */\n      0xffffffffffffffffffffffffffffffffffffffff\n      and\n      0xffffffffffffffffffffffffffffffffffffffff\n      and\n      dup2\n      mstore\n      0x20\n      add\n      swap1\n      dup2\n      mstore\n      0x20\n      add\n      0x00\n      keccak256\n        /* \"contracts/google_dapp.sol\":606:635  accessList[msg.sender].length */\n      dup1\n      sload\n      swap1\n      pop\n        /* \"contracts/google_dapp.sol\":604:605  i */\n      dup2\n        /* \"contracts/google_dapp.sol\":604:635  i<accessList[msg.sender].length */\n      lt\n        /* \"contracts/google_dapp.sol\":590:774  for(uint i=0 ;i<accessList[msg.sender].length;i++){... */\n      iszero\n      tag_67\n      jumpi\n        /* \"contracts/google_dapp.sol\":689:693  user */\n      dup2\n        /* \"contracts/google_dapp.sol\":657:693  accessList[msg.sender][i].user==user */\n      0xffffffffffffffffffffffffffffffffffffffff\n      and\n        /* \"contracts/google_dapp.sol\":657:667  accessList */\n      0x03\n        /* \"contracts/google_dapp.sol\":657:679  accessList[msg.sender] */\n      0x00\n        /* \"contracts/google_dapp.sol\":668:678  msg.sender */\n      caller\n        /* \"contracts/google_dapp.sol\":657:679  accessList[msg.sender] */\n      0xffffffffffffffffffffffffffffffffffffffff\n      and\n      0xffffffffffffffffffffffffffffffffffffffff\n      and\n      dup2\n      mstore\n      0x20\n      add\n      swap1\n      dup2\n      mstore\n      0x20\n      add\n      0x00\n      keccak256\n        /* \"contracts/google_dapp.sol\":680:681  i */\n      dup3\n        /* \"contracts/google_dapp.sol\":657:682  accessList[msg.sender][i] */\n      dup2\n      sload\n      dup2\n      lt\n      tag_69\n      jumpi\n      tag_70\n      tag_42\n      jump\t// in\n    tag_70:\n    tag_69:\n      swap1\n      0x00\n      mstore\n      keccak256(0x00, 0x20)\n      add\n        /* \"contracts/google_dapp.sol\":657:687  accessList[msg.sender][i].user */\n      0x00\n      add\n      0x00\n      swap1\n      sload\n      swap1\n      0x0100\n      exp\n      swap1\n      div\n      0xffffffffffffffffffffffffffffffffffffffff\n      and\n        /* \"contracts/google_dapp.sol\":657:693  accessList[msg.sender][i].user==user */\n      0xffffffffffffffffffffffffffffffffffffffff\n      and\n      sub\n        /* \"contracts/google_dapp.sol\":654:764  if(accessList[msg.sender][i].user==user){... */\n      tag_72\n      jumpi\n        /* \"contracts/google_dapp.sol\":745:749  true */\n      0x01\n        /* \"contracts/google_dapp.sol\":712:722  accessList */\n      0x03\n        /* \"contracts/google_dapp.sol\":712:734  accessList[msg.sender] */\n      0x00\n        /* \"contracts/google_dapp.sol\":723:733  msg.sender */\n      caller\n        /* \"contracts/google_dapp.sol\":712:734  accessList[msg.sender] */\n      0xffffffffffffffffffffffffffffffffffffffff\n      and\n      0xffffffffffffffffffffffffffffffffffffffff\n      and\n      dup2\n      mstore\n      0x20\n      add\n      swap1\n      dup2\n      mstore\n      0x20\n      add\n      0x00\n      keccak256\n        /* \"contracts/google_dapp.sol\":735:736  i */\n      dup3\n        /* \"contracts/google_dapp.sol\":712:737  accessList[msg.sender][i] */\n      dup2\n      sload\n      dup2\n      lt\n      tag_73\n      jumpi\n      tag_74\n      tag_42\n      jump\t// in\n    tag_74:\n    tag_73:\n      swap1\n      0x00\n      mstore\n      keccak256(0x00, 0x20)\n      add\n        /* \"contracts/google_dapp.sol\":712:744  accessList[msg.sender][i].access */\n      0x00\n      add\n      0x14\n        /* \"contracts/google_dapp.sol\":712:749  accessList[msg.sender][i].access=true */\n      0x0100\n      exp\n      dup2\n      sload\n      dup2\n      0xff\n      mul\n      not\n      and\n      swap1\n      dup4\n      iszero\n      iszero\n      mul\n      or\n      swap1\n      sstore\n      pop\n        /* \"contracts/google_dapp.sol\":654:764  if(accessList[msg.sender][i].user==user){... */\n    tag_72:\n        /* \"contracts/google_dapp.sol\":636:639  i++ */\n      dup1\n      dup1\n      tag_76\n      swap1\n      tag_49\n      jump\t// in\n    tag_76:\n      swap2\n      pop\n      pop\n        /* \"contracts/google_dapp.sol\":590:774  for(uint i=0 ;i<accessList[msg.sender].length;i++){... */\n      jump(tag_66)\n    tag_67:\n      pop\n        /* \"contracts/google_dapp.sol\":542:909  if(previousdata[msg.sender][user]){... */\n      jump(tag_77)\n    tag_65:\n        /* \"contracts/google_dapp.sol\":807:817  accessList */\n      0x03\n        /* \"contracts/google_dapp.sol\":807:829  accessList[msg.sender] */\n      0x00\n        /* \"contracts/google_dapp.sol\":818:828  msg.sender */\n      caller\n        /* \"contracts/google_dapp.sol\":807:829  accessList[msg.sender] */\n      0xffffffffffffffffffffffffffffffffffffffff\n      and\n      0xffffffffffffffffffffffffffffffffffffffff\n      and\n      dup2\n      mstore\n      0x20\n      add\n      swap1\n      dup2\n      mstore\n      0x20\n      add\n      0x00\n      keccak256\n        /* \"contracts/google_dapp.sol\":835:852  Access(user,true) */\n      mload(0x40)\n      dup1\n      0x40\n      add\n      0x40\n      mstore\n      dup1\n        /* \"contracts/google_dapp.sol\":842:846  user */\n      dup4\n        /* \"contracts/google_dapp.sol\":835:852  Access(user,true) */\n      0xffffffffffffffffffffffffffffffffffffffff\n      and\n      dup2\n      mstore\n      0x20\n      add\n        /* \"contracts/google_dapp.sol\":847:851  true */\n      0x01\n        /* \"contracts/google_dapp.sol\":835:852  Access(user,true) */\n      iszero\n      iszero\n      dup2\n      mstore\n      pop\n        /* \"contracts/google_dapp.sol\":807:853  accessList[msg.sender].push(Access(user,true)) */\n      swap1\n      dup1\n      0x01\n      dup2\n      sload\n      add\n      dup1\n      dup3\n      sstore\n      dup1\n      swap2\n      pop\n      pop\n      0x01\n      swap1\n      sub\n      swap1\n      0x00\n      mstore\n      keccak256(0x00, 0x20)\n      add\n      0x00\n      swap1\n      swap2\n      swap1\n      swap2\n      swap1\n      swap2\n      pop\n      0x00\n      dup3\n      add\n      mload\n      dup2\n      0x00\n      add\n      exp(0x0100, 0x00)\n      dup2\n      sload\n      dup2\n      0xffffffffffffffffffffffffffffffffffffffff\n      mul\n      not\n      and\n      swap1\n      dup4\n      0xffffffffffffffffffffffffffffffffffffffff\n      and\n      mul\n      or\n      swap1\n      sstore\n      pop\n      0x20\n      dup3\n      add\n      mload\n      dup2\n      0x00\n      add\n      exp(0x0100, 0x14)\n      dup2\n      sload\n      dup2\n      0xff\n      mul\n      not\n      and\n      swap1\n      dup4\n      iszero\n      iszero\n      mul\n      or\n      swap1\n      sstore\n      pop\n      pop\n      pop\n        /* \"contracts/google_dapp.sol\":894:898  true */\n      0x01\n        /* \"contracts/google_dapp.sol\":863:875  previousdata */\n      0x02\n        /* \"contracts/google_dapp.sol\":863:887  previousdata[msg.sender] */\n      0x00\n        /* \"contracts/google_dapp.sol\":876:886  msg.sender */\n      caller\n        /* \"contracts/google_dapp.sol\":863:887  previousdata[msg.sender] */\n      0xffffffffffffffffffffffffffffffffffffffff\n      and\n      0xffffffffffffffffffffffffffffffffffffffff\n      and\n      dup2\n      mstore\n      0x20\n      add\n      swap1\n      dup2\n      mstore\n      0x20\n      add\n      0x00\n      keccak256\n        /* \"contracts/google_dapp.sol\":863:893  previousdata[msg.sender][user] */\n      0x00\n        /* \"contracts/google_dapp.sol\":888:892  user */\n      dup4\n        /* \"contracts/google_dapp.sol\":863:893  previousdata[msg.sender][user] */\n      0xffffffffffffffffffffffffffffffffffffffff\n      and\n      0xffffffffffffffffffffffffffffffffffffffff\n      and\n      dup2\n      mstore\n      0x20\n      add\n      swap1\n      dup2\n      mstore\n      0x20\n      add\n      0x00\n      keccak256\n      0x00\n        /* \"contracts/google_dapp.sol\":863:898  previousdata[msg.sender][user]=true */\n      0x0100\n      exp\n      dup2\n      sload\n      dup2\n      0xff\n      mul\n      not\n      and\n      swap1\n      dup4\n      iszero\n      iszero\n      mul\n      or\n      swap1\n      sstore\n      pop\n        /* \"contracts/google_dapp.sol\":542:909  if(previousdata[msg.sender][user]){... */\n    tag_77:\n        /* \"contracts/google_dapp.sol\":455:918  function allow(address user) public{... */\n      pop\n      jump\t// out\n        /* \"#utility.yul\":7:82   */\n    tag_79:\n        /* \"#utility.yul\":40:46   */\n      0x00\n        /* \"#utility.yul\":73:75   */\n      0x40\n        /* \"#utility.yul\":67:76   */\n      mload\n        /* \"#utility.yul\":57:76   */\n      swap1\n      pop\n        /* \"#utility.yul\":7:82   */\n      swap1\n      jump\t// out\n        /* \"#utility.yul\":88:205   */\n    tag_80:\n        /* \"#utility.yul\":197:198   */\n      0x00\n        /* \"#utility.yul\":194:195   */\n      dup1\n        /* \"#utility.yul\":187:199   */\n      revert\n        /* \"#utility.yul\":211:328   */\n    tag_81:\n        /* \"#utility.yul\":320:321   */\n      0x00\n        /* \"#utility.yul\":317:318   */\n      dup1\n        /* \"#utility.yul\":310:322   */\n      revert\n        /* \"#utility.yul\":334:460   */\n    tag_82:\n        /* \"#utility.yul\":371:378   */\n      0x00\n        /* \"#utility.yul\":411:453   */\n      0xffffffffffffffffffffffffffffffffffffffff\n        /* \"#utility.yul\":404:409   */\n      dup3\n        /* \"#utility.yul\":400:454   */\n      and\n        /* \"#utility.yul\":389:454   */\n      swap1\n      pop\n        /* \"#utility.yul\":334:460   */\n      swap2\n      swap1\n      pop\n      jump\t// out\n        /* \"#utility.yul\":466:562   */\n    tag_83:\n        /* \"#utility.yul\":503:510   */\n      0x00\n        /* \"#utility.yul\":532:556   */\n      tag_143\n        /* \"#utility.yul\":550:555   */\n      dup3\n        /* \"#utility.yul\":532:556   */\n      tag_82\n      jump\t// in\n    tag_143:\n        /* \"#utility.yul\":521:556   */\n      swap1\n      pop\n        /* \"#utility.yul\":466:562   */\n      swap2\n      swap1\n      pop\n      jump\t// out\n        /* \"#utility.yul\":568:690   */\n    tag_84:\n        /* \"#utility.yul\":641:665   */\n      tag_145\n        /* \"#utility.yul\":659:664   */\n      dup2\n        /* \"#utility.yul\":641:665   */\n      tag_83\n      jump\t// in\n    tag_145:\n        /* \"#utility.yul\":634:639   */\n      dup2\n        /* \"#utility.yul\":631:666   */\n      eq\n        /* \"#utility.yul\":621:684   */\n      tag_146\n      jumpi\n        /* \"#utility.yul\":680:681   */\n      0x00\n        /* \"#utility.yul\":677:678   */\n      dup1\n        /* \"#utility.yul\":670:682   */\n      revert\n        /* \"#utility.yul\":621:684   */\n    tag_146:\n        /* \"#utility.yul\":568:690   */\n      pop\n      jump\t// out\n        /* \"#utility.yul\":696:835   */\n    tag_85:\n        /* \"#utility.yul\":742:747   */\n      0x00\n        /* \"#utility.yul\":780:786   */\n      dup2\n        /* \"#utility.yul\":767:787   */\n      calldataload\n        /* \"#utility.yul\":758:787   */\n      swap1\n      pop\n        /* \"#utility.yul\":796:829   */\n      tag_148\n        /* \"#utility.yul\":823:828   */\n      dup2\n        /* \"#utility.yul\":796:829   */\n      tag_84\n      jump\t// in\n    tag_148:\n        /* \"#utility.yul\":696:835   */\n      swap3\n      swap2\n      pop\n      pop\n      jump\t// out\n        /* \"#utility.yul\":841:958   */\n    tag_86:\n        /* \"#utility.yul\":950:951   */\n      0x00\n        /* \"#utility.yul\":947:948   */\n      dup1\n        /* \"#utility.yul\":940:952   */\n      revert\n        /* \"#utility.yul\":964:1081   */\n    tag_87:\n        /* \"#utility.yul\":1073:1074   */\n      0x00\n        /* \"#utility.yul\":1070:1071   */\n      dup1\n        /* \"#utility.yul\":1063:1075   */\n      revert\n        /* \"#utility.yul\":1087:1189   */\n    tag_88:\n        /* \"#utility.yul\":1128:1134   */\n      0x00\n        /* \"#utility.yul\":1179:1181   */\n      0x1f\n        /* \"#utility.yul\":1175:1182   */\n      not\n        /* \"#utility.yul\":1170:1172   */\n      0x1f\n        /* \"#utility.yul\":1163:1168   */\n      dup4\n        /* \"#utility.yul\":1159:1173   */\n      add\n        /* \"#utility.yul\":1155:1183   */\n      and\n        /* \"#utility.yul\":1145:1183   */\n      swap1\n      pop\n        /* \"#utility.yul\":1087:1189   */\n      swap2\n      swap1\n      pop\n      jump\t// out\n        /* \"#utility.yul\":1195:1375   */\n    tag_89:\n        /* \"#utility.yul\":1243:1320   */\n      0x4e487b7100000000000000000000000000000000000000000000000000000000\n        /* \"#utility.yul\":1240:1241   */\n      0x00\n        /* \"#utility.yul\":1233:1321   */\n      mstore\n        /* \"#utility.yul\":1340:1344   */\n      0x41\n        /* \"#utility.yul\":1337:1338   */\n      0x04\n        /* \"#utility.yul\":1330:1345   */\n      mstore\n        /* \"#utility.yul\":1364:1368   */\n      0x24\n        /* \"#utility.yul\":1361:1362   */\n      0x00\n        /* \"#utility.yul\":1354:1369   */\n      revert\n        /* \"#utility.yul\":1381:1662   */\n    tag_90:\n        /* \"#utility.yul\":1464:1491   */\n      tag_154\n        /* \"#utility.yul\":1486:1490   */\n      dup3\n        /* \"#utility.yul\":1464:1491   */\n      tag_88\n      jump\t// in\n    tag_154:\n        /* \"#utility.yul\":1456:1462   */\n      dup2\n        /* \"#utility.yul\":1452:1492   */\n      add\n        /* \"#utility.yul\":1594:1600   */\n      dup2\n        /* \"#utility.yul\":1582:1592   */\n      dup2\n        /* \"#utility.yul\":1579:1601   */\n      lt\n        /* \"#utility.yul\":1558:1576   */\n      0xffffffffffffffff\n        /* \"#utility.yul\":1546:1556   */\n      dup3\n        /* \"#utility.yul\":1543:1577   */\n      gt\n        /* \"#utility.yul\":1540:1602   */\n      or\n        /* \"#utility.yul\":1537:1625   */\n      iszero\n      tag_155\n      jumpi\n        /* \"#utility.yul\":1605:1623   */\n      tag_156\n      tag_89\n      jump\t// in\n    tag_156:\n        /* \"#utility.yul\":1537:1625   */\n    tag_155:\n        /* \"#utility.yul\":1645:1655   */\n      dup1\n        /* \"#utility.yul\":1641:1643   */\n      0x40\n        /* \"#utility.yul\":1634:1656   */\n      mstore\n        /* \"#utility.yul\":1424:1662   */\n      pop\n        /* \"#utility.yul\":1381:1662   */\n      pop\n      pop\n      jump\t// out\n        /* \"#utility.yul\":1668:1797   */\n    tag_91:\n        /* \"#utility.yul\":1702:1708   */\n      0x00\n        /* \"#utility.yul\":1729:1749   */\n      tag_158\n      tag_79\n      jump\t// in\n    tag_158:\n        /* \"#utility.yul\":1719:1749   */\n      swap1\n      pop\n        /* \"#utility.yul\":1758:1791   */\n      tag_159\n        /* \"#utility.yul\":1786:1790   */\n      dup3\n        /* \"#utility.yul\":1778:1784   */\n      dup3\n        /* \"#utility.yul\":1758:1791   */\n      tag_90\n      jump\t// in\n    tag_159:\n        /* \"#utility.yul\":1668:1797   */\n      swap2\n      swap1\n      pop\n      jump\t// out\n        /* \"#utility.yul\":1803:2111   */\n    tag_92:\n        /* \"#utility.yul\":1865:1869   */\n      0x00\n        /* \"#utility.yul\":1955:1973   */\n      0xffffffffffffffff\n        /* \"#utility.yul\":1947:1953   */\n      dup3\n        /* \"#utility.yul\":1944:1974   */\n      gt\n        /* \"#utility.yul\":1941:1997   */\n      iszero\n      tag_161\n      jumpi\n        /* \"#utility.yul\":1977:1995   */\n      tag_162\n      tag_89\n      jump\t// in\n    tag_162:\n        /* \"#utility.yul\":1941:1997   */\n    tag_161:\n        /* \"#utility.yul\":2015:2044   */\n      tag_163\n        /* \"#utility.yul\":2037:2043   */\n      dup3\n        /* \"#utility.yul\":2015:2044   */\n      tag_88\n      jump\t// in\n    tag_163:\n        /* \"#utility.yul\":2007:2044   */\n      swap1\n      pop\n        /* \"#utility.yul\":2099:2103   */\n      0x20\n        /* \"#utility.yul\":2093:2097   */\n      dup2\n        /* \"#utility.yul\":2089:2104   */\n      add\n        /* \"#utility.yul\":2081:2104   */\n      swap1\n      pop\n        /* \"#utility.yul\":1803:2111   */\n      swap2\n      swap1\n      pop\n      jump\t// out\n        /* \"#utility.yul\":2117:2263   */\n    tag_93:\n        /* \"#utility.yul\":2214:2220   */\n      dup3\n        /* \"#utility.yul\":2209:2212   */\n      dup2\n        /* \"#utility.yul\":2204:2207   */\n      dup4\n        /* \"#utility.yul\":2191:2221   */\n      calldatacopy\n        /* \"#utility.yul\":2255:2256   */\n      0x00\n        /* \"#utility.yul\":2246:2252   */\n      dup4\n        /* \"#utility.yul\":2241:2244   */\n      dup4\n        /* \"#utility.yul\":2237:2253   */\n      add\n        /* \"#utility.yul\":2230:2257   */\n      mstore\n        /* \"#utility.yul\":2117:2263   */\n      pop\n      pop\n      pop\n      jump\t// out\n        /* \"#utility.yul\":2269:2694   */\n    tag_94:\n        /* \"#utility.yul\":2347:2352   */\n      0x00\n        /* \"#utility.yul\":2372:2438   */\n      tag_166\n        /* \"#utility.yul\":2388:2437   */\n      tag_167\n        /* \"#utility.yul\":2430:2436   */\n      dup5\n        /* \"#utility.yul\":2388:2437   */\n      tag_92\n      jump\t// in\n    tag_167:\n        /* \"#utility.yul\":2372:2438   */\n      tag_91\n      jump\t// in\n    tag_166:\n        /* \"#utility.yul\":2363:2438   */\n      swap1\n      pop\n        /* \"#utility.yul\":2461:2467   */\n      dup3\n        /* \"#utility.yul\":2454:2459   */\n      dup2\n        /* \"#utility.yul\":2447:2468   */\n      mstore\n        /* \"#utility.yul\":2499:2503   */\n      0x20\n        /* \"#utility.yul\":2492:2497   */\n      dup2\n        /* \"#utility.yul\":2488:2504   */\n      add\n        /* \"#utility.yul\":2537:2540   */\n      dup5\n        /* \"#utility.yul\":2528:2534   */\n      dup5\n        /* \"#utility.yul\":2523:2526   */\n      dup5\n        /* \"#utility.yul\":2519:2535   */\n      add\n        /* \"#utility.yul\":2516:2541   */\n      gt\n        /* \"#utility.yul\":2513:2625   */\n      iszero\n      tag_168\n      jumpi\n        /* \"#utility.yul\":2544:2623   */\n      tag_169\n      tag_87\n      jump\t// in\n    tag_169:\n        /* \"#utility.yul\":2513:2625   */\n    tag_168:\n        /* \"#utility.yul\":2634:2688   */\n      tag_170\n        /* \"#utility.yul\":2681:2687   */\n      dup5\n        /* \"#utility.yul\":2676:2679   */\n      dup3\n        /* \"#utility.yul\":2671:2674   */\n      dup6\n        /* \"#utility.yul\":2634:2688   */\n      tag_93\n      jump\t// in\n    tag_170:\n        /* \"#utility.yul\":2353:2694   */\n      pop\n        /* \"#utility.yul\":2269:2694   */\n      swap4\n      swap3\n      pop\n      pop\n      pop\n      jump\t// out\n        /* \"#utility.yul\":2714:3054   */\n    tag_95:\n        /* \"#utility.yul\":2770:2775   */\n      0x00\n        /* \"#utility.yul\":2819:2822   */\n      dup3\n        /* \"#utility.yul\":2812:2816   */\n      0x1f\n        /* \"#utility.yul\":2804:2810   */\n      dup4\n        /* \"#utility.yul\":2800:2817   */\n      add\n        /* \"#utility.yul\":2796:2823   */\n      slt\n        /* \"#utility.yul\":2786:2908   */\n      tag_172\n      jumpi\n        /* \"#utility.yul\":2827:2906   */\n      tag_173\n      tag_86\n      jump\t// in\n    tag_173:\n        /* \"#utility.yul\":2786:2908   */\n    tag_172:\n        /* \"#utility.yul\":2944:2950   */\n      dup2\n        /* \"#utility.yul\":2931:2951   */\n      calldataload\n        /* \"#utility.yul\":2969:3048   */\n      tag_174\n        /* \"#utility.yul\":3044:3047   */\n      dup5\n        /* \"#utility.yul\":3036:3042   */\n      dup3\n        /* \"#utility.yul\":3029:3033   */\n      0x20\n        /* \"#utility.yul\":3021:3027   */\n      dup7\n        /* \"#utility.yul\":3017:3034   */\n      add\n        /* \"#utility.yul\":2969:3048   */\n      tag_94\n      jump\t// in\n    tag_174:\n        /* \"#utility.yul\":2960:3048   */\n      swap2\n      pop\n        /* \"#utility.yul\":2776:3054   */\n      pop\n        /* \"#utility.yul\":2714:3054   */\n      swap3\n      swap2\n      pop\n      pop\n      jump\t// out\n        /* \"#utility.yul\":3060:3714   */\n    tag_10:\n        /* \"#utility.yul\":3138:3144   */\n      0x00\n        /* \"#utility.yul\":3146:3152   */\n      dup1\n        /* \"#utility.yul\":3195:3197   */\n      0x40\n        /* \"#utility.yul\":3183:3192   */\n      dup4\n        /* \"#utility.yul\":3174:3181   */\n      dup6\n        /* \"#utility.yul\":3170:3193   */\n      sub\n        /* \"#utility.yul\":3166:3198   */\n      slt\n        /* \"#utility.yul\":3163:3282   */\n      iszero\n      tag_176\n      jumpi\n        /* \"#utility.yul\":3201:3280   */\n      tag_177\n      tag_80\n      jump\t// in\n    tag_177:\n        /* \"#utility.yul\":3163:3282   */\n    tag_176:\n        /* \"#utility.yul\":3321:3322   */\n      0x00\n        /* \"#utility.yul\":3346:3399   */\n      tag_178\n        /* \"#utility.yul\":3391:3398   */\n      dup6\n        /* \"#utility.yul\":3382:3388   */\n      dup3\n        /* \"#utility.yul\":3371:3380   */\n      dup7\n        /* \"#utility.yul\":3367:3389   */\n      add\n        /* \"#utility.yul\":3346:3399   */\n      tag_85\n      jump\t// in\n    tag_178:\n        /* \"#utility.yul\":3336:3399   */\n      swap3\n      pop\n        /* \"#utility.yul\":3292:3409   */\n      pop\n        /* \"#utility.yul\":3476:3478   */\n      0x20\n        /* \"#utility.yul\":3465:3474   */\n      dup4\n        /* \"#utility.yul\":3461:3479   */\n      add\n        /* \"#utility.yul\":3448:3480   */\n      calldataload\n        /* \"#utility.yul\":3507:3525   */\n      0xffffffffffffffff\n        /* \"#utility.yul\":3499:3505   */\n      dup2\n        /* \"#utility.yul\":3496:3526   */\n      gt\n        /* \"#utility.yul\":3493:3610   */\n      iszero\n      tag_179\n      jumpi\n        /* \"#utility.yul\":3529:3608   */\n      tag_180\n      tag_81\n      jump\t// in\n    tag_180:\n        /* \"#utility.yul\":3493:3610   */\n    tag_179:\n        /* \"#utility.yul\":3634:3697   */\n      tag_181\n        /* \"#utility.yul\":3689:3696   */\n      dup6\n        /* \"#utility.yul\":3680:3686   */\n      dup3\n        /* \"#utility.yul\":3669:3678   */\n      dup7\n        /* \"#utility.yul\":3665:3687   */\n      add\n        /* \"#utility.yul\":3634:3697   */\n      tag_95\n      jump\t// in\n    tag_181:\n        /* \"#utility.yul\":3624:3697   */\n      swap2\n      pop\n        /* \"#utility.yul\":3419:3707   */\n      pop\n        /* \"#utility.yul\":3060:3714   */\n      swap3\n      pop\n      swap3\n      swap1\n      pop\n      jump\t// out\n        /* \"#utility.yul\":3720:3855   */\n    tag_96:\n        /* \"#utility.yul\":3808:3814   */\n      0x00\n        /* \"#utility.yul\":3842:3847   */\n      dup2\n        /* \"#utility.yul\":3836:3848   */\n      mload\n        /* \"#utility.yul\":3826:3848   */\n      swap1\n      pop\n        /* \"#utility.yul\":3720:3855   */\n      swap2\n      swap1\n      pop\n      jump\t// out\n        /* \"#utility.yul\":3861:4066   */\n    tag_97:\n        /* \"#utility.yul\":3981:3992   */\n      0x00\n        /* \"#utility.yul\":4015:4021   */\n      dup3\n        /* \"#utility.yul\":4010:4013   */\n      dup3\n        /* \"#utility.yul\":4003:4022   */\n      mstore\n        /* \"#utility.yul\":4055:4059   */\n      0x20\n        /* \"#utility.yul\":4050:4053   */\n      dup3\n        /* \"#utility.yul\":4046:4060   */\n      add\n        /* \"#utility.yul\":4031:4060   */\n      swap1\n      pop\n        /* \"#utility.yul\":3861:4066   */\n      swap3\n      swap2\n      pop\n      pop\n      jump\t// out\n        /* \"#utility.yul\":4072:4225   */\n    tag_98:\n        /* \"#utility.yul\":4160:4164   */\n      0x00\n        /* \"#utility.yul\":4183:4186   */\n      dup2\n        /* \"#utility.yul\":4175:4186   */\n      swap1\n      pop\n        /* \"#utility.yul\":4213:4217   */\n      0x20\n        /* \"#utility.yul\":4208:4211   */\n      dup3\n        /* \"#utility.yul\":4204:4218   */\n      add\n        /* \"#utility.yul\":4196:4218   */\n      swap1\n      pop\n        /* \"#utility.yul\":4072:4225   */\n      swap2\n      swap1\n      pop\n      jump\t// out\n        /* \"#utility.yul\":4231:4339   */\n    tag_99:\n        /* \"#utility.yul\":4308:4332   */\n      tag_186\n        /* \"#utility.yul\":4326:4331   */\n      dup2\n        /* \"#utility.yul\":4308:4332   */\n      tag_83\n      jump\t// in\n    tag_186:\n        /* \"#utility.yul\":4303:4306   */\n      dup3\n        /* \"#utility.yul\":4296:4333   */\n      mstore\n        /* \"#utility.yul\":4231:4339   */\n      pop\n      pop\n      jump\t// out\n        /* \"#utility.yul\":4345:4435   */\n    tag_100:\n        /* \"#utility.yul\":4379:4386   */\n      0x00\n        /* \"#utility.yul\":4422:4427   */\n      dup2\n        /* \"#utility.yul\":4415:4428   */\n      iszero\n        /* \"#utility.yul\":4408:4429   */\n      iszero\n        /* \"#utility.yul\":4397:4429   */\n      swap1\n      pop\n        /* \"#utility.yul\":4345:4435   */\n      swap2\n      swap1\n      pop\n      jump\t// out\n        /* \"#utility.yul\":4441:4540   */\n    tag_101:\n        /* \"#utility.yul\":4512:4533   */\n      tag_189\n        /* \"#utility.yul\":4527:4532   */\n      dup2\n        /* \"#utility.yul\":4512:4533   */\n      tag_100\n      jump\t// in\n    tag_189:\n        /* \"#utility.yul\":4507:4510   */\n      dup3\n        /* \"#utility.yul\":4500:4534   */\n      mstore\n        /* \"#utility.yul\":4441:4540   */\n      pop\n      pop\n      jump\t// out\n        /* \"#utility.yul\":4594:5079   */\n    tag_102:\n        /* \"#utility.yul\":4723:4727   */\n      0x40\n        /* \"#utility.yul\":4718:4721   */\n      dup3\n        /* \"#utility.yul\":4714:4728   */\n      add\n        /* \"#utility.yul\":4810:4814   */\n      0x00\n        /* \"#utility.yul\":4803:4808   */\n      dup3\n        /* \"#utility.yul\":4799:4815   */\n      add\n        /* \"#utility.yul\":4793:4816   */\n      mload\n        /* \"#utility.yul\":4829:4892   */\n      tag_191\n        /* \"#utility.yul\":4886:4890   */\n      0x00\n        /* \"#utility.yul\":4881:4884   */\n      dup6\n        /* \"#utility.yul\":4877:4891   */\n      add\n        /* \"#utility.yul\":4863:4875   */\n      dup3\n        /* \"#utility.yul\":4829:4892   */\n      tag_99\n      jump\t// in\n    tag_191:\n        /* \"#utility.yul\":4738:4902   */\n      pop\n        /* \"#utility.yul\":4986:4990   */\n      0x20\n        /* \"#utility.yul\":4979:4984   */\n      dup3\n        /* \"#utility.yul\":4975:4991   */\n      add\n        /* \"#utility.yul\":4969:4992   */\n      mload\n        /* \"#utility.yul\":5005:5062   */\n      tag_192\n        /* \"#utility.yul\":5056:5060   */\n      0x20\n        /* \"#utility.yul\":5051:5054   */\n      dup6\n        /* \"#utility.yul\":5047:5061   */\n      add\n        /* \"#utility.yul\":5033:5045   */\n      dup3\n        /* \"#utility.yul\":5005:5062   */\n      tag_101\n      jump\t// in\n    tag_192:\n        /* \"#utility.yul\":4912:5072   */\n      pop\n        /* \"#utility.yul\":4692:5079   */\n      pop\n        /* \"#utility.yul\":4594:5079   */\n      pop\n      pop\n      jump\t// out\n        /* \"#utility.yul\":5085:5348   */\n    tag_103:\n        /* \"#utility.yul\":5196:5206   */\n      0x00\n        /* \"#utility.yul\":5217:5305   */\n      tag_194\n        /* \"#utility.yul\":5301:5304   */\n      dup4\n        /* \"#utility.yul\":5293:5299   */\n      dup4\n        /* \"#utility.yul\":5217:5305   */\n      tag_102\n      jump\t// in\n    tag_194:\n        /* \"#utility.yul\":5337:5341   */\n      0x40\n        /* \"#utility.yul\":5332:5335   */\n      dup4\n        /* \"#utility.yul\":5328:5342   */\n      add\n        /* \"#utility.yul\":5314:5342   */\n      swap1\n      pop\n        /* \"#utility.yul\":5085:5348   */\n      swap3\n      swap2\n      pop\n      pop\n      jump\t// out\n        /* \"#utility.yul\":5354:5488   */\n    tag_104:\n        /* \"#utility.yul\":5445:5449   */\n      0x00\n        /* \"#utility.yul\":5477:5481   */\n      0x20\n        /* \"#utility.yul\":5472:5475   */\n      dup3\n        /* \"#utility.yul\":5468:5482   */\n      add\n        /* \"#utility.yul\":5460:5482   */\n      swap1\n      pop\n        /* \"#utility.yul\":5354:5488   */\n      swap2\n      swap1\n      pop\n      jump\t// out\n        /* \"#utility.yul\":5546:6446   */\n    tag_105:\n        /* \"#utility.yul\":5707:5710   */\n      0x00\n        /* \"#utility.yul\":5736:5811   */\n      tag_197\n        /* \"#utility.yul\":5805:5810   */\n      dup3\n        /* \"#utility.yul\":5736:5811   */\n      tag_96\n      jump\t// in\n    tag_197:\n        /* \"#utility.yul\":5827:5934   */\n      tag_198\n        /* \"#utility.yul\":5927:5933   */\n      dup2\n        /* \"#utility.yul\":5922:5925   */\n      dup6\n        /* \"#utility.yul\":5827:5934   */\n      tag_97\n      jump\t// in\n    tag_198:\n        /* \"#utility.yul\":5820:5934   */\n      swap4\n      pop\n        /* \"#utility.yul\":5958:6035   */\n      tag_199\n        /* \"#utility.yul\":6029:6034   */\n      dup4\n        /* \"#utility.yul\":5958:6035   */\n      tag_98\n      jump\t// in\n    tag_199:\n        /* \"#utility.yul\":6058:6065   */\n      dup1\n        /* \"#utility.yul\":6089:6090   */\n      0x00\n        /* \"#utility.yul\":6074:6421   */\n    tag_200:\n        /* \"#utility.yul\":6099:6105   */\n      dup4\n        /* \"#utility.yul\":6096:6097   */\n      dup2\n        /* \"#utility.yul\":6093:6106   */\n      lt\n        /* \"#utility.yul\":6074:6421   */\n      iszero\n      tag_202\n      jumpi\n        /* \"#utility.yul\":6175:6181   */\n      dup2\n        /* \"#utility.yul\":6169:6182   */\n      mload\n        /* \"#utility.yul\":6202:6307   */\n      tag_203\n        /* \"#utility.yul\":6303:6306   */\n      dup9\n        /* \"#utility.yul\":6288:6301   */\n      dup3\n        /* \"#utility.yul\":6202:6307   */\n      tag_103\n      jump\t// in\n    tag_203:\n        /* \"#utility.yul\":6195:6307   */\n      swap8\n      pop\n        /* \"#utility.yul\":6330:6411   */\n      tag_204\n        /* \"#utility.yul\":6404:6410   */\n      dup4\n        /* \"#utility.yul\":6330:6411   */\n      tag_104\n      jump\t// in\n    tag_204:\n        /* \"#utility.yul\":6320:6411   */\n      swap3\n      pop\n        /* \"#utility.yul\":6134:6421   */\n      pop\n        /* \"#utility.yul\":6121:6122   */\n      0x01\n        /* \"#utility.yul\":6118:6119   */\n      dup2\n        /* \"#utility.yul\":6114:6123   */\n      add\n        /* \"#utility.yul\":6109:6123   */\n      swap1\n      pop\n        /* \"#utility.yul\":6074:6421   */\n      jump(tag_200)\n    tag_202:\n        /* \"#utility.yul\":6078:6092   */\n      pop\n        /* \"#utility.yul\":6437:6440   */\n      dup6\n        /* \"#utility.yul\":6430:6440   */\n      swap4\n      pop\n        /* \"#utility.yul\":5712:6446   */\n      pop\n      pop\n      pop\n        /* \"#utility.yul\":5546:6446   */\n      swap3\n      swap2\n      pop\n      pop\n      jump\t// out\n        /* \"#utility.yul\":6452:6909   */\n    tag_15:\n        /* \"#utility.yul\":6637:6641   */\n      0x00\n        /* \"#utility.yul\":6675:6677   */\n      0x20\n        /* \"#utility.yul\":6664:6673   */\n      dup3\n        /* \"#utility.yul\":6660:6678   */\n      add\n        /* \"#utility.yul\":6652:6678   */\n      swap1\n      pop\n        /* \"#utility.yul\":6724:6733   */\n      dup2\n        /* \"#utility.yul\":6718:6722   */\n      dup2\n        /* \"#utility.yul\":6714:6734   */\n      sub\n        /* \"#utility.yul\":6710:6711   */\n      0x00\n        /* \"#utility.yul\":6699:6708   */\n      dup4\n        /* \"#utility.yul\":6695:6712   */\n      add\n        /* \"#utility.yul\":6688:6735   */\n      mstore\n        /* \"#utility.yul\":6752:6902   */\n      tag_206\n        /* \"#utility.yul\":6897:6901   */\n      dup2\n        /* \"#utility.yul\":6888:6894   */\n      dup5\n        /* \"#utility.yul\":6752:6902   */\n      tag_105\n      jump\t// in\n    tag_206:\n        /* \"#utility.yul\":6744:6902   */\n      swap1\n      pop\n        /* \"#utility.yul\":6452:6909   */\n      swap3\n      swap2\n      pop\n      pop\n      jump\t// out\n        /* \"#utility.yul\":6915:7244   */\n    tag_18:\n        /* \"#utility.yul\":6974:6980   */\n      0x00\n        /* \"#utility.yul\":7023:7025   */\n      0x20\n        /* \"#utility.yul\":7011:7020   */\n      dup3\n        /* \"#utility.yul\":7002:7009   */\n      dup5\n        /* \"#utility.yul\":6998:7021   */\n      sub\n        /* \"#utility.yul\":6994:7026   */\n      slt\n        /* \"#utility.yul\":6991:7110   */\n      iszero\n      tag_208\n      jumpi\n        /* \"#utility.yul\":7029:7108   */\n      tag_209\n      tag_80\n      jump\t// in\n    tag_209:\n        /* \"#utility.yul\":6991:7110   */\n    tag_208:\n        /* \"#utility.yul\":7149:7150   */\n      0x00\n        /* \"#utility.yul\":7174:7227   */\n      tag_210\n        /* \"#utility.yul\":7219:7226   */\n      dup5\n        /* \"#utility.yul\":7210:7216   */\n      dup3\n        /* \"#utility.yul\":7199:7208   */\n      dup6\n        /* \"#utility.yul\":7195:7217   */\n      add\n        /* \"#utility.yul\":7174:7227   */\n      tag_85\n      jump\t// in\n    tag_210:\n        /* \"#utility.yul\":7164:7227   */\n      swap2\n      pop\n        /* \"#utility.yul\":7120:7237   */\n      pop\n        /* \"#utility.yul\":6915:7244   */\n      swap3\n      swap2\n      pop\n      pop\n      jump\t// out\n        /* \"#utility.yul\":7250:7374   */\n    tag_106:\n        /* \"#utility.yul\":7327:7333   */\n      0x00\n        /* \"#utility.yul\":7361:7366   */\n      dup2\n        /* \"#utility.yul\":7355:7367   */\n      mload\n        /* \"#utility.yul\":7345:7367   */\n      swap1\n      pop\n        /* \"#utility.yul\":7250:7374   */\n      swap2\n      swap1\n      pop\n      jump\t// out\n        /* \"#utility.yul\":7380:7574   */\n    tag_107:\n        /* \"#utility.yul\":7489:7500   */\n      0x00\n        /* \"#utility.yul\":7523:7529   */\n      dup3\n        /* \"#utility.yul\":7518:7521   */\n      dup3\n        /* \"#utility.yul\":7511:7530   */\n      mstore\n        /* \"#utility.yul\":7563:7567   */\n      0x20\n        /* \"#utility.yul\":7558:7561   */\n      dup3\n        /* \"#utility.yul\":7554:7568   */\n      add\n        /* \"#utility.yul\":7539:7568   */\n      swap1\n      pop\n        /* \"#utility.yul\":7380:7574   */\n      swap3\n      swap2\n      pop\n      pop\n      jump\t// out\n        /* \"#utility.yul\":7580:7722   */\n    tag_108:\n        /* \"#utility.yul\":7657:7661   */\n      0x00\n        /* \"#utility.yul\":7680:7683   */\n      dup2\n        /* \"#utility.yul\":7672:7683   */\n      swap1\n      pop\n        /* \"#utility.yul\":7710:7714   */\n      0x20\n        /* \"#utility.yul\":7705:7708   */\n      dup3\n        /* \"#utility.yul\":7701:7715   */\n      add\n        /* \"#utility.yul\":7693:7715   */\n      swap1\n      pop\n        /* \"#utility.yul\":7580:7722   */\n      swap2\n      swap1\n      pop\n      jump\t// out\n        /* \"#utility.yul\":7728:7827   */\n    tag_109:\n        /* \"#utility.yul\":7780:7786   */\n      0x00\n        /* \"#utility.yul\":7814:7819   */\n      dup2\n        /* \"#utility.yul\":7808:7820   */\n      mload\n        /* \"#utility.yul\":7798:7820   */\n      swap1\n      pop\n        /* \"#utility.yul\":7728:7827   */\n      swap2\n      swap1\n      pop\n      jump\t// out\n        /* \"#utility.yul\":7833:7992   */\n    tag_110:\n        /* \"#utility.yul\":7907:7918   */\n      0x00\n        /* \"#utility.yul\":7941:7947   */\n      dup3\n        /* \"#utility.yul\":7936:7939   */\n      dup3\n        /* \"#utility.yul\":7929:7948   */\n      mstore\n        /* \"#utility.yul\":7981:7985   */\n      0x20\n        /* \"#utility.yul\":7976:7979   */\n      dup3\n        /* \"#utility.yul\":7972:7986   */\n      add\n        /* \"#utility.yul\":7957:7986   */\n      swap1\n      pop\n        /* \"#utility.yul\":7833:7992   */\n      swap3\n      swap2\n      pop\n      pop\n      jump\t// out\n        /* \"#utility.yul\":7998:8244   */\n    tag_111:\n        /* \"#utility.yul\":8079:8080   */\n      0x00\n        /* \"#utility.yul\":8089:8202   */\n    tag_217:\n        /* \"#utility.yul\":8103:8109   */\n      dup4\n        /* \"#utility.yul\":8100:8101   */\n      dup2\n        /* \"#utility.yul\":8097:8110   */\n      lt\n        /* \"#utility.yul\":8089:8202   */\n      iszero\n      tag_219\n      jumpi\n        /* \"#utility.yul\":8188:8189   */\n      dup1\n        /* \"#utility.yul\":8183:8186   */\n      dup3\n        /* \"#utility.yul\":8179:8190   */\n      add\n        /* \"#utility.yul\":8173:8191   */\n      mload\n        /* \"#utility.yul\":8169:8170   */\n      dup2\n        /* \"#utility.yul\":8164:8167   */\n      dup5\n        /* \"#utility.yul\":8160:8171   */\n      add\n        /* \"#utility.yul\":8153:8192   */\n      mstore\n        /* \"#utility.yul\":8125:8127   */\n      0x20\n        /* \"#utility.yul\":8122:8123   */\n      dup2\n        /* \"#utility.yul\":8118:8128   */\n      add\n        /* \"#utility.yul\":8113:8128   */\n      swap1\n      pop\n        /* \"#utility.yul\":8089:8202   */\n      jump(tag_217)\n    tag_219:\n        /* \"#utility.yul\":8236:8237   */\n      0x00\n        /* \"#utility.yul\":8227:8233   */\n      dup5\n        /* \"#utility.yul\":8222:8225   */\n      dup5\n        /* \"#utility.yul\":8218:8234   */\n      add\n        /* \"#utility.yul\":8211:8238   */\n      mstore\n        /* \"#utility.yul\":8060:8244   */\n      pop\n        /* \"#utility.yul\":7998:8244   */\n      pop\n      pop\n      pop\n      jump\t// out\n        /* \"#utility.yul\":8250:8607   */\n    tag_112:\n        /* \"#utility.yul\":8328:8331   */\n      0x00\n        /* \"#utility.yul\":8356:8395   */\n      tag_221\n        /* \"#utility.yul\":8389:8394   */\n      dup3\n        /* \"#utility.yul\":8356:8395   */\n      tag_109\n      jump\t// in\n    tag_221:\n        /* \"#utility.yul\":8411:8472   */\n      tag_222\n        /* \"#utility.yul\":8465:8471   */\n      dup2\n        /* \"#utility.yul\":8460:8463   */\n      dup6\n        /* \"#utility.yul\":8411:8472   */\n      tag_110\n      jump\t// in\n    tag_222:\n        /* \"#utility.yul\":8404:8472   */\n      swap4\n      pop\n        /* \"#utility.yul\":8481:8546   */\n      tag_223\n        /* \"#utility.yul\":8539:8545   */\n      dup2\n        /* \"#utility.yul\":8534:8537   */\n      dup6\n        /* \"#utility.yul\":8527:8531   */\n      0x20\n        /* \"#utility.yul\":8520:8525   */\n      dup7\n        /* \"#utility.yul\":8516:8532   */\n      add\n        /* \"#utility.yul\":8481:8546   */\n      tag_111\n      jump\t// in\n    tag_223:\n        /* \"#utility.yul\":8571:8600   */\n      tag_224\n        /* \"#utility.yul\":8593:8599   */\n      dup2\n        /* \"#utility.yul\":8571:8600   */\n      tag_88\n      jump\t// in\n    tag_224:\n        /* \"#utility.yul\":8566:8569   */\n      dup5\n        /* \"#utility.yul\":8562:8601   */\n      add\n        /* \"#utility.yul\":8555:8601   */\n      swap2\n      pop\n        /* \"#utility.yul\":8332:8607   */\n      pop\n        /* \"#utility.yul\":8250:8607   */\n      swap3\n      swap2\n      pop\n      pop\n      jump\t// out\n        /* \"#utility.yul\":8613:8809   */\n    tag_113:\n        /* \"#utility.yul\":8702:8712   */\n      0x00\n        /* \"#utility.yul\":8737:8803   */\n      tag_226\n        /* \"#utility.yul\":8799:8802   */\n      dup4\n        /* \"#utility.yul\":8791:8797   */\n      dup4\n        /* \"#utility.yul\":8737:8803   */\n      tag_112\n      jump\t// in\n    tag_226:\n        /* \"#utility.yul\":8723:8803   */\n      swap1\n      pop\n        /* \"#utility.yul\":8613:8809   */\n      swap3\n      swap2\n      pop\n      pop\n      jump\t// out\n        /* \"#utility.yul\":8815:8938   */\n    tag_114:\n        /* \"#utility.yul\":8895:8899   */\n      0x00\n        /* \"#utility.yul\":8927:8931   */\n      0x20\n        /* \"#utility.yul\":8922:8925   */\n      dup3\n        /* \"#utility.yul\":8918:8932   */\n      add\n        /* \"#utility.yul\":8910:8932   */\n      swap1\n      pop\n        /* \"#utility.yul\":8815:8938   */\n      swap2\n      swap1\n      pop\n      jump\t// out\n        /* \"#utility.yul\":8972:9963   */\n    tag_115:\n        /* \"#utility.yul\":9111:9114   */\n      0x00\n        /* \"#utility.yul\":9140:9204   */\n      tag_229\n        /* \"#utility.yul\":9198:9203   */\n      dup3\n        /* \"#utility.yul\":9140:9204   */\n      tag_106\n      jump\t// in\n    tag_229:\n        /* \"#utility.yul\":9220:9316   */\n      tag_230\n        /* \"#utility.yul\":9309:9315   */\n      dup2\n        /* \"#utility.yul\":9304:9307   */\n      dup6\n        /* \"#utility.yul\":9220:9316   */\n      tag_107\n      jump\t// in\n    tag_230:\n        /* \"#utility.yul\":9213:9316   */\n      swap4\n      pop\n        /* \"#utility.yul\":9342:9345   */\n      dup4\n        /* \"#utility.yul\":9387:9391   */\n      0x20\n        /* \"#utility.yul\":9379:9385   */\n      dup3\n        /* \"#utility.yul\":9375:9392   */\n      mul\n        /* \"#utility.yul\":9370:9373   */\n      dup6\n        /* \"#utility.yul\":9366:9393   */\n      add\n        /* \"#utility.yul\":9417:9483   */\n      tag_231\n        /* \"#utility.yul\":9477:9482   */\n      dup6\n        /* \"#utility.yul\":9417:9483   */\n      tag_108\n      jump\t// in\n    tag_231:\n        /* \"#utility.yul\":9506:9513   */\n      dup1\n        /* \"#utility.yul\":9537:9538   */\n      0x00\n        /* \"#utility.yul\":9522:9918   */\n    tag_232:\n        /* \"#utility.yul\":9547:9553   */\n      dup6\n        /* \"#utility.yul\":9544:9545   */\n      dup2\n        /* \"#utility.yul\":9541:9554   */\n      lt\n        /* \"#utility.yul\":9522:9918   */\n      iszero\n      tag_234\n      jumpi\n        /* \"#utility.yul\":9618:9627   */\n      dup5\n        /* \"#utility.yul\":9612:9616   */\n      dup5\n        /* \"#utility.yul\":9608:9628   */\n      sub\n        /* \"#utility.yul\":9603:9606   */\n      dup10\n        /* \"#utility.yul\":9596:9629   */\n      mstore\n        /* \"#utility.yul\":9669:9675   */\n      dup2\n        /* \"#utility.yul\":9663:9676   */\n      mload\n        /* \"#utility.yul\":9697:9781   */\n      tag_235\n        /* \"#utility.yul\":9776:9780   */\n      dup6\n        /* \"#utility.yul\":9761:9774   */\n      dup3\n        /* \"#utility.yul\":9697:9781   */\n      tag_113\n      jump\t// in\n    tag_235:\n        /* \"#utility.yul\":9689:9781   */\n      swap5\n      pop\n        /* \"#utility.yul\":9804:9874   */\n      tag_236\n        /* \"#utility.yul\":9867:9873   */\n      dup4\n        /* \"#utility.yul\":9804:9874   */\n      tag_114\n      jump\t// in\n    tag_236:\n        /* \"#utility.yul\":9794:9874   */\n      swap3\n      pop\n        /* \"#utility.yul\":9903:9907   */\n      0x20\n        /* \"#utility.yul\":9898:9901   */\n      dup11\n        /* \"#utility.yul\":9894:9908   */\n      add\n        /* \"#utility.yul\":9887:9908   */\n      swap10\n      pop\n        /* \"#utility.yul\":9582:9918   */\n      pop\n        /* \"#utility.yul\":9569:9570   */\n      0x01\n        /* \"#utility.yul\":9566:9567   */\n      dup2\n        /* \"#utility.yul\":9562:9571   */\n      add\n        /* \"#utility.yul\":9557:9571   */\n      swap1\n      pop\n        /* \"#utility.yul\":9522:9918   */\n      jump(tag_232)\n    tag_234:\n        /* \"#utility.yul\":9526:9540   */\n      pop\n        /* \"#utility.yul\":9934:9938   */\n      dup3\n        /* \"#utility.yul\":9927:9938   */\n      swap8\n      pop\n        /* \"#utility.yul\":9954:9957   */\n      dup8\n        /* \"#utility.yul\":9947:9957   */\n      swap6\n      pop\n        /* \"#utility.yul\":9116:9963   */\n      pop\n      pop\n      pop\n      pop\n      pop\n        /* \"#utility.yul\":8972:9963   */\n      swap3\n      swap2\n      pop\n      pop\n      jump\t// out\n        /* \"#utility.yul\":9969:10382   */\n    tag_24:\n        /* \"#utility.yul\":10132:10136   */\n      0x00\n        /* \"#utility.yul\":10170:10172   */\n      0x20\n        /* \"#utility.yul\":10159:10168   */\n      dup3\n        /* \"#utility.yul\":10155:10173   */\n      add\n        /* \"#utility.yul\":10147:10173   */\n      swap1\n      pop\n        /* \"#utility.yul\":10219:10228   */\n      dup2\n        /* \"#utility.yul\":10213:10217   */\n      dup2\n        /* \"#utility.yul\":10209:10229   */\n      sub\n        /* \"#utility.yul\":10205:10206   */\n      0x00\n        /* \"#utility.yul\":10194:10203   */\n      dup4\n        /* \"#utility.yul\":10190:10207   */\n      add\n        /* \"#utility.yul\":10183:10230   */\n      mstore\n        /* \"#utility.yul\":10247:10375   */\n      tag_238\n        /* \"#utility.yul\":10370:10374   */\n      dup2\n        /* \"#utility.yul\":10361:10367   */\n      dup5\n        /* \"#utility.yul\":10247:10375   */\n      tag_115\n      jump\t// in\n    tag_238:\n        /* \"#utility.yul\":10239:10375   */\n      swap1\n      pop\n        /* \"#utility.yul\":9969:10382   */\n      swap3\n      swap2\n      pop\n      pop\n      jump\t// out\n        /* \"#utility.yul\":10388:10568   */\n    tag_116:\n        /* \"#utility.yul\":10436:10513   */\n      0x4e487b7100000000000000000000000000000000000000000000000000000000\n        /* \"#utility.yul\":10433:10434   */\n      0x00\n        /* \"#utility.yul\":10426:10514   */\n      mstore\n        /* \"#utility.yul\":10533:10537   */\n      0x22\n        /* \"#utility.yul\":10530:10531   */\n      0x04\n        /* \"#utility.yul\":10523:10538   */\n      mstore\n        /* \"#utility.yul\":10557:10561   */\n      0x24\n        /* \"#utility.yul\":10554:10555   */\n      0x00\n        /* \"#utility.yul\":10547:10562   */\n      revert\n        /* \"#utility.yul\":10574:10894   */\n    tag_59:\n        /* \"#utility.yul\":10618:10624   */\n      0x00\n        /* \"#utility.yul\":10655:10656   */\n      0x02\n        /* \"#utility.yul\":10649:10653   */\n      dup3\n        /* \"#utility.yul\":10645:10657   */\n      div\n        /* \"#utility.yul\":10635:10657   */\n      swap1\n      pop\n        /* \"#utility.yul\":10702:10703   */\n      0x01\n        /* \"#utility.yul\":10696:10700   */\n      dup3\n        /* \"#utility.yul\":10692:10704   */\n      and\n        /* \"#utility.yul\":10723:10741   */\n      dup1\n        /* \"#utility.yul\":10713:10794   */\n      tag_241\n      jumpi\n        /* \"#utility.yul\":10779:10783   */\n      0x7f\n        /* \"#utility.yul\":10771:10777   */\n      dup3\n        /* \"#utility.yul\":10767:10784   */\n      and\n        /* \"#utility.yul\":10757:10784   */\n      swap2\n      pop\n        /* \"#utility.yul\":10713:10794   */\n    tag_241:\n        /* \"#utility.yul\":10841:10843   */\n      0x20\n        /* \"#utility.yul\":10833:10839   */\n      dup3\n        /* \"#utility.yul\":10830:10844   */\n      lt\n        /* \"#utility.yul\":10810:10828   */\n      dup2\n        /* \"#utility.yul\":10807:10845   */\n      sub\n        /* \"#utility.yul\":10804:10888   */\n      tag_242\n      jumpi\n        /* \"#utility.yul\":10860:10878   */\n      tag_243\n      tag_116\n      jump\t// in\n    tag_243:\n        /* \"#utility.yul\":10804:10888   */\n    tag_242:\n        /* \"#utility.yul\":10625:10894   */\n      pop\n        /* \"#utility.yul\":10574:10894   */\n      swap2\n      swap1\n      pop\n      jump\t// out\n        /* \"#utility.yul\":10900:11041   */\n    tag_117:\n        /* \"#utility.yul\":10949:10953   */\n      0x00\n        /* \"#utility.yul\":10972:10975   */\n      dup2\n        /* \"#utility.yul\":10964:10975   */\n      swap1\n      pop\n        /* \"#utility.yul\":10995:10998   */\n      dup2\n        /* \"#utility.yul\":10992:10993   */\n      0x00\n        /* \"#utility.yul\":10985:10999   */\n      mstore\n        /* \"#utility.yul\":11029:11033   */\n      0x20\n        /* \"#utility.yul\":11026:11027   */\n      0x00\n        /* \"#utility.yul\":11016:11034   */\n      keccak256\n        /* \"#utility.yul\":11008:11034   */\n      swap1\n      pop\n        /* \"#utility.yul\":10900:11041   */\n      swap2\n      swap1\n      pop\n      jump\t// out\n        /* \"#utility.yul\":11047:11140   */\n    tag_118:\n        /* \"#utility.yul\":11084:11090   */\n      0x00\n        /* \"#utility.yul\":11131:11133   */\n      0x20\n        /* \"#utility.yul\":11126:11128   */\n      0x1f\n        /* \"#utility.yul\":11119:11124   */\n      dup4\n        /* \"#utility.yul\":11115:11129   */\n      add\n        /* \"#utility.yul\":11111:11134   */\n      div\n        /* \"#utility.yul\":11101:11134   */\n      swap1\n      pop\n        /* \"#utility.yul\":11047:11140   */\n      swap2\n      swap1\n      pop\n      jump\t// out\n        /* \"#utility.yul\":11146:11253   */\n    tag_119:\n        /* \"#utility.yul\":11190:11198   */\n      0x00\n        /* \"#utility.yul\":11240:11245   */\n      dup3\n        /* \"#utility.yul\":11234:11238   */\n      dup3\n        /* \"#utility.yul\":11230:11246   */\n      shl\n        /* \"#utility.yul\":11209:11246   */\n      swap1\n      pop\n        /* \"#utility.yul\":11146:11253   */\n      swap3\n      swap2\n      pop\n      pop\n      jump\t// out\n        /* \"#utility.yul\":11259:11652   */\n    tag_120:\n        /* \"#utility.yul\":11328:11334   */\n      0x00\n        /* \"#utility.yul\":11378:11379   */\n      0x08\n        /* \"#utility.yul\":11366:11376   */\n      dup4\n        /* \"#utility.yul\":11362:11380   */\n      mul\n        /* \"#utility.yul\":11401:11498   */\n      tag_248\n        /* \"#utility.yul\":11431:11497   */\n      0xffffffffffffffffffffffffffffffffffffffffffffffffffffffffffffffff\n        /* \"#utility.yul\":11420:11429   */\n      dup3\n        /* \"#utility.yul\":11401:11498   */\n      tag_119\n      jump\t// in\n    tag_248:\n        /* \"#utility.yul\":11519:11558   */\n      tag_249\n        /* \"#utility.yul\":11549:11557   */\n      dup7\n        /* \"#utility.yul\":11538:11547   */\n      dup4\n        /* \"#utility.yul\":11519:11558   */\n      tag_119\n      jump\t// in\n    tag_249:\n        /* \"#utility.yul\":11507:11558   */\n      swap6\n      pop\n        /* \"#utility.yul\":11591:11595   */\n      dup1\n        /* \"#utility.yul\":11587:11596   */\n      not\n        /* \"#utility.yul\":11580:11585   */\n      dup5\n        /* \"#utility.yul\":11576:11597   */\n      and\n        /* \"#utility.yul\":11567:11597   */\n      swap4\n      pop\n        /* \"#utility.yul\":11640:11644   */\n      dup1\n        /* \"#utility.yul\":11630:11638   */\n      dup7\n        /* \"#utility.yul\":11626:11645   */\n      and\n        /* \"#utility.yul\":11619:11624   */\n      dup5\n        /* \"#utility.yul\":11616:11646   */\n      or\n        /* \"#utility.yul\":11606:11646   */\n      swap3\n      pop\n        /* \"#utility.yul\":11335:11652   */\n      pop\n      pop\n        /* \"#utility.yul\":11259:11652   */\n      swap4\n      swap3\n      pop\n      pop\n      pop\n      jump\t// out\n        /* \"#utility.yul\":11658:11735   */\n    tag_121:\n        /* \"#utility.yul\":11695:11702   */\n      0x00\n        /* \"#utility.yul\":11724:11729   */\n      dup2\n        /* \"#utility.yul\":11713:11729   */\n      swap1\n      pop\n        /* \"#utility.yul\":11658:11735   */\n      swap2\n      swap1\n      pop\n      jump\t// out\n        /* \"#utility.yul\":11741:11801   */\n    tag_122:\n        /* \"#utility.yul\":11769:11772   */\n      0x00\n        /* \"#utility.yul\":11790:11795   */\n      dup2\n        /* \"#utility.yul\":11783:11795   */\n      swap1\n      pop\n        /* \"#utility.yul\":11741:11801   */\n      swap2\n      swap1\n      pop\n      jump\t// out\n        /* \"#utility.yul\":11807:11949   */\n    tag_123:\n        /* \"#utility.yul\":11857:11866   */\n      0x00\n        /* \"#utility.yul\":11890:11943   */\n      tag_253\n        /* \"#utility.yul\":11908:11942   */\n      tag_254\n        /* \"#utility.yul\":11917:11941   */\n      tag_255\n        /* \"#utility.yul\":11935:11940   */\n      dup5\n        /* \"#utility.yul\":11917:11941   */\n      tag_121\n      jump\t// in\n    tag_255:\n        /* \"#utility.yul\":11908:11942   */\n      tag_122\n      jump\t// in\n    tag_254:\n        /* \"#utility.yul\":11890:11943   */\n      tag_121\n      jump\t// in\n    tag_253:\n        /* \"#utility.yul\":11877:11943   */\n      swap1\n      pop\n        /* \"#utility.yul\":11807:11949   */\n      swap2\n      swap1\n      pop\n      jump\t// out\n        /* \"#utility.yul\":11955:12030   */\n    tag_124:\n        /* \"#utility.yul\":11998:12001   */\n      0x00\n        /* \"#utility.yul\":12019:12024   */\n      dup2\n        /* \"#utility.yul\":12012:12024   */\n      swap1\n      pop\n        /* \"#utility.yul\":11955:12030   */\n      swap2\n      swap1\n      pop\n      jump\t// out\n        /* \"#utility.yul\":12036:12305   */\n    tag_125:\n        /* \"#utility.yul\":12146:12185   */\n      tag_258\n        /* \"#utility.yul\":12177:12184   */\n      dup4\n        /* \"#utility.yul\":12146:12185   */\n      tag_123\n      jump\t// in\n    tag_258:\n        /* \"#utility.yul\":12207:12298   */\n      tag_259\n        /* \"#utility.yul\":12256:12297   */\n      tag_260\n        /* \"#utility.yul\":12280:12296   */\n      dup3\n        /* \"#utility.yul\":12256:12297   */\n      tag_124\n      jump\t// in\n    tag_260:\n        /* \"#utility.yul\":12248:12254   */\n      dup5\n        /* \"#utility.yul\":12241:12245   */\n      dup5\n        /* \"#utility.yul\":12235:12246   */\n      sload\n        /* \"#utility.yul\":12207:12298   */\n      tag_120\n      jump\t// in\n    tag_259:\n        /* \"#utility.yul\":12201:12205   */\n      dup3\n        /* \"#utility.yul\":12194:12299   */\n      sstore\n        /* \"#utility.yul\":12112:12305   */\n      pop\n        /* \"#utility.yul\":12036:12305   */\n      pop\n      pop\n      pop\n      jump\t// out\n        /* \"#utility.yul\":12311:12384   */\n    tag_126:\n        /* \"#utility.yul\":12356:12359   */\n      0x00\n        /* \"#utility.yul\":12311:12384   */\n      swap1\n      jump\t// out\n        /* \"#utility.yul\":12390:12579   */\n    tag_127:\n        /* \"#utility.yul\":12467:12499   */\n      tag_263\n      tag_126\n      jump\t// in\n    tag_263:\n        /* \"#utility.yul\":12508:12573   */\n      tag_264\n        /* \"#utility.yul\":12566:12572   */\n      dup2\n        /* \"#utility.yul\":12558:12564   */\n      dup5\n        /* \"#utility.yul\":12552:12556   */\n      dup5\n        /* \"#utility.yul\":12508:12573   */\n      tag_125\n      jump\t// in\n    tag_264:\n        /* \"#utility.yul\":12443:12579   */\n      pop\n        /* \"#utility.yul\":12390:12579   */\n      pop\n      pop\n      jump\t// out\n        /* \"#utility.yul\":12585:12771   */\n    tag_128:\n        /* \"#utility.yul\":12645:12765   */\n    tag_266:\n        /* \"#utility.yul\":12662:12665   */\n      dup2\n        /* \"#utility.yul\":12655:12660   */\n      dup2\n        /* \"#utility.yul\":12652:12666   */\n      lt\n        /* \"#utility.yul\":12645:12765   */\n      iszero\n      tag_268\n      jumpi\n        /* \"#utility.yul\":12716:12755   */\n      tag_269\n        /* \"#utility.yul\":12753:12754   */\n      0x00\n        /* \"#utility.yul\":12746:12751   */\n      dup3\n        /* \"#utility.yul\":12716:12755   */\n      tag_127\n      jump\t// in\n    tag_269:\n        /* \"#utility.yul\":12689:12690   */\n      0x01\n        /* \"#utility.yul\":12682:12687   */\n      dup2\n        /* \"#utility.yul\":12678:12691   */\n      add\n        /* \"#utility.yul\":12669:12691   */\n      swap1\n      pop\n        /* \"#utility.yul\":12645:12765   */\n      jump(tag_266)\n    tag_268:\n        /* \"#utility.yul\":12585:12771   */\n      pop\n      pop\n      jump\t// out\n        /* \"#utility.yul\":12777:13320   */\n    tag_129:\n        /* \"#utility.yul\":12878:12880   */\n      0x1f\n        /* \"#utility.yul\":12873:12876   */\n      dup3\n        /* \"#utility.yul\":12870:12881   */\n      gt\n        /* \"#utility.yul\":12867:13313   */\n      iszero\n      tag_271\n      jumpi\n        /* \"#utility.yul\":12912:12950   */\n      tag_272\n        /* \"#utility.yul\":12944:12949   */\n      dup2\n        /* \"#utility.yul\":12912:12950   */\n      tag_117\n      jump\t// in\n    tag_272:\n        /* \"#utility.yul\":12996:13025   */\n      tag_273\n        /* \"#utility.yul\":13014:13024   */\n      dup5\n        /* \"#utility.yul\":12996:13025   */\n      tag_118\n      jump\t// in\n    tag_273:\n        /* \"#utility.yul\":12986:12994   */\n      dup2\n        /* \"#utility.yul\":12982:13026   */\n      add\n        /* \"#utility.yul\":13179:13181   */\n      0x20\n        /* \"#utility.yul\":13167:13177   */\n      dup6\n        /* \"#utility.yul\":13164:13182   */\n      lt\n        /* \"#utility.yul\":13161:13210   */\n      iszero\n      tag_274\n      jumpi\n        /* \"#utility.yul\":13200:13208   */\n      dup2\n        /* \"#utility.yul\":13185:13208   */\n      swap1\n      pop\n        /* \"#utility.yul\":13161:13210   */\n    tag_274:\n        /* \"#utility.yul\":13223:13303   */\n      tag_275\n        /* \"#utility.yul\":13279:13301   */\n      tag_276\n        /* \"#utility.yul\":13297:13300   */\n      dup6\n        /* \"#utility.yul\":13279:13301   */\n      tag_118\n      jump\t// in\n    tag_276:\n        /* \"#utility.yul\":13269:13277   */\n      dup4\n        /* \"#utility.yul\":13265:13302   */\n      add\n        /* \"#utility.yul\":13252:13263   */\n      dup3\n        /* \"#utility.yul\":13223:13303   */\n      tag_128\n      jump\t// in\n    tag_275:\n        /* \"#utility.yul\":12882:13313   */\n      pop\n      pop\n        /* \"#utility.yul\":12867:13313   */\n    tag_271:\n        /* \"#utility.yul\":12777:13320   */\n      pop\n      pop\n      pop\n      jump\t// out\n        /* \"#utility.yul\":13326:13443   */\n    tag_130:\n        /* \"#utility.yul\":13380:13388   */\n      0x00\n        /* \"#utility.yul\":13430:13435   */\n      dup3\n        /* \"#utility.yul\":13424:13428   */\n      dup3\n        /* \"#utility.yul\":13420:13436   */\n      shr\n        /* \"#utility.yul\":13399:13436   */\n      swap1\n      pop\n        /* \"#utility.yul\":13326:13443   */\n      swap3\n      swap2\n      pop\n      pop\n      jump\t// out\n        /* \"#utility.yul\":13449:13618   */\n    tag_131:\n        /* \"#utility.yul\":13493:13499   */\n      0x00\n        /* \"#utility.yul\":13526:13577   */\n      tag_279\n        /* \"#utility.yul\":13574:13575   */\n      0x00\n        /* \"#utility.yul\":13570:13576   */\n      not\n        /* \"#utility.yul\":13562:13567   */\n      dup5\n        /* \"#utility.yul\":13559:13560   */\n      0x08\n        /* \"#utility.yul\":13555:13568   */\n      mul\n        /* \"#utility.yul\":13526:13577   */\n      tag_130\n      jump\t// in\n    tag_279:\n        /* \"#utility.yul\":13522:13578   */\n      not\n        /* \"#utility.yul\":13607:13611   */\n      dup1\n        /* \"#utility.yul\":13601:13605   */\n      dup4\n        /* \"#utility.yul\":13597:13612   */\n      and\n        /* \"#utility.yul\":13587:13612   */\n      swap2\n      pop\n        /* \"#utility.yul\":13500:13618   */\n      pop\n        /* \"#utility.yul\":13449:13618   */\n      swap3\n      swap2\n      pop\n      pop\n      jump\t// out\n        /* \"#utility.yul\":13623:13918   */\n    tag_132:\n        /* \"#utility.yul\":13699:13703   */\n      0x00\n        /* \"#utility.yul\":13845:13874   */\n      tag_281\n        /* \"#utility.yul\":13870:13873   */\n      dup4\n        /* \"#utility.yul\":13864:13868   */\n      dup4\n        /* \"#utility.yul\":13845:13874   */\n      tag_131\n      jump\t// in\n    tag_281:\n        /* \"#utility.yul\":13837:13874   */\n      swap2\n      pop\n        /* \"#utility.yul\":13907:13910   */\n      dup3\n        /* \"#utility.yul\":13904:13905   */\n      0x02\n        /* \"#utility.yul\":13900:13911   */\n      mul\n        /* \"#utility.yul\":13894:13898   */\n      dup3\n        /* \"#utility.yul\":13891:13912   */\n      or\n        /* \"#utility.yul\":13883:13912   */\n      swap1\n      pop\n        /* \"#utility.yul\":13623:13918   */\n      swap3\n      swap2\n      pop\n      pop\n      jump\t// out\n        /* \"#utility.yul\":13923:15318   */\n    tag_31:\n        /* \"#utility.yul\":14040:14077   */\n      tag_283\n        /* \"#utility.yul\":14073:14076   */\n      dup3\n        /* \"#utility.yul\":14040:14077   */\n      tag_109\n      jump\t// in\n    tag_283:\n        /* \"#utility.yul\":14142:14160   */\n      0xffffffffffffffff\n        /* \"#utility.yul\":14134:14140   */\n      dup2\n        /* \"#utility.yul\":14131:14161   */\n      gt\n        /* \"#utility.yul\":14128:14184   */\n      iszero\n      tag_284\n      jumpi\n        /* \"#utility.yul\":14164:14182   */\n      tag_285\n      tag_89\n      jump\t// in\n    tag_285:\n        /* \"#utility.yul\":14128:14184   */\n    tag_284:\n        /* \"#utility.yul\":14208:14246   */\n      tag_286\n        /* \"#utility.yul\":14240:14244   */\n      dup3\n        /* \"#utility.yul\":14234:14245   */\n      sload\n        /* \"#utility.yul\":14208:14246   */\n      tag_59\n      jump\t// in\n    tag_286:\n        /* \"#utility.yul\":14293:14360   */\n      tag_287\n        /* \"#utility.yul\":14353:14359   */\n      dup3\n        /* \"#utility.yul\":14345:14351   */\n      dup3\n        /* \"#utility.yul\":14339:14343   */\n      dup6\n        /* \"#utility.yul\":14293:14360   */\n      tag_129\n      jump\t// in\n    tag_287:\n        /* \"#utility.yul\":14387:14388   */\n      0x00\n        /* \"#utility.yul\":14411:14415   */\n      0x20\n        /* \"#utility.yul\":14398:14415   */\n      swap1\n      pop\n        /* \"#utility.yul\":14443:14445   */\n      0x1f\n        /* \"#utility.yul\":14435:14441   */\n      dup4\n        /* \"#utility.yul\":14432:14446   */\n      gt\n        /* \"#utility.yul\":14460:14461   */\n      0x01\n        /* \"#utility.yul\":14455:15073   */\n      dup2\n      eq\n      tag_289\n      jumpi\n        /* \"#utility.yul\":15117:15118   */\n      0x00\n        /* \"#utility.yul\":15134:15140   */\n      dup5\n        /* \"#utility.yul\":15131:15208   */\n      iszero\n      tag_290\n      jumpi\n        /* \"#utility.yul\":15183:15192   */\n      dup3\n        /* \"#utility.yul\":15178:15181   */\n      dup8\n        /* \"#utility.yul\":15174:15193   */\n      add\n        /* \"#utility.yul\":15168:15194   */\n      mload\n        /* \"#utility.yul\":15159:15194   */\n      swap1\n      pop\n        /* \"#utility.yul\":15131:15208   */\n    tag_290:\n        /* \"#utility.yul\":15234:15301   */\n      tag_291\n        /* \"#utility.yul\":15294:15300   */\n      dup6\n        /* \"#utility.yul\":15287:15292   */\n      dup3\n        /* \"#utility.yul\":15234:15301   */\n      tag_132\n      jump\t// in\n    tag_291:\n        /* \"#utility.yul\":15228:15232   */\n      dup7\n        /* \"#utility.yul\":15221:15302   */\n      sstore\n        /* \"#utility.yul\":15090:15312   */\n      pop\n        /* \"#utility.yul\":14425:15312   */\n      jump(tag_288)\n        /* \"#utility.yul\":14455:15073   */\n    tag_289:\n        /* \"#utility.yul\":14507:14511   */\n      0x1f\n        /* \"#utility.yul\":14503:14512   */\n      not\n        /* \"#utility.yul\":14495:14501   */\n      dup5\n        /* \"#utility.yul\":14491:14513   */\n      and\n        /* \"#utility.yul\":14541:14578   */\n      tag_292\n        /* \"#utility.yul\":14573:14577   */\n      dup7\n        /* \"#utility.yul\":14541:14578   */\n      tag_117\n      jump\t// in\n    tag_292:\n        /* \"#utility.yul\":14600:14601   */\n      0x00\n        /* \"#utility.yul\":14614:14822   */\n    tag_293:\n        /* \"#utility.yul\":14628:14635   */\n      dup3\n        /* \"#utility.yul\":14625:14626   */\n      dup2\n        /* \"#utility.yul\":14622:14636   */\n      lt\n        /* \"#utility.yul\":14614:14822   */\n      iszero\n      tag_295\n      jumpi\n        /* \"#utility.yul\":14707:14716   */\n      dup5\n        /* \"#utility.yul\":14702:14705   */\n      dup10\n        /* \"#utility.yul\":14698:14717   */\n      add\n        /* \"#utility.yul\":14692:14718   */\n      mload\n        /* \"#utility.yul\":14684:14690   */\n      dup3\n        /* \"#utility.yul\":14677:14719   */\n      sstore\n        /* \"#utility.yul\":14758:14759   */\n      0x01\n        /* \"#utility.yul\":14750:14756   */\n      dup3\n        /* \"#utility.yul\":14746:14760   */\n      add\n        /* \"#utility.yul\":14736:14760   */\n      swap2\n      pop\n        /* \"#utility.yul\":14805:14807   */\n      0x20\n        /* \"#utility.yul\":14794:14803   */\n      dup6\n        /* \"#utility.yul\":14790:14808   */\n      add\n        /* \"#utility.yul\":14777:14808   */\n      swap5\n      pop\n        /* \"#utility.yul\":14651:14655   */\n      0x20\n        /* \"#utility.yul\":14648:14649   */\n      dup2\n        /* \"#utility.yul\":14644:14656   */\n      add\n        /* \"#utility.yul\":14639:14656   */\n      swap1\n      pop\n        /* \"#utility.yul\":14614:14822   */\n      jump(tag_293)\n    tag_295:\n        /* \"#utility.yul\":14850:14856   */\n      dup7\n        /* \"#utility.yul\":14841:14848   */\n      dup4\n        /* \"#utility.yul\":14838:14857   */\n      lt\n        /* \"#utility.yul\":14835:15014   */\n      iszero\n      tag_296\n      jumpi\n        /* \"#utility.yul\":14908:14917   */\n      dup5\n        /* \"#utility.yul\":14903:14906   */\n      dup10\n        /* \"#utility.yul\":14899:14918   */\n      add\n        /* \"#utility.yul\":14893:14919   */\n      mload\n        /* \"#utility.yul\":14951:14999   */\n      tag_297\n        /* \"#utility.yul\":14993:14997   */\n      0x1f\n        /* \"#utility.yul\":14985:14991   */\n      dup10\n        /* \"#utility.yul\":14981:14998   */\n      and\n        /* \"#utility.yul\":14970:14979   */\n      dup3\n        /* \"#utility.yul\":14951:14999   */\n      tag_131\n      jump\t// in\n    tag_297:\n        /* \"#utility.yul\":14943:14949   */\n      dup4\n        /* \"#utility.yul\":14936:15000   */\n      sstore\n        /* \"#utility.yul\":14858:15014   */\n      pop\n        /* \"#utility.yul\":14835:15014   */\n    tag_296:\n        /* \"#utility.yul\":15060:15061   */\n      0x01\n        /* \"#utility.yul\":15056:15057   */\n      0x02\n        /* \"#utility.yul\":15048:15054   */\n      dup9\n        /* \"#utility.yul\":15044:15058   */\n      mul\n        /* \"#utility.yul\":15040:15062   */\n      add\n        /* \"#utility.yul\":15034:15038   */\n      dup9\n        /* \"#utility.yul\":15027:15063   */\n      sstore\n        /* \"#utility.yul\":14462:15073   */\n      pop\n      pop\n      pop\n        /* \"#utility.yul\":14425:15312   */\n    tag_288:\n      pop\n        /* \"#utility.yul\":14015:15318   */\n      pop\n      pop\n      pop\n        /* \"#utility.yul\":13923:15318   */\n      pop\n      pop\n      jump\t// out\n        /* \"#utility.yul\":15324:15504   */\n    tag_42:\n        /* \"#utility.yul\":15372:15449   */\n      0x4e487b7100000000000000000000000000000000000000000000000000000000\n        /* \"#utility.yul\":15369:15370   */\n      0x00\n        /* \"#utility.yul\":15362:15450   */\n      mstore\n        /* \"#utility.yul\":15469:15473   */\n      0x32\n        /* \"#utility.yul\":15466:15467   */\n      0x04\n        /* \"#utility.yul\":15459:15474   */\n      mstore\n        /* \"#utility.yul\":15493:15497   */\n      0x24\n        /* \"#utility.yul\":15490:15491   */\n      0x00\n        /* \"#utility.yul\":15483:15498   */\n      revert\n        /* \"#utility.yul\":15510:15690   */\n    tag_133:\n        /* \"#utility.yul\":15558:15635   */\n      0x4e487b7100000000000000000000000000000000000000000000000000000000\n        /* \"#utility.yul\":15555:15556   */\n      0x00\n        /* \"#utility.yul\":15548:15636   */\n      mstore\n        /* \"#utility.yul\":15655:15659   */\n      0x11\n        /* \"#utility.yul\":15652:15653   */\n      0x04\n        /* \"#utility.yul\":15645:15660   */\n      mstore\n        /* \"#utility.yul\":15679:15683   */\n      0x24\n        /* \"#utility.yul\":15676:15677   */\n      0x00\n        /* \"#utility.yul\":15669:15684   */\n      revert\n        /* \"#utility.yul\":15696:15929   */\n    tag_49:\n        /* \"#utility.yul\":15735:15738   */\n      0x00\n        /* \"#utility.yul\":15758:15782   */\n      tag_301\n        /* \"#utility.yul\":15776:15781   */\n      dup3\n        /* \"#utility.yul\":15758:15782   */\n      tag_121\n      jump\t// in\n    tag_301:\n        /* \"#utility.yul\":15749:15782   */\n      swap2\n      pop\n        /* \"#utility.yul\":15804:15870   */\n      0xffffffffffffffffffffffffffffffffffffffffffffffffffffffffffffffff\n        /* \"#utility.yul\":15797:15802   */\n      dup3\n        /* \"#utility.yul\":15794:15871   */\n      sub\n        /* \"#utility.yul\":15791:15894   */\n      tag_302\n      jumpi\n        /* \"#utility.yul\":15874:15892   */\n      tag_303\n      tag_133\n      jump\t// in\n    tag_303:\n        /* \"#utility.yul\":15791:15894   */\n    tag_302:\n        /* \"#utility.yul\":15921:15922   */\n      0x01\n        /* \"#utility.yul\":15914:15919   */\n      dup3\n        /* \"#utility.yul\":15910:15923   */\n      add\n        /* \"#utility.yul\":15903:15923   */\n      swap1\n      pop\n        /* \"#utility.yul\":15696:15929   */\n      swap2\n      swap1\n      pop\n      jump\t// out\n        /* \"#utility.yul\":15935:16104   */\n    tag_134:\n        /* \"#utility.yul\":16019:16030   */\n      0x00\n        /* \"#utility.yul\":16053:16059   */\n      dup3\n        /* \"#utility.yul\":16048:16051   */\n      dup3\n        /* \"#utility.yul\":16041:16060   */\n      mstore\n        /* \"#utility.yul\":16093:16097   */\n      0x20\n        /* \"#utility.yul\":16088:16091   */\n      dup3\n        /* \"#utility.yul\":16084:16098   */\n      add\n        /* \"#utility.yul\":16069:16098   */\n      swap1\n      pop\n        /* \"#utility.yul\":15935:16104   */\n      swap3\n      swap2\n      pop\n      pop\n      jump\t// out\n        /* \"#utility.yul\":16110:16279   */\n    tag_135:\n        /* \"#utility.yul\":16250:16271   */\n      0x796f7520617265206e6f7420616c6c6f77656400000000000000000000000000\n        /* \"#utility.yul\":16246:16247   */\n      0x00\n        /* \"#utility.yul\":16238:16244   */\n      dup3\n        /* \"#utility.yul\":16234:16248   */\n      add\n        /* \"#utility.yul\":16227:16272   */\n      mstore\n        /* \"#utility.yul\":16110:16279   */\n      pop\n      jump\t// out\n        /* \"#utility.yul\":16285:16651   */\n    tag_136:\n        /* \"#utility.yul\":16427:16430   */\n      0x00\n        /* \"#utility.yul\":16448:16515   */\n      tag_307\n        /* \"#utility.yul\":16512:16514   */\n      0x13\n        /* \"#utility.yul\":16507:16510   */\n      dup4\n        /* \"#utility.yul\":16448:16515   */\n      tag_134\n      jump\t// in\n    tag_307:\n        /* \"#utility.yul\":16441:16515   */\n      swap2\n      pop\n        /* \"#utility.yul\":16524:16617   */\n      tag_308\n        /* \"#utility.yul\":16613:16616   */\n      dup3\n        /* \"#utility.yul\":16524:16617   */\n      tag_135\n      jump\t// in\n    tag_308:\n        /* \"#utility.yul\":16642:16644   */\n      0x20\n        /* \"#utility.yul\":16637:16640   */\n      dup3\n        /* \"#utility.yul\":16633:16645   */\n      add\n        /* \"#utility.yul\":16626:16645   */\n      swap1\n      pop\n        /* \"#utility.yul\":16285:16651   */\n      swap2\n      swap1\n      pop\n      jump\t// out\n        /* \"#utility.yul\":16657:17076   */\n    tag_54:\n        /* \"#utility.yul\":16823:16827   */\n      0x00\n        /* \"#utility.yul\":16861:16863   */\n      0x20\n        /* \"#utility.yul\":16850:16859   */\n      dup3\n        /* \"#utility.yul\":16846:16864   */\n      add\n        /* \"#utility.yul\":16838:16864   */\n      swap1\n      pop\n        /* \"#utility.yul\":16910:16919   */\n      dup2\n        /* \"#utility.yul\":16904:16908   */\n      dup2\n        /* \"#utility.yul\":16900:16920   */\n      sub\n        /* \"#utility.yul\":16896:16897   */\n      0x00\n        /* \"#utility.yul\":16885:16894   */\n      dup4\n        /* \"#utility.yul\":16881:16898   */\n      add\n        /* \"#utility.yul\":16874:16921   */\n      mstore\n        /* \"#utility.yul\":16938:17069   */\n      tag_310\n        /* \"#utility.yul\":17064:17068   */\n      dup2\n        /* \"#utility.yul\":16938:17069   */\n      tag_136\n      jump\t// in\n    tag_310:\n        /* \"#utility.yul\":16930:17069   */\n      swap1\n      pop\n        /* \"#utility.yul\":16657:17076   */\n      swap2\n      swap1\n      pop\n      jump\t// out\n\n    auxdata: 0xa2646970667358221220c40311310af547befe2e7967d094e0bc628b811ff3223785be9bb3f319ebc00464736f6c63430008120033\n}\n",
				"bytecode": {
					"linkReferences": {},
					"object": "608060405234801561001057600080fd5b50611409806100206000396000f3fe608060405234801561001057600080fd5b50600436106100575760003560e01c806336d6da551461005c578063a8d5fd6514610078578063a9ed9cb814610096578063eb39113f146100b2578063ff9913e8146100e2575b600080fd5b61007660048036038101906100719190610cb2565b6100fe565b005b610080610173565b60405161008d9190610e16565b60405180910390f35b6100b060048036038101906100ab9190610e38565b61027c565b005b6100cc60048036038101906100c79190610e38565b61049e565b6040516100d99190610fa6565b60405180910390f35b6100fc60048036038101906100f79190610e38565b6106b4565b005b6000808373ffffffffffffffffffffffffffffffffffffffff1673ffffffffffffffffffffffffffffffffffffffff1681526020019081526020016000208190806001815401808255809150506001900390600052602060002001600090919091909150908161016e91906111de565b505050565b6060600360003373ffffffffffffffffffffffffffffffffffffffff1673ffffffffffffffffffffffffffffffffffffffff168152602001908152602001600020805480602002602001604051908101604052809291908181526020016000905b82821015610273578382906000526020600020016040518060400160405290816000820160009054906101000a900473ffffffffffffffffffffffffffffffffffffffff1673ffffffffffffffffffffffffffffffffffffffff1673ffffffffffffffffffffffffffffffffffffffff1681526020016000820160149054906101000a900460ff161515151581525050815260200190600101906101d4565b50505050905090565b6000600160003373ffffffffffffffffffffffffffffffffffffffff1673ffffffffffffffffffffffffffffffffffffffff16815260200190815260200160002060008373ffffffffffffffffffffffffffffffffffffffff1673ffffffffffffffffffffffffffffffffffffffff16815260200190815260200160002060006101000a81548160ff02191690831515021790555060005b600360003373ffffffffffffffffffffffffffffffffffffffff1673ffffffffffffffffffffffffffffffffffffffff1681526020019081526020016000208054905081101561049a578173ffffffffffffffffffffffffffffffffffffffff16600360003373ffffffffffffffffffffffffffffffffffffffff1673ffffffffffffffffffffffffffffffffffffffff16815260200190815260200160002082815481106103c6576103c56112b0565b5b9060005260206000200160000160009054906101000a900473ffffffffffffffffffffffffffffffffffffffff1673ffffffffffffffffffffffffffffffffffffffff1603610487576000600360003373ffffffffffffffffffffffffffffffffffffffff1673ffffffffffffffffffffffffffffffffffffffff1681526020019081526020016000208281548110610462576104616112b0565b5b9060005260206000200160000160146101000a81548160ff0219169083151502179055505b80806104929061130e565b915050610314565b5050565b60603373ffffffffffffffffffffffffffffffffffffffff168273ffffffffffffffffffffffffffffffffffffffff1614806105605750600160008373ffffffffffffffffffffffffffffffffffffffff1673ffffffffffffffffffffffffffffffffffffffff16815260200190815260200160002060003373ffffffffffffffffffffffffffffffffffffffff1673ffffffffffffffffffffffffffffffffffffffff16815260200190815260200160002060009054906101000a900460ff165b61059f576040517f08c379a0000000000000000000000000000000000000000000000000000000008152600401610596906113b3565b60405180910390fd5b6000808373ffffffffffffffffffffffffffffffffffffffff1673ffffffffffffffffffffffffffffffffffffffff168152602001908152602001600020805480602002602001604051908101604052809291908181526020016000905b828210156106a957838290600052602060002001805461061c90610ff7565b80601f016020809104026020016040519081016040528092919081815260200182805461064890610ff7565b80156106955780601f1061066a57610100808354040283529160200191610695565b820191906000526020600020905b81548152906001019060200180831161067857829003601f168201915b5050505050815260200190600101906105fd565b505050509050919050565b60018060003373ffffffffffffffffffffffffffffffffffffffff1673ffffffffffffffffffffffffffffffffffffffff16815260200190815260200160002060008373ffffffffffffffffffffffffffffffffffffffff1673ffffffffffffffffffffffffffffffffffffffff16815260200190815260200160002060006101000a81548160ff021916908315150217905550600260003373ffffffffffffffffffffffffffffffffffffffff1673ffffffffffffffffffffffffffffffffffffffff16815260200190815260200160002060008273ffffffffffffffffffffffffffffffffffffffff1673ffffffffffffffffffffffffffffffffffffffff16815260200190815260200160002060009054906101000a900460ff16156109665760005b600360003373ffffffffffffffffffffffffffffffffffffffff1673ffffffffffffffffffffffffffffffffffffffff16815260200190815260200160002080549050811015610960578173ffffffffffffffffffffffffffffffffffffffff16600360003373ffffffffffffffffffffffffffffffffffffffff1673ffffffffffffffffffffffffffffffffffffffff168152602001908152602001600020828154811061088c5761088b6112b0565b5b9060005260206000200160000160009054906101000a900473ffffffffffffffffffffffffffffffffffffffff1673ffffffffffffffffffffffffffffffffffffffff160361094d576001600360003373ffffffffffffffffffffffffffffffffffffffff1673ffffffffffffffffffffffffffffffffffffffff1681526020019081526020016000208281548110610928576109276112b0565b5b9060005260206000200160000160146101000a81548160ff0219169083151502179055505b80806109589061130e565b9150506107da565b50610af7565b600360003373ffffffffffffffffffffffffffffffffffffffff1673ffffffffffffffffffffffffffffffffffffffff16815260200190815260200160002060405180604001604052808373ffffffffffffffffffffffffffffffffffffffff168152602001600115158152509080600181540180825580915050600190039060005260206000200160009091909190915060008201518160000160006101000a81548173ffffffffffffffffffffffffffffffffffffffff021916908373ffffffffffffffffffffffffffffffffffffffff16021790555060208201518160000160146101000a81548160ff02191690831515021790555050506001600260003373ffffffffffffffffffffffffffffffffffffffff1673ffffffffffffffffffffffffffffffffffffffff16815260200190815260200160002060008373ffffffffffffffffffffffffffffffffffffffff1673ffffffffffffffffffffffffffffffffffffffff16815260200190815260200160002060006101000a81548160ff0219169083151502179055505b50565b6000604051905090565b600080fd5b600080fd5b600073ffffffffffffffffffffffffffffffffffffffff82169050919050565b6000610b3982610b0e565b9050919050565b610b4981610b2e565b8114610b5457600080fd5b50565b600081359050610b6681610b40565b92915050565b600080fd5b600080fd5b6000601f19601f8301169050919050565b7f4e487b7100000000000000000000000000000000000000000000000000000000600052604160045260246000fd5b610bbf82610b76565b810181811067ffffffffffffffff82111715610bde57610bdd610b87565b5b80604052505050565b6000610bf1610afa565b9050610bfd8282610bb6565b919050565b600067ffffffffffffffff821115610c1d57610c1c610b87565b5b610c2682610b76565b9050602081019050919050565b82818337600083830152505050565b6000610c55610c5084610c02565b610be7565b905082815260208101848484011115610c7157610c70610b71565b5b610c7c848285610c33565b509392505050565b600082601f830112610c9957610c98610b6c565b5b8135610ca9848260208601610c42565b91505092915050565b60008060408385031215610cc957610cc8610b04565b5b6000610cd785828601610b57565b925050602083013567ffffffffffffffff811115610cf857610cf7610b09565b5b610d0485828601610c84565b9150509250929050565b600081519050919050565b600082825260208201905092915050565b6000819050602082019050919050565b610d4381610b2e565b82525050565b60008115159050919050565b610d5e81610d49565b82525050565b604082016000820151610d7a6000850182610d3a565b506020820151610d8d6020850182610d55565b50505050565b6000610d9f8383610d64565b60408301905092915050565b6000602082019050919050565b6000610dc382610d0e565b610dcd8185610d19565b9350610dd883610d2a565b8060005b83811015610e09578151610df08882610d93565b9750610dfb83610dab565b925050600181019050610ddc565b5085935050505092915050565b60006020820190508181036000830152610e308184610db8565b905092915050565b600060208284031215610e4e57610e4d610b04565b5b6000610e5c84828501610b57565b91505092915050565b600081519050919050565b600082825260208201905092915050565b6000819050602082019050919050565b600081519050919050565b600082825260208201905092915050565b60005b83811015610ecb578082015181840152602081019050610eb0565b60008484015250505050565b6000610ee282610e91565b610eec8185610e9c565b9350610efc818560208601610ead565b610f0581610b76565b840191505092915050565b6000610f1c8383610ed7565b905092915050565b6000602082019050919050565b6000610f3c82610e65565b610f468185610e70565b935083602082028501610f5885610e81565b8060005b85811015610f945784840389528151610f758582610f10565b9450610f8083610f24565b925060208a01995050600181019050610f5c565b50829750879550505050505092915050565b60006020820190508181036000830152610fc08184610f31565b905092915050565b7f4e487b7100000000000000000000000000000000000000000000000000000000600052602260045260246000fd5b6000600282049050600182168061100f57607f821691505b60208210810361102257611021610fc8565b5b50919050565b60008190508160005260206000209050919050565b60006020601f8301049050919050565b600082821b905092915050565b60006008830261108a7fffffffffffffffffffffffffffffffffffffffffffffffffffffffffffffffff8261104d565b611094868361104d565b95508019841693508086168417925050509392505050565b6000819050919050565b6000819050919050565b60006110db6110d66110d1846110ac565b6110b6565b6110ac565b9050919050565b6000819050919050565b6110f5836110c0565b611109611101826110e2565b84845461105a565b825550505050565b600090565b61111e611111565b6111298184846110ec565b505050565b5b8181101561114d57611142600082611116565b60018101905061112f565b5050565b601f8211156111925761116381611028565b61116c8461103d565b8101602085101561117b578190505b61118f6111878561103d565b83018261112e565b50505b505050565b600082821c905092915050565b60006111b560001984600802611197565b1980831691505092915050565b60006111ce83836111a4565b9150826002028217905092915050565b6111e782610e91565b67ffffffffffffffff811115611200576111ff610b87565b5b61120a8254610ff7565b611215828285611151565b600060209050601f8311600181146112485760008415611236578287015190505b61124085826111c2565b8655506112a8565b601f19841661125686611028565b60005b8281101561127e57848901518255600182019150602085019450602081019050611259565b8683101561129b5784890151611297601f8916826111a4565b8355505b6001600288020188555050505b505050505050565b7f4e487b7100000000000000000000000000000000000000000000000000000000600052603260045260246000fd5b7f4e487b7100000000000000000000000000000000000000000000000000000000600052601160045260246000fd5b6000611319826110ac565b91507fffffffffffffffffffffffffffffffffffffffffffffffffffffffffffffffff820361134b5761134a6112df565b5b600182019050919050565b600082825260208201905092915050565b7f796f7520617265206e6f7420616c6c6f77656400000000000000000000000000600082015250565b600061139d601383611356565b91506113a882611367565b602082019050919050565b600060208201905081810360008301526113cc81611390565b905091905056fea2646970667358221220c40311310af547befe2e7967d094e0bc628b811ff3223785be9bb3f319ebc00464736f6c63430008120033",
					"opcodes": "PUSH1 0x80 PUSH1 0x40 MSTORE CALLVALUE DUP1 ISZERO PUSH2 0x10 JUMPI PUSH1 0x0 DUP1 REVERT JUMPDEST POP PUSH2 0x1409 DUP1 PUSH2 0x20 PUSH1 0x0 CODECOPY PUSH1 0x0 RETURN INVALID PUSH1 0x80 PUSH1 0x40 MSTORE CALLVALUE DUP1 ISZERO PUSH2 0x10 JUMPI PUSH1 0x0 DUP1 REVERT JUMPDEST POP PUSH1 0x4 CALLDATASIZE LT PUSH2 0x57 JUMPI PUSH1 0x0 CALLDATALOAD PUSH1 0xE0 SHR DUP1 PUSH4 0x36D6DA55 EQ PUSH2 0x5C JUMPI DUP1 PUSH4 0xA8D5FD65 EQ PUSH2 0x78 JUMPI DUP1 PUSH4 0xA9ED9CB8 EQ PUSH2 0x96 JUMPI DUP1 PUSH4 0xEB39113F EQ PUSH2 0xB2 JUMPI DUP1 PUSH4 0xFF9913E8 EQ PUSH2 0xE2 JUMPI JUMPDEST PUSH1 0x0 DUP1 REVERT JUMPDEST PUSH2 0x76 PUSH1 0x4 DUP1 CALLDATASIZE SUB DUP2 ADD SWAP1 PUSH2 0x71 SWAP2 SWAP1 PUSH2 0xCB2 JUMP JUMPDEST PUSH2 0xFE JUMP JUMPDEST STOP JUMPDEST PUSH2 0x80 PUSH2 0x173 JUMP JUMPDEST PUSH1 0x40 MLOAD PUSH2 0x8D SWAP2 SWAP1 PUSH2 0xE16 JUMP JUMPDEST PUSH1 0x40 MLOAD DUP1 SWAP2 SUB SWAP1 RETURN JUMPDEST PUSH2 0xB0 PUSH1 0x4 DUP1 CALLDATASIZE SUB DUP2 ADD SWAP1 PUSH2 0xAB SWAP2 SWAP1 PUSH2 0xE38 JUMP JUMPDEST PUSH2 0x27C JUMP JUMPDEST STOP JUMPDEST PUSH2 0xCC PUSH1 0x4 DUP1 CALLDATASIZE SUB DUP2 ADD SWAP1 PUSH2 0xC7 SWAP2 SWAP1 PUSH2 0xE38 JUMP JUMPDEST PUSH2 0x49E JUMP JUMPDEST PUSH1 0x40 MLOAD PUSH2 0xD9 SWAP2 SWAP1 PUSH2 0xFA6 JUMP JUMPDEST PUSH1 0x40 MLOAD DUP1 SWAP2 SUB SWAP1 RETURN JUMPDEST PUSH2 0xFC PUSH1 0x4 DUP1 CALLDATASIZE SUB DUP2 ADD SWAP1 PUSH2 0xF7 SWAP2 SWAP1 PUSH2 0xE38 JUMP JUMPDEST PUSH2 0x6B4 JUMP JUMPDEST STOP JUMPDEST PUSH1 0x0 DUP1 DUP4 PUSH20 0xFFFFFFFFFFFFFFFFFFFFFFFFFFFFFFFFFFFFFFFF AND PUSH20 0xFFFFFFFFFFFFFFFFFFFFFFFFFFFFFFFFFFFFFFFF AND DUP2 MSTORE PUSH1 0x20 ADD SWAP1 DUP2 MSTORE PUSH1 0x20 ADD PUSH1 0x0 KECCAK256 DUP2 SWAP1 DUP1 PUSH1 0x1 DUP2 SLOAD ADD DUP1 DUP3 SSTORE DUP1 SWAP2 POP POP PUSH1 0x1 SWAP1 SUB SWAP1 PUSH1 0x0 MSTORE PUSH1 0x20 PUSH1 0x0 KECCAK256 ADD PUSH1 0x0 SWAP1 SWAP2 SWAP1 SWAP2 SWAP1 SWAP2 POP SWAP1 DUP2 PUSH2 0x16E SWAP2 SWAP1 PUSH2 0x11DE JUMP JUMPDEST POP POP POP JUMP JUMPDEST PUSH1 0x60 PUSH1 0x3 PUSH1 0x0 CALLER PUSH20 0xFFFFFFFFFFFFFFFFFFFFFFFFFFFFFFFFFFFFFFFF AND PUSH20 0xFFFFFFFFFFFFFFFFFFFFFFFFFFFFFFFFFFFFFFFF AND DUP2 MSTORE PUSH1 0x20 ADD SWAP1 DUP2 MSTORE PUSH1 0x20 ADD PUSH1 0x0 KECCAK256 DUP1 SLOAD DUP1 PUSH1 0x20 MUL PUSH1 0x20 ADD PUSH1 0x40 MLOAD SWAP1 DUP2 ADD PUSH1 0x40 MSTORE DUP1 SWAP3 SWAP2 SWAP1 DUP2 DUP2 MSTORE PUSH1 0x20 ADD PUSH1 0x0 SWAP1 JUMPDEST DUP3 DUP3 LT ISZERO PUSH2 0x273 JUMPI DUP4 DUP3 SWAP1 PUSH1 0x0 MSTORE PUSH1 0x20 PUSH1 0x0 KECCAK256 ADD PUSH1 0x40 MLOAD DUP1 PUSH1 0x40 ADD PUSH1 0x40 MSTORE SWAP1 DUP2 PUSH1 0x0 DUP3 ADD PUSH1 0x0 SWAP1 SLOAD SWAP1 PUSH2 0x100 EXP SWAP1 DIV PUSH20 0xFFFFFFFFFFFFFFFFFFFFFFFFFFFFFFFFFFFFFFFF AND PUSH20 0xFFFFFFFFFFFFFFFFFFFFFFFFFFFFFFFFFFFFFFFF AND PUSH20 0xFFFFFFFFFFFFFFFFFFFFFFFFFFFFFFFFFFFFFFFF AND DUP2 MSTORE PUSH1 0x20 ADD PUSH1 0x0 DUP3 ADD PUSH1 0x14 SWAP1 SLOAD SWAP1 PUSH2 0x100 EXP SWAP1 DIV PUSH1 0xFF AND ISZERO ISZERO ISZERO ISZERO DUP2 MSTORE POP POP DUP2 MSTORE PUSH1 0x20 ADD SWAP1 PUSH1 0x1 ADD SWAP1 PUSH2 0x1D4 JUMP JUMPDEST POP POP POP POP SWAP1 POP SWAP1 JUMP JUMPDEST PUSH1 0x0 PUSH1 0x1 PUSH1 0x0 CALLER PUSH20 0xFFFFFFFFFFFFFFFFFFFFFFFFFFFFFFFFFFFFFFFF AND PUSH20 0xFFFFFFFFFFFFFFFFFFFFFFFFFFFFFFFFFFFFFFFF AND DUP2 MSTORE PUSH1 0x20 ADD SWAP1 DUP2 MSTORE PUSH1 0x20 ADD PUSH1 0x0 KECCAK256 PUSH1 0x0 DUP4 PUSH20 0xFFFFFFFFFFFFFFFFFFFFFFFFFFFFFFFFFFFFFFFF AND PUSH20 0xFFFFFFFFFFFFFFFFFFFFFFFFFFFFFFFFFFFFFFFF AND DUP2 MSTORE PUSH1 0x20 ADD SWAP1 DUP2 MSTORE PUSH1 0x20 ADD PUSH1 0x0 KECCAK256 PUSH1 0x0 PUSH2 0x100 EXP DUP2 SLOAD DUP2 PUSH1 0xFF MUL NOT AND SWAP1 DUP4 ISZERO ISZERO MUL OR SWAP1 SSTORE POP PUSH1 0x0 JUMPDEST PUSH1 0x3 PUSH1 0x0 CALLER PUSH20 0xFFFFFFFFFFFFFFFFFFFFFFFFFFFFFFFFFFFFFFFF AND PUSH20 0xFFFFFFFFFFFFFFFFFFFFFFFFFFFFFFFFFFFFFFFF AND DUP2 MSTORE PUSH1 0x20 ADD SWAP1 DUP2 MSTORE PUSH1 0x20 ADD PUSH1 0x0 KECCAK256 DUP1 SLOAD SWAP1 POP DUP2 LT ISZERO PUSH2 0x49A JUMPI DUP2 PUSH20 0xFFFFFFFFFFFFFFFFFFFFFFFFFFFFFFFFFFFFFFFF AND PUSH1 0x3 PUSH1 0x0 CALLER PUSH20 0xFFFFFFFFFFFFFFFFFFFFFFFFFFFFFFFFFFFFFFFF AND PUSH20 0xFFFFFFFFFFFFFFFFFFFFFFFFFFFFFFFFFFFFFFFF AND DUP2 MSTORE PUSH1 0x20 ADD SWAP1 DUP2 MSTORE PUSH1 0x20 ADD PUSH1 0x0 KECCAK256 DUP3 DUP2 SLOAD DUP2 LT PUSH2 0x3C6 JUMPI PUSH2 0x3C5 PUSH2 0x12B0 JUMP JUMPDEST JUMPDEST SWAP1 PUSH1 0x0 MSTORE PUSH1 0x20 PUSH1 0x0 KECCAK256 ADD PUSH1 0x0 ADD PUSH1 0x0 SWAP1 SLOAD SWAP1 PUSH2 0x100 EXP SWAP1 DIV PUSH20 0xFFFFFFFFFFFFFFFFFFFFFFFFFFFFFFFFFFFFFFFF AND PUSH20 0xFFFFFFFFFFFFFFFFFFFFFFFFFFFFFFFFFFFFFFFF AND SUB PUSH2 0x487 JUMPI PUSH1 0x0 PUSH1 0x3 PUSH1 0x0 CALLER PUSH20 0xFFFFFFFFFFFFFFFFFFFFFFFFFFFFFFFFFFFFFFFF AND PUSH20 0xFFFFFFFFFFFFFFFFFFFFFFFFFFFFFFFFFFFFFFFF AND DUP2 MSTORE PUSH1 0x20 ADD SWAP1 DUP2 MSTORE PUSH1 0x20 ADD PUSH1 0x0 KECCAK256 DUP3 DUP2 SLOAD DUP2 LT PUSH2 0x462 JUMPI PUSH2 0x461 PUSH2 0x12B0 JUMP JUMPDEST JUMPDEST SWAP1 PUSH1 0x0 MSTORE PUSH1 0x20 PUSH1 0x0 KECCAK256 ADD PUSH1 0x0 ADD PUSH1 0x14 PUSH2 0x100 EXP DUP2 SLOAD DUP2 PUSH1 0xFF MUL NOT AND SWAP1 DUP4 ISZERO ISZERO MUL OR SWAP1 SSTORE POP JUMPDEST DUP1 DUP1 PUSH2 0x492 SWAP1 PUSH2 0x130E JUMP JUMPDEST SWAP2 POP POP PUSH2 0x314 JUMP JUMPDEST POP POP JUMP JUMPDEST PUSH1 0x60 CALLER PUSH20 0xFFFFFFFFFFFFFFFFFFFFFFFFFFFFFFFFFFFFFFFF AND DUP3 PUSH20 0xFFFFFFFFFFFFFFFFFFFFFFFFFFFFFFFFFFFFFFFF AND EQ DUP1 PUSH2 0x560 JUMPI POP PUSH1 0x1 PUSH1 0x0 DUP4 PUSH20 0xFFFFFFFFFFFFFFFFFFFFFFFFFFFFFFFFFFFFFFFF AND PUSH20 0xFFFFFFFFFFFFFFFFFFFFFFFFFFFFFFFFFFFFFFFF AND DUP2 MSTORE PUSH1 0x20 ADD SWAP1 DUP2 MSTORE PUSH1 0x20 ADD PUSH1 0x0 KECCAK256 PUSH1 0x0 CALLER PUSH20 0xFFFFFFFFFFFFFFFFFFFFFFFFFFFFFFFFFFFFFFFF AND PUSH20 0xFFFFFFFFFFFFFFFFFFFFFFFFFFFFFFFFFFFFFFFF AND DUP2 MSTORE PUSH1 0x20 ADD SWAP1 DUP2 MSTORE PUSH1 0x20 ADD PUSH1 0x0 KECCAK256 PUSH1 0x0 SWAP1 SLOAD SWAP1 PUSH2 0x100 EXP SWAP1 DIV PUSH1 0xFF AND JUMPDEST PUSH2 0x59F JUMPI PUSH1 0x40 MLOAD PUSH32 0x8C379A000000000000000000000000000000000000000000000000000000000 DUP2 MSTORE PUSH1 0x4 ADD PUSH2 0x596 SWAP1 PUSH2 0x13B3 JUMP JUMPDEST PUSH1 0x40 MLOAD DUP1 SWAP2 SUB SWAP1 REVERT JUMPDEST PUSH1 0x0 DUP1 DUP4 PUSH20 0xFFFFFFFFFFFFFFFFFFFFFFFFFFFFFFFFFFFFFFFF AND PUSH20 0xFFFFFFFFFFFFFFFFFFFFFFFFFFFFFFFFFFFFFFFF AND DUP2 MSTORE PUSH1 0x20 ADD SWAP1 DUP2 MSTORE PUSH1 0x20 ADD PUSH1 0x0 KECCAK256 DUP1 SLOAD DUP1 PUSH1 0x20 MUL PUSH1 0x20 ADD PUSH1 0x40 MLOAD SWAP1 DUP2 ADD PUSH1 0x40 MSTORE DUP1 SWAP3 SWAP2 SWAP1 DUP2 DUP2 MSTORE PUSH1 0x20 ADD PUSH1 0x0 SWAP1 JUMPDEST DUP3 DUP3 LT ISZERO PUSH2 0x6A9 JUMPI DUP4 DUP3 SWAP1 PUSH1 0x0 MSTORE PUSH1 0x20 PUSH1 0x0 KECCAK256 ADD DUP1 SLOAD PUSH2 0x61C SWAP1 PUSH2 0xFF7 JUMP JUMPDEST DUP1 PUSH1 0x1F ADD PUSH1 0x20 DUP1 SWAP2 DIV MUL PUSH1 0x20 ADD PUSH1 0x40 MLOAD SWAP1 DUP2 ADD PUSH1 0x40 MSTORE DUP1 SWAP3 SWAP2 SWAP1 DUP2 DUP2 MSTORE PUSH1 0x20 ADD DUP3 DUP1 SLOAD PUSH2 0x648 SWAP1 PUSH2 0xFF7 JUMP JUMPDEST DUP1 ISZERO PUSH2 0x695 JUMPI DUP1 PUSH1 0x1F LT PUSH2 0x66A JUMPI PUSH2 0x100 DUP1 DUP4 SLOAD DIV MUL DUP4 MSTORE SWAP2 PUSH1 0x20 ADD SWAP2 PUSH2 0x695 JUMP JUMPDEST DUP3 ADD SWAP2 SWAP1 PUSH1 0x0 MSTORE PUSH1 0x20 PUSH1 0x0 KECCAK256 SWAP1 JUMPDEST DUP2 SLOAD DUP2 MSTORE SWAP1 PUSH1 0x1 ADD SWAP1 PUSH1 0x20 ADD DUP1 DUP4 GT PUSH2 0x678 JUMPI DUP3 SWAP1 SUB PUSH1 0x1F AND DUP3 ADD SWAP2 JUMPDEST POP POP POP POP POP DUP2 MSTORE PUSH1 0x20 ADD SWAP1 PUSH1 0x1 ADD SWAP1 PUSH2 0x5FD JUMP JUMPDEST POP POP POP POP SWAP1 POP SWAP2 SWAP1 POP JUMP JUMPDEST PUSH1 0x1 DUP1 PUSH1 0x0 CALLER PUSH20 0xFFFFFFFFFFFFFFFFFFFFFFFFFFFFFFFFFFFFFFFF AND PUSH20 0xFFFFFFFFFFFFFFFFFFFFFFFFFFFFFFFFFFFFFFFF AND DUP2 MSTORE PUSH1 0x20 ADD SWAP1 DUP2 MSTORE PUSH1 0x20 ADD PUSH1 0x0 KECCAK256 PUSH1 0x0 DUP4 PUSH20 0xFFFFFFFFFFFFFFFFFFFFFFFFFFFFFFFFFFFFFFFF AND PUSH20 0xFFFFFFFFFFFFFFFFFFFFFFFFFFFFFFFFFFFFFFFF AND DUP2 MSTORE PUSH1 0x20 ADD SWAP1 DUP2 MSTORE PUSH1 0x20 ADD PUSH1 0x0 KECCAK256 PUSH1 0x0 PUSH2 0x100 EXP DUP2 SLOAD DUP2 PUSH1 0xFF MUL NOT AND SWAP1 DUP4 ISZERO ISZERO MUL OR SWAP1 SSTORE POP PUSH1 0x2 PUSH1 0x0 CALLER PUSH20 0xFFFFFFFFFFFFFFFFFFFFFFFFFFFFFFFFFFFFFFFF AND PUSH20 0xFFFFFFFFFFFFFFFFFFFFFFFFFFFFFFFFFFFFFFFF AND DUP2 MSTORE PUSH1 0x20 ADD SWAP1 DUP2 MSTORE PUSH1 0x20 ADD PUSH1 0x0 KECCAK256 PUSH1 0x0 DUP3 PUSH20 0xFFFFFFFFFFFFFFFFFFFFFFFFFFFFFFFFFFFFFFFF AND PUSH20 0xFFFFFFFFFFFFFFFFFFFFFFFFFFFFFFFFFFFFFFFF AND DUP2 MSTORE PUSH1 0x20 ADD SWAP1 DUP2 MSTORE PUSH1 0x20 ADD PUSH1 0x0 KECCAK256 PUSH1 0x0 SWAP1 SLOAD SWAP1 PUSH2 0x100 EXP SWAP1 DIV PUSH1 0xFF AND ISZERO PUSH2 0x966 JUMPI PUSH1 0x0 JUMPDEST PUSH1 0x3 PUSH1 0x0 CALLER PUSH20 0xFFFFFFFFFFFFFFFFFFFFFFFFFFFFFFFFFFFFFFFF AND PUSH20 0xFFFFFFFFFFFFFFFFFFFFFFFFFFFFFFFFFFFFFFFF AND DUP2 MSTORE PUSH1 0x20 ADD SWAP1 DUP2 MSTORE PUSH1 0x20 ADD PUSH1 0x0 KECCAK256 DUP1 SLOAD SWAP1 POP DUP2 LT ISZERO PUSH2 0x960 JUMPI DUP2 PUSH20 0xFFFFFFFFFFFFFFFFFFFFFFFFFFFFFFFFFFFFFFFF AND PUSH1 0x3 PUSH1 0x0 CALLER PUSH20 0xFFFFFFFFFFFFFFFFFFFFFFFFFFFFFFFFFFFFFFFF AND PUSH20 0xFFFFFFFFFFFFFFFFFFFFFFFFFFFFFFFFFFFFFFFF AND DUP2 MSTORE PUSH1 0x20 ADD SWAP1 DUP2 MSTORE PUSH1 0x20 ADD PUSH1 0x0 KECCAK256 DUP3 DUP2 SLOAD DUP2 LT PUSH2 0x88C JUMPI PUSH2 0x88B PUSH2 0x12B0 JUMP JUMPDEST JUMPDEST SWAP1 PUSH1 0x0 MSTORE PUSH1 0x20 PUSH1 0x0 KECCAK256 ADD PUSH1 0x0 ADD PUSH1 0x0 SWAP1 SLOAD SWAP1 PUSH2 0x100 EXP SWAP1 DIV PUSH20 0xFFFFFFFFFFFFFFFFFFFFFFFFFFFFFFFFFFFFFFFF AND PUSH20 0xFFFFFFFFFFFFFFFFFFFFFFFFFFFFFFFFFFFFFFFF AND SUB PUSH2 0x94D JUMPI PUSH1 0x1 PUSH1 0x3 PUSH1 0x0 CALLER PUSH20 0xFFFFFFFFFFFFFFFFFFFFFFFFFFFFFFFFFFFFFFFF AND PUSH20 0xFFFFFFFFFFFFFFFFFFFFFFFFFFFFFFFFFFFFFFFF AND DUP2 MSTORE PUSH1 0x20 ADD SWAP1 DUP2 MSTORE PUSH1 0x20 ADD PUSH1 0x0 KECCAK256 DUP3 DUP2 SLOAD DUP2 LT PUSH2 0x928 JUMPI PUSH2 0x927 PUSH2 0x12B0 JUMP JUMPDEST JUMPDEST SWAP1 PUSH1 0x0 MSTORE PUSH1 0x20 PUSH1 0x0 KECCAK256 ADD PUSH1 0x0 ADD PUSH1 0x14 PUSH2 0x100 EXP DUP2 SLOAD DUP2 PUSH1 0xFF MUL NOT AND SWAP1 DUP4 ISZERO ISZERO MUL OR SWAP1 SSTORE POP JUMPDEST DUP1 DUP1 PUSH2 0x958 SWAP1 PUSH2 0x130E JUMP JUMPDEST SWAP2 POP POP PUSH2 0x7DA JUMP JUMPDEST POP PUSH2 0xAF7 JUMP JUMPDEST PUSH1 0x3 PUSH1 0x0 CALLER PUSH20 0xFFFFFFFFFFFFFFFFFFFFFFFFFFFFFFFFFFFFFFFF AND PUSH20 0xFFFFFFFFFFFFFFFFFFFFFFFFFFFFFFFFFFFFFFFF AND DUP2 MSTORE PUSH1 0x20 ADD SWAP1 DUP2 MSTORE PUSH1 0x20 ADD PUSH1 0x0 KECCAK256 PUSH1 0x40 MLOAD DUP1 PUSH1 0x40 ADD PUSH1 0x40 MSTORE DUP1 DUP4 PUSH20 0xFFFFFFFFFFFFFFFFFFFFFFFFFFFFFFFFFFFFFFFF AND DUP2 MSTORE PUSH1 0x20 ADD PUSH1 0x1 ISZERO ISZERO DUP2 MSTORE POP SWAP1 DUP1 PUSH1 0x1 DUP2 SLOAD ADD DUP1 DUP3 SSTORE DUP1 SWAP2 POP POP PUSH1 0x1 SWAP1 SUB SWAP1 PUSH1 0x0 MSTORE PUSH1 0x20 PUSH1 0x0 KECCAK256 ADD PUSH1 0x0 SWAP1 SWAP2 SWAP1 SWAP2 SWAP1 SWAP2 POP PUSH1 0x0 DUP3 ADD MLOAD DUP2 PUSH1 0x0 ADD PUSH1 0x0 PUSH2 0x100 EXP DUP2 SLOAD DUP2 PUSH20 0xFFFFFFFFFFFFFFFFFFFFFFFFFFFFFFFFFFFFFFFF MUL NOT AND SWAP1 DUP4 PUSH20 0xFFFFFFFFFFFFFFFFFFFFFFFFFFFFFFFFFFFFFFFF AND MUL OR SWAP1 SSTORE POP PUSH1 0x20 DUP3 ADD MLOAD DUP2 PUSH1 0x0 ADD PUSH1 0x14 PUSH2 0x100 EXP DUP2 SLOAD DUP2 PUSH1 0xFF MUL NOT AND SWAP1 DUP4 ISZERO ISZERO MUL OR SWAP1 SSTORE POP POP POP PUSH1 0x1 PUSH1 0x2 PUSH1 0x0 CALLER PUSH20 0xFFFFFFFFFFFFFFFFFFFFFFFFFFFFFFFFFFFFFFFF AND PUSH20 0xFFFFFFFFFFFFFFFFFFFFFFFFFFFFFFFFFFFFFFFF AND DUP2 MSTORE PUSH1 0x20 ADD SWAP1 DUP2 MSTORE PUSH1 0x20 ADD PUSH1 0x0 KECCAK256 PUSH1 0x0 DUP4 PUSH20 0xFFFFFFFFFFFFFFFFFFFFFFFFFFFFFFFFFFFFFFFF AND PUSH20 0xFFFFFFFFFFFFFFFFFFFFFFFFFFFFFFFFFFFFFFFF AND DUP2 MSTORE PUSH1 0x20 ADD SWAP1 DUP2 MSTORE PUSH1 0x20 ADD PUSH1 0x0 KECCAK256 PUSH1 0x0 PUSH2 0x100 EXP DUP2 SLOAD DUP2 PUSH1 0xFF MUL NOT AND SWAP1 DUP4 ISZERO ISZERO MUL OR SWAP1 SSTORE POP JUMPDEST POP JUMP JUMPDEST PUSH1 0x0 PUSH1 0x40 MLOAD SWAP1 POP SWAP1 JUMP JUMPDEST PUSH1 0x0 DUP1 REVERT JUMPDEST PUSH1 0x0 DUP1 REVERT JUMPDEST PUSH1 0x0 PUSH20 0xFFFFFFFFFFFFFFFFFFFFFFFFFFFFFFFFFFFFFFFF DUP3 AND SWAP1 POP SWAP2 SWAP1 POP JUMP JUMPDEST PUSH1 0x0 PUSH2 0xB39 DUP3 PUSH2 0xB0E JUMP JUMPDEST SWAP1 POP SWAP2 SWAP1 POP JUMP JUMPDEST PUSH2 0xB49 DUP2 PUSH2 0xB2E JUMP JUMPDEST DUP2 EQ PUSH2 0xB54 JUMPI PUSH1 0x0 DUP1 REVERT JUMPDEST POP JUMP JUMPDEST PUSH1 0x0 DUP2 CALLDATALOAD SWAP1 POP PUSH2 0xB66 DUP2 PUSH2 0xB40 JUMP JUMPDEST SWAP3 SWAP2 POP POP JUMP JUMPDEST PUSH1 0x0 DUP1 REVERT JUMPDEST PUSH1 0x0 DUP1 REVERT JUMPDEST PUSH1 0x0 PUSH1 0x1F NOT PUSH1 0x1F DUP4 ADD AND SWAP1 POP SWAP2 SWAP1 POP JUMP JUMPDEST PUSH32 0x4E487B7100000000000000000000000000000000000000000000000000000000 PUSH1 0x0 MSTORE PUSH1 0x41 PUSH1 0x4 MSTORE PUSH1 0x24 PUSH1 0x0 REVERT JUMPDEST PUSH2 0xBBF DUP3 PUSH2 0xB76 JUMP JUMPDEST DUP2 ADD DUP2 DUP2 LT PUSH8 0xFFFFFFFFFFFFFFFF DUP3 GT OR ISZERO PUSH2 0xBDE JUMPI PUSH2 0xBDD PUSH2 0xB87 JUMP JUMPDEST JUMPDEST DUP1 PUSH1 0x40 MSTORE POP POP POP JUMP JUMPDEST PUSH1 0x0 PUSH2 0xBF1 PUSH2 0xAFA JUMP JUMPDEST SWAP1 POP PUSH2 0xBFD DUP3 DUP3 PUSH2 0xBB6 JUMP JUMPDEST SWAP2 SWAP1 POP JUMP JUMPDEST PUSH1 0x0 PUSH8 0xFFFFFFFFFFFFFFFF DUP3 GT ISZERO PUSH2 0xC1D JUMPI PUSH2 0xC1C PUSH2 0xB87 JUMP JUMPDEST JUMPDEST PUSH2 0xC26 DUP3 PUSH2 0xB76 JUMP JUMPDEST SWAP1 POP PUSH1 0x20 DUP2 ADD SWAP1 POP SWAP2 SWAP1 POP JUMP JUMPDEST DUP3 DUP2 DUP4 CALLDATACOPY PUSH1 0x0 DUP4 DUP4 ADD MSTORE POP POP POP JUMP JUMPDEST PUSH1 0x0 PUSH2 0xC55 PUSH2 0xC50 DUP5 PUSH2 0xC02 JUMP JUMPDEST PUSH2 0xBE7 JUMP JUMPDEST SWAP1 POP DUP3 DUP2 MSTORE PUSH1 0x20 DUP2 ADD DUP5 DUP5 DUP5 ADD GT ISZERO PUSH2 0xC71 JUMPI PUSH2 0xC70 PUSH2 0xB71 JUMP JUMPDEST JUMPDEST PUSH2 0xC7C DUP5 DUP3 DUP6 PUSH2 0xC33 JUMP JUMPDEST POP SWAP4 SWAP3 POP POP POP JUMP JUMPDEST PUSH1 0x0 DUP3 PUSH1 0x1F DUP4 ADD SLT PUSH2 0xC99 JUMPI PUSH2 0xC98 PUSH2 0xB6C JUMP JUMPDEST JUMPDEST DUP2 CALLDATALOAD PUSH2 0xCA9 DUP5 DUP3 PUSH1 0x20 DUP7 ADD PUSH2 0xC42 JUMP JUMPDEST SWAP2 POP POP SWAP3 SWAP2 POP POP JUMP JUMPDEST PUSH1 0x0 DUP1 PUSH1 0x40 DUP4 DUP6 SUB SLT ISZERO PUSH2 0xCC9 JUMPI PUSH2 0xCC8 PUSH2 0xB04 JUMP JUMPDEST JUMPDEST PUSH1 0x0 PUSH2 0xCD7 DUP6 DUP3 DUP7 ADD PUSH2 0xB57 JUMP JUMPDEST SWAP3 POP POP PUSH1 0x20 DUP4 ADD CALLDATALOAD PUSH8 0xFFFFFFFFFFFFFFFF DUP2 GT ISZERO PUSH2 0xCF8 JUMPI PUSH2 0xCF7 PUSH2 0xB09 JUMP JUMPDEST JUMPDEST PUSH2 0xD04 DUP6 DUP3 DUP7 ADD PUSH2 0xC84 JUMP JUMPDEST SWAP2 POP POP SWAP3 POP SWAP3 SWAP1 POP JUMP JUMPDEST PUSH1 0x0 DUP2 MLOAD SWAP1 POP SWAP2 SWAP1 POP JUMP JUMPDEST PUSH1 0x0 DUP3 DUP3 MSTORE PUSH1 0x20 DUP3 ADD SWAP1 POP SWAP3 SWAP2 POP POP JUMP JUMPDEST PUSH1 0x0 DUP2 SWAP1 POP PUSH1 0x20 DUP3 ADD SWAP1 POP SWAP2 SWAP1 POP JUMP JUMPDEST PUSH2 0xD43 DUP2 PUSH2 0xB2E JUMP JUMPDEST DUP3 MSTORE POP POP JUMP JUMPDEST PUSH1 0x0 DUP2 ISZERO ISZERO SWAP1 POP SWAP2 SWAP1 POP JUMP JUMPDEST PUSH2 0xD5E DUP2 PUSH2 0xD49 JUMP JUMPDEST DUP3 MSTORE POP POP JUMP JUMPDEST PUSH1 0x40 DUP3 ADD PUSH1 0x0 DUP3 ADD MLOAD PUSH2 0xD7A PUSH1 0x0 DUP6 ADD DUP3 PUSH2 0xD3A JUMP JUMPDEST POP PUSH1 0x20 DUP3 ADD MLOAD PUSH2 0xD8D PUSH1 0x20 DUP6 ADD DUP3 PUSH2 0xD55 JUMP JUMPDEST POP POP POP POP JUMP JUMPDEST PUSH1 0x0 PUSH2 0xD9F DUP4 DUP4 PUSH2 0xD64 JUMP JUMPDEST PUSH1 0x40 DUP4 ADD SWAP1 POP SWAP3 SWAP2 POP POP JUMP JUMPDEST PUSH1 0x0 PUSH1 0x20 DUP3 ADD SWAP1 POP SWAP2 SWAP1 POP JUMP JUMPDEST PUSH1 0x0 PUSH2 0xDC3 DUP3 PUSH2 0xD0E JUMP JUMPDEST PUSH2 0xDCD DUP2 DUP6 PUSH2 0xD19 JUMP JUMPDEST SWAP4 POP PUSH2 0xDD8 DUP4 PUSH2 0xD2A JUMP JUMPDEST DUP1 PUSH1 0x0 JUMPDEST DUP4 DUP2 LT ISZERO PUSH2 0xE09 JUMPI DUP2 MLOAD PUSH2 0xDF0 DUP9 DUP3 PUSH2 0xD93 JUMP JUMPDEST SWAP8 POP PUSH2 0xDFB DUP4 PUSH2 0xDAB JUMP JUMPDEST SWAP3 POP POP PUSH1 0x1 DUP2 ADD SWAP1 POP PUSH2 0xDDC JUMP JUMPDEST POP DUP6 SWAP4 POP POP POP POP SWAP3 SWAP2 POP POP JUMP JUMPDEST PUSH1 0x0 PUSH1 0x20 DUP3 ADD SWAP1 POP DUP2 DUP2 SUB PUSH1 0x0 DUP4 ADD MSTORE PUSH2 0xE30 DUP2 DUP5 PUSH2 0xDB8 JUMP JUMPDEST SWAP1 POP SWAP3 SWAP2 POP POP JUMP JUMPDEST PUSH1 0x0 PUSH1 0x20 DUP3 DUP5 SUB SLT ISZERO PUSH2 0xE4E JUMPI PUSH2 0xE4D PUSH2 0xB04 JUMP JUMPDEST JUMPDEST PUSH1 0x0 PUSH2 0xE5C DUP5 DUP3 DUP6 ADD PUSH2 0xB57 JUMP JUMPDEST SWAP2 POP POP SWAP3 SWAP2 POP POP JUMP JUMPDEST PUSH1 0x0 DUP2 MLOAD SWAP1 POP SWAP2 SWAP1 POP JUMP JUMPDEST PUSH1 0x0 DUP3 DUP3 MSTORE PUSH1 0x20 DUP3 ADD SWAP1 POP SWAP3 SWAP2 POP POP JUMP JUMPDEST PUSH1 0x0 DUP2 SWAP1 POP PUSH1 0x20 DUP3 ADD SWAP1 POP SWAP2 SWAP1 POP JUMP JUMPDEST PUSH1 0x0 DUP2 MLOAD SWAP1 POP SWAP2 SWAP1 POP JUMP JUMPDEST PUSH1 0x0 DUP3 DUP3 MSTORE PUSH1 0x20 DUP3 ADD SWAP1 POP SWAP3 SWAP2 POP POP JUMP JUMPDEST PUSH1 0x0 JUMPDEST DUP4 DUP2 LT ISZERO PUSH2 0xECB JUMPI DUP1 DUP3 ADD MLOAD DUP2 DUP5 ADD MSTORE PUSH1 0x20 DUP2 ADD SWAP1 POP PUSH2 0xEB0 JUMP JUMPDEST PUSH1 0x0 DUP5 DUP5 ADD MSTORE POP POP POP POP JUMP JUMPDEST PUSH1 0x0 PUSH2 0xEE2 DUP3 PUSH2 0xE91 JUMP JUMPDEST PUSH2 0xEEC DUP2 DUP6 PUSH2 0xE9C JUMP JUMPDEST SWAP4 POP PUSH2 0xEFC DUP2 DUP6 PUSH1 0x20 DUP7 ADD PUSH2 0xEAD JUMP JUMPDEST PUSH2 0xF05 DUP2 PUSH2 0xB76 JUMP JUMPDEST DUP5 ADD SWAP2 POP POP SWAP3 SWAP2 POP POP JUMP JUMPDEST PUSH1 0x0 PUSH2 0xF1C DUP4 DUP4 PUSH2 0xED7 JUMP JUMPDEST SWAP1 POP SWAP3 SWAP2 POP POP JUMP JUMPDEST PUSH1 0x0 PUSH1 0x20 DUP3 ADD SWAP1 POP SWAP2 SWAP1 POP JUMP JUMPDEST PUSH1 0x0 PUSH2 0xF3C DUP3 PUSH2 0xE65 JUMP JUMPDEST PUSH2 0xF46 DUP2 DUP6 PUSH2 0xE70 JUMP JUMPDEST SWAP4 POP DUP4 PUSH1 0x20 DUP3 MUL DUP6 ADD PUSH2 0xF58 DUP6 PUSH2 0xE81 JUMP JUMPDEST DUP1 PUSH1 0x0 JUMPDEST DUP6 DUP2 LT ISZERO PUSH2 0xF94 JUMPI DUP5 DUP5 SUB DUP10 MSTORE DUP2 MLOAD PUSH2 0xF75 DUP6 DUP3 PUSH2 0xF10 JUMP JUMPDEST SWAP5 POP PUSH2 0xF80 DUP4 PUSH2 0xF24 JUMP JUMPDEST SWAP3 POP PUSH1 0x20 DUP11 ADD SWAP10 POP POP PUSH1 0x1 DUP2 ADD SWAP1 POP PUSH2 0xF5C JUMP JUMPDEST POP DUP3 SWAP8 POP DUP8 SWAP6 POP POP POP POP POP POP SWAP3 SWAP2 POP POP JUMP JUMPDEST PUSH1 0x0 PUSH1 0x20 DUP3 ADD SWAP1 POP DUP2 DUP2 SUB PUSH1 0x0 DUP4 ADD MSTORE PUSH2 0xFC0 DUP2 DUP5 PUSH2 0xF31 JUMP JUMPDEST SWAP1 POP SWAP3 SWAP2 POP POP JUMP JUMPDEST PUSH32 0x4E487B7100000000000000000000000000000000000000000000000000000000 PUSH1 0x0 MSTORE PUSH1 0x22 PUSH1 0x4 MSTORE PUSH1 0x24 PUSH1 0x0 REVERT JUMPDEST PUSH1 0x0 PUSH1 0x2 DUP3 DIV SWAP1 POP PUSH1 0x1 DUP3 AND DUP1 PUSH2 0x100F JUMPI PUSH1 0x7F DUP3 AND SWAP2 POP JUMPDEST PUSH1 0x20 DUP3 LT DUP2 SUB PUSH2 0x1022 JUMPI PUSH2 0x1021 PUSH2 0xFC8 JUMP JUMPDEST JUMPDEST POP SWAP2 SWAP1 POP JUMP JUMPDEST PUSH1 0x0 DUP2 SWAP1 POP DUP2 PUSH1 0x0 MSTORE PUSH1 0x20 PUSH1 0x0 KECCAK256 SWAP1 POP SWAP2 SWAP1 POP JUMP JUMPDEST PUSH1 0x0 PUSH1 0x20 PUSH1 0x1F DUP4 ADD DIV SWAP1 POP SWAP2 SWAP1 POP JUMP JUMPDEST PUSH1 0x0 DUP3 DUP3 SHL SWAP1 POP SWAP3 SWAP2 POP POP JUMP JUMPDEST PUSH1 0x0 PUSH1 0x8 DUP4 MUL PUSH2 0x108A PUSH32 0xFFFFFFFFFFFFFFFFFFFFFFFFFFFFFFFFFFFFFFFFFFFFFFFFFFFFFFFFFFFFFFFF DUP3 PUSH2 0x104D JUMP JUMPDEST PUSH2 0x1094 DUP7 DUP4 PUSH2 0x104D JUMP JUMPDEST SWAP6 POP DUP1 NOT DUP5 AND SWAP4 POP DUP1 DUP7 AND DUP5 OR SWAP3 POP POP POP SWAP4 SWAP3 POP POP POP JUMP JUMPDEST PUSH1 0x0 DUP2 SWAP1 POP SWAP2 SWAP1 POP JUMP JUMPDEST PUSH1 0x0 DUP2 SWAP1 POP SWAP2 SWAP1 POP JUMP JUMPDEST PUSH1 0x0 PUSH2 0x10DB PUSH2 0x10D6 PUSH2 0x10D1 DUP5 PUSH2 0x10AC JUMP JUMPDEST PUSH2 0x10B6 JUMP JUMPDEST PUSH2 0x10AC JUMP JUMPDEST SWAP1 POP SWAP2 SWAP1 POP JUMP JUMPDEST PUSH1 0x0 DUP2 SWAP1 POP SWAP2 SWAP1 POP JUMP JUMPDEST PUSH2 0x10F5 DUP4 PUSH2 0x10C0 JUMP JUMPDEST PUSH2 0x1109 PUSH2 0x1101 DUP3 PUSH2 0x10E2 JUMP JUMPDEST DUP5 DUP5 SLOAD PUSH2 0x105A JUMP JUMPDEST DUP3 SSTORE POP POP POP POP JUMP JUMPDEST PUSH1 0x0 SWAP1 JUMP JUMPDEST PUSH2 0x111E PUSH2 0x1111 JUMP JUMPDEST PUSH2 0x1129 DUP2 DUP5 DUP5 PUSH2 0x10EC JUMP JUMPDEST POP POP POP JUMP JUMPDEST JUMPDEST DUP2 DUP2 LT ISZERO PUSH2 0x114D JUMPI PUSH2 0x1142 PUSH1 0x0 DUP3 PUSH2 0x1116 JUMP JUMPDEST PUSH1 0x1 DUP2 ADD SWAP1 POP PUSH2 0x112F JUMP JUMPDEST POP POP JUMP JUMPDEST PUSH1 0x1F DUP3 GT ISZERO PUSH2 0x1192 JUMPI PUSH2 0x1163 DUP2 PUSH2 0x1028 JUMP JUMPDEST PUSH2 0x116C DUP5 PUSH2 0x103D JUMP JUMPDEST DUP2 ADD PUSH1 0x20 DUP6 LT ISZERO PUSH2 0x117B JUMPI DUP2 SWAP1 POP JUMPDEST PUSH2 0x118F PUSH2 0x1187 DUP6 PUSH2 0x103D JUMP JUMPDEST DUP4 ADD DUP3 PUSH2 0x112E JUMP JUMPDEST POP POP JUMPDEST POP POP POP JUMP JUMPDEST PUSH1 0x0 DUP3 DUP3 SHR SWAP1 POP SWAP3 SWAP2 POP POP JUMP JUMPDEST PUSH1 0x0 PUSH2 0x11B5 PUSH1 0x0 NOT DUP5 PUSH1 0x8 MUL PUSH2 0x1197 JUMP JUMPDEST NOT DUP1 DUP4 AND SWAP2 POP POP SWAP3 SWAP2 POP POP JUMP JUMPDEST PUSH1 0x0 PUSH2 0x11CE DUP4 DUP4 PUSH2 0x11A4 JUMP JUMPDEST SWAP2 POP DUP3 PUSH1 0x2 MUL DUP3 OR SWAP1 POP SWAP3 SWAP2 POP POP JUMP JUMPDEST PUSH2 0x11E7 DUP3 PUSH2 0xE91 JUMP JUMPDEST PUSH8 0xFFFFFFFFFFFFFFFF DUP2 GT ISZERO PUSH2 0x1200 JUMPI PUSH2 0x11FF PUSH2 0xB87 JUMP JUMPDEST JUMPDEST PUSH2 0x120A DUP3 SLOAD PUSH2 0xFF7 JUMP JUMPDEST PUSH2 0x1215 DUP3 DUP3 DUP6 PUSH2 0x1151 JUMP JUMPDEST PUSH1 0x0 PUSH1 0x20 SWAP1 POP PUSH1 0x1F DUP4 GT PUSH1 0x1 DUP2 EQ PUSH2 0x1248 JUMPI PUSH1 0x0 DUP5 ISZERO PUSH2 0x1236 JUMPI DUP3 DUP8 ADD MLOAD SWAP1 POP JUMPDEST PUSH2 0x1240 DUP6 DUP3 PUSH2 0x11C2 JUMP JUMPDEST DUP7 SSTORE POP PUSH2 0x12A8 JUMP JUMPDEST PUSH1 0x1F NOT DUP5 AND PUSH2 0x1256 DUP7 PUSH2 0x1028 JUMP JUMPDEST PUSH1 0x0 JUMPDEST DUP3 DUP2 LT ISZERO PUSH2 0x127E JUMPI DUP5 DUP10 ADD MLOAD DUP3 SSTORE PUSH1 0x1 DUP3 ADD SWAP2 POP PUSH1 0x20 DUP6 ADD SWAP5 POP PUSH1 0x20 DUP2 ADD SWAP1 POP PUSH2 0x1259 JUMP JUMPDEST DUP7 DUP4 LT ISZERO PUSH2 0x129B JUMPI DUP5 DUP10 ADD MLOAD PUSH2 0x1297 PUSH1 0x1F DUP10 AND DUP3 PUSH2 0x11A4 JUMP JUMPDEST DUP4 SSTORE POP JUMPDEST PUSH1 0x1 PUSH1 0x2 DUP9 MUL ADD DUP9 SSTORE POP POP POP JUMPDEST POP POP POP POP POP POP JUMP JUMPDEST PUSH32 0x4E487B7100000000000000000000000000000000000000000000000000000000 PUSH1 0x0 MSTORE PUSH1 0x32 PUSH1 0x4 MSTORE PUSH1 0x24 PUSH1 0x0 REVERT JUMPDEST PUSH32 0x4E487B7100000000000000000000000000000000000000000000000000000000 PUSH1 0x0 MSTORE PUSH1 0x11 PUSH1 0x4 MSTORE PUSH1 0x24 PUSH1 0x0 REVERT JUMPDEST PUSH1 0x0 PUSH2 0x1319 DUP3 PUSH2 0x10AC JUMP JUMPDEST SWAP2 POP PUSH32 0xFFFFFFFFFFFFFFFFFFFFFFFFFFFFFFFFFFFFFFFFFFFFFFFFFFFFFFFFFFFFFFFF DUP3 SUB PUSH2 0x134B JUMPI PUSH2 0x134A PUSH2 0x12DF JUMP JUMPDEST JUMPDEST PUSH1 0x1 DUP3 ADD SWAP1 POP SWAP2 SWAP1 POP JUMP JUMPDEST PUSH1 0x0 DUP3 DUP3 MSTORE PUSH1 0x20 DUP3 ADD SWAP1 POP SWAP3 SWAP2 POP POP JUMP JUMPDEST PUSH32 0x796F7520617265206E6F7420616C6C6F77656400000000000000000000000000 PUSH1 0x0 DUP3 ADD MSTORE POP JUMP JUMPDEST PUSH1 0x0 PUSH2 0x139D PUSH1 0x13 DUP4 PUSH2 0x1356 JUMP JUMPDEST SWAP2 POP PUSH2 0x13A8 DUP3 PUSH2 0x1367 JUMP JUMPDEST PUSH1 0x20 DUP3 ADD SWAP1 POP SWAP2 SWAP1 POP JUMP JUMPDEST PUSH1 0x0 PUSH1 0x20 DUP3 ADD SWAP1 POP DUP2 DUP2 SUB PUSH1 0x0 DUP4 ADD MSTORE PUSH2 0x13CC DUP2 PUSH2 0x1390 JUMP JUMPDEST SWAP1 POP SWAP2 SWAP1 POP JUMP INVALID LOG2 PUSH5 0x6970667358 0x22 SLT KECCAK256 0xC4 SUB GT BALANCE EXP CREATE2 SELFBALANCE 0xBE INVALID 0x2E PUSH26 0x67D094E0BC628B811FF3223785BE9BB3F319EBC00464736F6C63 NUMBER STOP ADDMOD SLT STOP CALLER "
				},
				"gasEstimates": {
					"creation": {
						"codeDepositCost": "1025800",
						"executionCost": "1067",
						"totalCost": "1026867"
					},
					"external": {
						"add(address,string)": "infinite",
						"allow(address)": "infinite",
						"disallow(address)": "infinite",
						"display(address)": "infinite",
						"share()": "infinite"
					}
				},
				"methodIdentifiers": {
					"add(address,string)": "36d6da55",
					"allow(address)": "ff9913e8",
					"disallow(address)": "a9ed9cb8",
					"display(address)": "eb39113f",
					"share()": "a8d5fd65"
				}
			},
			"storageLayout": {
				"storage": [
					{
						"astId": 11,
						"contract": "contracts/google_dapp.sol:dApp",
						"label": "value",
						"offset": 0,
						"slot": "0",
						"type": "t_mapping(t_address,t_array(t_string_storage)dyn_storage)"
					},
					{
						"astId": 17,
						"contract": "contracts/google_dapp.sol:dApp",
						"label": "ownerShip",
						"offset": 0,
						"slot": "1",
						"type": "t_mapping(t_address,t_mapping(t_address,t_bool))"
					},
					{
						"astId": 23,
						"contract": "contracts/google_dapp.sol:dApp",
						"label": "previousdata",
						"offset": 0,
						"slot": "2",
						"type": "t_mapping(t_address,t_mapping(t_address,t_bool))"
					},
					{
						"astId": 29,
						"contract": "contracts/google_dapp.sol:dApp",
						"label": "accessList",
						"offset": 0,
						"slot": "3",
						"type": "t_mapping(t_address,t_array(t_struct(Access)6_storage)dyn_storage)"
					}
				],
				"types": {
					"t_address": {
						"encoding": "inplace",
						"label": "address",
						"numberOfBytes": "20"
					},
					"t_array(t_string_storage)dyn_storage": {
						"base": "t_string_storage",
						"encoding": "dynamic_array",
						"label": "string[]",
						"numberOfBytes": "32"
					},
					"t_array(t_struct(Access)6_storage)dyn_storage": {
						"base": "t_struct(Access)6_storage",
						"encoding": "dynamic_array",
						"label": "struct dApp.Access[]",
						"numberOfBytes": "32"
					},
					"t_bool": {
						"encoding": "inplace",
						"label": "bool",
						"numberOfBytes": "1"
					},
					"t_mapping(t_address,t_array(t_string_storage)dyn_storage)": {
						"encoding": "mapping",
						"key": "t_address",
						"label": "mapping(address => string[])",
						"numberOfBytes": "32",
						"value": "t_array(t_string_storage)dyn_storage"
					},
					"t_mapping(t_address,t_array(t_struct(Access)6_storage)dyn_storage)": {
						"encoding": "mapping",
						"key": "t_address",
						"label": "mapping(address => struct dApp.Access[])",
						"numberOfBytes": "32",
						"value": "t_array(t_struct(Access)6_storage)dyn_storage"
					},
					"t_mapping(t_address,t_bool)": {
						"encoding": "mapping",
						"key": "t_address",
						"label": "mapping(address => bool)",
						"numberOfBytes": "32",
						"value": "t_bool"
					},
					"t_mapping(t_address,t_mapping(t_address,t_bool))": {
						"encoding": "mapping",
						"key": "t_address",
						"label": "mapping(address => mapping(address => bool))",
						"numberOfBytes": "32",
						"value": "t_mapping(t_address,t_bool)"
					},
					"t_string_storage": {
						"encoding": "bytes",
						"label": "string",
						"numberOfBytes": "32"
					},
					"t_struct(Access)6_storage": {
						"encoding": "inplace",
						"label": "struct dApp.Access",
						"members": [
							{
								"astId": 3,
								"contract": "contracts/google_dapp.sol:dApp",
								"label": "user",
								"offset": 0,
								"slot": "0",
								"type": "t_address"
							},
							{
								"astId": 5,
								"contract": "contracts/google_dapp.sol:dApp",
								"label": "access",
								"offset": 20,
								"slot": "0",
								"type": "t_bool"
							}
						],
						"numberOfBytes": "32"
					}
				}
			},
			"userdoc": {
				"kind": "user",
				"methods": {},
				"version": 1
			}
		}
	}
}