{
	"contracts/accounting.sol": {
		"testing": {
			"abi": [
				{
					"inputs": [
						{
							"internalType": "uint256",
							"name": "_id",
							"type": "uint256"
						},
						{
							"internalType": "string",
							"name": "_name",
							"type": "string"
						}
					],
					"name": "addEmployee",
					"outputs": [],
					"stateMutability": "nonpayable",
					"type": "function"
				},
				{
					"inputs": [
						{
							"internalType": "uint256",
							"name": "_id",
							"type": "uint256"
						},
						{
							"internalType": "string",
							"name": "_name",
							"type": "string"
						}
					],
					"name": "addLaptop",
					"outputs": [],
					"stateMutability": "nonpayable",
					"type": "function"
				},
				{
					"inputs": [
						{
							"internalType": "uint256",
							"name": "laptopID",
							"type": "uint256"
						},
						{
							"internalType": "uint256",
							"name": "employeID",
							"type": "uint256"
						}
					],
					"name": "assignLaptop",
					"outputs": [],
					"stateMutability": "nonpayable",
					"type": "function"
				},
				{
					"inputs": [
						{
							"internalType": "uint256",
							"name": "",
							"type": "uint256"
						}
					],
					"name": "employeInfo",
					"outputs": [
						{
							"internalType": "uint256",
							"name": "id",
							"type": "uint256"
						},
						{
							"internalType": "string",
							"name": "name",
							"type": "string"
						}
					],
					"stateMutability": "view",
					"type": "function"
				},
				{
					"inputs": [],
					"name": "owner",
					"outputs": [
						{
							"internalType": "address",
							"name": "",
							"type": "address"
						}
					],
					"stateMutability": "view",
					"type": "function"
				}
			],
			"devdoc": {
				"kind": "dev",
				"methods": {},
				"version": 1
			},
			"evm": {
				"assembly": "    /* \"contracts/accounting.sol\":76:1217  contract testing {... */\n  mstore(0x40, 0x80)\n  callvalue\n  dup1\n  iszero\n  tag_1\n  jumpi\n  0x00\n  dup1\n  revert\ntag_1:\n  pop\n  dataSize(sub_0)\n  dup1\n  dataOffset(sub_0)\n  0x00\n  codecopy\n  0x00\n  return\nstop\n\nsub_0: assembly {\n        /* \"contracts/accounting.sol\":76:1217  contract testing {... */\n      mstore(0x40, 0x80)\n      callvalue\n      dup1\n      iszero\n      tag_1\n      jumpi\n      0x00\n      dup1\n      revert\n    tag_1:\n      pop\n      jumpi(tag_2, lt(calldatasize, 0x04))\n      shr(0xe0, calldataload(0x00))\n      dup1\n      0x37cb797b\n      eq\n      tag_3\n      jumpi\n      dup1\n      0x635a235b\n      eq\n      tag_4\n      jumpi\n      dup1\n      0x8da5cb5b\n      eq\n      tag_5\n      jumpi\n      dup1\n      0xd5063e04\n      eq\n      tag_6\n      jumpi\n      dup1\n      0xfcf9c6a9\n      eq\n      tag_7\n      jumpi\n    tag_2:\n      0x00\n      dup1\n      revert\n        /* \"contracts/accounting.sol\":1010:1095  function assignLaptop(uint laptopID, uint employeID) public onlyOwner{... */\n    tag_3:\n      tag_8\n      0x04\n      dup1\n      calldatasize\n      sub\n      dup2\n      add\n      swap1\n      tag_9\n      swap2\n      swap1\n      tag_10\n      jump\t// in\n    tag_9:\n      tag_11\n      jump\t// in\n    tag_8:\n      stop\n        /* \"contracts/accounting.sol\":403:432  employee[] public employeInfo */\n    tag_4:\n      tag_12\n      0x04\n      dup1\n      calldatasize\n      sub\n      dup2\n      add\n      swap1\n      tag_13\n      swap2\n      swap1\n      tag_14\n      jump\t// in\n    tag_13:\n      tag_15\n      jump\t// in\n    tag_12:\n      mload(0x40)\n      tag_16\n      swap3\n      swap2\n      swap1\n      tag_17\n      jump\t// in\n    tag_16:\n      mload(0x40)\n      dup1\n      swap2\n      sub\n      swap1\n      return\n        /* \"contracts/accounting.sol\":100:120  address public owner */\n    tag_5:\n      tag_18\n      tag_19\n      jump\t// in\n    tag_18:\n      mload(0x40)\n      tag_20\n      swap2\n      swap1\n      tag_21\n      jump\t// in\n    tag_20:\n      mload(0x40)\n      dup1\n      swap2\n      sub\n      swap1\n      return\n        /* \"contracts/accounting.sol\":507:756  function addEmployee(uint _id,string memory _name)  public onlyOwner {... */\n    tag_6:\n      tag_22\n      0x04\n      dup1\n      calldatasize\n      sub\n      dup2\n      add\n      swap1\n      tag_23\n      swap2\n      swap1\n      tag_24\n      jump\t// in\n    tag_23:\n      tag_25\n      jump\t// in\n    tag_22:\n      stop\n        /* \"contracts/accounting.sol\":762:1005  function addLaptop(uint _id,string memory _name)  public onlyOwner {... */\n    tag_7:\n      tag_26\n      0x04\n      dup1\n      calldatasize\n      sub\n      dup2\n      add\n      swap1\n      tag_27\n      swap2\n      swap1\n      tag_24\n      jump\t// in\n    tag_27:\n      tag_28\n      jump\t// in\n    tag_26:\n      stop\n        /* \"contracts/accounting.sol\":1010:1095  function assignLaptop(uint laptopID, uint employeID) public onlyOwner{... */\n    tag_11:\n        /* \"contracts/accounting.sol\":473:483  msg.sender */\n      caller\n        /* \"contracts/accounting.sol\":467:472  owner */\n      0x00\n      dup1\n        /* \"contracts/accounting.sol\":467:483  owner=msg.sender */\n      0x0100\n      exp\n      dup2\n      sload\n      dup2\n      0xffffffffffffffffffffffffffffffffffffffff\n      mul\n      not\n      and\n      swap1\n      dup4\n      0xffffffffffffffffffffffffffffffffffffffff\n      and\n      mul\n      or\n      swap1\n      sstore\n      pop\n        /* \"contracts/accounting.sol\":1010:1095  function assignLaptop(uint laptopID, uint employeID) public onlyOwner{... */\n      pop\n      pop\n      jump\t// out\n        /* \"contracts/accounting.sol\":403:432  employee[] public employeInfo */\n    tag_15:\n      0x04\n      dup2\n      dup2\n      sload\n      dup2\n      lt\n      tag_31\n      jumpi\n      0x00\n      dup1\n      revert\n    tag_31:\n      swap1\n      0x00\n      mstore\n      keccak256(0x00, 0x20)\n      swap1\n      0x02\n      mul\n      add\n      0x00\n      swap2\n      pop\n      swap1\n      pop\n      dup1\n      0x00\n      add\n      sload\n      swap1\n      dup1\n      0x01\n      add\n      dup1\n      sload\n      tag_33\n      swap1\n      tag_34\n      jump\t// in\n    tag_33:\n      dup1\n      0x1f\n      add\n      0x20\n      dup1\n      swap2\n      div\n      mul\n      0x20\n      add\n      mload(0x40)\n      swap1\n      dup2\n      add\n      0x40\n      mstore\n      dup1\n      swap3\n      swap2\n      swap1\n      dup2\n      dup2\n      mstore\n      0x20\n      add\n      dup3\n      dup1\n      sload\n      tag_35\n      swap1\n      tag_34\n      jump\t// in\n    tag_35:\n      dup1\n      iszero\n      tag_36\n      jumpi\n      dup1\n      0x1f\n      lt\n      tag_37\n      jumpi\n      0x0100\n      dup1\n      dup4\n      sload\n      div\n      mul\n      dup4\n      mstore\n      swap2\n      0x20\n      add\n      swap2\n      jump(tag_36)\n    tag_37:\n      dup3\n      add\n      swap2\n      swap1\n      0x00\n      mstore\n      keccak256(0x00, 0x20)\n      swap1\n    tag_38:\n      dup2\n      sload\n      dup2\n      mstore\n      swap1\n      0x01\n      add\n      swap1\n      0x20\n      add\n      dup1\n      dup4\n      gt\n      tag_38\n      jumpi\n      dup3\n      swap1\n      sub\n      0x1f\n      and\n      dup3\n      add\n      swap2\n    tag_36:\n      pop\n      pop\n      pop\n      pop\n      pop\n      swap1\n      pop\n      dup3\n      jump\t// out\n        /* \"contracts/accounting.sol\":100:120  address public owner */\n    tag_19:\n      0x00\n      dup1\n      sload\n      swap1\n      0x0100\n      exp\n      swap1\n      div\n      0xffffffffffffffffffffffffffffffffffffffff\n      and\n      dup2\n      jump\t// out\n        /* \"contracts/accounting.sol\":507:756  function addEmployee(uint _id,string memory _name)  public onlyOwner {... */\n    tag_25:\n        /* \"contracts/accounting.sol\":473:483  msg.sender */\n      caller\n        /* \"contracts/accounting.sol\":467:472  owner */\n      0x00\n      dup1\n        /* \"contracts/accounting.sol\":467:483  owner=msg.sender */\n      0x0100\n      exp\n      dup2\n      sload\n      dup2\n      0xffffffffffffffffffffffffffffffffffffffff\n      mul\n      not\n      and\n      swap1\n      dup4\n      0xffffffffffffffffffffffffffffffffffffffff\n      and\n      mul\n      or\n      swap1\n      sstore\n      pop\n        /* \"contracts/accounting.sol\":599:600  0 */\n      0x00\n        /* \"contracts/accounting.sol\":594:597  _id */\n      dup3\n        /* \"contracts/accounting.sol\":594:600  _id!=0 */\n      sub\n        /* \"contracts/accounting.sol\":586:634  require(_id!=0,\"id should not be equal to zero\") */\n      tag_41\n      jumpi\n      mload(0x40)\n      0x08c379a000000000000000000000000000000000000000000000000000000000\n      dup2\n      mstore\n      0x04\n      add\n      tag_42\n      swap1\n      tag_43\n      jump\t// in\n    tag_42:\n      mload(0x40)\n      dup1\n      swap2\n      sub\n      swap1\n      revert\n    tag_41:\n        /* \"contracts/accounting.sol\":657:665  employes */\n      0x01\n        /* \"contracts/accounting.sol\":657:670  employes[_id] */\n      0x00\n        /* \"contracts/accounting.sol\":666:669  _id */\n      dup4\n        /* \"contracts/accounting.sol\":657:670  employes[_id] */\n      dup2\n      mstore\n      0x20\n      add\n      swap1\n      dup2\n      mstore\n      0x20\n      add\n      0x00\n      keccak256\n        /* \"contracts/accounting.sol\":657:673  employes[_id].id */\n      0x00\n      add\n      sload\n        /* \"contracts/accounting.sol\":652:655  _id */\n      dup3\n        /* \"contracts/accounting.sol\":652:673  _id!=employes[_id].id */\n      sub\n        /* \"contracts/accounting.sol\":644:706  require(_id!=employes[_id].id,\"this id is already registered\") */\n      tag_44\n      jumpi\n      mload(0x40)\n      0x08c379a000000000000000000000000000000000000000000000000000000000\n      dup2\n      mstore\n      0x04\n      add\n      tag_45\n      swap1\n      tag_46\n      jump\t// in\n    tag_45:\n      mload(0x40)\n      dup1\n      swap2\n      sub\n      swap1\n      revert\n    tag_44:\n        /* \"contracts/accounting.sol\":730:749  employee(_id,_name) */\n      mload(0x40)\n      dup1\n      0x40\n      add\n      0x40\n      mstore\n      dup1\n        /* \"contracts/accounting.sol\":739:742  _id */\n      dup4\n        /* \"contracts/accounting.sol\":730:749  employee(_id,_name) */\n      dup2\n      mstore\n      0x20\n      add\n        /* \"contracts/accounting.sol\":743:748  _name */\n      dup3\n        /* \"contracts/accounting.sol\":730:749  employee(_id,_name) */\n      dup2\n      mstore\n      pop\n        /* \"contracts/accounting.sol\":716:724  employes */\n      0x01\n        /* \"contracts/accounting.sol\":716:729  employes[_id] */\n      0x00\n        /* \"contracts/accounting.sol\":725:728  _id */\n      dup5\n        /* \"contracts/accounting.sol\":716:729  employes[_id] */\n      dup2\n      mstore\n      0x20\n      add\n      swap1\n      dup2\n      mstore\n      0x20\n      add\n      0x00\n      keccak256\n        /* \"contracts/accounting.sol\":716:749  employes[_id]=employee(_id,_name) */\n      0x00\n      dup3\n      add\n      mload\n      dup2\n      0x00\n      add\n      sstore\n      0x20\n      dup3\n      add\n      mload\n      dup2\n      0x01\n      add\n      swap1\n      dup2\n      tag_47\n      swap2\n      swap1\n      tag_48\n      jump\t// in\n    tag_47:\n      pop\n      swap1\n      pop\n      pop\n        /* \"contracts/accounting.sol\":507:756  function addEmployee(uint _id,string memory _name)  public onlyOwner {... */\n      pop\n      pop\n      jump\t// out\n        /* \"contracts/accounting.sol\":762:1005  function addLaptop(uint _id,string memory _name)  public onlyOwner {... */\n    tag_28:\n        /* \"contracts/accounting.sol\":473:483  msg.sender */\n      caller\n        /* \"contracts/accounting.sol\":467:472  owner */\n      0x00\n      dup1\n        /* \"contracts/accounting.sol\":467:483  owner=msg.sender */\n      0x0100\n      exp\n      dup2\n      sload\n      dup2\n      0xffffffffffffffffffffffffffffffffffffffff\n      mul\n      not\n      and\n      swap1\n      dup4\n      0xffffffffffffffffffffffffffffffffffffffff\n      and\n      mul\n      or\n      swap1\n      sstore\n      pop\n        /* \"contracts/accounting.sol\":852:853  0 */\n      0x00\n        /* \"contracts/accounting.sol\":847:850  _id */\n      dup3\n        /* \"contracts/accounting.sol\":847:853  _id!=0 */\n      sub\n        /* \"contracts/accounting.sol\":839:887  require(_id!=0,\"id should not be equal to zero\") */\n      tag_51\n      jumpi\n      mload(0x40)\n      0x08c379a000000000000000000000000000000000000000000000000000000000\n      dup2\n      mstore\n      0x04\n      add\n      tag_52\n      swap1\n      tag_43\n      jump\t// in\n    tag_52:\n      mload(0x40)\n      dup1\n      swap2\n      sub\n      swap1\n      revert\n    tag_51:\n        /* \"contracts/accounting.sol\":910:917  laptops */\n      0x02\n        /* \"contracts/accounting.sol\":910:922  laptops[_id] */\n      0x00\n        /* \"contracts/accounting.sol\":918:921  _id */\n      dup4\n        /* \"contracts/accounting.sol\":910:922  laptops[_id] */\n      dup2\n      mstore\n      0x20\n      add\n      swap1\n      dup2\n      mstore\n      0x20\n      add\n      0x00\n      keccak256\n        /* \"contracts/accounting.sol\":910:925  laptops[_id].id */\n      0x00\n      add\n      sload\n        /* \"contracts/accounting.sol\":905:908  _id */\n      dup3\n        /* \"contracts/accounting.sol\":905:925  _id!=laptops[_id].id */\n      sub\n        /* \"contracts/accounting.sol\":897:958  require(_id!=laptops[_id].id,\"this id is already registered\") */\n      tag_53\n      jumpi\n      mload(0x40)\n      0x08c379a000000000000000000000000000000000000000000000000000000000\n      dup2\n      mstore\n      0x04\n      add\n      tag_54\n      swap1\n      tag_46\n      jump\t// in\n    tag_54:\n      mload(0x40)\n      dup1\n      swap2\n      sub\n      swap1\n      revert\n    tag_53:\n        /* \"contracts/accounting.sol\":981:998  laptop(_id,_name) */\n      mload(0x40)\n      dup1\n      0x40\n      add\n      0x40\n      mstore\n      dup1\n        /* \"contracts/accounting.sol\":988:991  _id */\n      dup4\n        /* \"contracts/accounting.sol\":981:998  laptop(_id,_name) */\n      dup2\n      mstore\n      0x20\n      add\n        /* \"contracts/accounting.sol\":992:997  _name */\n      dup3\n        /* \"contracts/accounting.sol\":981:998  laptop(_id,_name) */\n      dup2\n      mstore\n      pop\n        /* \"contracts/accounting.sol\":968:975  laptops */\n      0x02\n        /* \"contracts/accounting.sol\":968:980  laptops[_id] */\n      0x00\n        /* \"contracts/accounting.sol\":976:979  _id */\n      dup5\n        /* \"contracts/accounting.sol\":968:980  laptops[_id] */\n      dup2\n      mstore\n      0x20\n      add\n      swap1\n      dup2\n      mstore\n      0x20\n      add\n      0x00\n      keccak256\n        /* \"contracts/accounting.sol\":968:998  laptops[_id]=laptop(_id,_name) */\n      0x00\n      dup3\n      add\n      mload\n      dup2\n      0x00\n      add\n      sstore\n      0x20\n      dup3\n      add\n      mload\n      dup2\n      0x01\n      add\n      swap1\n      dup2\n      tag_55\n      swap2\n      swap1\n      tag_48\n      jump\t// in\n    tag_55:\n      pop\n      swap1\n      pop\n      pop\n        /* \"contracts/accounting.sol\":762:1005  function addLaptop(uint _id,string memory _name)  public onlyOwner {... */\n      pop\n      pop\n      jump\t// out\n        /* \"#utility.yul\":7:82   */\n    tag_56:\n        /* \"#utility.yul\":40:46   */\n      0x00\n        /* \"#utility.yul\":73:75   */\n      0x40\n        /* \"#utility.yul\":67:76   */\n      mload\n        /* \"#utility.yul\":57:76   */\n      swap1\n      pop\n        /* \"#utility.yul\":7:82   */\n      swap1\n      jump\t// out\n        /* \"#utility.yul\":88:205   */\n    tag_57:\n        /* \"#utility.yul\":197:198   */\n      0x00\n        /* \"#utility.yul\":194:195   */\n      dup1\n        /* \"#utility.yul\":187:199   */\n      revert\n        /* \"#utility.yul\":211:328   */\n    tag_58:\n        /* \"#utility.yul\":320:321   */\n      0x00\n        /* \"#utility.yul\":317:318   */\n      dup1\n        /* \"#utility.yul\":310:322   */\n      revert\n        /* \"#utility.yul\":334:411   */\n    tag_59:\n        /* \"#utility.yul\":371:378   */\n      0x00\n        /* \"#utility.yul\":400:405   */\n      dup2\n        /* \"#utility.yul\":389:405   */\n      swap1\n      pop\n        /* \"#utility.yul\":334:411   */\n      swap2\n      swap1\n      pop\n      jump\t// out\n        /* \"#utility.yul\":417:539   */\n    tag_60:\n        /* \"#utility.yul\":490:514   */\n      tag_106\n        /* \"#utility.yul\":508:513   */\n      dup2\n        /* \"#utility.yul\":490:514   */\n      tag_59\n      jump\t// in\n    tag_106:\n        /* \"#utility.yul\":483:488   */\n      dup2\n        /* \"#utility.yul\":480:515   */\n      eq\n        /* \"#utility.yul\":470:533   */\n      tag_107\n      jumpi\n        /* \"#utility.yul\":529:530   */\n      0x00\n        /* \"#utility.yul\":526:527   */\n      dup1\n        /* \"#utility.yul\":519:531   */\n      revert\n        /* \"#utility.yul\":470:533   */\n    tag_107:\n        /* \"#utility.yul\":417:539   */\n      pop\n      jump\t// out\n        /* \"#utility.yul\":545:684   */\n    tag_61:\n        /* \"#utility.yul\":591:596   */\n      0x00\n        /* \"#utility.yul\":629:635   */\n      dup2\n        /* \"#utility.yul\":616:636   */\n      calldataload\n        /* \"#utility.yul\":607:636   */\n      swap1\n      pop\n        /* \"#utility.yul\":645:678   */\n      tag_109\n        /* \"#utility.yul\":672:677   */\n      dup2\n        /* \"#utility.yul\":645:678   */\n      tag_60\n      jump\t// in\n    tag_109:\n        /* \"#utility.yul\":545:684   */\n      swap3\n      swap2\n      pop\n      pop\n      jump\t// out\n        /* \"#utility.yul\":690:1164   */\n    tag_10:\n        /* \"#utility.yul\":758:764   */\n      0x00\n        /* \"#utility.yul\":766:772   */\n      dup1\n        /* \"#utility.yul\":815:817   */\n      0x40\n        /* \"#utility.yul\":803:812   */\n      dup4\n        /* \"#utility.yul\":794:801   */\n      dup6\n        /* \"#utility.yul\":790:813   */\n      sub\n        /* \"#utility.yul\":786:818   */\n      slt\n        /* \"#utility.yul\":783:902   */\n      iszero\n      tag_111\n      jumpi\n        /* \"#utility.yul\":821:900   */\n      tag_112\n      tag_57\n      jump\t// in\n    tag_112:\n        /* \"#utility.yul\":783:902   */\n    tag_111:\n        /* \"#utility.yul\":941:942   */\n      0x00\n        /* \"#utility.yul\":966:1019   */\n      tag_113\n        /* \"#utility.yul\":1011:1018   */\n      dup6\n        /* \"#utility.yul\":1002:1008   */\n      dup3\n        /* \"#utility.yul\":991:1000   */\n      dup7\n        /* \"#utility.yul\":987:1009   */\n      add\n        /* \"#utility.yul\":966:1019   */\n      tag_61\n      jump\t// in\n    tag_113:\n        /* \"#utility.yul\":956:1019   */\n      swap3\n      pop\n        /* \"#utility.yul\":912:1029   */\n      pop\n        /* \"#utility.yul\":1068:1070   */\n      0x20\n        /* \"#utility.yul\":1094:1147   */\n      tag_114\n        /* \"#utility.yul\":1139:1146   */\n      dup6\n        /* \"#utility.yul\":1130:1136   */\n      dup3\n        /* \"#utility.yul\":1119:1128   */\n      dup7\n        /* \"#utility.yul\":1115:1137   */\n      add\n        /* \"#utility.yul\":1094:1147   */\n      tag_61\n      jump\t// in\n    tag_114:\n        /* \"#utility.yul\":1084:1147   */\n      swap2\n      pop\n        /* \"#utility.yul\":1039:1157   */\n      pop\n        /* \"#utility.yul\":690:1164   */\n      swap3\n      pop\n      swap3\n      swap1\n      pop\n      jump\t// out\n        /* \"#utility.yul\":1170:1499   */\n    tag_14:\n        /* \"#utility.yul\":1229:1235   */\n      0x00\n        /* \"#utility.yul\":1278:1280   */\n      0x20\n        /* \"#utility.yul\":1266:1275   */\n      dup3\n        /* \"#utility.yul\":1257:1264   */\n      dup5\n        /* \"#utility.yul\":1253:1276   */\n      sub\n        /* \"#utility.yul\":1249:1281   */\n      slt\n        /* \"#utility.yul\":1246:1365   */\n      iszero\n      tag_116\n      jumpi\n        /* \"#utility.yul\":1284:1363   */\n      tag_117\n      tag_57\n      jump\t// in\n    tag_117:\n        /* \"#utility.yul\":1246:1365   */\n    tag_116:\n        /* \"#utility.yul\":1404:1405   */\n      0x00\n        /* \"#utility.yul\":1429:1482   */\n      tag_118\n        /* \"#utility.yul\":1474:1481   */\n      dup5\n        /* \"#utility.yul\":1465:1471   */\n      dup3\n        /* \"#utility.yul\":1454:1463   */\n      dup6\n        /* \"#utility.yul\":1450:1472   */\n      add\n        /* \"#utility.yul\":1429:1482   */\n      tag_61\n      jump\t// in\n    tag_118:\n        /* \"#utility.yul\":1419:1482   */\n      swap2\n      pop\n        /* \"#utility.yul\":1375:1492   */\n      pop\n        /* \"#utility.yul\":1170:1499   */\n      swap3\n      swap2\n      pop\n      pop\n      jump\t// out\n        /* \"#utility.yul\":1505:1623   */\n    tag_62:\n        /* \"#utility.yul\":1592:1616   */\n      tag_120\n        /* \"#utility.yul\":1610:1615   */\n      dup2\n        /* \"#utility.yul\":1592:1616   */\n      tag_59\n      jump\t// in\n    tag_120:\n        /* \"#utility.yul\":1587:1590   */\n      dup3\n        /* \"#utility.yul\":1580:1617   */\n      mstore\n        /* \"#utility.yul\":1505:1623   */\n      pop\n      pop\n      jump\t// out\n        /* \"#utility.yul\":1629:1728   */\n    tag_63:\n        /* \"#utility.yul\":1681:1687   */\n      0x00\n        /* \"#utility.yul\":1715:1720   */\n      dup2\n        /* \"#utility.yul\":1709:1721   */\n      mload\n        /* \"#utility.yul\":1699:1721   */\n      swap1\n      pop\n        /* \"#utility.yul\":1629:1728   */\n      swap2\n      swap1\n      pop\n      jump\t// out\n        /* \"#utility.yul\":1734:1903   */\n    tag_64:\n        /* \"#utility.yul\":1818:1829   */\n      0x00\n        /* \"#utility.yul\":1852:1858   */\n      dup3\n        /* \"#utility.yul\":1847:1850   */\n      dup3\n        /* \"#utility.yul\":1840:1859   */\n      mstore\n        /* \"#utility.yul\":1892:1896   */\n      0x20\n        /* \"#utility.yul\":1887:1890   */\n      dup3\n        /* \"#utility.yul\":1883:1897   */\n      add\n        /* \"#utility.yul\":1868:1897   */\n      swap1\n      pop\n        /* \"#utility.yul\":1734:1903   */\n      swap3\n      swap2\n      pop\n      pop\n      jump\t// out\n        /* \"#utility.yul\":1909:2155   */\n    tag_65:\n        /* \"#utility.yul\":1990:1991   */\n      0x00\n        /* \"#utility.yul\":2000:2113   */\n    tag_124:\n        /* \"#utility.yul\":2014:2020   */\n      dup4\n        /* \"#utility.yul\":2011:2012   */\n      dup2\n        /* \"#utility.yul\":2008:2021   */\n      lt\n        /* \"#utility.yul\":2000:2113   */\n      iszero\n      tag_126\n      jumpi\n        /* \"#utility.yul\":2099:2100   */\n      dup1\n        /* \"#utility.yul\":2094:2097   */\n      dup3\n        /* \"#utility.yul\":2090:2101   */\n      add\n        /* \"#utility.yul\":2084:2102   */\n      mload\n        /* \"#utility.yul\":2080:2081   */\n      dup2\n        /* \"#utility.yul\":2075:2078   */\n      dup5\n        /* \"#utility.yul\":2071:2082   */\n      add\n        /* \"#utility.yul\":2064:2103   */\n      mstore\n        /* \"#utility.yul\":2036:2038   */\n      0x20\n        /* \"#utility.yul\":2033:2034   */\n      dup2\n        /* \"#utility.yul\":2029:2039   */\n      add\n        /* \"#utility.yul\":2024:2039   */\n      swap1\n      pop\n        /* \"#utility.yul\":2000:2113   */\n      jump(tag_124)\n    tag_126:\n        /* \"#utility.yul\":2147:2148   */\n      0x00\n        /* \"#utility.yul\":2138:2144   */\n      dup5\n        /* \"#utility.yul\":2133:2136   */\n      dup5\n        /* \"#utility.yul\":2129:2145   */\n      add\n        /* \"#utility.yul\":2122:2149   */\n      mstore\n        /* \"#utility.yul\":1971:2155   */\n      pop\n        /* \"#utility.yul\":1909:2155   */\n      pop\n      pop\n      pop\n      jump\t// out\n        /* \"#utility.yul\":2161:2263   */\n    tag_66:\n        /* \"#utility.yul\":2202:2208   */\n      0x00\n        /* \"#utility.yul\":2253:2255   */\n      0x1f\n        /* \"#utility.yul\":2249:2256   */\n      not\n        /* \"#utility.yul\":2244:2246   */\n      0x1f\n        /* \"#utility.yul\":2237:2242   */\n      dup4\n        /* \"#utility.yul\":2233:2247   */\n      add\n        /* \"#utility.yul\":2229:2257   */\n      and\n        /* \"#utility.yul\":2219:2257   */\n      swap1\n      pop\n        /* \"#utility.yul\":2161:2263   */\n      swap2\n      swap1\n      pop\n      jump\t// out\n        /* \"#utility.yul\":2269:2646   */\n    tag_67:\n        /* \"#utility.yul\":2357:2360   */\n      0x00\n        /* \"#utility.yul\":2385:2424   */\n      tag_129\n        /* \"#utility.yul\":2418:2423   */\n      dup3\n        /* \"#utility.yul\":2385:2424   */\n      tag_63\n      jump\t// in\n    tag_129:\n        /* \"#utility.yul\":2440:2511   */\n      tag_130\n        /* \"#utility.yul\":2504:2510   */\n      dup2\n        /* \"#utility.yul\":2499:2502   */\n      dup6\n        /* \"#utility.yul\":2440:2511   */\n      tag_64\n      jump\t// in\n    tag_130:\n        /* \"#utility.yul\":2433:2511   */\n      swap4\n      pop\n        /* \"#utility.yul\":2520:2585   */\n      tag_131\n        /* \"#utility.yul\":2578:2584   */\n      dup2\n        /* \"#utility.yul\":2573:2576   */\n      dup6\n        /* \"#utility.yul\":2566:2570   */\n      0x20\n        /* \"#utility.yul\":2559:2564   */\n      dup7\n        /* \"#utility.yul\":2555:2571   */\n      add\n        /* \"#utility.yul\":2520:2585   */\n      tag_65\n      jump\t// in\n    tag_131:\n        /* \"#utility.yul\":2610:2639   */\n      tag_132\n        /* \"#utility.yul\":2632:2638   */\n      dup2\n        /* \"#utility.yul\":2610:2639   */\n      tag_66\n      jump\t// in\n    tag_132:\n        /* \"#utility.yul\":2605:2608   */\n      dup5\n        /* \"#utility.yul\":2601:2640   */\n      add\n        /* \"#utility.yul\":2594:2640   */\n      swap2\n      pop\n        /* \"#utility.yul\":2361:2646   */\n      pop\n        /* \"#utility.yul\":2269:2646   */\n      swap3\n      swap2\n      pop\n      pop\n      jump\t// out\n        /* \"#utility.yul\":2652:3075   */\n    tag_17:\n        /* \"#utility.yul\":2793:2797   */\n      0x00\n        /* \"#utility.yul\":2831:2833   */\n      0x40\n        /* \"#utility.yul\":2820:2829   */\n      dup3\n        /* \"#utility.yul\":2816:2834   */\n      add\n        /* \"#utility.yul\":2808:2834   */\n      swap1\n      pop\n        /* \"#utility.yul\":2844:2915   */\n      tag_134\n        /* \"#utility.yul\":2912:2913   */\n      0x00\n        /* \"#utility.yul\":2901:2910   */\n      dup4\n        /* \"#utility.yul\":2897:2914   */\n      add\n        /* \"#utility.yul\":2888:2894   */\n      dup6\n        /* \"#utility.yul\":2844:2915   */\n      tag_62\n      jump\t// in\n    tag_134:\n        /* \"#utility.yul\":2962:2971   */\n      dup2\n        /* \"#utility.yul\":2956:2960   */\n      dup2\n        /* \"#utility.yul\":2952:2972   */\n      sub\n        /* \"#utility.yul\":2947:2949   */\n      0x20\n        /* \"#utility.yul\":2936:2945   */\n      dup4\n        /* \"#utility.yul\":2932:2950   */\n      add\n        /* \"#utility.yul\":2925:2973   */\n      mstore\n        /* \"#utility.yul\":2990:3068   */\n      tag_135\n        /* \"#utility.yul\":3063:3067   */\n      dup2\n        /* \"#utility.yul\":3054:3060   */\n      dup5\n        /* \"#utility.yul\":2990:3068   */\n      tag_67\n      jump\t// in\n    tag_135:\n        /* \"#utility.yul\":2982:3068   */\n      swap1\n      pop\n        /* \"#utility.yul\":2652:3075   */\n      swap4\n      swap3\n      pop\n      pop\n      pop\n      jump\t// out\n        /* \"#utility.yul\":3081:3207   */\n    tag_68:\n        /* \"#utility.yul\":3118:3125   */\n      0x00\n        /* \"#utility.yul\":3158:3200   */\n      0xffffffffffffffffffffffffffffffffffffffff\n        /* \"#utility.yul\":3151:3156   */\n      dup3\n        /* \"#utility.yul\":3147:3201   */\n      and\n        /* \"#utility.yul\":3136:3201   */\n      swap1\n      pop\n        /* \"#utility.yul\":3081:3207   */\n      swap2\n      swap1\n      pop\n      jump\t// out\n        /* \"#utility.yul\":3213:3309   */\n    tag_69:\n        /* \"#utility.yul\":3250:3257   */\n      0x00\n        /* \"#utility.yul\":3279:3303   */\n      tag_138\n        /* \"#utility.yul\":3297:3302   */\n      dup3\n        /* \"#utility.yul\":3279:3303   */\n      tag_68\n      jump\t// in\n    tag_138:\n        /* \"#utility.yul\":3268:3303   */\n      swap1\n      pop\n        /* \"#utility.yul\":3213:3309   */\n      swap2\n      swap1\n      pop\n      jump\t// out\n        /* \"#utility.yul\":3315:3433   */\n    tag_70:\n        /* \"#utility.yul\":3402:3426   */\n      tag_140\n        /* \"#utility.yul\":3420:3425   */\n      dup2\n        /* \"#utility.yul\":3402:3426   */\n      tag_69\n      jump\t// in\n    tag_140:\n        /* \"#utility.yul\":3397:3400   */\n      dup3\n        /* \"#utility.yul\":3390:3427   */\n      mstore\n        /* \"#utility.yul\":3315:3433   */\n      pop\n      pop\n      jump\t// out\n        /* \"#utility.yul\":3439:3661   */\n    tag_21:\n        /* \"#utility.yul\":3532:3536   */\n      0x00\n        /* \"#utility.yul\":3570:3572   */\n      0x20\n        /* \"#utility.yul\":3559:3568   */\n      dup3\n        /* \"#utility.yul\":3555:3573   */\n      add\n        /* \"#utility.yul\":3547:3573   */\n      swap1\n      pop\n        /* \"#utility.yul\":3583:3654   */\n      tag_142\n        /* \"#utility.yul\":3651:3652   */\n      0x00\n        /* \"#utility.yul\":3640:3649   */\n      dup4\n        /* \"#utility.yul\":3636:3653   */\n      add\n        /* \"#utility.yul\":3627:3633   */\n      dup5\n        /* \"#utility.yul\":3583:3654   */\n      tag_70\n      jump\t// in\n    tag_142:\n        /* \"#utility.yul\":3439:3661   */\n      swap3\n      swap2\n      pop\n      pop\n      jump\t// out\n        /* \"#utility.yul\":3667:3784   */\n    tag_71:\n        /* \"#utility.yul\":3776:3777   */\n      0x00\n        /* \"#utility.yul\":3773:3774   */\n      dup1\n        /* \"#utility.yul\":3766:3778   */\n      revert\n        /* \"#utility.yul\":3790:3907   */\n    tag_72:\n        /* \"#utility.yul\":3899:3900   */\n      0x00\n        /* \"#utility.yul\":3896:3897   */\n      dup1\n        /* \"#utility.yul\":3889:3901   */\n      revert\n        /* \"#utility.yul\":3913:4093   */\n    tag_73:\n        /* \"#utility.yul\":3961:4038   */\n      0x4e487b7100000000000000000000000000000000000000000000000000000000\n        /* \"#utility.yul\":3958:3959   */\n      0x00\n        /* \"#utility.yul\":3951:4039   */\n      mstore\n        /* \"#utility.yul\":4058:4062   */\n      0x41\n        /* \"#utility.yul\":4055:4056   */\n      0x04\n        /* \"#utility.yul\":4048:4063   */\n      mstore\n        /* \"#utility.yul\":4082:4086   */\n      0x24\n        /* \"#utility.yul\":4079:4080   */\n      0x00\n        /* \"#utility.yul\":4072:4087   */\n      revert\n        /* \"#utility.yul\":4099:4380   */\n    tag_74:\n        /* \"#utility.yul\":4182:4209   */\n      tag_147\n        /* \"#utility.yul\":4204:4208   */\n      dup3\n        /* \"#utility.yul\":4182:4209   */\n      tag_66\n      jump\t// in\n    tag_147:\n        /* \"#utility.yul\":4174:4180   */\n      dup2\n        /* \"#utility.yul\":4170:4210   */\n      add\n        /* \"#utility.yul\":4312:4318   */\n      dup2\n        /* \"#utility.yul\":4300:4310   */\n      dup2\n        /* \"#utility.yul\":4297:4319   */\n      lt\n        /* \"#utility.yul\":4276:4294   */\n      0xffffffffffffffff\n        /* \"#utility.yul\":4264:4274   */\n      dup3\n        /* \"#utility.yul\":4261:4295   */\n      gt\n        /* \"#utility.yul\":4258:4320   */\n      or\n        /* \"#utility.yul\":4255:4343   */\n      iszero\n      tag_148\n      jumpi\n        /* \"#utility.yul\":4323:4341   */\n      tag_149\n      tag_73\n      jump\t// in\n    tag_149:\n        /* \"#utility.yul\":4255:4343   */\n    tag_148:\n        /* \"#utility.yul\":4363:4373   */\n      dup1\n        /* \"#utility.yul\":4359:4361   */\n      0x40\n        /* \"#utility.yul\":4352:4374   */\n      mstore\n        /* \"#utility.yul\":4142:4380   */\n      pop\n        /* \"#utility.yul\":4099:4380   */\n      pop\n      pop\n      jump\t// out\n        /* \"#utility.yul\":4386:4515   */\n    tag_75:\n        /* \"#utility.yul\":4420:4426   */\n      0x00\n        /* \"#utility.yul\":4447:4467   */\n      tag_151\n      tag_56\n      jump\t// in\n    tag_151:\n        /* \"#utility.yul\":4437:4467   */\n      swap1\n      pop\n        /* \"#utility.yul\":4476:4509   */\n      tag_152\n        /* \"#utility.yul\":4504:4508   */\n      dup3\n        /* \"#utility.yul\":4496:4502   */\n      dup3\n        /* \"#utility.yul\":4476:4509   */\n      tag_74\n      jump\t// in\n    tag_152:\n        /* \"#utility.yul\":4386:4515   */\n      swap2\n      swap1\n      pop\n      jump\t// out\n        /* \"#utility.yul\":4521:4829   */\n    tag_76:\n        /* \"#utility.yul\":4583:4587   */\n      0x00\n        /* \"#utility.yul\":4673:4691   */\n      0xffffffffffffffff\n        /* \"#utility.yul\":4665:4671   */\n      dup3\n        /* \"#utility.yul\":4662:4692   */\n      gt\n        /* \"#utility.yul\":4659:4715   */\n      iszero\n      tag_154\n      jumpi\n        /* \"#utility.yul\":4695:4713   */\n      tag_155\n      tag_73\n      jump\t// in\n    tag_155:\n        /* \"#utility.yul\":4659:4715   */\n    tag_154:\n        /* \"#utility.yul\":4733:4762   */\n      tag_156\n        /* \"#utility.yul\":4755:4761   */\n      dup3\n        /* \"#utility.yul\":4733:4762   */\n      tag_66\n      jump\t// in\n    tag_156:\n        /* \"#utility.yul\":4725:4762   */\n      swap1\n      pop\n        /* \"#utility.yul\":4817:4821   */\n      0x20\n        /* \"#utility.yul\":4811:4815   */\n      dup2\n        /* \"#utility.yul\":4807:4822   */\n      add\n        /* \"#utility.yul\":4799:4822   */\n      swap1\n      pop\n        /* \"#utility.yul\":4521:4829   */\n      swap2\n      swap1\n      pop\n      jump\t// out\n        /* \"#utility.yul\":4835:4981   */\n    tag_77:\n        /* \"#utility.yul\":4932:4938   */\n      dup3\n        /* \"#utility.yul\":4927:4930   */\n      dup2\n        /* \"#utility.yul\":4922:4925   */\n      dup4\n        /* \"#utility.yul\":4909:4939   */\n      calldatacopy\n        /* \"#utility.yul\":4973:4974   */\n      0x00\n        /* \"#utility.yul\":4964:4970   */\n      dup4\n        /* \"#utility.yul\":4959:4962   */\n      dup4\n        /* \"#utility.yul\":4955:4971   */\n      add\n        /* \"#utility.yul\":4948:4975   */\n      mstore\n        /* \"#utility.yul\":4835:4981   */\n      pop\n      pop\n      pop\n      jump\t// out\n        /* \"#utility.yul\":4987:5412   */\n    tag_78:\n        /* \"#utility.yul\":5065:5070   */\n      0x00\n        /* \"#utility.yul\":5090:5156   */\n      tag_159\n        /* \"#utility.yul\":5106:5155   */\n      tag_160\n        /* \"#utility.yul\":5148:5154   */\n      dup5\n        /* \"#utility.yul\":5106:5155   */\n      tag_76\n      jump\t// in\n    tag_160:\n        /* \"#utility.yul\":5090:5156   */\n      tag_75\n      jump\t// in\n    tag_159:\n        /* \"#utility.yul\":5081:5156   */\n      swap1\n      pop\n        /* \"#utility.yul\":5179:5185   */\n      dup3\n        /* \"#utility.yul\":5172:5177   */\n      dup2\n        /* \"#utility.yul\":5165:5186   */\n      mstore\n        /* \"#utility.yul\":5217:5221   */\n      0x20\n        /* \"#utility.yul\":5210:5215   */\n      dup2\n        /* \"#utility.yul\":5206:5222   */\n      add\n        /* \"#utility.yul\":5255:5258   */\n      dup5\n        /* \"#utility.yul\":5246:5252   */\n      dup5\n        /* \"#utility.yul\":5241:5244   */\n      dup5\n        /* \"#utility.yul\":5237:5253   */\n      add\n        /* \"#utility.yul\":5234:5259   */\n      gt\n        /* \"#utility.yul\":5231:5343   */\n      iszero\n      tag_161\n      jumpi\n        /* \"#utility.yul\":5262:5341   */\n      tag_162\n      tag_72\n      jump\t// in\n    tag_162:\n        /* \"#utility.yul\":5231:5343   */\n    tag_161:\n        /* \"#utility.yul\":5352:5406   */\n      tag_163\n        /* \"#utility.yul\":5399:5405   */\n      dup5\n        /* \"#utility.yul\":5394:5397   */\n      dup3\n        /* \"#utility.yul\":5389:5392   */\n      dup6\n        /* \"#utility.yul\":5352:5406   */\n      tag_77\n      jump\t// in\n    tag_163:\n        /* \"#utility.yul\":5071:5412   */\n      pop\n        /* \"#utility.yul\":4987:5412   */\n      swap4\n      swap3\n      pop\n      pop\n      pop\n      jump\t// out\n        /* \"#utility.yul\":5432:5772   */\n    tag_79:\n        /* \"#utility.yul\":5488:5493   */\n      0x00\n        /* \"#utility.yul\":5537:5540   */\n      dup3\n        /* \"#utility.yul\":5530:5534   */\n      0x1f\n        /* \"#utility.yul\":5522:5528   */\n      dup4\n        /* \"#utility.yul\":5518:5535   */\n      add\n        /* \"#utility.yul\":5514:5541   */\n      slt\n        /* \"#utility.yul\":5504:5626   */\n      tag_165\n      jumpi\n        /* \"#utility.yul\":5545:5624   */\n      tag_166\n      tag_71\n      jump\t// in\n    tag_166:\n        /* \"#utility.yul\":5504:5626   */\n    tag_165:\n        /* \"#utility.yul\":5662:5668   */\n      dup2\n        /* \"#utility.yul\":5649:5669   */\n      calldataload\n        /* \"#utility.yul\":5687:5766   */\n      tag_167\n        /* \"#utility.yul\":5762:5765   */\n      dup5\n        /* \"#utility.yul\":5754:5760   */\n      dup3\n        /* \"#utility.yul\":5747:5751   */\n      0x20\n        /* \"#utility.yul\":5739:5745   */\n      dup7\n        /* \"#utility.yul\":5735:5752   */\n      add\n        /* \"#utility.yul\":5687:5766   */\n      tag_78\n      jump\t// in\n    tag_167:\n        /* \"#utility.yul\":5678:5766   */\n      swap2\n      pop\n        /* \"#utility.yul\":5494:5772   */\n      pop\n        /* \"#utility.yul\":5432:5772   */\n      swap3\n      swap2\n      pop\n      pop\n      jump\t// out\n        /* \"#utility.yul\":5778:6432   */\n    tag_24:\n        /* \"#utility.yul\":5856:5862   */\n      0x00\n        /* \"#utility.yul\":5864:5870   */\n      dup1\n        /* \"#utility.yul\":5913:5915   */\n      0x40\n        /* \"#utility.yul\":5901:5910   */\n      dup4\n        /* \"#utility.yul\":5892:5899   */\n      dup6\n        /* \"#utility.yul\":5888:5911   */\n      sub\n        /* \"#utility.yul\":5884:5916   */\n      slt\n        /* \"#utility.yul\":5881:6000   */\n      iszero\n      tag_169\n      jumpi\n        /* \"#utility.yul\":5919:5998   */\n      tag_170\n      tag_57\n      jump\t// in\n    tag_170:\n        /* \"#utility.yul\":5881:6000   */\n    tag_169:\n        /* \"#utility.yul\":6039:6040   */\n      0x00\n        /* \"#utility.yul\":6064:6117   */\n      tag_171\n        /* \"#utility.yul\":6109:6116   */\n      dup6\n        /* \"#utility.yul\":6100:6106   */\n      dup3\n        /* \"#utility.yul\":6089:6098   */\n      dup7\n        /* \"#utility.yul\":6085:6107   */\n      add\n        /* \"#utility.yul\":6064:6117   */\n      tag_61\n      jump\t// in\n    tag_171:\n        /* \"#utility.yul\":6054:6117   */\n      swap3\n      pop\n        /* \"#utility.yul\":6010:6127   */\n      pop\n        /* \"#utility.yul\":6194:6196   */\n      0x20\n        /* \"#utility.yul\":6183:6192   */\n      dup4\n        /* \"#utility.yul\":6179:6197   */\n      add\n        /* \"#utility.yul\":6166:6198   */\n      calldataload\n        /* \"#utility.yul\":6225:6243   */\n      0xffffffffffffffff\n        /* \"#utility.yul\":6217:6223   */\n      dup2\n        /* \"#utility.yul\":6214:6244   */\n      gt\n        /* \"#utility.yul\":6211:6328   */\n      iszero\n      tag_172\n      jumpi\n        /* \"#utility.yul\":6247:6326   */\n      tag_173\n      tag_58\n      jump\t// in\n    tag_173:\n        /* \"#utility.yul\":6211:6328   */\n    tag_172:\n        /* \"#utility.yul\":6352:6415   */\n      tag_174\n        /* \"#utility.yul\":6407:6414   */\n      dup6\n        /* \"#utility.yul\":6398:6404   */\n      dup3\n        /* \"#utility.yul\":6387:6396   */\n      dup7\n        /* \"#utility.yul\":6383:6405   */\n      add\n        /* \"#utility.yul\":6352:6415   */\n      tag_79\n      jump\t// in\n    tag_174:\n        /* \"#utility.yul\":6342:6415   */\n      swap2\n      pop\n        /* \"#utility.yul\":6137:6425   */\n      pop\n        /* \"#utility.yul\":5778:6432   */\n      swap3\n      pop\n      swap3\n      swap1\n      pop\n      jump\t// out\n        /* \"#utility.yul\":6438:6618   */\n    tag_80:\n        /* \"#utility.yul\":6486:6563   */\n      0x4e487b7100000000000000000000000000000000000000000000000000000000\n        /* \"#utility.yul\":6483:6484   */\n      0x00\n        /* \"#utility.yul\":6476:6564   */\n      mstore\n        /* \"#utility.yul\":6583:6587   */\n      0x22\n        /* \"#utility.yul\":6580:6581   */\n      0x04\n        /* \"#utility.yul\":6573:6588   */\n      mstore\n        /* \"#utility.yul\":6607:6611   */\n      0x24\n        /* \"#utility.yul\":6604:6605   */\n      0x00\n        /* \"#utility.yul\":6597:6612   */\n      revert\n        /* \"#utility.yul\":6624:6944   */\n    tag_34:\n        /* \"#utility.yul\":6668:6674   */\n      0x00\n        /* \"#utility.yul\":6705:6706   */\n      0x02\n        /* \"#utility.yul\":6699:6703   */\n      dup3\n        /* \"#utility.yul\":6695:6707   */\n      div\n        /* \"#utility.yul\":6685:6707   */\n      swap1\n      pop\n        /* \"#utility.yul\":6752:6753   */\n      0x01\n        /* \"#utility.yul\":6746:6750   */\n      dup3\n        /* \"#utility.yul\":6742:6754   */\n      and\n        /* \"#utility.yul\":6773:6791   */\n      dup1\n        /* \"#utility.yul\":6763:6844   */\n      tag_177\n      jumpi\n        /* \"#utility.yul\":6829:6833   */\n      0x7f\n        /* \"#utility.yul\":6821:6827   */\n      dup3\n        /* \"#utility.yul\":6817:6834   */\n      and\n        /* \"#utility.yul\":6807:6834   */\n      swap2\n      pop\n        /* \"#utility.yul\":6763:6844   */\n    tag_177:\n        /* \"#utility.yul\":6891:6893   */\n      0x20\n        /* \"#utility.yul\":6883:6889   */\n      dup3\n        /* \"#utility.yul\":6880:6894   */\n      lt\n        /* \"#utility.yul\":6860:6878   */\n      dup2\n        /* \"#utility.yul\":6857:6895   */\n      sub\n        /* \"#utility.yul\":6854:6938   */\n      tag_178\n      jumpi\n        /* \"#utility.yul\":6910:6928   */\n      tag_179\n      tag_80\n      jump\t// in\n    tag_179:\n        /* \"#utility.yul\":6854:6938   */\n    tag_178:\n        /* \"#utility.yul\":6675:6944   */\n      pop\n        /* \"#utility.yul\":6624:6944   */\n      swap2\n      swap1\n      pop\n      jump\t// out\n        /* \"#utility.yul\":6950:7130   */\n    tag_81:\n        /* \"#utility.yul\":7090:7122   */\n      0x69642073686f756c64206e6f7420626520657175616c20746f207a65726f0000\n        /* \"#utility.yul\":7086:7087   */\n      0x00\n        /* \"#utility.yul\":7078:7084   */\n      dup3\n        /* \"#utility.yul\":7074:7088   */\n      add\n        /* \"#utility.yul\":7067:7123   */\n      mstore\n        /* \"#utility.yul\":6950:7130   */\n      pop\n      jump\t// out\n        /* \"#utility.yul\":7136:7502   */\n    tag_82:\n        /* \"#utility.yul\":7278:7281   */\n      0x00\n        /* \"#utility.yul\":7299:7366   */\n      tag_182\n        /* \"#utility.yul\":7363:7365   */\n      0x1e\n        /* \"#utility.yul\":7358:7361   */\n      dup4\n        /* \"#utility.yul\":7299:7366   */\n      tag_64\n      jump\t// in\n    tag_182:\n        /* \"#utility.yul\":7292:7366   */\n      swap2\n      pop\n        /* \"#utility.yul\":7375:7468   */\n      tag_183\n        /* \"#utility.yul\":7464:7467   */\n      dup3\n        /* \"#utility.yul\":7375:7468   */\n      tag_81\n      jump\t// in\n    tag_183:\n        /* \"#utility.yul\":7493:7495   */\n      0x20\n        /* \"#utility.yul\":7488:7491   */\n      dup3\n        /* \"#utility.yul\":7484:7496   */\n      add\n        /* \"#utility.yul\":7477:7496   */\n      swap1\n      pop\n        /* \"#utility.yul\":7136:7502   */\n      swap2\n      swap1\n      pop\n      jump\t// out\n        /* \"#utility.yul\":7508:7927   */\n    tag_43:\n        /* \"#utility.yul\":7674:7678   */\n      0x00\n        /* \"#utility.yul\":7712:7714   */\n      0x20\n        /* \"#utility.yul\":7701:7710   */\n      dup3\n        /* \"#utility.yul\":7697:7715   */\n      add\n        /* \"#utility.yul\":7689:7715   */\n      swap1\n      pop\n        /* \"#utility.yul\":7761:7770   */\n      dup2\n        /* \"#utility.yul\":7755:7759   */\n      dup2\n        /* \"#utility.yul\":7751:7771   */\n      sub\n        /* \"#utility.yul\":7747:7748   */\n      0x00\n        /* \"#utility.yul\":7736:7745   */\n      dup4\n        /* \"#utility.yul\":7732:7749   */\n      add\n        /* \"#utility.yul\":7725:7772   */\n      mstore\n        /* \"#utility.yul\":7789:7920   */\n      tag_185\n        /* \"#utility.yul\":7915:7919   */\n      dup2\n        /* \"#utility.yul\":7789:7920   */\n      tag_82\n      jump\t// in\n    tag_185:\n        /* \"#utility.yul\":7781:7920   */\n      swap1\n      pop\n        /* \"#utility.yul\":7508:7927   */\n      swap2\n      swap1\n      pop\n      jump\t// out\n        /* \"#utility.yul\":7933:8112   */\n    tag_83:\n        /* \"#utility.yul\":8073:8104   */\n      0x7468697320696420697320616c72656164792072656769737465726564000000\n        /* \"#utility.yul\":8069:8070   */\n      0x00\n        /* \"#utility.yul\":8061:8067   */\n      dup3\n        /* \"#utility.yul\":8057:8071   */\n      add\n        /* \"#utility.yul\":8050:8105   */\n      mstore\n        /* \"#utility.yul\":7933:8112   */\n      pop\n      jump\t// out\n        /* \"#utility.yul\":8118:8484   */\n    tag_84:\n        /* \"#utility.yul\":8260:8263   */\n      0x00\n        /* \"#utility.yul\":8281:8348   */\n      tag_188\n        /* \"#utility.yul\":8345:8347   */\n      0x1d\n        /* \"#utility.yul\":8340:8343   */\n      dup4\n        /* \"#utility.yul\":8281:8348   */\n      tag_64\n      jump\t// in\n    tag_188:\n        /* \"#utility.yul\":8274:8348   */\n      swap2\n      pop\n        /* \"#utility.yul\":8357:8450   */\n      tag_189\n        /* \"#utility.yul\":8446:8449   */\n      dup3\n        /* \"#utility.yul\":8357:8450   */\n      tag_83\n      jump\t// in\n    tag_189:\n        /* \"#utility.yul\":8475:8477   */\n      0x20\n        /* \"#utility.yul\":8470:8473   */\n      dup3\n        /* \"#utility.yul\":8466:8478   */\n      add\n        /* \"#utility.yul\":8459:8478   */\n      swap1\n      pop\n        /* \"#utility.yul\":8118:8484   */\n      swap2\n      swap1\n      pop\n      jump\t// out\n        /* \"#utility.yul\":8490:8909   */\n    tag_46:\n        /* \"#utility.yul\":8656:8660   */\n      0x00\n        /* \"#utility.yul\":8694:8696   */\n      0x20\n        /* \"#utility.yul\":8683:8692   */\n      dup3\n        /* \"#utility.yul\":8679:8697   */\n      add\n        /* \"#utility.yul\":8671:8697   */\n      swap1\n      pop\n        /* \"#utility.yul\":8743:8752   */\n      dup2\n        /* \"#utility.yul\":8737:8741   */\n      dup2\n        /* \"#utility.yul\":8733:8753   */\n      sub\n        /* \"#utility.yul\":8729:8730   */\n      0x00\n        /* \"#utility.yul\":8718:8727   */\n      dup4\n        /* \"#utility.yul\":8714:8731   */\n      add\n        /* \"#utility.yul\":8707:8754   */\n      mstore\n        /* \"#utility.yul\":8771:8902   */\n      tag_191\n        /* \"#utility.yul\":8897:8901   */\n      dup2\n        /* \"#utility.yul\":8771:8902   */\n      tag_84\n      jump\t// in\n    tag_191:\n        /* \"#utility.yul\":8763:8902   */\n      swap1\n      pop\n        /* \"#utility.yul\":8490:8909   */\n      swap2\n      swap1\n      pop\n      jump\t// out\n        /* \"#utility.yul\":8915:9056   */\n    tag_85:\n        /* \"#utility.yul\":8964:8968   */\n      0x00\n        /* \"#utility.yul\":8987:8990   */\n      dup2\n        /* \"#utility.yul\":8979:8990   */\n      swap1\n      pop\n        /* \"#utility.yul\":9010:9013   */\n      dup2\n        /* \"#utility.yul\":9007:9008   */\n      0x00\n        /* \"#utility.yul\":9000:9014   */\n      mstore\n        /* \"#utility.yul\":9044:9048   */\n      0x20\n        /* \"#utility.yul\":9041:9042   */\n      0x00\n        /* \"#utility.yul\":9031:9049   */\n      keccak256\n        /* \"#utility.yul\":9023:9049   */\n      swap1\n      pop\n        /* \"#utility.yul\":8915:9056   */\n      swap2\n      swap1\n      pop\n      jump\t// out\n        /* \"#utility.yul\":9062:9155   */\n    tag_86:\n        /* \"#utility.yul\":9099:9105   */\n      0x00\n        /* \"#utility.yul\":9146:9148   */\n      0x20\n        /* \"#utility.yul\":9141:9143   */\n      0x1f\n        /* \"#utility.yul\":9134:9139   */\n      dup4\n        /* \"#utility.yul\":9130:9144   */\n      add\n        /* \"#utility.yul\":9126:9149   */\n      div\n        /* \"#utility.yul\":9116:9149   */\n      swap1\n      pop\n        /* \"#utility.yul\":9062:9155   */\n      swap2\n      swap1\n      pop\n      jump\t// out\n        /* \"#utility.yul\":9161:9268   */\n    tag_87:\n        /* \"#utility.yul\":9205:9213   */\n      0x00\n        /* \"#utility.yul\":9255:9260   */\n      dup3\n        /* \"#utility.yul\":9249:9253   */\n      dup3\n        /* \"#utility.yul\":9245:9261   */\n      shl\n        /* \"#utility.yul\":9224:9261   */\n      swap1\n      pop\n        /* \"#utility.yul\":9161:9268   */\n      swap3\n      swap2\n      pop\n      pop\n      jump\t// out\n        /* \"#utility.yul\":9274:9667   */\n    tag_88:\n        /* \"#utility.yul\":9343:9349   */\n      0x00\n        /* \"#utility.yul\":9393:9394   */\n      0x08\n        /* \"#utility.yul\":9381:9391   */\n      dup4\n        /* \"#utility.yul\":9377:9395   */\n      mul\n        /* \"#utility.yul\":9416:9513   */\n      tag_196\n        /* \"#utility.yul\":9446:9512   */\n      0xffffffffffffffffffffffffffffffffffffffffffffffffffffffffffffffff\n        /* \"#utility.yul\":9435:9444   */\n      dup3\n        /* \"#utility.yul\":9416:9513   */\n      tag_87\n      jump\t// in\n    tag_196:\n        /* \"#utility.yul\":9534:9573   */\n      tag_197\n        /* \"#utility.yul\":9564:9572   */\n      dup7\n        /* \"#utility.yul\":9553:9562   */\n      dup4\n        /* \"#utility.yul\":9534:9573   */\n      tag_87\n      jump\t// in\n    tag_197:\n        /* \"#utility.yul\":9522:9573   */\n      swap6\n      pop\n        /* \"#utility.yul\":9606:9610   */\n      dup1\n        /* \"#utility.yul\":9602:9611   */\n      not\n        /* \"#utility.yul\":9595:9600   */\n      dup5\n        /* \"#utility.yul\":9591:9612   */\n      and\n        /* \"#utility.yul\":9582:9612   */\n      swap4\n      pop\n        /* \"#utility.yul\":9655:9659   */\n      dup1\n        /* \"#utility.yul\":9645:9653   */\n      dup7\n        /* \"#utility.yul\":9641:9660   */\n      and\n        /* \"#utility.yul\":9634:9639   */\n      dup5\n        /* \"#utility.yul\":9631:9661   */\n      or\n        /* \"#utility.yul\":9621:9661   */\n      swap3\n      pop\n        /* \"#utility.yul\":9350:9667   */\n      pop\n      pop\n        /* \"#utility.yul\":9274:9667   */\n      swap4\n      swap3\n      pop\n      pop\n      pop\n      jump\t// out\n        /* \"#utility.yul\":9673:9733   */\n    tag_89:\n        /* \"#utility.yul\":9701:9704   */\n      0x00\n        /* \"#utility.yul\":9722:9727   */\n      dup2\n        /* \"#utility.yul\":9715:9727   */\n      swap1\n      pop\n        /* \"#utility.yul\":9673:9733   */\n      swap2\n      swap1\n      pop\n      jump\t// out\n        /* \"#utility.yul\":9739:9881   */\n    tag_90:\n        /* \"#utility.yul\":9789:9798   */\n      0x00\n        /* \"#utility.yul\":9822:9875   */\n      tag_200\n        /* \"#utility.yul\":9840:9874   */\n      tag_201\n        /* \"#utility.yul\":9849:9873   */\n      tag_202\n        /* \"#utility.yul\":9867:9872   */\n      dup5\n        /* \"#utility.yul\":9849:9873   */\n      tag_59\n      jump\t// in\n    tag_202:\n        /* \"#utility.yul\":9840:9874   */\n      tag_89\n      jump\t// in\n    tag_201:\n        /* \"#utility.yul\":9822:9875   */\n      tag_59\n      jump\t// in\n    tag_200:\n        /* \"#utility.yul\":9809:9875   */\n      swap1\n      pop\n        /* \"#utility.yul\":9739:9881   */\n      swap2\n      swap1\n      pop\n      jump\t// out\n        /* \"#utility.yul\":9887:9962   */\n    tag_91:\n        /* \"#utility.yul\":9930:9933   */\n      0x00\n        /* \"#utility.yul\":9951:9956   */\n      dup2\n        /* \"#utility.yul\":9944:9956   */\n      swap1\n      pop\n        /* \"#utility.yul\":9887:9962   */\n      swap2\n      swap1\n      pop\n      jump\t// out\n        /* \"#utility.yul\":9968:10237   */\n    tag_92:\n        /* \"#utility.yul\":10078:10117   */\n      tag_205\n        /* \"#utility.yul\":10109:10116   */\n      dup4\n        /* \"#utility.yul\":10078:10117   */\n      tag_90\n      jump\t// in\n    tag_205:\n        /* \"#utility.yul\":10139:10230   */\n      tag_206\n        /* \"#utility.yul\":10188:10229   */\n      tag_207\n        /* \"#utility.yul\":10212:10228   */\n      dup3\n        /* \"#utility.yul\":10188:10229   */\n      tag_91\n      jump\t// in\n    tag_207:\n        /* \"#utility.yul\":10180:10186   */\n      dup5\n        /* \"#utility.yul\":10173:10177   */\n      dup5\n        /* \"#utility.yul\":10167:10178   */\n      sload\n        /* \"#utility.yul\":10139:10230   */\n      tag_88\n      jump\t// in\n    tag_206:\n        /* \"#utility.yul\":10133:10137   */\n      dup3\n        /* \"#utility.yul\":10126:10231   */\n      sstore\n        /* \"#utility.yul\":10044:10237   */\n      pop\n        /* \"#utility.yul\":9968:10237   */\n      pop\n      pop\n      pop\n      jump\t// out\n        /* \"#utility.yul\":10243:10316   */\n    tag_93:\n        /* \"#utility.yul\":10288:10291   */\n      0x00\n        /* \"#utility.yul\":10243:10316   */\n      swap1\n      jump\t// out\n        /* \"#utility.yul\":10322:10511   */\n    tag_94:\n        /* \"#utility.yul\":10399:10431   */\n      tag_210\n      tag_93\n      jump\t// in\n    tag_210:\n        /* \"#utility.yul\":10440:10505   */\n      tag_211\n        /* \"#utility.yul\":10498:10504   */\n      dup2\n        /* \"#utility.yul\":10490:10496   */\n      dup5\n        /* \"#utility.yul\":10484:10488   */\n      dup5\n        /* \"#utility.yul\":10440:10505   */\n      tag_92\n      jump\t// in\n    tag_211:\n        /* \"#utility.yul\":10375:10511   */\n      pop\n        /* \"#utility.yul\":10322:10511   */\n      pop\n      pop\n      jump\t// out\n        /* \"#utility.yul\":10517:10703   */\n    tag_95:\n        /* \"#utility.yul\":10577:10697   */\n    tag_213:\n        /* \"#utility.yul\":10594:10597   */\n      dup2\n        /* \"#utility.yul\":10587:10592   */\n      dup2\n        /* \"#utility.yul\":10584:10598   */\n      lt\n        /* \"#utility.yul\":10577:10697   */\n      iszero\n      tag_215\n      jumpi\n        /* \"#utility.yul\":10648:10687   */\n      tag_216\n        /* \"#utility.yul\":10685:10686   */\n      0x00\n        /* \"#utility.yul\":10678:10683   */\n      dup3\n        /* \"#utility.yul\":10648:10687   */\n      tag_94\n      jump\t// in\n    tag_216:\n        /* \"#utility.yul\":10621:10622   */\n      0x01\n        /* \"#utility.yul\":10614:10619   */\n      dup2\n        /* \"#utility.yul\":10610:10623   */\n      add\n        /* \"#utility.yul\":10601:10623   */\n      swap1\n      pop\n        /* \"#utility.yul\":10577:10697   */\n      jump(tag_213)\n    tag_215:\n        /* \"#utility.yul\":10517:10703   */\n      pop\n      pop\n      jump\t// out\n        /* \"#utility.yul\":10709:11252   */\n    tag_96:\n        /* \"#utility.yul\":10810:10812   */\n      0x1f\n        /* \"#utility.yul\":10805:10808   */\n      dup3\n        /* \"#utility.yul\":10802:10813   */\n      gt\n        /* \"#utility.yul\":10799:11245   */\n      iszero\n      tag_218\n      jumpi\n        /* \"#utility.yul\":10844:10882   */\n      tag_219\n        /* \"#utility.yul\":10876:10881   */\n      dup2\n        /* \"#utility.yul\":10844:10882   */\n      tag_85\n      jump\t// in\n    tag_219:\n        /* \"#utility.yul\":10928:10957   */\n      tag_220\n        /* \"#utility.yul\":10946:10956   */\n      dup5\n        /* \"#utility.yul\":10928:10957   */\n      tag_86\n      jump\t// in\n    tag_220:\n        /* \"#utility.yul\":10918:10926   */\n      dup2\n        /* \"#utility.yul\":10914:10958   */\n      add\n        /* \"#utility.yul\":11111:11113   */\n      0x20\n        /* \"#utility.yul\":11099:11109   */\n      dup6\n        /* \"#utility.yul\":11096:11114   */\n      lt\n        /* \"#utility.yul\":11093:11142   */\n      iszero\n      tag_221\n      jumpi\n        /* \"#utility.yul\":11132:11140   */\n      dup2\n        /* \"#utility.yul\":11117:11140   */\n      swap1\n      pop\n        /* \"#utility.yul\":11093:11142   */\n    tag_221:\n        /* \"#utility.yul\":11155:11235   */\n      tag_222\n        /* \"#utility.yul\":11211:11233   */\n      tag_223\n        /* \"#utility.yul\":11229:11232   */\n      dup6\n        /* \"#utility.yul\":11211:11233   */\n      tag_86\n      jump\t// in\n    tag_223:\n        /* \"#utility.yul\":11201:11209   */\n      dup4\n        /* \"#utility.yul\":11197:11234   */\n      add\n        /* \"#utility.yul\":11184:11195   */\n      dup3\n        /* \"#utility.yul\":11155:11235   */\n      tag_95\n      jump\t// in\n    tag_222:\n        /* \"#utility.yul\":10814:11245   */\n      pop\n      pop\n        /* \"#utility.yul\":10799:11245   */\n    tag_218:\n        /* \"#utility.yul\":10709:11252   */\n      pop\n      pop\n      pop\n      jump\t// out\n        /* \"#utility.yul\":11258:11375   */\n    tag_97:\n        /* \"#utility.yul\":11312:11320   */\n      0x00\n        /* \"#utility.yul\":11362:11367   */\n      dup3\n        /* \"#utility.yul\":11356:11360   */\n      dup3\n        /* \"#utility.yul\":11352:11368   */\n      shr\n        /* \"#utility.yul\":11331:11368   */\n      swap1\n      pop\n        /* \"#utility.yul\":11258:11375   */\n      swap3\n      swap2\n      pop\n      pop\n      jump\t// out\n        /* \"#utility.yul\":11381:11550   */\n    tag_98:\n        /* \"#utility.yul\":11425:11431   */\n      0x00\n        /* \"#utility.yul\":11458:11509   */\n      tag_226\n        /* \"#utility.yul\":11506:11507   */\n      0x00\n        /* \"#utility.yul\":11502:11508   */\n      not\n        /* \"#utility.yul\":11494:11499   */\n      dup5\n        /* \"#utility.yul\":11491:11492   */\n      0x08\n        /* \"#utility.yul\":11487:11500   */\n      mul\n        /* \"#utility.yul\":11458:11509   */\n      tag_97\n      jump\t// in\n    tag_226:\n        /* \"#utility.yul\":11454:11510   */\n      not\n        /* \"#utility.yul\":11539:11543   */\n      dup1\n        /* \"#utility.yul\":11533:11537   */\n      dup4\n        /* \"#utility.yul\":11529:11544   */\n      and\n        /* \"#utility.yul\":11519:11544   */\n      swap2\n      pop\n        /* \"#utility.yul\":11432:11550   */\n      pop\n        /* \"#utility.yul\":11381:11550   */\n      swap3\n      swap2\n      pop\n      pop\n      jump\t// out\n        /* \"#utility.yul\":11555:11850   */\n    tag_99:\n        /* \"#utility.yul\":11631:11635   */\n      0x00\n        /* \"#utility.yul\":11777:11806   */\n      tag_228\n        /* \"#utility.yul\":11802:11805   */\n      dup4\n        /* \"#utility.yul\":11796:11800   */\n      dup4\n        /* \"#utility.yul\":11777:11806   */\n      tag_98\n      jump\t// in\n    tag_228:\n        /* \"#utility.yul\":11769:11806   */\n      swap2\n      pop\n        /* \"#utility.yul\":11839:11842   */\n      dup3\n        /* \"#utility.yul\":11836:11837   */\n      0x02\n        /* \"#utility.yul\":11832:11843   */\n      mul\n        /* \"#utility.yul\":11826:11830   */\n      dup3\n        /* \"#utility.yul\":11823:11844   */\n      or\n        /* \"#utility.yul\":11815:11844   */\n      swap1\n      pop\n        /* \"#utility.yul\":11555:11850   */\n      swap3\n      swap2\n      pop\n      pop\n      jump\t// out\n        /* \"#utility.yul\":11855:13250   */\n    tag_48:\n        /* \"#utility.yul\":11972:12009   */\n      tag_230\n        /* \"#utility.yul\":12005:12008   */\n      dup3\n        /* \"#utility.yul\":11972:12009   */\n      tag_63\n      jump\t// in\n    tag_230:\n        /* \"#utility.yul\":12074:12092   */\n      0xffffffffffffffff\n        /* \"#utility.yul\":12066:12072   */\n      dup2\n        /* \"#utility.yul\":12063:12093   */\n      gt\n        /* \"#utility.yul\":12060:12116   */\n      iszero\n      tag_231\n      jumpi\n        /* \"#utility.yul\":12096:12114   */\n      tag_232\n      tag_73\n      jump\t// in\n    tag_232:\n        /* \"#utility.yul\":12060:12116   */\n    tag_231:\n        /* \"#utility.yul\":12140:12178   */\n      tag_233\n        /* \"#utility.yul\":12172:12176   */\n      dup3\n        /* \"#utility.yul\":12166:12177   */\n      sload\n        /* \"#utility.yul\":12140:12178   */\n      tag_34\n      jump\t// in\n    tag_233:\n        /* \"#utility.yul\":12225:12292   */\n      tag_234\n        /* \"#utility.yul\":12285:12291   */\n      dup3\n        /* \"#utility.yul\":12277:12283   */\n      dup3\n        /* \"#utility.yul\":12271:12275   */\n      dup6\n        /* \"#utility.yul\":12225:12292   */\n      tag_96\n      jump\t// in\n    tag_234:\n        /* \"#utility.yul\":12319:12320   */\n      0x00\n        /* \"#utility.yul\":12343:12347   */\n      0x20\n        /* \"#utility.yul\":12330:12347   */\n      swap1\n      pop\n        /* \"#utility.yul\":12375:12377   */\n      0x1f\n        /* \"#utility.yul\":12367:12373   */\n      dup4\n        /* \"#utility.yul\":12364:12378   */\n      gt\n        /* \"#utility.yul\":12392:12393   */\n      0x01\n        /* \"#utility.yul\":12387:13005   */\n      dup2\n      eq\n      tag_236\n      jumpi\n        /* \"#utility.yul\":13049:13050   */\n      0x00\n        /* \"#utility.yul\":13066:13072   */\n      dup5\n        /* \"#utility.yul\":13063:13140   */\n      iszero\n      tag_237\n      jumpi\n        /* \"#utility.yul\":13115:13124   */\n      dup3\n        /* \"#utility.yul\":13110:13113   */\n      dup8\n        /* \"#utility.yul\":13106:13125   */\n      add\n        /* \"#utility.yul\":13100:13126   */\n      mload\n        /* \"#utility.yul\":13091:13126   */\n      swap1\n      pop\n        /* \"#utility.yul\":13063:13140   */\n    tag_237:\n        /* \"#utility.yul\":13166:13233   */\n      tag_238\n        /* \"#utility.yul\":13226:13232   */\n      dup6\n        /* \"#utility.yul\":13219:13224   */\n      dup3\n        /* \"#utility.yul\":13166:13233   */\n      tag_99\n      jump\t// in\n    tag_238:\n        /* \"#utility.yul\":13160:13164   */\n      dup7\n        /* \"#utility.yul\":13153:13234   */\n      sstore\n        /* \"#utility.yul\":13022:13244   */\n      pop\n        /* \"#utility.yul\":12357:13244   */\n      jump(tag_235)\n        /* \"#utility.yul\":12387:13005   */\n    tag_236:\n        /* \"#utility.yul\":12439:12443   */\n      0x1f\n        /* \"#utility.yul\":12435:12444   */\n      not\n        /* \"#utility.yul\":12427:12433   */\n      dup5\n        /* \"#utility.yul\":12423:12445   */\n      and\n        /* \"#utility.yul\":12473:12510   */\n      tag_239\n        /* \"#utility.yul\":12505:12509   */\n      dup7\n        /* \"#utility.yul\":12473:12510   */\n      tag_85\n      jump\t// in\n    tag_239:\n        /* \"#utility.yul\":12532:12533   */\n      0x00\n        /* \"#utility.yul\":12546:12754   */\n    tag_240:\n        /* \"#utility.yul\":12560:12567   */\n      dup3\n        /* \"#utility.yul\":12557:12558   */\n      dup2\n        /* \"#utility.yul\":12554:12568   */\n      lt\n        /* \"#utility.yul\":12546:12754   */\n      iszero\n      tag_242\n      jumpi\n        /* \"#utility.yul\":12639:12648   */\n      dup5\n        /* \"#utility.yul\":12634:12637   */\n      dup10\n        /* \"#utility.yul\":12630:12649   */\n      add\n        /* \"#utility.yul\":12624:12650   */\n      mload\n        /* \"#utility.yul\":12616:12622   */\n      dup3\n        /* \"#utility.yul\":12609:12651   */\n      sstore\n        /* \"#utility.yul\":12690:12691   */\n      0x01\n        /* \"#utility.yul\":12682:12688   */\n      dup3\n        /* \"#utility.yul\":12678:12692   */\n      add\n        /* \"#utility.yul\":12668:12692   */\n      swap2\n      pop\n        /* \"#utility.yul\":12737:12739   */\n      0x20\n        /* \"#utility.yul\":12726:12735   */\n      dup6\n        /* \"#utility.yul\":12722:12740   */\n      add\n        /* \"#utility.yul\":12709:12740   */\n      swap5\n      pop\n        /* \"#utility.yul\":12583:12587   */\n      0x20\n        /* \"#utility.yul\":12580:12581   */\n      dup2\n        /* \"#utility.yul\":12576:12588   */\n      add\n        /* \"#utility.yul\":12571:12588   */\n      swap1\n      pop\n        /* \"#utility.yul\":12546:12754   */\n      jump(tag_240)\n    tag_242:\n        /* \"#utility.yul\":12782:12788   */\n      dup7\n        /* \"#utility.yul\":12773:12780   */\n      dup4\n        /* \"#utility.yul\":12770:12789   */\n      lt\n        /* \"#utility.yul\":12767:12946   */\n      iszero\n      tag_243\n      jumpi\n        /* \"#utility.yul\":12840:12849   */\n      dup5\n        /* \"#utility.yul\":12835:12838   */\n      dup10\n        /* \"#utility.yul\":12831:12850   */\n      add\n        /* \"#utility.yul\":12825:12851   */\n      mload\n        /* \"#utility.yul\":12883:12931   */\n      tag_244\n        /* \"#utility.yul\":12925:12929   */\n      0x1f\n        /* \"#utility.yul\":12917:12923   */\n      dup10\n        /* \"#utility.yul\":12913:12930   */\n      and\n        /* \"#utility.yul\":12902:12911   */\n      dup3\n        /* \"#utility.yul\":12883:12931   */\n      tag_98\n      jump\t// in\n    tag_244:\n        /* \"#utility.yul\":12875:12881   */\n      dup4\n        /* \"#utility.yul\":12868:12932   */\n      sstore\n        /* \"#utility.yul\":12790:12946   */\n      pop\n        /* \"#utility.yul\":12767:12946   */\n    tag_243:\n        /* \"#utility.yul\":12992:12993   */\n      0x01\n        /* \"#utility.yul\":12988:12989   */\n      0x02\n        /* \"#utility.yul\":12980:12986   */\n      dup9\n        /* \"#utility.yul\":12976:12990   */\n      mul\n        /* \"#utility.yul\":12972:12994   */\n      add\n        /* \"#utility.yul\":12966:12970   */\n      dup9\n        /* \"#utility.yul\":12959:12995   */\n      sstore\n        /* \"#utility.yul\":12394:13005   */\n      pop\n      pop\n      pop\n        /* \"#utility.yul\":12357:13244   */\n    tag_235:\n      pop\n        /* \"#utility.yul\":11947:13250   */\n      pop\n      pop\n      pop\n        /* \"#utility.yul\":11855:13250   */\n      pop\n      pop\n      jump\t// out\n\n    auxdata: 0xa2646970667358221220c567a5ab660f39b37ab31e4b87e0641a8e0c3ce731d3915a42dc730b36e373a164736f6c63430008120033\n}\n",
				"bytecode": {
					"linkReferences": {},
					"object": "608060405234801561001057600080fd5b50610bd6806100206000396000f3fe608060405234801561001057600080fd5b50600436106100575760003560e01c806337cb797b1461005c578063635a235b146100785780638da5cb5b146100a9578063d5063e04146100c7578063fcf9c6a9146100e3575b600080fd5b610076600480360381019061007191906104c1565b6100ff565b005b610092600480360381019061008d9190610501565b610143565b6040516100a09291906105cd565b60405180910390f35b6100b16101ff565b6040516100be919061063e565b60405180910390f35b6100e160048036038101906100dc919061078e565b610223565b005b6100fd60048036038101906100f8919061078e565b61034d565b005b336000806101000a81548173ffffffffffffffffffffffffffffffffffffffff021916908373ffffffffffffffffffffffffffffffffffffffff1602179055505050565b6004818154811061015357600080fd5b906000526020600020906002020160009150905080600001549080600101805461017c90610819565b80601f01602080910402602001604051908101604052809291908181526020018280546101a890610819565b80156101f55780601f106101ca576101008083540402835291602001916101f5565b820191906000526020600020905b8154815290600101906020018083116101d857829003601f168201915b5050505050905082565b60008054906101000a900473ffffffffffffffffffffffffffffffffffffffff1681565b336000806101000a81548173ffffffffffffffffffffffffffffffffffffffff021916908373ffffffffffffffffffffffffffffffffffffffff160217905550600082036102a6576040517f08c379a000000000000000000000000000000000000000000000000000000000815260040161029d90610896565b60405180910390fd5b600160008381526020019081526020016000206000015482036102fe576040517f08c379a00000000000000000000000000000000000000000000000000000000081526004016102f590610902565b60405180910390fd5b604051806040016040528083815260200182815250600160008481526020019081526020016000206000820151816000015560208201518160010190816103459190610ace565b509050505050565b336000806101000a81548173ffffffffffffffffffffffffffffffffffffffff021916908373ffffffffffffffffffffffffffffffffffffffff160217905550600082036103d0576040517f08c379a00000000000000000000000000000000000000000000000000000000081526004016103c790610896565b60405180910390fd5b60026000838152602001908152602001600020600001548203610428576040517f08c379a000000000000000000000000000000000000000000000000000000000815260040161041f90610902565b60405180910390fd5b6040518060400160405280838152602001828152506002600084815260200190815260200160002060008201518160000155602082015181600101908161046f9190610ace565b509050505050565b6000604051905090565b600080fd5b600080fd5b6000819050919050565b61049e8161048b565b81146104a957600080fd5b50565b6000813590506104bb81610495565b92915050565b600080604083850312156104d8576104d7610481565b5b60006104e6858286016104ac565b92505060206104f7858286016104ac565b9150509250929050565b60006020828403121561051757610516610481565b5b6000610525848285016104ac565b91505092915050565b6105378161048b565b82525050565b600081519050919050565b600082825260208201905092915050565b60005b8381101561057757808201518184015260208101905061055c565b60008484015250505050565b6000601f19601f8301169050919050565b600061059f8261053d565b6105a98185610548565b93506105b9818560208601610559565b6105c281610583565b840191505092915050565b60006040820190506105e2600083018561052e565b81810360208301526105f48184610594565b90509392505050565b600073ffffffffffffffffffffffffffffffffffffffff82169050919050565b6000610628826105fd565b9050919050565b6106388161061d565b82525050565b6000602082019050610653600083018461062f565b92915050565b600080fd5b600080fd5b7f4e487b7100000000000000000000000000000000000000000000000000000000600052604160045260246000fd5b61069b82610583565b810181811067ffffffffffffffff821117156106ba576106b9610663565b5b80604052505050565b60006106cd610477565b90506106d98282610692565b919050565b600067ffffffffffffffff8211156106f9576106f8610663565b5b61070282610583565b9050602081019050919050565b82818337600083830152505050565b600061073161072c846106de565b6106c3565b90508281526020810184848401111561074d5761074c61065e565b5b61075884828561070f565b509392505050565b600082601f83011261077557610774610659565b5b813561078584826020860161071e565b91505092915050565b600080604083850312156107a5576107a4610481565b5b60006107b3858286016104ac565b925050602083013567ffffffffffffffff8111156107d4576107d3610486565b5b6107e085828601610760565b9150509250929050565b7f4e487b7100000000000000000000000000000000000000000000000000000000600052602260045260246000fd5b6000600282049050600182168061083157607f821691505b602082108103610844576108436107ea565b5b50919050565b7f69642073686f756c64206e6f7420626520657175616c20746f207a65726f0000600082015250565b6000610880601e83610548565b915061088b8261084a565b602082019050919050565b600060208201905081810360008301526108af81610873565b9050919050565b7f7468697320696420697320616c72656164792072656769737465726564000000600082015250565b60006108ec601d83610548565b91506108f7826108b6565b602082019050919050565b6000602082019050818103600083015261091b816108df565b9050919050565b60008190508160005260206000209050919050565b60006020601f8301049050919050565b600082821b905092915050565b6000600883026109847fffffffffffffffffffffffffffffffffffffffffffffffffffffffffffffffff82610947565b61098e8683610947565b95508019841693508086168417925050509392505050565b6000819050919050565b60006109cb6109c66109c18461048b565b6109a6565b61048b565b9050919050565b6000819050919050565b6109e5836109b0565b6109f96109f1826109d2565b848454610954565b825550505050565b600090565b610a0e610a01565b610a198184846109dc565b505050565b5b81811015610a3d57610a32600082610a06565b600181019050610a1f565b5050565b601f821115610a8257610a5381610922565b610a5c84610937565b81016020851015610a6b578190505b610a7f610a7785610937565b830182610a1e565b50505b505050565b600082821c905092915050565b6000610aa560001984600802610a87565b1980831691505092915050565b6000610abe8383610a94565b9150826002028217905092915050565b610ad78261053d565b67ffffffffffffffff811115610af057610aef610663565b5b610afa8254610819565b610b05828285610a41565b600060209050601f831160018114610b385760008415610b26578287015190505b610b308582610ab2565b865550610b98565b601f198416610b4686610922565b60005b82811015610b6e57848901518255600182019150602085019450602081019050610b49565b86831015610b8b5784890151610b87601f891682610a94565b8355505b6001600288020188555050505b50505050505056fea2646970667358221220c567a5ab660f39b37ab31e4b87e0641a8e0c3ce731d3915a42dc730b36e373a164736f6c63430008120033",
					"opcodes": "PUSH1 0x80 PUSH1 0x40 MSTORE CALLVALUE DUP1 ISZERO PUSH2 0x10 JUMPI PUSH1 0x0 DUP1 REVERT JUMPDEST POP PUSH2 0xBD6 DUP1 PUSH2 0x20 PUSH1 0x0 CODECOPY PUSH1 0x0 RETURN INVALID PUSH1 0x80 PUSH1 0x40 MSTORE CALLVALUE DUP1 ISZERO PUSH2 0x10 JUMPI PUSH1 0x0 DUP1 REVERT JUMPDEST POP PUSH1 0x4 CALLDATASIZE LT PUSH2 0x57 JUMPI PUSH1 0x0 CALLDATALOAD PUSH1 0xE0 SHR DUP1 PUSH4 0x37CB797B EQ PUSH2 0x5C JUMPI DUP1 PUSH4 0x635A235B EQ PUSH2 0x78 JUMPI DUP1 PUSH4 0x8DA5CB5B EQ PUSH2 0xA9 JUMPI DUP1 PUSH4 0xD5063E04 EQ PUSH2 0xC7 JUMPI DUP1 PUSH4 0xFCF9C6A9 EQ PUSH2 0xE3 JUMPI JUMPDEST PUSH1 0x0 DUP1 REVERT JUMPDEST PUSH2 0x76 PUSH1 0x4 DUP1 CALLDATASIZE SUB DUP2 ADD SWAP1 PUSH2 0x71 SWAP2 SWAP1 PUSH2 0x4C1 JUMP JUMPDEST PUSH2 0xFF JUMP JUMPDEST STOP JUMPDEST PUSH2 0x92 PUSH1 0x4 DUP1 CALLDATASIZE SUB DUP2 ADD SWAP1 PUSH2 0x8D SWAP2 SWAP1 PUSH2 0x501 JUMP JUMPDEST PUSH2 0x143 JUMP JUMPDEST PUSH1 0x40 MLOAD PUSH2 0xA0 SWAP3 SWAP2 SWAP1 PUSH2 0x5CD JUMP JUMPDEST PUSH1 0x40 MLOAD DUP1 SWAP2 SUB SWAP1 RETURN JUMPDEST PUSH2 0xB1 PUSH2 0x1FF JUMP JUMPDEST PUSH1 0x40 MLOAD PUSH2 0xBE SWAP2 SWAP1 PUSH2 0x63E JUMP JUMPDEST PUSH1 0x40 MLOAD DUP1 SWAP2 SUB SWAP1 RETURN JUMPDEST PUSH2 0xE1 PUSH1 0x4 DUP1 CALLDATASIZE SUB DUP2 ADD SWAP1 PUSH2 0xDC SWAP2 SWAP1 PUSH2 0x78E JUMP JUMPDEST PUSH2 0x223 JUMP JUMPDEST STOP JUMPDEST PUSH2 0xFD PUSH1 0x4 DUP1 CALLDATASIZE SUB DUP2 ADD SWAP1 PUSH2 0xF8 SWAP2 SWAP1 PUSH2 0x78E JUMP JUMPDEST PUSH2 0x34D JUMP JUMPDEST STOP JUMPDEST CALLER PUSH1 0x0 DUP1 PUSH2 0x100 EXP DUP2 SLOAD DUP2 PUSH20 0xFFFFFFFFFFFFFFFFFFFFFFFFFFFFFFFFFFFFFFFF MUL NOT AND SWAP1 DUP4 PUSH20 0xFFFFFFFFFFFFFFFFFFFFFFFFFFFFFFFFFFFFFFFF AND MUL OR SWAP1 SSTORE POP POP POP JUMP JUMPDEST PUSH1 0x4 DUP2 DUP2 SLOAD DUP2 LT PUSH2 0x153 JUMPI PUSH1 0x0 DUP1 REVERT JUMPDEST SWAP1 PUSH1 0x0 MSTORE PUSH1 0x20 PUSH1 0x0 KECCAK256 SWAP1 PUSH1 0x2 MUL ADD PUSH1 0x0 SWAP2 POP SWAP1 POP DUP1 PUSH1 0x0 ADD SLOAD SWAP1 DUP1 PUSH1 0x1 ADD DUP1 SLOAD PUSH2 0x17C SWAP1 PUSH2 0x819 JUMP JUMPDEST DUP1 PUSH1 0x1F ADD PUSH1 0x20 DUP1 SWAP2 DIV MUL PUSH1 0x20 ADD PUSH1 0x40 MLOAD SWAP1 DUP2 ADD PUSH1 0x40 MSTORE DUP1 SWAP3 SWAP2 SWAP1 DUP2 DUP2 MSTORE PUSH1 0x20 ADD DUP3 DUP1 SLOAD PUSH2 0x1A8 SWAP1 PUSH2 0x819 JUMP JUMPDEST DUP1 ISZERO PUSH2 0x1F5 JUMPI DUP1 PUSH1 0x1F LT PUSH2 0x1CA JUMPI PUSH2 0x100 DUP1 DUP4 SLOAD DIV MUL DUP4 MSTORE SWAP2 PUSH1 0x20 ADD SWAP2 PUSH2 0x1F5 JUMP JUMPDEST DUP3 ADD SWAP2 SWAP1 PUSH1 0x0 MSTORE PUSH1 0x20 PUSH1 0x0 KECCAK256 SWAP1 JUMPDEST DUP2 SLOAD DUP2 MSTORE SWAP1 PUSH1 0x1 ADD SWAP1 PUSH1 0x20 ADD DUP1 DUP4 GT PUSH2 0x1D8 JUMPI DUP3 SWAP1 SUB PUSH1 0x1F AND DUP3 ADD SWAP2 JUMPDEST POP POP POP POP POP SWAP1 POP DUP3 JUMP JUMPDEST PUSH1 0x0 DUP1 SLOAD SWAP1 PUSH2 0x100 EXP SWAP1 DIV PUSH20 0xFFFFFFFFFFFFFFFFFFFFFFFFFFFFFFFFFFFFFFFF AND DUP2 JUMP JUMPDEST CALLER PUSH1 0x0 DUP1 PUSH2 0x100 EXP DUP2 SLOAD DUP2 PUSH20 0xFFFFFFFFFFFFFFFFFFFFFFFFFFFFFFFFFFFFFFFF MUL NOT AND SWAP1 DUP4 PUSH20 0xFFFFFFFFFFFFFFFFFFFFFFFFFFFFFFFFFFFFFFFF AND MUL OR SWAP1 SSTORE POP PUSH1 0x0 DUP3 SUB PUSH2 0x2A6 JUMPI PUSH1 0x40 MLOAD PUSH32 0x8C379A000000000000000000000000000000000000000000000000000000000 DUP2 MSTORE PUSH1 0x4 ADD PUSH2 0x29D SWAP1 PUSH2 0x896 JUMP JUMPDEST PUSH1 0x40 MLOAD DUP1 SWAP2 SUB SWAP1 REVERT JUMPDEST PUSH1 0x1 PUSH1 0x0 DUP4 DUP2 MSTORE PUSH1 0x20 ADD SWAP1 DUP2 MSTORE PUSH1 0x20 ADD PUSH1 0x0 KECCAK256 PUSH1 0x0 ADD SLOAD DUP3 SUB PUSH2 0x2FE JUMPI PUSH1 0x40 MLOAD PUSH32 0x8C379A000000000000000000000000000000000000000000000000000000000 DUP2 MSTORE PUSH1 0x4 ADD PUSH2 0x2F5 SWAP1 PUSH2 0x902 JUMP JUMPDEST PUSH1 0x40 MLOAD DUP1 SWAP2 SUB SWAP1 REVERT JUMPDEST PUSH1 0x40 MLOAD DUP1 PUSH1 0x40 ADD PUSH1 0x40 MSTORE DUP1 DUP4 DUP2 MSTORE PUSH1 0x20 ADD DUP3 DUP2 MSTORE POP PUSH1 0x1 PUSH1 0x0 DUP5 DUP2 MSTORE PUSH1 0x20 ADD SWAP1 DUP2 MSTORE PUSH1 0x20 ADD PUSH1 0x0 KECCAK256 PUSH1 0x0 DUP3 ADD MLOAD DUP2 PUSH1 0x0 ADD SSTORE PUSH1 0x20 DUP3 ADD MLOAD DUP2 PUSH1 0x1 ADD SWAP1 DUP2 PUSH2 0x345 SWAP2 SWAP1 PUSH2 0xACE JUMP JUMPDEST POP SWAP1 POP POP POP POP JUMP JUMPDEST CALLER PUSH1 0x0 DUP1 PUSH2 0x100 EXP DUP2 SLOAD DUP2 PUSH20 0xFFFFFFFFFFFFFFFFFFFFFFFFFFFFFFFFFFFFFFFF MUL NOT AND SWAP1 DUP4 PUSH20 0xFFFFFFFFFFFFFFFFFFFFFFFFFFFFFFFFFFFFFFFF AND MUL OR SWAP1 SSTORE POP PUSH1 0x0 DUP3 SUB PUSH2 0x3D0 JUMPI PUSH1 0x40 MLOAD PUSH32 0x8C379A000000000000000000000000000000000000000000000000000000000 DUP2 MSTORE PUSH1 0x4 ADD PUSH2 0x3C7 SWAP1 PUSH2 0x896 JUMP JUMPDEST PUSH1 0x40 MLOAD DUP1 SWAP2 SUB SWAP1 REVERT JUMPDEST PUSH1 0x2 PUSH1 0x0 DUP4 DUP2 MSTORE PUSH1 0x20 ADD SWAP1 DUP2 MSTORE PUSH1 0x20 ADD PUSH1 0x0 KECCAK256 PUSH1 0x0 ADD SLOAD DUP3 SUB PUSH2 0x428 JUMPI PUSH1 0x40 MLOAD PUSH32 0x8C379A000000000000000000000000000000000000000000000000000000000 DUP2 MSTORE PUSH1 0x4 ADD PUSH2 0x41F SWAP1 PUSH2 0x902 JUMP JUMPDEST PUSH1 0x40 MLOAD DUP1 SWAP2 SUB SWAP1 REVERT JUMPDEST PUSH1 0x40 MLOAD DUP1 PUSH1 0x40 ADD PUSH1 0x40 MSTORE DUP1 DUP4 DUP2 MSTORE PUSH1 0x20 ADD DUP3 DUP2 MSTORE POP PUSH1 0x2 PUSH1 0x0 DUP5 DUP2 MSTORE PUSH1 0x20 ADD SWAP1 DUP2 MSTORE PUSH1 0x20 ADD PUSH1 0x0 KECCAK256 PUSH1 0x0 DUP3 ADD MLOAD DUP2 PUSH1 0x0 ADD SSTORE PUSH1 0x20 DUP3 ADD MLOAD DUP2 PUSH1 0x1 ADD SWAP1 DUP2 PUSH2 0x46F SWAP2 SWAP1 PUSH2 0xACE JUMP JUMPDEST POP SWAP1 POP POP POP POP JUMP JUMPDEST PUSH1 0x0 PUSH1 0x40 MLOAD SWAP1 POP SWAP1 JUMP JUMPDEST PUSH1 0x0 DUP1 REVERT JUMPDEST PUSH1 0x0 DUP1 REVERT JUMPDEST PUSH1 0x0 DUP2 SWAP1 POP SWAP2 SWAP1 POP JUMP JUMPDEST PUSH2 0x49E DUP2 PUSH2 0x48B JUMP JUMPDEST DUP2 EQ PUSH2 0x4A9 JUMPI PUSH1 0x0 DUP1 REVERT JUMPDEST POP JUMP JUMPDEST PUSH1 0x0 DUP2 CALLDATALOAD SWAP1 POP PUSH2 0x4BB DUP2 PUSH2 0x495 JUMP JUMPDEST SWAP3 SWAP2 POP POP JUMP JUMPDEST PUSH1 0x0 DUP1 PUSH1 0x40 DUP4 DUP6 SUB SLT ISZERO PUSH2 0x4D8 JUMPI PUSH2 0x4D7 PUSH2 0x481 JUMP JUMPDEST JUMPDEST PUSH1 0x0 PUSH2 0x4E6 DUP6 DUP3 DUP7 ADD PUSH2 0x4AC JUMP JUMPDEST SWAP3 POP POP PUSH1 0x20 PUSH2 0x4F7 DUP6 DUP3 DUP7 ADD PUSH2 0x4AC JUMP JUMPDEST SWAP2 POP POP SWAP3 POP SWAP3 SWAP1 POP JUMP JUMPDEST PUSH1 0x0 PUSH1 0x20 DUP3 DUP5 SUB SLT ISZERO PUSH2 0x517 JUMPI PUSH2 0x516 PUSH2 0x481 JUMP JUMPDEST JUMPDEST PUSH1 0x0 PUSH2 0x525 DUP5 DUP3 DUP6 ADD PUSH2 0x4AC JUMP JUMPDEST SWAP2 POP POP SWAP3 SWAP2 POP POP JUMP JUMPDEST PUSH2 0x537 DUP2 PUSH2 0x48B JUMP JUMPDEST DUP3 MSTORE POP POP JUMP JUMPDEST PUSH1 0x0 DUP2 MLOAD SWAP1 POP SWAP2 SWAP1 POP JUMP JUMPDEST PUSH1 0x0 DUP3 DUP3 MSTORE PUSH1 0x20 DUP3 ADD SWAP1 POP SWAP3 SWAP2 POP POP JUMP JUMPDEST PUSH1 0x0 JUMPDEST DUP4 DUP2 LT ISZERO PUSH2 0x577 JUMPI DUP1 DUP3 ADD MLOAD DUP2 DUP5 ADD MSTORE PUSH1 0x20 DUP2 ADD SWAP1 POP PUSH2 0x55C JUMP JUMPDEST PUSH1 0x0 DUP5 DUP5 ADD MSTORE POP POP POP POP JUMP JUMPDEST PUSH1 0x0 PUSH1 0x1F NOT PUSH1 0x1F DUP4 ADD AND SWAP1 POP SWAP2 SWAP1 POP JUMP JUMPDEST PUSH1 0x0 PUSH2 0x59F DUP3 PUSH2 0x53D JUMP JUMPDEST PUSH2 0x5A9 DUP2 DUP6 PUSH2 0x548 JUMP JUMPDEST SWAP4 POP PUSH2 0x5B9 DUP2 DUP6 PUSH1 0x20 DUP7 ADD PUSH2 0x559 JUMP JUMPDEST PUSH2 0x5C2 DUP2 PUSH2 0x583 JUMP JUMPDEST DUP5 ADD SWAP2 POP POP SWAP3 SWAP2 POP POP JUMP JUMPDEST PUSH1 0x0 PUSH1 0x40 DUP3 ADD SWAP1 POP PUSH2 0x5E2 PUSH1 0x0 DUP4 ADD DUP6 PUSH2 0x52E JUMP JUMPDEST DUP2 DUP2 SUB PUSH1 0x20 DUP4 ADD MSTORE PUSH2 0x5F4 DUP2 DUP5 PUSH2 0x594 JUMP JUMPDEST SWAP1 POP SWAP4 SWAP3 POP POP POP JUMP JUMPDEST PUSH1 0x0 PUSH20 0xFFFFFFFFFFFFFFFFFFFFFFFFFFFFFFFFFFFFFFFF DUP3 AND SWAP1 POP SWAP2 SWAP1 POP JUMP JUMPDEST PUSH1 0x0 PUSH2 0x628 DUP3 PUSH2 0x5FD JUMP JUMPDEST SWAP1 POP SWAP2 SWAP1 POP JUMP JUMPDEST PUSH2 0x638 DUP2 PUSH2 0x61D JUMP JUMPDEST DUP3 MSTORE POP POP JUMP JUMPDEST PUSH1 0x0 PUSH1 0x20 DUP3 ADD SWAP1 POP PUSH2 0x653 PUSH1 0x0 DUP4 ADD DUP5 PUSH2 0x62F JUMP JUMPDEST SWAP3 SWAP2 POP POP JUMP JUMPDEST PUSH1 0x0 DUP1 REVERT JUMPDEST PUSH1 0x0 DUP1 REVERT JUMPDEST PUSH32 0x4E487B7100000000000000000000000000000000000000000000000000000000 PUSH1 0x0 MSTORE PUSH1 0x41 PUSH1 0x4 MSTORE PUSH1 0x24 PUSH1 0x0 REVERT JUMPDEST PUSH2 0x69B DUP3 PUSH2 0x583 JUMP JUMPDEST DUP2 ADD DUP2 DUP2 LT PUSH8 0xFFFFFFFFFFFFFFFF DUP3 GT OR ISZERO PUSH2 0x6BA JUMPI PUSH2 0x6B9 PUSH2 0x663 JUMP JUMPDEST JUMPDEST DUP1 PUSH1 0x40 MSTORE POP POP POP JUMP JUMPDEST PUSH1 0x0 PUSH2 0x6CD PUSH2 0x477 JUMP JUMPDEST SWAP1 POP PUSH2 0x6D9 DUP3 DUP3 PUSH2 0x692 JUMP JUMPDEST SWAP2 SWAP1 POP JUMP JUMPDEST PUSH1 0x0 PUSH8 0xFFFFFFFFFFFFFFFF DUP3 GT ISZERO PUSH2 0x6F9 JUMPI PUSH2 0x6F8 PUSH2 0x663 JUMP JUMPDEST JUMPDEST PUSH2 0x702 DUP3 PUSH2 0x583 JUMP JUMPDEST SWAP1 POP PUSH1 0x20 DUP2 ADD SWAP1 POP SWAP2 SWAP1 POP JUMP JUMPDEST DUP3 DUP2 DUP4 CALLDATACOPY PUSH1 0x0 DUP4 DUP4 ADD MSTORE POP POP POP JUMP JUMPDEST PUSH1 0x0 PUSH2 0x731 PUSH2 0x72C DUP5 PUSH2 0x6DE JUMP JUMPDEST PUSH2 0x6C3 JUMP JUMPDEST SWAP1 POP DUP3 DUP2 MSTORE PUSH1 0x20 DUP2 ADD DUP5 DUP5 DUP5 ADD GT ISZERO PUSH2 0x74D JUMPI PUSH2 0x74C PUSH2 0x65E JUMP JUMPDEST JUMPDEST PUSH2 0x758 DUP5 DUP3 DUP6 PUSH2 0x70F JUMP JUMPDEST POP SWAP4 SWAP3 POP POP POP JUMP JUMPDEST PUSH1 0x0 DUP3 PUSH1 0x1F DUP4 ADD SLT PUSH2 0x775 JUMPI PUSH2 0x774 PUSH2 0x659 JUMP JUMPDEST JUMPDEST DUP2 CALLDATALOAD PUSH2 0x785 DUP5 DUP3 PUSH1 0x20 DUP7 ADD PUSH2 0x71E JUMP JUMPDEST SWAP2 POP POP SWAP3 SWAP2 POP POP JUMP JUMPDEST PUSH1 0x0 DUP1 PUSH1 0x40 DUP4 DUP6 SUB SLT ISZERO PUSH2 0x7A5 JUMPI PUSH2 0x7A4 PUSH2 0x481 JUMP JUMPDEST JUMPDEST PUSH1 0x0 PUSH2 0x7B3 DUP6 DUP3 DUP7 ADD PUSH2 0x4AC JUMP JUMPDEST SWAP3 POP POP PUSH1 0x20 DUP4 ADD CALLDATALOAD PUSH8 0xFFFFFFFFFFFFFFFF DUP2 GT ISZERO PUSH2 0x7D4 JUMPI PUSH2 0x7D3 PUSH2 0x486 JUMP JUMPDEST JUMPDEST PUSH2 0x7E0 DUP6 DUP3 DUP7 ADD PUSH2 0x760 JUMP JUMPDEST SWAP2 POP POP SWAP3 POP SWAP3 SWAP1 POP JUMP JUMPDEST PUSH32 0x4E487B7100000000000000000000000000000000000000000000000000000000 PUSH1 0x0 MSTORE PUSH1 0x22 PUSH1 0x4 MSTORE PUSH1 0x24 PUSH1 0x0 REVERT JUMPDEST PUSH1 0x0 PUSH1 0x2 DUP3 DIV SWAP1 POP PUSH1 0x1 DUP3 AND DUP1 PUSH2 0x831 JUMPI PUSH1 0x7F DUP3 AND SWAP2 POP JUMPDEST PUSH1 0x20 DUP3 LT DUP2 SUB PUSH2 0x844 JUMPI PUSH2 0x843 PUSH2 0x7EA JUMP JUMPDEST JUMPDEST POP SWAP2 SWAP1 POP JUMP JUMPDEST PUSH32 0x69642073686F756C64206E6F7420626520657175616C20746F207A65726F0000 PUSH1 0x0 DUP3 ADD MSTORE POP JUMP JUMPDEST PUSH1 0x0 PUSH2 0x880 PUSH1 0x1E DUP4 PUSH2 0x548 JUMP JUMPDEST SWAP2 POP PUSH2 0x88B DUP3 PUSH2 0x84A JUMP JUMPDEST PUSH1 0x20 DUP3 ADD SWAP1 POP SWAP2 SWAP1 POP JUMP JUMPDEST PUSH1 0x0 PUSH1 0x20 DUP3 ADD SWAP1 POP DUP2 DUP2 SUB PUSH1 0x0 DUP4 ADD MSTORE PUSH2 0x8AF DUP2 PUSH2 0x873 JUMP JUMPDEST SWAP1 POP SWAP2 SWAP1 POP JUMP JUMPDEST PUSH32 0x7468697320696420697320616C72656164792072656769737465726564000000 PUSH1 0x0 DUP3 ADD MSTORE POP JUMP JUMPDEST PUSH1 0x0 PUSH2 0x8EC PUSH1 0x1D DUP4 PUSH2 0x548 JUMP JUMPDEST SWAP2 POP PUSH2 0x8F7 DUP3 PUSH2 0x8B6 JUMP JUMPDEST PUSH1 0x20 DUP3 ADD SWAP1 POP SWAP2 SWAP1 POP JUMP JUMPDEST PUSH1 0x0 PUSH1 0x20 DUP3 ADD SWAP1 POP DUP2 DUP2 SUB PUSH1 0x0 DUP4 ADD MSTORE PUSH2 0x91B DUP2 PUSH2 0x8DF JUMP JUMPDEST SWAP1 POP SWAP2 SWAP1 POP JUMP JUMPDEST PUSH1 0x0 DUP2 SWAP1 POP DUP2 PUSH1 0x0 MSTORE PUSH1 0x20 PUSH1 0x0 KECCAK256 SWAP1 POP SWAP2 SWAP1 POP JUMP JUMPDEST PUSH1 0x0 PUSH1 0x20 PUSH1 0x1F DUP4 ADD DIV SWAP1 POP SWAP2 SWAP1 POP JUMP JUMPDEST PUSH1 0x0 DUP3 DUP3 SHL SWAP1 POP SWAP3 SWAP2 POP POP JUMP JUMPDEST PUSH1 0x0 PUSH1 0x8 DUP4 MUL PUSH2 0x984 PUSH32 0xFFFFFFFFFFFFFFFFFFFFFFFFFFFFFFFFFFFFFFFFFFFFFFFFFFFFFFFFFFFFFFFF DUP3 PUSH2 0x947 JUMP JUMPDEST PUSH2 0x98E DUP7 DUP4 PUSH2 0x947 JUMP JUMPDEST SWAP6 POP DUP1 NOT DUP5 AND SWAP4 POP DUP1 DUP7 AND DUP5 OR SWAP3 POP POP POP SWAP4 SWAP3 POP POP POP JUMP JUMPDEST PUSH1 0x0 DUP2 SWAP1 POP SWAP2 SWAP1 POP JUMP JUMPDEST PUSH1 0x0 PUSH2 0x9CB PUSH2 0x9C6 PUSH2 0x9C1 DUP5 PUSH2 0x48B JUMP JUMPDEST PUSH2 0x9A6 JUMP JUMPDEST PUSH2 0x48B JUMP JUMPDEST SWAP1 POP SWAP2 SWAP1 POP JUMP JUMPDEST PUSH1 0x0 DUP2 SWAP1 POP SWAP2 SWAP1 POP JUMP JUMPDEST PUSH2 0x9E5 DUP4 PUSH2 0x9B0 JUMP JUMPDEST PUSH2 0x9F9 PUSH2 0x9F1 DUP3 PUSH2 0x9D2 JUMP JUMPDEST DUP5 DUP5 SLOAD PUSH2 0x954 JUMP JUMPDEST DUP3 SSTORE POP POP POP POP JUMP JUMPDEST PUSH1 0x0 SWAP1 JUMP JUMPDEST PUSH2 0xA0E PUSH2 0xA01 JUMP JUMPDEST PUSH2 0xA19 DUP2 DUP5 DUP5 PUSH2 0x9DC JUMP JUMPDEST POP POP POP JUMP JUMPDEST JUMPDEST DUP2 DUP2 LT ISZERO PUSH2 0xA3D JUMPI PUSH2 0xA32 PUSH1 0x0 DUP3 PUSH2 0xA06 JUMP JUMPDEST PUSH1 0x1 DUP2 ADD SWAP1 POP PUSH2 0xA1F JUMP JUMPDEST POP POP JUMP JUMPDEST PUSH1 0x1F DUP3 GT ISZERO PUSH2 0xA82 JUMPI PUSH2 0xA53 DUP2 PUSH2 0x922 JUMP JUMPDEST PUSH2 0xA5C DUP5 PUSH2 0x937 JUMP JUMPDEST DUP2 ADD PUSH1 0x20 DUP6 LT ISZERO PUSH2 0xA6B JUMPI DUP2 SWAP1 POP JUMPDEST PUSH2 0xA7F PUSH2 0xA77 DUP6 PUSH2 0x937 JUMP JUMPDEST DUP4 ADD DUP3 PUSH2 0xA1E JUMP JUMPDEST POP POP JUMPDEST POP POP POP JUMP JUMPDEST PUSH1 0x0 DUP3 DUP3 SHR SWAP1 POP SWAP3 SWAP2 POP POP JUMP JUMPDEST PUSH1 0x0 PUSH2 0xAA5 PUSH1 0x0 NOT DUP5 PUSH1 0x8 MUL PUSH2 0xA87 JUMP JUMPDEST NOT DUP1 DUP4 AND SWAP2 POP POP SWAP3 SWAP2 POP POP JUMP JUMPDEST PUSH1 0x0 PUSH2 0xABE DUP4 DUP4 PUSH2 0xA94 JUMP JUMPDEST SWAP2 POP DUP3 PUSH1 0x2 MUL DUP3 OR SWAP1 POP SWAP3 SWAP2 POP POP JUMP JUMPDEST PUSH2 0xAD7 DUP3 PUSH2 0x53D JUMP JUMPDEST PUSH8 0xFFFFFFFFFFFFFFFF DUP2 GT ISZERO PUSH2 0xAF0 JUMPI PUSH2 0xAEF PUSH2 0x663 JUMP JUMPDEST JUMPDEST PUSH2 0xAFA DUP3 SLOAD PUSH2 0x819 JUMP JUMPDEST PUSH2 0xB05 DUP3 DUP3 DUP6 PUSH2 0xA41 JUMP JUMPDEST PUSH1 0x0 PUSH1 0x20 SWAP1 POP PUSH1 0x1F DUP4 GT PUSH1 0x1 DUP2 EQ PUSH2 0xB38 JUMPI PUSH1 0x0 DUP5 ISZERO PUSH2 0xB26 JUMPI DUP3 DUP8 ADD MLOAD SWAP1 POP JUMPDEST PUSH2 0xB30 DUP6 DUP3 PUSH2 0xAB2 JUMP JUMPDEST DUP7 SSTORE POP PUSH2 0xB98 JUMP JUMPDEST PUSH1 0x1F NOT DUP5 AND PUSH2 0xB46 DUP7 PUSH2 0x922 JUMP JUMPDEST PUSH1 0x0 JUMPDEST DUP3 DUP2 LT ISZERO PUSH2 0xB6E JUMPI DUP5 DUP10 ADD MLOAD DUP3 SSTORE PUSH1 0x1 DUP3 ADD SWAP2 POP PUSH1 0x20 DUP6 ADD SWAP5 POP PUSH1 0x20 DUP2 ADD SWAP1 POP PUSH2 0xB49 JUMP JUMPDEST DUP7 DUP4 LT ISZERO PUSH2 0xB8B JUMPI DUP5 DUP10 ADD MLOAD PUSH2 0xB87 PUSH1 0x1F DUP10 AND DUP3 PUSH2 0xA94 JUMP JUMPDEST DUP4 SSTORE POP JUMPDEST PUSH1 0x1 PUSH1 0x2 DUP9 MUL ADD DUP9 SSTORE POP POP POP JUMPDEST POP POP POP POP POP POP JUMP INVALID LOG2 PUSH5 0x6970667358 0x22 SLT KECCAK256 0xC5 PUSH8 0xA5AB660F39B37AB3 0x1E 0x4B DUP8 0xE0 PUSH5 0x1A8E0C3CE7 BALANCE 0xD3 SWAP2 GAS TIMESTAMP 0xDC PUSH20 0xB36E373A164736F6C6343000812003300000000 "
				},
				"gasEstimates": {
					"creation": {
						"codeDepositCost": "606000",
						"executionCost": "638",
						"totalCost": "606638"
					},
					"external": {
						"addEmployee(uint256,string)": "infinite",
						"addLaptop(uint256,string)": "infinite",
						"assignLaptop(uint256,uint256)": "infinite",
						"employeInfo(uint256)": "infinite",
						"owner()": "2533"
					}
				},
				"methodIdentifiers": {
					"addEmployee(uint256,string)": "d5063e04",
					"addLaptop(uint256,string)": "fcf9c6a9",
					"assignLaptop(uint256,uint256)": "37cb797b",
					"employeInfo(uint256)": "635a235b",
					"owner()": "8da5cb5b"
				}
			},
			"storageLayout": {
				"storage": [
					{
						"astId": 3,
						"contract": "contracts/accounting.sol:testing",
						"label": "owner",
						"offset": 0,
						"slot": "0",
						"type": "t_address"
					},
					{
						"astId": 18,
						"contract": "contracts/accounting.sol:testing",
						"label": "employes",
						"offset": 0,
						"slot": "1",
						"type": "t_mapping(t_uint256,t_struct(employee)8_storage)"
					},
					{
						"astId": 23,
						"contract": "contracts/accounting.sol:testing",
						"label": "laptops",
						"offset": 0,
						"slot": "2",
						"type": "t_mapping(t_uint256,t_struct(laptop)13_storage)"
					},
					{
						"astId": 27,
						"contract": "contracts/accounting.sol:testing",
						"label": "laptopAssign",
						"offset": 0,
						"slot": "3",
						"type": "t_mapping(t_uint256,t_uint256)"
					},
					{
						"astId": 31,
						"contract": "contracts/accounting.sol:testing",
						"label": "employeInfo",
						"offset": 0,
						"slot": "4",
						"type": "t_array(t_struct(employee)8_storage)dyn_storage"
					}
				],
				"types": {
					"t_address": {
						"encoding": "inplace",
						"label": "address",
						"numberOfBytes": "20"
					},
					"t_array(t_struct(employee)8_storage)dyn_storage": {
						"base": "t_struct(employee)8_storage",
						"encoding": "dynamic_array",
						"label": "struct testing.employee[]",
						"numberOfBytes": "32"
					},
					"t_mapping(t_uint256,t_struct(employee)8_storage)": {
						"encoding": "mapping",
						"key": "t_uint256",
						"label": "mapping(uint256 => struct testing.employee)",
						"numberOfBytes": "32",
						"value": "t_struct(employee)8_storage"
					},
					"t_mapping(t_uint256,t_struct(laptop)13_storage)": {
						"encoding": "mapping",
						"key": "t_uint256",
						"label": "mapping(uint256 => struct testing.laptop)",
						"numberOfBytes": "32",
						"value": "t_struct(laptop)13_storage"
					},
					"t_mapping(t_uint256,t_uint256)": {
						"encoding": "mapping",
						"key": "t_uint256",
						"label": "mapping(uint256 => uint256)",
						"numberOfBytes": "32",
						"value": "t_uint256"
					},
					"t_string_storage": {
						"encoding": "bytes",
						"label": "string",
						"numberOfBytes": "32"
					},
					"t_struct(employee)8_storage": {
						"encoding": "inplace",
						"label": "struct testing.employee",
						"members": [
							{
								"astId": 5,
								"contract": "contracts/accounting.sol:testing",
								"label": "id",
								"offset": 0,
								"slot": "0",
								"type": "t_uint256"
							},
							{
								"astId": 7,
								"contract": "contracts/accounting.sol:testing",
								"label": "name",
								"offset": 0,
								"slot": "1",
								"type": "t_string_storage"
							}
						],
						"numberOfBytes": "64"
					},
					"t_struct(laptop)13_storage": {
						"encoding": "inplace",
						"label": "struct testing.laptop",
						"members": [
							{
								"astId": 10,
								"contract": "contracts/accounting.sol:testing",
								"label": "id",
								"offset": 0,
								"slot": "0",
								"type": "t_uint256"
							},
							{
								"astId": 12,
								"contract": "contracts/accounting.sol:testing",
								"label": "name",
								"offset": 0,
								"slot": "1",
								"type": "t_string_storage"
							}
						],
						"numberOfBytes": "64"
					},
					"t_uint256": {
						"encoding": "inplace",
						"label": "uint256",
						"numberOfBytes": "32"
					}
				}
			},
			"userdoc": {
				"kind": "user",
				"methods": {},
				"version": 1
			}
		}
	}
}