{
	"contracts/crowd funding.sol": {
		"crowdFunding": {
			"abi": [
				{
					"inputs": [
						{
							"internalType": "uint256",
							"name": "_target",
							"type": "uint256"
						},
						{
							"internalType": "uint256",
							"name": "_deadline",
							"type": "uint256"
						}
					],
					"stateMutability": "nonpayable",
					"type": "constructor"
				},
				{
					"inputs": [],
					"name": "contribution",
					"outputs": [],
					"stateMutability": "payable",
					"type": "function"
				},
				{
					"inputs": [
						{
							"internalType": "address",
							"name": "",
							"type": "address"
						}
					],
					"name": "contributors",
					"outputs": [
						{
							"internalType": "uint256",
							"name": "",
							"type": "uint256"
						}
					],
					"stateMutability": "view",
					"type": "function"
				},
				{
					"inputs": [
						{
							"internalType": "string",
							"name": "_description",
							"type": "string"
						},
						{
							"internalType": "address payable",
							"name": "_recepient",
							"type": "address"
						},
						{
							"internalType": "uint256",
							"name": "_value",
							"type": "uint256"
						}
					],
					"name": "creatRequest",
					"outputs": [],
					"stateMutability": "nonpayable",
					"type": "function"
				},
				{
					"inputs": [],
					"name": "getBalance",
					"outputs": [
						{
							"internalType": "uint256",
							"name": "",
							"type": "uint256"
						}
					],
					"stateMutability": "view",
					"type": "function"
				},
				{
					"inputs": [],
					"name": "noOfRequests",
					"outputs": [
						{
							"internalType": "uint256",
							"name": "",
							"type": "uint256"
						}
					],
					"stateMutability": "view",
					"type": "function"
				},
				{
					"inputs": [
						{
							"internalType": "uint256",
							"name": "_reqNo",
							"type": "uint256"
						}
					],
					"name": "payment",
					"outputs": [],
					"stateMutability": "payable",
					"type": "function"
				},
				{
					"inputs": [],
					"name": "refund",
					"outputs": [],
					"stateMutability": "payable",
					"type": "function"
				},
				{
					"inputs": [
						{
							"internalType": "uint256",
							"name": "_reqNo",
							"type": "uint256"
						}
					],
					"name": "voting",
					"outputs": [],
					"stateMutability": "nonpayable",
					"type": "function"
				}
			],
			"devdoc": {
				"kind": "dev",
				"methods": {},
				"version": 1
			},
			"evm": {
				"assembly": "    /* \"contracts/crowd funding.sol\":64:2485  contract crowdFunding{... */\n  mstore(0x40, 0x80)\n    /* \"contracts/crowd funding.sol\":273:416  constructor(uint _target,uint _deadline){... */\n  callvalue\n  dup1\n  iszero\n  tag_1\n  jumpi\n  0x00\n  dup1\n  revert\ntag_1:\n  pop\n  mload(0x40)\n  sub(codesize, bytecodeSize)\n  dup1\n  bytecodeSize\n  dup4\n  codecopy\n  dup2\n  dup2\n  add\n  0x40\n  mstore\n  dup2\n  add\n  swap1\n  tag_2\n  swap2\n  swap1\n  tag_3\n  jump\t// in\ntag_2:\n    /* \"contracts/crowd funding.sol\":331:341  msg.sender */\n  caller\n    /* \"contracts/crowd funding.sol\":323:330  manager */\n  0x01\n  0x00\n    /* \"contracts/crowd funding.sol\":323:341  manager=msg.sender */\n  0x0100\n  exp\n  dup2\n  sload\n  dup2\n  0xffffffffffffffffffffffffffffffffffffffff\n  mul\n  not\n  and\n  swap1\n  dup4\n  0xffffffffffffffffffffffffffffffffffffffff\n  and\n  mul\n  or\n  swap1\n  sstore\n  pop\n    /* \"contracts/crowd funding.sol\":358:365  _target */\n  dup2\n    /* \"contracts/crowd funding.sol\":351:357  target */\n  0x05\n    /* \"contracts/crowd funding.sol\":351:365  target=_target */\n  dup2\n  swap1\n  sstore\n  pop\n    /* \"contracts/crowd funding.sol\":400:409  _deadline */\n  dup1\n    /* \"contracts/crowd funding.sol\":384:399  block.timestamp */\n  timestamp\n    /* \"contracts/crowd funding.sol\":384:409  block.timestamp+_deadline */\n  tag_6\n  swap2\n  swap1\n  tag_7\n  jump\t// in\ntag_6:\n    /* \"contracts/crowd funding.sol\":375:383  deadline */\n  0x06\n    /* \"contracts/crowd funding.sol\":375:409  deadline=block.timestamp+_deadline */\n  dup2\n  swap1\n  sstore\n  pop\n    /* \"contracts/crowd funding.sol\":273:416  constructor(uint _target,uint _deadline){... */\n  pop\n  pop\n    /* \"contracts/crowd funding.sol\":64:2485  contract crowdFunding{... */\n  jump(tag_8)\n    /* \"#utility.yul\":88:205   */\ntag_10:\n    /* \"#utility.yul\":197:198   */\n  0x00\n    /* \"#utility.yul\":194:195   */\n  dup1\n    /* \"#utility.yul\":187:199   */\n  revert\n    /* \"#utility.yul\":334:411   */\ntag_12:\n    /* \"#utility.yul\":371:378   */\n  0x00\n    /* \"#utility.yul\":400:405   */\n  dup2\n    /* \"#utility.yul\":389:405   */\n  swap1\n  pop\n    /* \"#utility.yul\":334:411   */\n  swap2\n  swap1\n  pop\n  jump\t// out\n    /* \"#utility.yul\":417:539   */\ntag_13:\n    /* \"#utility.yul\":490:514   */\n  tag_22\n    /* \"#utility.yul\":508:513   */\n  dup2\n    /* \"#utility.yul\":490:514   */\n  tag_12\n  jump\t// in\ntag_22:\n    /* \"#utility.yul\":483:488   */\n  dup2\n    /* \"#utility.yul\":480:515   */\n  eq\n    /* \"#utility.yul\":470:533   */\n  tag_23\n  jumpi\n    /* \"#utility.yul\":529:530   */\n  0x00\n    /* \"#utility.yul\":526:527   */\n  dup1\n    /* \"#utility.yul\":519:531   */\n  revert\n    /* \"#utility.yul\":470:533   */\ntag_23:\n    /* \"#utility.yul\":417:539   */\n  pop\n  jump\t// out\n    /* \"#utility.yul\":545:688   */\ntag_14:\n    /* \"#utility.yul\":602:607   */\n  0x00\n    /* \"#utility.yul\":633:639   */\n  dup2\n    /* \"#utility.yul\":627:640   */\n  mload\n    /* \"#utility.yul\":618:640   */\n  swap1\n  pop\n    /* \"#utility.yul\":649:682   */\n  tag_25\n    /* \"#utility.yul\":676:681   */\n  dup2\n    /* \"#utility.yul\":649:682   */\n  tag_13\n  jump\t// in\ntag_25:\n    /* \"#utility.yul\":545:688   */\n  swap3\n  swap2\n  pop\n  pop\n  jump\t// out\n    /* \"#utility.yul\":694:1201   */\ntag_3:\n    /* \"#utility.yul\":773:779   */\n  0x00\n    /* \"#utility.yul\":781:787   */\n  dup1\n    /* \"#utility.yul\":830:832   */\n  0x40\n    /* \"#utility.yul\":818:827   */\n  dup4\n    /* \"#utility.yul\":809:816   */\n  dup6\n    /* \"#utility.yul\":805:828   */\n  sub\n    /* \"#utility.yul\":801:833   */\n  slt\n    /* \"#utility.yul\":798:917   */\n  iszero\n  tag_27\n  jumpi\n    /* \"#utility.yul\":836:915   */\n  tag_28\n  tag_10\n  jump\t// in\ntag_28:\n    /* \"#utility.yul\":798:917   */\ntag_27:\n    /* \"#utility.yul\":956:957   */\n  0x00\n    /* \"#utility.yul\":981:1045   */\n  tag_29\n    /* \"#utility.yul\":1037:1044   */\n  dup6\n    /* \"#utility.yul\":1028:1034   */\n  dup3\n    /* \"#utility.yul\":1017:1026   */\n  dup7\n    /* \"#utility.yul\":1013:1035   */\n  add\n    /* \"#utility.yul\":981:1045   */\n  tag_14\n  jump\t// in\ntag_29:\n    /* \"#utility.yul\":971:1045   */\n  swap3\n  pop\n    /* \"#utility.yul\":927:1055   */\n  pop\n    /* \"#utility.yul\":1094:1096   */\n  0x20\n    /* \"#utility.yul\":1120:1184   */\n  tag_30\n    /* \"#utility.yul\":1176:1183   */\n  dup6\n    /* \"#utility.yul\":1167:1173   */\n  dup3\n    /* \"#utility.yul\":1156:1165   */\n  dup7\n    /* \"#utility.yul\":1152:1174   */\n  add\n    /* \"#utility.yul\":1120:1184   */\n  tag_14\n  jump\t// in\ntag_30:\n    /* \"#utility.yul\":1110:1184   */\n  swap2\n  pop\n    /* \"#utility.yul\":1065:1194   */\n  pop\n    /* \"#utility.yul\":694:1201   */\n  swap3\n  pop\n  swap3\n  swap1\n  pop\n  jump\t// out\n    /* \"#utility.yul\":1207:1387   */\ntag_15:\n    /* \"#utility.yul\":1255:1332   */\n  0x4e487b7100000000000000000000000000000000000000000000000000000000\n    /* \"#utility.yul\":1252:1253   */\n  0x00\n    /* \"#utility.yul\":1245:1333   */\n  mstore\n    /* \"#utility.yul\":1352:1356   */\n  0x11\n    /* \"#utility.yul\":1349:1350   */\n  0x04\n    /* \"#utility.yul\":1342:1357   */\n  mstore\n    /* \"#utility.yul\":1376:1380   */\n  0x24\n    /* \"#utility.yul\":1373:1374   */\n  0x00\n    /* \"#utility.yul\":1366:1381   */\n  revert\n    /* \"#utility.yul\":1393:1584   */\ntag_7:\n    /* \"#utility.yul\":1433:1436   */\n  0x00\n    /* \"#utility.yul\":1452:1472   */\n  tag_33\n    /* \"#utility.yul\":1470:1471   */\n  dup3\n    /* \"#utility.yul\":1452:1472   */\n  tag_12\n  jump\t// in\ntag_33:\n    /* \"#utility.yul\":1447:1472   */\n  swap2\n  pop\n    /* \"#utility.yul\":1486:1506   */\n  tag_34\n    /* \"#utility.yul\":1504:1505   */\n  dup4\n    /* \"#utility.yul\":1486:1506   */\n  tag_12\n  jump\t// in\ntag_34:\n    /* \"#utility.yul\":1481:1506   */\n  swap3\n  pop\n    /* \"#utility.yul\":1529:1530   */\n  dup3\n    /* \"#utility.yul\":1526:1527   */\n  dup3\n    /* \"#utility.yul\":1522:1531   */\n  add\n    /* \"#utility.yul\":1515:1531   */\n  swap1\n  pop\n    /* \"#utility.yul\":1550:1553   */\n  dup1\n    /* \"#utility.yul\":1547:1548   */\n  dup3\n    /* \"#utility.yul\":1544:1554   */\n  gt\n    /* \"#utility.yul\":1541:1577   */\n  iszero\n  tag_35\n  jumpi\n    /* \"#utility.yul\":1557:1575   */\n  tag_36\n  tag_15\n  jump\t// in\ntag_36:\n    /* \"#utility.yul\":1541:1577   */\ntag_35:\n    /* \"#utility.yul\":1393:1584   */\n  swap3\n  swap2\n  pop\n  pop\n  jump\t// out\n    /* \"contracts/crowd funding.sol\":64:2485  contract crowdFunding{... */\ntag_8:\n  dataSize(sub_0)\n  dup1\n  dataOffset(sub_0)\n  0x00\n  codecopy\n  0x00\n  return\nstop\n\nsub_0: assembly {\n        /* \"contracts/crowd funding.sol\":64:2485  contract crowdFunding{... */\n      mstore(0x40, 0x80)\n      jumpi(tag_1, lt(calldatasize, 0x04))\n      shr(0xe0, calldataload(0x00))\n      dup1\n      0x7f24abbe\n      gt\n      tag_10\n      jumpi\n      dup1\n      0x7f24abbe\n      eq\n      tag_6\n      jumpi\n      dup1\n      0x8b3c99e3\n      eq\n      tag_7\n      jumpi\n      dup1\n      0xc1f11b4c\n      eq\n      tag_8\n      jumpi\n      dup1\n      0xfd4a77f1\n      eq\n      tag_9\n      jumpi\n      jump(tag_1)\n    tag_10:\n      dup1\n      0x12065fe0\n      eq\n      tag_2\n      jumpi\n      dup1\n      0x1f6d4942\n      eq\n      tag_3\n      jumpi\n      dup1\n      0x50520b1f\n      eq\n      tag_4\n      jumpi\n      dup1\n      0x590e1ae3\n      eq\n      tag_5\n      jumpi\n    tag_1:\n      0x00\n      dup1\n      revert\n        /* \"contracts/crowd funding.sol\":981:1073  function getBalance() public view returns(uint){... */\n    tag_2:\n      callvalue\n      dup1\n      iszero\n      tag_11\n      jumpi\n      0x00\n      dup1\n      revert\n    tag_11:\n      pop\n      tag_12\n      tag_13\n      jump\t// in\n    tag_12:\n      mload(0x40)\n      tag_14\n      swap2\n      swap1\n      tag_15\n      jump\t// in\n    tag_14:\n      mload(0x40)\n      dup1\n      swap2\n      sub\n      swap1\n      return\n        /* \"contracts/crowd funding.sol\":91:133  mapping(address=>uint) public contributors */\n    tag_3:\n      callvalue\n      dup1\n      iszero\n      tag_16\n      jumpi\n      0x00\n      dup1\n      revert\n    tag_16:\n      pop\n      tag_17\n      0x04\n      dup1\n      calldatasize\n      sub\n      dup2\n      add\n      swap1\n      tag_18\n      swap2\n      swap1\n      tag_19\n      jump\t// in\n    tag_18:\n      tag_20\n      jump\t// in\n    tag_17:\n      mload(0x40)\n      tag_21\n      swap2\n      swap1\n      tag_15\n      jump\t// in\n    tag_21:\n      mload(0x40)\n      dup1\n      swap2\n      sub\n      swap1\n      return\n        /* \"contracts/crowd funding.sol\":726:975  function contribution() public payable{... */\n    tag_4:\n      tag_22\n      tag_23\n      jump\t// in\n    tag_22:\n      stop\n        /* \"contracts/crowd funding.sol\":1079:1380  function refund() public payable{... */\n    tag_5:\n      tag_24\n      tag_25\n      jump\t// in\n    tag_24:\n      stop\n        /* \"contracts/crowd funding.sol\":1386:1798  function creatRequest(string memory _description,address payable _recepient,uint _value) public{... */\n    tag_6:\n      callvalue\n      dup1\n      iszero\n      tag_26\n      jumpi\n      0x00\n      dup1\n      revert\n    tag_26:\n      pop\n      tag_27\n      0x04\n      dup1\n      calldatasize\n      sub\n      dup2\n      add\n      swap1\n      tag_28\n      swap2\n      swap1\n      tag_29\n      jump\t// in\n    tag_28:\n      tag_30\n      jump\t// in\n    tag_27:\n      stop\n        /* \"contracts/crowd funding.sol\":2120:2482  function payment(uint _reqNo) public payable{... */\n    tag_7:\n      tag_31\n      0x04\n      dup1\n      calldatasize\n      sub\n      dup2\n      add\n      swap1\n      tag_32\n      swap2\n      swap1\n      tag_33\n      jump\t// in\n    tag_32:\n      tag_34\n      jump\t// in\n    tag_31:\n      stop\n        /* \"contracts/crowd funding.sol\":690:714  uint public noOfRequests */\n    tag_8:\n      callvalue\n      dup1\n      iszero\n      tag_35\n      jumpi\n      0x00\n      dup1\n      revert\n    tag_35:\n      pop\n      tag_36\n      tag_37\n      jump\t// in\n    tag_36:\n      mload(0x40)\n      tag_38\n      swap2\n      swap1\n      tag_15\n      jump\t// in\n    tag_38:\n      mload(0x40)\n      dup1\n      swap2\n      sub\n      swap1\n      return\n        /* \"contracts/crowd funding.sol\":1804:2114  function voting(uint _reqNo) public{... */\n    tag_9:\n      callvalue\n      dup1\n      iszero\n      tag_39\n      jumpi\n      0x00\n      dup1\n      revert\n    tag_39:\n      pop\n      tag_40\n      0x04\n      dup1\n      calldatasize\n      sub\n      dup2\n      add\n      swap1\n      tag_41\n      swap2\n      swap1\n      tag_33\n      jump\t// in\n    tag_41:\n      tag_42\n      jump\t// in\n    tag_40:\n      stop\n        /* \"contracts/crowd funding.sol\":981:1073  function getBalance() public view returns(uint){... */\n    tag_13:\n        /* \"contracts/crowd funding.sol\":1023:1027  uint */\n      0x00\n        /* \"contracts/crowd funding.sol\":1045:1066  address(this).balance */\n      selfbalance\n        /* \"contracts/crowd funding.sol\":1038:1066  return address(this).balance */\n      swap1\n      pop\n        /* \"contracts/crowd funding.sol\":981:1073  function getBalance() public view returns(uint){... */\n      swap1\n      jump\t// out\n        /* \"contracts/crowd funding.sol\":91:133  mapping(address=>uint) public contributors */\n    tag_20:\n      mstore(0x20, 0x00)\n      dup1\n      0x00\n      mstore\n      keccak256(0x00, 0x40)\n      0x00\n      swap2\n      pop\n      swap1\n      pop\n      sload\n      dup2\n      jump\t// out\n        /* \"contracts/crowd funding.sol\":726:975  function contribution() public payable{... */\n    tag_23:\n        /* \"contracts/crowd funding.sol\":798:806  deadline */\n      sload(0x06)\n        /* \"contracts/crowd funding.sol\":782:797  block.timestamp */\n      timestamp\n        /* \"contracts/crowd funding.sol\":782:806  block.timestamp<deadline */\n      lt\n        /* \"contracts/crowd funding.sol\":774:807  require(block.timestamp<deadline) */\n      tag_45\n      jumpi\n      0x00\n      dup1\n      revert\n    tag_45:\n        /* \"contracts/crowd funding.sol\":846:847  0 */\n      0x00\n        /* \"contracts/crowd funding.sol\":820:832  contributors */\n      dup1\n        /* \"contracts/crowd funding.sol\":820:844  contributors[msg.sender] */\n      0x00\n        /* \"contracts/crowd funding.sol\":833:843  msg.sender */\n      caller\n        /* \"contracts/crowd funding.sol\":820:844  contributors[msg.sender] */\n      0xffffffffffffffffffffffffffffffffffffffff\n      and\n      0xffffffffffffffffffffffffffffffffffffffff\n      and\n      dup2\n      mstore\n      0x20\n      add\n      swap1\n      dup2\n      mstore\n      0x20\n      add\n      0x00\n      keccak256\n      sload\n        /* \"contracts/crowd funding.sol\":820:847  contributors[msg.sender]==0 */\n      sub\n        /* \"contracts/crowd funding.sol\":817:891  if(contributors[msg.sender]==0){... */\n      tag_46\n      jumpi\n        /* \"contracts/crowd funding.sol\":862:878  noOfContributors */\n      0x04\n      0x00\n        /* \"contracts/crowd funding.sol\":862:880  noOfContributors++ */\n      dup2\n      sload\n      dup1\n      swap3\n      swap2\n      swap1\n      tag_47\n      swap1\n      tag_48\n      jump\t// in\n    tag_47:\n      swap2\n      swap1\n      pop\n      sstore\n      pop\n        /* \"contracts/crowd funding.sol\":817:891  if(contributors[msg.sender]==0){... */\n    tag_46:\n        /* \"contracts/crowd funding.sol\":926:935  msg.value */\n      callvalue\n        /* \"contracts/crowd funding.sol\":900:912  contributors */\n      0x00\n        /* \"contracts/crowd funding.sol\":900:924  contributors[msg.sender] */\n      dup1\n        /* \"contracts/crowd funding.sol\":913:923  msg.sender */\n      caller\n        /* \"contracts/crowd funding.sol\":900:924  contributors[msg.sender] */\n      0xffffffffffffffffffffffffffffffffffffffff\n      and\n      0xffffffffffffffffffffffffffffffffffffffff\n      and\n      dup2\n      mstore\n      0x20\n      add\n      swap1\n      dup2\n      mstore\n      0x20\n      add\n      0x00\n      keccak256\n      0x00\n        /* \"contracts/crowd funding.sol\":900:935  contributors[msg.sender]+=msg.value */\n      dup3\n      dup3\n      sload\n      tag_49\n      swap2\n      swap1\n      tag_50\n      jump\t// in\n    tag_49:\n      swap3\n      pop\n      pop\n      dup2\n      swap1\n      sstore\n      pop\n        /* \"contracts/crowd funding.sol\":959:968  msg.value */\n      callvalue\n        /* \"contracts/crowd funding.sol\":945:957  raisedAmount */\n      0x03\n      0x00\n        /* \"contracts/crowd funding.sol\":945:968  raisedAmount+=msg.value */\n      dup3\n      dup3\n      sload\n      tag_51\n      swap2\n      swap1\n      tag_50\n      jump\t// in\n    tag_51:\n      swap3\n      pop\n      pop\n      dup2\n      swap1\n      sstore\n      pop\n        /* \"contracts/crowd funding.sol\":726:975  function contribution() public payable{... */\n      jump\t// out\n        /* \"contracts/crowd funding.sol\":1079:1380  function refund() public payable{... */\n    tag_25:\n        /* \"contracts/crowd funding.sol\":1138:1153  block.timestamp */\n      timestamp\n        /* \"contracts/crowd funding.sol\":1129:1137  deadline */\n      sload(0x06)\n        /* \"contracts/crowd funding.sol\":1129:1153  deadline>block.timestamp */\n      gt\n        /* \"contracts/crowd funding.sol\":1121:1154  require(deadline>block.timestamp) */\n      tag_53\n      jumpi\n      0x00\n      dup1\n      revert\n    tag_53:\n        /* \"contracts/crowd funding.sol\":1185:1191  target */\n      sload(0x05)\n        /* \"contracts/crowd funding.sol\":1172:1184  raisedAmount */\n      sload(0x03)\n        /* \"contracts/crowd funding.sol\":1172:1191  raisedAmount<target */\n      lt\n        /* \"contracts/crowd funding.sol\":1164:1192  require(raisedAmount<target) */\n      tag_54\n      jumpi\n      0x00\n      dup1\n      revert\n    tag_54:\n        /* \"contracts/crowd funding.sol\":1235:1236  0 */\n      0x00\n        /* \"contracts/crowd funding.sol\":1210:1222  contributors */\n      dup1\n        /* \"contracts/crowd funding.sol\":1210:1234  contributors[msg.sender] */\n      0x00\n        /* \"contracts/crowd funding.sol\":1223:1233  msg.sender */\n      caller\n        /* \"contracts/crowd funding.sol\":1210:1234  contributors[msg.sender] */\n      0xffffffffffffffffffffffffffffffffffffffff\n      and\n      0xffffffffffffffffffffffffffffffffffffffff\n      and\n      dup2\n      mstore\n      0x20\n      add\n      swap1\n      dup2\n      mstore\n      0x20\n      add\n      0x00\n      keccak256\n      sload\n        /* \"contracts/crowd funding.sol\":1210:1236  contributors[msg.sender]>0 */\n      gt\n        /* \"contracts/crowd funding.sol\":1202:1237  require(contributors[msg.sender]>0) */\n      tag_55\n      jumpi\n      0x00\n      dup1\n      revert\n    tag_55:\n        /* \"contracts/crowd funding.sol\":1247:1267  address payable user */\n      0x00\n        /* \"contracts/crowd funding.sol\":1276:1286  msg.sender */\n      caller\n        /* \"contracts/crowd funding.sol\":1247:1287  address payable user=payable(msg.sender) */\n      swap1\n      pop\n        /* \"contracts/crowd funding.sol\":1297:1301  user */\n      dup1\n        /* \"contracts/crowd funding.sol\":1297:1310  user.transfer */\n      0xffffffffffffffffffffffffffffffffffffffff\n      and\n        /* \"contracts/crowd funding.sol\":1297:1336  user.transfer(contributors[msg.sender]) */\n      0x08fc\n        /* \"contracts/crowd funding.sol\":1311:1323  contributors */\n      0x00\n        /* \"contracts/crowd funding.sol\":1311:1335  contributors[msg.sender] */\n      dup1\n        /* \"contracts/crowd funding.sol\":1324:1334  msg.sender */\n      caller\n        /* \"contracts/crowd funding.sol\":1311:1335  contributors[msg.sender] */\n      0xffffffffffffffffffffffffffffffffffffffff\n      and\n      0xffffffffffffffffffffffffffffffffffffffff\n      and\n      dup2\n      mstore\n      0x20\n      add\n      swap1\n      dup2\n      mstore\n      0x20\n      add\n      0x00\n      keccak256\n      sload\n        /* \"contracts/crowd funding.sol\":1297:1336  user.transfer(contributors[msg.sender]) */\n      swap1\n      dup2\n      iszero\n      mul\n      swap1\n      mload(0x40)\n      0x00\n      mload(0x40)\n      dup1\n      dup4\n      sub\n      dup2\n      dup6\n      dup9\n      dup9\n      call\n      swap4\n      pop\n      pop\n      pop\n      pop\n      iszero\n      dup1\n      iszero\n      tag_57\n      jumpi\n      returndatasize\n      0x00\n      dup1\n      returndatacopy\n      revert(0x00, returndatasize)\n    tag_57:\n      pop\n        /* \"contracts/crowd funding.sol\":1371:1372  0 */\n      0x00\n        /* \"contracts/crowd funding.sol\":1346:1358  contributors */\n      dup1\n        /* \"contracts/crowd funding.sol\":1346:1370  contributors[msg.sender] */\n      0x00\n        /* \"contracts/crowd funding.sol\":1359:1369  msg.sender */\n      caller\n        /* \"contracts/crowd funding.sol\":1346:1370  contributors[msg.sender] */\n      0xffffffffffffffffffffffffffffffffffffffff\n      and\n      0xffffffffffffffffffffffffffffffffffffffff\n      and\n      dup2\n      mstore\n      0x20\n      add\n      swap1\n      dup2\n      mstore\n      0x20\n      add\n      0x00\n      keccak256\n        /* \"contracts/crowd funding.sol\":1346:1372  contributors[msg.sender]=0 */\n      dup2\n      swap1\n      sstore\n      pop\n        /* \"contracts/crowd funding.sol\":1111:1380  {... */\n      pop\n        /* \"contracts/crowd funding.sol\":1079:1380  function refund() public payable{... */\n      jump\t// out\n        /* \"contracts/crowd funding.sol\":1386:1798  function creatRequest(string memory _description,address payable _recepient,uint _value) public{... */\n    tag_30:\n        /* \"contracts/crowd funding.sol\":1508:1518  msg.sender */\n      caller\n        /* \"contracts/crowd funding.sol\":1499:1518  manager==msg.sender */\n      0xffffffffffffffffffffffffffffffffffffffff\n      and\n        /* \"contracts/crowd funding.sol\":1499:1506  manager */\n      0x01\n      0x00\n      swap1\n      sload\n      swap1\n      0x0100\n      exp\n      swap1\n      div\n      0xffffffffffffffffffffffffffffffffffffffff\n      and\n        /* \"contracts/crowd funding.sol\":1499:1518  manager==msg.sender */\n      0xffffffffffffffffffffffffffffffffffffffff\n      and\n      eq\n        /* \"contracts/crowd funding.sol\":1491:1519  require(manager==msg.sender) */\n      tag_59\n      jumpi\n      0x00\n      dup1\n      revert\n    tag_59:\n        /* \"contracts/crowd funding.sol\":1529:1555  Request storage newRequest */\n      0x00\n        /* \"contracts/crowd funding.sol\":1556:1564  requests */\n      0x07\n        /* \"contracts/crowd funding.sol\":1556:1578  requests[noOfRequests] */\n      0x00\n        /* \"contracts/crowd funding.sol\":1565:1577  noOfRequests */\n      sload(0x08)\n        /* \"contracts/crowd funding.sol\":1556:1578  requests[noOfRequests] */\n      dup2\n      mstore\n      0x20\n      add\n      swap1\n      dup2\n      mstore\n      0x20\n      add\n      0x00\n      keccak256\n        /* \"contracts/crowd funding.sol\":1529:1578  Request storage newRequest=requests[noOfRequests] */\n      swap1\n      pop\n        /* \"contracts/crowd funding.sol\":1611:1623  _description */\n      dup4\n        /* \"contracts/crowd funding.sol\":1588:1598  newRequest */\n      dup2\n        /* \"contracts/crowd funding.sol\":1588:1610  newRequest.description */\n      0x00\n      add\n        /* \"contracts/crowd funding.sol\":1588:1623  newRequest.description=_description */\n      swap1\n      dup2\n      tag_60\n      swap2\n      swap1\n      tag_61\n      jump\t// in\n    tag_60:\n      pop\n        /* \"contracts/crowd funding.sol\":1654:1664  _recepient */\n      dup3\n        /* \"contracts/crowd funding.sol\":1633:1643  newRequest */\n      dup2\n        /* \"contracts/crowd funding.sol\":1633:1653  newRequest.recepient */\n      0x01\n      add\n      0x00\n        /* \"contracts/crowd funding.sol\":1633:1664  newRequest.recepient=_recepient */\n      0x0100\n      exp\n      dup2\n      sload\n      dup2\n      0xffffffffffffffffffffffffffffffffffffffff\n      mul\n      not\n      and\n      swap1\n      dup4\n      0xffffffffffffffffffffffffffffffffffffffff\n      and\n      mul\n      or\n      swap1\n      sstore\n      pop\n        /* \"contracts/crowd funding.sol\":1691:1697  _value */\n      dup2\n        /* \"contracts/crowd funding.sol\":1674:1684  newRequest */\n      dup2\n        /* \"contracts/crowd funding.sol\":1674:1690  newRequest.value */\n      0x02\n      add\n        /* \"contracts/crowd funding.sol\":1674:1697  newRequest.value=_value */\n      dup2\n      swap1\n      sstore\n      pop\n        /* \"contracts/crowd funding.sol\":1728:1733  false */\n      0x00\n        /* \"contracts/crowd funding.sol\":1707:1717  newRequest */\n      dup2\n        /* \"contracts/crowd funding.sol\":1707:1727  newRequest.completed */\n      0x04\n      add\n      0x00\n        /* \"contracts/crowd funding.sol\":1707:1733  newRequest.completed=false */\n      0x0100\n      exp\n      dup2\n      sload\n      dup2\n      0xff\n      mul\n      not\n      and\n      swap1\n      dup4\n      iszero\n      iszero\n      mul\n      or\n      swap1\n      sstore\n      pop\n        /* \"contracts/crowd funding.sol\":1765:1766  0 */\n      0x00\n        /* \"contracts/crowd funding.sol\":1743:1753  newRequest */\n      dup2\n        /* \"contracts/crowd funding.sol\":1743:1764  newRequest.noOFVoters */\n      0x03\n      add\n        /* \"contracts/crowd funding.sol\":1743:1766  newRequest.noOFVoters=0 */\n      dup2\n      swap1\n      sstore\n      pop\n        /* \"contracts/crowd funding.sol\":1777:1789  noOfRequests */\n      0x08\n      0x00\n        /* \"contracts/crowd funding.sol\":1777:1791  noOfRequests++ */\n      dup2\n      sload\n      dup1\n      swap3\n      swap2\n      swap1\n      tag_62\n      swap1\n      tag_48\n      jump\t// in\n    tag_62:\n      swap2\n      swap1\n      pop\n      sstore\n      pop\n        /* \"contracts/crowd funding.sol\":1481:1798  {... */\n      pop\n        /* \"contracts/crowd funding.sol\":1386:1798  function creatRequest(string memory _description,address payable _recepient,uint _value) public{... */\n      pop\n      pop\n      pop\n      jump\t// out\n        /* \"contracts/crowd funding.sol\":2120:2482  function payment(uint _reqNo) public payable{... */\n    tag_34:\n        /* \"contracts/crowd funding.sol\":2191:2201  msg.sender */\n      caller\n        /* \"contracts/crowd funding.sol\":2182:2201  manager==msg.sender */\n      0xffffffffffffffffffffffffffffffffffffffff\n      and\n        /* \"contracts/crowd funding.sol\":2182:2189  manager */\n      0x01\n      0x00\n      swap1\n      sload\n      swap1\n      0x0100\n      exp\n      swap1\n      div\n      0xffffffffffffffffffffffffffffffffffffffff\n      and\n        /* \"contracts/crowd funding.sol\":2182:2201  manager==msg.sender */\n      0xffffffffffffffffffffffffffffffffffffffff\n      and\n      eq\n        /* \"contracts/crowd funding.sol\":2174:2202  require(manager==msg.sender) */\n      tag_64\n      jumpi\n      0x00\n      dup1\n      revert\n    tag_64:\n        /* \"contracts/crowd funding.sol\":2234:2240  target */\n      sload(0x05)\n        /* \"contracts/crowd funding.sol\":2220:2232  raisedAmount */\n      sload(0x03)\n        /* \"contracts/crowd funding.sol\":2220:2240  raisedAmount>=target */\n      lt\n      iszero\n        /* \"contracts/crowd funding.sol\":2212:2241  require(raisedAmount>=target) */\n      tag_65\n      jumpi\n      0x00\n      dup1\n      revert\n    tag_65:\n        /* \"contracts/crowd funding.sol\":2251:2274  Request storage thisReq */\n      0x00\n        /* \"contracts/crowd funding.sol\":2275:2283  requests */\n      0x07\n        /* \"contracts/crowd funding.sol\":2275:2291  requests[_reqNo] */\n      0x00\n        /* \"contracts/crowd funding.sol\":2284:2290  _reqNo */\n      dup4\n        /* \"contracts/crowd funding.sol\":2275:2291  requests[_reqNo] */\n      dup2\n      mstore\n      0x20\n      add\n      swap1\n      dup2\n      mstore\n      0x20\n      add\n      0x00\n      keccak256\n        /* \"contracts/crowd funding.sol\":2251:2291  Request storage thisReq=requests[_reqNo] */\n      swap1\n      pop\n        /* \"contracts/crowd funding.sol\":2346:2347  2 */\n      0x02\n        /* \"contracts/crowd funding.sol\":2329:2345  noOfContributors */\n      sload(0x04)\n        /* \"contracts/crowd funding.sol\":2329:2347  noOfContributors/2 */\n      tag_66\n      swap2\n      swap1\n      tag_67\n      jump\t// in\n    tag_66:\n        /* \"contracts/crowd funding.sol\":2309:2316  thisReq */\n      dup2\n        /* \"contracts/crowd funding.sol\":2309:2327  thisReq.noOFVoters */\n      0x03\n      add\n      sload\n        /* \"contracts/crowd funding.sol\":2309:2347  thisReq.noOFVoters>=noOfContributors/2 */\n      lt\n      iszero\n        /* \"contracts/crowd funding.sol\":2301:2348  require(thisReq.noOFVoters>=noOfContributors/2) */\n      tag_68\n      jumpi\n      0x00\n      dup1\n      revert\n    tag_68:\n        /* \"contracts/crowd funding.sol\":2385:2390  false */\n      0x00\n        /* \"contracts/crowd funding.sol\":2366:2390  thisReq.completed==false */\n      iszero\n      iszero\n        /* \"contracts/crowd funding.sol\":2366:2373  thisReq */\n      dup2\n        /* \"contracts/crowd funding.sol\":2366:2383  thisReq.completed */\n      0x04\n      add\n      0x00\n      swap1\n      sload\n      swap1\n      0x0100\n      exp\n      swap1\n      div\n      0xff\n      and\n        /* \"contracts/crowd funding.sol\":2366:2390  thisReq.completed==false */\n      iszero\n      iszero\n      eq\n        /* \"contracts/crowd funding.sol\":2358:2391  require(thisReq.completed==false) */\n      tag_69\n      jumpi\n      0x00\n      dup1\n      revert\n    tag_69:\n        /* \"contracts/crowd funding.sol\":2401:2408  thisReq */\n      dup1\n        /* \"contracts/crowd funding.sol\":2401:2418  thisReq.recepient */\n      0x01\n      add\n      0x00\n      swap1\n      sload\n      swap1\n      0x0100\n      exp\n      swap1\n      div\n      0xffffffffffffffffffffffffffffffffffffffff\n      and\n        /* \"contracts/crowd funding.sol\":2401:2427  thisReq.recepient.transfer */\n      0xffffffffffffffffffffffffffffffffffffffff\n      and\n        /* \"contracts/crowd funding.sol\":2401:2442  thisReq.recepient.transfer(thisReq.value) */\n      0x08fc\n        /* \"contracts/crowd funding.sol\":2428:2435  thisReq */\n      dup3\n        /* \"contracts/crowd funding.sol\":2428:2441  thisReq.value */\n      0x02\n      add\n      sload\n        /* \"contracts/crowd funding.sol\":2401:2442  thisReq.recepient.transfer(thisReq.value) */\n      swap1\n      dup2\n      iszero\n      mul\n      swap1\n      mload(0x40)\n      0x00\n      mload(0x40)\n      dup1\n      dup4\n      sub\n      dup2\n      dup6\n      dup9\n      dup9\n      call\n      swap4\n      pop\n      pop\n      pop\n      pop\n      iszero\n      dup1\n      iszero\n      tag_71\n      jumpi\n      returndatasize\n      0x00\n      dup1\n      returndatacopy\n      revert(0x00, returndatasize)\n    tag_71:\n      pop\n        /* \"contracts/crowd funding.sol\":2471:2475  true */\n      0x01\n        /* \"contracts/crowd funding.sol\":2452:2475  thisReq.completed==true */\n      iszero\n      iszero\n        /* \"contracts/crowd funding.sol\":2452:2459  thisReq */\n      dup2\n        /* \"contracts/crowd funding.sol\":2452:2469  thisReq.completed */\n      0x04\n      add\n      0x00\n      swap1\n      sload\n      swap1\n      0x0100\n      exp\n      swap1\n      pop\n      pop\n        /* \"contracts/crowd funding.sol\":2452:2475  thisReq.completed==true */\n      pop\n        /* \"contracts/crowd funding.sol\":2164:2482  {... */\n      pop\n        /* \"contracts/crowd funding.sol\":2120:2482  function payment(uint _reqNo) public payable{... */\n      pop\n      jump\t// out\n        /* \"contracts/crowd funding.sol\":690:714  uint public noOfRequests */\n    tag_37:\n      sload(0x08)\n      dup2\n      jump\t// out\n        /* \"contracts/crowd funding.sol\":1804:2114  function voting(uint _reqNo) public{... */\n    tag_42:\n        /* \"contracts/crowd funding.sol\":1865:1875  msg.sender */\n      caller\n        /* \"contracts/crowd funding.sol\":1856:1875  manager==msg.sender */\n      0xffffffffffffffffffffffffffffffffffffffff\n      and\n        /* \"contracts/crowd funding.sol\":1856:1863  manager */\n      0x01\n      0x00\n      swap1\n      sload\n      swap1\n      0x0100\n      exp\n      swap1\n      div\n      0xffffffffffffffffffffffffffffffffffffffff\n      and\n        /* \"contracts/crowd funding.sol\":1856:1875  manager==msg.sender */\n      0xffffffffffffffffffffffffffffffffffffffff\n      and\n      eq\n        /* \"contracts/crowd funding.sol\":1848:1876  require(manager==msg.sender) */\n      tag_73\n      jumpi\n      0x00\n      dup1\n      revert\n    tag_73:\n        /* \"contracts/crowd funding.sol\":1918:1919  0 */\n      0x00\n        /* \"contracts/crowd funding.sol\":1893:1905  contributors */\n      dup1\n        /* \"contracts/crowd funding.sol\":1893:1917  contributors[msg.sender] */\n      0x00\n        /* \"contracts/crowd funding.sol\":1906:1916  msg.sender */\n      caller\n        /* \"contracts/crowd funding.sol\":1893:1917  contributors[msg.sender] */\n      0xffffffffffffffffffffffffffffffffffffffff\n      and\n      0xffffffffffffffffffffffffffffffffffffffff\n      and\n      dup2\n      mstore\n      0x20\n      add\n      swap1\n      dup2\n      mstore\n      0x20\n      add\n      0x00\n      keccak256\n      sload\n        /* \"contracts/crowd funding.sol\":1893:1919  contributors[msg.sender]>0 */\n      gt\n        /* \"contracts/crowd funding.sol\":1885:1920  require(contributors[msg.sender]>0) */\n      tag_74\n      jumpi\n      0x00\n      dup1\n      revert\n    tag_74:\n        /* \"contracts/crowd funding.sol\":1929:1956  Request storage thisRequest */\n      0x00\n        /* \"contracts/crowd funding.sol\":1957:1965  requests */\n      0x07\n        /* \"contracts/crowd funding.sol\":1957:1973  requests[_reqNo] */\n      0x00\n        /* \"contracts/crowd funding.sol\":1966:1972  _reqNo */\n      dup4\n        /* \"contracts/crowd funding.sol\":1957:1973  requests[_reqNo] */\n      dup2\n      mstore\n      0x20\n      add\n      swap1\n      dup2\n      mstore\n      0x20\n      add\n      0x00\n      keccak256\n        /* \"contracts/crowd funding.sol\":1929:1973  Request storage thisRequest=requests[_reqNo] */\n      swap1\n      pop\n        /* \"contracts/crowd funding.sol\":2022:2027  false */\n      0x00\n        /* \"contracts/crowd funding.sol\":1990:2027  thisRequest.voters[msg.sender]==false */\n      iszero\n      iszero\n        /* \"contracts/crowd funding.sol\":1990:2001  thisRequest */\n      dup2\n        /* \"contracts/crowd funding.sol\":1990:2008  thisRequest.voters */\n      0x05\n      add\n        /* \"contracts/crowd funding.sol\":1990:2020  thisRequest.voters[msg.sender] */\n      0x00\n        /* \"contracts/crowd funding.sol\":2009:2019  msg.sender */\n      caller\n        /* \"contracts/crowd funding.sol\":1990:2020  thisRequest.voters[msg.sender] */\n      0xffffffffffffffffffffffffffffffffffffffff\n      and\n      0xffffffffffffffffffffffffffffffffffffffff\n      and\n      dup2\n      mstore\n      0x20\n      add\n      swap1\n      dup2\n      mstore\n      0x20\n      add\n      0x00\n      keccak256\n      0x00\n      swap1\n      sload\n      swap1\n      0x0100\n      exp\n      swap1\n      div\n      0xff\n      and\n        /* \"contracts/crowd funding.sol\":1990:2027  thisRequest.voters[msg.sender]==false */\n      iszero\n      iszero\n      eq\n        /* \"contracts/crowd funding.sol\":1982:2028  require(thisRequest.voters[msg.sender]==false) */\n      tag_75\n      jumpi\n      0x00\n      dup1\n      revert\n    tag_75:\n        /* \"contracts/crowd funding.sol\":2069:2073  true */\n      0x01\n        /* \"contracts/crowd funding.sol\":2037:2073  thisRequest.voters[msg.sender]==true */\n      iszero\n      iszero\n        /* \"contracts/crowd funding.sol\":2037:2048  thisRequest */\n      dup2\n        /* \"contracts/crowd funding.sol\":2037:2055  thisRequest.voters */\n      0x05\n      add\n        /* \"contracts/crowd funding.sol\":2037:2067  thisRequest.voters[msg.sender] */\n      0x00\n        /* \"contracts/crowd funding.sol\":2056:2066  msg.sender */\n      caller\n        /* \"contracts/crowd funding.sol\":2037:2067  thisRequest.voters[msg.sender] */\n      0xffffffffffffffffffffffffffffffffffffffff\n      and\n      0xffffffffffffffffffffffffffffffffffffffff\n      and\n      dup2\n      mstore\n      0x20\n      add\n      swap1\n      dup2\n      mstore\n      0x20\n      add\n      0x00\n      keccak256\n      0x00\n      swap1\n      sload\n      swap1\n      0x0100\n      exp\n      swap1\n      pop\n      pop\n        /* \"contracts/crowd funding.sol\":2037:2073  thisRequest.voters[msg.sender]==true */\n      pop\n        /* \"contracts/crowd funding.sol\":2082:2093  thisRequest */\n      dup1\n        /* \"contracts/crowd funding.sol\":2082:2104  thisRequest.noOFVoters */\n      0x03\n      add\n      0x00\n        /* \"contracts/crowd funding.sol\":2082:2106  thisRequest.noOFVoters++ */\n      dup2\n      sload\n      dup1\n      swap3\n      swap2\n      swap1\n      tag_76\n      swap1\n      tag_48\n      jump\t// in\n    tag_76:\n      swap2\n      swap1\n      pop\n      sstore\n      pop\n        /* \"contracts/crowd funding.sol\":1839:2114  {... */\n      pop\n        /* \"contracts/crowd funding.sol\":1804:2114  function voting(uint _reqNo) public{... */\n      pop\n      jump\t// out\n        /* \"#utility.yul\":7:84   */\n    tag_77:\n        /* \"#utility.yul\":44:51   */\n      0x00\n        /* \"#utility.yul\":73:78   */\n      dup2\n        /* \"#utility.yul\":62:78   */\n      swap1\n      pop\n        /* \"#utility.yul\":7:84   */\n      swap2\n      swap1\n      pop\n      jump\t// out\n        /* \"#utility.yul\":90:208   */\n    tag_78:\n        /* \"#utility.yul\":177:201   */\n      tag_124\n        /* \"#utility.yul\":195:200   */\n      dup2\n        /* \"#utility.yul\":177:201   */\n      tag_77\n      jump\t// in\n    tag_124:\n        /* \"#utility.yul\":172:175   */\n      dup3\n        /* \"#utility.yul\":165:202   */\n      mstore\n        /* \"#utility.yul\":90:208   */\n      pop\n      pop\n      jump\t// out\n        /* \"#utility.yul\":214:436   */\n    tag_15:\n        /* \"#utility.yul\":307:311   */\n      0x00\n        /* \"#utility.yul\":345:347   */\n      0x20\n        /* \"#utility.yul\":334:343   */\n      dup3\n        /* \"#utility.yul\":330:348   */\n      add\n        /* \"#utility.yul\":322:348   */\n      swap1\n      pop\n        /* \"#utility.yul\":358:429   */\n      tag_126\n        /* \"#utility.yul\":426:427   */\n      0x00\n        /* \"#utility.yul\":415:424   */\n      dup4\n        /* \"#utility.yul\":411:428   */\n      add\n        /* \"#utility.yul\":402:408   */\n      dup5\n        /* \"#utility.yul\":358:429   */\n      tag_78\n      jump\t// in\n    tag_126:\n        /* \"#utility.yul\":214:436   */\n      swap3\n      swap2\n      pop\n      pop\n      jump\t// out\n        /* \"#utility.yul\":442:517   */\n    tag_79:\n        /* \"#utility.yul\":475:481   */\n      0x00\n        /* \"#utility.yul\":508:510   */\n      0x40\n        /* \"#utility.yul\":502:511   */\n      mload\n        /* \"#utility.yul\":492:511   */\n      swap1\n      pop\n        /* \"#utility.yul\":442:517   */\n      swap1\n      jump\t// out\n        /* \"#utility.yul\":523:640   */\n    tag_80:\n        /* \"#utility.yul\":632:633   */\n      0x00\n        /* \"#utility.yul\":629:630   */\n      dup1\n        /* \"#utility.yul\":622:634   */\n      revert\n        /* \"#utility.yul\":646:763   */\n    tag_81:\n        /* \"#utility.yul\":755:756   */\n      0x00\n        /* \"#utility.yul\":752:753   */\n      dup1\n        /* \"#utility.yul\":745:757   */\n      revert\n        /* \"#utility.yul\":769:895   */\n    tag_82:\n        /* \"#utility.yul\":806:813   */\n      0x00\n        /* \"#utility.yul\":846:888   */\n      0xffffffffffffffffffffffffffffffffffffffff\n        /* \"#utility.yul\":839:844   */\n      dup3\n        /* \"#utility.yul\":835:889   */\n      and\n        /* \"#utility.yul\":824:889   */\n      swap1\n      pop\n        /* \"#utility.yul\":769:895   */\n      swap2\n      swap1\n      pop\n      jump\t// out\n        /* \"#utility.yul\":901:997   */\n    tag_83:\n        /* \"#utility.yul\":938:945   */\n      0x00\n        /* \"#utility.yul\":967:991   */\n      tag_132\n        /* \"#utility.yul\":985:990   */\n      dup3\n        /* \"#utility.yul\":967:991   */\n      tag_82\n      jump\t// in\n    tag_132:\n        /* \"#utility.yul\":956:991   */\n      swap1\n      pop\n        /* \"#utility.yul\":901:997   */\n      swap2\n      swap1\n      pop\n      jump\t// out\n        /* \"#utility.yul\":1003:1125   */\n    tag_84:\n        /* \"#utility.yul\":1076:1100   */\n      tag_134\n        /* \"#utility.yul\":1094:1099   */\n      dup2\n        /* \"#utility.yul\":1076:1100   */\n      tag_83\n      jump\t// in\n    tag_134:\n        /* \"#utility.yul\":1069:1074   */\n      dup2\n        /* \"#utility.yul\":1066:1101   */\n      eq\n        /* \"#utility.yul\":1056:1119   */\n      tag_135\n      jumpi\n        /* \"#utility.yul\":1115:1116   */\n      0x00\n        /* \"#utility.yul\":1112:1113   */\n      dup1\n        /* \"#utility.yul\":1105:1117   */\n      revert\n        /* \"#utility.yul\":1056:1119   */\n    tag_135:\n        /* \"#utility.yul\":1003:1125   */\n      pop\n      jump\t// out\n        /* \"#utility.yul\":1131:1270   */\n    tag_85:\n        /* \"#utility.yul\":1177:1182   */\n      0x00\n        /* \"#utility.yul\":1215:1221   */\n      dup2\n        /* \"#utility.yul\":1202:1222   */\n      calldataload\n        /* \"#utility.yul\":1193:1222   */\n      swap1\n      pop\n        /* \"#utility.yul\":1231:1264   */\n      tag_137\n        /* \"#utility.yul\":1258:1263   */\n      dup2\n        /* \"#utility.yul\":1231:1264   */\n      tag_84\n      jump\t// in\n    tag_137:\n        /* \"#utility.yul\":1131:1270   */\n      swap3\n      swap2\n      pop\n      pop\n      jump\t// out\n        /* \"#utility.yul\":1276:1605   */\n    tag_19:\n        /* \"#utility.yul\":1335:1341   */\n      0x00\n        /* \"#utility.yul\":1384:1386   */\n      0x20\n        /* \"#utility.yul\":1372:1381   */\n      dup3\n        /* \"#utility.yul\":1363:1370   */\n      dup5\n        /* \"#utility.yul\":1359:1382   */\n      sub\n        /* \"#utility.yul\":1355:1387   */\n      slt\n        /* \"#utility.yul\":1352:1471   */\n      iszero\n      tag_139\n      jumpi\n        /* \"#utility.yul\":1390:1469   */\n      tag_140\n      tag_80\n      jump\t// in\n    tag_140:\n        /* \"#utility.yul\":1352:1471   */\n    tag_139:\n        /* \"#utility.yul\":1510:1511   */\n      0x00\n        /* \"#utility.yul\":1535:1588   */\n      tag_141\n        /* \"#utility.yul\":1580:1587   */\n      dup5\n        /* \"#utility.yul\":1571:1577   */\n      dup3\n        /* \"#utility.yul\":1560:1569   */\n      dup6\n        /* \"#utility.yul\":1556:1578   */\n      add\n        /* \"#utility.yul\":1535:1588   */\n      tag_85\n      jump\t// in\n    tag_141:\n        /* \"#utility.yul\":1525:1588   */\n      swap2\n      pop\n        /* \"#utility.yul\":1481:1598   */\n      pop\n        /* \"#utility.yul\":1276:1605   */\n      swap3\n      swap2\n      pop\n      pop\n      jump\t// out\n        /* \"#utility.yul\":1611:1728   */\n    tag_86:\n        /* \"#utility.yul\":1720:1721   */\n      0x00\n        /* \"#utility.yul\":1717:1718   */\n      dup1\n        /* \"#utility.yul\":1710:1722   */\n      revert\n        /* \"#utility.yul\":1734:1851   */\n    tag_87:\n        /* \"#utility.yul\":1843:1844   */\n      0x00\n        /* \"#utility.yul\":1840:1841   */\n      dup1\n        /* \"#utility.yul\":1833:1845   */\n      revert\n        /* \"#utility.yul\":1857:1959   */\n    tag_88:\n        /* \"#utility.yul\":1898:1904   */\n      0x00\n        /* \"#utility.yul\":1949:1951   */\n      0x1f\n        /* \"#utility.yul\":1945:1952   */\n      not\n        /* \"#utility.yul\":1940:1942   */\n      0x1f\n        /* \"#utility.yul\":1933:1938   */\n      dup4\n        /* \"#utility.yul\":1929:1943   */\n      add\n        /* \"#utility.yul\":1925:1953   */\n      and\n        /* \"#utility.yul\":1915:1953   */\n      swap1\n      pop\n        /* \"#utility.yul\":1857:1959   */\n      swap2\n      swap1\n      pop\n      jump\t// out\n        /* \"#utility.yul\":1965:2145   */\n    tag_89:\n        /* \"#utility.yul\":2013:2090   */\n      0x4e487b7100000000000000000000000000000000000000000000000000000000\n        /* \"#utility.yul\":2010:2011   */\n      0x00\n        /* \"#utility.yul\":2003:2091   */\n      mstore\n        /* \"#utility.yul\":2110:2114   */\n      0x41\n        /* \"#utility.yul\":2107:2108   */\n      0x04\n        /* \"#utility.yul\":2100:2115   */\n      mstore\n        /* \"#utility.yul\":2134:2138   */\n      0x24\n        /* \"#utility.yul\":2131:2132   */\n      0x00\n        /* \"#utility.yul\":2124:2139   */\n      revert\n        /* \"#utility.yul\":2151:2432   */\n    tag_90:\n        /* \"#utility.yul\":2234:2261   */\n      tag_147\n        /* \"#utility.yul\":2256:2260   */\n      dup3\n        /* \"#utility.yul\":2234:2261   */\n      tag_88\n      jump\t// in\n    tag_147:\n        /* \"#utility.yul\":2226:2232   */\n      dup2\n        /* \"#utility.yul\":2222:2262   */\n      add\n        /* \"#utility.yul\":2364:2370   */\n      dup2\n        /* \"#utility.yul\":2352:2362   */\n      dup2\n        /* \"#utility.yul\":2349:2371   */\n      lt\n        /* \"#utility.yul\":2328:2346   */\n      0xffffffffffffffff\n        /* \"#utility.yul\":2316:2326   */\n      dup3\n        /* \"#utility.yul\":2313:2347   */\n      gt\n        /* \"#utility.yul\":2310:2372   */\n      or\n        /* \"#utility.yul\":2307:2395   */\n      iszero\n      tag_148\n      jumpi\n        /* \"#utility.yul\":2375:2393   */\n      tag_149\n      tag_89\n      jump\t// in\n    tag_149:\n        /* \"#utility.yul\":2307:2395   */\n    tag_148:\n        /* \"#utility.yul\":2415:2425   */\n      dup1\n        /* \"#utility.yul\":2411:2413   */\n      0x40\n        /* \"#utility.yul\":2404:2426   */\n      mstore\n        /* \"#utility.yul\":2194:2432   */\n      pop\n        /* \"#utility.yul\":2151:2432   */\n      pop\n      pop\n      jump\t// out\n        /* \"#utility.yul\":2438:2567   */\n    tag_91:\n        /* \"#utility.yul\":2472:2478   */\n      0x00\n        /* \"#utility.yul\":2499:2519   */\n      tag_151\n      tag_79\n      jump\t// in\n    tag_151:\n        /* \"#utility.yul\":2489:2519   */\n      swap1\n      pop\n        /* \"#utility.yul\":2528:2561   */\n      tag_152\n        /* \"#utility.yul\":2556:2560   */\n      dup3\n        /* \"#utility.yul\":2548:2554   */\n      dup3\n        /* \"#utility.yul\":2528:2561   */\n      tag_90\n      jump\t// in\n    tag_152:\n        /* \"#utility.yul\":2438:2567   */\n      swap2\n      swap1\n      pop\n      jump\t// out\n        /* \"#utility.yul\":2573:2881   */\n    tag_92:\n        /* \"#utility.yul\":2635:2639   */\n      0x00\n        /* \"#utility.yul\":2725:2743   */\n      0xffffffffffffffff\n        /* \"#utility.yul\":2717:2723   */\n      dup3\n        /* \"#utility.yul\":2714:2744   */\n      gt\n        /* \"#utility.yul\":2711:2767   */\n      iszero\n      tag_154\n      jumpi\n        /* \"#utility.yul\":2747:2765   */\n      tag_155\n      tag_89\n      jump\t// in\n    tag_155:\n        /* \"#utility.yul\":2711:2767   */\n    tag_154:\n        /* \"#utility.yul\":2785:2814   */\n      tag_156\n        /* \"#utility.yul\":2807:2813   */\n      dup3\n        /* \"#utility.yul\":2785:2814   */\n      tag_88\n      jump\t// in\n    tag_156:\n        /* \"#utility.yul\":2777:2814   */\n      swap1\n      pop\n        /* \"#utility.yul\":2869:2873   */\n      0x20\n        /* \"#utility.yul\":2863:2867   */\n      dup2\n        /* \"#utility.yul\":2859:2874   */\n      add\n        /* \"#utility.yul\":2851:2874   */\n      swap1\n      pop\n        /* \"#utility.yul\":2573:2881   */\n      swap2\n      swap1\n      pop\n      jump\t// out\n        /* \"#utility.yul\":2887:3033   */\n    tag_93:\n        /* \"#utility.yul\":2984:2990   */\n      dup3\n        /* \"#utility.yul\":2979:2982   */\n      dup2\n        /* \"#utility.yul\":2974:2977   */\n      dup4\n        /* \"#utility.yul\":2961:2991   */\n      calldatacopy\n        /* \"#utility.yul\":3025:3026   */\n      0x00\n        /* \"#utility.yul\":3016:3022   */\n      dup4\n        /* \"#utility.yul\":3011:3014   */\n      dup4\n        /* \"#utility.yul\":3007:3023   */\n      add\n        /* \"#utility.yul\":3000:3027   */\n      mstore\n        /* \"#utility.yul\":2887:3033   */\n      pop\n      pop\n      pop\n      jump\t// out\n        /* \"#utility.yul\":3039:3464   */\n    tag_94:\n        /* \"#utility.yul\":3117:3122   */\n      0x00\n        /* \"#utility.yul\":3142:3208   */\n      tag_159\n        /* \"#utility.yul\":3158:3207   */\n      tag_160\n        /* \"#utility.yul\":3200:3206   */\n      dup5\n        /* \"#utility.yul\":3158:3207   */\n      tag_92\n      jump\t// in\n    tag_160:\n        /* \"#utility.yul\":3142:3208   */\n      tag_91\n      jump\t// in\n    tag_159:\n        /* \"#utility.yul\":3133:3208   */\n      swap1\n      pop\n        /* \"#utility.yul\":3231:3237   */\n      dup3\n        /* \"#utility.yul\":3224:3229   */\n      dup2\n        /* \"#utility.yul\":3217:3238   */\n      mstore\n        /* \"#utility.yul\":3269:3273   */\n      0x20\n        /* \"#utility.yul\":3262:3267   */\n      dup2\n        /* \"#utility.yul\":3258:3274   */\n      add\n        /* \"#utility.yul\":3307:3310   */\n      dup5\n        /* \"#utility.yul\":3298:3304   */\n      dup5\n        /* \"#utility.yul\":3293:3296   */\n      dup5\n        /* \"#utility.yul\":3289:3305   */\n      add\n        /* \"#utility.yul\":3286:3311   */\n      gt\n        /* \"#utility.yul\":3283:3395   */\n      iszero\n      tag_161\n      jumpi\n        /* \"#utility.yul\":3314:3393   */\n      tag_162\n      tag_87\n      jump\t// in\n    tag_162:\n        /* \"#utility.yul\":3283:3395   */\n    tag_161:\n        /* \"#utility.yul\":3404:3458   */\n      tag_163\n        /* \"#utility.yul\":3451:3457   */\n      dup5\n        /* \"#utility.yul\":3446:3449   */\n      dup3\n        /* \"#utility.yul\":3441:3444   */\n      dup6\n        /* \"#utility.yul\":3404:3458   */\n      tag_93\n      jump\t// in\n    tag_163:\n        /* \"#utility.yul\":3123:3464   */\n      pop\n        /* \"#utility.yul\":3039:3464   */\n      swap4\n      swap3\n      pop\n      pop\n      pop\n      jump\t// out\n        /* \"#utility.yul\":3484:3824   */\n    tag_95:\n        /* \"#utility.yul\":3540:3545   */\n      0x00\n        /* \"#utility.yul\":3589:3592   */\n      dup3\n        /* \"#utility.yul\":3582:3586   */\n      0x1f\n        /* \"#utility.yul\":3574:3580   */\n      dup4\n        /* \"#utility.yul\":3570:3587   */\n      add\n        /* \"#utility.yul\":3566:3593   */\n      slt\n        /* \"#utility.yul\":3556:3678   */\n      tag_165\n      jumpi\n        /* \"#utility.yul\":3597:3676   */\n      tag_166\n      tag_86\n      jump\t// in\n    tag_166:\n        /* \"#utility.yul\":3556:3678   */\n    tag_165:\n        /* \"#utility.yul\":3714:3720   */\n      dup2\n        /* \"#utility.yul\":3701:3721   */\n      calldataload\n        /* \"#utility.yul\":3739:3818   */\n      tag_167\n        /* \"#utility.yul\":3814:3817   */\n      dup5\n        /* \"#utility.yul\":3806:3812   */\n      dup3\n        /* \"#utility.yul\":3799:3803   */\n      0x20\n        /* \"#utility.yul\":3791:3797   */\n      dup7\n        /* \"#utility.yul\":3787:3804   */\n      add\n        /* \"#utility.yul\":3739:3818   */\n      tag_94\n      jump\t// in\n    tag_167:\n        /* \"#utility.yul\":3730:3818   */\n      swap2\n      pop\n        /* \"#utility.yul\":3546:3824   */\n      pop\n        /* \"#utility.yul\":3484:3824   */\n      swap3\n      swap2\n      pop\n      pop\n      jump\t// out\n        /* \"#utility.yul\":3830:3934   */\n    tag_96:\n        /* \"#utility.yul\":3875:3882   */\n      0x00\n        /* \"#utility.yul\":3904:3928   */\n      tag_169\n        /* \"#utility.yul\":3922:3927   */\n      dup3\n        /* \"#utility.yul\":3904:3928   */\n      tag_82\n      jump\t// in\n    tag_169:\n        /* \"#utility.yul\":3893:3928   */\n      swap1\n      pop\n        /* \"#utility.yul\":3830:3934   */\n      swap2\n      swap1\n      pop\n      jump\t// out\n        /* \"#utility.yul\":3940:4078   */\n    tag_97:\n        /* \"#utility.yul\":4021:4053   */\n      tag_171\n        /* \"#utility.yul\":4047:4052   */\n      dup2\n        /* \"#utility.yul\":4021:4053   */\n      tag_96\n      jump\t// in\n    tag_171:\n        /* \"#utility.yul\":4014:4019   */\n      dup2\n        /* \"#utility.yul\":4011:4054   */\n      eq\n        /* \"#utility.yul\":4001:4072   */\n      tag_172\n      jumpi\n        /* \"#utility.yul\":4068:4069   */\n      0x00\n        /* \"#utility.yul\":4065:4066   */\n      dup1\n        /* \"#utility.yul\":4058:4070   */\n      revert\n        /* \"#utility.yul\":4001:4072   */\n    tag_172:\n        /* \"#utility.yul\":3940:4078   */\n      pop\n      jump\t// out\n        /* \"#utility.yul\":4084:4239   */\n    tag_98:\n        /* \"#utility.yul\":4138:4143   */\n      0x00\n        /* \"#utility.yul\":4176:4182   */\n      dup2\n        /* \"#utility.yul\":4163:4183   */\n      calldataload\n        /* \"#utility.yul\":4154:4183   */\n      swap1\n      pop\n        /* \"#utility.yul\":4192:4233   */\n      tag_174\n        /* \"#utility.yul\":4227:4232   */\n      dup2\n        /* \"#utility.yul\":4192:4233   */\n      tag_97\n      jump\t// in\n    tag_174:\n        /* \"#utility.yul\":4084:4239   */\n      swap3\n      swap2\n      pop\n      pop\n      jump\t// out\n        /* \"#utility.yul\":4245:4367   */\n    tag_99:\n        /* \"#utility.yul\":4318:4342   */\n      tag_176\n        /* \"#utility.yul\":4336:4341   */\n      dup2\n        /* \"#utility.yul\":4318:4342   */\n      tag_77\n      jump\t// in\n    tag_176:\n        /* \"#utility.yul\":4311:4316   */\n      dup2\n        /* \"#utility.yul\":4308:4343   */\n      eq\n        /* \"#utility.yul\":4298:4361   */\n      tag_177\n      jumpi\n        /* \"#utility.yul\":4357:4358   */\n      0x00\n        /* \"#utility.yul\":4354:4355   */\n      dup1\n        /* \"#utility.yul\":4347:4359   */\n      revert\n        /* \"#utility.yul\":4298:4361   */\n    tag_177:\n        /* \"#utility.yul\":4245:4367   */\n      pop\n      jump\t// out\n        /* \"#utility.yul\":4373:4512   */\n    tag_100:\n        /* \"#utility.yul\":4419:4424   */\n      0x00\n        /* \"#utility.yul\":4457:4463   */\n      dup2\n        /* \"#utility.yul\":4444:4464   */\n      calldataload\n        /* \"#utility.yul\":4435:4464   */\n      swap1\n      pop\n        /* \"#utility.yul\":4473:4506   */\n      tag_179\n        /* \"#utility.yul\":4500:4505   */\n      dup2\n        /* \"#utility.yul\":4473:4506   */\n      tag_99\n      jump\t// in\n    tag_179:\n        /* \"#utility.yul\":4373:4512   */\n      swap3\n      swap2\n      pop\n      pop\n      jump\t// out\n        /* \"#utility.yul\":4518:5333   */\n    tag_29:\n        /* \"#utility.yul\":4613:4619   */\n      0x00\n        /* \"#utility.yul\":4621:4627   */\n      dup1\n        /* \"#utility.yul\":4629:4635   */\n      0x00\n        /* \"#utility.yul\":4678:4680   */\n      0x60\n        /* \"#utility.yul\":4666:4675   */\n      dup5\n        /* \"#utility.yul\":4657:4664   */\n      dup7\n        /* \"#utility.yul\":4653:4676   */\n      sub\n        /* \"#utility.yul\":4649:4681   */\n      slt\n        /* \"#utility.yul\":4646:4765   */\n      iszero\n      tag_181\n      jumpi\n        /* \"#utility.yul\":4684:4763   */\n      tag_182\n      tag_80\n      jump\t// in\n    tag_182:\n        /* \"#utility.yul\":4646:4765   */\n    tag_181:\n        /* \"#utility.yul\":4832:4833   */\n      0x00\n        /* \"#utility.yul\":4821:4830   */\n      dup5\n        /* \"#utility.yul\":4817:4834   */\n      add\n        /* \"#utility.yul\":4804:4835   */\n      calldataload\n        /* \"#utility.yul\":4862:4880   */\n      0xffffffffffffffff\n        /* \"#utility.yul\":4854:4860   */\n      dup2\n        /* \"#utility.yul\":4851:4881   */\n      gt\n        /* \"#utility.yul\":4848:4965   */\n      iszero\n      tag_183\n      jumpi\n        /* \"#utility.yul\":4884:4963   */\n      tag_184\n      tag_81\n      jump\t// in\n    tag_184:\n        /* \"#utility.yul\":4848:4965   */\n    tag_183:\n        /* \"#utility.yul\":4989:5052   */\n      tag_185\n        /* \"#utility.yul\":5044:5051   */\n      dup7\n        /* \"#utility.yul\":5035:5041   */\n      dup3\n        /* \"#utility.yul\":5024:5033   */\n      dup8\n        /* \"#utility.yul\":5020:5042   */\n      add\n        /* \"#utility.yul\":4989:5052   */\n      tag_95\n      jump\t// in\n    tag_185:\n        /* \"#utility.yul\":4979:5052   */\n      swap4\n      pop\n        /* \"#utility.yul\":4775:5062   */\n      pop\n        /* \"#utility.yul\":5101:5103   */\n      0x20\n        /* \"#utility.yul\":5127:5188   */\n      tag_186\n        /* \"#utility.yul\":5180:5187   */\n      dup7\n        /* \"#utility.yul\":5171:5177   */\n      dup3\n        /* \"#utility.yul\":5160:5169   */\n      dup8\n        /* \"#utility.yul\":5156:5178   */\n      add\n        /* \"#utility.yul\":5127:5188   */\n      tag_98\n      jump\t// in\n    tag_186:\n        /* \"#utility.yul\":5117:5188   */\n      swap3\n      pop\n        /* \"#utility.yul\":5072:5198   */\n      pop\n        /* \"#utility.yul\":5237:5239   */\n      0x40\n        /* \"#utility.yul\":5263:5316   */\n      tag_187\n        /* \"#utility.yul\":5308:5315   */\n      dup7\n        /* \"#utility.yul\":5299:5305   */\n      dup3\n        /* \"#utility.yul\":5288:5297   */\n      dup8\n        /* \"#utility.yul\":5284:5306   */\n      add\n        /* \"#utility.yul\":5263:5316   */\n      tag_100\n      jump\t// in\n    tag_187:\n        /* \"#utility.yul\":5253:5316   */\n      swap2\n      pop\n        /* \"#utility.yul\":5208:5326   */\n      pop\n        /* \"#utility.yul\":4518:5333   */\n      swap3\n      pop\n      swap3\n      pop\n      swap3\n      jump\t// out\n        /* \"#utility.yul\":5339:5668   */\n    tag_33:\n        /* \"#utility.yul\":5398:5404   */\n      0x00\n        /* \"#utility.yul\":5447:5449   */\n      0x20\n        /* \"#utility.yul\":5435:5444   */\n      dup3\n        /* \"#utility.yul\":5426:5433   */\n      dup5\n        /* \"#utility.yul\":5422:5445   */\n      sub\n        /* \"#utility.yul\":5418:5450   */\n      slt\n        /* \"#utility.yul\":5415:5534   */\n      iszero\n      tag_189\n      jumpi\n        /* \"#utility.yul\":5453:5532   */\n      tag_190\n      tag_80\n      jump\t// in\n    tag_190:\n        /* \"#utility.yul\":5415:5534   */\n    tag_189:\n        /* \"#utility.yul\":5573:5574   */\n      0x00\n        /* \"#utility.yul\":5598:5651   */\n      tag_191\n        /* \"#utility.yul\":5643:5650   */\n      dup5\n        /* \"#utility.yul\":5634:5640   */\n      dup3\n        /* \"#utility.yul\":5623:5632   */\n      dup6\n        /* \"#utility.yul\":5619:5641   */\n      add\n        /* \"#utility.yul\":5598:5651   */\n      tag_100\n      jump\t// in\n    tag_191:\n        /* \"#utility.yul\":5588:5651   */\n      swap2\n      pop\n        /* \"#utility.yul\":5544:5661   */\n      pop\n        /* \"#utility.yul\":5339:5668   */\n      swap3\n      swap2\n      pop\n      pop\n      jump\t// out\n        /* \"#utility.yul\":5674:5854   */\n    tag_101:\n        /* \"#utility.yul\":5722:5799   */\n      0x4e487b7100000000000000000000000000000000000000000000000000000000\n        /* \"#utility.yul\":5719:5720   */\n      0x00\n        /* \"#utility.yul\":5712:5800   */\n      mstore\n        /* \"#utility.yul\":5819:5823   */\n      0x11\n        /* \"#utility.yul\":5816:5817   */\n      0x04\n        /* \"#utility.yul\":5809:5824   */\n      mstore\n        /* \"#utility.yul\":5843:5847   */\n      0x24\n        /* \"#utility.yul\":5840:5841   */\n      0x00\n        /* \"#utility.yul\":5833:5848   */\n      revert\n        /* \"#utility.yul\":5860:6093   */\n    tag_48:\n        /* \"#utility.yul\":5899:5902   */\n      0x00\n        /* \"#utility.yul\":5922:5946   */\n      tag_194\n        /* \"#utility.yul\":5940:5945   */\n      dup3\n        /* \"#utility.yul\":5922:5946   */\n      tag_77\n      jump\t// in\n    tag_194:\n        /* \"#utility.yul\":5913:5946   */\n      swap2\n      pop\n        /* \"#utility.yul\":5968:6034   */\n      0xffffffffffffffffffffffffffffffffffffffffffffffffffffffffffffffff\n        /* \"#utility.yul\":5961:5966   */\n      dup3\n        /* \"#utility.yul\":5958:6035   */\n      sub\n        /* \"#utility.yul\":5955:6058   */\n      tag_195\n      jumpi\n        /* \"#utility.yul\":6038:6056   */\n      tag_196\n      tag_101\n      jump\t// in\n    tag_196:\n        /* \"#utility.yul\":5955:6058   */\n    tag_195:\n        /* \"#utility.yul\":6085:6086   */\n      0x01\n        /* \"#utility.yul\":6078:6083   */\n      dup3\n        /* \"#utility.yul\":6074:6087   */\n      add\n        /* \"#utility.yul\":6067:6087   */\n      swap1\n      pop\n        /* \"#utility.yul\":5860:6093   */\n      swap2\n      swap1\n      pop\n      jump\t// out\n        /* \"#utility.yul\":6099:6290   */\n    tag_50:\n        /* \"#utility.yul\":6139:6142   */\n      0x00\n        /* \"#utility.yul\":6158:6178   */\n      tag_198\n        /* \"#utility.yul\":6176:6177   */\n      dup3\n        /* \"#utility.yul\":6158:6178   */\n      tag_77\n      jump\t// in\n    tag_198:\n        /* \"#utility.yul\":6153:6178   */\n      swap2\n      pop\n        /* \"#utility.yul\":6192:6212   */\n      tag_199\n        /* \"#utility.yul\":6210:6211   */\n      dup4\n        /* \"#utility.yul\":6192:6212   */\n      tag_77\n      jump\t// in\n    tag_199:\n        /* \"#utility.yul\":6187:6212   */\n      swap3\n      pop\n        /* \"#utility.yul\":6235:6236   */\n      dup3\n        /* \"#utility.yul\":6232:6233   */\n      dup3\n        /* \"#utility.yul\":6228:6237   */\n      add\n        /* \"#utility.yul\":6221:6237   */\n      swap1\n      pop\n        /* \"#utility.yul\":6256:6259   */\n      dup1\n        /* \"#utility.yul\":6253:6254   */\n      dup3\n        /* \"#utility.yul\":6250:6260   */\n      gt\n        /* \"#utility.yul\":6247:6283   */\n      iszero\n      tag_200\n      jumpi\n        /* \"#utility.yul\":6263:6281   */\n      tag_201\n      tag_101\n      jump\t// in\n    tag_201:\n        /* \"#utility.yul\":6247:6283   */\n    tag_200:\n        /* \"#utility.yul\":6099:6290   */\n      swap3\n      swap2\n      pop\n      pop\n      jump\t// out\n        /* \"#utility.yul\":6296:6395   */\n    tag_102:\n        /* \"#utility.yul\":6348:6354   */\n      0x00\n        /* \"#utility.yul\":6382:6387   */\n      dup2\n        /* \"#utility.yul\":6376:6388   */\n      mload\n        /* \"#utility.yul\":6366:6388   */\n      swap1\n      pop\n        /* \"#utility.yul\":6296:6395   */\n      swap2\n      swap1\n      pop\n      jump\t// out\n        /* \"#utility.yul\":6401:6581   */\n    tag_103:\n        /* \"#utility.yul\":6449:6526   */\n      0x4e487b7100000000000000000000000000000000000000000000000000000000\n        /* \"#utility.yul\":6446:6447   */\n      0x00\n        /* \"#utility.yul\":6439:6527   */\n      mstore\n        /* \"#utility.yul\":6546:6550   */\n      0x22\n        /* \"#utility.yul\":6543:6544   */\n      0x04\n        /* \"#utility.yul\":6536:6551   */\n      mstore\n        /* \"#utility.yul\":6570:6574   */\n      0x24\n        /* \"#utility.yul\":6567:6568   */\n      0x00\n        /* \"#utility.yul\":6560:6575   */\n      revert\n        /* \"#utility.yul\":6587:6907   */\n    tag_104:\n        /* \"#utility.yul\":6631:6637   */\n      0x00\n        /* \"#utility.yul\":6668:6669   */\n      0x02\n        /* \"#utility.yul\":6662:6666   */\n      dup3\n        /* \"#utility.yul\":6658:6670   */\n      div\n        /* \"#utility.yul\":6648:6670   */\n      swap1\n      pop\n        /* \"#utility.yul\":6715:6716   */\n      0x01\n        /* \"#utility.yul\":6709:6713   */\n      dup3\n        /* \"#utility.yul\":6705:6717   */\n      and\n        /* \"#utility.yul\":6736:6754   */\n      dup1\n        /* \"#utility.yul\":6726:6807   */\n      tag_205\n      jumpi\n        /* \"#utility.yul\":6792:6796   */\n      0x7f\n        /* \"#utility.yul\":6784:6790   */\n      dup3\n        /* \"#utility.yul\":6780:6797   */\n      and\n        /* \"#utility.yul\":6770:6797   */\n      swap2\n      pop\n        /* \"#utility.yul\":6726:6807   */\n    tag_205:\n        /* \"#utility.yul\":6854:6856   */\n      0x20\n        /* \"#utility.yul\":6846:6852   */\n      dup3\n        /* \"#utility.yul\":6843:6857   */\n      lt\n        /* \"#utility.yul\":6823:6841   */\n      dup2\n        /* \"#utility.yul\":6820:6858   */\n      sub\n        /* \"#utility.yul\":6817:6901   */\n      tag_206\n      jumpi\n        /* \"#utility.yul\":6873:6891   */\n      tag_207\n      tag_103\n      jump\t// in\n    tag_207:\n        /* \"#utility.yul\":6817:6901   */\n    tag_206:\n        /* \"#utility.yul\":6638:6907   */\n      pop\n        /* \"#utility.yul\":6587:6907   */\n      swap2\n      swap1\n      pop\n      jump\t// out\n        /* \"#utility.yul\":6913:7054   */\n    tag_105:\n        /* \"#utility.yul\":6962:6966   */\n      0x00\n        /* \"#utility.yul\":6985:6988   */\n      dup2\n        /* \"#utility.yul\":6977:6988   */\n      swap1\n      pop\n        /* \"#utility.yul\":7008:7011   */\n      dup2\n        /* \"#utility.yul\":7005:7006   */\n      0x00\n        /* \"#utility.yul\":6998:7012   */\n      mstore\n        /* \"#utility.yul\":7042:7046   */\n      0x20\n        /* \"#utility.yul\":7039:7040   */\n      0x00\n        /* \"#utility.yul\":7029:7047   */\n      keccak256\n        /* \"#utility.yul\":7021:7047   */\n      swap1\n      pop\n        /* \"#utility.yul\":6913:7054   */\n      swap2\n      swap1\n      pop\n      jump\t// out\n        /* \"#utility.yul\":7060:7153   */\n    tag_106:\n        /* \"#utility.yul\":7097:7103   */\n      0x00\n        /* \"#utility.yul\":7144:7146   */\n      0x20\n        /* \"#utility.yul\":7139:7141   */\n      0x1f\n        /* \"#utility.yul\":7132:7137   */\n      dup4\n        /* \"#utility.yul\":7128:7142   */\n      add\n        /* \"#utility.yul\":7124:7147   */\n      div\n        /* \"#utility.yul\":7114:7147   */\n      swap1\n      pop\n        /* \"#utility.yul\":7060:7153   */\n      swap2\n      swap1\n      pop\n      jump\t// out\n        /* \"#utility.yul\":7159:7266   */\n    tag_107:\n        /* \"#utility.yul\":7203:7211   */\n      0x00\n        /* \"#utility.yul\":7253:7258   */\n      dup3\n        /* \"#utility.yul\":7247:7251   */\n      dup3\n        /* \"#utility.yul\":7243:7259   */\n      shl\n        /* \"#utility.yul\":7222:7259   */\n      swap1\n      pop\n        /* \"#utility.yul\":7159:7266   */\n      swap3\n      swap2\n      pop\n      pop\n      jump\t// out\n        /* \"#utility.yul\":7272:7665   */\n    tag_108:\n        /* \"#utility.yul\":7341:7347   */\n      0x00\n        /* \"#utility.yul\":7391:7392   */\n      0x08\n        /* \"#utility.yul\":7379:7389   */\n      dup4\n        /* \"#utility.yul\":7375:7393   */\n      mul\n        /* \"#utility.yul\":7414:7511   */\n      tag_212\n        /* \"#utility.yul\":7444:7510   */\n      0xffffffffffffffffffffffffffffffffffffffffffffffffffffffffffffffff\n        /* \"#utility.yul\":7433:7442   */\n      dup3\n        /* \"#utility.yul\":7414:7511   */\n      tag_107\n      jump\t// in\n    tag_212:\n        /* \"#utility.yul\":7532:7571   */\n      tag_213\n        /* \"#utility.yul\":7562:7570   */\n      dup7\n        /* \"#utility.yul\":7551:7560   */\n      dup4\n        /* \"#utility.yul\":7532:7571   */\n      tag_107\n      jump\t// in\n    tag_213:\n        /* \"#utility.yul\":7520:7571   */\n      swap6\n      pop\n        /* \"#utility.yul\":7604:7608   */\n      dup1\n        /* \"#utility.yul\":7600:7609   */\n      not\n        /* \"#utility.yul\":7593:7598   */\n      dup5\n        /* \"#utility.yul\":7589:7610   */\n      and\n        /* \"#utility.yul\":7580:7610   */\n      swap4\n      pop\n        /* \"#utility.yul\":7653:7657   */\n      dup1\n        /* \"#utility.yul\":7643:7651   */\n      dup7\n        /* \"#utility.yul\":7639:7658   */\n      and\n        /* \"#utility.yul\":7632:7637   */\n      dup5\n        /* \"#utility.yul\":7629:7659   */\n      or\n        /* \"#utility.yul\":7619:7659   */\n      swap3\n      pop\n        /* \"#utility.yul\":7348:7665   */\n      pop\n      pop\n        /* \"#utility.yul\":7272:7665   */\n      swap4\n      swap3\n      pop\n      pop\n      pop\n      jump\t// out\n        /* \"#utility.yul\":7671:7731   */\n    tag_109:\n        /* \"#utility.yul\":7699:7702   */\n      0x00\n        /* \"#utility.yul\":7720:7725   */\n      dup2\n        /* \"#utility.yul\":7713:7725   */\n      swap1\n      pop\n        /* \"#utility.yul\":7671:7731   */\n      swap2\n      swap1\n      pop\n      jump\t// out\n        /* \"#utility.yul\":7737:7879   */\n    tag_110:\n        /* \"#utility.yul\":7787:7796   */\n      0x00\n        /* \"#utility.yul\":7820:7873   */\n      tag_216\n        /* \"#utility.yul\":7838:7872   */\n      tag_217\n        /* \"#utility.yul\":7847:7871   */\n      tag_218\n        /* \"#utility.yul\":7865:7870   */\n      dup5\n        /* \"#utility.yul\":7847:7871   */\n      tag_77\n      jump\t// in\n    tag_218:\n        /* \"#utility.yul\":7838:7872   */\n      tag_109\n      jump\t// in\n    tag_217:\n        /* \"#utility.yul\":7820:7873   */\n      tag_77\n      jump\t// in\n    tag_216:\n        /* \"#utility.yul\":7807:7873   */\n      swap1\n      pop\n        /* \"#utility.yul\":7737:7879   */\n      swap2\n      swap1\n      pop\n      jump\t// out\n        /* \"#utility.yul\":7885:7960   */\n    tag_111:\n        /* \"#utility.yul\":7928:7931   */\n      0x00\n        /* \"#utility.yul\":7949:7954   */\n      dup2\n        /* \"#utility.yul\":7942:7954   */\n      swap1\n      pop\n        /* \"#utility.yul\":7885:7960   */\n      swap2\n      swap1\n      pop\n      jump\t// out\n        /* \"#utility.yul\":7966:8235   */\n    tag_112:\n        /* \"#utility.yul\":8076:8115   */\n      tag_221\n        /* \"#utility.yul\":8107:8114   */\n      dup4\n        /* \"#utility.yul\":8076:8115   */\n      tag_110\n      jump\t// in\n    tag_221:\n        /* \"#utility.yul\":8137:8228   */\n      tag_222\n        /* \"#utility.yul\":8186:8227   */\n      tag_223\n        /* \"#utility.yul\":8210:8226   */\n      dup3\n        /* \"#utility.yul\":8186:8227   */\n      tag_111\n      jump\t// in\n    tag_223:\n        /* \"#utility.yul\":8178:8184   */\n      dup5\n        /* \"#utility.yul\":8171:8175   */\n      dup5\n        /* \"#utility.yul\":8165:8176   */\n      sload\n        /* \"#utility.yul\":8137:8228   */\n      tag_108\n      jump\t// in\n    tag_222:\n        /* \"#utility.yul\":8131:8135   */\n      dup3\n        /* \"#utility.yul\":8124:8229   */\n      sstore\n        /* \"#utility.yul\":8042:8235   */\n      pop\n        /* \"#utility.yul\":7966:8235   */\n      pop\n      pop\n      pop\n      jump\t// out\n        /* \"#utility.yul\":8241:8314   */\n    tag_113:\n        /* \"#utility.yul\":8286:8289   */\n      0x00\n        /* \"#utility.yul\":8241:8314   */\n      swap1\n      jump\t// out\n        /* \"#utility.yul\":8320:8509   */\n    tag_114:\n        /* \"#utility.yul\":8397:8429   */\n      tag_226\n      tag_113\n      jump\t// in\n    tag_226:\n        /* \"#utility.yul\":8438:8503   */\n      tag_227\n        /* \"#utility.yul\":8496:8502   */\n      dup2\n        /* \"#utility.yul\":8488:8494   */\n      dup5\n        /* \"#utility.yul\":8482:8486   */\n      dup5\n        /* \"#utility.yul\":8438:8503   */\n      tag_112\n      jump\t// in\n    tag_227:\n        /* \"#utility.yul\":8373:8509   */\n      pop\n        /* \"#utility.yul\":8320:8509   */\n      pop\n      pop\n      jump\t// out\n        /* \"#utility.yul\":8515:8701   */\n    tag_115:\n        /* \"#utility.yul\":8575:8695   */\n    tag_229:\n        /* \"#utility.yul\":8592:8595   */\n      dup2\n        /* \"#utility.yul\":8585:8590   */\n      dup2\n        /* \"#utility.yul\":8582:8596   */\n      lt\n        /* \"#utility.yul\":8575:8695   */\n      iszero\n      tag_231\n      jumpi\n        /* \"#utility.yul\":8646:8685   */\n      tag_232\n        /* \"#utility.yul\":8683:8684   */\n      0x00\n        /* \"#utility.yul\":8676:8681   */\n      dup3\n        /* \"#utility.yul\":8646:8685   */\n      tag_114\n      jump\t// in\n    tag_232:\n        /* \"#utility.yul\":8619:8620   */\n      0x01\n        /* \"#utility.yul\":8612:8617   */\n      dup2\n        /* \"#utility.yul\":8608:8621   */\n      add\n        /* \"#utility.yul\":8599:8621   */\n      swap1\n      pop\n        /* \"#utility.yul\":8575:8695   */\n      jump(tag_229)\n    tag_231:\n        /* \"#utility.yul\":8515:8701   */\n      pop\n      pop\n      jump\t// out\n        /* \"#utility.yul\":8707:9250   */\n    tag_116:\n        /* \"#utility.yul\":8808:8810   */\n      0x1f\n        /* \"#utility.yul\":8803:8806   */\n      dup3\n        /* \"#utility.yul\":8800:8811   */\n      gt\n        /* \"#utility.yul\":8797:9243   */\n      iszero\n      tag_234\n      jumpi\n        /* \"#utility.yul\":8842:8880   */\n      tag_235\n        /* \"#utility.yul\":8874:8879   */\n      dup2\n        /* \"#utility.yul\":8842:8880   */\n      tag_105\n      jump\t// in\n    tag_235:\n        /* \"#utility.yul\":8926:8955   */\n      tag_236\n        /* \"#utility.yul\":8944:8954   */\n      dup5\n        /* \"#utility.yul\":8926:8955   */\n      tag_106\n      jump\t// in\n    tag_236:\n        /* \"#utility.yul\":8916:8924   */\n      dup2\n        /* \"#utility.yul\":8912:8956   */\n      add\n        /* \"#utility.yul\":9109:9111   */\n      0x20\n        /* \"#utility.yul\":9097:9107   */\n      dup6\n        /* \"#utility.yul\":9094:9112   */\n      lt\n        /* \"#utility.yul\":9091:9140   */\n      iszero\n      tag_237\n      jumpi\n        /* \"#utility.yul\":9130:9138   */\n      dup2\n        /* \"#utility.yul\":9115:9138   */\n      swap1\n      pop\n        /* \"#utility.yul\":9091:9140   */\n    tag_237:\n        /* \"#utility.yul\":9153:9233   */\n      tag_238\n        /* \"#utility.yul\":9209:9231   */\n      tag_239\n        /* \"#utility.yul\":9227:9230   */\n      dup6\n        /* \"#utility.yul\":9209:9231   */\n      tag_106\n      jump\t// in\n    tag_239:\n        /* \"#utility.yul\":9199:9207   */\n      dup4\n        /* \"#utility.yul\":9195:9232   */\n      add\n        /* \"#utility.yul\":9182:9193   */\n      dup3\n        /* \"#utility.yul\":9153:9233   */\n      tag_115\n      jump\t// in\n    tag_238:\n        /* \"#utility.yul\":8812:9243   */\n      pop\n      pop\n        /* \"#utility.yul\":8797:9243   */\n    tag_234:\n        /* \"#utility.yul\":8707:9250   */\n      pop\n      pop\n      pop\n      jump\t// out\n        /* \"#utility.yul\":9256:9373   */\n    tag_117:\n        /* \"#utility.yul\":9310:9318   */\n      0x00\n        /* \"#utility.yul\":9360:9365   */\n      dup3\n        /* \"#utility.yul\":9354:9358   */\n      dup3\n        /* \"#utility.yul\":9350:9366   */\n      shr\n        /* \"#utility.yul\":9329:9366   */\n      swap1\n      pop\n        /* \"#utility.yul\":9256:9373   */\n      swap3\n      swap2\n      pop\n      pop\n      jump\t// out\n        /* \"#utility.yul\":9379:9548   */\n    tag_118:\n        /* \"#utility.yul\":9423:9429   */\n      0x00\n        /* \"#utility.yul\":9456:9507   */\n      tag_242\n        /* \"#utility.yul\":9504:9505   */\n      0x00\n        /* \"#utility.yul\":9500:9506   */\n      not\n        /* \"#utility.yul\":9492:9497   */\n      dup5\n        /* \"#utility.yul\":9489:9490   */\n      0x08\n        /* \"#utility.yul\":9485:9498   */\n      mul\n        /* \"#utility.yul\":9456:9507   */\n      tag_117\n      jump\t// in\n    tag_242:\n        /* \"#utility.yul\":9452:9508   */\n      not\n        /* \"#utility.yul\":9537:9541   */\n      dup1\n        /* \"#utility.yul\":9531:9535   */\n      dup4\n        /* \"#utility.yul\":9527:9542   */\n      and\n        /* \"#utility.yul\":9517:9542   */\n      swap2\n      pop\n        /* \"#utility.yul\":9430:9548   */\n      pop\n        /* \"#utility.yul\":9379:9548   */\n      swap3\n      swap2\n      pop\n      pop\n      jump\t// out\n        /* \"#utility.yul\":9553:9848   */\n    tag_119:\n        /* \"#utility.yul\":9629:9633   */\n      0x00\n        /* \"#utility.yul\":9775:9804   */\n      tag_244\n        /* \"#utility.yul\":9800:9803   */\n      dup4\n        /* \"#utility.yul\":9794:9798   */\n      dup4\n        /* \"#utility.yul\":9775:9804   */\n      tag_118\n      jump\t// in\n    tag_244:\n        /* \"#utility.yul\":9767:9804   */\n      swap2\n      pop\n        /* \"#utility.yul\":9837:9840   */\n      dup3\n        /* \"#utility.yul\":9834:9835   */\n      0x02\n        /* \"#utility.yul\":9830:9841   */\n      mul\n        /* \"#utility.yul\":9824:9828   */\n      dup3\n        /* \"#utility.yul\":9821:9842   */\n      or\n        /* \"#utility.yul\":9813:9842   */\n      swap1\n      pop\n        /* \"#utility.yul\":9553:9848   */\n      swap3\n      swap2\n      pop\n      pop\n      jump\t// out\n        /* \"#utility.yul\":9853:11248   */\n    tag_61:\n        /* \"#utility.yul\":9970:10007   */\n      tag_246\n        /* \"#utility.yul\":10003:10006   */\n      dup3\n        /* \"#utility.yul\":9970:10007   */\n      tag_102\n      jump\t// in\n    tag_246:\n        /* \"#utility.yul\":10072:10090   */\n      0xffffffffffffffff\n        /* \"#utility.yul\":10064:10070   */\n      dup2\n        /* \"#utility.yul\":10061:10091   */\n      gt\n        /* \"#utility.yul\":10058:10114   */\n      iszero\n      tag_247\n      jumpi\n        /* \"#utility.yul\":10094:10112   */\n      tag_248\n      tag_89\n      jump\t// in\n    tag_248:\n        /* \"#utility.yul\":10058:10114   */\n    tag_247:\n        /* \"#utility.yul\":10138:10176   */\n      tag_249\n        /* \"#utility.yul\":10170:10174   */\n      dup3\n        /* \"#utility.yul\":10164:10175   */\n      sload\n        /* \"#utility.yul\":10138:10176   */\n      tag_104\n      jump\t// in\n    tag_249:\n        /* \"#utility.yul\":10223:10290   */\n      tag_250\n        /* \"#utility.yul\":10283:10289   */\n      dup3\n        /* \"#utility.yul\":10275:10281   */\n      dup3\n        /* \"#utility.yul\":10269:10273   */\n      dup6\n        /* \"#utility.yul\":10223:10290   */\n      tag_116\n      jump\t// in\n    tag_250:\n        /* \"#utility.yul\":10317:10318   */\n      0x00\n        /* \"#utility.yul\":10341:10345   */\n      0x20\n        /* \"#utility.yul\":10328:10345   */\n      swap1\n      pop\n        /* \"#utility.yul\":10373:10375   */\n      0x1f\n        /* \"#utility.yul\":10365:10371   */\n      dup4\n        /* \"#utility.yul\":10362:10376   */\n      gt\n        /* \"#utility.yul\":10390:10391   */\n      0x01\n        /* \"#utility.yul\":10385:11003   */\n      dup2\n      eq\n      tag_252\n      jumpi\n        /* \"#utility.yul\":11047:11048   */\n      0x00\n        /* \"#utility.yul\":11064:11070   */\n      dup5\n        /* \"#utility.yul\":11061:11138   */\n      iszero\n      tag_253\n      jumpi\n        /* \"#utility.yul\":11113:11122   */\n      dup3\n        /* \"#utility.yul\":11108:11111   */\n      dup8\n        /* \"#utility.yul\":11104:11123   */\n      add\n        /* \"#utility.yul\":11098:11124   */\n      mload\n        /* \"#utility.yul\":11089:11124   */\n      swap1\n      pop\n        /* \"#utility.yul\":11061:11138   */\n    tag_253:\n        /* \"#utility.yul\":11164:11231   */\n      tag_254\n        /* \"#utility.yul\":11224:11230   */\n      dup6\n        /* \"#utility.yul\":11217:11222   */\n      dup3\n        /* \"#utility.yul\":11164:11231   */\n      tag_119\n      jump\t// in\n    tag_254:\n        /* \"#utility.yul\":11158:11162   */\n      dup7\n        /* \"#utility.yul\":11151:11232   */\n      sstore\n        /* \"#utility.yul\":11020:11242   */\n      pop\n        /* \"#utility.yul\":10355:11242   */\n      jump(tag_251)\n        /* \"#utility.yul\":10385:11003   */\n    tag_252:\n        /* \"#utility.yul\":10437:10441   */\n      0x1f\n        /* \"#utility.yul\":10433:10442   */\n      not\n        /* \"#utility.yul\":10425:10431   */\n      dup5\n        /* \"#utility.yul\":10421:10443   */\n      and\n        /* \"#utility.yul\":10471:10508   */\n      tag_255\n        /* \"#utility.yul\":10503:10507   */\n      dup7\n        /* \"#utility.yul\":10471:10508   */\n      tag_105\n      jump\t// in\n    tag_255:\n        /* \"#utility.yul\":10530:10531   */\n      0x00\n        /* \"#utility.yul\":10544:10752   */\n    tag_256:\n        /* \"#utility.yul\":10558:10565   */\n      dup3\n        /* \"#utility.yul\":10555:10556   */\n      dup2\n        /* \"#utility.yul\":10552:10566   */\n      lt\n        /* \"#utility.yul\":10544:10752   */\n      iszero\n      tag_258\n      jumpi\n        /* \"#utility.yul\":10637:10646   */\n      dup5\n        /* \"#utility.yul\":10632:10635   */\n      dup10\n        /* \"#utility.yul\":10628:10647   */\n      add\n        /* \"#utility.yul\":10622:10648   */\n      mload\n        /* \"#utility.yul\":10614:10620   */\n      dup3\n        /* \"#utility.yul\":10607:10649   */\n      sstore\n        /* \"#utility.yul\":10688:10689   */\n      0x01\n        /* \"#utility.yul\":10680:10686   */\n      dup3\n        /* \"#utility.yul\":10676:10690   */\n      add\n        /* \"#utility.yul\":10666:10690   */\n      swap2\n      pop\n        /* \"#utility.yul\":10735:10737   */\n      0x20\n        /* \"#utility.yul\":10724:10733   */\n      dup6\n        /* \"#utility.yul\":10720:10738   */\n      add\n        /* \"#utility.yul\":10707:10738   */\n      swap5\n      pop\n        /* \"#utility.yul\":10581:10585   */\n      0x20\n        /* \"#utility.yul\":10578:10579   */\n      dup2\n        /* \"#utility.yul\":10574:10586   */\n      add\n        /* \"#utility.yul\":10569:10586   */\n      swap1\n      pop\n        /* \"#utility.yul\":10544:10752   */\n      jump(tag_256)\n    tag_258:\n        /* \"#utility.yul\":10780:10786   */\n      dup7\n        /* \"#utility.yul\":10771:10778   */\n      dup4\n        /* \"#utility.yul\":10768:10787   */\n      lt\n        /* \"#utility.yul\":10765:10944   */\n      iszero\n      tag_259\n      jumpi\n        /* \"#utility.yul\":10838:10847   */\n      dup5\n        /* \"#utility.yul\":10833:10836   */\n      dup10\n        /* \"#utility.yul\":10829:10848   */\n      add\n        /* \"#utility.yul\":10823:10849   */\n      mload\n        /* \"#utility.yul\":10881:10929   */\n      tag_260\n        /* \"#utility.yul\":10923:10927   */\n      0x1f\n        /* \"#utility.yul\":10915:10921   */\n      dup10\n        /* \"#utility.yul\":10911:10928   */\n      and\n        /* \"#utility.yul\":10900:10909   */\n      dup3\n        /* \"#utility.yul\":10881:10929   */\n      tag_118\n      jump\t// in\n    tag_260:\n        /* \"#utility.yul\":10873:10879   */\n      dup4\n        /* \"#utility.yul\":10866:10930   */\n      sstore\n        /* \"#utility.yul\":10788:10944   */\n      pop\n        /* \"#utility.yul\":10765:10944   */\n    tag_259:\n        /* \"#utility.yul\":10990:10991   */\n      0x01\n        /* \"#utility.yul\":10986:10987   */\n      0x02\n        /* \"#utility.yul\":10978:10984   */\n      dup9\n        /* \"#utility.yul\":10974:10988   */\n      mul\n        /* \"#utility.yul\":10970:10992   */\n      add\n        /* \"#utility.yul\":10964:10968   */\n      dup9\n        /* \"#utility.yul\":10957:10993   */\n      sstore\n        /* \"#utility.yul\":10392:11003   */\n      pop\n      pop\n      pop\n        /* \"#utility.yul\":10355:11242   */\n    tag_251:\n      pop\n        /* \"#utility.yul\":9945:11248   */\n      pop\n      pop\n      pop\n        /* \"#utility.yul\":9853:11248   */\n      pop\n      pop\n      jump\t// out\n        /* \"#utility.yul\":11254:11434   */\n    tag_120:\n        /* \"#utility.yul\":11302:11379   */\n      0x4e487b7100000000000000000000000000000000000000000000000000000000\n        /* \"#utility.yul\":11299:11300   */\n      0x00\n        /* \"#utility.yul\":11292:11380   */\n      mstore\n        /* \"#utility.yul\":11399:11403   */\n      0x12\n        /* \"#utility.yul\":11396:11397   */\n      0x04\n        /* \"#utility.yul\":11389:11404   */\n      mstore\n        /* \"#utility.yul\":11423:11427   */\n      0x24\n        /* \"#utility.yul\":11420:11421   */\n      0x00\n        /* \"#utility.yul\":11413:11428   */\n      revert\n        /* \"#utility.yul\":11440:11625   */\n    tag_67:\n        /* \"#utility.yul\":11480:11481   */\n      0x00\n        /* \"#utility.yul\":11497:11517   */\n      tag_263\n        /* \"#utility.yul\":11515:11516   */\n      dup3\n        /* \"#utility.yul\":11497:11517   */\n      tag_77\n      jump\t// in\n    tag_263:\n        /* \"#utility.yul\":11492:11517   */\n      swap2\n      pop\n        /* \"#utility.yul\":11531:11551   */\n      tag_264\n        /* \"#utility.yul\":11549:11550   */\n      dup4\n        /* \"#utility.yul\":11531:11551   */\n      tag_77\n      jump\t// in\n    tag_264:\n        /* \"#utility.yul\":11526:11551   */\n      swap3\n      pop\n        /* \"#utility.yul\":11570:11571   */\n      dup3\n        /* \"#utility.yul\":11560:11595   */\n      tag_265\n      jumpi\n        /* \"#utility.yul\":11575:11593   */\n      tag_266\n      tag_120\n      jump\t// in\n    tag_266:\n        /* \"#utility.yul\":11560:11595   */\n    tag_265:\n        /* \"#utility.yul\":11617:11618   */\n      dup3\n        /* \"#utility.yul\":11614:11615   */\n      dup3\n        /* \"#utility.yul\":11610:11619   */\n      div\n        /* \"#utility.yul\":11605:11619   */\n      swap1\n      pop\n        /* \"#utility.yul\":11440:11625   */\n      swap3\n      swap2\n      pop\n      pop\n      jump\t// out\n\n    auxdata: 0xa2646970667358221220f82b017825af7f554a9dfefc7c439e644ac23519f550ade0a3d7121d9c3ae5b964736f6c63430008120033\n}\n",
				"bytecode": {
					"linkReferences": {},
					"object": "60806040523480156200001157600080fd5b50604051620010a3380380620010a38339818101604052810190620000379190620000db565b33600160006101000a81548173ffffffffffffffffffffffffffffffffffffffff021916908373ffffffffffffffffffffffffffffffffffffffff1602179055508160058190555080426200008d919062000151565b60068190555050506200018c565b600080fd5b6000819050919050565b620000b581620000a0565b8114620000c157600080fd5b50565b600081519050620000d581620000aa565b92915050565b60008060408385031215620000f557620000f46200009b565b5b60006200010585828601620000c4565b92505060206200011885828601620000c4565b9150509250929050565b7f4e487b7100000000000000000000000000000000000000000000000000000000600052601160045260246000fd5b60006200015e82620000a0565b91506200016b83620000a0565b925082820190508082111562000186576200018562000122565b5b92915050565b610f07806200019c6000396000f3fe60806040526004361061007b5760003560e01c80637f24abbe1161004e5780637f24abbe146100fc5780638b3c99e314610125578063c1f11b4c14610141578063fd4a77f11461016c5761007b565b806312065fe0146100805780631f6d4942146100ab57806350520b1f146100e8578063590e1ae3146100f2575b600080fd5b34801561008c57600080fd5b50610095610195565b6040516100a291906107d7565b60405180910390f35b3480156100b757600080fd5b506100d260048036038101906100cd9190610864565b61019d565b6040516100df91906107d7565b60405180910390f35b6100f06101b5565b005b6100fa610292565b005b34801561010857600080fd5b50610123600480360381019061011e9190610a41565b6103cc565b005b61013f600480360381019061013a9190610ab0565b6104e2565b005b34801561014d57600080fd5b5061015661062d565b60405161016391906107d7565b60405180910390f35b34801561017857600080fd5b50610193600480360381019061018e9190610ab0565b610633565b005b600047905090565b60006020528060005260406000206000915090505481565b60065442106101c357600080fd5b60008060003373ffffffffffffffffffffffffffffffffffffffff1673ffffffffffffffffffffffffffffffffffffffff1681526020019081526020016000205403610222576004600081548092919061021c90610b0c565b91905055505b346000803373ffffffffffffffffffffffffffffffffffffffff1673ffffffffffffffffffffffffffffffffffffffff16815260200190815260200160002060008282546102709190610b54565b9250508190555034600360008282546102899190610b54565b92505081905550565b42600654116102a057600080fd5b600554600354106102b057600080fd5b60008060003373ffffffffffffffffffffffffffffffffffffffff1673ffffffffffffffffffffffffffffffffffffffff16815260200190815260200160002054116102fb57600080fd5b60003390508073ffffffffffffffffffffffffffffffffffffffff166108fc6000803373ffffffffffffffffffffffffffffffffffffffff1673ffffffffffffffffffffffffffffffffffffffff168152602001908152602001600020549081150290604051600060405180830381858888f19350505050158015610384573d6000803e3d6000fd5b5060008060003373ffffffffffffffffffffffffffffffffffffffff1673ffffffffffffffffffffffffffffffffffffffff1681526020019081526020016000208190555050565b3373ffffffffffffffffffffffffffffffffffffffff16600160009054906101000a900473ffffffffffffffffffffffffffffffffffffffff1673ffffffffffffffffffffffffffffffffffffffff161461042657600080fd5b60006007600060085481526020019081526020016000209050838160000190816104509190610d9f565b50828160010160006101000a81548173ffffffffffffffffffffffffffffffffffffffff021916908373ffffffffffffffffffffffffffffffffffffffff16021790555081816002018190555060008160040160006101000a81548160ff02191690831515021790555060008160030181905550600860008154809291906104d790610b0c565b919050555050505050565b3373ffffffffffffffffffffffffffffffffffffffff16600160009054906101000a900473ffffffffffffffffffffffffffffffffffffffff1673ffffffffffffffffffffffffffffffffffffffff161461053c57600080fd5b600554600354101561054d57600080fd5b600060076000838152602001908152602001600020905060026004546105739190610ea0565b8160030154101561058357600080fd5b600015158160040160009054906101000a900460ff161515146105a557600080fd5b8060010160009054906101000a900473ffffffffffffffffffffffffffffffffffffffff1673ffffffffffffffffffffffffffffffffffffffff166108fc82600201549081150290604051600060405180830381858888f19350505050158015610613573d6000803e3d6000fd5b50600115158160040160009054906101000a905050505050565b60085481565b3373ffffffffffffffffffffffffffffffffffffffff16600160009054906101000a900473ffffffffffffffffffffffffffffffffffffffff1673ffffffffffffffffffffffffffffffffffffffff161461068d57600080fd5b60008060003373ffffffffffffffffffffffffffffffffffffffff1673ffffffffffffffffffffffffffffffffffffffff16815260200190815260200160002054116106d857600080fd5b6000600760008381526020019081526020016000209050600015158160050160003373ffffffffffffffffffffffffffffffffffffffff1673ffffffffffffffffffffffffffffffffffffffff16815260200190815260200160002060009054906101000a900460ff1615151461074e57600080fd5b600115158160050160003373ffffffffffffffffffffffffffffffffffffffff1673ffffffffffffffffffffffffffffffffffffffff16815260200190815260200160002060009054906101000a905050508060030160008154809291906107b590610b0c565b91905055505050565b6000819050919050565b6107d1816107be565b82525050565b60006020820190506107ec60008301846107c8565b92915050565b6000604051905090565b600080fd5b600080fd5b600073ffffffffffffffffffffffffffffffffffffffff82169050919050565b600061083182610806565b9050919050565b61084181610826565b811461084c57600080fd5b50565b60008135905061085e81610838565b92915050565b60006020828403121561087a576108796107fc565b5b60006108888482850161084f565b91505092915050565b600080fd5b600080fd5b6000601f19601f8301169050919050565b7f4e487b7100000000000000000000000000000000000000000000000000000000600052604160045260246000fd5b6108e48261089b565b810181811067ffffffffffffffff82111715610903576109026108ac565b5b80604052505050565b60006109166107f2565b905061092282826108db565b919050565b600067ffffffffffffffff821115610942576109416108ac565b5b61094b8261089b565b9050602081019050919050565b82818337600083830152505050565b600061097a61097584610927565b61090c565b90508281526020810184848401111561099657610995610896565b5b6109a1848285610958565b509392505050565b600082601f8301126109be576109bd610891565b5b81356109ce848260208601610967565b91505092915050565b60006109e282610806565b9050919050565b6109f2816109d7565b81146109fd57600080fd5b50565b600081359050610a0f816109e9565b92915050565b610a1e816107be565b8114610a2957600080fd5b50565b600081359050610a3b81610a15565b92915050565b600080600060608486031215610a5a57610a596107fc565b5b600084013567ffffffffffffffff811115610a7857610a77610801565b5b610a84868287016109a9565b9350506020610a9586828701610a00565b9250506040610aa686828701610a2c565b9150509250925092565b600060208284031215610ac657610ac56107fc565b5b6000610ad484828501610a2c565b91505092915050565b7f4e487b7100000000000000000000000000000000000000000000000000000000600052601160045260246000fd5b6000610b17826107be565b91507fffffffffffffffffffffffffffffffffffffffffffffffffffffffffffffffff8203610b4957610b48610add565b5b600182019050919050565b6000610b5f826107be565b9150610b6a836107be565b9250828201905080821115610b8257610b81610add565b5b92915050565b600081519050919050565b7f4e487b7100000000000000000000000000000000000000000000000000000000600052602260045260246000fd5b60006002820490506001821680610bda57607f821691505b602082108103610bed57610bec610b93565b5b50919050565b60008190508160005260206000209050919050565b60006020601f8301049050919050565b600082821b905092915050565b600060088302610c557fffffffffffffffffffffffffffffffffffffffffffffffffffffffffffffffff82610c18565b610c5f8683610c18565b95508019841693508086168417925050509392505050565b6000819050919050565b6000610c9c610c97610c92846107be565b610c77565b6107be565b9050919050565b6000819050919050565b610cb683610c81565b610cca610cc282610ca3565b848454610c25565b825550505050565b600090565b610cdf610cd2565b610cea818484610cad565b505050565b5b81811015610d0e57610d03600082610cd7565b600181019050610cf0565b5050565b601f821115610d5357610d2481610bf3565b610d2d84610c08565b81016020851015610d3c578190505b610d50610d4885610c08565b830182610cef565b50505b505050565b600082821c905092915050565b6000610d7660001984600802610d58565b1980831691505092915050565b6000610d8f8383610d65565b9150826002028217905092915050565b610da882610b88565b67ffffffffffffffff811115610dc157610dc06108ac565b5b610dcb8254610bc2565b610dd6828285610d12565b600060209050601f831160018114610e095760008415610df7578287015190505b610e018582610d83565b865550610e69565b601f198416610e1786610bf3565b60005b82811015610e3f57848901518255600182019150602085019450602081019050610e1a565b86831015610e5c5784890151610e58601f891682610d65565b8355505b6001600288020188555050505b505050505050565b7f4e487b7100000000000000000000000000000000000000000000000000000000600052601260045260246000fd5b6000610eab826107be565b9150610eb6836107be565b925082610ec657610ec5610e71565b5b82820490509291505056fea2646970667358221220f82b017825af7f554a9dfefc7c439e644ac23519f550ade0a3d7121d9c3ae5b964736f6c63430008120033",
					"opcodes": "PUSH1 0x80 PUSH1 0x40 MSTORE CALLVALUE DUP1 ISZERO PUSH3 0x11 JUMPI PUSH1 0x0 DUP1 REVERT JUMPDEST POP PUSH1 0x40 MLOAD PUSH3 0x10A3 CODESIZE SUB DUP1 PUSH3 0x10A3 DUP4 CODECOPY DUP2 DUP2 ADD PUSH1 0x40 MSTORE DUP2 ADD SWAP1 PUSH3 0x37 SWAP2 SWAP1 PUSH3 0xDB JUMP JUMPDEST CALLER PUSH1 0x1 PUSH1 0x0 PUSH2 0x100 EXP DUP2 SLOAD DUP2 PUSH20 0xFFFFFFFFFFFFFFFFFFFFFFFFFFFFFFFFFFFFFFFF MUL NOT AND SWAP1 DUP4 PUSH20 0xFFFFFFFFFFFFFFFFFFFFFFFFFFFFFFFFFFFFFFFF AND MUL OR SWAP1 SSTORE POP DUP2 PUSH1 0x5 DUP2 SWAP1 SSTORE POP DUP1 TIMESTAMP PUSH3 0x8D SWAP2 SWAP1 PUSH3 0x151 JUMP JUMPDEST PUSH1 0x6 DUP2 SWAP1 SSTORE POP POP POP PUSH3 0x18C JUMP JUMPDEST PUSH1 0x0 DUP1 REVERT JUMPDEST PUSH1 0x0 DUP2 SWAP1 POP SWAP2 SWAP1 POP JUMP JUMPDEST PUSH3 0xB5 DUP2 PUSH3 0xA0 JUMP JUMPDEST DUP2 EQ PUSH3 0xC1 JUMPI PUSH1 0x0 DUP1 REVERT JUMPDEST POP JUMP JUMPDEST PUSH1 0x0 DUP2 MLOAD SWAP1 POP PUSH3 0xD5 DUP2 PUSH3 0xAA JUMP JUMPDEST SWAP3 SWAP2 POP POP JUMP JUMPDEST PUSH1 0x0 DUP1 PUSH1 0x40 DUP4 DUP6 SUB SLT ISZERO PUSH3 0xF5 JUMPI PUSH3 0xF4 PUSH3 0x9B JUMP JUMPDEST JUMPDEST PUSH1 0x0 PUSH3 0x105 DUP6 DUP3 DUP7 ADD PUSH3 0xC4 JUMP JUMPDEST SWAP3 POP POP PUSH1 0x20 PUSH3 0x118 DUP6 DUP3 DUP7 ADD PUSH3 0xC4 JUMP JUMPDEST SWAP2 POP POP SWAP3 POP SWAP3 SWAP1 POP JUMP JUMPDEST PUSH32 0x4E487B7100000000000000000000000000000000000000000000000000000000 PUSH1 0x0 MSTORE PUSH1 0x11 PUSH1 0x4 MSTORE PUSH1 0x24 PUSH1 0x0 REVERT JUMPDEST PUSH1 0x0 PUSH3 0x15E DUP3 PUSH3 0xA0 JUMP JUMPDEST SWAP2 POP PUSH3 0x16B DUP4 PUSH3 0xA0 JUMP JUMPDEST SWAP3 POP DUP3 DUP3 ADD SWAP1 POP DUP1 DUP3 GT ISZERO PUSH3 0x186 JUMPI PUSH3 0x185 PUSH3 0x122 JUMP JUMPDEST JUMPDEST SWAP3 SWAP2 POP POP JUMP JUMPDEST PUSH2 0xF07 DUP1 PUSH3 0x19C PUSH1 0x0 CODECOPY PUSH1 0x0 RETURN INVALID PUSH1 0x80 PUSH1 0x40 MSTORE PUSH1 0x4 CALLDATASIZE LT PUSH2 0x7B JUMPI PUSH1 0x0 CALLDATALOAD PUSH1 0xE0 SHR DUP1 PUSH4 0x7F24ABBE GT PUSH2 0x4E JUMPI DUP1 PUSH4 0x7F24ABBE EQ PUSH2 0xFC JUMPI DUP1 PUSH4 0x8B3C99E3 EQ PUSH2 0x125 JUMPI DUP1 PUSH4 0xC1F11B4C EQ PUSH2 0x141 JUMPI DUP1 PUSH4 0xFD4A77F1 EQ PUSH2 0x16C JUMPI PUSH2 0x7B JUMP JUMPDEST DUP1 PUSH4 0x12065FE0 EQ PUSH2 0x80 JUMPI DUP1 PUSH4 0x1F6D4942 EQ PUSH2 0xAB JUMPI DUP1 PUSH4 0x50520B1F EQ PUSH2 0xE8 JUMPI DUP1 PUSH4 0x590E1AE3 EQ PUSH2 0xF2 JUMPI JUMPDEST PUSH1 0x0 DUP1 REVERT JUMPDEST CALLVALUE DUP1 ISZERO PUSH2 0x8C JUMPI PUSH1 0x0 DUP1 REVERT JUMPDEST POP PUSH2 0x95 PUSH2 0x195 JUMP JUMPDEST PUSH1 0x40 MLOAD PUSH2 0xA2 SWAP2 SWAP1 PUSH2 0x7D7 JUMP JUMPDEST PUSH1 0x40 MLOAD DUP1 SWAP2 SUB SWAP1 RETURN JUMPDEST CALLVALUE DUP1 ISZERO PUSH2 0xB7 JUMPI PUSH1 0x0 DUP1 REVERT JUMPDEST POP PUSH2 0xD2 PUSH1 0x4 DUP1 CALLDATASIZE SUB DUP2 ADD SWAP1 PUSH2 0xCD SWAP2 SWAP1 PUSH2 0x864 JUMP JUMPDEST PUSH2 0x19D JUMP JUMPDEST PUSH1 0x40 MLOAD PUSH2 0xDF SWAP2 SWAP1 PUSH2 0x7D7 JUMP JUMPDEST PUSH1 0x40 MLOAD DUP1 SWAP2 SUB SWAP1 RETURN JUMPDEST PUSH2 0xF0 PUSH2 0x1B5 JUMP JUMPDEST STOP JUMPDEST PUSH2 0xFA PUSH2 0x292 JUMP JUMPDEST STOP JUMPDEST CALLVALUE DUP1 ISZERO PUSH2 0x108 JUMPI PUSH1 0x0 DUP1 REVERT JUMPDEST POP PUSH2 0x123 PUSH1 0x4 DUP1 CALLDATASIZE SUB DUP2 ADD SWAP1 PUSH2 0x11E SWAP2 SWAP1 PUSH2 0xA41 JUMP JUMPDEST PUSH2 0x3CC JUMP JUMPDEST STOP JUMPDEST PUSH2 0x13F PUSH1 0x4 DUP1 CALLDATASIZE SUB DUP2 ADD SWAP1 PUSH2 0x13A SWAP2 SWAP1 PUSH2 0xAB0 JUMP JUMPDEST PUSH2 0x4E2 JUMP JUMPDEST STOP JUMPDEST CALLVALUE DUP1 ISZERO PUSH2 0x14D JUMPI PUSH1 0x0 DUP1 REVERT JUMPDEST POP PUSH2 0x156 PUSH2 0x62D JUMP JUMPDEST PUSH1 0x40 MLOAD PUSH2 0x163 SWAP2 SWAP1 PUSH2 0x7D7 JUMP JUMPDEST PUSH1 0x40 MLOAD DUP1 SWAP2 SUB SWAP1 RETURN JUMPDEST CALLVALUE DUP1 ISZERO PUSH2 0x178 JUMPI PUSH1 0x0 DUP1 REVERT JUMPDEST POP PUSH2 0x193 PUSH1 0x4 DUP1 CALLDATASIZE SUB DUP2 ADD SWAP1 PUSH2 0x18E SWAP2 SWAP1 PUSH2 0xAB0 JUMP JUMPDEST PUSH2 0x633 JUMP JUMPDEST STOP JUMPDEST PUSH1 0x0 SELFBALANCE SWAP1 POP SWAP1 JUMP JUMPDEST PUSH1 0x0 PUSH1 0x20 MSTORE DUP1 PUSH1 0x0 MSTORE PUSH1 0x40 PUSH1 0x0 KECCAK256 PUSH1 0x0 SWAP2 POP SWAP1 POP SLOAD DUP2 JUMP JUMPDEST PUSH1 0x6 SLOAD TIMESTAMP LT PUSH2 0x1C3 JUMPI PUSH1 0x0 DUP1 REVERT JUMPDEST PUSH1 0x0 DUP1 PUSH1 0x0 CALLER PUSH20 0xFFFFFFFFFFFFFFFFFFFFFFFFFFFFFFFFFFFFFFFF AND PUSH20 0xFFFFFFFFFFFFFFFFFFFFFFFFFFFFFFFFFFFFFFFF AND DUP2 MSTORE PUSH1 0x20 ADD SWAP1 DUP2 MSTORE PUSH1 0x20 ADD PUSH1 0x0 KECCAK256 SLOAD SUB PUSH2 0x222 JUMPI PUSH1 0x4 PUSH1 0x0 DUP2 SLOAD DUP1 SWAP3 SWAP2 SWAP1 PUSH2 0x21C SWAP1 PUSH2 0xB0C JUMP JUMPDEST SWAP2 SWAP1 POP SSTORE POP JUMPDEST CALLVALUE PUSH1 0x0 DUP1 CALLER PUSH20 0xFFFFFFFFFFFFFFFFFFFFFFFFFFFFFFFFFFFFFFFF AND PUSH20 0xFFFFFFFFFFFFFFFFFFFFFFFFFFFFFFFFFFFFFFFF AND DUP2 MSTORE PUSH1 0x20 ADD SWAP1 DUP2 MSTORE PUSH1 0x20 ADD PUSH1 0x0 KECCAK256 PUSH1 0x0 DUP3 DUP3 SLOAD PUSH2 0x270 SWAP2 SWAP1 PUSH2 0xB54 JUMP JUMPDEST SWAP3 POP POP DUP2 SWAP1 SSTORE POP CALLVALUE PUSH1 0x3 PUSH1 0x0 DUP3 DUP3 SLOAD PUSH2 0x289 SWAP2 SWAP1 PUSH2 0xB54 JUMP JUMPDEST SWAP3 POP POP DUP2 SWAP1 SSTORE POP JUMP JUMPDEST TIMESTAMP PUSH1 0x6 SLOAD GT PUSH2 0x2A0 JUMPI PUSH1 0x0 DUP1 REVERT JUMPDEST PUSH1 0x5 SLOAD PUSH1 0x3 SLOAD LT PUSH2 0x2B0 JUMPI PUSH1 0x0 DUP1 REVERT JUMPDEST PUSH1 0x0 DUP1 PUSH1 0x0 CALLER PUSH20 0xFFFFFFFFFFFFFFFFFFFFFFFFFFFFFFFFFFFFFFFF AND PUSH20 0xFFFFFFFFFFFFFFFFFFFFFFFFFFFFFFFFFFFFFFFF AND DUP2 MSTORE PUSH1 0x20 ADD SWAP1 DUP2 MSTORE PUSH1 0x20 ADD PUSH1 0x0 KECCAK256 SLOAD GT PUSH2 0x2FB JUMPI PUSH1 0x0 DUP1 REVERT JUMPDEST PUSH1 0x0 CALLER SWAP1 POP DUP1 PUSH20 0xFFFFFFFFFFFFFFFFFFFFFFFFFFFFFFFFFFFFFFFF AND PUSH2 0x8FC PUSH1 0x0 DUP1 CALLER PUSH20 0xFFFFFFFFFFFFFFFFFFFFFFFFFFFFFFFFFFFFFFFF AND PUSH20 0xFFFFFFFFFFFFFFFFFFFFFFFFFFFFFFFFFFFFFFFF AND DUP2 MSTORE PUSH1 0x20 ADD SWAP1 DUP2 MSTORE PUSH1 0x20 ADD PUSH1 0x0 KECCAK256 SLOAD SWAP1 DUP2 ISZERO MUL SWAP1 PUSH1 0x40 MLOAD PUSH1 0x0 PUSH1 0x40 MLOAD DUP1 DUP4 SUB DUP2 DUP6 DUP9 DUP9 CALL SWAP4 POP POP POP POP ISZERO DUP1 ISZERO PUSH2 0x384 JUMPI RETURNDATASIZE PUSH1 0x0 DUP1 RETURNDATACOPY RETURNDATASIZE PUSH1 0x0 REVERT JUMPDEST POP PUSH1 0x0 DUP1 PUSH1 0x0 CALLER PUSH20 0xFFFFFFFFFFFFFFFFFFFFFFFFFFFFFFFFFFFFFFFF AND PUSH20 0xFFFFFFFFFFFFFFFFFFFFFFFFFFFFFFFFFFFFFFFF AND DUP2 MSTORE PUSH1 0x20 ADD SWAP1 DUP2 MSTORE PUSH1 0x20 ADD PUSH1 0x0 KECCAK256 DUP2 SWAP1 SSTORE POP POP JUMP JUMPDEST CALLER PUSH20 0xFFFFFFFFFFFFFFFFFFFFFFFFFFFFFFFFFFFFFFFF AND PUSH1 0x1 PUSH1 0x0 SWAP1 SLOAD SWAP1 PUSH2 0x100 EXP SWAP1 DIV PUSH20 0xFFFFFFFFFFFFFFFFFFFFFFFFFFFFFFFFFFFFFFFF AND PUSH20 0xFFFFFFFFFFFFFFFFFFFFFFFFFFFFFFFFFFFFFFFF AND EQ PUSH2 0x426 JUMPI PUSH1 0x0 DUP1 REVERT JUMPDEST PUSH1 0x0 PUSH1 0x7 PUSH1 0x0 PUSH1 0x8 SLOAD DUP2 MSTORE PUSH1 0x20 ADD SWAP1 DUP2 MSTORE PUSH1 0x20 ADD PUSH1 0x0 KECCAK256 SWAP1 POP DUP4 DUP2 PUSH1 0x0 ADD SWAP1 DUP2 PUSH2 0x450 SWAP2 SWAP1 PUSH2 0xD9F JUMP JUMPDEST POP DUP3 DUP2 PUSH1 0x1 ADD PUSH1 0x0 PUSH2 0x100 EXP DUP2 SLOAD DUP2 PUSH20 0xFFFFFFFFFFFFFFFFFFFFFFFFFFFFFFFFFFFFFFFF MUL NOT AND SWAP1 DUP4 PUSH20 0xFFFFFFFFFFFFFFFFFFFFFFFFFFFFFFFFFFFFFFFF AND MUL OR SWAP1 SSTORE POP DUP2 DUP2 PUSH1 0x2 ADD DUP2 SWAP1 SSTORE POP PUSH1 0x0 DUP2 PUSH1 0x4 ADD PUSH1 0x0 PUSH2 0x100 EXP DUP2 SLOAD DUP2 PUSH1 0xFF MUL NOT AND SWAP1 DUP4 ISZERO ISZERO MUL OR SWAP1 SSTORE POP PUSH1 0x0 DUP2 PUSH1 0x3 ADD DUP2 SWAP1 SSTORE POP PUSH1 0x8 PUSH1 0x0 DUP2 SLOAD DUP1 SWAP3 SWAP2 SWAP1 PUSH2 0x4D7 SWAP1 PUSH2 0xB0C JUMP JUMPDEST SWAP2 SWAP1 POP SSTORE POP POP POP POP POP JUMP JUMPDEST CALLER PUSH20 0xFFFFFFFFFFFFFFFFFFFFFFFFFFFFFFFFFFFFFFFF AND PUSH1 0x1 PUSH1 0x0 SWAP1 SLOAD SWAP1 PUSH2 0x100 EXP SWAP1 DIV PUSH20 0xFFFFFFFFFFFFFFFFFFFFFFFFFFFFFFFFFFFFFFFF AND PUSH20 0xFFFFFFFFFFFFFFFFFFFFFFFFFFFFFFFFFFFFFFFF AND EQ PUSH2 0x53C JUMPI PUSH1 0x0 DUP1 REVERT JUMPDEST PUSH1 0x5 SLOAD PUSH1 0x3 SLOAD LT ISZERO PUSH2 0x54D JUMPI PUSH1 0x0 DUP1 REVERT JUMPDEST PUSH1 0x0 PUSH1 0x7 PUSH1 0x0 DUP4 DUP2 MSTORE PUSH1 0x20 ADD SWAP1 DUP2 MSTORE PUSH1 0x20 ADD PUSH1 0x0 KECCAK256 SWAP1 POP PUSH1 0x2 PUSH1 0x4 SLOAD PUSH2 0x573 SWAP2 SWAP1 PUSH2 0xEA0 JUMP JUMPDEST DUP2 PUSH1 0x3 ADD SLOAD LT ISZERO PUSH2 0x583 JUMPI PUSH1 0x0 DUP1 REVERT JUMPDEST PUSH1 0x0 ISZERO ISZERO DUP2 PUSH1 0x4 ADD PUSH1 0x0 SWAP1 SLOAD SWAP1 PUSH2 0x100 EXP SWAP1 DIV PUSH1 0xFF AND ISZERO ISZERO EQ PUSH2 0x5A5 JUMPI PUSH1 0x0 DUP1 REVERT JUMPDEST DUP1 PUSH1 0x1 ADD PUSH1 0x0 SWAP1 SLOAD SWAP1 PUSH2 0x100 EXP SWAP1 DIV PUSH20 0xFFFFFFFFFFFFFFFFFFFFFFFFFFFFFFFFFFFFFFFF AND PUSH20 0xFFFFFFFFFFFFFFFFFFFFFFFFFFFFFFFFFFFFFFFF AND PUSH2 0x8FC DUP3 PUSH1 0x2 ADD SLOAD SWAP1 DUP2 ISZERO MUL SWAP1 PUSH1 0x40 MLOAD PUSH1 0x0 PUSH1 0x40 MLOAD DUP1 DUP4 SUB DUP2 DUP6 DUP9 DUP9 CALL SWAP4 POP POP POP POP ISZERO DUP1 ISZERO PUSH2 0x613 JUMPI RETURNDATASIZE PUSH1 0x0 DUP1 RETURNDATACOPY RETURNDATASIZE PUSH1 0x0 REVERT JUMPDEST POP PUSH1 0x1 ISZERO ISZERO DUP2 PUSH1 0x4 ADD PUSH1 0x0 SWAP1 SLOAD SWAP1 PUSH2 0x100 EXP SWAP1 POP POP POP POP POP JUMP JUMPDEST PUSH1 0x8 SLOAD DUP2 JUMP JUMPDEST CALLER PUSH20 0xFFFFFFFFFFFFFFFFFFFFFFFFFFFFFFFFFFFFFFFF AND PUSH1 0x1 PUSH1 0x0 SWAP1 SLOAD SWAP1 PUSH2 0x100 EXP SWAP1 DIV PUSH20 0xFFFFFFFFFFFFFFFFFFFFFFFFFFFFFFFFFFFFFFFF AND PUSH20 0xFFFFFFFFFFFFFFFFFFFFFFFFFFFFFFFFFFFFFFFF AND EQ PUSH2 0x68D JUMPI PUSH1 0x0 DUP1 REVERT JUMPDEST PUSH1 0x0 DUP1 PUSH1 0x0 CALLER PUSH20 0xFFFFFFFFFFFFFFFFFFFFFFFFFFFFFFFFFFFFFFFF AND PUSH20 0xFFFFFFFFFFFFFFFFFFFFFFFFFFFFFFFFFFFFFFFF AND DUP2 MSTORE PUSH1 0x20 ADD SWAP1 DUP2 MSTORE PUSH1 0x20 ADD PUSH1 0x0 KECCAK256 SLOAD GT PUSH2 0x6D8 JUMPI PUSH1 0x0 DUP1 REVERT JUMPDEST PUSH1 0x0 PUSH1 0x7 PUSH1 0x0 DUP4 DUP2 MSTORE PUSH1 0x20 ADD SWAP1 DUP2 MSTORE PUSH1 0x20 ADD PUSH1 0x0 KECCAK256 SWAP1 POP PUSH1 0x0 ISZERO ISZERO DUP2 PUSH1 0x5 ADD PUSH1 0x0 CALLER PUSH20 0xFFFFFFFFFFFFFFFFFFFFFFFFFFFFFFFFFFFFFFFF AND PUSH20 0xFFFFFFFFFFFFFFFFFFFFFFFFFFFFFFFFFFFFFFFF AND DUP2 MSTORE PUSH1 0x20 ADD SWAP1 DUP2 MSTORE PUSH1 0x20 ADD PUSH1 0x0 KECCAK256 PUSH1 0x0 SWAP1 SLOAD SWAP1 PUSH2 0x100 EXP SWAP1 DIV PUSH1 0xFF AND ISZERO ISZERO EQ PUSH2 0x74E JUMPI PUSH1 0x0 DUP1 REVERT JUMPDEST PUSH1 0x1 ISZERO ISZERO DUP2 PUSH1 0x5 ADD PUSH1 0x0 CALLER PUSH20 0xFFFFFFFFFFFFFFFFFFFFFFFFFFFFFFFFFFFFFFFF AND PUSH20 0xFFFFFFFFFFFFFFFFFFFFFFFFFFFFFFFFFFFFFFFF AND DUP2 MSTORE PUSH1 0x20 ADD SWAP1 DUP2 MSTORE PUSH1 0x20 ADD PUSH1 0x0 KECCAK256 PUSH1 0x0 SWAP1 SLOAD SWAP1 PUSH2 0x100 EXP SWAP1 POP POP POP DUP1 PUSH1 0x3 ADD PUSH1 0x0 DUP2 SLOAD DUP1 SWAP3 SWAP2 SWAP1 PUSH2 0x7B5 SWAP1 PUSH2 0xB0C JUMP JUMPDEST SWAP2 SWAP1 POP SSTORE POP POP POP JUMP JUMPDEST PUSH1 0x0 DUP2 SWAP1 POP SWAP2 SWAP1 POP JUMP JUMPDEST PUSH2 0x7D1 DUP2 PUSH2 0x7BE JUMP JUMPDEST DUP3 MSTORE POP POP JUMP JUMPDEST PUSH1 0x0 PUSH1 0x20 DUP3 ADD SWAP1 POP PUSH2 0x7EC PUSH1 0x0 DUP4 ADD DUP5 PUSH2 0x7C8 JUMP JUMPDEST SWAP3 SWAP2 POP POP JUMP JUMPDEST PUSH1 0x0 PUSH1 0x40 MLOAD SWAP1 POP SWAP1 JUMP JUMPDEST PUSH1 0x0 DUP1 REVERT JUMPDEST PUSH1 0x0 DUP1 REVERT JUMPDEST PUSH1 0x0 PUSH20 0xFFFFFFFFFFFFFFFFFFFFFFFFFFFFFFFFFFFFFFFF DUP3 AND SWAP1 POP SWAP2 SWAP1 POP JUMP JUMPDEST PUSH1 0x0 PUSH2 0x831 DUP3 PUSH2 0x806 JUMP JUMPDEST SWAP1 POP SWAP2 SWAP1 POP JUMP JUMPDEST PUSH2 0x841 DUP2 PUSH2 0x826 JUMP JUMPDEST DUP2 EQ PUSH2 0x84C JUMPI PUSH1 0x0 DUP1 REVERT JUMPDEST POP JUMP JUMPDEST PUSH1 0x0 DUP2 CALLDATALOAD SWAP1 POP PUSH2 0x85E DUP2 PUSH2 0x838 JUMP JUMPDEST SWAP3 SWAP2 POP POP JUMP JUMPDEST PUSH1 0x0 PUSH1 0x20 DUP3 DUP5 SUB SLT ISZERO PUSH2 0x87A JUMPI PUSH2 0x879 PUSH2 0x7FC JUMP JUMPDEST JUMPDEST PUSH1 0x0 PUSH2 0x888 DUP5 DUP3 DUP6 ADD PUSH2 0x84F JUMP JUMPDEST SWAP2 POP POP SWAP3 SWAP2 POP POP JUMP JUMPDEST PUSH1 0x0 DUP1 REVERT JUMPDEST PUSH1 0x0 DUP1 REVERT JUMPDEST PUSH1 0x0 PUSH1 0x1F NOT PUSH1 0x1F DUP4 ADD AND SWAP1 POP SWAP2 SWAP1 POP JUMP JUMPDEST PUSH32 0x4E487B7100000000000000000000000000000000000000000000000000000000 PUSH1 0x0 MSTORE PUSH1 0x41 PUSH1 0x4 MSTORE PUSH1 0x24 PUSH1 0x0 REVERT JUMPDEST PUSH2 0x8E4 DUP3 PUSH2 0x89B JUMP JUMPDEST DUP2 ADD DUP2 DUP2 LT PUSH8 0xFFFFFFFFFFFFFFFF DUP3 GT OR ISZERO PUSH2 0x903 JUMPI PUSH2 0x902 PUSH2 0x8AC JUMP JUMPDEST JUMPDEST DUP1 PUSH1 0x40 MSTORE POP POP POP JUMP JUMPDEST PUSH1 0x0 PUSH2 0x916 PUSH2 0x7F2 JUMP JUMPDEST SWAP1 POP PUSH2 0x922 DUP3 DUP3 PUSH2 0x8DB JUMP JUMPDEST SWAP2 SWAP1 POP JUMP JUMPDEST PUSH1 0x0 PUSH8 0xFFFFFFFFFFFFFFFF DUP3 GT ISZERO PUSH2 0x942 JUMPI PUSH2 0x941 PUSH2 0x8AC JUMP JUMPDEST JUMPDEST PUSH2 0x94B DUP3 PUSH2 0x89B JUMP JUMPDEST SWAP1 POP PUSH1 0x20 DUP2 ADD SWAP1 POP SWAP2 SWAP1 POP JUMP JUMPDEST DUP3 DUP2 DUP4 CALLDATACOPY PUSH1 0x0 DUP4 DUP4 ADD MSTORE POP POP POP JUMP JUMPDEST PUSH1 0x0 PUSH2 0x97A PUSH2 0x975 DUP5 PUSH2 0x927 JUMP JUMPDEST PUSH2 0x90C JUMP JUMPDEST SWAP1 POP DUP3 DUP2 MSTORE PUSH1 0x20 DUP2 ADD DUP5 DUP5 DUP5 ADD GT ISZERO PUSH2 0x996 JUMPI PUSH2 0x995 PUSH2 0x896 JUMP JUMPDEST JUMPDEST PUSH2 0x9A1 DUP5 DUP3 DUP6 PUSH2 0x958 JUMP JUMPDEST POP SWAP4 SWAP3 POP POP POP JUMP JUMPDEST PUSH1 0x0 DUP3 PUSH1 0x1F DUP4 ADD SLT PUSH2 0x9BE JUMPI PUSH2 0x9BD PUSH2 0x891 JUMP JUMPDEST JUMPDEST DUP2 CALLDATALOAD PUSH2 0x9CE DUP5 DUP3 PUSH1 0x20 DUP7 ADD PUSH2 0x967 JUMP JUMPDEST SWAP2 POP POP SWAP3 SWAP2 POP POP JUMP JUMPDEST PUSH1 0x0 PUSH2 0x9E2 DUP3 PUSH2 0x806 JUMP JUMPDEST SWAP1 POP SWAP2 SWAP1 POP JUMP JUMPDEST PUSH2 0x9F2 DUP2 PUSH2 0x9D7 JUMP JUMPDEST DUP2 EQ PUSH2 0x9FD JUMPI PUSH1 0x0 DUP1 REVERT JUMPDEST POP JUMP JUMPDEST PUSH1 0x0 DUP2 CALLDATALOAD SWAP1 POP PUSH2 0xA0F DUP2 PUSH2 0x9E9 JUMP JUMPDEST SWAP3 SWAP2 POP POP JUMP JUMPDEST PUSH2 0xA1E DUP2 PUSH2 0x7BE JUMP JUMPDEST DUP2 EQ PUSH2 0xA29 JUMPI PUSH1 0x0 DUP1 REVERT JUMPDEST POP JUMP JUMPDEST PUSH1 0x0 DUP2 CALLDATALOAD SWAP1 POP PUSH2 0xA3B DUP2 PUSH2 0xA15 JUMP JUMPDEST SWAP3 SWAP2 POP POP JUMP JUMPDEST PUSH1 0x0 DUP1 PUSH1 0x0 PUSH1 0x60 DUP5 DUP7 SUB SLT ISZERO PUSH2 0xA5A JUMPI PUSH2 0xA59 PUSH2 0x7FC JUMP JUMPDEST JUMPDEST PUSH1 0x0 DUP5 ADD CALLDATALOAD PUSH8 0xFFFFFFFFFFFFFFFF DUP2 GT ISZERO PUSH2 0xA78 JUMPI PUSH2 0xA77 PUSH2 0x801 JUMP JUMPDEST JUMPDEST PUSH2 0xA84 DUP7 DUP3 DUP8 ADD PUSH2 0x9A9 JUMP JUMPDEST SWAP4 POP POP PUSH1 0x20 PUSH2 0xA95 DUP7 DUP3 DUP8 ADD PUSH2 0xA00 JUMP JUMPDEST SWAP3 POP POP PUSH1 0x40 PUSH2 0xAA6 DUP7 DUP3 DUP8 ADD PUSH2 0xA2C JUMP JUMPDEST SWAP2 POP POP SWAP3 POP SWAP3 POP SWAP3 JUMP JUMPDEST PUSH1 0x0 PUSH1 0x20 DUP3 DUP5 SUB SLT ISZERO PUSH2 0xAC6 JUMPI PUSH2 0xAC5 PUSH2 0x7FC JUMP JUMPDEST JUMPDEST PUSH1 0x0 PUSH2 0xAD4 DUP5 DUP3 DUP6 ADD PUSH2 0xA2C JUMP JUMPDEST SWAP2 POP POP SWAP3 SWAP2 POP POP JUMP JUMPDEST PUSH32 0x4E487B7100000000000000000000000000000000000000000000000000000000 PUSH1 0x0 MSTORE PUSH1 0x11 PUSH1 0x4 MSTORE PUSH1 0x24 PUSH1 0x0 REVERT JUMPDEST PUSH1 0x0 PUSH2 0xB17 DUP3 PUSH2 0x7BE JUMP JUMPDEST SWAP2 POP PUSH32 0xFFFFFFFFFFFFFFFFFFFFFFFFFFFFFFFFFFFFFFFFFFFFFFFFFFFFFFFFFFFFFFFF DUP3 SUB PUSH2 0xB49 JUMPI PUSH2 0xB48 PUSH2 0xADD JUMP JUMPDEST JUMPDEST PUSH1 0x1 DUP3 ADD SWAP1 POP SWAP2 SWAP1 POP JUMP JUMPDEST PUSH1 0x0 PUSH2 0xB5F DUP3 PUSH2 0x7BE JUMP JUMPDEST SWAP2 POP PUSH2 0xB6A DUP4 PUSH2 0x7BE JUMP JUMPDEST SWAP3 POP DUP3 DUP3 ADD SWAP1 POP DUP1 DUP3 GT ISZERO PUSH2 0xB82 JUMPI PUSH2 0xB81 PUSH2 0xADD JUMP JUMPDEST JUMPDEST SWAP3 SWAP2 POP POP JUMP JUMPDEST PUSH1 0x0 DUP2 MLOAD SWAP1 POP SWAP2 SWAP1 POP JUMP JUMPDEST PUSH32 0x4E487B7100000000000000000000000000000000000000000000000000000000 PUSH1 0x0 MSTORE PUSH1 0x22 PUSH1 0x4 MSTORE PUSH1 0x24 PUSH1 0x0 REVERT JUMPDEST PUSH1 0x0 PUSH1 0x2 DUP3 DIV SWAP1 POP PUSH1 0x1 DUP3 AND DUP1 PUSH2 0xBDA JUMPI PUSH1 0x7F DUP3 AND SWAP2 POP JUMPDEST PUSH1 0x20 DUP3 LT DUP2 SUB PUSH2 0xBED JUMPI PUSH2 0xBEC PUSH2 0xB93 JUMP JUMPDEST JUMPDEST POP SWAP2 SWAP1 POP JUMP JUMPDEST PUSH1 0x0 DUP2 SWAP1 POP DUP2 PUSH1 0x0 MSTORE PUSH1 0x20 PUSH1 0x0 KECCAK256 SWAP1 POP SWAP2 SWAP1 POP JUMP JUMPDEST PUSH1 0x0 PUSH1 0x20 PUSH1 0x1F DUP4 ADD DIV SWAP1 POP SWAP2 SWAP1 POP JUMP JUMPDEST PUSH1 0x0 DUP3 DUP3 SHL SWAP1 POP SWAP3 SWAP2 POP POP JUMP JUMPDEST PUSH1 0x0 PUSH1 0x8 DUP4 MUL PUSH2 0xC55 PUSH32 0xFFFFFFFFFFFFFFFFFFFFFFFFFFFFFFFFFFFFFFFFFFFFFFFFFFFFFFFFFFFFFFFF DUP3 PUSH2 0xC18 JUMP JUMPDEST PUSH2 0xC5F DUP7 DUP4 PUSH2 0xC18 JUMP JUMPDEST SWAP6 POP DUP1 NOT DUP5 AND SWAP4 POP DUP1 DUP7 AND DUP5 OR SWAP3 POP POP POP SWAP4 SWAP3 POP POP POP JUMP JUMPDEST PUSH1 0x0 DUP2 SWAP1 POP SWAP2 SWAP1 POP JUMP JUMPDEST PUSH1 0x0 PUSH2 0xC9C PUSH2 0xC97 PUSH2 0xC92 DUP5 PUSH2 0x7BE JUMP JUMPDEST PUSH2 0xC77 JUMP JUMPDEST PUSH2 0x7BE JUMP JUMPDEST SWAP1 POP SWAP2 SWAP1 POP JUMP JUMPDEST PUSH1 0x0 DUP2 SWAP1 POP SWAP2 SWAP1 POP JUMP JUMPDEST PUSH2 0xCB6 DUP4 PUSH2 0xC81 JUMP JUMPDEST PUSH2 0xCCA PUSH2 0xCC2 DUP3 PUSH2 0xCA3 JUMP JUMPDEST DUP5 DUP5 SLOAD PUSH2 0xC25 JUMP JUMPDEST DUP3 SSTORE POP POP POP POP JUMP JUMPDEST PUSH1 0x0 SWAP1 JUMP JUMPDEST PUSH2 0xCDF PUSH2 0xCD2 JUMP JUMPDEST PUSH2 0xCEA DUP2 DUP5 DUP5 PUSH2 0xCAD JUMP JUMPDEST POP POP POP JUMP JUMPDEST JUMPDEST DUP2 DUP2 LT ISZERO PUSH2 0xD0E JUMPI PUSH2 0xD03 PUSH1 0x0 DUP3 PUSH2 0xCD7 JUMP JUMPDEST PUSH1 0x1 DUP2 ADD SWAP1 POP PUSH2 0xCF0 JUMP JUMPDEST POP POP JUMP JUMPDEST PUSH1 0x1F DUP3 GT ISZERO PUSH2 0xD53 JUMPI PUSH2 0xD24 DUP2 PUSH2 0xBF3 JUMP JUMPDEST PUSH2 0xD2D DUP5 PUSH2 0xC08 JUMP JUMPDEST DUP2 ADD PUSH1 0x20 DUP6 LT ISZERO PUSH2 0xD3C JUMPI DUP2 SWAP1 POP JUMPDEST PUSH2 0xD50 PUSH2 0xD48 DUP6 PUSH2 0xC08 JUMP JUMPDEST DUP4 ADD DUP3 PUSH2 0xCEF JUMP JUMPDEST POP POP JUMPDEST POP POP POP JUMP JUMPDEST PUSH1 0x0 DUP3 DUP3 SHR SWAP1 POP SWAP3 SWAP2 POP POP JUMP JUMPDEST PUSH1 0x0 PUSH2 0xD76 PUSH1 0x0 NOT DUP5 PUSH1 0x8 MUL PUSH2 0xD58 JUMP JUMPDEST NOT DUP1 DUP4 AND SWAP2 POP POP SWAP3 SWAP2 POP POP JUMP JUMPDEST PUSH1 0x0 PUSH2 0xD8F DUP4 DUP4 PUSH2 0xD65 JUMP JUMPDEST SWAP2 POP DUP3 PUSH1 0x2 MUL DUP3 OR SWAP1 POP SWAP3 SWAP2 POP POP JUMP JUMPDEST PUSH2 0xDA8 DUP3 PUSH2 0xB88 JUMP JUMPDEST PUSH8 0xFFFFFFFFFFFFFFFF DUP2 GT ISZERO PUSH2 0xDC1 JUMPI PUSH2 0xDC0 PUSH2 0x8AC JUMP JUMPDEST JUMPDEST PUSH2 0xDCB DUP3 SLOAD PUSH2 0xBC2 JUMP JUMPDEST PUSH2 0xDD6 DUP3 DUP3 DUP6 PUSH2 0xD12 JUMP JUMPDEST PUSH1 0x0 PUSH1 0x20 SWAP1 POP PUSH1 0x1F DUP4 GT PUSH1 0x1 DUP2 EQ PUSH2 0xE09 JUMPI PUSH1 0x0 DUP5 ISZERO PUSH2 0xDF7 JUMPI DUP3 DUP8 ADD MLOAD SWAP1 POP JUMPDEST PUSH2 0xE01 DUP6 DUP3 PUSH2 0xD83 JUMP JUMPDEST DUP7 SSTORE POP PUSH2 0xE69 JUMP JUMPDEST PUSH1 0x1F NOT DUP5 AND PUSH2 0xE17 DUP7 PUSH2 0xBF3 JUMP JUMPDEST PUSH1 0x0 JUMPDEST DUP3 DUP2 LT ISZERO PUSH2 0xE3F JUMPI DUP5 DUP10 ADD MLOAD DUP3 SSTORE PUSH1 0x1 DUP3 ADD SWAP2 POP PUSH1 0x20 DUP6 ADD SWAP5 POP PUSH1 0x20 DUP2 ADD SWAP1 POP PUSH2 0xE1A JUMP JUMPDEST DUP7 DUP4 LT ISZERO PUSH2 0xE5C JUMPI DUP5 DUP10 ADD MLOAD PUSH2 0xE58 PUSH1 0x1F DUP10 AND DUP3 PUSH2 0xD65 JUMP JUMPDEST DUP4 SSTORE POP JUMPDEST PUSH1 0x1 PUSH1 0x2 DUP9 MUL ADD DUP9 SSTORE POP POP POP JUMPDEST POP POP POP POP POP POP JUMP JUMPDEST PUSH32 0x4E487B7100000000000000000000000000000000000000000000000000000000 PUSH1 0x0 MSTORE PUSH1 0x12 PUSH1 0x4 MSTORE PUSH1 0x24 PUSH1 0x0 REVERT JUMPDEST PUSH1 0x0 PUSH2 0xEAB DUP3 PUSH2 0x7BE JUMP JUMPDEST SWAP2 POP PUSH2 0xEB6 DUP4 PUSH2 0x7BE JUMP JUMPDEST SWAP3 POP DUP3 PUSH2 0xEC6 JUMPI PUSH2 0xEC5 PUSH2 0xE71 JUMP JUMPDEST JUMPDEST DUP3 DUP3 DIV SWAP1 POP SWAP3 SWAP2 POP POP JUMP INVALID LOG2 PUSH5 0x6970667358 0x22 SLT KECCAK256 0xF8 0x2B ADD PUSH25 0x25AF7F554A9DFEFC7C439E644AC23519F550ADE0A3D7121D9C GASPRICE 0xE5 0xB9 PUSH5 0x736F6C6343 STOP ADDMOD SLT STOP CALLER "
				},
				"gasEstimates": {
					"creation": {
						"codeDepositCost": "769400",
						"executionCost": "infinite",
						"totalCost": "infinite"
					},
					"external": {
						"contribution()": "infinite",
						"contributors(address)": "2837",
						"creatRequest(string,address,uint256)": "infinite",
						"getBalance()": "340",
						"noOfRequests()": "2473",
						"payment(uint256)": "infinite",
						"refund()": "infinite",
						"voting(uint256)": "infinite"
					}
				},
				"methodIdentifiers": {
					"contribution()": "50520b1f",
					"contributors(address)": "1f6d4942",
					"creatRequest(string,address,uint256)": "7f24abbe",
					"getBalance()": "12065fe0",
					"noOfRequests()": "c1f11b4c",
					"payment(uint256)": "8b3c99e3",
					"refund()": "590e1ae3",
					"voting(uint256)": "fd4a77f1"
				}
			},
			"storageLayout": {
				"storage": [
					{
						"astId": 5,
						"contract": "contracts/crowd funding.sol:crowdFunding",
						"label": "contributors",
						"offset": 0,
						"slot": "0",
						"type": "t_mapping(t_address,t_uint256)"
					},
					{
						"astId": 7,
						"contract": "contracts/crowd funding.sol:crowdFunding",
						"label": "manager",
						"offset": 0,
						"slot": "1",
						"type": "t_address"
					},
					{
						"astId": 9,
						"contract": "contracts/crowd funding.sol:crowdFunding",
						"label": "minContribution",
						"offset": 0,
						"slot": "2",
						"type": "t_uint256"
					},
					{
						"astId": 11,
						"contract": "contracts/crowd funding.sol:crowdFunding",
						"label": "raisedAmount",
						"offset": 0,
						"slot": "3",
						"type": "t_uint256"
					},
					{
						"astId": 13,
						"contract": "contracts/crowd funding.sol:crowdFunding",
						"label": "noOfContributors",
						"offset": 0,
						"slot": "4",
						"type": "t_uint256"
					},
					{
						"astId": 15,
						"contract": "contracts/crowd funding.sol:crowdFunding",
						"label": "target",
						"offset": 0,
						"slot": "5",
						"type": "t_uint256"
					},
					{
						"astId": 17,
						"contract": "contracts/crowd funding.sol:crowdFunding",
						"label": "deadline",
						"offset": 0,
						"slot": "6",
						"type": "t_uint256"
					},
					{
						"astId": 61,
						"contract": "contracts/crowd funding.sol:crowdFunding",
						"label": "requests",
						"offset": 0,
						"slot": "7",
						"type": "t_mapping(t_uint256,t_struct(Request)56_storage)"
					},
					{
						"astId": 63,
						"contract": "contracts/crowd funding.sol:crowdFunding",
						"label": "noOfRequests",
						"offset": 0,
						"slot": "8",
						"type": "t_uint256"
					}
				],
				"types": {
					"t_address": {
						"encoding": "inplace",
						"label": "address",
						"numberOfBytes": "20"
					},
					"t_address_payable": {
						"encoding": "inplace",
						"label": "address payable",
						"numberOfBytes": "20"
					},
					"t_bool": {
						"encoding": "inplace",
						"label": "bool",
						"numberOfBytes": "1"
					},
					"t_mapping(t_address,t_bool)": {
						"encoding": "mapping",
						"key": "t_address",
						"label": "mapping(address => bool)",
						"numberOfBytes": "32",
						"value": "t_bool"
					},
					"t_mapping(t_address,t_uint256)": {
						"encoding": "mapping",
						"key": "t_address",
						"label": "mapping(address => uint256)",
						"numberOfBytes": "32",
						"value": "t_uint256"
					},
					"t_mapping(t_uint256,t_struct(Request)56_storage)": {
						"encoding": "mapping",
						"key": "t_uint256",
						"label": "mapping(uint256 => struct crowdFunding.Request)",
						"numberOfBytes": "32",
						"value": "t_struct(Request)56_storage"
					},
					"t_string_storage": {
						"encoding": "bytes",
						"label": "string",
						"numberOfBytes": "32"
					},
					"t_struct(Request)56_storage": {
						"encoding": "inplace",
						"label": "struct crowdFunding.Request",
						"members": [
							{
								"astId": 43,
								"contract": "contracts/crowd funding.sol:crowdFunding",
								"label": "description",
								"offset": 0,
								"slot": "0",
								"type": "t_string_storage"
							},
							{
								"astId": 45,
								"contract": "contracts/crowd funding.sol:crowdFunding",
								"label": "recepient",
								"offset": 0,
								"slot": "1",
								"type": "t_address_payable"
							},
							{
								"astId": 47,
								"contract": "contracts/crowd funding.sol:crowdFunding",
								"label": "value",
								"offset": 0,
								"slot": "2",
								"type": "t_uint256"
							},
							{
								"astId": 49,
								"contract": "contracts/crowd funding.sol:crowdFunding",
								"label": "noOFVoters",
								"offset": 0,
								"slot": "3",
								"type": "t_uint256"
							},
							{
								"astId": 51,
								"contract": "contracts/crowd funding.sol:crowdFunding",
								"label": "completed",
								"offset": 0,
								"slot": "4",
								"type": "t_bool"
							},
							{
								"astId": 55,
								"contract": "contracts/crowd funding.sol:crowdFunding",
								"label": "voters",
								"offset": 0,
								"slot": "5",
								"type": "t_mapping(t_address,t_bool)"
							}
						],
						"numberOfBytes": "192"
					},
					"t_uint256": {
						"encoding": "inplace",
						"label": "uint256",
						"numberOfBytes": "32"
					}
				}
			},
			"userdoc": {
				"kind": "user",
				"methods": {},
				"version": 1
			}
		}
	}
}