{
	"contracts/government.sol": {
		"Government": {
			"abi": [
				{
					"inputs": [],
					"stateMutability": "nonpayable",
					"type": "constructor"
				},
				{
					"inputs": [
						{
							"internalType": "string",
							"name": "_name",
							"type": "string"
						},
						{
							"internalType": "uint256",
							"name": "_ID",
							"type": "uint256"
						},
						{
							"internalType": "uint256",
							"name": "index",
							"type": "uint256"
						}
					],
					"name": "addCitizen",
					"outputs": [],
					"stateMutability": "nonpayable",
					"type": "function"
				},
				{
					"inputs": [
						{
							"internalType": "address",
							"name": "_account",
							"type": "address"
						},
						{
							"internalType": "string",
							"name": "_name",
							"type": "string"
						},
						{
							"internalType": "string",
							"name": "_designation",
							"type": "string"
						},
						{
							"internalType": "uint256",
							"name": "_ID",
							"type": "uint256"
						},
						{
							"internalType": "uint256",
							"name": "_vote",
							"type": "uint256"
						}
					],
					"name": "addOfficial",
					"outputs": [],
					"stateMutability": "nonpayable",
					"type": "function"
				},
				{
					"inputs": [
						{
							"internalType": "uint256",
							"name": "citizenID",
							"type": "uint256"
						},
						{
							"internalType": "address",
							"name": "officialAddress",
							"type": "address"
						}
					],
					"name": "addVote",
					"outputs": [],
					"stateMutability": "nonpayable",
					"type": "function"
				},
				{
					"inputs": [
						{
							"internalType": "uint256",
							"name": "",
							"type": "uint256"
						}
					],
					"name": "citizens",
					"outputs": [
						{
							"internalType": "string",
							"name": "name",
							"type": "string"
						},
						{
							"internalType": "uint256",
							"name": "ID",
							"type": "uint256"
						},
						{
							"internalType": "bool",
							"name": "voteCasted",
							"type": "bool"
						}
					],
					"stateMutability": "view",
					"type": "function"
				},
				{
					"inputs": [
						{
							"internalType": "address",
							"name": "",
							"type": "address"
						}
					],
					"name": "officials",
					"outputs": [
						{
							"internalType": "string",
							"name": "name",
							"type": "string"
						},
						{
							"internalType": "string",
							"name": "designation",
							"type": "string"
						},
						{
							"internalType": "uint256",
							"name": "ID",
							"type": "uint256"
						},
						{
							"internalType": "uint256",
							"name": "vote",
							"type": "uint256"
						},
						{
							"internalType": "address",
							"name": "account",
							"type": "address"
						}
					],
					"stateMutability": "view",
					"type": "function"
				}
			],
			"devdoc": {
				"kind": "dev",
				"methods": {},
				"version": 1
			},
			"evm": {
				"assembly": "    /* \"contracts/government.sol\":56:1557  contract Government{... */\n  mstore(0x40, 0x80)\n    /* \"contracts/government.sol\":429:485  constructor (){... */\n  callvalue\n  dup1\n  iszero\n  tag_1\n  jumpi\n  0x00\n  dup1\n  revert\ntag_1:\n  pop\n    /* \"contracts/government.sol\":467:477  msg.sender */\n  caller\n    /* \"contracts/government.sol\":453:458  owner */\n  0x02\n  0x00\n    /* \"contracts/government.sol\":453:478  owner=payable(msg.sender) */\n  0x0100\n  exp\n  dup2\n  sload\n  dup2\n  0xffffffffffffffffffffffffffffffffffffffff\n  mul\n  not\n  and\n  swap1\n  dup4\n  0xffffffffffffffffffffffffffffffffffffffff\n  and\n  mul\n  or\n  swap1\n  sstore\n  pop\n    /* \"contracts/government.sol\":56:1557  contract Government{... */\n  dataSize(sub_0)\n  dup1\n  dataOffset(sub_0)\n  0x00\n  codecopy\n  0x00\n  return\nstop\n\nsub_0: assembly {\n        /* \"contracts/government.sol\":56:1557  contract Government{... */\n      mstore(0x40, 0x80)\n      callvalue\n      dup1\n      iszero\n      tag_1\n      jumpi\n      0x00\n      dup1\n      revert\n    tag_1:\n      pop\n      jumpi(tag_2, lt(calldatasize, 0x04))\n      shr(0xe0, calldataload(0x00))\n      dup1\n      0x09a34f00\n      eq\n      tag_3\n      jumpi\n      dup1\n      0x129b873b\n      eq\n      tag_4\n      jumpi\n      dup1\n      0x3f3f6238\n      eq\n      tag_5\n      jumpi\n      dup1\n      0xd93321ef\n      eq\n      tag_6\n      jumpi\n      dup1\n      0xd938b386\n      eq\n      tag_7\n      jumpi\n    tag_2:\n      0x00\n      dup1\n      revert\n        /* \"contracts/government.sol\":356:395  mapping(uint=>citizen)  public citizens */\n    tag_3:\n      tag_8\n      0x04\n      dup1\n      calldatasize\n      sub\n      dup2\n      add\n      swap1\n      tag_9\n      swap2\n      swap1\n      tag_10\n      jump\t// in\n    tag_9:\n      tag_11\n      jump\t// in\n    tag_8:\n      mload(0x40)\n      tag_12\n      swap4\n      swap3\n      swap2\n      swap1\n      tag_13\n      jump\t// in\n    tag_12:\n      mload(0x40)\n      dup1\n      swap2\n      sub\n      swap1\n      return\n        /* \"contracts/government.sol\":1167:1554  function addVote(uint citizenID,address officialAddress) public {... */\n    tag_4:\n      tag_14\n      0x04\n      dup1\n      calldatasize\n      sub\n      dup2\n      add\n      swap1\n      tag_15\n      swap2\n      swap1\n      tag_16\n      jump\t// in\n    tag_15:\n      tag_17\n      jump\t// in\n    tag_14:\n      stop\n        /* \"contracts/government.sol\":874:1162  function addCitizen(string memory _name,uint _ID,uint index) public{... */\n    tag_5:\n      tag_18\n      0x04\n      dup1\n      calldatasize\n      sub\n      dup2\n      add\n      swap1\n      tag_19\n      swap2\n      swap1\n      tag_20\n      jump\t// in\n    tag_19:\n      tag_21\n      jump\t// in\n    tag_18:\n      stop\n        /* \"contracts/government.sol\":218:261  mapping(address=>official) public officials */\n    tag_6:\n      tag_22\n      0x04\n      dup1\n      calldatasize\n      sub\n      dup2\n      add\n      swap1\n      tag_23\n      swap2\n      swap1\n      tag_24\n      jump\t// in\n    tag_23:\n      tag_25\n      jump\t// in\n    tag_22:\n      mload(0x40)\n      tag_26\n      swap6\n      swap5\n      swap4\n      swap3\n      swap2\n      swap1\n      tag_27\n      jump\t// in\n    tag_26:\n      mload(0x40)\n      dup1\n      swap2\n      sub\n      swap1\n      return\n        /* \"contracts/government.sol\":491:869  function addOfficial(address _account,string memory _name,string memory _designation,uint _ID,uint _vote) public{... */\n    tag_7:\n      tag_28\n      0x04\n      dup1\n      calldatasize\n      sub\n      dup2\n      add\n      swap1\n      tag_29\n      swap2\n      swap1\n      tag_30\n      jump\t// in\n    tag_29:\n      tag_31\n      jump\t// in\n    tag_28:\n      stop\n        /* \"contracts/government.sol\":356:395  mapping(uint=>citizen)  public citizens */\n    tag_11:\n      mstore(0x20, 0x01)\n      dup1\n      0x00\n      mstore\n      keccak256(0x00, 0x40)\n      0x00\n      swap2\n      pop\n      swap1\n      pop\n      dup1\n      0x00\n      add\n      dup1\n      sload\n      tag_32\n      swap1\n      tag_33\n      jump\t// in\n    tag_32:\n      dup1\n      0x1f\n      add\n      0x20\n      dup1\n      swap2\n      div\n      mul\n      0x20\n      add\n      mload(0x40)\n      swap1\n      dup2\n      add\n      0x40\n      mstore\n      dup1\n      swap3\n      swap2\n      swap1\n      dup2\n      dup2\n      mstore\n      0x20\n      add\n      dup3\n      dup1\n      sload\n      tag_34\n      swap1\n      tag_33\n      jump\t// in\n    tag_34:\n      dup1\n      iszero\n      tag_35\n      jumpi\n      dup1\n      0x1f\n      lt\n      tag_36\n      jumpi\n      0x0100\n      dup1\n      dup4\n      sload\n      div\n      mul\n      dup4\n      mstore\n      swap2\n      0x20\n      add\n      swap2\n      jump(tag_35)\n    tag_36:\n      dup3\n      add\n      swap2\n      swap1\n      0x00\n      mstore\n      keccak256(0x00, 0x20)\n      swap1\n    tag_37:\n      dup2\n      sload\n      dup2\n      mstore\n      swap1\n      0x01\n      add\n      swap1\n      0x20\n      add\n      dup1\n      dup4\n      gt\n      tag_37\n      jumpi\n      dup3\n      swap1\n      sub\n      0x1f\n      and\n      dup3\n      add\n      swap2\n    tag_35:\n      pop\n      pop\n      pop\n      pop\n      pop\n      swap1\n      dup1\n      0x01\n      add\n      sload\n      swap1\n      dup1\n      0x02\n      add\n      0x00\n      swap1\n      sload\n      swap1\n      0x0100\n      exp\n      swap1\n      div\n      0xff\n      and\n      swap1\n      pop\n      dup4\n      jump\t// out\n        /* \"contracts/government.sol\":1167:1554  function addVote(uint citizenID,address officialAddress) public {... */\n    tag_17:\n        /* \"contracts/government.sol\":1367:1372  false */\n      0x00\n        /* \"contracts/government.sol\":1335:1372  citizens[citizenID].voteCasted==false */\n      iszero\n      iszero\n        /* \"contracts/government.sol\":1335:1343  citizens */\n      0x01\n        /* \"contracts/government.sol\":1335:1354  citizens[citizenID] */\n      0x00\n        /* \"contracts/government.sol\":1344:1353  citizenID */\n      dup5\n        /* \"contracts/government.sol\":1335:1354  citizens[citizenID] */\n      dup2\n      mstore\n      0x20\n      add\n      swap1\n      dup2\n      mstore\n      0x20\n      add\n      0x00\n      keccak256\n        /* \"contracts/government.sol\":1335:1365  citizens[citizenID].voteCasted */\n      0x02\n      add\n      0x00\n      swap1\n      sload\n      swap1\n      0x0100\n      exp\n      swap1\n      div\n      0xff\n      and\n        /* \"contracts/government.sol\":1335:1372  citizens[citizenID].voteCasted==false */\n      iszero\n      iszero\n      eq\n        /* \"contracts/government.sol\":1327:1398  require(citizens[citizenID].voteCasted==false,\"you have voted already\") */\n      tag_39\n      jumpi\n      mload(0x40)\n      0x08c379a000000000000000000000000000000000000000000000000000000000\n      dup2\n      mstore\n      0x04\n      add\n      tag_40\n      swap1\n      tag_41\n      jump\t// in\n    tag_40:\n      mload(0x40)\n      dup1\n      swap2\n      sub\n      swap1\n      revert\n    tag_39:\n        /* \"contracts/government.sol\":1428:1433  owner */\n      0x02\n      0x00\n      swap1\n      sload\n      swap1\n      0x0100\n      exp\n      swap1\n      div\n      0xffffffffffffffffffffffffffffffffffffffff\n      and\n        /* \"contracts/government.sol\":1416:1433  msg.sender==owner */\n      0xffffffffffffffffffffffffffffffffffffffff\n      and\n        /* \"contracts/government.sol\":1416:1426  msg.sender */\n      caller\n        /* \"contracts/government.sol\":1416:1433  msg.sender==owner */\n      0xffffffffffffffffffffffffffffffffffffffff\n      and\n      eq\n        /* \"contracts/government.sol\":1408:1458  require(msg.sender==owner,\"you are not the owner\") */\n      tag_42\n      jumpi\n      mload(0x40)\n      0x08c379a000000000000000000000000000000000000000000000000000000000\n      dup2\n      mstore\n      0x04\n      add\n      tag_43\n      swap1\n      tag_44\n      jump\t// in\n    tag_43:\n      mload(0x40)\n      dup1\n      swap2\n      sub\n      swap1\n      revert\n    tag_42:\n        /* \"contracts/government.sol\":1499:1503  true */\n      0x01\n        /* \"contracts/government.sol\":1468:1476  citizens */\n      dup1\n        /* \"contracts/government.sol\":1468:1487  citizens[citizenID] */\n      0x00\n        /* \"contracts/government.sol\":1477:1486  citizenID */\n      dup5\n        /* \"contracts/government.sol\":1468:1487  citizens[citizenID] */\n      dup2\n      mstore\n      0x20\n      add\n      swap1\n      dup2\n      mstore\n      0x20\n      add\n      0x00\n      keccak256\n        /* \"contracts/government.sol\":1468:1498  citizens[citizenID].voteCasted */\n      0x02\n      add\n      0x00\n        /* \"contracts/government.sol\":1468:1503  citizens[citizenID].voteCasted=true */\n      0x0100\n      exp\n      dup2\n      sload\n      dup2\n      0xff\n      mul\n      not\n      and\n      swap1\n      dup4\n      iszero\n      iszero\n      mul\n      or\n      swap1\n      sstore\n      pop\n        /* \"contracts/government.sol\":1546:1547  1 */\n      0x01\n        /* \"contracts/government.sol\":1513:1522  officials */\n      0x00\n        /* \"contracts/government.sol\":1513:1539  officials[officialAddress] */\n      dup1\n        /* \"contracts/government.sol\":1523:1538  officialAddress */\n      dup4\n        /* \"contracts/government.sol\":1513:1539  officials[officialAddress] */\n      0xffffffffffffffffffffffffffffffffffffffff\n      and\n      0xffffffffffffffffffffffffffffffffffffffff\n      and\n      dup2\n      mstore\n      0x20\n      add\n      swap1\n      dup2\n      mstore\n      0x20\n      add\n      0x00\n      keccak256\n        /* \"contracts/government.sol\":1513:1544  officials[officialAddress].vote */\n      0x03\n      add\n      0x00\n        /* \"contracts/government.sol\":1513:1547  officials[officialAddress].vote+=1 */\n      dup3\n      dup3\n      sload\n      tag_45\n      swap2\n      swap1\n      tag_46\n      jump\t// in\n    tag_45:\n      swap3\n      pop\n      pop\n      dup2\n      swap1\n      sstore\n      pop\n        /* \"contracts/government.sol\":1167:1554  function addVote(uint citizenID,address officialAddress) public {... */\n      pop\n      pop\n      jump\t// out\n        /* \"contracts/government.sol\":874:1162  function addCitizen(string memory _name,uint _ID,uint index) public{... */\n    tag_21:\n        /* \"contracts/government.sol\":971:980  officials */\n      0x00\n        /* \"contracts/government.sol\":971:992  officials[msg.sender] */\n      dup1\n        /* \"contracts/government.sol\":981:991  msg.sender */\n      caller\n        /* \"contracts/government.sol\":971:992  officials[msg.sender] */\n      0xffffffffffffffffffffffffffffffffffffffff\n      and\n      0xffffffffffffffffffffffffffffffffffffffff\n      and\n      dup2\n      mstore\n      0x20\n      add\n      swap1\n      dup2\n      mstore\n      0x20\n      add\n      0x00\n      keccak256\n        /* \"contracts/government.sol\":971:1000  officials[msg.sender].account */\n      0x04\n      add\n      0x00\n      swap1\n      sload\n      swap1\n      0x0100\n      exp\n      swap1\n      div\n      0xffffffffffffffffffffffffffffffffffffffff\n      and\n        /* \"contracts/government.sol\":959:1000  msg.sender!=officials[msg.sender].account */\n      0xffffffffffffffffffffffffffffffffffffffff\n      and\n        /* \"contracts/government.sol\":959:969  msg.sender */\n      caller\n        /* \"contracts/government.sol\":959:1000  msg.sender!=officials[msg.sender].account */\n      0xffffffffffffffffffffffffffffffffffffffff\n      and\n      sub\n        /* \"contracts/government.sol\":951:1036  require(msg.sender!=officials[msg.sender].account,\"Address associated with official\") */\n      tag_48\n      jumpi\n      mload(0x40)\n      0x08c379a000000000000000000000000000000000000000000000000000000000\n      dup2\n      mstore\n      0x04\n      add\n      tag_49\n      swap1\n      tag_50\n      jump\t// in\n    tag_49:\n      mload(0x40)\n      dup1\n      swap2\n      sub\n      swap1\n      revert\n    tag_48:\n        /* \"contracts/government.sol\":1062:1155  citizen({... */\n      mload(0x40)\n      dup1\n      0x60\n      add\n      0x40\n      mstore\n      dup1\n        /* \"contracts/government.sol\":1089:1094  _name */\n      dup5\n        /* \"contracts/government.sol\":1062:1155  citizen({... */\n      dup2\n      mstore\n      0x20\n      add\n        /* \"contracts/government.sol\":1111:1114  _ID */\n      dup4\n        /* \"contracts/government.sol\":1062:1155  citizen({... */\n      dup2\n      mstore\n      0x20\n      add\n        /* \"contracts/government.sol\":1139:1144  false */\n      0x00\n        /* \"contracts/government.sol\":1062:1155  citizen({... */\n      iszero\n      iszero\n      dup2\n      mstore\n      pop\n        /* \"contracts/government.sol\":1046:1054  citizens */\n      0x01\n        /* \"contracts/government.sol\":1046:1061  citizens[index] */\n      0x00\n        /* \"contracts/government.sol\":1055:1060  index */\n      dup4\n        /* \"contracts/government.sol\":1046:1061  citizens[index] */\n      dup2\n      mstore\n      0x20\n      add\n      swap1\n      dup2\n      mstore\n      0x20\n      add\n      0x00\n      keccak256\n        /* \"contracts/government.sol\":1046:1155  citizens[index]=citizen({... */\n      0x00\n      dup3\n      add\n      mload\n      dup2\n      0x00\n      add\n      swap1\n      dup2\n      tag_51\n      swap2\n      swap1\n      tag_52\n      jump\t// in\n    tag_51:\n      pop\n      0x20\n      dup3\n      add\n      mload\n      dup2\n      0x01\n      add\n      sstore\n      0x40\n      dup3\n      add\n      mload\n      dup2\n      0x02\n      add\n      exp(0x0100, 0x00)\n      dup2\n      sload\n      dup2\n      0xff\n      mul\n      not\n      and\n      swap1\n      dup4\n      iszero\n      iszero\n      mul\n      or\n      swap1\n      sstore\n      pop\n      swap1\n      pop\n      pop\n        /* \"contracts/government.sol\":874:1162  function addCitizen(string memory _name,uint _ID,uint index) public{... */\n      pop\n      pop\n      pop\n      jump\t// out\n        /* \"contracts/government.sol\":218:261  mapping(address=>official) public officials */\n    tag_25:\n      mstore(0x20, 0x00)\n      dup1\n      0x00\n      mstore\n      keccak256(0x00, 0x40)\n      0x00\n      swap2\n      pop\n      swap1\n      pop\n      dup1\n      0x00\n      add\n      dup1\n      sload\n      tag_53\n      swap1\n      tag_33\n      jump\t// in\n    tag_53:\n      dup1\n      0x1f\n      add\n      0x20\n      dup1\n      swap2\n      div\n      mul\n      0x20\n      add\n      mload(0x40)\n      swap1\n      dup2\n      add\n      0x40\n      mstore\n      dup1\n      swap3\n      swap2\n      swap1\n      dup2\n      dup2\n      mstore\n      0x20\n      add\n      dup3\n      dup1\n      sload\n      tag_54\n      swap1\n      tag_33\n      jump\t// in\n    tag_54:\n      dup1\n      iszero\n      tag_55\n      jumpi\n      dup1\n      0x1f\n      lt\n      tag_56\n      jumpi\n      0x0100\n      dup1\n      dup4\n      sload\n      div\n      mul\n      dup4\n      mstore\n      swap2\n      0x20\n      add\n      swap2\n      jump(tag_55)\n    tag_56:\n      dup3\n      add\n      swap2\n      swap1\n      0x00\n      mstore\n      keccak256(0x00, 0x20)\n      swap1\n    tag_57:\n      dup2\n      sload\n      dup2\n      mstore\n      swap1\n      0x01\n      add\n      swap1\n      0x20\n      add\n      dup1\n      dup4\n      gt\n      tag_57\n      jumpi\n      dup3\n      swap1\n      sub\n      0x1f\n      and\n      dup3\n      add\n      swap2\n    tag_55:\n      pop\n      pop\n      pop\n      pop\n      pop\n      swap1\n      dup1\n      0x01\n      add\n      dup1\n      sload\n      tag_58\n      swap1\n      tag_33\n      jump\t// in\n    tag_58:\n      dup1\n      0x1f\n      add\n      0x20\n      dup1\n      swap2\n      div\n      mul\n      0x20\n      add\n      mload(0x40)\n      swap1\n      dup2\n      add\n      0x40\n      mstore\n      dup1\n      swap3\n      swap2\n      swap1\n      dup2\n      dup2\n      mstore\n      0x20\n      add\n      dup3\n      dup1\n      sload\n      tag_59\n      swap1\n      tag_33\n      jump\t// in\n    tag_59:\n      dup1\n      iszero\n      tag_60\n      jumpi\n      dup1\n      0x1f\n      lt\n      tag_61\n      jumpi\n      0x0100\n      dup1\n      dup4\n      sload\n      div\n      mul\n      dup4\n      mstore\n      swap2\n      0x20\n      add\n      swap2\n      jump(tag_60)\n    tag_61:\n      dup3\n      add\n      swap2\n      swap1\n      0x00\n      mstore\n      keccak256(0x00, 0x20)\n      swap1\n    tag_62:\n      dup2\n      sload\n      dup2\n      mstore\n      swap1\n      0x01\n      add\n      swap1\n      0x20\n      add\n      dup1\n      dup4\n      gt\n      tag_62\n      jumpi\n      dup3\n      swap1\n      sub\n      0x1f\n      and\n      dup3\n      add\n      swap2\n    tag_60:\n      pop\n      pop\n      pop\n      pop\n      pop\n      swap1\n      dup1\n      0x02\n      add\n      sload\n      swap1\n      dup1\n      0x03\n      add\n      sload\n      swap1\n      dup1\n      0x04\n      add\n      0x00\n      swap1\n      sload\n      swap1\n      0x0100\n      exp\n      swap1\n      div\n      0xffffffffffffffffffffffffffffffffffffffff\n      and\n      swap1\n      pop\n      dup6\n      jump\t// out\n        /* \"contracts/government.sol\":491:869  function addOfficial(address _account,string memory _name,string memory _designation,uint _ID,uint _vote) public{... */\n    tag_31:\n        /* \"contracts/government.sol\":633:638  owner */\n      0x02\n      0x00\n      swap1\n      sload\n      swap1\n      0x0100\n      exp\n      swap1\n      div\n      0xffffffffffffffffffffffffffffffffffffffff\n      and\n        /* \"contracts/government.sol\":621:638  msg.sender==owner */\n      0xffffffffffffffffffffffffffffffffffffffff\n      and\n        /* \"contracts/government.sol\":621:631  msg.sender */\n      caller\n        /* \"contracts/government.sol\":621:638  msg.sender==owner */\n      0xffffffffffffffffffffffffffffffffffffffff\n      and\n      eq\n        /* \"contracts/government.sol\":613:676  require(msg.sender==owner,\"only owner can add official member\") */\n      tag_64\n      jumpi\n      mload(0x40)\n      0x08c379a000000000000000000000000000000000000000000000000000000000\n      dup2\n      mstore\n      0x04\n      add\n      tag_65\n      swap1\n      tag_66\n      jump\t// in\n    tag_65:\n      mload(0x40)\n      dup1\n      swap2\n      sub\n      swap1\n      revert\n    tag_64:\n        /* \"contracts/government.sol\":706:862  official({... */\n      mload(0x40)\n      dup1\n      0xa0\n      add\n      0x40\n      mstore\n      dup1\n        /* \"contracts/government.sol\":734:739  _name */\n      dup6\n        /* \"contracts/government.sol\":706:862  official({... */\n      dup2\n      mstore\n      0x20\n      add\n        /* \"contracts/government.sol\":765:777  _designation */\n      dup5\n        /* \"contracts/government.sol\":706:862  official({... */\n      dup2\n      mstore\n      0x20\n      add\n        /* \"contracts/government.sol\":794:797  _ID */\n      dup4\n        /* \"contracts/government.sol\":706:862  official({... */\n      dup2\n      mstore\n      0x20\n      add\n        /* \"contracts/government.sol\":816:821  _vote */\n      dup3\n        /* \"contracts/government.sol\":706:862  official({... */\n      dup2\n      mstore\n      0x20\n      add\n        /* \"contracts/government.sol\":843:851  _account */\n      dup7\n        /* \"contracts/government.sol\":706:862  official({... */\n      0xffffffffffffffffffffffffffffffffffffffff\n      and\n      dup2\n      mstore\n      pop\n        /* \"contracts/government.sol\":686:695  officials */\n      0x00\n        /* \"contracts/government.sol\":686:705  officials[_account] */\n      dup1\n        /* \"contracts/government.sol\":696:704  _account */\n      dup8\n        /* \"contracts/government.sol\":686:705  officials[_account] */\n      0xffffffffffffffffffffffffffffffffffffffff\n      and\n      0xffffffffffffffffffffffffffffffffffffffff\n      and\n      dup2\n      mstore\n      0x20\n      add\n      swap1\n      dup2\n      mstore\n      0x20\n      add\n      0x00\n      keccak256\n        /* \"contracts/government.sol\":686:862  officials[_account]=official({... */\n      0x00\n      dup3\n      add\n      mload\n      dup2\n      0x00\n      add\n      swap1\n      dup2\n      tag_67\n      swap2\n      swap1\n      tag_52\n      jump\t// in\n    tag_67:\n      pop\n      0x20\n      dup3\n      add\n      mload\n      dup2\n      0x01\n      add\n      swap1\n      dup2\n      tag_68\n      swap2\n      swap1\n      tag_52\n      jump\t// in\n    tag_68:\n      pop\n      0x40\n      dup3\n      add\n      mload\n      dup2\n      0x02\n      add\n      sstore\n      0x60\n      dup3\n      add\n      mload\n      dup2\n      0x03\n      add\n      sstore\n      0x80\n      dup3\n      add\n      mload\n      dup2\n      0x04\n      add\n      exp(0x0100, 0x00)\n      dup2\n      sload\n      dup2\n      0xffffffffffffffffffffffffffffffffffffffff\n      mul\n      not\n      and\n      swap1\n      dup4\n      0xffffffffffffffffffffffffffffffffffffffff\n      and\n      mul\n      or\n      swap1\n      sstore\n      pop\n      swap1\n      pop\n      pop\n        /* \"contracts/government.sol\":491:869  function addOfficial(address _account,string memory _name,string memory _designation,uint _ID,uint _vote) public{... */\n      pop\n      pop\n      pop\n      pop\n      pop\n      jump\t// out\n        /* \"#utility.yul\":7:82   */\n    tag_69:\n        /* \"#utility.yul\":40:46   */\n      0x00\n        /* \"#utility.yul\":73:75   */\n      0x40\n        /* \"#utility.yul\":67:76   */\n      mload\n        /* \"#utility.yul\":57:76   */\n      swap1\n      pop\n        /* \"#utility.yul\":7:82   */\n      swap1\n      jump\t// out\n        /* \"#utility.yul\":88:205   */\n    tag_70:\n        /* \"#utility.yul\":197:198   */\n      0x00\n        /* \"#utility.yul\":194:195   */\n      dup1\n        /* \"#utility.yul\":187:199   */\n      revert\n        /* \"#utility.yul\":211:328   */\n    tag_71:\n        /* \"#utility.yul\":320:321   */\n      0x00\n        /* \"#utility.yul\":317:318   */\n      dup1\n        /* \"#utility.yul\":310:322   */\n      revert\n        /* \"#utility.yul\":334:411   */\n    tag_72:\n        /* \"#utility.yul\":371:378   */\n      0x00\n        /* \"#utility.yul\":400:405   */\n      dup2\n        /* \"#utility.yul\":389:405   */\n      swap1\n      pop\n        /* \"#utility.yul\":334:411   */\n      swap2\n      swap1\n      pop\n      jump\t// out\n        /* \"#utility.yul\":417:539   */\n    tag_73:\n        /* \"#utility.yul\":490:514   */\n      tag_128\n        /* \"#utility.yul\":508:513   */\n      dup2\n        /* \"#utility.yul\":490:514   */\n      tag_72\n      jump\t// in\n    tag_128:\n        /* \"#utility.yul\":483:488   */\n      dup2\n        /* \"#utility.yul\":480:515   */\n      eq\n        /* \"#utility.yul\":470:533   */\n      tag_129\n      jumpi\n        /* \"#utility.yul\":529:530   */\n      0x00\n        /* \"#utility.yul\":526:527   */\n      dup1\n        /* \"#utility.yul\":519:531   */\n      revert\n        /* \"#utility.yul\":470:533   */\n    tag_129:\n        /* \"#utility.yul\":417:539   */\n      pop\n      jump\t// out\n        /* \"#utility.yul\":545:684   */\n    tag_74:\n        /* \"#utility.yul\":591:596   */\n      0x00\n        /* \"#utility.yul\":629:635   */\n      dup2\n        /* \"#utility.yul\":616:636   */\n      calldataload\n        /* \"#utility.yul\":607:636   */\n      swap1\n      pop\n        /* \"#utility.yul\":645:678   */\n      tag_131\n        /* \"#utility.yul\":672:677   */\n      dup2\n        /* \"#utility.yul\":645:678   */\n      tag_73\n      jump\t// in\n    tag_131:\n        /* \"#utility.yul\":545:684   */\n      swap3\n      swap2\n      pop\n      pop\n      jump\t// out\n        /* \"#utility.yul\":690:1019   */\n    tag_10:\n        /* \"#utility.yul\":749:755   */\n      0x00\n        /* \"#utility.yul\":798:800   */\n      0x20\n        /* \"#utility.yul\":786:795   */\n      dup3\n        /* \"#utility.yul\":777:784   */\n      dup5\n        /* \"#utility.yul\":773:796   */\n      sub\n        /* \"#utility.yul\":769:801   */\n      slt\n        /* \"#utility.yul\":766:885   */\n      iszero\n      tag_133\n      jumpi\n        /* \"#utility.yul\":804:883   */\n      tag_134\n      tag_70\n      jump\t// in\n    tag_134:\n        /* \"#utility.yul\":766:885   */\n    tag_133:\n        /* \"#utility.yul\":924:925   */\n      0x00\n        /* \"#utility.yul\":949:1002   */\n      tag_135\n        /* \"#utility.yul\":994:1001   */\n      dup5\n        /* \"#utility.yul\":985:991   */\n      dup3\n        /* \"#utility.yul\":974:983   */\n      dup6\n        /* \"#utility.yul\":970:992   */\n      add\n        /* \"#utility.yul\":949:1002   */\n      tag_74\n      jump\t// in\n    tag_135:\n        /* \"#utility.yul\":939:1002   */\n      swap2\n      pop\n        /* \"#utility.yul\":895:1012   */\n      pop\n        /* \"#utility.yul\":690:1019   */\n      swap3\n      swap2\n      pop\n      pop\n      jump\t// out\n        /* \"#utility.yul\":1025:1124   */\n    tag_75:\n        /* \"#utility.yul\":1077:1083   */\n      0x00\n        /* \"#utility.yul\":1111:1116   */\n      dup2\n        /* \"#utility.yul\":1105:1117   */\n      mload\n        /* \"#utility.yul\":1095:1117   */\n      swap1\n      pop\n        /* \"#utility.yul\":1025:1124   */\n      swap2\n      swap1\n      pop\n      jump\t// out\n        /* \"#utility.yul\":1130:1299   */\n    tag_76:\n        /* \"#utility.yul\":1214:1225   */\n      0x00\n        /* \"#utility.yul\":1248:1254   */\n      dup3\n        /* \"#utility.yul\":1243:1246   */\n      dup3\n        /* \"#utility.yul\":1236:1255   */\n      mstore\n        /* \"#utility.yul\":1288:1292   */\n      0x20\n        /* \"#utility.yul\":1283:1286   */\n      dup3\n        /* \"#utility.yul\":1279:1293   */\n      add\n        /* \"#utility.yul\":1264:1293   */\n      swap1\n      pop\n        /* \"#utility.yul\":1130:1299   */\n      swap3\n      swap2\n      pop\n      pop\n      jump\t// out\n        /* \"#utility.yul\":1305:1551   */\n    tag_77:\n        /* \"#utility.yul\":1386:1387   */\n      0x00\n        /* \"#utility.yul\":1396:1509   */\n    tag_139:\n        /* \"#utility.yul\":1410:1416   */\n      dup4\n        /* \"#utility.yul\":1407:1408   */\n      dup2\n        /* \"#utility.yul\":1404:1417   */\n      lt\n        /* \"#utility.yul\":1396:1509   */\n      iszero\n      tag_141\n      jumpi\n        /* \"#utility.yul\":1495:1496   */\n      dup1\n        /* \"#utility.yul\":1490:1493   */\n      dup3\n        /* \"#utility.yul\":1486:1497   */\n      add\n        /* \"#utility.yul\":1480:1498   */\n      mload\n        /* \"#utility.yul\":1476:1477   */\n      dup2\n        /* \"#utility.yul\":1471:1474   */\n      dup5\n        /* \"#utility.yul\":1467:1478   */\n      add\n        /* \"#utility.yul\":1460:1499   */\n      mstore\n        /* \"#utility.yul\":1432:1434   */\n      0x20\n        /* \"#utility.yul\":1429:1430   */\n      dup2\n        /* \"#utility.yul\":1425:1435   */\n      add\n        /* \"#utility.yul\":1420:1435   */\n      swap1\n      pop\n        /* \"#utility.yul\":1396:1509   */\n      jump(tag_139)\n    tag_141:\n        /* \"#utility.yul\":1543:1544   */\n      0x00\n        /* \"#utility.yul\":1534:1540   */\n      dup5\n        /* \"#utility.yul\":1529:1532   */\n      dup5\n        /* \"#utility.yul\":1525:1541   */\n      add\n        /* \"#utility.yul\":1518:1545   */\n      mstore\n        /* \"#utility.yul\":1367:1551   */\n      pop\n        /* \"#utility.yul\":1305:1551   */\n      pop\n      pop\n      pop\n      jump\t// out\n        /* \"#utility.yul\":1557:1659   */\n    tag_78:\n        /* \"#utility.yul\":1598:1604   */\n      0x00\n        /* \"#utility.yul\":1649:1651   */\n      0x1f\n        /* \"#utility.yul\":1645:1652   */\n      not\n        /* \"#utility.yul\":1640:1642   */\n      0x1f\n        /* \"#utility.yul\":1633:1638   */\n      dup4\n        /* \"#utility.yul\":1629:1643   */\n      add\n        /* \"#utility.yul\":1625:1653   */\n      and\n        /* \"#utility.yul\":1615:1653   */\n      swap1\n      pop\n        /* \"#utility.yul\":1557:1659   */\n      swap2\n      swap1\n      pop\n      jump\t// out\n        /* \"#utility.yul\":1665:2042   */\n    tag_79:\n        /* \"#utility.yul\":1753:1756   */\n      0x00\n        /* \"#utility.yul\":1781:1820   */\n      tag_144\n        /* \"#utility.yul\":1814:1819   */\n      dup3\n        /* \"#utility.yul\":1781:1820   */\n      tag_75\n      jump\t// in\n    tag_144:\n        /* \"#utility.yul\":1836:1907   */\n      tag_145\n        /* \"#utility.yul\":1900:1906   */\n      dup2\n        /* \"#utility.yul\":1895:1898   */\n      dup6\n        /* \"#utility.yul\":1836:1907   */\n      tag_76\n      jump\t// in\n    tag_145:\n        /* \"#utility.yul\":1829:1907   */\n      swap4\n      pop\n        /* \"#utility.yul\":1916:1981   */\n      tag_146\n        /* \"#utility.yul\":1974:1980   */\n      dup2\n        /* \"#utility.yul\":1969:1972   */\n      dup6\n        /* \"#utility.yul\":1962:1966   */\n      0x20\n        /* \"#utility.yul\":1955:1960   */\n      dup7\n        /* \"#utility.yul\":1951:1967   */\n      add\n        /* \"#utility.yul\":1916:1981   */\n      tag_77\n      jump\t// in\n    tag_146:\n        /* \"#utility.yul\":2006:2035   */\n      tag_147\n        /* \"#utility.yul\":2028:2034   */\n      dup2\n        /* \"#utility.yul\":2006:2035   */\n      tag_78\n      jump\t// in\n    tag_147:\n        /* \"#utility.yul\":2001:2004   */\n      dup5\n        /* \"#utility.yul\":1997:2036   */\n      add\n        /* \"#utility.yul\":1990:2036   */\n      swap2\n      pop\n        /* \"#utility.yul\":1757:2042   */\n      pop\n        /* \"#utility.yul\":1665:2042   */\n      swap3\n      swap2\n      pop\n      pop\n      jump\t// out\n        /* \"#utility.yul\":2048:2166   */\n    tag_80:\n        /* \"#utility.yul\":2135:2159   */\n      tag_149\n        /* \"#utility.yul\":2153:2158   */\n      dup2\n        /* \"#utility.yul\":2135:2159   */\n      tag_72\n      jump\t// in\n    tag_149:\n        /* \"#utility.yul\":2130:2133   */\n      dup3\n        /* \"#utility.yul\":2123:2160   */\n      mstore\n        /* \"#utility.yul\":2048:2166   */\n      pop\n      pop\n      jump\t// out\n        /* \"#utility.yul\":2172:2262   */\n    tag_81:\n        /* \"#utility.yul\":2206:2213   */\n      0x00\n        /* \"#utility.yul\":2249:2254   */\n      dup2\n        /* \"#utility.yul\":2242:2255   */\n      iszero\n        /* \"#utility.yul\":2235:2256   */\n      iszero\n        /* \"#utility.yul\":2224:2256   */\n      swap1\n      pop\n        /* \"#utility.yul\":2172:2262   */\n      swap2\n      swap1\n      pop\n      jump\t// out\n        /* \"#utility.yul\":2268:2377   */\n    tag_82:\n        /* \"#utility.yul\":2349:2370   */\n      tag_152\n        /* \"#utility.yul\":2364:2369   */\n      dup2\n        /* \"#utility.yul\":2349:2370   */\n      tag_81\n      jump\t// in\n    tag_152:\n        /* \"#utility.yul\":2344:2347   */\n      dup3\n        /* \"#utility.yul\":2337:2371   */\n      mstore\n        /* \"#utility.yul\":2268:2377   */\n      pop\n      pop\n      jump\t// out\n        /* \"#utility.yul\":2383:2904   */\n    tag_13:\n        /* \"#utility.yul\":2546:2550   */\n      0x00\n        /* \"#utility.yul\":2584:2586   */\n      0x60\n        /* \"#utility.yul\":2573:2582   */\n      dup3\n        /* \"#utility.yul\":2569:2587   */\n      add\n        /* \"#utility.yul\":2561:2587   */\n      swap1\n      pop\n        /* \"#utility.yul\":2633:2642   */\n      dup2\n        /* \"#utility.yul\":2627:2631   */\n      dup2\n        /* \"#utility.yul\":2623:2643   */\n      sub\n        /* \"#utility.yul\":2619:2620   */\n      0x00\n        /* \"#utility.yul\":2608:2617   */\n      dup4\n        /* \"#utility.yul\":2604:2621   */\n      add\n        /* \"#utility.yul\":2597:2644   */\n      mstore\n        /* \"#utility.yul\":2661:2739   */\n      tag_154\n        /* \"#utility.yul\":2734:2738   */\n      dup2\n        /* \"#utility.yul\":2725:2731   */\n      dup7\n        /* \"#utility.yul\":2661:2739   */\n      tag_79\n      jump\t// in\n    tag_154:\n        /* \"#utility.yul\":2653:2739   */\n      swap1\n      pop\n        /* \"#utility.yul\":2749:2821   */\n      tag_155\n        /* \"#utility.yul\":2817:2819   */\n      0x20\n        /* \"#utility.yul\":2806:2815   */\n      dup4\n        /* \"#utility.yul\":2802:2820   */\n      add\n        /* \"#utility.yul\":2793:2799   */\n      dup6\n        /* \"#utility.yul\":2749:2821   */\n      tag_80\n      jump\t// in\n    tag_155:\n        /* \"#utility.yul\":2831:2897   */\n      tag_156\n        /* \"#utility.yul\":2893:2895   */\n      0x40\n        /* \"#utility.yul\":2882:2891   */\n      dup4\n        /* \"#utility.yul\":2878:2896   */\n      add\n        /* \"#utility.yul\":2869:2875   */\n      dup5\n        /* \"#utility.yul\":2831:2897   */\n      tag_82\n      jump\t// in\n    tag_156:\n        /* \"#utility.yul\":2383:2904   */\n      swap5\n      swap4\n      pop\n      pop\n      pop\n      pop\n      jump\t// out\n        /* \"#utility.yul\":2910:3036   */\n    tag_83:\n        /* \"#utility.yul\":2947:2954   */\n      0x00\n        /* \"#utility.yul\":2987:3029   */\n      0xffffffffffffffffffffffffffffffffffffffff\n        /* \"#utility.yul\":2980:2985   */\n      dup3\n        /* \"#utility.yul\":2976:3030   */\n      and\n        /* \"#utility.yul\":2965:3030   */\n      swap1\n      pop\n        /* \"#utility.yul\":2910:3036   */\n      swap2\n      swap1\n      pop\n      jump\t// out\n        /* \"#utility.yul\":3042:3138   */\n    tag_84:\n        /* \"#utility.yul\":3079:3086   */\n      0x00\n        /* \"#utility.yul\":3108:3132   */\n      tag_159\n        /* \"#utility.yul\":3126:3131   */\n      dup3\n        /* \"#utility.yul\":3108:3132   */\n      tag_83\n      jump\t// in\n    tag_159:\n        /* \"#utility.yul\":3097:3132   */\n      swap1\n      pop\n        /* \"#utility.yul\":3042:3138   */\n      swap2\n      swap1\n      pop\n      jump\t// out\n        /* \"#utility.yul\":3144:3266   */\n    tag_85:\n        /* \"#utility.yul\":3217:3241   */\n      tag_161\n        /* \"#utility.yul\":3235:3240   */\n      dup2\n        /* \"#utility.yul\":3217:3241   */\n      tag_84\n      jump\t// in\n    tag_161:\n        /* \"#utility.yul\":3210:3215   */\n      dup2\n        /* \"#utility.yul\":3207:3242   */\n      eq\n        /* \"#utility.yul\":3197:3260   */\n      tag_162\n      jumpi\n        /* \"#utility.yul\":3256:3257   */\n      0x00\n        /* \"#utility.yul\":3253:3254   */\n      dup1\n        /* \"#utility.yul\":3246:3258   */\n      revert\n        /* \"#utility.yul\":3197:3260   */\n    tag_162:\n        /* \"#utility.yul\":3144:3266   */\n      pop\n      jump\t// out\n        /* \"#utility.yul\":3272:3411   */\n    tag_86:\n        /* \"#utility.yul\":3318:3323   */\n      0x00\n        /* \"#utility.yul\":3356:3362   */\n      dup2\n        /* \"#utility.yul\":3343:3363   */\n      calldataload\n        /* \"#utility.yul\":3334:3363   */\n      swap1\n      pop\n        /* \"#utility.yul\":3372:3405   */\n      tag_164\n        /* \"#utility.yul\":3399:3404   */\n      dup2\n        /* \"#utility.yul\":3372:3405   */\n      tag_85\n      jump\t// in\n    tag_164:\n        /* \"#utility.yul\":3272:3411   */\n      swap3\n      swap2\n      pop\n      pop\n      jump\t// out\n        /* \"#utility.yul\":3417:3891   */\n    tag_16:\n        /* \"#utility.yul\":3485:3491   */\n      0x00\n        /* \"#utility.yul\":3493:3499   */\n      dup1\n        /* \"#utility.yul\":3542:3544   */\n      0x40\n        /* \"#utility.yul\":3530:3539   */\n      dup4\n        /* \"#utility.yul\":3521:3528   */\n      dup6\n        /* \"#utility.yul\":3517:3540   */\n      sub\n        /* \"#utility.yul\":3513:3545   */\n      slt\n        /* \"#utility.yul\":3510:3629   */\n      iszero\n      tag_166\n      jumpi\n        /* \"#utility.yul\":3548:3627   */\n      tag_167\n      tag_70\n      jump\t// in\n    tag_167:\n        /* \"#utility.yul\":3510:3629   */\n    tag_166:\n        /* \"#utility.yul\":3668:3669   */\n      0x00\n        /* \"#utility.yul\":3693:3746   */\n      tag_168\n        /* \"#utility.yul\":3738:3745   */\n      dup6\n        /* \"#utility.yul\":3729:3735   */\n      dup3\n        /* \"#utility.yul\":3718:3727   */\n      dup7\n        /* \"#utility.yul\":3714:3736   */\n      add\n        /* \"#utility.yul\":3693:3746   */\n      tag_74\n      jump\t// in\n    tag_168:\n        /* \"#utility.yul\":3683:3746   */\n      swap3\n      pop\n        /* \"#utility.yul\":3639:3756   */\n      pop\n        /* \"#utility.yul\":3795:3797   */\n      0x20\n        /* \"#utility.yul\":3821:3874   */\n      tag_169\n        /* \"#utility.yul\":3866:3873   */\n      dup6\n        /* \"#utility.yul\":3857:3863   */\n      dup3\n        /* \"#utility.yul\":3846:3855   */\n      dup7\n        /* \"#utility.yul\":3842:3864   */\n      add\n        /* \"#utility.yul\":3821:3874   */\n      tag_86\n      jump\t// in\n    tag_169:\n        /* \"#utility.yul\":3811:3874   */\n      swap2\n      pop\n        /* \"#utility.yul\":3766:3884   */\n      pop\n        /* \"#utility.yul\":3417:3891   */\n      swap3\n      pop\n      swap3\n      swap1\n      pop\n      jump\t// out\n        /* \"#utility.yul\":3897:4014   */\n    tag_87:\n        /* \"#utility.yul\":4006:4007   */\n      0x00\n        /* \"#utility.yul\":4003:4004   */\n      dup1\n        /* \"#utility.yul\":3996:4008   */\n      revert\n        /* \"#utility.yul\":4020:4137   */\n    tag_88:\n        /* \"#utility.yul\":4129:4130   */\n      0x00\n        /* \"#utility.yul\":4126:4127   */\n      dup1\n        /* \"#utility.yul\":4119:4131   */\n      revert\n        /* \"#utility.yul\":4143:4323   */\n    tag_89:\n        /* \"#utility.yul\":4191:4268   */\n      0x4e487b7100000000000000000000000000000000000000000000000000000000\n        /* \"#utility.yul\":4188:4189   */\n      0x00\n        /* \"#utility.yul\":4181:4269   */\n      mstore\n        /* \"#utility.yul\":4288:4292   */\n      0x41\n        /* \"#utility.yul\":4285:4286   */\n      0x04\n        /* \"#utility.yul\":4278:4293   */\n      mstore\n        /* \"#utility.yul\":4312:4316   */\n      0x24\n        /* \"#utility.yul\":4309:4310   */\n      0x00\n        /* \"#utility.yul\":4302:4317   */\n      revert\n        /* \"#utility.yul\":4329:4610   */\n    tag_90:\n        /* \"#utility.yul\":4412:4439   */\n      tag_174\n        /* \"#utility.yul\":4434:4438   */\n      dup3\n        /* \"#utility.yul\":4412:4439   */\n      tag_78\n      jump\t// in\n    tag_174:\n        /* \"#utility.yul\":4404:4410   */\n      dup2\n        /* \"#utility.yul\":4400:4440   */\n      add\n        /* \"#utility.yul\":4542:4548   */\n      dup2\n        /* \"#utility.yul\":4530:4540   */\n      dup2\n        /* \"#utility.yul\":4527:4549   */\n      lt\n        /* \"#utility.yul\":4506:4524   */\n      0xffffffffffffffff\n        /* \"#utility.yul\":4494:4504   */\n      dup3\n        /* \"#utility.yul\":4491:4525   */\n      gt\n        /* \"#utility.yul\":4488:4550   */\n      or\n        /* \"#utility.yul\":4485:4573   */\n      iszero\n      tag_175\n      jumpi\n        /* \"#utility.yul\":4553:4571   */\n      tag_176\n      tag_89\n      jump\t// in\n    tag_176:\n        /* \"#utility.yul\":4485:4573   */\n    tag_175:\n        /* \"#utility.yul\":4593:4603   */\n      dup1\n        /* \"#utility.yul\":4589:4591   */\n      0x40\n        /* \"#utility.yul\":4582:4604   */\n      mstore\n        /* \"#utility.yul\":4372:4610   */\n      pop\n        /* \"#utility.yul\":4329:4610   */\n      pop\n      pop\n      jump\t// out\n        /* \"#utility.yul\":4616:4745   */\n    tag_91:\n        /* \"#utility.yul\":4650:4656   */\n      0x00\n        /* \"#utility.yul\":4677:4697   */\n      tag_178\n      tag_69\n      jump\t// in\n    tag_178:\n        /* \"#utility.yul\":4667:4697   */\n      swap1\n      pop\n        /* \"#utility.yul\":4706:4739   */\n      tag_179\n        /* \"#utility.yul\":4734:4738   */\n      dup3\n        /* \"#utility.yul\":4726:4732   */\n      dup3\n        /* \"#utility.yul\":4706:4739   */\n      tag_90\n      jump\t// in\n    tag_179:\n        /* \"#utility.yul\":4616:4745   */\n      swap2\n      swap1\n      pop\n      jump\t// out\n        /* \"#utility.yul\":4751:5059   */\n    tag_92:\n        /* \"#utility.yul\":4813:4817   */\n      0x00\n        /* \"#utility.yul\":4903:4921   */\n      0xffffffffffffffff\n        /* \"#utility.yul\":4895:4901   */\n      dup3\n        /* \"#utility.yul\":4892:4922   */\n      gt\n        /* \"#utility.yul\":4889:4945   */\n      iszero\n      tag_181\n      jumpi\n        /* \"#utility.yul\":4925:4943   */\n      tag_182\n      tag_89\n      jump\t// in\n    tag_182:\n        /* \"#utility.yul\":4889:4945   */\n    tag_181:\n        /* \"#utility.yul\":4963:4992   */\n      tag_183\n        /* \"#utility.yul\":4985:4991   */\n      dup3\n        /* \"#utility.yul\":4963:4992   */\n      tag_78\n      jump\t// in\n    tag_183:\n        /* \"#utility.yul\":4955:4992   */\n      swap1\n      pop\n        /* \"#utility.yul\":5047:5051   */\n      0x20\n        /* \"#utility.yul\":5041:5045   */\n      dup2\n        /* \"#utility.yul\":5037:5052   */\n      add\n        /* \"#utility.yul\":5029:5052   */\n      swap1\n      pop\n        /* \"#utility.yul\":4751:5059   */\n      swap2\n      swap1\n      pop\n      jump\t// out\n        /* \"#utility.yul\":5065:5211   */\n    tag_93:\n        /* \"#utility.yul\":5162:5168   */\n      dup3\n        /* \"#utility.yul\":5157:5160   */\n      dup2\n        /* \"#utility.yul\":5152:5155   */\n      dup4\n        /* \"#utility.yul\":5139:5169   */\n      calldatacopy\n        /* \"#utility.yul\":5203:5204   */\n      0x00\n        /* \"#utility.yul\":5194:5200   */\n      dup4\n        /* \"#utility.yul\":5189:5192   */\n      dup4\n        /* \"#utility.yul\":5185:5201   */\n      add\n        /* \"#utility.yul\":5178:5205   */\n      mstore\n        /* \"#utility.yul\":5065:5211   */\n      pop\n      pop\n      pop\n      jump\t// out\n        /* \"#utility.yul\":5217:5642   */\n    tag_94:\n        /* \"#utility.yul\":5295:5300   */\n      0x00\n        /* \"#utility.yul\":5320:5386   */\n      tag_186\n        /* \"#utility.yul\":5336:5385   */\n      tag_187\n        /* \"#utility.yul\":5378:5384   */\n      dup5\n        /* \"#utility.yul\":5336:5385   */\n      tag_92\n      jump\t// in\n    tag_187:\n        /* \"#utility.yul\":5320:5386   */\n      tag_91\n      jump\t// in\n    tag_186:\n        /* \"#utility.yul\":5311:5386   */\n      swap1\n      pop\n        /* \"#utility.yul\":5409:5415   */\n      dup3\n        /* \"#utility.yul\":5402:5407   */\n      dup2\n        /* \"#utility.yul\":5395:5416   */\n      mstore\n        /* \"#utility.yul\":5447:5451   */\n      0x20\n        /* \"#utility.yul\":5440:5445   */\n      dup2\n        /* \"#utility.yul\":5436:5452   */\n      add\n        /* \"#utility.yul\":5485:5488   */\n      dup5\n        /* \"#utility.yul\":5476:5482   */\n      dup5\n        /* \"#utility.yul\":5471:5474   */\n      dup5\n        /* \"#utility.yul\":5467:5483   */\n      add\n        /* \"#utility.yul\":5464:5489   */\n      gt\n        /* \"#utility.yul\":5461:5573   */\n      iszero\n      tag_188\n      jumpi\n        /* \"#utility.yul\":5492:5571   */\n      tag_189\n      tag_88\n      jump\t// in\n    tag_189:\n        /* \"#utility.yul\":5461:5573   */\n    tag_188:\n        /* \"#utility.yul\":5582:5636   */\n      tag_190\n        /* \"#utility.yul\":5629:5635   */\n      dup5\n        /* \"#utility.yul\":5624:5627   */\n      dup3\n        /* \"#utility.yul\":5619:5622   */\n      dup6\n        /* \"#utility.yul\":5582:5636   */\n      tag_93\n      jump\t// in\n    tag_190:\n        /* \"#utility.yul\":5301:5642   */\n      pop\n        /* \"#utility.yul\":5217:5642   */\n      swap4\n      swap3\n      pop\n      pop\n      pop\n      jump\t// out\n        /* \"#utility.yul\":5662:6002   */\n    tag_95:\n        /* \"#utility.yul\":5718:5723   */\n      0x00\n        /* \"#utility.yul\":5767:5770   */\n      dup3\n        /* \"#utility.yul\":5760:5764   */\n      0x1f\n        /* \"#utility.yul\":5752:5758   */\n      dup4\n        /* \"#utility.yul\":5748:5765   */\n      add\n        /* \"#utility.yul\":5744:5771   */\n      slt\n        /* \"#utility.yul\":5734:5856   */\n      tag_192\n      jumpi\n        /* \"#utility.yul\":5775:5854   */\n      tag_193\n      tag_87\n      jump\t// in\n    tag_193:\n        /* \"#utility.yul\":5734:5856   */\n    tag_192:\n        /* \"#utility.yul\":5892:5898   */\n      dup2\n        /* \"#utility.yul\":5879:5899   */\n      calldataload\n        /* \"#utility.yul\":5917:5996   */\n      tag_194\n        /* \"#utility.yul\":5992:5995   */\n      dup5\n        /* \"#utility.yul\":5984:5990   */\n      dup3\n        /* \"#utility.yul\":5977:5981   */\n      0x20\n        /* \"#utility.yul\":5969:5975   */\n      dup7\n        /* \"#utility.yul\":5965:5982   */\n      add\n        /* \"#utility.yul\":5917:5996   */\n      tag_94\n      jump\t// in\n    tag_194:\n        /* \"#utility.yul\":5908:5996   */\n      swap2\n      pop\n        /* \"#utility.yul\":5724:6002   */\n      pop\n        /* \"#utility.yul\":5662:6002   */\n      swap3\n      swap2\n      pop\n      pop\n      jump\t// out\n        /* \"#utility.yul\":6008:6807   */\n    tag_20:\n        /* \"#utility.yul\":6095:6101   */\n      0x00\n        /* \"#utility.yul\":6103:6109   */\n      dup1\n        /* \"#utility.yul\":6111:6117   */\n      0x00\n        /* \"#utility.yul\":6160:6162   */\n      0x60\n        /* \"#utility.yul\":6148:6157   */\n      dup5\n        /* \"#utility.yul\":6139:6146   */\n      dup7\n        /* \"#utility.yul\":6135:6158   */\n      sub\n        /* \"#utility.yul\":6131:6163   */\n      slt\n        /* \"#utility.yul\":6128:6247   */\n      iszero\n      tag_196\n      jumpi\n        /* \"#utility.yul\":6166:6245   */\n      tag_197\n      tag_70\n      jump\t// in\n    tag_197:\n        /* \"#utility.yul\":6128:6247   */\n    tag_196:\n        /* \"#utility.yul\":6314:6315   */\n      0x00\n        /* \"#utility.yul\":6303:6312   */\n      dup5\n        /* \"#utility.yul\":6299:6316   */\n      add\n        /* \"#utility.yul\":6286:6317   */\n      calldataload\n        /* \"#utility.yul\":6344:6362   */\n      0xffffffffffffffff\n        /* \"#utility.yul\":6336:6342   */\n      dup2\n        /* \"#utility.yul\":6333:6363   */\n      gt\n        /* \"#utility.yul\":6330:6447   */\n      iszero\n      tag_198\n      jumpi\n        /* \"#utility.yul\":6366:6445   */\n      tag_199\n      tag_71\n      jump\t// in\n    tag_199:\n        /* \"#utility.yul\":6330:6447   */\n    tag_198:\n        /* \"#utility.yul\":6471:6534   */\n      tag_200\n        /* \"#utility.yul\":6526:6533   */\n      dup7\n        /* \"#utility.yul\":6517:6523   */\n      dup3\n        /* \"#utility.yul\":6506:6515   */\n      dup8\n        /* \"#utility.yul\":6502:6524   */\n      add\n        /* \"#utility.yul\":6471:6534   */\n      tag_95\n      jump\t// in\n    tag_200:\n        /* \"#utility.yul\":6461:6534   */\n      swap4\n      pop\n        /* \"#utility.yul\":6257:6544   */\n      pop\n        /* \"#utility.yul\":6583:6585   */\n      0x20\n        /* \"#utility.yul\":6609:6662   */\n      tag_201\n        /* \"#utility.yul\":6654:6661   */\n      dup7\n        /* \"#utility.yul\":6645:6651   */\n      dup3\n        /* \"#utility.yul\":6634:6643   */\n      dup8\n        /* \"#utility.yul\":6630:6652   */\n      add\n        /* \"#utility.yul\":6609:6662   */\n      tag_74\n      jump\t// in\n    tag_201:\n        /* \"#utility.yul\":6599:6662   */\n      swap3\n      pop\n        /* \"#utility.yul\":6554:6672   */\n      pop\n        /* \"#utility.yul\":6711:6713   */\n      0x40\n        /* \"#utility.yul\":6737:6790   */\n      tag_202\n        /* \"#utility.yul\":6782:6789   */\n      dup7\n        /* \"#utility.yul\":6773:6779   */\n      dup3\n        /* \"#utility.yul\":6762:6771   */\n      dup8\n        /* \"#utility.yul\":6758:6780   */\n      add\n        /* \"#utility.yul\":6737:6790   */\n      tag_74\n      jump\t// in\n    tag_202:\n        /* \"#utility.yul\":6727:6790   */\n      swap2\n      pop\n        /* \"#utility.yul\":6682:6800   */\n      pop\n        /* \"#utility.yul\":6008:6807   */\n      swap3\n      pop\n      swap3\n      pop\n      swap3\n      jump\t// out\n        /* \"#utility.yul\":6813:7142   */\n    tag_24:\n        /* \"#utility.yul\":6872:6878   */\n      0x00\n        /* \"#utility.yul\":6921:6923   */\n      0x20\n        /* \"#utility.yul\":6909:6918   */\n      dup3\n        /* \"#utility.yul\":6900:6907   */\n      dup5\n        /* \"#utility.yul\":6896:6919   */\n      sub\n        /* \"#utility.yul\":6892:6924   */\n      slt\n        /* \"#utility.yul\":6889:7008   */\n      iszero\n      tag_204\n      jumpi\n        /* \"#utility.yul\":6927:7006   */\n      tag_205\n      tag_70\n      jump\t// in\n    tag_205:\n        /* \"#utility.yul\":6889:7008   */\n    tag_204:\n        /* \"#utility.yul\":7047:7048   */\n      0x00\n        /* \"#utility.yul\":7072:7125   */\n      tag_206\n        /* \"#utility.yul\":7117:7124   */\n      dup5\n        /* \"#utility.yul\":7108:7114   */\n      dup3\n        /* \"#utility.yul\":7097:7106   */\n      dup6\n        /* \"#utility.yul\":7093:7115   */\n      add\n        /* \"#utility.yul\":7072:7125   */\n      tag_86\n      jump\t// in\n    tag_206:\n        /* \"#utility.yul\":7062:7125   */\n      swap2\n      pop\n        /* \"#utility.yul\":7018:7135   */\n      pop\n        /* \"#utility.yul\":6813:7142   */\n      swap3\n      swap2\n      pop\n      pop\n      jump\t// out\n        /* \"#utility.yul\":7148:7266   */\n    tag_96:\n        /* \"#utility.yul\":7235:7259   */\n      tag_208\n        /* \"#utility.yul\":7253:7258   */\n      dup2\n        /* \"#utility.yul\":7235:7259   */\n      tag_84\n      jump\t// in\n    tag_208:\n        /* \"#utility.yul\":7230:7233   */\n      dup3\n        /* \"#utility.yul\":7223:7260   */\n      mstore\n        /* \"#utility.yul\":7148:7266   */\n      pop\n      pop\n      jump\t// out\n        /* \"#utility.yul\":7272:8118   */\n    tag_27:\n        /* \"#utility.yul\":7517:7521   */\n      0x00\n        /* \"#utility.yul\":7555:7558   */\n      0xa0\n        /* \"#utility.yul\":7544:7553   */\n      dup3\n        /* \"#utility.yul\":7540:7559   */\n      add\n        /* \"#utility.yul\":7532:7559   */\n      swap1\n      pop\n        /* \"#utility.yul\":7605:7614   */\n      dup2\n        /* \"#utility.yul\":7599:7603   */\n      dup2\n        /* \"#utility.yul\":7595:7615   */\n      sub\n        /* \"#utility.yul\":7591:7592   */\n      0x00\n        /* \"#utility.yul\":7580:7589   */\n      dup4\n        /* \"#utility.yul\":7576:7593   */\n      add\n        /* \"#utility.yul\":7569:7616   */\n      mstore\n        /* \"#utility.yul\":7633:7711   */\n      tag_210\n        /* \"#utility.yul\":7706:7710   */\n      dup2\n        /* \"#utility.yul\":7697:7703   */\n      dup9\n        /* \"#utility.yul\":7633:7711   */\n      tag_79\n      jump\t// in\n    tag_210:\n        /* \"#utility.yul\":7625:7711   */\n      swap1\n      pop\n        /* \"#utility.yul\":7758:7767   */\n      dup2\n        /* \"#utility.yul\":7752:7756   */\n      dup2\n        /* \"#utility.yul\":7748:7768   */\n      sub\n        /* \"#utility.yul\":7743:7745   */\n      0x20\n        /* \"#utility.yul\":7732:7741   */\n      dup4\n        /* \"#utility.yul\":7728:7746   */\n      add\n        /* \"#utility.yul\":7721:7769   */\n      mstore\n        /* \"#utility.yul\":7786:7864   */\n      tag_211\n        /* \"#utility.yul\":7859:7863   */\n      dup2\n        /* \"#utility.yul\":7850:7856   */\n      dup8\n        /* \"#utility.yul\":7786:7864   */\n      tag_79\n      jump\t// in\n    tag_211:\n        /* \"#utility.yul\":7778:7864   */\n      swap1\n      pop\n        /* \"#utility.yul\":7874:7946   */\n      tag_212\n        /* \"#utility.yul\":7942:7944   */\n      0x40\n        /* \"#utility.yul\":7931:7940   */\n      dup4\n        /* \"#utility.yul\":7927:7945   */\n      add\n        /* \"#utility.yul\":7918:7924   */\n      dup7\n        /* \"#utility.yul\":7874:7946   */\n      tag_80\n      jump\t// in\n    tag_212:\n        /* \"#utility.yul\":7956:8028   */\n      tag_213\n        /* \"#utility.yul\":8024:8026   */\n      0x60\n        /* \"#utility.yul\":8013:8022   */\n      dup4\n        /* \"#utility.yul\":8009:8027   */\n      add\n        /* \"#utility.yul\":8000:8006   */\n      dup6\n        /* \"#utility.yul\":7956:8028   */\n      tag_80\n      jump\t// in\n    tag_213:\n        /* \"#utility.yul\":8038:8111   */\n      tag_214\n        /* \"#utility.yul\":8106:8109   */\n      0x80\n        /* \"#utility.yul\":8095:8104   */\n      dup4\n        /* \"#utility.yul\":8091:8110   */\n      add\n        /* \"#utility.yul\":8082:8088   */\n      dup5\n        /* \"#utility.yul\":8038:8111   */\n      tag_96\n      jump\t// in\n    tag_214:\n        /* \"#utility.yul\":7272:8118   */\n      swap7\n      swap6\n      pop\n      pop\n      pop\n      pop\n      pop\n      pop\n      jump\t// out\n        /* \"#utility.yul\":8124:9395   */\n    tag_30:\n        /* \"#utility.yul\":8239:8245   */\n      0x00\n        /* \"#utility.yul\":8247:8253   */\n      dup1\n        /* \"#utility.yul\":8255:8261   */\n      0x00\n        /* \"#utility.yul\":8263:8269   */\n      dup1\n        /* \"#utility.yul\":8271:8277   */\n      0x00\n        /* \"#utility.yul\":8320:8323   */\n      0xa0\n        /* \"#utility.yul\":8308:8317   */\n      dup7\n        /* \"#utility.yul\":8299:8306   */\n      dup9\n        /* \"#utility.yul\":8295:8318   */\n      sub\n        /* \"#utility.yul\":8291:8324   */\n      slt\n        /* \"#utility.yul\":8288:8408   */\n      iszero\n      tag_216\n      jumpi\n        /* \"#utility.yul\":8327:8406   */\n      tag_217\n      tag_70\n      jump\t// in\n    tag_217:\n        /* \"#utility.yul\":8288:8408   */\n    tag_216:\n        /* \"#utility.yul\":8447:8448   */\n      0x00\n        /* \"#utility.yul\":8472:8525   */\n      tag_218\n        /* \"#utility.yul\":8517:8524   */\n      dup9\n        /* \"#utility.yul\":8508:8514   */\n      dup3\n        /* \"#utility.yul\":8497:8506   */\n      dup10\n        /* \"#utility.yul\":8493:8515   */\n      add\n        /* \"#utility.yul\":8472:8525   */\n      tag_86\n      jump\t// in\n    tag_218:\n        /* \"#utility.yul\":8462:8525   */\n      swap6\n      pop\n        /* \"#utility.yul\":8418:8535   */\n      pop\n        /* \"#utility.yul\":8602:8604   */\n      0x20\n        /* \"#utility.yul\":8591:8600   */\n      dup7\n        /* \"#utility.yul\":8587:8605   */\n      add\n        /* \"#utility.yul\":8574:8606   */\n      calldataload\n        /* \"#utility.yul\":8633:8651   */\n      0xffffffffffffffff\n        /* \"#utility.yul\":8625:8631   */\n      dup2\n        /* \"#utility.yul\":8622:8652   */\n      gt\n        /* \"#utility.yul\":8619:8736   */\n      iszero\n      tag_219\n      jumpi\n        /* \"#utility.yul\":8655:8734   */\n      tag_220\n      tag_71\n      jump\t// in\n    tag_220:\n        /* \"#utility.yul\":8619:8736   */\n    tag_219:\n        /* \"#utility.yul\":8760:8823   */\n      tag_221\n        /* \"#utility.yul\":8815:8822   */\n      dup9\n        /* \"#utility.yul\":8806:8812   */\n      dup3\n        /* \"#utility.yul\":8795:8804   */\n      dup10\n        /* \"#utility.yul\":8791:8813   */\n      add\n        /* \"#utility.yul\":8760:8823   */\n      tag_95\n      jump\t// in\n    tag_221:\n        /* \"#utility.yul\":8750:8823   */\n      swap5\n      pop\n        /* \"#utility.yul\":8545:8833   */\n      pop\n        /* \"#utility.yul\":8900:8902   */\n      0x40\n        /* \"#utility.yul\":8889:8898   */\n      dup7\n        /* \"#utility.yul\":8885:8903   */\n      add\n        /* \"#utility.yul\":8872:8904   */\n      calldataload\n        /* \"#utility.yul\":8931:8949   */\n      0xffffffffffffffff\n        /* \"#utility.yul\":8923:8929   */\n      dup2\n        /* \"#utility.yul\":8920:8950   */\n      gt\n        /* \"#utility.yul\":8917:9034   */\n      iszero\n      tag_222\n      jumpi\n        /* \"#utility.yul\":8953:9032   */\n      tag_223\n      tag_71\n      jump\t// in\n    tag_223:\n        /* \"#utility.yul\":8917:9034   */\n    tag_222:\n        /* \"#utility.yul\":9058:9121   */\n      tag_224\n        /* \"#utility.yul\":9113:9120   */\n      dup9\n        /* \"#utility.yul\":9104:9110   */\n      dup3\n        /* \"#utility.yul\":9093:9102   */\n      dup10\n        /* \"#utility.yul\":9089:9111   */\n      add\n        /* \"#utility.yul\":9058:9121   */\n      tag_95\n      jump\t// in\n    tag_224:\n        /* \"#utility.yul\":9048:9121   */\n      swap4\n      pop\n        /* \"#utility.yul\":8843:9131   */\n      pop\n        /* \"#utility.yul\":9170:9172   */\n      0x60\n        /* \"#utility.yul\":9196:9249   */\n      tag_225\n        /* \"#utility.yul\":9241:9248   */\n      dup9\n        /* \"#utility.yul\":9232:9238   */\n      dup3\n        /* \"#utility.yul\":9221:9230   */\n      dup10\n        /* \"#utility.yul\":9217:9239   */\n      add\n        /* \"#utility.yul\":9196:9249   */\n      tag_74\n      jump\t// in\n    tag_225:\n        /* \"#utility.yul\":9186:9249   */\n      swap3\n      pop\n        /* \"#utility.yul\":9141:9259   */\n      pop\n        /* \"#utility.yul\":9298:9301   */\n      0x80\n        /* \"#utility.yul\":9325:9378   */\n      tag_226\n        /* \"#utility.yul\":9370:9377   */\n      dup9\n        /* \"#utility.yul\":9361:9367   */\n      dup3\n        /* \"#utility.yul\":9350:9359   */\n      dup10\n        /* \"#utility.yul\":9346:9368   */\n      add\n        /* \"#utility.yul\":9325:9378   */\n      tag_74\n      jump\t// in\n    tag_226:\n        /* \"#utility.yul\":9315:9378   */\n      swap2\n      pop\n        /* \"#utility.yul\":9269:9388   */\n      pop\n        /* \"#utility.yul\":8124:9395   */\n      swap3\n      swap6\n      pop\n      swap3\n      swap6\n      swap1\n      swap4\n      pop\n      jump\t// out\n        /* \"#utility.yul\":9401:9581   */\n    tag_97:\n        /* \"#utility.yul\":9449:9526   */\n      0x4e487b7100000000000000000000000000000000000000000000000000000000\n        /* \"#utility.yul\":9446:9447   */\n      0x00\n        /* \"#utility.yul\":9439:9527   */\n      mstore\n        /* \"#utility.yul\":9546:9550   */\n      0x22\n        /* \"#utility.yul\":9543:9544   */\n      0x04\n        /* \"#utility.yul\":9536:9551   */\n      mstore\n        /* \"#utility.yul\":9570:9574   */\n      0x24\n        /* \"#utility.yul\":9567:9568   */\n      0x00\n        /* \"#utility.yul\":9560:9575   */\n      revert\n        /* \"#utility.yul\":9587:9907   */\n    tag_33:\n        /* \"#utility.yul\":9631:9637   */\n      0x00\n        /* \"#utility.yul\":9668:9669   */\n      0x02\n        /* \"#utility.yul\":9662:9666   */\n      dup3\n        /* \"#utility.yul\":9658:9670   */\n      div\n        /* \"#utility.yul\":9648:9670   */\n      swap1\n      pop\n        /* \"#utility.yul\":9715:9716   */\n      0x01\n        /* \"#utility.yul\":9709:9713   */\n      dup3\n        /* \"#utility.yul\":9705:9717   */\n      and\n        /* \"#utility.yul\":9736:9754   */\n      dup1\n        /* \"#utility.yul\":9726:9807   */\n      tag_229\n      jumpi\n        /* \"#utility.yul\":9792:9796   */\n      0x7f\n        /* \"#utility.yul\":9784:9790   */\n      dup3\n        /* \"#utility.yul\":9780:9797   */\n      and\n        /* \"#utility.yul\":9770:9797   */\n      swap2\n      pop\n        /* \"#utility.yul\":9726:9807   */\n    tag_229:\n        /* \"#utility.yul\":9854:9856   */\n      0x20\n        /* \"#utility.yul\":9846:9852   */\n      dup3\n        /* \"#utility.yul\":9843:9857   */\n      lt\n        /* \"#utility.yul\":9823:9841   */\n      dup2\n        /* \"#utility.yul\":9820:9858   */\n      sub\n        /* \"#utility.yul\":9817:9901   */\n      tag_230\n      jumpi\n        /* \"#utility.yul\":9873:9891   */\n      tag_231\n      tag_97\n      jump\t// in\n    tag_231:\n        /* \"#utility.yul\":9817:9901   */\n    tag_230:\n        /* \"#utility.yul\":9638:9907   */\n      pop\n        /* \"#utility.yul\":9587:9907   */\n      swap2\n      swap1\n      pop\n      jump\t// out\n        /* \"#utility.yul\":9913:10085   */\n    tag_98:\n        /* \"#utility.yul\":10053:10077   */\n      0x796f75206861766520766f74656420616c726561647900000000000000000000\n        /* \"#utility.yul\":10049:10050   */\n      0x00\n        /* \"#utility.yul\":10041:10047   */\n      dup3\n        /* \"#utility.yul\":10037:10051   */\n      add\n        /* \"#utility.yul\":10030:10078   */\n      mstore\n        /* \"#utility.yul\":9913:10085   */\n      pop\n      jump\t// out\n        /* \"#utility.yul\":10091:10457   */\n    tag_99:\n        /* \"#utility.yul\":10233:10236   */\n      0x00\n        /* \"#utility.yul\":10254:10321   */\n      tag_234\n        /* \"#utility.yul\":10318:10320   */\n      0x16\n        /* \"#utility.yul\":10313:10316   */\n      dup4\n        /* \"#utility.yul\":10254:10321   */\n      tag_76\n      jump\t// in\n    tag_234:\n        /* \"#utility.yul\":10247:10321   */\n      swap2\n      pop\n        /* \"#utility.yul\":10330:10423   */\n      tag_235\n        /* \"#utility.yul\":10419:10422   */\n      dup3\n        /* \"#utility.yul\":10330:10423   */\n      tag_98\n      jump\t// in\n    tag_235:\n        /* \"#utility.yul\":10448:10450   */\n      0x20\n        /* \"#utility.yul\":10443:10446   */\n      dup3\n        /* \"#utility.yul\":10439:10451   */\n      add\n        /* \"#utility.yul\":10432:10451   */\n      swap1\n      pop\n        /* \"#utility.yul\":10091:10457   */\n      swap2\n      swap1\n      pop\n      jump\t// out\n        /* \"#utility.yul\":10463:10882   */\n    tag_41:\n        /* \"#utility.yul\":10629:10633   */\n      0x00\n        /* \"#utility.yul\":10667:10669   */\n      0x20\n        /* \"#utility.yul\":10656:10665   */\n      dup3\n        /* \"#utility.yul\":10652:10670   */\n      add\n        /* \"#utility.yul\":10644:10670   */\n      swap1\n      pop\n        /* \"#utility.yul\":10716:10725   */\n      dup2\n        /* \"#utility.yul\":10710:10714   */\n      dup2\n        /* \"#utility.yul\":10706:10726   */\n      sub\n        /* \"#utility.yul\":10702:10703   */\n      0x00\n        /* \"#utility.yul\":10691:10700   */\n      dup4\n        /* \"#utility.yul\":10687:10704   */\n      add\n        /* \"#utility.yul\":10680:10727   */\n      mstore\n        /* \"#utility.yul\":10744:10875   */\n      tag_237\n        /* \"#utility.yul\":10870:10874   */\n      dup2\n        /* \"#utility.yul\":10744:10875   */\n      tag_99\n      jump\t// in\n    tag_237:\n        /* \"#utility.yul\":10736:10875   */\n      swap1\n      pop\n        /* \"#utility.yul\":10463:10882   */\n      swap2\n      swap1\n      pop\n      jump\t// out\n        /* \"#utility.yul\":10888:11059   */\n    tag_100:\n        /* \"#utility.yul\":11028:11051   */\n      0x796f7520617265206e6f7420746865206f776e65720000000000000000000000\n        /* \"#utility.yul\":11024:11025   */\n      0x00\n        /* \"#utility.yul\":11016:11022   */\n      dup3\n        /* \"#utility.yul\":11012:11026   */\n      add\n        /* \"#utility.yul\":11005:11052   */\n      mstore\n        /* \"#utility.yul\":10888:11059   */\n      pop\n      jump\t// out\n        /* \"#utility.yul\":11065:11431   */\n    tag_101:\n        /* \"#utility.yul\":11207:11210   */\n      0x00\n        /* \"#utility.yul\":11228:11295   */\n      tag_240\n        /* \"#utility.yul\":11292:11294   */\n      0x15\n        /* \"#utility.yul\":11287:11290   */\n      dup4\n        /* \"#utility.yul\":11228:11295   */\n      tag_76\n      jump\t// in\n    tag_240:\n        /* \"#utility.yul\":11221:11295   */\n      swap2\n      pop\n        /* \"#utility.yul\":11304:11397   */\n      tag_241\n        /* \"#utility.yul\":11393:11396   */\n      dup3\n        /* \"#utility.yul\":11304:11397   */\n      tag_100\n      jump\t// in\n    tag_241:\n        /* \"#utility.yul\":11422:11424   */\n      0x20\n        /* \"#utility.yul\":11417:11420   */\n      dup3\n        /* \"#utility.yul\":11413:11425   */\n      add\n        /* \"#utility.yul\":11406:11425   */\n      swap1\n      pop\n        /* \"#utility.yul\":11065:11431   */\n      swap2\n      swap1\n      pop\n      jump\t// out\n        /* \"#utility.yul\":11437:11856   */\n    tag_44:\n        /* \"#utility.yul\":11603:11607   */\n      0x00\n        /* \"#utility.yul\":11641:11643   */\n      0x20\n        /* \"#utility.yul\":11630:11639   */\n      dup3\n        /* \"#utility.yul\":11626:11644   */\n      add\n        /* \"#utility.yul\":11618:11644   */\n      swap1\n      pop\n        /* \"#utility.yul\":11690:11699   */\n      dup2\n        /* \"#utility.yul\":11684:11688   */\n      dup2\n        /* \"#utility.yul\":11680:11700   */\n      sub\n        /* \"#utility.yul\":11676:11677   */\n      0x00\n        /* \"#utility.yul\":11665:11674   */\n      dup4\n        /* \"#utility.yul\":11661:11678   */\n      add\n        /* \"#utility.yul\":11654:11701   */\n      mstore\n        /* \"#utility.yul\":11718:11849   */\n      tag_243\n        /* \"#utility.yul\":11844:11848   */\n      dup2\n        /* \"#utility.yul\":11718:11849   */\n      tag_101\n      jump\t// in\n    tag_243:\n        /* \"#utility.yul\":11710:11849   */\n      swap1\n      pop\n        /* \"#utility.yul\":11437:11856   */\n      swap2\n      swap1\n      pop\n      jump\t// out\n        /* \"#utility.yul\":11862:12042   */\n    tag_102:\n        /* \"#utility.yul\":11910:11987   */\n      0x4e487b7100000000000000000000000000000000000000000000000000000000\n        /* \"#utility.yul\":11907:11908   */\n      0x00\n        /* \"#utility.yul\":11900:11988   */\n      mstore\n        /* \"#utility.yul\":12007:12011   */\n      0x11\n        /* \"#utility.yul\":12004:12005   */\n      0x04\n        /* \"#utility.yul\":11997:12012   */\n      mstore\n        /* \"#utility.yul\":12031:12035   */\n      0x24\n        /* \"#utility.yul\":12028:12029   */\n      0x00\n        /* \"#utility.yul\":12021:12036   */\n      revert\n        /* \"#utility.yul\":12048:12239   */\n    tag_46:\n        /* \"#utility.yul\":12088:12091   */\n      0x00\n        /* \"#utility.yul\":12107:12127   */\n      tag_246\n        /* \"#utility.yul\":12125:12126   */\n      dup3\n        /* \"#utility.yul\":12107:12127   */\n      tag_72\n      jump\t// in\n    tag_246:\n        /* \"#utility.yul\":12102:12127   */\n      swap2\n      pop\n        /* \"#utility.yul\":12141:12161   */\n      tag_247\n        /* \"#utility.yul\":12159:12160   */\n      dup4\n        /* \"#utility.yul\":12141:12161   */\n      tag_72\n      jump\t// in\n    tag_247:\n        /* \"#utility.yul\":12136:12161   */\n      swap3\n      pop\n        /* \"#utility.yul\":12184:12185   */\n      dup3\n        /* \"#utility.yul\":12181:12182   */\n      dup3\n        /* \"#utility.yul\":12177:12186   */\n      add\n        /* \"#utility.yul\":12170:12186   */\n      swap1\n      pop\n        /* \"#utility.yul\":12205:12208   */\n      dup1\n        /* \"#utility.yul\":12202:12203   */\n      dup3\n        /* \"#utility.yul\":12199:12209   */\n      gt\n        /* \"#utility.yul\":12196:12232   */\n      iszero\n      tag_248\n      jumpi\n        /* \"#utility.yul\":12212:12230   */\n      tag_249\n      tag_102\n      jump\t// in\n    tag_249:\n        /* \"#utility.yul\":12196:12232   */\n    tag_248:\n        /* \"#utility.yul\":12048:12239   */\n      swap3\n      swap2\n      pop\n      pop\n      jump\t// out\n        /* \"#utility.yul\":12245:12427   */\n    tag_103:\n        /* \"#utility.yul\":12385:12419   */\n      0x41646472657373206173736f6369617465642077697468206f6666696369616c\n        /* \"#utility.yul\":12381:12382   */\n      0x00\n        /* \"#utility.yul\":12373:12379   */\n      dup3\n        /* \"#utility.yul\":12369:12383   */\n      add\n        /* \"#utility.yul\":12362:12420   */\n      mstore\n        /* \"#utility.yul\":12245:12427   */\n      pop\n      jump\t// out\n        /* \"#utility.yul\":12433:12799   */\n    tag_104:\n        /* \"#utility.yul\":12575:12578   */\n      0x00\n        /* \"#utility.yul\":12596:12663   */\n      tag_252\n        /* \"#utility.yul\":12660:12662   */\n      0x20\n        /* \"#utility.yul\":12655:12658   */\n      dup4\n        /* \"#utility.yul\":12596:12663   */\n      tag_76\n      jump\t// in\n    tag_252:\n        /* \"#utility.yul\":12589:12663   */\n      swap2\n      pop\n        /* \"#utility.yul\":12672:12765   */\n      tag_253\n        /* \"#utility.yul\":12761:12764   */\n      dup3\n        /* \"#utility.yul\":12672:12765   */\n      tag_103\n      jump\t// in\n    tag_253:\n        /* \"#utility.yul\":12790:12792   */\n      0x20\n        /* \"#utility.yul\":12785:12788   */\n      dup3\n        /* \"#utility.yul\":12781:12793   */\n      add\n        /* \"#utility.yul\":12774:12793   */\n      swap1\n      pop\n        /* \"#utility.yul\":12433:12799   */\n      swap2\n      swap1\n      pop\n      jump\t// out\n        /* \"#utility.yul\":12805:13224   */\n    tag_50:\n        /* \"#utility.yul\":12971:12975   */\n      0x00\n        /* \"#utility.yul\":13009:13011   */\n      0x20\n        /* \"#utility.yul\":12998:13007   */\n      dup3\n        /* \"#utility.yul\":12994:13012   */\n      add\n        /* \"#utility.yul\":12986:13012   */\n      swap1\n      pop\n        /* \"#utility.yul\":13058:13067   */\n      dup2\n        /* \"#utility.yul\":13052:13056   */\n      dup2\n        /* \"#utility.yul\":13048:13068   */\n      sub\n        /* \"#utility.yul\":13044:13045   */\n      0x00\n        /* \"#utility.yul\":13033:13042   */\n      dup4\n        /* \"#utility.yul\":13029:13046   */\n      add\n        /* \"#utility.yul\":13022:13069   */\n      mstore\n        /* \"#utility.yul\":13086:13217   */\n      tag_255\n        /* \"#utility.yul\":13212:13216   */\n      dup2\n        /* \"#utility.yul\":13086:13217   */\n      tag_104\n      jump\t// in\n    tag_255:\n        /* \"#utility.yul\":13078:13217   */\n      swap1\n      pop\n        /* \"#utility.yul\":12805:13224   */\n      swap2\n      swap1\n      pop\n      jump\t// out\n        /* \"#utility.yul\":13230:13371   */\n    tag_105:\n        /* \"#utility.yul\":13279:13283   */\n      0x00\n        /* \"#utility.yul\":13302:13305   */\n      dup2\n        /* \"#utility.yul\":13294:13305   */\n      swap1\n      pop\n        /* \"#utility.yul\":13325:13328   */\n      dup2\n        /* \"#utility.yul\":13322:13323   */\n      0x00\n        /* \"#utility.yul\":13315:13329   */\n      mstore\n        /* \"#utility.yul\":13359:13363   */\n      0x20\n        /* \"#utility.yul\":13356:13357   */\n      0x00\n        /* \"#utility.yul\":13346:13364   */\n      keccak256\n        /* \"#utility.yul\":13338:13364   */\n      swap1\n      pop\n        /* \"#utility.yul\":13230:13371   */\n      swap2\n      swap1\n      pop\n      jump\t// out\n        /* \"#utility.yul\":13377:13470   */\n    tag_106:\n        /* \"#utility.yul\":13414:13420   */\n      0x00\n        /* \"#utility.yul\":13461:13463   */\n      0x20\n        /* \"#utility.yul\":13456:13458   */\n      0x1f\n        /* \"#utility.yul\":13449:13454   */\n      dup4\n        /* \"#utility.yul\":13445:13459   */\n      add\n        /* \"#utility.yul\":13441:13464   */\n      div\n        /* \"#utility.yul\":13431:13464   */\n      swap1\n      pop\n        /* \"#utility.yul\":13377:13470   */\n      swap2\n      swap1\n      pop\n      jump\t// out\n        /* \"#utility.yul\":13476:13583   */\n    tag_107:\n        /* \"#utility.yul\":13520:13528   */\n      0x00\n        /* \"#utility.yul\":13570:13575   */\n      dup3\n        /* \"#utility.yul\":13564:13568   */\n      dup3\n        /* \"#utility.yul\":13560:13576   */\n      shl\n        /* \"#utility.yul\":13539:13576   */\n      swap1\n      pop\n        /* \"#utility.yul\":13476:13583   */\n      swap3\n      swap2\n      pop\n      pop\n      jump\t// out\n        /* \"#utility.yul\":13589:13982   */\n    tag_108:\n        /* \"#utility.yul\":13658:13664   */\n      0x00\n        /* \"#utility.yul\":13708:13709   */\n      0x08\n        /* \"#utility.yul\":13696:13706   */\n      dup4\n        /* \"#utility.yul\":13692:13710   */\n      mul\n        /* \"#utility.yul\":13731:13828   */\n      tag_260\n        /* \"#utility.yul\":13761:13827   */\n      0xffffffffffffffffffffffffffffffffffffffffffffffffffffffffffffffff\n        /* \"#utility.yul\":13750:13759   */\n      dup3\n        /* \"#utility.yul\":13731:13828   */\n      tag_107\n      jump\t// in\n    tag_260:\n        /* \"#utility.yul\":13849:13888   */\n      tag_261\n        /* \"#utility.yul\":13879:13887   */\n      dup7\n        /* \"#utility.yul\":13868:13877   */\n      dup4\n        /* \"#utility.yul\":13849:13888   */\n      tag_107\n      jump\t// in\n    tag_261:\n        /* \"#utility.yul\":13837:13888   */\n      swap6\n      pop\n        /* \"#utility.yul\":13921:13925   */\n      dup1\n        /* \"#utility.yul\":13917:13926   */\n      not\n        /* \"#utility.yul\":13910:13915   */\n      dup5\n        /* \"#utility.yul\":13906:13927   */\n      and\n        /* \"#utility.yul\":13897:13927   */\n      swap4\n      pop\n        /* \"#utility.yul\":13970:13974   */\n      dup1\n        /* \"#utility.yul\":13960:13968   */\n      dup7\n        /* \"#utility.yul\":13956:13975   */\n      and\n        /* \"#utility.yul\":13949:13954   */\n      dup5\n        /* \"#utility.yul\":13946:13976   */\n      or\n        /* \"#utility.yul\":13936:13976   */\n      swap3\n      pop\n        /* \"#utility.yul\":13665:13982   */\n      pop\n      pop\n        /* \"#utility.yul\":13589:13982   */\n      swap4\n      swap3\n      pop\n      pop\n      pop\n      jump\t// out\n        /* \"#utility.yul\":13988:14048   */\n    tag_109:\n        /* \"#utility.yul\":14016:14019   */\n      0x00\n        /* \"#utility.yul\":14037:14042   */\n      dup2\n        /* \"#utility.yul\":14030:14042   */\n      swap1\n      pop\n        /* \"#utility.yul\":13988:14048   */\n      swap2\n      swap1\n      pop\n      jump\t// out\n        /* \"#utility.yul\":14054:14196   */\n    tag_110:\n        /* \"#utility.yul\":14104:14113   */\n      0x00\n        /* \"#utility.yul\":14137:14190   */\n      tag_264\n        /* \"#utility.yul\":14155:14189   */\n      tag_265\n        /* \"#utility.yul\":14164:14188   */\n      tag_266\n        /* \"#utility.yul\":14182:14187   */\n      dup5\n        /* \"#utility.yul\":14164:14188   */\n      tag_72\n      jump\t// in\n    tag_266:\n        /* \"#utility.yul\":14155:14189   */\n      tag_109\n      jump\t// in\n    tag_265:\n        /* \"#utility.yul\":14137:14190   */\n      tag_72\n      jump\t// in\n    tag_264:\n        /* \"#utility.yul\":14124:14190   */\n      swap1\n      pop\n        /* \"#utility.yul\":14054:14196   */\n      swap2\n      swap1\n      pop\n      jump\t// out\n        /* \"#utility.yul\":14202:14277   */\n    tag_111:\n        /* \"#utility.yul\":14245:14248   */\n      0x00\n        /* \"#utility.yul\":14266:14271   */\n      dup2\n        /* \"#utility.yul\":14259:14271   */\n      swap1\n      pop\n        /* \"#utility.yul\":14202:14277   */\n      swap2\n      swap1\n      pop\n      jump\t// out\n        /* \"#utility.yul\":14283:14552   */\n    tag_112:\n        /* \"#utility.yul\":14393:14432   */\n      tag_269\n        /* \"#utility.yul\":14424:14431   */\n      dup4\n        /* \"#utility.yul\":14393:14432   */\n      tag_110\n      jump\t// in\n    tag_269:\n        /* \"#utility.yul\":14454:14545   */\n      tag_270\n        /* \"#utility.yul\":14503:14544   */\n      tag_271\n        /* \"#utility.yul\":14527:14543   */\n      dup3\n        /* \"#utility.yul\":14503:14544   */\n      tag_111\n      jump\t// in\n    tag_271:\n        /* \"#utility.yul\":14495:14501   */\n      dup5\n        /* \"#utility.yul\":14488:14492   */\n      dup5\n        /* \"#utility.yul\":14482:14493   */\n      sload\n        /* \"#utility.yul\":14454:14545   */\n      tag_108\n      jump\t// in\n    tag_270:\n        /* \"#utility.yul\":14448:14452   */\n      dup3\n        /* \"#utility.yul\":14441:14546   */\n      sstore\n        /* \"#utility.yul\":14359:14552   */\n      pop\n        /* \"#utility.yul\":14283:14552   */\n      pop\n      pop\n      pop\n      jump\t// out\n        /* \"#utility.yul\":14558:14631   */\n    tag_113:\n        /* \"#utility.yul\":14603:14606   */\n      0x00\n        /* \"#utility.yul\":14558:14631   */\n      swap1\n      jump\t// out\n        /* \"#utility.yul\":14637:14826   */\n    tag_114:\n        /* \"#utility.yul\":14714:14746   */\n      tag_274\n      tag_113\n      jump\t// in\n    tag_274:\n        /* \"#utility.yul\":14755:14820   */\n      tag_275\n        /* \"#utility.yul\":14813:14819   */\n      dup2\n        /* \"#utility.yul\":14805:14811   */\n      dup5\n        /* \"#utility.yul\":14799:14803   */\n      dup5\n        /* \"#utility.yul\":14755:14820   */\n      tag_112\n      jump\t// in\n    tag_275:\n        /* \"#utility.yul\":14690:14826   */\n      pop\n        /* \"#utility.yul\":14637:14826   */\n      pop\n      pop\n      jump\t// out\n        /* \"#utility.yul\":14832:15018   */\n    tag_115:\n        /* \"#utility.yul\":14892:15012   */\n    tag_277:\n        /* \"#utility.yul\":14909:14912   */\n      dup2\n        /* \"#utility.yul\":14902:14907   */\n      dup2\n        /* \"#utility.yul\":14899:14913   */\n      lt\n        /* \"#utility.yul\":14892:15012   */\n      iszero\n      tag_279\n      jumpi\n        /* \"#utility.yul\":14963:15002   */\n      tag_280\n        /* \"#utility.yul\":15000:15001   */\n      0x00\n        /* \"#utility.yul\":14993:14998   */\n      dup3\n        /* \"#utility.yul\":14963:15002   */\n      tag_114\n      jump\t// in\n    tag_280:\n        /* \"#utility.yul\":14936:14937   */\n      0x01\n        /* \"#utility.yul\":14929:14934   */\n      dup2\n        /* \"#utility.yul\":14925:14938   */\n      add\n        /* \"#utility.yul\":14916:14938   */\n      swap1\n      pop\n        /* \"#utility.yul\":14892:15012   */\n      jump(tag_277)\n    tag_279:\n        /* \"#utility.yul\":14832:15018   */\n      pop\n      pop\n      jump\t// out\n        /* \"#utility.yul\":15024:15567   */\n    tag_116:\n        /* \"#utility.yul\":15125:15127   */\n      0x1f\n        /* \"#utility.yul\":15120:15123   */\n      dup3\n        /* \"#utility.yul\":15117:15128   */\n      gt\n        /* \"#utility.yul\":15114:15560   */\n      iszero\n      tag_282\n      jumpi\n        /* \"#utility.yul\":15159:15197   */\n      tag_283\n        /* \"#utility.yul\":15191:15196   */\n      dup2\n        /* \"#utility.yul\":15159:15197   */\n      tag_105\n      jump\t// in\n    tag_283:\n        /* \"#utility.yul\":15243:15272   */\n      tag_284\n        /* \"#utility.yul\":15261:15271   */\n      dup5\n        /* \"#utility.yul\":15243:15272   */\n      tag_106\n      jump\t// in\n    tag_284:\n        /* \"#utility.yul\":15233:15241   */\n      dup2\n        /* \"#utility.yul\":15229:15273   */\n      add\n        /* \"#utility.yul\":15426:15428   */\n      0x20\n        /* \"#utility.yul\":15414:15424   */\n      dup6\n        /* \"#utility.yul\":15411:15429   */\n      lt\n        /* \"#utility.yul\":15408:15457   */\n      iszero\n      tag_285\n      jumpi\n        /* \"#utility.yul\":15447:15455   */\n      dup2\n        /* \"#utility.yul\":15432:15455   */\n      swap1\n      pop\n        /* \"#utility.yul\":15408:15457   */\n    tag_285:\n        /* \"#utility.yul\":15470:15550   */\n      tag_286\n        /* \"#utility.yul\":15526:15548   */\n      tag_287\n        /* \"#utility.yul\":15544:15547   */\n      dup6\n        /* \"#utility.yul\":15526:15548   */\n      tag_106\n      jump\t// in\n    tag_287:\n        /* \"#utility.yul\":15516:15524   */\n      dup4\n        /* \"#utility.yul\":15512:15549   */\n      add\n        /* \"#utility.yul\":15499:15510   */\n      dup3\n        /* \"#utility.yul\":15470:15550   */\n      tag_115\n      jump\t// in\n    tag_286:\n        /* \"#utility.yul\":15129:15560   */\n      pop\n      pop\n        /* \"#utility.yul\":15114:15560   */\n    tag_282:\n        /* \"#utility.yul\":15024:15567   */\n      pop\n      pop\n      pop\n      jump\t// out\n        /* \"#utility.yul\":15573:15690   */\n    tag_117:\n        /* \"#utility.yul\":15627:15635   */\n      0x00\n        /* \"#utility.yul\":15677:15682   */\n      dup3\n        /* \"#utility.yul\":15671:15675   */\n      dup3\n        /* \"#utility.yul\":15667:15683   */\n      shr\n        /* \"#utility.yul\":15646:15683   */\n      swap1\n      pop\n        /* \"#utility.yul\":15573:15690   */\n      swap3\n      swap2\n      pop\n      pop\n      jump\t// out\n        /* \"#utility.yul\":15696:15865   */\n    tag_118:\n        /* \"#utility.yul\":15740:15746   */\n      0x00\n        /* \"#utility.yul\":15773:15824   */\n      tag_290\n        /* \"#utility.yul\":15821:15822   */\n      0x00\n        /* \"#utility.yul\":15817:15823   */\n      not\n        /* \"#utility.yul\":15809:15814   */\n      dup5\n        /* \"#utility.yul\":15806:15807   */\n      0x08\n        /* \"#utility.yul\":15802:15815   */\n      mul\n        /* \"#utility.yul\":15773:15824   */\n      tag_117\n      jump\t// in\n    tag_290:\n        /* \"#utility.yul\":15769:15825   */\n      not\n        /* \"#utility.yul\":15854:15858   */\n      dup1\n        /* \"#utility.yul\":15848:15852   */\n      dup4\n        /* \"#utility.yul\":15844:15859   */\n      and\n        /* \"#utility.yul\":15834:15859   */\n      swap2\n      pop\n        /* \"#utility.yul\":15747:15865   */\n      pop\n        /* \"#utility.yul\":15696:15865   */\n      swap3\n      swap2\n      pop\n      pop\n      jump\t// out\n        /* \"#utility.yul\":15870:16165   */\n    tag_119:\n        /* \"#utility.yul\":15946:15950   */\n      0x00\n        /* \"#utility.yul\":16092:16121   */\n      tag_292\n        /* \"#utility.yul\":16117:16120   */\n      dup4\n        /* \"#utility.yul\":16111:16115   */\n      dup4\n        /* \"#utility.yul\":16092:16121   */\n      tag_118\n      jump\t// in\n    tag_292:\n        /* \"#utility.yul\":16084:16121   */\n      swap2\n      pop\n        /* \"#utility.yul\":16154:16157   */\n      dup3\n        /* \"#utility.yul\":16151:16152   */\n      0x02\n        /* \"#utility.yul\":16147:16158   */\n      mul\n        /* \"#utility.yul\":16141:16145   */\n      dup3\n        /* \"#utility.yul\":16138:16159   */\n      or\n        /* \"#utility.yul\":16130:16159   */\n      swap1\n      pop\n        /* \"#utility.yul\":15870:16165   */\n      swap3\n      swap2\n      pop\n      pop\n      jump\t// out\n        /* \"#utility.yul\":16170:17565   */\n    tag_52:\n        /* \"#utility.yul\":16287:16324   */\n      tag_294\n        /* \"#utility.yul\":16320:16323   */\n      dup3\n        /* \"#utility.yul\":16287:16324   */\n      tag_75\n      jump\t// in\n    tag_294:\n        /* \"#utility.yul\":16389:16407   */\n      0xffffffffffffffff\n        /* \"#utility.yul\":16381:16387   */\n      dup2\n        /* \"#utility.yul\":16378:16408   */\n      gt\n        /* \"#utility.yul\":16375:16431   */\n      iszero\n      tag_295\n      jumpi\n        /* \"#utility.yul\":16411:16429   */\n      tag_296\n      tag_89\n      jump\t// in\n    tag_296:\n        /* \"#utility.yul\":16375:16431   */\n    tag_295:\n        /* \"#utility.yul\":16455:16493   */\n      tag_297\n        /* \"#utility.yul\":16487:16491   */\n      dup3\n        /* \"#utility.yul\":16481:16492   */\n      sload\n        /* \"#utility.yul\":16455:16493   */\n      tag_33\n      jump\t// in\n    tag_297:\n        /* \"#utility.yul\":16540:16607   */\n      tag_298\n        /* \"#utility.yul\":16600:16606   */\n      dup3\n        /* \"#utility.yul\":16592:16598   */\n      dup3\n        /* \"#utility.yul\":16586:16590   */\n      dup6\n        /* \"#utility.yul\":16540:16607   */\n      tag_116\n      jump\t// in\n    tag_298:\n        /* \"#utility.yul\":16634:16635   */\n      0x00\n        /* \"#utility.yul\":16658:16662   */\n      0x20\n        /* \"#utility.yul\":16645:16662   */\n      swap1\n      pop\n        /* \"#utility.yul\":16690:16692   */\n      0x1f\n        /* \"#utility.yul\":16682:16688   */\n      dup4\n        /* \"#utility.yul\":16679:16693   */\n      gt\n        /* \"#utility.yul\":16707:16708   */\n      0x01\n        /* \"#utility.yul\":16702:17320   */\n      dup2\n      eq\n      tag_300\n      jumpi\n        /* \"#utility.yul\":17364:17365   */\n      0x00\n        /* \"#utility.yul\":17381:17387   */\n      dup5\n        /* \"#utility.yul\":17378:17455   */\n      iszero\n      tag_301\n      jumpi\n        /* \"#utility.yul\":17430:17439   */\n      dup3\n        /* \"#utility.yul\":17425:17428   */\n      dup8\n        /* \"#utility.yul\":17421:17440   */\n      add\n        /* \"#utility.yul\":17415:17441   */\n      mload\n        /* \"#utility.yul\":17406:17441   */\n      swap1\n      pop\n        /* \"#utility.yul\":17378:17455   */\n    tag_301:\n        /* \"#utility.yul\":17481:17548   */\n      tag_302\n        /* \"#utility.yul\":17541:17547   */\n      dup6\n        /* \"#utility.yul\":17534:17539   */\n      dup3\n        /* \"#utility.yul\":17481:17548   */\n      tag_119\n      jump\t// in\n    tag_302:\n        /* \"#utility.yul\":17475:17479   */\n      dup7\n        /* \"#utility.yul\":17468:17549   */\n      sstore\n        /* \"#utility.yul\":17337:17559   */\n      pop\n        /* \"#utility.yul\":16672:17559   */\n      jump(tag_299)\n        /* \"#utility.yul\":16702:17320   */\n    tag_300:\n        /* \"#utility.yul\":16754:16758   */\n      0x1f\n        /* \"#utility.yul\":16750:16759   */\n      not\n        /* \"#utility.yul\":16742:16748   */\n      dup5\n        /* \"#utility.yul\":16738:16760   */\n      and\n        /* \"#utility.yul\":16788:16825   */\n      tag_303\n        /* \"#utility.yul\":16820:16824   */\n      dup7\n        /* \"#utility.yul\":16788:16825   */\n      tag_105\n      jump\t// in\n    tag_303:\n        /* \"#utility.yul\":16847:16848   */\n      0x00\n        /* \"#utility.yul\":16861:17069   */\n    tag_304:\n        /* \"#utility.yul\":16875:16882   */\n      dup3\n        /* \"#utility.yul\":16872:16873   */\n      dup2\n        /* \"#utility.yul\":16869:16883   */\n      lt\n        /* \"#utility.yul\":16861:17069   */\n      iszero\n      tag_306\n      jumpi\n        /* \"#utility.yul\":16954:16963   */\n      dup5\n        /* \"#utility.yul\":16949:16952   */\n      dup10\n        /* \"#utility.yul\":16945:16964   */\n      add\n        /* \"#utility.yul\":16939:16965   */\n      mload\n        /* \"#utility.yul\":16931:16937   */\n      dup3\n        /* \"#utility.yul\":16924:16966   */\n      sstore\n        /* \"#utility.yul\":17005:17006   */\n      0x01\n        /* \"#utility.yul\":16997:17003   */\n      dup3\n        /* \"#utility.yul\":16993:17007   */\n      add\n        /* \"#utility.yul\":16983:17007   */\n      swap2\n      pop\n        /* \"#utility.yul\":17052:17054   */\n      0x20\n        /* \"#utility.yul\":17041:17050   */\n      dup6\n        /* \"#utility.yul\":17037:17055   */\n      add\n        /* \"#utility.yul\":17024:17055   */\n      swap5\n      pop\n        /* \"#utility.yul\":16898:16902   */\n      0x20\n        /* \"#utility.yul\":16895:16896   */\n      dup2\n        /* \"#utility.yul\":16891:16903   */\n      add\n        /* \"#utility.yul\":16886:16903   */\n      swap1\n      pop\n        /* \"#utility.yul\":16861:17069   */\n      jump(tag_304)\n    tag_306:\n        /* \"#utility.yul\":17097:17103   */\n      dup7\n        /* \"#utility.yul\":17088:17095   */\n      dup4\n        /* \"#utility.yul\":17085:17104   */\n      lt\n        /* \"#utility.yul\":17082:17261   */\n      iszero\n      tag_307\n      jumpi\n        /* \"#utility.yul\":17155:17164   */\n      dup5\n        /* \"#utility.yul\":17150:17153   */\n      dup10\n        /* \"#utility.yul\":17146:17165   */\n      add\n        /* \"#utility.yul\":17140:17166   */\n      mload\n        /* \"#utility.yul\":17198:17246   */\n      tag_308\n        /* \"#utility.yul\":17240:17244   */\n      0x1f\n        /* \"#utility.yul\":17232:17238   */\n      dup10\n        /* \"#utility.yul\":17228:17245   */\n      and\n        /* \"#utility.yul\":17217:17226   */\n      dup3\n        /* \"#utility.yul\":17198:17246   */\n      tag_118\n      jump\t// in\n    tag_308:\n        /* \"#utility.yul\":17190:17196   */\n      dup4\n        /* \"#utility.yul\":17183:17247   */\n      sstore\n        /* \"#utility.yul\":17105:17261   */\n      pop\n        /* \"#utility.yul\":17082:17261   */\n    tag_307:\n        /* \"#utility.yul\":17307:17308   */\n      0x01\n        /* \"#utility.yul\":17303:17304   */\n      0x02\n        /* \"#utility.yul\":17295:17301   */\n      dup9\n        /* \"#utility.yul\":17291:17305   */\n      mul\n        /* \"#utility.yul\":17287:17309   */\n      add\n        /* \"#utility.yul\":17281:17285   */\n      dup9\n        /* \"#utility.yul\":17274:17310   */\n      sstore\n        /* \"#utility.yul\":16709:17320   */\n      pop\n      pop\n      pop\n        /* \"#utility.yul\":16672:17559   */\n    tag_299:\n      pop\n        /* \"#utility.yul\":16262:17565   */\n      pop\n      pop\n      pop\n        /* \"#utility.yul\":16170:17565   */\n      pop\n      pop\n      jump\t// out\n        /* \"#utility.yul\":17571:17792   */\n    tag_120:\n        /* \"#utility.yul\":17711:17745   */\n      0x6f6e6c79206f776e65722063616e20616464206f6666696369616c206d656d62\n        /* \"#utility.yul\":17707:17708   */\n      0x00\n        /* \"#utility.yul\":17699:17705   */\n      dup3\n        /* \"#utility.yul\":17695:17709   */\n      add\n        /* \"#utility.yul\":17688:17746   */\n      mstore\n        /* \"#utility.yul\":17780:17784   */\n      0x6572000000000000000000000000000000000000000000000000000000000000\n        /* \"#utility.yul\":17775:17777   */\n      0x20\n        /* \"#utility.yul\":17767:17773   */\n      dup3\n        /* \"#utility.yul\":17763:17778   */\n      add\n        /* \"#utility.yul\":17756:17785   */\n      mstore\n        /* \"#utility.yul\":17571:17792   */\n      pop\n      jump\t// out\n        /* \"#utility.yul\":17798:18164   */\n    tag_121:\n        /* \"#utility.yul\":17940:17943   */\n      0x00\n        /* \"#utility.yul\":17961:18028   */\n      tag_311\n        /* \"#utility.yul\":18025:18027   */\n      0x22\n        /* \"#utility.yul\":18020:18023   */\n      dup4\n        /* \"#utility.yul\":17961:18028   */\n      tag_76\n      jump\t// in\n    tag_311:\n        /* \"#utility.yul\":17954:18028   */\n      swap2\n      pop\n        /* \"#utility.yul\":18037:18130   */\n      tag_312\n        /* \"#utility.yul\":18126:18129   */\n      dup3\n        /* \"#utility.yul\":18037:18130   */\n      tag_120\n      jump\t// in\n    tag_312:\n        /* \"#utility.yul\":18155:18157   */\n      0x40\n        /* \"#utility.yul\":18150:18153   */\n      dup3\n        /* \"#utility.yul\":18146:18158   */\n      add\n        /* \"#utility.yul\":18139:18158   */\n      swap1\n      pop\n        /* \"#utility.yul\":17798:18164   */\n      swap2\n      swap1\n      pop\n      jump\t// out\n        /* \"#utility.yul\":18170:18589   */\n    tag_66:\n        /* \"#utility.yul\":18336:18340   */\n      0x00\n        /* \"#utility.yul\":18374:18376   */\n      0x20\n        /* \"#utility.yul\":18363:18372   */\n      dup3\n        /* \"#utility.yul\":18359:18377   */\n      add\n        /* \"#utility.yul\":18351:18377   */\n      swap1\n      pop\n        /* \"#utility.yul\":18423:18432   */\n      dup2\n        /* \"#utility.yul\":18417:18421   */\n      dup2\n        /* \"#utility.yul\":18413:18433   */\n      sub\n        /* \"#utility.yul\":18409:18410   */\n      0x00\n        /* \"#utility.yul\":18398:18407   */\n      dup4\n        /* \"#utility.yul\":18394:18411   */\n      add\n        /* \"#utility.yul\":18387:18434   */\n      mstore\n        /* \"#utility.yul\":18451:18582   */\n      tag_314\n        /* \"#utility.yul\":18577:18581   */\n      dup2\n        /* \"#utility.yul\":18451:18582   */\n      tag_121\n      jump\t// in\n    tag_314:\n        /* \"#utility.yul\":18443:18582   */\n      swap1\n      pop\n        /* \"#utility.yul\":18170:18589   */\n      swap2\n      swap1\n      pop\n      jump\t// out\n\n    auxdata: 0xa2646970667358221220655800640733da37c590dfc897920a540283478c31dbabe4a33542f9436e9ead64736f6c63430008120033\n}\n",
				"bytecode": {
					"linkReferences": {},
					"object": "608060405234801561001057600080fd5b5033600260006101000a81548173ffffffffffffffffffffffffffffffffffffffff021916908373ffffffffffffffffffffffffffffffffffffffff1602179055506111f2806100616000396000f3fe608060405234801561001057600080fd5b50600436106100575760003560e01c806309a34f001461005c578063129b873b1461008e5780633f3f6238146100aa578063d93321ef146100c6578063d938b386146100fa575b600080fd5b610076600480360381019061007191906107ee565b610116565b604051610085939291906108d5565b60405180910390f35b6100a860048036038101906100a39190610971565b6101d5565b005b6100c460048036038101906100bf9190610ae6565b61035a565b005b6100e060048036038101906100db9190610b55565b6104a2565b6040516100f1959493929190610b91565b60405180910390f35b610114600480360381019061010f9190610bf2565b610608565b005b600160205280600052604060002060009150905080600001805461013990610cd4565b80601f016020809104026020016040519081016040528092919081815260200182805461016590610cd4565b80156101b25780601f10610187576101008083540402835291602001916101b2565b820191906000526020600020905b81548152906001019060200180831161019557829003601f168201915b5050505050908060010154908060020160009054906101000a900460ff16905083565b600015156001600084815260200190815260200160002060020160009054906101000a900460ff1615151461023f576040517f08c379a000000000000000000000000000000000000000000000000000000000815260040161023690610d51565b60405180910390fd5b600260009054906101000a900473ffffffffffffffffffffffffffffffffffffffff1673ffffffffffffffffffffffffffffffffffffffff163373ffffffffffffffffffffffffffffffffffffffff16146102cf576040517f08c379a00000000000000000000000000000000000000000000000000000000081526004016102c690610dbd565b60405180910390fd5b600180600084815260200190815260200160002060020160006101000a81548160ff02191690831515021790555060016000808373ffffffffffffffffffffffffffffffffffffffff1673ffffffffffffffffffffffffffffffffffffffff168152602001908152602001600020600301600082825461034f9190610e0c565b925050819055505050565b6000803373ffffffffffffffffffffffffffffffffffffffff1673ffffffffffffffffffffffffffffffffffffffff16815260200190815260200160002060040160009054906101000a900473ffffffffffffffffffffffffffffffffffffffff1673ffffffffffffffffffffffffffffffffffffffff163373ffffffffffffffffffffffffffffffffffffffff1603610429576040517f08c379a000000000000000000000000000000000000000000000000000000000815260040161042090610e8c565b60405180910390fd5b60405180606001604052808481526020018381526020016000151581525060016000838152602001908152602001600020600082015181600001908161046f9190611058565b506020820151816001015560408201518160020160006101000a81548160ff021916908315150217905550905050505050565b60006020528060005260406000206000915090508060000180546104c590610cd4565b80601f01602080910402602001604051908101604052809291908181526020018280546104f190610cd4565b801561053e5780601f106105135761010080835404028352916020019161053e565b820191906000526020600020905b81548152906001019060200180831161052157829003601f168201915b50505050509080600101805461055390610cd4565b80601f016020809104026020016040519081016040528092919081815260200182805461057f90610cd4565b80156105cc5780601f106105a1576101008083540402835291602001916105cc565b820191906000526020600020905b8154815290600101906020018083116105af57829003601f168201915b5050505050908060020154908060030154908060040160009054906101000a900473ffffffffffffffffffffffffffffffffffffffff16905085565b600260009054906101000a900473ffffffffffffffffffffffffffffffffffffffff1673ffffffffffffffffffffffffffffffffffffffff163373ffffffffffffffffffffffffffffffffffffffff1614610698576040517f08c379a000000000000000000000000000000000000000000000000000000000815260040161068f9061119c565b60405180910390fd5b6040518060a001604052808581526020018481526020018381526020018281526020018673ffffffffffffffffffffffffffffffffffffffff168152506000808773ffffffffffffffffffffffffffffffffffffffff1673ffffffffffffffffffffffffffffffffffffffff16815260200190815260200160002060008201518160000190816107289190611058565b50602082015181600101908161073e9190611058565b50604082015181600201556060820151816003015560808201518160040160006101000a81548173ffffffffffffffffffffffffffffffffffffffff021916908373ffffffffffffffffffffffffffffffffffffffff1602179055509050505050505050565b6000604051905090565b600080fd5b600080fd5b6000819050919050565b6107cb816107b8565b81146107d657600080fd5b50565b6000813590506107e8816107c2565b92915050565b600060208284031215610804576108036107ae565b5b6000610812848285016107d9565b91505092915050565b600081519050919050565b600082825260208201905092915050565b60005b8381101561085557808201518184015260208101905061083a565b60008484015250505050565b6000601f19601f8301169050919050565b600061087d8261081b565b6108878185610826565b9350610897818560208601610837565b6108a081610861565b840191505092915050565b6108b4816107b8565b82525050565b60008115159050919050565b6108cf816108ba565b82525050565b600060608201905081810360008301526108ef8186610872565b90506108fe60208301856108ab565b61090b60408301846108c6565b949350505050565b600073ffffffffffffffffffffffffffffffffffffffff82169050919050565b600061093e82610913565b9050919050565b61094e81610933565b811461095957600080fd5b50565b60008135905061096b81610945565b92915050565b60008060408385031215610988576109876107ae565b5b6000610996858286016107d9565b92505060206109a78582860161095c565b9150509250929050565b600080fd5b600080fd5b7f4e487b7100000000000000000000000000000000000000000000000000000000600052604160045260246000fd5b6109f382610861565b810181811067ffffffffffffffff82111715610a1257610a116109bb565b5b80604052505050565b6000610a256107a4565b9050610a3182826109ea565b919050565b600067ffffffffffffffff821115610a5157610a506109bb565b5b610a5a82610861565b9050602081019050919050565b82818337600083830152505050565b6000610a89610a8484610a36565b610a1b565b905082815260208101848484011115610aa557610aa46109b6565b5b610ab0848285610a67565b509392505050565b600082601f830112610acd57610acc6109b1565b5b8135610add848260208601610a76565b91505092915050565b600080600060608486031215610aff57610afe6107ae565b5b600084013567ffffffffffffffff811115610b1d57610b1c6107b3565b5b610b2986828701610ab8565b9350506020610b3a868287016107d9565b9250506040610b4b868287016107d9565b9150509250925092565b600060208284031215610b6b57610b6a6107ae565b5b6000610b798482850161095c565b91505092915050565b610b8b81610933565b82525050565b600060a0820190508181036000830152610bab8188610872565b90508181036020830152610bbf8187610872565b9050610bce60408301866108ab565b610bdb60608301856108ab565b610be86080830184610b82565b9695505050505050565b600080600080600060a08688031215610c0e57610c0d6107ae565b5b6000610c1c8882890161095c565b955050602086013567ffffffffffffffff811115610c3d57610c3c6107b3565b5b610c4988828901610ab8565b945050604086013567ffffffffffffffff811115610c6a57610c696107b3565b5b610c7688828901610ab8565b9350506060610c87888289016107d9565b9250506080610c98888289016107d9565b9150509295509295909350565b7f4e487b7100000000000000000000000000000000000000000000000000000000600052602260045260246000fd5b60006002820490506001821680610cec57607f821691505b602082108103610cff57610cfe610ca5565b5b50919050565b7f796f75206861766520766f74656420616c726561647900000000000000000000600082015250565b6000610d3b601683610826565b9150610d4682610d05565b602082019050919050565b60006020820190508181036000830152610d6a81610d2e565b9050919050565b7f796f7520617265206e6f7420746865206f776e65720000000000000000000000600082015250565b6000610da7601583610826565b9150610db282610d71565b602082019050919050565b60006020820190508181036000830152610dd681610d9a565b9050919050565b7f4e487b7100000000000000000000000000000000000000000000000000000000600052601160045260246000fd5b6000610e17826107b8565b9150610e22836107b8565b9250828201905080821115610e3a57610e39610ddd565b5b92915050565b7f41646472657373206173736f6369617465642077697468206f6666696369616c600082015250565b6000610e76602083610826565b9150610e8182610e40565b602082019050919050565b60006020820190508181036000830152610ea581610e69565b9050919050565b60008190508160005260206000209050919050565b60006020601f8301049050919050565b600082821b905092915050565b600060088302610f0e7fffffffffffffffffffffffffffffffffffffffffffffffffffffffffffffffff82610ed1565b610f188683610ed1565b95508019841693508086168417925050509392505050565b6000819050919050565b6000610f55610f50610f4b846107b8565b610f30565b6107b8565b9050919050565b6000819050919050565b610f6f83610f3a565b610f83610f7b82610f5c565b848454610ede565b825550505050565b600090565b610f98610f8b565b610fa3818484610f66565b505050565b5b81811015610fc757610fbc600082610f90565b600181019050610fa9565b5050565b601f82111561100c57610fdd81610eac565b610fe684610ec1565b81016020851015610ff5578190505b61100961100185610ec1565b830182610fa8565b50505b505050565b600082821c905092915050565b600061102f60001984600802611011565b1980831691505092915050565b6000611048838361101e565b9150826002028217905092915050565b6110618261081b565b67ffffffffffffffff81111561107a576110796109bb565b5b6110848254610cd4565b61108f828285610fcb565b600060209050601f8311600181146110c257600084156110b0578287015190505b6110ba858261103c565b865550611122565b601f1984166110d086610eac565b60005b828110156110f8578489015182556001820191506020850194506020810190506110d3565b868310156111155784890151611111601f89168261101e565b8355505b6001600288020188555050505b505050505050565b7f6f6e6c79206f776e65722063616e20616464206f6666696369616c206d656d6260008201527f6572000000000000000000000000000000000000000000000000000000000000602082015250565b6000611186602283610826565b91506111918261112a565b604082019050919050565b600060208201905081810360008301526111b581611179565b905091905056fea2646970667358221220655800640733da37c590dfc897920a540283478c31dbabe4a33542f9436e9ead64736f6c63430008120033",
					"opcodes": "PUSH1 0x80 PUSH1 0x40 MSTORE CALLVALUE DUP1 ISZERO PUSH2 0x10 JUMPI PUSH1 0x0 DUP1 REVERT JUMPDEST POP CALLER PUSH1 0x2 PUSH1 0x0 PUSH2 0x100 EXP DUP2 SLOAD DUP2 PUSH20 0xFFFFFFFFFFFFFFFFFFFFFFFFFFFFFFFFFFFFFFFF MUL NOT AND SWAP1 DUP4 PUSH20 0xFFFFFFFFFFFFFFFFFFFFFFFFFFFFFFFFFFFFFFFF AND MUL OR SWAP1 SSTORE POP PUSH2 0x11F2 DUP1 PUSH2 0x61 PUSH1 0x0 CODECOPY PUSH1 0x0 RETURN INVALID PUSH1 0x80 PUSH1 0x40 MSTORE CALLVALUE DUP1 ISZERO PUSH2 0x10 JUMPI PUSH1 0x0 DUP1 REVERT JUMPDEST POP PUSH1 0x4 CALLDATASIZE LT PUSH2 0x57 JUMPI PUSH1 0x0 CALLDATALOAD PUSH1 0xE0 SHR DUP1 PUSH4 0x9A34F00 EQ PUSH2 0x5C JUMPI DUP1 PUSH4 0x129B873B EQ PUSH2 0x8E JUMPI DUP1 PUSH4 0x3F3F6238 EQ PUSH2 0xAA JUMPI DUP1 PUSH4 0xD93321EF EQ PUSH2 0xC6 JUMPI DUP1 PUSH4 0xD938B386 EQ PUSH2 0xFA JUMPI JUMPDEST PUSH1 0x0 DUP1 REVERT JUMPDEST PUSH2 0x76 PUSH1 0x4 DUP1 CALLDATASIZE SUB DUP2 ADD SWAP1 PUSH2 0x71 SWAP2 SWAP1 PUSH2 0x7EE JUMP JUMPDEST PUSH2 0x116 JUMP JUMPDEST PUSH1 0x40 MLOAD PUSH2 0x85 SWAP4 SWAP3 SWAP2 SWAP1 PUSH2 0x8D5 JUMP JUMPDEST PUSH1 0x40 MLOAD DUP1 SWAP2 SUB SWAP1 RETURN JUMPDEST PUSH2 0xA8 PUSH1 0x4 DUP1 CALLDATASIZE SUB DUP2 ADD SWAP1 PUSH2 0xA3 SWAP2 SWAP1 PUSH2 0x971 JUMP JUMPDEST PUSH2 0x1D5 JUMP JUMPDEST STOP JUMPDEST PUSH2 0xC4 PUSH1 0x4 DUP1 CALLDATASIZE SUB DUP2 ADD SWAP1 PUSH2 0xBF SWAP2 SWAP1 PUSH2 0xAE6 JUMP JUMPDEST PUSH2 0x35A JUMP JUMPDEST STOP JUMPDEST PUSH2 0xE0 PUSH1 0x4 DUP1 CALLDATASIZE SUB DUP2 ADD SWAP1 PUSH2 0xDB SWAP2 SWAP1 PUSH2 0xB55 JUMP JUMPDEST PUSH2 0x4A2 JUMP JUMPDEST PUSH1 0x40 MLOAD PUSH2 0xF1 SWAP6 SWAP5 SWAP4 SWAP3 SWAP2 SWAP1 PUSH2 0xB91 JUMP JUMPDEST PUSH1 0x40 MLOAD DUP1 SWAP2 SUB SWAP1 RETURN JUMPDEST PUSH2 0x114 PUSH1 0x4 DUP1 CALLDATASIZE SUB DUP2 ADD SWAP1 PUSH2 0x10F SWAP2 SWAP1 PUSH2 0xBF2 JUMP JUMPDEST PUSH2 0x608 JUMP JUMPDEST STOP JUMPDEST PUSH1 0x1 PUSH1 0x20 MSTORE DUP1 PUSH1 0x0 MSTORE PUSH1 0x40 PUSH1 0x0 KECCAK256 PUSH1 0x0 SWAP2 POP SWAP1 POP DUP1 PUSH1 0x0 ADD DUP1 SLOAD PUSH2 0x139 SWAP1 PUSH2 0xCD4 JUMP JUMPDEST DUP1 PUSH1 0x1F ADD PUSH1 0x20 DUP1 SWAP2 DIV MUL PUSH1 0x20 ADD PUSH1 0x40 MLOAD SWAP1 DUP2 ADD PUSH1 0x40 MSTORE DUP1 SWAP3 SWAP2 SWAP1 DUP2 DUP2 MSTORE PUSH1 0x20 ADD DUP3 DUP1 SLOAD PUSH2 0x165 SWAP1 PUSH2 0xCD4 JUMP JUMPDEST DUP1 ISZERO PUSH2 0x1B2 JUMPI DUP1 PUSH1 0x1F LT PUSH2 0x187 JUMPI PUSH2 0x100 DUP1 DUP4 SLOAD DIV MUL DUP4 MSTORE SWAP2 PUSH1 0x20 ADD SWAP2 PUSH2 0x1B2 JUMP JUMPDEST DUP3 ADD SWAP2 SWAP1 PUSH1 0x0 MSTORE PUSH1 0x20 PUSH1 0x0 KECCAK256 SWAP1 JUMPDEST DUP2 SLOAD DUP2 MSTORE SWAP1 PUSH1 0x1 ADD SWAP1 PUSH1 0x20 ADD DUP1 DUP4 GT PUSH2 0x195 JUMPI DUP3 SWAP1 SUB PUSH1 0x1F AND DUP3 ADD SWAP2 JUMPDEST POP POP POP POP POP SWAP1 DUP1 PUSH1 0x1 ADD SLOAD SWAP1 DUP1 PUSH1 0x2 ADD PUSH1 0x0 SWAP1 SLOAD SWAP1 PUSH2 0x100 EXP SWAP1 DIV PUSH1 0xFF AND SWAP1 POP DUP4 JUMP JUMPDEST PUSH1 0x0 ISZERO ISZERO PUSH1 0x1 PUSH1 0x0 DUP5 DUP2 MSTORE PUSH1 0x20 ADD SWAP1 DUP2 MSTORE PUSH1 0x20 ADD PUSH1 0x0 KECCAK256 PUSH1 0x2 ADD PUSH1 0x0 SWAP1 SLOAD SWAP1 PUSH2 0x100 EXP SWAP1 DIV PUSH1 0xFF AND ISZERO ISZERO EQ PUSH2 0x23F JUMPI PUSH1 0x40 MLOAD PUSH32 0x8C379A000000000000000000000000000000000000000000000000000000000 DUP2 MSTORE PUSH1 0x4 ADD PUSH2 0x236 SWAP1 PUSH2 0xD51 JUMP JUMPDEST PUSH1 0x40 MLOAD DUP1 SWAP2 SUB SWAP1 REVERT JUMPDEST PUSH1 0x2 PUSH1 0x0 SWAP1 SLOAD SWAP1 PUSH2 0x100 EXP SWAP1 DIV PUSH20 0xFFFFFFFFFFFFFFFFFFFFFFFFFFFFFFFFFFFFFFFF AND PUSH20 0xFFFFFFFFFFFFFFFFFFFFFFFFFFFFFFFFFFFFFFFF AND CALLER PUSH20 0xFFFFFFFFFFFFFFFFFFFFFFFFFFFFFFFFFFFFFFFF AND EQ PUSH2 0x2CF JUMPI PUSH1 0x40 MLOAD PUSH32 0x8C379A000000000000000000000000000000000000000000000000000000000 DUP2 MSTORE PUSH1 0x4 ADD PUSH2 0x2C6 SWAP1 PUSH2 0xDBD JUMP JUMPDEST PUSH1 0x40 MLOAD DUP1 SWAP2 SUB SWAP1 REVERT JUMPDEST PUSH1 0x1 DUP1 PUSH1 0x0 DUP5 DUP2 MSTORE PUSH1 0x20 ADD SWAP1 DUP2 MSTORE PUSH1 0x20 ADD PUSH1 0x0 KECCAK256 PUSH1 0x2 ADD PUSH1 0x0 PUSH2 0x100 EXP DUP2 SLOAD DUP2 PUSH1 0xFF MUL NOT AND SWAP1 DUP4 ISZERO ISZERO MUL OR SWAP1 SSTORE POP PUSH1 0x1 PUSH1 0x0 DUP1 DUP4 PUSH20 0xFFFFFFFFFFFFFFFFFFFFFFFFFFFFFFFFFFFFFFFF AND PUSH20 0xFFFFFFFFFFFFFFFFFFFFFFFFFFFFFFFFFFFFFFFF AND DUP2 MSTORE PUSH1 0x20 ADD SWAP1 DUP2 MSTORE PUSH1 0x20 ADD PUSH1 0x0 KECCAK256 PUSH1 0x3 ADD PUSH1 0x0 DUP3 DUP3 SLOAD PUSH2 0x34F SWAP2 SWAP1 PUSH2 0xE0C JUMP JUMPDEST SWAP3 POP POP DUP2 SWAP1 SSTORE POP POP POP JUMP JUMPDEST PUSH1 0x0 DUP1 CALLER PUSH20 0xFFFFFFFFFFFFFFFFFFFFFFFFFFFFFFFFFFFFFFFF AND PUSH20 0xFFFFFFFFFFFFFFFFFFFFFFFFFFFFFFFFFFFFFFFF AND DUP2 MSTORE PUSH1 0x20 ADD SWAP1 DUP2 MSTORE PUSH1 0x20 ADD PUSH1 0x0 KECCAK256 PUSH1 0x4 ADD PUSH1 0x0 SWAP1 SLOAD SWAP1 PUSH2 0x100 EXP SWAP1 DIV PUSH20 0xFFFFFFFFFFFFFFFFFFFFFFFFFFFFFFFFFFFFFFFF AND PUSH20 0xFFFFFFFFFFFFFFFFFFFFFFFFFFFFFFFFFFFFFFFF AND CALLER PUSH20 0xFFFFFFFFFFFFFFFFFFFFFFFFFFFFFFFFFFFFFFFF AND SUB PUSH2 0x429 JUMPI PUSH1 0x40 MLOAD PUSH32 0x8C379A000000000000000000000000000000000000000000000000000000000 DUP2 MSTORE PUSH1 0x4 ADD PUSH2 0x420 SWAP1 PUSH2 0xE8C JUMP JUMPDEST PUSH1 0x40 MLOAD DUP1 SWAP2 SUB SWAP1 REVERT JUMPDEST PUSH1 0x40 MLOAD DUP1 PUSH1 0x60 ADD PUSH1 0x40 MSTORE DUP1 DUP5 DUP2 MSTORE PUSH1 0x20 ADD DUP4 DUP2 MSTORE PUSH1 0x20 ADD PUSH1 0x0 ISZERO ISZERO DUP2 MSTORE POP PUSH1 0x1 PUSH1 0x0 DUP4 DUP2 MSTORE PUSH1 0x20 ADD SWAP1 DUP2 MSTORE PUSH1 0x20 ADD PUSH1 0x0 KECCAK256 PUSH1 0x0 DUP3 ADD MLOAD DUP2 PUSH1 0x0 ADD SWAP1 DUP2 PUSH2 0x46F SWAP2 SWAP1 PUSH2 0x1058 JUMP JUMPDEST POP PUSH1 0x20 DUP3 ADD MLOAD DUP2 PUSH1 0x1 ADD SSTORE PUSH1 0x40 DUP3 ADD MLOAD DUP2 PUSH1 0x2 ADD PUSH1 0x0 PUSH2 0x100 EXP DUP2 SLOAD DUP2 PUSH1 0xFF MUL NOT AND SWAP1 DUP4 ISZERO ISZERO MUL OR SWAP1 SSTORE POP SWAP1 POP POP POP POP POP JUMP JUMPDEST PUSH1 0x0 PUSH1 0x20 MSTORE DUP1 PUSH1 0x0 MSTORE PUSH1 0x40 PUSH1 0x0 KECCAK256 PUSH1 0x0 SWAP2 POP SWAP1 POP DUP1 PUSH1 0x0 ADD DUP1 SLOAD PUSH2 0x4C5 SWAP1 PUSH2 0xCD4 JUMP JUMPDEST DUP1 PUSH1 0x1F ADD PUSH1 0x20 DUP1 SWAP2 DIV MUL PUSH1 0x20 ADD PUSH1 0x40 MLOAD SWAP1 DUP2 ADD PUSH1 0x40 MSTORE DUP1 SWAP3 SWAP2 SWAP1 DUP2 DUP2 MSTORE PUSH1 0x20 ADD DUP3 DUP1 SLOAD PUSH2 0x4F1 SWAP1 PUSH2 0xCD4 JUMP JUMPDEST DUP1 ISZERO PUSH2 0x53E JUMPI DUP1 PUSH1 0x1F LT PUSH2 0x513 JUMPI PUSH2 0x100 DUP1 DUP4 SLOAD DIV MUL DUP4 MSTORE SWAP2 PUSH1 0x20 ADD SWAP2 PUSH2 0x53E JUMP JUMPDEST DUP3 ADD SWAP2 SWAP1 PUSH1 0x0 MSTORE PUSH1 0x20 PUSH1 0x0 KECCAK256 SWAP1 JUMPDEST DUP2 SLOAD DUP2 MSTORE SWAP1 PUSH1 0x1 ADD SWAP1 PUSH1 0x20 ADD DUP1 DUP4 GT PUSH2 0x521 JUMPI DUP3 SWAP1 SUB PUSH1 0x1F AND DUP3 ADD SWAP2 JUMPDEST POP POP POP POP POP SWAP1 DUP1 PUSH1 0x1 ADD DUP1 SLOAD PUSH2 0x553 SWAP1 PUSH2 0xCD4 JUMP JUMPDEST DUP1 PUSH1 0x1F ADD PUSH1 0x20 DUP1 SWAP2 DIV MUL PUSH1 0x20 ADD PUSH1 0x40 MLOAD SWAP1 DUP2 ADD PUSH1 0x40 MSTORE DUP1 SWAP3 SWAP2 SWAP1 DUP2 DUP2 MSTORE PUSH1 0x20 ADD DUP3 DUP1 SLOAD PUSH2 0x57F SWAP1 PUSH2 0xCD4 JUMP JUMPDEST DUP1 ISZERO PUSH2 0x5CC JUMPI DUP1 PUSH1 0x1F LT PUSH2 0x5A1 JUMPI PUSH2 0x100 DUP1 DUP4 SLOAD DIV MUL DUP4 MSTORE SWAP2 PUSH1 0x20 ADD SWAP2 PUSH2 0x5CC JUMP JUMPDEST DUP3 ADD SWAP2 SWAP1 PUSH1 0x0 MSTORE PUSH1 0x20 PUSH1 0x0 KECCAK256 SWAP1 JUMPDEST DUP2 SLOAD DUP2 MSTORE SWAP1 PUSH1 0x1 ADD SWAP1 PUSH1 0x20 ADD DUP1 DUP4 GT PUSH2 0x5AF JUMPI DUP3 SWAP1 SUB PUSH1 0x1F AND DUP3 ADD SWAP2 JUMPDEST POP POP POP POP POP SWAP1 DUP1 PUSH1 0x2 ADD SLOAD SWAP1 DUP1 PUSH1 0x3 ADD SLOAD SWAP1 DUP1 PUSH1 0x4 ADD PUSH1 0x0 SWAP1 SLOAD SWAP1 PUSH2 0x100 EXP SWAP1 DIV PUSH20 0xFFFFFFFFFFFFFFFFFFFFFFFFFFFFFFFFFFFFFFFF AND SWAP1 POP DUP6 JUMP JUMPDEST PUSH1 0x2 PUSH1 0x0 SWAP1 SLOAD SWAP1 PUSH2 0x100 EXP SWAP1 DIV PUSH20 0xFFFFFFFFFFFFFFFFFFFFFFFFFFFFFFFFFFFFFFFF AND PUSH20 0xFFFFFFFFFFFFFFFFFFFFFFFFFFFFFFFFFFFFFFFF AND CALLER PUSH20 0xFFFFFFFFFFFFFFFFFFFFFFFFFFFFFFFFFFFFFFFF AND EQ PUSH2 0x698 JUMPI PUSH1 0x40 MLOAD PUSH32 0x8C379A000000000000000000000000000000000000000000000000000000000 DUP2 MSTORE PUSH1 0x4 ADD PUSH2 0x68F SWAP1 PUSH2 0x119C JUMP JUMPDEST PUSH1 0x40 MLOAD DUP1 SWAP2 SUB SWAP1 REVERT JUMPDEST PUSH1 0x40 MLOAD DUP1 PUSH1 0xA0 ADD PUSH1 0x40 MSTORE DUP1 DUP6 DUP2 MSTORE PUSH1 0x20 ADD DUP5 DUP2 MSTORE PUSH1 0x20 ADD DUP4 DUP2 MSTORE PUSH1 0x20 ADD DUP3 DUP2 MSTORE PUSH1 0x20 ADD DUP7 PUSH20 0xFFFFFFFFFFFFFFFFFFFFFFFFFFFFFFFFFFFFFFFF AND DUP2 MSTORE POP PUSH1 0x0 DUP1 DUP8 PUSH20 0xFFFFFFFFFFFFFFFFFFFFFFFFFFFFFFFFFFFFFFFF AND PUSH20 0xFFFFFFFFFFFFFFFFFFFFFFFFFFFFFFFFFFFFFFFF AND DUP2 MSTORE PUSH1 0x20 ADD SWAP1 DUP2 MSTORE PUSH1 0x20 ADD PUSH1 0x0 KECCAK256 PUSH1 0x0 DUP3 ADD MLOAD DUP2 PUSH1 0x0 ADD SWAP1 DUP2 PUSH2 0x728 SWAP2 SWAP1 PUSH2 0x1058 JUMP JUMPDEST POP PUSH1 0x20 DUP3 ADD MLOAD DUP2 PUSH1 0x1 ADD SWAP1 DUP2 PUSH2 0x73E SWAP2 SWAP1 PUSH2 0x1058 JUMP JUMPDEST POP PUSH1 0x40 DUP3 ADD MLOAD DUP2 PUSH1 0x2 ADD SSTORE PUSH1 0x60 DUP3 ADD MLOAD DUP2 PUSH1 0x3 ADD SSTORE PUSH1 0x80 DUP3 ADD MLOAD DUP2 PUSH1 0x4 ADD PUSH1 0x0 PUSH2 0x100 EXP DUP2 SLOAD DUP2 PUSH20 0xFFFFFFFFFFFFFFFFFFFFFFFFFFFFFFFFFFFFFFFF MUL NOT AND SWAP1 DUP4 PUSH20 0xFFFFFFFFFFFFFFFFFFFFFFFFFFFFFFFFFFFFFFFF AND MUL OR SWAP1 SSTORE POP SWAP1 POP POP POP POP POP POP POP JUMP JUMPDEST PUSH1 0x0 PUSH1 0x40 MLOAD SWAP1 POP SWAP1 JUMP JUMPDEST PUSH1 0x0 DUP1 REVERT JUMPDEST PUSH1 0x0 DUP1 REVERT JUMPDEST PUSH1 0x0 DUP2 SWAP1 POP SWAP2 SWAP1 POP JUMP JUMPDEST PUSH2 0x7CB DUP2 PUSH2 0x7B8 JUMP JUMPDEST DUP2 EQ PUSH2 0x7D6 JUMPI PUSH1 0x0 DUP1 REVERT JUMPDEST POP JUMP JUMPDEST PUSH1 0x0 DUP2 CALLDATALOAD SWAP1 POP PUSH2 0x7E8 DUP2 PUSH2 0x7C2 JUMP JUMPDEST SWAP3 SWAP2 POP POP JUMP JUMPDEST PUSH1 0x0 PUSH1 0x20 DUP3 DUP5 SUB SLT ISZERO PUSH2 0x804 JUMPI PUSH2 0x803 PUSH2 0x7AE JUMP JUMPDEST JUMPDEST PUSH1 0x0 PUSH2 0x812 DUP5 DUP3 DUP6 ADD PUSH2 0x7D9 JUMP JUMPDEST SWAP2 POP POP SWAP3 SWAP2 POP POP JUMP JUMPDEST PUSH1 0x0 DUP2 MLOAD SWAP1 POP SWAP2 SWAP1 POP JUMP JUMPDEST PUSH1 0x0 DUP3 DUP3 MSTORE PUSH1 0x20 DUP3 ADD SWAP1 POP SWAP3 SWAP2 POP POP JUMP JUMPDEST PUSH1 0x0 JUMPDEST DUP4 DUP2 LT ISZERO PUSH2 0x855 JUMPI DUP1 DUP3 ADD MLOAD DUP2 DUP5 ADD MSTORE PUSH1 0x20 DUP2 ADD SWAP1 POP PUSH2 0x83A JUMP JUMPDEST PUSH1 0x0 DUP5 DUP5 ADD MSTORE POP POP POP POP JUMP JUMPDEST PUSH1 0x0 PUSH1 0x1F NOT PUSH1 0x1F DUP4 ADD AND SWAP1 POP SWAP2 SWAP1 POP JUMP JUMPDEST PUSH1 0x0 PUSH2 0x87D DUP3 PUSH2 0x81B JUMP JUMPDEST PUSH2 0x887 DUP2 DUP6 PUSH2 0x826 JUMP JUMPDEST SWAP4 POP PUSH2 0x897 DUP2 DUP6 PUSH1 0x20 DUP7 ADD PUSH2 0x837 JUMP JUMPDEST PUSH2 0x8A0 DUP2 PUSH2 0x861 JUMP JUMPDEST DUP5 ADD SWAP2 POP POP SWAP3 SWAP2 POP POP JUMP JUMPDEST PUSH2 0x8B4 DUP2 PUSH2 0x7B8 JUMP JUMPDEST DUP3 MSTORE POP POP JUMP JUMPDEST PUSH1 0x0 DUP2 ISZERO ISZERO SWAP1 POP SWAP2 SWAP1 POP JUMP JUMPDEST PUSH2 0x8CF DUP2 PUSH2 0x8BA JUMP JUMPDEST DUP3 MSTORE POP POP JUMP JUMPDEST PUSH1 0x0 PUSH1 0x60 DUP3 ADD SWAP1 POP DUP2 DUP2 SUB PUSH1 0x0 DUP4 ADD MSTORE PUSH2 0x8EF DUP2 DUP7 PUSH2 0x872 JUMP JUMPDEST SWAP1 POP PUSH2 0x8FE PUSH1 0x20 DUP4 ADD DUP6 PUSH2 0x8AB JUMP JUMPDEST PUSH2 0x90B PUSH1 0x40 DUP4 ADD DUP5 PUSH2 0x8C6 JUMP JUMPDEST SWAP5 SWAP4 POP POP POP POP JUMP JUMPDEST PUSH1 0x0 PUSH20 0xFFFFFFFFFFFFFFFFFFFFFFFFFFFFFFFFFFFFFFFF DUP3 AND SWAP1 POP SWAP2 SWAP1 POP JUMP JUMPDEST PUSH1 0x0 PUSH2 0x93E DUP3 PUSH2 0x913 JUMP JUMPDEST SWAP1 POP SWAP2 SWAP1 POP JUMP JUMPDEST PUSH2 0x94E DUP2 PUSH2 0x933 JUMP JUMPDEST DUP2 EQ PUSH2 0x959 JUMPI PUSH1 0x0 DUP1 REVERT JUMPDEST POP JUMP JUMPDEST PUSH1 0x0 DUP2 CALLDATALOAD SWAP1 POP PUSH2 0x96B DUP2 PUSH2 0x945 JUMP JUMPDEST SWAP3 SWAP2 POP POP JUMP JUMPDEST PUSH1 0x0 DUP1 PUSH1 0x40 DUP4 DUP6 SUB SLT ISZERO PUSH2 0x988 JUMPI PUSH2 0x987 PUSH2 0x7AE JUMP JUMPDEST JUMPDEST PUSH1 0x0 PUSH2 0x996 DUP6 DUP3 DUP7 ADD PUSH2 0x7D9 JUMP JUMPDEST SWAP3 POP POP PUSH1 0x20 PUSH2 0x9A7 DUP6 DUP3 DUP7 ADD PUSH2 0x95C JUMP JUMPDEST SWAP2 POP POP SWAP3 POP SWAP3 SWAP1 POP JUMP JUMPDEST PUSH1 0x0 DUP1 REVERT JUMPDEST PUSH1 0x0 DUP1 REVERT JUMPDEST PUSH32 0x4E487B7100000000000000000000000000000000000000000000000000000000 PUSH1 0x0 MSTORE PUSH1 0x41 PUSH1 0x4 MSTORE PUSH1 0x24 PUSH1 0x0 REVERT JUMPDEST PUSH2 0x9F3 DUP3 PUSH2 0x861 JUMP JUMPDEST DUP2 ADD DUP2 DUP2 LT PUSH8 0xFFFFFFFFFFFFFFFF DUP3 GT OR ISZERO PUSH2 0xA12 JUMPI PUSH2 0xA11 PUSH2 0x9BB JUMP JUMPDEST JUMPDEST DUP1 PUSH1 0x40 MSTORE POP POP POP JUMP JUMPDEST PUSH1 0x0 PUSH2 0xA25 PUSH2 0x7A4 JUMP JUMPDEST SWAP1 POP PUSH2 0xA31 DUP3 DUP3 PUSH2 0x9EA JUMP JUMPDEST SWAP2 SWAP1 POP JUMP JUMPDEST PUSH1 0x0 PUSH8 0xFFFFFFFFFFFFFFFF DUP3 GT ISZERO PUSH2 0xA51 JUMPI PUSH2 0xA50 PUSH2 0x9BB JUMP JUMPDEST JUMPDEST PUSH2 0xA5A DUP3 PUSH2 0x861 JUMP JUMPDEST SWAP1 POP PUSH1 0x20 DUP2 ADD SWAP1 POP SWAP2 SWAP1 POP JUMP JUMPDEST DUP3 DUP2 DUP4 CALLDATACOPY PUSH1 0x0 DUP4 DUP4 ADD MSTORE POP POP POP JUMP JUMPDEST PUSH1 0x0 PUSH2 0xA89 PUSH2 0xA84 DUP5 PUSH2 0xA36 JUMP JUMPDEST PUSH2 0xA1B JUMP JUMPDEST SWAP1 POP DUP3 DUP2 MSTORE PUSH1 0x20 DUP2 ADD DUP5 DUP5 DUP5 ADD GT ISZERO PUSH2 0xAA5 JUMPI PUSH2 0xAA4 PUSH2 0x9B6 JUMP JUMPDEST JUMPDEST PUSH2 0xAB0 DUP5 DUP3 DUP6 PUSH2 0xA67 JUMP JUMPDEST POP SWAP4 SWAP3 POP POP POP JUMP JUMPDEST PUSH1 0x0 DUP3 PUSH1 0x1F DUP4 ADD SLT PUSH2 0xACD JUMPI PUSH2 0xACC PUSH2 0x9B1 JUMP JUMPDEST JUMPDEST DUP2 CALLDATALOAD PUSH2 0xADD DUP5 DUP3 PUSH1 0x20 DUP7 ADD PUSH2 0xA76 JUMP JUMPDEST SWAP2 POP POP SWAP3 SWAP2 POP POP JUMP JUMPDEST PUSH1 0x0 DUP1 PUSH1 0x0 PUSH1 0x60 DUP5 DUP7 SUB SLT ISZERO PUSH2 0xAFF JUMPI PUSH2 0xAFE PUSH2 0x7AE JUMP JUMPDEST JUMPDEST PUSH1 0x0 DUP5 ADD CALLDATALOAD PUSH8 0xFFFFFFFFFFFFFFFF DUP2 GT ISZERO PUSH2 0xB1D JUMPI PUSH2 0xB1C PUSH2 0x7B3 JUMP JUMPDEST JUMPDEST PUSH2 0xB29 DUP7 DUP3 DUP8 ADD PUSH2 0xAB8 JUMP JUMPDEST SWAP4 POP POP PUSH1 0x20 PUSH2 0xB3A DUP7 DUP3 DUP8 ADD PUSH2 0x7D9 JUMP JUMPDEST SWAP3 POP POP PUSH1 0x40 PUSH2 0xB4B DUP7 DUP3 DUP8 ADD PUSH2 0x7D9 JUMP JUMPDEST SWAP2 POP POP SWAP3 POP SWAP3 POP SWAP3 JUMP JUMPDEST PUSH1 0x0 PUSH1 0x20 DUP3 DUP5 SUB SLT ISZERO PUSH2 0xB6B JUMPI PUSH2 0xB6A PUSH2 0x7AE JUMP JUMPDEST JUMPDEST PUSH1 0x0 PUSH2 0xB79 DUP5 DUP3 DUP6 ADD PUSH2 0x95C JUMP JUMPDEST SWAP2 POP POP SWAP3 SWAP2 POP POP JUMP JUMPDEST PUSH2 0xB8B DUP2 PUSH2 0x933 JUMP JUMPDEST DUP3 MSTORE POP POP JUMP JUMPDEST PUSH1 0x0 PUSH1 0xA0 DUP3 ADD SWAP1 POP DUP2 DUP2 SUB PUSH1 0x0 DUP4 ADD MSTORE PUSH2 0xBAB DUP2 DUP9 PUSH2 0x872 JUMP JUMPDEST SWAP1 POP DUP2 DUP2 SUB PUSH1 0x20 DUP4 ADD MSTORE PUSH2 0xBBF DUP2 DUP8 PUSH2 0x872 JUMP JUMPDEST SWAP1 POP PUSH2 0xBCE PUSH1 0x40 DUP4 ADD DUP7 PUSH2 0x8AB JUMP JUMPDEST PUSH2 0xBDB PUSH1 0x60 DUP4 ADD DUP6 PUSH2 0x8AB JUMP JUMPDEST PUSH2 0xBE8 PUSH1 0x80 DUP4 ADD DUP5 PUSH2 0xB82 JUMP JUMPDEST SWAP7 SWAP6 POP POP POP POP POP POP JUMP JUMPDEST PUSH1 0x0 DUP1 PUSH1 0x0 DUP1 PUSH1 0x0 PUSH1 0xA0 DUP7 DUP9 SUB SLT ISZERO PUSH2 0xC0E JUMPI PUSH2 0xC0D PUSH2 0x7AE JUMP JUMPDEST JUMPDEST PUSH1 0x0 PUSH2 0xC1C DUP9 DUP3 DUP10 ADD PUSH2 0x95C JUMP JUMPDEST SWAP6 POP POP PUSH1 0x20 DUP7 ADD CALLDATALOAD PUSH8 0xFFFFFFFFFFFFFFFF DUP2 GT ISZERO PUSH2 0xC3D JUMPI PUSH2 0xC3C PUSH2 0x7B3 JUMP JUMPDEST JUMPDEST PUSH2 0xC49 DUP9 DUP3 DUP10 ADD PUSH2 0xAB8 JUMP JUMPDEST SWAP5 POP POP PUSH1 0x40 DUP7 ADD CALLDATALOAD PUSH8 0xFFFFFFFFFFFFFFFF DUP2 GT ISZERO PUSH2 0xC6A JUMPI PUSH2 0xC69 PUSH2 0x7B3 JUMP JUMPDEST JUMPDEST PUSH2 0xC76 DUP9 DUP3 DUP10 ADD PUSH2 0xAB8 JUMP JUMPDEST SWAP4 POP POP PUSH1 0x60 PUSH2 0xC87 DUP9 DUP3 DUP10 ADD PUSH2 0x7D9 JUMP JUMPDEST SWAP3 POP POP PUSH1 0x80 PUSH2 0xC98 DUP9 DUP3 DUP10 ADD PUSH2 0x7D9 JUMP JUMPDEST SWAP2 POP POP SWAP3 SWAP6 POP SWAP3 SWAP6 SWAP1 SWAP4 POP JUMP JUMPDEST PUSH32 0x4E487B7100000000000000000000000000000000000000000000000000000000 PUSH1 0x0 MSTORE PUSH1 0x22 PUSH1 0x4 MSTORE PUSH1 0x24 PUSH1 0x0 REVERT JUMPDEST PUSH1 0x0 PUSH1 0x2 DUP3 DIV SWAP1 POP PUSH1 0x1 DUP3 AND DUP1 PUSH2 0xCEC JUMPI PUSH1 0x7F DUP3 AND SWAP2 POP JUMPDEST PUSH1 0x20 DUP3 LT DUP2 SUB PUSH2 0xCFF JUMPI PUSH2 0xCFE PUSH2 0xCA5 JUMP JUMPDEST JUMPDEST POP SWAP2 SWAP1 POP JUMP JUMPDEST PUSH32 0x796F75206861766520766F74656420616C726561647900000000000000000000 PUSH1 0x0 DUP3 ADD MSTORE POP JUMP JUMPDEST PUSH1 0x0 PUSH2 0xD3B PUSH1 0x16 DUP4 PUSH2 0x826 JUMP JUMPDEST SWAP2 POP PUSH2 0xD46 DUP3 PUSH2 0xD05 JUMP JUMPDEST PUSH1 0x20 DUP3 ADD SWAP1 POP SWAP2 SWAP1 POP JUMP JUMPDEST PUSH1 0x0 PUSH1 0x20 DUP3 ADD SWAP1 POP DUP2 DUP2 SUB PUSH1 0x0 DUP4 ADD MSTORE PUSH2 0xD6A DUP2 PUSH2 0xD2E JUMP JUMPDEST SWAP1 POP SWAP2 SWAP1 POP JUMP JUMPDEST PUSH32 0x796F7520617265206E6F7420746865206F776E65720000000000000000000000 PUSH1 0x0 DUP3 ADD MSTORE POP JUMP JUMPDEST PUSH1 0x0 PUSH2 0xDA7 PUSH1 0x15 DUP4 PUSH2 0x826 JUMP JUMPDEST SWAP2 POP PUSH2 0xDB2 DUP3 PUSH2 0xD71 JUMP JUMPDEST PUSH1 0x20 DUP3 ADD SWAP1 POP SWAP2 SWAP1 POP JUMP JUMPDEST PUSH1 0x0 PUSH1 0x20 DUP3 ADD SWAP1 POP DUP2 DUP2 SUB PUSH1 0x0 DUP4 ADD MSTORE PUSH2 0xDD6 DUP2 PUSH2 0xD9A JUMP JUMPDEST SWAP1 POP SWAP2 SWAP1 POP JUMP JUMPDEST PUSH32 0x4E487B7100000000000000000000000000000000000000000000000000000000 PUSH1 0x0 MSTORE PUSH1 0x11 PUSH1 0x4 MSTORE PUSH1 0x24 PUSH1 0x0 REVERT JUMPDEST PUSH1 0x0 PUSH2 0xE17 DUP3 PUSH2 0x7B8 JUMP JUMPDEST SWAP2 POP PUSH2 0xE22 DUP4 PUSH2 0x7B8 JUMP JUMPDEST SWAP3 POP DUP3 DUP3 ADD SWAP1 POP DUP1 DUP3 GT ISZERO PUSH2 0xE3A JUMPI PUSH2 0xE39 PUSH2 0xDDD JUMP JUMPDEST JUMPDEST SWAP3 SWAP2 POP POP JUMP JUMPDEST PUSH32 0x41646472657373206173736F6369617465642077697468206F6666696369616C PUSH1 0x0 DUP3 ADD MSTORE POP JUMP JUMPDEST PUSH1 0x0 PUSH2 0xE76 PUSH1 0x20 DUP4 PUSH2 0x826 JUMP JUMPDEST SWAP2 POP PUSH2 0xE81 DUP3 PUSH2 0xE40 JUMP JUMPDEST PUSH1 0x20 DUP3 ADD SWAP1 POP SWAP2 SWAP1 POP JUMP JUMPDEST PUSH1 0x0 PUSH1 0x20 DUP3 ADD SWAP1 POP DUP2 DUP2 SUB PUSH1 0x0 DUP4 ADD MSTORE PUSH2 0xEA5 DUP2 PUSH2 0xE69 JUMP JUMPDEST SWAP1 POP SWAP2 SWAP1 POP JUMP JUMPDEST PUSH1 0x0 DUP2 SWAP1 POP DUP2 PUSH1 0x0 MSTORE PUSH1 0x20 PUSH1 0x0 KECCAK256 SWAP1 POP SWAP2 SWAP1 POP JUMP JUMPDEST PUSH1 0x0 PUSH1 0x20 PUSH1 0x1F DUP4 ADD DIV SWAP1 POP SWAP2 SWAP1 POP JUMP JUMPDEST PUSH1 0x0 DUP3 DUP3 SHL SWAP1 POP SWAP3 SWAP2 POP POP JUMP JUMPDEST PUSH1 0x0 PUSH1 0x8 DUP4 MUL PUSH2 0xF0E PUSH32 0xFFFFFFFFFFFFFFFFFFFFFFFFFFFFFFFFFFFFFFFFFFFFFFFFFFFFFFFFFFFFFFFF DUP3 PUSH2 0xED1 JUMP JUMPDEST PUSH2 0xF18 DUP7 DUP4 PUSH2 0xED1 JUMP JUMPDEST SWAP6 POP DUP1 NOT DUP5 AND SWAP4 POP DUP1 DUP7 AND DUP5 OR SWAP3 POP POP POP SWAP4 SWAP3 POP POP POP JUMP JUMPDEST PUSH1 0x0 DUP2 SWAP1 POP SWAP2 SWAP1 POP JUMP JUMPDEST PUSH1 0x0 PUSH2 0xF55 PUSH2 0xF50 PUSH2 0xF4B DUP5 PUSH2 0x7B8 JUMP JUMPDEST PUSH2 0xF30 JUMP JUMPDEST PUSH2 0x7B8 JUMP JUMPDEST SWAP1 POP SWAP2 SWAP1 POP JUMP JUMPDEST PUSH1 0x0 DUP2 SWAP1 POP SWAP2 SWAP1 POP JUMP JUMPDEST PUSH2 0xF6F DUP4 PUSH2 0xF3A JUMP JUMPDEST PUSH2 0xF83 PUSH2 0xF7B DUP3 PUSH2 0xF5C JUMP JUMPDEST DUP5 DUP5 SLOAD PUSH2 0xEDE JUMP JUMPDEST DUP3 SSTORE POP POP POP POP JUMP JUMPDEST PUSH1 0x0 SWAP1 JUMP JUMPDEST PUSH2 0xF98 PUSH2 0xF8B JUMP JUMPDEST PUSH2 0xFA3 DUP2 DUP5 DUP5 PUSH2 0xF66 JUMP JUMPDEST POP POP POP JUMP JUMPDEST JUMPDEST DUP2 DUP2 LT ISZERO PUSH2 0xFC7 JUMPI PUSH2 0xFBC PUSH1 0x0 DUP3 PUSH2 0xF90 JUMP JUMPDEST PUSH1 0x1 DUP2 ADD SWAP1 POP PUSH2 0xFA9 JUMP JUMPDEST POP POP JUMP JUMPDEST PUSH1 0x1F DUP3 GT ISZERO PUSH2 0x100C JUMPI PUSH2 0xFDD DUP2 PUSH2 0xEAC JUMP JUMPDEST PUSH2 0xFE6 DUP5 PUSH2 0xEC1 JUMP JUMPDEST DUP2 ADD PUSH1 0x20 DUP6 LT ISZERO PUSH2 0xFF5 JUMPI DUP2 SWAP1 POP JUMPDEST PUSH2 0x1009 PUSH2 0x1001 DUP6 PUSH2 0xEC1 JUMP JUMPDEST DUP4 ADD DUP3 PUSH2 0xFA8 JUMP JUMPDEST POP POP JUMPDEST POP POP POP JUMP JUMPDEST PUSH1 0x0 DUP3 DUP3 SHR SWAP1 POP SWAP3 SWAP2 POP POP JUMP JUMPDEST PUSH1 0x0 PUSH2 0x102F PUSH1 0x0 NOT DUP5 PUSH1 0x8 MUL PUSH2 0x1011 JUMP JUMPDEST NOT DUP1 DUP4 AND SWAP2 POP POP SWAP3 SWAP2 POP POP JUMP JUMPDEST PUSH1 0x0 PUSH2 0x1048 DUP4 DUP4 PUSH2 0x101E JUMP JUMPDEST SWAP2 POP DUP3 PUSH1 0x2 MUL DUP3 OR SWAP1 POP SWAP3 SWAP2 POP POP JUMP JUMPDEST PUSH2 0x1061 DUP3 PUSH2 0x81B JUMP JUMPDEST PUSH8 0xFFFFFFFFFFFFFFFF DUP2 GT ISZERO PUSH2 0x107A JUMPI PUSH2 0x1079 PUSH2 0x9BB JUMP JUMPDEST JUMPDEST PUSH2 0x1084 DUP3 SLOAD PUSH2 0xCD4 JUMP JUMPDEST PUSH2 0x108F DUP3 DUP3 DUP6 PUSH2 0xFCB JUMP JUMPDEST PUSH1 0x0 PUSH1 0x20 SWAP1 POP PUSH1 0x1F DUP4 GT PUSH1 0x1 DUP2 EQ PUSH2 0x10C2 JUMPI PUSH1 0x0 DUP5 ISZERO PUSH2 0x10B0 JUMPI DUP3 DUP8 ADD MLOAD SWAP1 POP JUMPDEST PUSH2 0x10BA DUP6 DUP3 PUSH2 0x103C JUMP JUMPDEST DUP7 SSTORE POP PUSH2 0x1122 JUMP JUMPDEST PUSH1 0x1F NOT DUP5 AND PUSH2 0x10D0 DUP7 PUSH2 0xEAC JUMP JUMPDEST PUSH1 0x0 JUMPDEST DUP3 DUP2 LT ISZERO PUSH2 0x10F8 JUMPI DUP5 DUP10 ADD MLOAD DUP3 SSTORE PUSH1 0x1 DUP3 ADD SWAP2 POP PUSH1 0x20 DUP6 ADD SWAP5 POP PUSH1 0x20 DUP2 ADD SWAP1 POP PUSH2 0x10D3 JUMP JUMPDEST DUP7 DUP4 LT ISZERO PUSH2 0x1115 JUMPI DUP5 DUP10 ADD MLOAD PUSH2 0x1111 PUSH1 0x1F DUP10 AND DUP3 PUSH2 0x101E JUMP JUMPDEST DUP4 SSTORE POP JUMPDEST PUSH1 0x1 PUSH1 0x2 DUP9 MUL ADD DUP9 SSTORE POP POP POP JUMPDEST POP POP POP POP POP POP JUMP JUMPDEST PUSH32 0x6F6E6C79206F776E65722063616E20616464206F6666696369616C206D656D62 PUSH1 0x0 DUP3 ADD MSTORE PUSH32 0x6572000000000000000000000000000000000000000000000000000000000000 PUSH1 0x20 DUP3 ADD MSTORE POP JUMP JUMPDEST PUSH1 0x0 PUSH2 0x1186 PUSH1 0x22 DUP4 PUSH2 0x826 JUMP JUMPDEST SWAP2 POP PUSH2 0x1191 DUP3 PUSH2 0x112A JUMP JUMPDEST PUSH1 0x40 DUP3 ADD SWAP1 POP SWAP2 SWAP1 POP JUMP JUMPDEST PUSH1 0x0 PUSH1 0x20 DUP3 ADD SWAP1 POP DUP2 DUP2 SUB PUSH1 0x0 DUP4 ADD MSTORE PUSH2 0x11B5 DUP2 PUSH2 0x1179 JUMP JUMPDEST SWAP1 POP SWAP2 SWAP1 POP JUMP INVALID LOG2 PUSH5 0x6970667358 0x22 SLT KECCAK256 PUSH6 0x5800640733DA CALLDATACOPY 0xC5 SWAP1 0xDF 0xC8 SWAP8 SWAP3 EXP SLOAD MUL DUP4 SELFBALANCE DUP13 BALANCE 0xDB 0xAB 0xE4 LOG3 CALLDATALOAD TIMESTAMP 0xF9 NUMBER PUSH15 0x9EAD64736F6C634300081200330000 "
				},
				"gasEstimates": {
					"creation": {
						"codeDepositCost": "918800",
						"executionCost": "25221",
						"totalCost": "944021"
					},
					"external": {
						"addCitizen(string,uint256,uint256)": "infinite",
						"addOfficial(address,string,string,uint256,uint256)": "infinite",
						"addVote(uint256,address)": "infinite",
						"citizens(uint256)": "infinite",
						"officials(address)": "infinite"
					}
				},
				"methodIdentifiers": {
					"addCitizen(string,uint256,uint256)": "3f3f6238",
					"addOfficial(address,string,string,uint256,uint256)": "d938b386",
					"addVote(uint256,address)": "129b873b",
					"citizens(uint256)": "09a34f00",
					"officials(address)": "d93321ef"
				}
			},
			"storageLayout": {
				"storage": [
					{
						"astId": 17,
						"contract": "contracts/government.sol:Government",
						"label": "officials",
						"offset": 0,
						"slot": "0",
						"type": "t_mapping(t_address,t_struct(official)12_storage)"
					},
					{
						"astId": 29,
						"contract": "contracts/government.sol:Government",
						"label": "citizens",
						"offset": 0,
						"slot": "1",
						"type": "t_mapping(t_uint256,t_struct(citizen)24_storage)"
					},
					{
						"astId": 31,
						"contract": "contracts/government.sol:Government",
						"label": "owner",
						"offset": 0,
						"slot": "2",
						"type": "t_address_payable"
					}
				],
				"types": {
					"t_address": {
						"encoding": "inplace",
						"label": "address",
						"numberOfBytes": "20"
					},
					"t_address_payable": {
						"encoding": "inplace",
						"label": "address payable",
						"numberOfBytes": "20"
					},
					"t_bool": {
						"encoding": "inplace",
						"label": "bool",
						"numberOfBytes": "1"
					},
					"t_mapping(t_address,t_struct(official)12_storage)": {
						"encoding": "mapping",
						"key": "t_address",
						"label": "mapping(address => struct Government.official)",
						"numberOfBytes": "32",
						"value": "t_struct(official)12_storage"
					},
					"t_mapping(t_uint256,t_struct(citizen)24_storage)": {
						"encoding": "mapping",
						"key": "t_uint256",
						"label": "mapping(uint256 => struct Government.citizen)",
						"numberOfBytes": "32",
						"value": "t_struct(citizen)24_storage"
					},
					"t_string_storage": {
						"encoding": "bytes",
						"label": "string",
						"numberOfBytes": "32"
					},
					"t_struct(citizen)24_storage": {
						"encoding": "inplace",
						"label": "struct Government.citizen",
						"members": [
							{
								"astId": 19,
								"contract": "contracts/government.sol:Government",
								"label": "name",
								"offset": 0,
								"slot": "0",
								"type": "t_string_storage"
							},
							{
								"astId": 21,
								"contract": "contracts/government.sol:Government",
								"label": "ID",
								"offset": 0,
								"slot": "1",
								"type": "t_uint256"
							},
							{
								"astId": 23,
								"contract": "contracts/government.sol:Government",
								"label": "voteCasted",
								"offset": 0,
								"slot": "2",
								"type": "t_bool"
							}
						],
						"numberOfBytes": "96"
					},
					"t_struct(official)12_storage": {
						"encoding": "inplace",
						"label": "struct Government.official",
						"members": [
							{
								"astId": 3,
								"contract": "contracts/government.sol:Government",
								"label": "name",
								"offset": 0,
								"slot": "0",
								"type": "t_string_storage"
							},
							{
								"astId": 5,
								"contract": "contracts/government.sol:Government",
								"label": "designation",
								"offset": 0,
								"slot": "1",
								"type": "t_string_storage"
							},
							{
								"astId": 7,
								"contract": "contracts/government.sol:Government",
								"label": "ID",
								"offset": 0,
								"slot": "2",
								"type": "t_uint256"
							},
							{
								"astId": 9,
								"contract": "contracts/government.sol:Government",
								"label": "vote",
								"offset": 0,
								"slot": "3",
								"type": "t_uint256"
							},
							{
								"astId": 11,
								"contract": "contracts/government.sol:Government",
								"label": "account",
								"offset": 0,
								"slot": "4",
								"type": "t_address"
							}
						],
						"numberOfBytes": "160"
					},
					"t_uint256": {
						"encoding": "inplace",
						"label": "uint256",
						"numberOfBytes": "32"
					}
				}
			},
			"userdoc": {
				"kind": "user",
				"methods": {},
				"version": 1
			}
		}
	}
}