{
	"contracts/banking.sol": {
		"bank": {
			"abi": [
				{
					"inputs": [],
					"stateMutability": "nonpayable",
					"type": "constructor"
				},
				{
					"inputs": [
						{
							"internalType": "address",
							"name": "",
							"type": "address"
						}
					],
					"name": "accounts",
					"outputs": [
						{
							"internalType": "uint256",
							"name": "id",
							"type": "uint256"
						},
						{
							"internalType": "uint256",
							"name": "balance",
							"type": "uint256"
						},
						{
							"internalType": "address",
							"name": "owner",
							"type": "address"
						}
					],
					"stateMutability": "view",
					"type": "function"
				},
				{
					"inputs": [
						{
							"internalType": "uint256",
							"name": "_id",
							"type": "uint256"
						},
						{
							"internalType": "uint256",
							"name": "_balance",
							"type": "uint256"
						},
						{
							"internalType": "address",
							"name": "_owner",
							"type": "address"
						}
					],
					"name": "addAccount",
					"outputs": [],
					"stateMutability": "nonpayable",
					"type": "function"
				},
				{
					"inputs": [
						{
							"internalType": "uint256",
							"name": "_amount",
							"type": "uint256"
						},
						{
							"internalType": "address",
							"name": "_account",
							"type": "address"
						}
					],
					"name": "deposit",
					"outputs": [],
					"stateMutability": "payable",
					"type": "function"
				},
				{
					"inputs": [],
					"name": "getAccountInfo",
					"outputs": [
						{
							"components": [
								{
									"internalType": "uint256",
									"name": "id",
									"type": "uint256"
								},
								{
									"internalType": "uint256",
									"name": "balance",
									"type": "uint256"
								},
								{
									"internalType": "address",
									"name": "owner",
									"type": "address"
								}
							],
							"internalType": "struct bank.account",
							"name": "",
							"type": "tuple"
						}
					],
					"stateMutability": "view",
					"type": "function"
				},
				{
					"inputs": [
						{
							"internalType": "address",
							"name": "_account",
							"type": "address"
						},
						{
							"internalType": "uint256",
							"name": "_amount",
							"type": "uint256"
						},
						{
							"internalType": "uint256",
							"name": "_time",
							"type": "uint256"
						}
					],
					"name": "giveLoan",
					"outputs": [],
					"stateMutability": "payable",
					"type": "function"
				},
				{
					"inputs": [
						{
							"internalType": "address",
							"name": "_account",
							"type": "address"
						}
					],
					"name": "grantAccess",
					"outputs": [],
					"stateMutability": "nonpayable",
					"type": "function"
				},
				{
					"inputs": [
						{
							"internalType": "address",
							"name": "_account",
							"type": "address"
						},
						{
							"internalType": "uint256",
							"name": "_amount",
							"type": "uint256"
						}
					],
					"name": "transfer",
					"outputs": [],
					"stateMutability": "payable",
					"type": "function"
				},
				{
					"inputs": [
						{
							"internalType": "uint256",
							"name": "_amount",
							"type": "uint256"
						}
					],
					"name": "withdraw",
					"outputs": [],
					"stateMutability": "payable",
					"type": "function"
				}
			],
			"devdoc": {
				"kind": "dev",
				"methods": {},
				"version": 1
			},
			"evm": {
				"assembly": "    /* \"contracts/banking.sol\":56:2752  contract bank{... */\n  mstore(0x40, 0x80)\n    /* \"contracts/banking.sol\":268:327  constructor (){... */\n  callvalue\n  dup1\n  iszero\n  tag_1\n  jumpi\n  0x00\n  dup1\n  revert\ntag_1:\n  pop\n    /* \"contracts/banking.sol\":308:318  msg.sender */\n  caller\n    /* \"contracts/banking.sol\":292:299  manager */\n  0x00\n  dup1\n    /* \"contracts/banking.sol\":292:319  manager=payable(msg.sender) */\n  0x0100\n  exp\n  dup2\n  sload\n  dup2\n  0xffffffffffffffffffffffffffffffffffffffff\n  mul\n  not\n  and\n  swap1\n  dup4\n  0xffffffffffffffffffffffffffffffffffffffff\n  and\n  mul\n  or\n  swap1\n  sstore\n  pop\n    /* \"contracts/banking.sol\":56:2752  contract bank{... */\n  dataSize(sub_0)\n  dup1\n  dataOffset(sub_0)\n  0x00\n  codecopy\n  0x00\n  return\nstop\n\nsub_0: assembly {\n        /* \"contracts/banking.sol\":56:2752  contract bank{... */\n      mstore(0x40, 0x80)\n      jumpi(tag_1, lt(calldatasize, 0x04))\n      shr(0xe0, calldataload(0x00))\n      dup1\n      0x6e553f65\n      gt\n      tag_10\n      jumpi\n      dup1\n      0x6e553f65\n      eq\n      tag_6\n      jumpi\n      dup1\n      0x949eaae7\n      eq\n      tag_7\n      jumpi\n      dup1\n      0xa9059cbb\n      eq\n      tag_8\n      jumpi\n      dup1\n      0xc4b5a990\n      eq\n      tag_9\n      jumpi\n      jump(tag_1)\n    tag_10:\n      dup1\n      0x0ae5e739\n      eq\n      tag_2\n      jumpi\n      dup1\n      0x1b9e16ad\n      eq\n      tag_3\n      jumpi\n      dup1\n      0x2e1a7d4d\n      eq\n      tag_4\n      jumpi\n      dup1\n      0x5e5c06e2\n      eq\n      tag_5\n      jumpi\n    tag_1:\n      0x00\n      dup1\n      revert\n        /* \"contracts/banking.sol\":2365:2633  function grantAccess(address _account) public{... */\n    tag_2:\n      callvalue\n      dup1\n      iszero\n      tag_11\n      jumpi\n      0x00\n      dup1\n      revert\n    tag_11:\n      pop\n      tag_12\n      0x04\n      dup1\n      calldatasize\n      sub\n      dup2\n      add\n      swap1\n      tag_13\n      swap2\n      swap1\n      tag_14\n      jump\t// in\n    tag_13:\n      tag_15\n      jump\t// in\n    tag_12:\n      stop\n        /* \"contracts/banking.sol\":2255:2360  function getAccountInfo() public view returns(account memory){... */\n    tag_3:\n      callvalue\n      dup1\n      iszero\n      tag_16\n      jumpi\n      0x00\n      dup1\n      revert\n    tag_16:\n      pop\n      tag_17\n      tag_18\n      jump\t// in\n    tag_17:\n      mload(0x40)\n      tag_19\n      swap2\n      swap1\n      tag_20\n      jump\t// in\n    tag_19:\n      mload(0x40)\n      dup1\n      swap2\n      sub\n      swap1\n      return\n        /* \"contracts/banking.sol\":845:1187  function withdraw(uint _amount) public payable{... */\n    tag_4:\n      tag_21\n      0x04\n      dup1\n      calldatasize\n      sub\n      dup2\n      add\n      swap1\n      tag_22\n      swap2\n      swap1\n      tag_23\n      jump\t// in\n    tag_22:\n      tag_24\n      jump\t// in\n    tag_21:\n      stop\n        /* \"contracts/banking.sol\":193:234  mapping(address=>account) public accounts */\n    tag_5:\n      callvalue\n      dup1\n      iszero\n      tag_25\n      jumpi\n      0x00\n      dup1\n      revert\n    tag_25:\n      pop\n      tag_26\n      0x04\n      dup1\n      calldatasize\n      sub\n      dup2\n      add\n      swap1\n      tag_27\n      swap2\n      swap1\n      tag_14\n      jump\t// in\n    tag_27:\n      tag_28\n      jump\t// in\n    tag_26:\n      mload(0x40)\n      tag_29\n      swap4\n      swap3\n      swap2\n      swap1\n      tag_30\n      jump\t// in\n    tag_29:\n      mload(0x40)\n      dup1\n      swap2\n      sub\n      swap1\n      return\n        /* \"contracts/banking.sol\":604:840  function deposit(uint _amount,address _account) public payable{... */\n    tag_6:\n      tag_31\n      0x04\n      dup1\n      calldatasize\n      sub\n      dup2\n      add\n      swap1\n      tag_32\n      swap2\n      swap1\n      tag_33\n      jump\t// in\n    tag_32:\n      tag_34\n      jump\t// in\n    tag_31:\n      stop\n        /* \"contracts/banking.sol\":332:598  function addAccount(uint _id,uint _balance,address _owner) public{... */\n    tag_7:\n      callvalue\n      dup1\n      iszero\n      tag_35\n      jumpi\n      0x00\n      dup1\n      revert\n    tag_35:\n      pop\n      tag_36\n      0x04\n      dup1\n      calldatasize\n      sub\n      dup2\n      add\n      swap1\n      tag_37\n      swap2\n      swap1\n      tag_38\n      jump\t// in\n    tag_37:\n      tag_39\n      jump\t// in\n    tag_36:\n      stop\n        /* \"contracts/banking.sol\":1192:1604  function transfer(address _account,uint _amount) public payable{... */\n    tag_8:\n      tag_40\n      0x04\n      dup1\n      calldatasize\n      sub\n      dup2\n      add\n      swap1\n      tag_41\n      swap2\n      swap1\n      tag_42\n      jump\t// in\n    tag_41:\n      tag_43\n      jump\t// in\n    tag_40:\n      stop\n        /* \"contracts/banking.sol\":1609:2250  function giveLoan(address _account,uint _amount,uint _time) public payable{... */\n    tag_9:\n      tag_44\n      0x04\n      dup1\n      calldatasize\n      sub\n      dup2\n      add\n      swap1\n      tag_45\n      swap2\n      swap1\n      tag_46\n      jump\t// in\n    tag_45:\n      tag_47\n      jump\t// in\n    tag_44:\n      stop\n        /* \"contracts/banking.sol\":2365:2633  function grantAccess(address _account) public{... */\n    tag_15:\n        /* \"contracts/banking.sol\":2458:2459  0 */\n      0x00\n        /* \"contracts/banking.sol\":2428:2436  accounts */\n      0x01\n        /* \"contracts/banking.sol\":2428:2448  accounts[msg.sender] */\n      0x00\n        /* \"contracts/banking.sol\":2437:2447  msg.sender */\n      caller\n        /* \"contracts/banking.sol\":2428:2448  accounts[msg.sender] */\n      0xffffffffffffffffffffffffffffffffffffffff\n      and\n      0xffffffffffffffffffffffffffffffffffffffff\n      and\n      dup2\n      mstore\n      0x20\n      add\n      swap1\n      dup2\n      mstore\n      0x20\n      add\n      0x00\n      keccak256\n        /* \"contracts/banking.sol\":2428:2456  accounts[msg.sender].balance */\n      0x01\n      add\n      sload\n        /* \"contracts/banking.sol\":2428:2459  accounts[msg.sender].balance!=0 */\n      sub\n        /* \"contracts/banking.sol\":2420:2484  require(accounts[msg.sender].balance!=0,\"balance is not enough\") */\n      tag_49\n      jumpi\n      mload(0x40)\n      0x08c379a000000000000000000000000000000000000000000000000000000000\n      dup2\n      mstore\n      0x04\n      add\n      tag_50\n      swap1\n      tag_51\n      jump\t// in\n    tag_50:\n      mload(0x40)\n      dup1\n      swap2\n      sub\n      swap1\n      revert\n    tag_49:\n        /* \"contracts/banking.sol\":2514:2522  accounts */\n      0x01\n        /* \"contracts/banking.sol\":2514:2534  accounts[msg.sender] */\n      0x00\n        /* \"contracts/banking.sol\":2523:2533  msg.sender */\n      caller\n        /* \"contracts/banking.sol\":2514:2534  accounts[msg.sender] */\n      0xffffffffffffffffffffffffffffffffffffffff\n      and\n      0xffffffffffffffffffffffffffffffffffffffff\n      and\n      dup2\n      mstore\n      0x20\n      add\n      swap1\n      dup2\n      mstore\n      0x20\n      add\n      0x00\n      keccak256\n        /* \"contracts/banking.sol\":2514:2540  accounts[msg.sender].owner */\n      0x02\n      add\n      0x00\n      swap1\n      sload\n      swap1\n      0x0100\n      exp\n      swap1\n      div\n      0xffffffffffffffffffffffffffffffffffffffff\n      and\n        /* \"contracts/banking.sol\":2502:2540  msg.sender==accounts[msg.sender].owner */\n      0xffffffffffffffffffffffffffffffffffffffff\n      and\n        /* \"contracts/banking.sol\":2502:2512  msg.sender */\n      caller\n        /* \"contracts/banking.sol\":2502:2540  msg.sender==accounts[msg.sender].owner */\n      0xffffffffffffffffffffffffffffffffffffffff\n      and\n      eq\n        /* \"contracts/banking.sol\":2494:2581  require(msg.sender==accounts[msg.sender].owner,\"you are not the owner of this account\") */\n      tag_52\n      jumpi\n      mload(0x40)\n      0x08c379a000000000000000000000000000000000000000000000000000000000\n      dup2\n      mstore\n      0x04\n      add\n      tag_53\n      swap1\n      tag_54\n      jump\t// in\n    tag_53:\n      mload(0x40)\n      dup1\n      swap2\n      sub\n      swap1\n      revert\n    tag_52:\n        /* \"contracts/banking.sol\":2618:2626  _account */\n      dup1\n        /* \"contracts/banking.sol\":2591:2599  accounts */\n      0x01\n        /* \"contracts/banking.sol\":2591:2611  accounts[msg.sender] */\n      0x00\n        /* \"contracts/banking.sol\":2600:2610  msg.sender */\n      caller\n        /* \"contracts/banking.sol\":2591:2611  accounts[msg.sender] */\n      0xffffffffffffffffffffffffffffffffffffffff\n      and\n      0xffffffffffffffffffffffffffffffffffffffff\n      and\n      dup2\n      mstore\n      0x20\n      add\n      swap1\n      dup2\n      mstore\n      0x20\n      add\n      0x00\n      keccak256\n        /* \"contracts/banking.sol\":2591:2617  accounts[msg.sender].owner */\n      0x02\n      add\n      0x00\n        /* \"contracts/banking.sol\":2591:2626  accounts[msg.sender].owner=_account */\n      0x0100\n      exp\n      dup2\n      sload\n      dup2\n      0xffffffffffffffffffffffffffffffffffffffff\n      mul\n      not\n      and\n      swap1\n      dup4\n      0xffffffffffffffffffffffffffffffffffffffff\n      and\n      mul\n      or\n      swap1\n      sstore\n      pop\n        /* \"contracts/banking.sol\":2365:2633  function grantAccess(address _account) public{... */\n      pop\n      jump\t// out\n        /* \"contracts/banking.sol\":2255:2360  function getAccountInfo() public view returns(account memory){... */\n    tag_18:\n        /* \"contracts/banking.sol\":2301:2315  account memory */\n      tag_55\n      tag_56\n      jump\t// in\n    tag_55:\n        /* \"contracts/banking.sol\":2333:2341  accounts */\n      0x01\n        /* \"contracts/banking.sol\":2333:2353  accounts[msg.sender] */\n      0x00\n        /* \"contracts/banking.sol\":2342:2352  msg.sender */\n      caller\n        /* \"contracts/banking.sol\":2333:2353  accounts[msg.sender] */\n      0xffffffffffffffffffffffffffffffffffffffff\n      and\n      0xffffffffffffffffffffffffffffffffffffffff\n      and\n      dup2\n      mstore\n      0x20\n      add\n      swap1\n      dup2\n      mstore\n      0x20\n      add\n      0x00\n      keccak256\n        /* \"contracts/banking.sol\":2326:2353  return accounts[msg.sender] */\n      mload(0x40)\n      dup1\n      0x60\n      add\n      0x40\n      mstore\n      swap1\n      dup2\n      0x00\n      dup3\n      add\n      sload\n      dup2\n      mstore\n      0x20\n      add\n      0x01\n      dup3\n      add\n      sload\n      dup2\n      mstore\n      0x20\n      add\n      0x02\n      dup3\n      add\n      0x00\n      swap1\n      sload\n      swap1\n      0x0100\n      exp\n      swap1\n      div\n      0xffffffffffffffffffffffffffffffffffffffff\n      and\n      0xffffffffffffffffffffffffffffffffffffffff\n      and\n      0xffffffffffffffffffffffffffffffffffffffff\n      and\n      dup2\n      mstore\n      pop\n      pop\n      swap1\n      pop\n        /* \"contracts/banking.sol\":2255:2360  function getAccountInfo() public view returns(account memory){... */\n      swap1\n      jump\t// out\n        /* \"contracts/banking.sol\":845:1187  function withdraw(uint _amount) public payable{... */\n    tag_24:\n        /* \"contracts/banking.sol\":921:929  accounts */\n      0x01\n        /* \"contracts/banking.sol\":921:941  accounts[msg.sender] */\n      0x00\n        /* \"contracts/banking.sol\":930:940  msg.sender */\n      caller\n        /* \"contracts/banking.sol\":921:941  accounts[msg.sender] */\n      0xffffffffffffffffffffffffffffffffffffffff\n      and\n      0xffffffffffffffffffffffffffffffffffffffff\n      and\n      dup2\n      mstore\n      0x20\n      add\n      swap1\n      dup2\n      mstore\n      0x20\n      add\n      0x00\n      keccak256\n        /* \"contracts/banking.sol\":921:947  accounts[msg.sender].owner */\n      0x02\n      add\n      0x00\n      swap1\n      sload\n      swap1\n      0x0100\n      exp\n      swap1\n      div\n      0xffffffffffffffffffffffffffffffffffffffff\n      and\n        /* \"contracts/banking.sol\":909:947  msg.sender==accounts[msg.sender].owner */\n      0xffffffffffffffffffffffffffffffffffffffff\n      and\n        /* \"contracts/banking.sol\":909:919  msg.sender */\n      caller\n        /* \"contracts/banking.sol\":909:947  msg.sender==accounts[msg.sender].owner */\n      0xffffffffffffffffffffffffffffffffffffffff\n      and\n      eq\n        /* \"contracts/banking.sol\":901:988  require(msg.sender==accounts[msg.sender].owner,\"you are not the owner of this account\") */\n      tag_59\n      jumpi\n      mload(0x40)\n      0x08c379a000000000000000000000000000000000000000000000000000000000\n      dup2\n      mstore\n      0x04\n      add\n      tag_60\n      swap1\n      tag_54\n      jump\t// in\n    tag_60:\n      mload(0x40)\n      dup1\n      swap2\n      sub\n      swap1\n      revert\n    tag_59:\n        /* \"contracts/banking.sol\":1014:1015  0 */\n      0x00\n        /* \"contracts/banking.sol\":1006:1013  _amount */\n      dup2\n        /* \"contracts/banking.sol\":1006:1015  _amount>0 */\n      gt\n        /* \"contracts/banking.sol\":998:1053  require(_amount>0,\"amount should be greater than zero\") */\n      tag_61\n      jumpi\n      mload(0x40)\n      0x08c379a000000000000000000000000000000000000000000000000000000000\n      dup2\n      mstore\n      0x04\n      add\n      tag_62\n      swap1\n      tag_63\n      jump\t// in\n    tag_62:\n      mload(0x40)\n      dup1\n      swap2\n      sub\n      swap1\n      revert\n    tag_61:\n        /* \"contracts/banking.sol\":1080:1088  accounts */\n      0x01\n        /* \"contracts/banking.sol\":1080:1100  accounts[msg.sender] */\n      0x00\n        /* \"contracts/banking.sol\":1089:1099  msg.sender */\n      caller\n        /* \"contracts/banking.sol\":1080:1100  accounts[msg.sender] */\n      0xffffffffffffffffffffffffffffffffffffffff\n      and\n      0xffffffffffffffffffffffffffffffffffffffff\n      and\n      dup2\n      mstore\n      0x20\n      add\n      swap1\n      dup2\n      mstore\n      0x20\n      add\n      0x00\n      keccak256\n        /* \"contracts/banking.sol\":1080:1108  accounts[msg.sender].balance */\n      0x01\n      add\n      sload\n        /* \"contracts/banking.sol\":1071:1078  _amount */\n      dup2\n        /* \"contracts/banking.sol\":1071:1108  _amount<=accounts[msg.sender].balance */\n      gt\n      iszero\n        /* \"contracts/banking.sol\":1063:1133  require(_amount<=accounts[msg.sender].balance,\"balance is not enough\") */\n      tag_64\n      jumpi\n      mload(0x40)\n      0x08c379a000000000000000000000000000000000000000000000000000000000\n      dup2\n      mstore\n      0x04\n      add\n      tag_65\n      swap1\n      tag_51\n      jump\t// in\n    tag_65:\n      mload(0x40)\n      dup1\n      swap2\n      sub\n      swap1\n      revert\n    tag_64:\n        /* \"contracts/banking.sol\":1173:1180  _amount */\n      dup1\n        /* \"contracts/banking.sol\":1143:1151  accounts */\n      0x01\n        /* \"contracts/banking.sol\":1143:1163  accounts[msg.sender] */\n      0x00\n        /* \"contracts/banking.sol\":1152:1162  msg.sender */\n      caller\n        /* \"contracts/banking.sol\":1143:1163  accounts[msg.sender] */\n      0xffffffffffffffffffffffffffffffffffffffff\n      and\n      0xffffffffffffffffffffffffffffffffffffffff\n      and\n      dup2\n      mstore\n      0x20\n      add\n      swap1\n      dup2\n      mstore\n      0x20\n      add\n      0x00\n      keccak256\n        /* \"contracts/banking.sol\":1143:1171  accounts[msg.sender].balance */\n      0x01\n      add\n      0x00\n        /* \"contracts/banking.sol\":1143:1180  accounts[msg.sender].balance-=_amount */\n      dup3\n      dup3\n      sload\n      tag_66\n      swap2\n      swap1\n      tag_67\n      jump\t// in\n    tag_66:\n      swap3\n      pop\n      pop\n      dup2\n      swap1\n      sstore\n      pop\n        /* \"contracts/banking.sol\":845:1187  function withdraw(uint _amount) public payable{... */\n      pop\n      jump\t// out\n        /* \"contracts/banking.sol\":193:234  mapping(address=>account) public accounts */\n    tag_28:\n      mstore(0x20, 0x01)\n      dup1\n      0x00\n      mstore\n      keccak256(0x00, 0x40)\n      0x00\n      swap2\n      pop\n      swap1\n      pop\n      dup1\n      0x00\n      add\n      sload\n      swap1\n      dup1\n      0x01\n      add\n      sload\n      swap1\n      dup1\n      0x02\n      add\n      0x00\n      swap1\n      sload\n      swap1\n      0x0100\n      exp\n      swap1\n      div\n      0xffffffffffffffffffffffffffffffffffffffff\n      and\n      swap1\n      pop\n      dup4\n      jump\t// out\n        /* \"contracts/banking.sol\":604:840  function deposit(uint _amount,address _account) public payable{... */\n    tag_34:\n        /* \"contracts/banking.sol\":696:703  manager */\n      0x00\n      dup1\n      sload\n      swap1\n      0x0100\n      exp\n      swap1\n      div\n      0xffffffffffffffffffffffffffffffffffffffff\n      and\n        /* \"contracts/banking.sol\":684:703  msg.sender==manager */\n      0xffffffffffffffffffffffffffffffffffffffff\n      and\n        /* \"contracts/banking.sol\":684:694  msg.sender */\n      caller\n        /* \"contracts/banking.sol\":684:703  msg.sender==manager */\n      0xffffffffffffffffffffffffffffffffffffffff\n      and\n      eq\n        /* \"contracts/banking.sol\":676:730  require(msg.sender==manager,\"you are not the manager\") */\n      tag_69\n      jumpi\n      mload(0x40)\n      0x08c379a000000000000000000000000000000000000000000000000000000000\n      dup2\n      mstore\n      0x04\n      add\n      tag_70\n      swap1\n      tag_71\n      jump\t// in\n    tag_70:\n      mload(0x40)\n      dup1\n      swap2\n      sub\n      swap1\n      revert\n    tag_69:\n        /* \"contracts/banking.sol\":756:757  0 */\n      0x00\n        /* \"contracts/banking.sol\":748:755  _amount */\n      dup3\n        /* \"contracts/banking.sol\":748:757  _amount>0 */\n      gt\n        /* \"contracts/banking.sol\":740:787  require(_amount>0,\"cannot deposit zero amount\") */\n      tag_72\n      jumpi\n      mload(0x40)\n      0x08c379a000000000000000000000000000000000000000000000000000000000\n      dup2\n      mstore\n      0x04\n      add\n      tag_73\n      swap1\n      tag_74\n      jump\t// in\n    tag_73:\n      mload(0x40)\n      dup1\n      swap2\n      sub\n      swap1\n      revert\n    tag_72:\n        /* \"contracts/banking.sol\":826:833  _amount */\n      dup2\n        /* \"contracts/banking.sol\":798:806  accounts */\n      0x01\n        /* \"contracts/banking.sol\":798:816  accounts[_account] */\n      0x00\n        /* \"contracts/banking.sol\":807:815  _account */\n      dup4\n        /* \"contracts/banking.sol\":798:816  accounts[_account] */\n      0xffffffffffffffffffffffffffffffffffffffff\n      and\n      0xffffffffffffffffffffffffffffffffffffffff\n      and\n      dup2\n      mstore\n      0x20\n      add\n      swap1\n      dup2\n      mstore\n      0x20\n      add\n      0x00\n      keccak256\n        /* \"contracts/banking.sol\":798:824  accounts[_account].balance */\n      0x01\n      add\n      0x00\n        /* \"contracts/banking.sol\":798:833  accounts[_account].balance+=_amount */\n      dup3\n      dup3\n      sload\n      tag_75\n      swap2\n      swap1\n      tag_76\n      jump\t// in\n    tag_75:\n      swap3\n      pop\n      pop\n      dup2\n      swap1\n      sstore\n      pop\n        /* \"contracts/banking.sol\":604:840  function deposit(uint _amount,address _account) public payable{... */\n      pop\n      pop\n      jump\t// out\n        /* \"contracts/banking.sol\":332:598  function addAccount(uint _id,uint _balance,address _owner) public{... */\n    tag_39:\n        /* \"contracts/banking.sol\":427:434  manager */\n      0x00\n      dup1\n      sload\n      swap1\n      0x0100\n      exp\n      swap1\n      div\n      0xffffffffffffffffffffffffffffffffffffffff\n      and\n        /* \"contracts/banking.sol\":415:434  msg.sender==manager */\n      0xffffffffffffffffffffffffffffffffffffffff\n      and\n        /* \"contracts/banking.sol\":415:425  msg.sender */\n      caller\n        /* \"contracts/banking.sol\":415:434  msg.sender==manager */\n      0xffffffffffffffffffffffffffffffffffffffff\n      and\n      eq\n        /* \"contracts/banking.sol\":407:461  require(msg.sender==manager,\"you are not the manager\") */\n      tag_78\n      jumpi\n      mload(0x40)\n      0x08c379a000000000000000000000000000000000000000000000000000000000\n      dup2\n      mstore\n      0x04\n      add\n      tag_79\n      swap1\n      tag_71\n      jump\t// in\n    tag_79:\n      mload(0x40)\n      dup1\n      swap2\n      sub\n      swap1\n      revert\n    tag_78:\n        /* \"contracts/banking.sol\":488:583  account({... */\n      mload(0x40)\n      dup1\n      0x60\n      add\n      0x40\n      mstore\n      dup1\n        /* \"contracts/banking.sol\":513:516  _id */\n      dup5\n        /* \"contracts/banking.sol\":488:583  account({... */\n      dup2\n      mstore\n      0x20\n      add\n        /* \"contracts/banking.sol\":538:546  _balance */\n      dup4\n        /* \"contracts/banking.sol\":488:583  account({... */\n      dup2\n      mstore\n      0x20\n      add\n        /* \"contracts/banking.sol\":566:572  _owner */\n      dup3\n        /* \"contracts/banking.sol\":488:583  account({... */\n      0xffffffffffffffffffffffffffffffffffffffff\n      and\n      dup2\n      mstore\n      pop\n        /* \"contracts/banking.sol\":471:479  accounts */\n      0x01\n        /* \"contracts/banking.sol\":471:487  accounts[_owner] */\n      0x00\n        /* \"contracts/banking.sol\":480:486  _owner */\n      dup4\n        /* \"contracts/banking.sol\":471:487  accounts[_owner] */\n      0xffffffffffffffffffffffffffffffffffffffff\n      and\n      0xffffffffffffffffffffffffffffffffffffffff\n      and\n      dup2\n      mstore\n      0x20\n      add\n      swap1\n      dup2\n      mstore\n      0x20\n      add\n      0x00\n      keccak256\n        /* \"contracts/banking.sol\":471:583  accounts[_owner]=account({... */\n      0x00\n      dup3\n      add\n      mload\n      dup2\n      0x00\n      add\n      sstore\n      0x20\n      dup3\n      add\n      mload\n      dup2\n      0x01\n      add\n      sstore\n      0x40\n      dup3\n      add\n      mload\n      dup2\n      0x02\n      add\n      exp(0x0100, 0x00)\n      dup2\n      sload\n      dup2\n      0xffffffffffffffffffffffffffffffffffffffff\n      mul\n      not\n      and\n      swap1\n      dup4\n      0xffffffffffffffffffffffffffffffffffffffff\n      and\n      mul\n      or\n      swap1\n      sstore\n      pop\n      swap1\n      pop\n      pop\n        /* \"contracts/banking.sol\":332:598  function addAccount(uint _id,uint _balance,address _owner) public{... */\n      pop\n      pop\n      pop\n      jump\t// out\n        /* \"contracts/banking.sol\":1192:1604  function transfer(address _account,uint _amount) public payable{... */\n    tag_43:\n        /* \"contracts/banking.sol\":1281:1282  0 */\n      0x00\n        /* \"contracts/banking.sol\":1273:1280  _amount */\n      dup2\n        /* \"contracts/banking.sol\":1273:1282  _amount>0 */\n      gt\n        /* \"contracts/banking.sol\":1265:1320  require(_amount>0,\"amount should be greater than zero\") */\n      tag_81\n      jumpi\n      mload(0x40)\n      0x08c379a000000000000000000000000000000000000000000000000000000000\n      dup2\n      mstore\n      0x04\n      add\n      tag_82\n      swap1\n      tag_63\n      jump\t// in\n    tag_82:\n      mload(0x40)\n      dup1\n      swap2\n      sub\n      swap1\n      revert\n    tag_81:\n        /* \"contracts/banking.sol\":1350:1358  accounts */\n      0x01\n        /* \"contracts/banking.sol\":1350:1370  accounts[msg.sender] */\n      0x00\n        /* \"contracts/banking.sol\":1359:1369  msg.sender */\n      caller\n        /* \"contracts/banking.sol\":1350:1370  accounts[msg.sender] */\n      0xffffffffffffffffffffffffffffffffffffffff\n      and\n      0xffffffffffffffffffffffffffffffffffffffff\n      and\n      dup2\n      mstore\n      0x20\n      add\n      swap1\n      dup2\n      mstore\n      0x20\n      add\n      0x00\n      keccak256\n        /* \"contracts/banking.sol\":1350:1376  accounts[msg.sender].owner */\n      0x02\n      add\n      0x00\n      swap1\n      sload\n      swap1\n      0x0100\n      exp\n      swap1\n      div\n      0xffffffffffffffffffffffffffffffffffffffff\n      and\n        /* \"contracts/banking.sol\":1338:1376  msg.sender==accounts[msg.sender].owner */\n      0xffffffffffffffffffffffffffffffffffffffff\n      and\n        /* \"contracts/banking.sol\":1338:1348  msg.sender */\n      caller\n        /* \"contracts/banking.sol\":1338:1376  msg.sender==accounts[msg.sender].owner */\n      0xffffffffffffffffffffffffffffffffffffffff\n      and\n      eq\n        /* \"contracts/banking.sol\":1330:1417  require(msg.sender==accounts[msg.sender].owner,\"you are not the owner of this account\") */\n      tag_83\n      jumpi\n      mload(0x40)\n      0x08c379a000000000000000000000000000000000000000000000000000000000\n      dup2\n      mstore\n      0x04\n      add\n      tag_84\n      swap1\n      tag_54\n      jump\t// in\n    tag_84:\n      mload(0x40)\n      dup1\n      swap2\n      sub\n      swap1\n      revert\n    tag_83:\n        /* \"contracts/banking.sol\":1444:1452  accounts */\n      0x01\n        /* \"contracts/banking.sol\":1444:1464  accounts[msg.sender] */\n      0x00\n        /* \"contracts/banking.sol\":1453:1463  msg.sender */\n      caller\n        /* \"contracts/banking.sol\":1444:1464  accounts[msg.sender] */\n      0xffffffffffffffffffffffffffffffffffffffff\n      and\n      0xffffffffffffffffffffffffffffffffffffffff\n      and\n      dup2\n      mstore\n      0x20\n      add\n      swap1\n      dup2\n      mstore\n      0x20\n      add\n      0x00\n      keccak256\n        /* \"contracts/banking.sol\":1444:1472  accounts[msg.sender].balance */\n      0x01\n      add\n      sload\n        /* \"contracts/banking.sol\":1435:1442  _amount */\n      dup2\n        /* \"contracts/banking.sol\":1435:1472  _amount<=accounts[msg.sender].balance */\n      gt\n      iszero\n        /* \"contracts/banking.sol\":1427:1504  require(_amount<=accounts[msg.sender].balance,\"you dont have enough balance\") */\n      tag_85\n      jumpi\n      mload(0x40)\n      0x08c379a000000000000000000000000000000000000000000000000000000000\n      dup2\n      mstore\n      0x04\n      add\n      tag_86\n      swap1\n      tag_87\n      jump\t// in\n    tag_86:\n      mload(0x40)\n      dup1\n      swap2\n      sub\n      swap1\n      revert\n    tag_85:\n        /* \"contracts/banking.sol\":1542:1549  _amount */\n      dup1\n        /* \"contracts/banking.sol\":1514:1522  accounts */\n      0x01\n        /* \"contracts/banking.sol\":1514:1532  accounts[_account] */\n      0x00\n        /* \"contracts/banking.sol\":1523:1531  _account */\n      dup5\n        /* \"contracts/banking.sol\":1514:1532  accounts[_account] */\n      0xffffffffffffffffffffffffffffffffffffffff\n      and\n      0xffffffffffffffffffffffffffffffffffffffff\n      and\n      dup2\n      mstore\n      0x20\n      add\n      swap1\n      dup2\n      mstore\n      0x20\n      add\n      0x00\n      keccak256\n        /* \"contracts/banking.sol\":1514:1540  accounts[_account].balance */\n      0x01\n      add\n      0x00\n        /* \"contracts/banking.sol\":1514:1549  accounts[_account].balance+=_amount */\n      dup3\n      dup3\n      sload\n      tag_88\n      swap2\n      swap1\n      tag_76\n      jump\t// in\n    tag_88:\n      swap3\n      pop\n      pop\n      dup2\n      swap1\n      sstore\n      pop\n        /* \"contracts/banking.sol\":1589:1596  _amount */\n      dup1\n        /* \"contracts/banking.sol\":1559:1567  accounts */\n      0x01\n        /* \"contracts/banking.sol\":1559:1579  accounts[msg.sender] */\n      0x00\n        /* \"contracts/banking.sol\":1568:1578  msg.sender */\n      caller\n        /* \"contracts/banking.sol\":1559:1579  accounts[msg.sender] */\n      0xffffffffffffffffffffffffffffffffffffffff\n      and\n      0xffffffffffffffffffffffffffffffffffffffff\n      and\n      dup2\n      mstore\n      0x20\n      add\n      swap1\n      dup2\n      mstore\n      0x20\n      add\n      0x00\n      keccak256\n        /* \"contracts/banking.sol\":1559:1587  accounts[msg.sender].balance */\n      0x01\n      add\n      0x00\n        /* \"contracts/banking.sol\":1559:1596  accounts[msg.sender].balance-=_amount */\n      dup3\n      dup3\n      sload\n      tag_89\n      swap2\n      swap1\n      tag_67\n      jump\t// in\n    tag_89:\n      swap3\n      pop\n      pop\n      dup2\n      swap1\n      sstore\n      pop\n        /* \"contracts/banking.sol\":1192:1604  function transfer(address _account,uint _amount) public payable{... */\n      pop\n      pop\n      jump\t// out\n        /* \"contracts/banking.sol\":1609:2250  function giveLoan(address _account,uint _amount,uint _time) public payable{... */\n    tag_47:\n        /* \"contracts/banking.sol\":1713:1721  accounts */\n      0x01\n        /* \"contracts/banking.sol\":1713:1733  accounts[msg.sender] */\n      0x00\n        /* \"contracts/banking.sol\":1722:1732  msg.sender */\n      caller\n        /* \"contracts/banking.sol\":1713:1733  accounts[msg.sender] */\n      0xffffffffffffffffffffffffffffffffffffffff\n      and\n      0xffffffffffffffffffffffffffffffffffffffff\n      and\n      dup2\n      mstore\n      0x20\n      add\n      swap1\n      dup2\n      mstore\n      0x20\n      add\n      0x00\n      keccak256\n        /* \"contracts/banking.sol\":1713:1739  accounts[msg.sender].owner */\n      0x02\n      add\n      0x00\n      swap1\n      sload\n      swap1\n      0x0100\n      exp\n      swap1\n      div\n      0xffffffffffffffffffffffffffffffffffffffff\n      and\n        /* \"contracts/banking.sol\":1701:1739  msg.sender==accounts[msg.sender].owner */\n      0xffffffffffffffffffffffffffffffffffffffff\n      and\n        /* \"contracts/banking.sol\":1701:1711  msg.sender */\n      caller\n        /* \"contracts/banking.sol\":1701:1739  msg.sender==accounts[msg.sender].owner */\n      0xffffffffffffffffffffffffffffffffffffffff\n      and\n      eq\n        /* \"contracts/banking.sol\":1693:1780  require(msg.sender==accounts[msg.sender].owner,\"you are not the owner of this account\") */\n      tag_91\n      jumpi\n      mload(0x40)\n      0x08c379a000000000000000000000000000000000000000000000000000000000\n      dup2\n      mstore\n      0x04\n      add\n      tag_92\n      swap1\n      tag_54\n      jump\t// in\n    tag_92:\n      mload(0x40)\n      dup1\n      swap2\n      sub\n      swap1\n      revert\n    tag_91:\n        /* \"contracts/banking.sol\":1807:1815  accounts */\n      0x01\n        /* \"contracts/banking.sol\":1807:1827  accounts[msg.sender] */\n      0x00\n        /* \"contracts/banking.sol\":1816:1826  msg.sender */\n      caller\n        /* \"contracts/banking.sol\":1807:1827  accounts[msg.sender] */\n      0xffffffffffffffffffffffffffffffffffffffff\n      and\n      0xffffffffffffffffffffffffffffffffffffffff\n      and\n      dup2\n      mstore\n      0x20\n      add\n      swap1\n      dup2\n      mstore\n      0x20\n      add\n      0x00\n      keccak256\n        /* \"contracts/banking.sol\":1807:1835  accounts[msg.sender].balance */\n      0x01\n      add\n      sload\n        /* \"contracts/banking.sol\":1798:1805  _amount */\n      dup3\n        /* \"contracts/banking.sol\":1798:1835  _amount<=accounts[msg.sender].balance */\n      gt\n      iszero\n        /* \"contracts/banking.sol\":1790:1860  require(_amount<=accounts[msg.sender].balance,\"balance is not enough\") */\n      tag_93\n      jumpi\n      mload(0x40)\n      0x08c379a000000000000000000000000000000000000000000000000000000000\n      dup2\n      mstore\n      0x04\n      add\n      tag_94\n      swap1\n      tag_51\n      jump\t// in\n    tag_94:\n      mload(0x40)\n      dup1\n      swap2\n      sub\n      swap1\n      revert\n    tag_93:\n        /* \"contracts/banking.sol\":1886:1887  0 */\n      0x00\n        /* \"contracts/banking.sol\":1878:1885  _amount */\n      dup3\n        /* \"contracts/banking.sol\":1878:1887  _amount>0 */\n      gt\n        /* \"contracts/banking.sol\":1870:1925  require(_amount>0,\"amount should be greater than zero\") */\n      tag_95\n      jumpi\n      mload(0x40)\n      0x08c379a000000000000000000000000000000000000000000000000000000000\n      dup2\n      mstore\n      0x04\n      add\n      tag_96\n      swap1\n      tag_63\n      jump\t// in\n    tag_96:\n      mload(0x40)\n      dup1\n      swap2\n      sub\n      swap1\n      revert\n    tag_95:\n        /* \"contracts/banking.sol\":1949:1964  block.timestamp */\n      timestamp\n        /* \"contracts/banking.sol\":1943:1948  _time */\n      dup2\n        /* \"contracts/banking.sol\":1943:1964  _time>block.timestamp */\n      gt\n        /* \"contracts/banking.sol\":1935:2005  require(_time>block.timestamp,\"time should be greater than timestamp\") */\n      tag_97\n      jumpi\n      mload(0x40)\n      0x08c379a000000000000000000000000000000000000000000000000000000000\n      dup2\n      mstore\n      0x04\n      add\n      tag_98\n      swap1\n      tag_99\n      jump\t// in\n    tag_98:\n      mload(0x40)\n      dup1\n      swap2\n      sub\n      swap1\n      revert\n    tag_97:\n        /* \"contracts/banking.sol\":2043:2050  _amount */\n      dup2\n        /* \"contracts/banking.sol\":2015:2023  accounts */\n      0x01\n        /* \"contracts/banking.sol\":2015:2033  accounts[_account] */\n      0x00\n        /* \"contracts/banking.sol\":2024:2032  _account */\n      dup6\n        /* \"contracts/banking.sol\":2015:2033  accounts[_account] */\n      0xffffffffffffffffffffffffffffffffffffffff\n      and\n      0xffffffffffffffffffffffffffffffffffffffff\n      and\n      dup2\n      mstore\n      0x20\n      add\n      swap1\n      dup2\n      mstore\n      0x20\n      add\n      0x00\n      keccak256\n        /* \"contracts/banking.sol\":2015:2041  accounts[_account].balance */\n      0x01\n      add\n      0x00\n        /* \"contracts/banking.sol\":2015:2050  accounts[_account].balance+=_amount */\n      dup3\n      dup3\n      sload\n      tag_100\n      swap2\n      swap1\n      tag_76\n      jump\t// in\n    tag_100:\n      swap3\n      pop\n      pop\n      dup2\n      swap1\n      sstore\n      pop\n        /* \"contracts/banking.sol\":2090:2097  _amount */\n      dup2\n        /* \"contracts/banking.sol\":2060:2068  accounts */\n      0x01\n        /* \"contracts/banking.sol\":2060:2080  accounts[msg.sender] */\n      0x00\n        /* \"contracts/banking.sol\":2069:2079  msg.sender */\n      caller\n        /* \"contracts/banking.sol\":2060:2080  accounts[msg.sender] */\n      0xffffffffffffffffffffffffffffffffffffffff\n      and\n      0xffffffffffffffffffffffffffffffffffffffff\n      and\n      dup2\n      mstore\n      0x20\n      add\n      swap1\n      dup2\n      mstore\n      0x20\n      add\n      0x00\n      keccak256\n        /* \"contracts/banking.sol\":2060:2088  accounts[msg.sender].balance */\n      0x01\n      add\n      0x00\n        /* \"contracts/banking.sol\":2060:2097  accounts[msg.sender].balance-=_amount */\n      dup3\n      dup3\n      sload\n      tag_101\n      swap2\n      swap1\n      tag_67\n      jump\t// in\n    tag_101:\n      swap3\n      pop\n      pop\n      dup2\n      swap1\n      sstore\n      pop\n        /* \"contracts/banking.sol\":2117:2132  block.timestamp */\n      timestamp\n        /* \"contracts/banking.sol\":2110:2115  _time */\n      dup2\n        /* \"contracts/banking.sol\":2110:2132  _time<=block.timestamp */\n      gt\n        /* \"contracts/banking.sol\":2107:2244  if(_time<=block.timestamp){... */\n      tag_102\n      jumpi\n        /* \"contracts/banking.sol\":2175:2182  _amount */\n      dup2\n        /* \"contracts/banking.sol\":2147:2155  accounts */\n      0x01\n        /* \"contracts/banking.sol\":2147:2165  accounts[_account] */\n      0x00\n        /* \"contracts/banking.sol\":2156:2164  _account */\n      dup6\n        /* \"contracts/banking.sol\":2147:2165  accounts[_account] */\n      0xffffffffffffffffffffffffffffffffffffffff\n      and\n      0xffffffffffffffffffffffffffffffffffffffff\n      and\n      dup2\n      mstore\n      0x20\n      add\n      swap1\n      dup2\n      mstore\n      0x20\n      add\n      0x00\n      keccak256\n        /* \"contracts/banking.sol\":2147:2173  accounts[_account].balance */\n      0x01\n      add\n      0x00\n        /* \"contracts/banking.sol\":2147:2182  accounts[_account].balance-=_amount */\n      dup3\n      dup3\n      sload\n      tag_103\n      swap2\n      swap1\n      tag_67\n      jump\t// in\n    tag_103:\n      swap3\n      pop\n      pop\n      dup2\n      swap1\n      sstore\n      pop\n        /* \"contracts/banking.sol\":2226:2233  _amount */\n      dup2\n        /* \"contracts/banking.sol\":2196:2204  accounts */\n      0x01\n        /* \"contracts/banking.sol\":2196:2216  accounts[msg.sender] */\n      0x00\n        /* \"contracts/banking.sol\":2205:2215  msg.sender */\n      caller\n        /* \"contracts/banking.sol\":2196:2216  accounts[msg.sender] */\n      0xffffffffffffffffffffffffffffffffffffffff\n      and\n      0xffffffffffffffffffffffffffffffffffffffff\n      and\n      dup2\n      mstore\n      0x20\n      add\n      swap1\n      dup2\n      mstore\n      0x20\n      add\n      0x00\n      keccak256\n        /* \"contracts/banking.sol\":2196:2224  accounts[msg.sender].balance */\n      0x01\n      add\n      0x00\n        /* \"contracts/banking.sol\":2196:2233  accounts[msg.sender].balance+=_amount */\n      dup3\n      dup3\n      sload\n      tag_104\n      swap2\n      swap1\n      tag_76\n      jump\t// in\n    tag_104:\n      swap3\n      pop\n      pop\n      dup2\n      swap1\n      sstore\n      pop\n        /* \"contracts/banking.sol\":2107:2244  if(_time<=block.timestamp){... */\n    tag_102:\n        /* \"contracts/banking.sol\":1609:2250  function giveLoan(address _account,uint _amount,uint _time) public payable{... */\n      pop\n      pop\n      pop\n      jump\t// out\n    tag_56:\n      mload(0x40)\n      dup1\n      0x60\n      add\n      0x40\n      mstore\n      dup1\n      0x00\n      dup2\n      mstore\n      0x20\n      add\n      0x00\n      dup2\n      mstore\n      0x20\n      add\n      and(0xffffffffffffffffffffffffffffffffffffffff, 0x00)\n      dup2\n      mstore\n      pop\n      swap1\n      jump\t// out\n        /* \"#utility.yul\":88:205   */\n    tag_106:\n        /* \"#utility.yul\":197:198   */\n      0x00\n        /* \"#utility.yul\":194:195   */\n      dup1\n        /* \"#utility.yul\":187:199   */\n      revert\n        /* \"#utility.yul\":334:460   */\n    tag_108:\n        /* \"#utility.yul\":371:378   */\n      0x00\n        /* \"#utility.yul\":411:453   */\n      0xffffffffffffffffffffffffffffffffffffffff\n        /* \"#utility.yul\":404:409   */\n      dup3\n        /* \"#utility.yul\":400:454   */\n      and\n        /* \"#utility.yul\":389:454   */\n      swap1\n      pop\n        /* \"#utility.yul\":334:460   */\n      swap2\n      swap1\n      pop\n      jump\t// out\n        /* \"#utility.yul\":466:562   */\n    tag_109:\n        /* \"#utility.yul\":503:510   */\n      0x00\n        /* \"#utility.yul\":532:556   */\n      tag_142\n        /* \"#utility.yul\":550:555   */\n      dup3\n        /* \"#utility.yul\":532:556   */\n      tag_108\n      jump\t// in\n    tag_142:\n        /* \"#utility.yul\":521:556   */\n      swap1\n      pop\n        /* \"#utility.yul\":466:562   */\n      swap2\n      swap1\n      pop\n      jump\t// out\n        /* \"#utility.yul\":568:690   */\n    tag_110:\n        /* \"#utility.yul\":641:665   */\n      tag_144\n        /* \"#utility.yul\":659:664   */\n      dup2\n        /* \"#utility.yul\":641:665   */\n      tag_109\n      jump\t// in\n    tag_144:\n        /* \"#utility.yul\":634:639   */\n      dup2\n        /* \"#utility.yul\":631:666   */\n      eq\n        /* \"#utility.yul\":621:684   */\n      tag_145\n      jumpi\n        /* \"#utility.yul\":680:681   */\n      0x00\n        /* \"#utility.yul\":677:678   */\n      dup1\n        /* \"#utility.yul\":670:682   */\n      revert\n        /* \"#utility.yul\":621:684   */\n    tag_145:\n        /* \"#utility.yul\":568:690   */\n      pop\n      jump\t// out\n        /* \"#utility.yul\":696:835   */\n    tag_111:\n        /* \"#utility.yul\":742:747   */\n      0x00\n        /* \"#utility.yul\":780:786   */\n      dup2\n        /* \"#utility.yul\":767:787   */\n      calldataload\n        /* \"#utility.yul\":758:787   */\n      swap1\n      pop\n        /* \"#utility.yul\":796:829   */\n      tag_147\n        /* \"#utility.yul\":823:828   */\n      dup2\n        /* \"#utility.yul\":796:829   */\n      tag_110\n      jump\t// in\n    tag_147:\n        /* \"#utility.yul\":696:835   */\n      swap3\n      swap2\n      pop\n      pop\n      jump\t// out\n        /* \"#utility.yul\":841:1170   */\n    tag_14:\n        /* \"#utility.yul\":900:906   */\n      0x00\n        /* \"#utility.yul\":949:951   */\n      0x20\n        /* \"#utility.yul\":937:946   */\n      dup3\n        /* \"#utility.yul\":928:935   */\n      dup5\n        /* \"#utility.yul\":924:947   */\n      sub\n        /* \"#utility.yul\":920:952   */\n      slt\n        /* \"#utility.yul\":917:1036   */\n      iszero\n      tag_149\n      jumpi\n        /* \"#utility.yul\":955:1034   */\n      tag_150\n      tag_106\n      jump\t// in\n    tag_150:\n        /* \"#utility.yul\":917:1036   */\n    tag_149:\n        /* \"#utility.yul\":1075:1076   */\n      0x00\n        /* \"#utility.yul\":1100:1153   */\n      tag_151\n        /* \"#utility.yul\":1145:1152   */\n      dup5\n        /* \"#utility.yul\":1136:1142   */\n      dup3\n        /* \"#utility.yul\":1125:1134   */\n      dup6\n        /* \"#utility.yul\":1121:1143   */\n      add\n        /* \"#utility.yul\":1100:1153   */\n      tag_111\n      jump\t// in\n    tag_151:\n        /* \"#utility.yul\":1090:1153   */\n      swap2\n      pop\n        /* \"#utility.yul\":1046:1163   */\n      pop\n        /* \"#utility.yul\":841:1170   */\n      swap3\n      swap2\n      pop\n      pop\n      jump\t// out\n        /* \"#utility.yul\":1176:1253   */\n    tag_112:\n        /* \"#utility.yul\":1213:1220   */\n      0x00\n        /* \"#utility.yul\":1242:1247   */\n      dup2\n        /* \"#utility.yul\":1231:1247   */\n      swap1\n      pop\n        /* \"#utility.yul\":1176:1253   */\n      swap2\n      swap1\n      pop\n      jump\t// out\n        /* \"#utility.yul\":1259:1367   */\n    tag_113:\n        /* \"#utility.yul\":1336:1360   */\n      tag_154\n        /* \"#utility.yul\":1354:1359   */\n      dup2\n        /* \"#utility.yul\":1336:1360   */\n      tag_112\n      jump\t// in\n    tag_154:\n        /* \"#utility.yul\":1331:1334   */\n      dup3\n        /* \"#utility.yul\":1324:1361   */\n      mstore\n        /* \"#utility.yul\":1259:1367   */\n      pop\n      pop\n      jump\t// out\n        /* \"#utility.yul\":1373:1481   */\n    tag_114:\n        /* \"#utility.yul\":1450:1474   */\n      tag_156\n        /* \"#utility.yul\":1468:1473   */\n      dup2\n        /* \"#utility.yul\":1450:1474   */\n      tag_109\n      jump\t// in\n    tag_156:\n        /* \"#utility.yul\":1445:1448   */\n      dup3\n        /* \"#utility.yul\":1438:1475   */\n      mstore\n        /* \"#utility.yul\":1373:1481   */\n      pop\n      pop\n      jump\t// out\n        /* \"#utility.yul\":1537:2214   */\n    tag_115:\n        /* \"#utility.yul\":1678:1682   */\n      0x60\n        /* \"#utility.yul\":1673:1676   */\n      dup3\n        /* \"#utility.yul\":1669:1683   */\n      add\n        /* \"#utility.yul\":1763:1767   */\n      0x00\n        /* \"#utility.yul\":1756:1761   */\n      dup3\n        /* \"#utility.yul\":1752:1768   */\n      add\n        /* \"#utility.yul\":1746:1769   */\n      mload\n        /* \"#utility.yul\":1782:1845   */\n      tag_158\n        /* \"#utility.yul\":1839:1843   */\n      0x00\n        /* \"#utility.yul\":1834:1837   */\n      dup6\n        /* \"#utility.yul\":1830:1844   */\n      add\n        /* \"#utility.yul\":1816:1828   */\n      dup3\n        /* \"#utility.yul\":1782:1845   */\n      tag_113\n      jump\t// in\n    tag_158:\n        /* \"#utility.yul\":1693:1855   */\n      pop\n        /* \"#utility.yul\":1940:1944   */\n      0x20\n        /* \"#utility.yul\":1933:1938   */\n      dup3\n        /* \"#utility.yul\":1929:1945   */\n      add\n        /* \"#utility.yul\":1923:1946   */\n      mload\n        /* \"#utility.yul\":1959:2022   */\n      tag_159\n        /* \"#utility.yul\":2016:2020   */\n      0x20\n        /* \"#utility.yul\":2011:2014   */\n      dup6\n        /* \"#utility.yul\":2007:2021   */\n      add\n        /* \"#utility.yul\":1993:2005   */\n      dup3\n        /* \"#utility.yul\":1959:2022   */\n      tag_113\n      jump\t// in\n    tag_159:\n        /* \"#utility.yul\":1865:2032   */\n      pop\n        /* \"#utility.yul\":2115:2119   */\n      0x40\n        /* \"#utility.yul\":2108:2113   */\n      dup3\n        /* \"#utility.yul\":2104:2120   */\n      add\n        /* \"#utility.yul\":2098:2121   */\n      mload\n        /* \"#utility.yul\":2134:2197   */\n      tag_160\n        /* \"#utility.yul\":2191:2195   */\n      0x40\n        /* \"#utility.yul\":2186:2189   */\n      dup6\n        /* \"#utility.yul\":2182:2196   */\n      add\n        /* \"#utility.yul\":2168:2180   */\n      dup3\n        /* \"#utility.yul\":2134:2197   */\n      tag_114\n      jump\t// in\n    tag_160:\n        /* \"#utility.yul\":2042:2207   */\n      pop\n        /* \"#utility.yul\":1647:2214   */\n      pop\n        /* \"#utility.yul\":1537:2214   */\n      pop\n      pop\n      jump\t// out\n        /* \"#utility.yul\":2220:2530   */\n    tag_20:\n        /* \"#utility.yul\":2357:2361   */\n      0x00\n        /* \"#utility.yul\":2395:2397   */\n      0x60\n        /* \"#utility.yul\":2384:2393   */\n      dup3\n        /* \"#utility.yul\":2380:2398   */\n      add\n        /* \"#utility.yul\":2372:2398   */\n      swap1\n      pop\n        /* \"#utility.yul\":2408:2523   */\n      tag_162\n        /* \"#utility.yul\":2520:2521   */\n      0x00\n        /* \"#utility.yul\":2509:2518   */\n      dup4\n        /* \"#utility.yul\":2505:2522   */\n      add\n        /* \"#utility.yul\":2496:2502   */\n      dup5\n        /* \"#utility.yul\":2408:2523   */\n      tag_115\n      jump\t// in\n    tag_162:\n        /* \"#utility.yul\":2220:2530   */\n      swap3\n      swap2\n      pop\n      pop\n      jump\t// out\n        /* \"#utility.yul\":2536:2658   */\n    tag_116:\n        /* \"#utility.yul\":2609:2633   */\n      tag_164\n        /* \"#utility.yul\":2627:2632   */\n      dup2\n        /* \"#utility.yul\":2609:2633   */\n      tag_112\n      jump\t// in\n    tag_164:\n        /* \"#utility.yul\":2602:2607   */\n      dup2\n        /* \"#utility.yul\":2599:2634   */\n      eq\n        /* \"#utility.yul\":2589:2652   */\n      tag_165\n      jumpi\n        /* \"#utility.yul\":2648:2649   */\n      0x00\n        /* \"#utility.yul\":2645:2646   */\n      dup1\n        /* \"#utility.yul\":2638:2650   */\n      revert\n        /* \"#utility.yul\":2589:2652   */\n    tag_165:\n        /* \"#utility.yul\":2536:2658   */\n      pop\n      jump\t// out\n        /* \"#utility.yul\":2664:2803   */\n    tag_117:\n        /* \"#utility.yul\":2710:2715   */\n      0x00\n        /* \"#utility.yul\":2748:2754   */\n      dup2\n        /* \"#utility.yul\":2735:2755   */\n      calldataload\n        /* \"#utility.yul\":2726:2755   */\n      swap1\n      pop\n        /* \"#utility.yul\":2764:2797   */\n      tag_167\n        /* \"#utility.yul\":2791:2796   */\n      dup2\n        /* \"#utility.yul\":2764:2797   */\n      tag_116\n      jump\t// in\n    tag_167:\n        /* \"#utility.yul\":2664:2803   */\n      swap3\n      swap2\n      pop\n      pop\n      jump\t// out\n        /* \"#utility.yul\":2809:3138   */\n    tag_23:\n        /* \"#utility.yul\":2868:2874   */\n      0x00\n        /* \"#utility.yul\":2917:2919   */\n      0x20\n        /* \"#utility.yul\":2905:2914   */\n      dup3\n        /* \"#utility.yul\":2896:2903   */\n      dup5\n        /* \"#utility.yul\":2892:2915   */\n      sub\n        /* \"#utility.yul\":2888:2920   */\n      slt\n        /* \"#utility.yul\":2885:3004   */\n      iszero\n      tag_169\n      jumpi\n        /* \"#utility.yul\":2923:3002   */\n      tag_170\n      tag_106\n      jump\t// in\n    tag_170:\n        /* \"#utility.yul\":2885:3004   */\n    tag_169:\n        /* \"#utility.yul\":3043:3044   */\n      0x00\n        /* \"#utility.yul\":3068:3121   */\n      tag_171\n        /* \"#utility.yul\":3113:3120   */\n      dup5\n        /* \"#utility.yul\":3104:3110   */\n      dup3\n        /* \"#utility.yul\":3093:3102   */\n      dup6\n        /* \"#utility.yul\":3089:3111   */\n      add\n        /* \"#utility.yul\":3068:3121   */\n      tag_117\n      jump\t// in\n    tag_171:\n        /* \"#utility.yul\":3058:3121   */\n      swap2\n      pop\n        /* \"#utility.yul\":3014:3131   */\n      pop\n        /* \"#utility.yul\":2809:3138   */\n      swap3\n      swap2\n      pop\n      pop\n      jump\t// out\n        /* \"#utility.yul\":3144:3262   */\n    tag_118:\n        /* \"#utility.yul\":3231:3255   */\n      tag_173\n        /* \"#utility.yul\":3249:3254   */\n      dup2\n        /* \"#utility.yul\":3231:3255   */\n      tag_112\n      jump\t// in\n    tag_173:\n        /* \"#utility.yul\":3226:3229   */\n      dup3\n        /* \"#utility.yul\":3219:3256   */\n      mstore\n        /* \"#utility.yul\":3144:3262   */\n      pop\n      pop\n      jump\t// out\n        /* \"#utility.yul\":3268:3386   */\n    tag_119:\n        /* \"#utility.yul\":3355:3379   */\n      tag_175\n        /* \"#utility.yul\":3373:3378   */\n      dup2\n        /* \"#utility.yul\":3355:3379   */\n      tag_109\n      jump\t// in\n    tag_175:\n        /* \"#utility.yul\":3350:3353   */\n      dup3\n        /* \"#utility.yul\":3343:3380   */\n      mstore\n        /* \"#utility.yul\":3268:3386   */\n      pop\n      pop\n      jump\t// out\n        /* \"#utility.yul\":3392:3834   */\n    tag_30:\n        /* \"#utility.yul\":3541:3545   */\n      0x00\n        /* \"#utility.yul\":3579:3581   */\n      0x60\n        /* \"#utility.yul\":3568:3577   */\n      dup3\n        /* \"#utility.yul\":3564:3582   */\n      add\n        /* \"#utility.yul\":3556:3582   */\n      swap1\n      pop\n        /* \"#utility.yul\":3592:3663   */\n      tag_177\n        /* \"#utility.yul\":3660:3661   */\n      0x00\n        /* \"#utility.yul\":3649:3658   */\n      dup4\n        /* \"#utility.yul\":3645:3662   */\n      add\n        /* \"#utility.yul\":3636:3642   */\n      dup7\n        /* \"#utility.yul\":3592:3663   */\n      tag_118\n      jump\t// in\n    tag_177:\n        /* \"#utility.yul\":3673:3745   */\n      tag_178\n        /* \"#utility.yul\":3741:3743   */\n      0x20\n        /* \"#utility.yul\":3730:3739   */\n      dup4\n        /* \"#utility.yul\":3726:3744   */\n      add\n        /* \"#utility.yul\":3717:3723   */\n      dup6\n        /* \"#utility.yul\":3673:3745   */\n      tag_118\n      jump\t// in\n    tag_178:\n        /* \"#utility.yul\":3755:3827   */\n      tag_179\n        /* \"#utility.yul\":3823:3825   */\n      0x40\n        /* \"#utility.yul\":3812:3821   */\n      dup4\n        /* \"#utility.yul\":3808:3826   */\n      add\n        /* \"#utility.yul\":3799:3805   */\n      dup5\n        /* \"#utility.yul\":3755:3827   */\n      tag_119\n      jump\t// in\n    tag_179:\n        /* \"#utility.yul\":3392:3834   */\n      swap5\n      swap4\n      pop\n      pop\n      pop\n      pop\n      jump\t// out\n        /* \"#utility.yul\":3840:4314   */\n    tag_33:\n        /* \"#utility.yul\":3908:3914   */\n      0x00\n        /* \"#utility.yul\":3916:3922   */\n      dup1\n        /* \"#utility.yul\":3965:3967   */\n      0x40\n        /* \"#utility.yul\":3953:3962   */\n      dup4\n        /* \"#utility.yul\":3944:3951   */\n      dup6\n        /* \"#utility.yul\":3940:3963   */\n      sub\n        /* \"#utility.yul\":3936:3968   */\n      slt\n        /* \"#utility.yul\":3933:4052   */\n      iszero\n      tag_181\n      jumpi\n        /* \"#utility.yul\":3971:4050   */\n      tag_182\n      tag_106\n      jump\t// in\n    tag_182:\n        /* \"#utility.yul\":3933:4052   */\n    tag_181:\n        /* \"#utility.yul\":4091:4092   */\n      0x00\n        /* \"#utility.yul\":4116:4169   */\n      tag_183\n        /* \"#utility.yul\":4161:4168   */\n      dup6\n        /* \"#utility.yul\":4152:4158   */\n      dup3\n        /* \"#utility.yul\":4141:4150   */\n      dup7\n        /* \"#utility.yul\":4137:4159   */\n      add\n        /* \"#utility.yul\":4116:4169   */\n      tag_117\n      jump\t// in\n    tag_183:\n        /* \"#utility.yul\":4106:4169   */\n      swap3\n      pop\n        /* \"#utility.yul\":4062:4179   */\n      pop\n        /* \"#utility.yul\":4218:4220   */\n      0x20\n        /* \"#utility.yul\":4244:4297   */\n      tag_184\n        /* \"#utility.yul\":4289:4296   */\n      dup6\n        /* \"#utility.yul\":4280:4286   */\n      dup3\n        /* \"#utility.yul\":4269:4278   */\n      dup7\n        /* \"#utility.yul\":4265:4287   */\n      add\n        /* \"#utility.yul\":4244:4297   */\n      tag_111\n      jump\t// in\n    tag_184:\n        /* \"#utility.yul\":4234:4297   */\n      swap2\n      pop\n        /* \"#utility.yul\":4189:4307   */\n      pop\n        /* \"#utility.yul\":3840:4314   */\n      swap3\n      pop\n      swap3\n      swap1\n      pop\n      jump\t// out\n        /* \"#utility.yul\":4320:4939   */\n    tag_38:\n        /* \"#utility.yul\":4397:4403   */\n      0x00\n        /* \"#utility.yul\":4405:4411   */\n      dup1\n        /* \"#utility.yul\":4413:4419   */\n      0x00\n        /* \"#utility.yul\":4462:4464   */\n      0x60\n        /* \"#utility.yul\":4450:4459   */\n      dup5\n        /* \"#utility.yul\":4441:4448   */\n      dup7\n        /* \"#utility.yul\":4437:4460   */\n      sub\n        /* \"#utility.yul\":4433:4465   */\n      slt\n        /* \"#utility.yul\":4430:4549   */\n      iszero\n      tag_186\n      jumpi\n        /* \"#utility.yul\":4468:4547   */\n      tag_187\n      tag_106\n      jump\t// in\n    tag_187:\n        /* \"#utility.yul\":4430:4549   */\n    tag_186:\n        /* \"#utility.yul\":4588:4589   */\n      0x00\n        /* \"#utility.yul\":4613:4666   */\n      tag_188\n        /* \"#utility.yul\":4658:4665   */\n      dup7\n        /* \"#utility.yul\":4649:4655   */\n      dup3\n        /* \"#utility.yul\":4638:4647   */\n      dup8\n        /* \"#utility.yul\":4634:4656   */\n      add\n        /* \"#utility.yul\":4613:4666   */\n      tag_117\n      jump\t// in\n    tag_188:\n        /* \"#utility.yul\":4603:4666   */\n      swap4\n      pop\n        /* \"#utility.yul\":4559:4676   */\n      pop\n        /* \"#utility.yul\":4715:4717   */\n      0x20\n        /* \"#utility.yul\":4741:4794   */\n      tag_189\n        /* \"#utility.yul\":4786:4793   */\n      dup7\n        /* \"#utility.yul\":4777:4783   */\n      dup3\n        /* \"#utility.yul\":4766:4775   */\n      dup8\n        /* \"#utility.yul\":4762:4784   */\n      add\n        /* \"#utility.yul\":4741:4794   */\n      tag_117\n      jump\t// in\n    tag_189:\n        /* \"#utility.yul\":4731:4794   */\n      swap3\n      pop\n        /* \"#utility.yul\":4686:4804   */\n      pop\n        /* \"#utility.yul\":4843:4845   */\n      0x40\n        /* \"#utility.yul\":4869:4922   */\n      tag_190\n        /* \"#utility.yul\":4914:4921   */\n      dup7\n        /* \"#utility.yul\":4905:4911   */\n      dup3\n        /* \"#utility.yul\":4894:4903   */\n      dup8\n        /* \"#utility.yul\":4890:4912   */\n      add\n        /* \"#utility.yul\":4869:4922   */\n      tag_111\n      jump\t// in\n    tag_190:\n        /* \"#utility.yul\":4859:4922   */\n      swap2\n      pop\n        /* \"#utility.yul\":4814:4932   */\n      pop\n        /* \"#utility.yul\":4320:4939   */\n      swap3\n      pop\n      swap3\n      pop\n      swap3\n      jump\t// out\n        /* \"#utility.yul\":4945:5419   */\n    tag_42:\n        /* \"#utility.yul\":5013:5019   */\n      0x00\n        /* \"#utility.yul\":5021:5027   */\n      dup1\n        /* \"#utility.yul\":5070:5072   */\n      0x40\n        /* \"#utility.yul\":5058:5067   */\n      dup4\n        /* \"#utility.yul\":5049:5056   */\n      dup6\n        /* \"#utility.yul\":5045:5068   */\n      sub\n        /* \"#utility.yul\":5041:5073   */\n      slt\n        /* \"#utility.yul\":5038:5157   */\n      iszero\n      tag_192\n      jumpi\n        /* \"#utility.yul\":5076:5155   */\n      tag_193\n      tag_106\n      jump\t// in\n    tag_193:\n        /* \"#utility.yul\":5038:5157   */\n    tag_192:\n        /* \"#utility.yul\":5196:5197   */\n      0x00\n        /* \"#utility.yul\":5221:5274   */\n      tag_194\n        /* \"#utility.yul\":5266:5273   */\n      dup6\n        /* \"#utility.yul\":5257:5263   */\n      dup3\n        /* \"#utility.yul\":5246:5255   */\n      dup7\n        /* \"#utility.yul\":5242:5264   */\n      add\n        /* \"#utility.yul\":5221:5274   */\n      tag_111\n      jump\t// in\n    tag_194:\n        /* \"#utility.yul\":5211:5274   */\n      swap3\n      pop\n        /* \"#utility.yul\":5167:5284   */\n      pop\n        /* \"#utility.yul\":5323:5325   */\n      0x20\n        /* \"#utility.yul\":5349:5402   */\n      tag_195\n        /* \"#utility.yul\":5394:5401   */\n      dup6\n        /* \"#utility.yul\":5385:5391   */\n      dup3\n        /* \"#utility.yul\":5374:5383   */\n      dup7\n        /* \"#utility.yul\":5370:5392   */\n      add\n        /* \"#utility.yul\":5349:5402   */\n      tag_117\n      jump\t// in\n    tag_195:\n        /* \"#utility.yul\":5339:5402   */\n      swap2\n      pop\n        /* \"#utility.yul\":5294:5412   */\n      pop\n        /* \"#utility.yul\":4945:5419   */\n      swap3\n      pop\n      swap3\n      swap1\n      pop\n      jump\t// out\n        /* \"#utility.yul\":5425:6044   */\n    tag_46:\n        /* \"#utility.yul\":5502:5508   */\n      0x00\n        /* \"#utility.yul\":5510:5516   */\n      dup1\n        /* \"#utility.yul\":5518:5524   */\n      0x00\n        /* \"#utility.yul\":5567:5569   */\n      0x60\n        /* \"#utility.yul\":5555:5564   */\n      dup5\n        /* \"#utility.yul\":5546:5553   */\n      dup7\n        /* \"#utility.yul\":5542:5565   */\n      sub\n        /* \"#utility.yul\":5538:5570   */\n      slt\n        /* \"#utility.yul\":5535:5654   */\n      iszero\n      tag_197\n      jumpi\n        /* \"#utility.yul\":5573:5652   */\n      tag_198\n      tag_106\n      jump\t// in\n    tag_198:\n        /* \"#utility.yul\":5535:5654   */\n    tag_197:\n        /* \"#utility.yul\":5693:5694   */\n      0x00\n        /* \"#utility.yul\":5718:5771   */\n      tag_199\n        /* \"#utility.yul\":5763:5770   */\n      dup7\n        /* \"#utility.yul\":5754:5760   */\n      dup3\n        /* \"#utility.yul\":5743:5752   */\n      dup8\n        /* \"#utility.yul\":5739:5761   */\n      add\n        /* \"#utility.yul\":5718:5771   */\n      tag_111\n      jump\t// in\n    tag_199:\n        /* \"#utility.yul\":5708:5771   */\n      swap4\n      pop\n        /* \"#utility.yul\":5664:5781   */\n      pop\n        /* \"#utility.yul\":5820:5822   */\n      0x20\n        /* \"#utility.yul\":5846:5899   */\n      tag_200\n        /* \"#utility.yul\":5891:5898   */\n      dup7\n        /* \"#utility.yul\":5882:5888   */\n      dup3\n        /* \"#utility.yul\":5871:5880   */\n      dup8\n        /* \"#utility.yul\":5867:5889   */\n      add\n        /* \"#utility.yul\":5846:5899   */\n      tag_117\n      jump\t// in\n    tag_200:\n        /* \"#utility.yul\":5836:5899   */\n      swap3\n      pop\n        /* \"#utility.yul\":5791:5909   */\n      pop\n        /* \"#utility.yul\":5948:5950   */\n      0x40\n        /* \"#utility.yul\":5974:6027   */\n      tag_201\n        /* \"#utility.yul\":6019:6026   */\n      dup7\n        /* \"#utility.yul\":6010:6016   */\n      dup3\n        /* \"#utility.yul\":5999:6008   */\n      dup8\n        /* \"#utility.yul\":5995:6017   */\n      add\n        /* \"#utility.yul\":5974:6027   */\n      tag_117\n      jump\t// in\n    tag_201:\n        /* \"#utility.yul\":5964:6027   */\n      swap2\n      pop\n        /* \"#utility.yul\":5919:6037   */\n      pop\n        /* \"#utility.yul\":5425:6044   */\n      swap3\n      pop\n      swap3\n      pop\n      swap3\n      jump\t// out\n        /* \"#utility.yul\":6050:6219   */\n    tag_120:\n        /* \"#utility.yul\":6134:6145   */\n      0x00\n        /* \"#utility.yul\":6168:6174   */\n      dup3\n        /* \"#utility.yul\":6163:6166   */\n      dup3\n        /* \"#utility.yul\":6156:6175   */\n      mstore\n        /* \"#utility.yul\":6208:6212   */\n      0x20\n        /* \"#utility.yul\":6203:6206   */\n      dup3\n        /* \"#utility.yul\":6199:6213   */\n      add\n        /* \"#utility.yul\":6184:6213   */\n      swap1\n      pop\n        /* \"#utility.yul\":6050:6219   */\n      swap3\n      swap2\n      pop\n      pop\n      jump\t// out\n        /* \"#utility.yul\":6225:6396   */\n    tag_121:\n        /* \"#utility.yul\":6365:6388   */\n      0x62616c616e6365206973206e6f7420656e6f7567680000000000000000000000\n        /* \"#utility.yul\":6361:6362   */\n      0x00\n        /* \"#utility.yul\":6353:6359   */\n      dup3\n        /* \"#utility.yul\":6349:6363   */\n      add\n        /* \"#utility.yul\":6342:6389   */\n      mstore\n        /* \"#utility.yul\":6225:6396   */\n      pop\n      jump\t// out\n        /* \"#utility.yul\":6402:6768   */\n    tag_122:\n        /* \"#utility.yul\":6544:6547   */\n      0x00\n        /* \"#utility.yul\":6565:6632   */\n      tag_205\n        /* \"#utility.yul\":6629:6631   */\n      0x15\n        /* \"#utility.yul\":6624:6627   */\n      dup4\n        /* \"#utility.yul\":6565:6632   */\n      tag_120\n      jump\t// in\n    tag_205:\n        /* \"#utility.yul\":6558:6632   */\n      swap2\n      pop\n        /* \"#utility.yul\":6641:6734   */\n      tag_206\n        /* \"#utility.yul\":6730:6733   */\n      dup3\n        /* \"#utility.yul\":6641:6734   */\n      tag_121\n      jump\t// in\n    tag_206:\n        /* \"#utility.yul\":6759:6761   */\n      0x20\n        /* \"#utility.yul\":6754:6757   */\n      dup3\n        /* \"#utility.yul\":6750:6762   */\n      add\n        /* \"#utility.yul\":6743:6762   */\n      swap1\n      pop\n        /* \"#utility.yul\":6402:6768   */\n      swap2\n      swap1\n      pop\n      jump\t// out\n        /* \"#utility.yul\":6774:7193   */\n    tag_51:\n        /* \"#utility.yul\":6940:6944   */\n      0x00\n        /* \"#utility.yul\":6978:6980   */\n      0x20\n        /* \"#utility.yul\":6967:6976   */\n      dup3\n        /* \"#utility.yul\":6963:6981   */\n      add\n        /* \"#utility.yul\":6955:6981   */\n      swap1\n      pop\n        /* \"#utility.yul\":7027:7036   */\n      dup2\n        /* \"#utility.yul\":7021:7025   */\n      dup2\n        /* \"#utility.yul\":7017:7037   */\n      sub\n        /* \"#utility.yul\":7013:7014   */\n      0x00\n        /* \"#utility.yul\":7002:7011   */\n      dup4\n        /* \"#utility.yul\":6998:7015   */\n      add\n        /* \"#utility.yul\":6991:7038   */\n      mstore\n        /* \"#utility.yul\":7055:7186   */\n      tag_208\n        /* \"#utility.yul\":7181:7185   */\n      dup2\n        /* \"#utility.yul\":7055:7186   */\n      tag_122\n      jump\t// in\n    tag_208:\n        /* \"#utility.yul\":7047:7186   */\n      swap1\n      pop\n        /* \"#utility.yul\":6774:7193   */\n      swap2\n      swap1\n      pop\n      jump\t// out\n        /* \"#utility.yul\":7199:7423   */\n    tag_123:\n        /* \"#utility.yul\":7339:7373   */\n      0x796f7520617265206e6f7420746865206f776e6572206f662074686973206163\n        /* \"#utility.yul\":7335:7336   */\n      0x00\n        /* \"#utility.yul\":7327:7333   */\n      dup3\n        /* \"#utility.yul\":7323:7337   */\n      add\n        /* \"#utility.yul\":7316:7374   */\n      mstore\n        /* \"#utility.yul\":7408:7415   */\n      0x636f756e74000000000000000000000000000000000000000000000000000000\n        /* \"#utility.yul\":7403:7405   */\n      0x20\n        /* \"#utility.yul\":7395:7401   */\n      dup3\n        /* \"#utility.yul\":7391:7406   */\n      add\n        /* \"#utility.yul\":7384:7416   */\n      mstore\n        /* \"#utility.yul\":7199:7423   */\n      pop\n      jump\t// out\n        /* \"#utility.yul\":7429:7795   */\n    tag_124:\n        /* \"#utility.yul\":7571:7574   */\n      0x00\n        /* \"#utility.yul\":7592:7659   */\n      tag_211\n        /* \"#utility.yul\":7656:7658   */\n      0x25\n        /* \"#utility.yul\":7651:7654   */\n      dup4\n        /* \"#utility.yul\":7592:7659   */\n      tag_120\n      jump\t// in\n    tag_211:\n        /* \"#utility.yul\":7585:7659   */\n      swap2\n      pop\n        /* \"#utility.yul\":7668:7761   */\n      tag_212\n        /* \"#utility.yul\":7757:7760   */\n      dup3\n        /* \"#utility.yul\":7668:7761   */\n      tag_123\n      jump\t// in\n    tag_212:\n        /* \"#utility.yul\":7786:7788   */\n      0x40\n        /* \"#utility.yul\":7781:7784   */\n      dup3\n        /* \"#utility.yul\":7777:7789   */\n      add\n        /* \"#utility.yul\":7770:7789   */\n      swap1\n      pop\n        /* \"#utility.yul\":7429:7795   */\n      swap2\n      swap1\n      pop\n      jump\t// out\n        /* \"#utility.yul\":7801:8220   */\n    tag_54:\n        /* \"#utility.yul\":7967:7971   */\n      0x00\n        /* \"#utility.yul\":8005:8007   */\n      0x20\n        /* \"#utility.yul\":7994:8003   */\n      dup3\n        /* \"#utility.yul\":7990:8008   */\n      add\n        /* \"#utility.yul\":7982:8008   */\n      swap1\n      pop\n        /* \"#utility.yul\":8054:8063   */\n      dup2\n        /* \"#utility.yul\":8048:8052   */\n      dup2\n        /* \"#utility.yul\":8044:8064   */\n      sub\n        /* \"#utility.yul\":8040:8041   */\n      0x00\n        /* \"#utility.yul\":8029:8038   */\n      dup4\n        /* \"#utility.yul\":8025:8042   */\n      add\n        /* \"#utility.yul\":8018:8065   */\n      mstore\n        /* \"#utility.yul\":8082:8213   */\n      tag_214\n        /* \"#utility.yul\":8208:8212   */\n      dup2\n        /* \"#utility.yul\":8082:8213   */\n      tag_124\n      jump\t// in\n    tag_214:\n        /* \"#utility.yul\":8074:8213   */\n      swap1\n      pop\n        /* \"#utility.yul\":7801:8220   */\n      swap2\n      swap1\n      pop\n      jump\t// out\n        /* \"#utility.yul\":8226:8447   */\n    tag_125:\n        /* \"#utility.yul\":8366:8400   */\n      0x616d6f756e742073686f756c642062652067726561746572207468616e207a65\n        /* \"#utility.yul\":8362:8363   */\n      0x00\n        /* \"#utility.yul\":8354:8360   */\n      dup3\n        /* \"#utility.yul\":8350:8364   */\n      add\n        /* \"#utility.yul\":8343:8401   */\n      mstore\n        /* \"#utility.yul\":8435:8439   */\n      0x726f000000000000000000000000000000000000000000000000000000000000\n        /* \"#utility.yul\":8430:8432   */\n      0x20\n        /* \"#utility.yul\":8422:8428   */\n      dup3\n        /* \"#utility.yul\":8418:8433   */\n      add\n        /* \"#utility.yul\":8411:8440   */\n      mstore\n        /* \"#utility.yul\":8226:8447   */\n      pop\n      jump\t// out\n        /* \"#utility.yul\":8453:8819   */\n    tag_126:\n        /* \"#utility.yul\":8595:8598   */\n      0x00\n        /* \"#utility.yul\":8616:8683   */\n      tag_217\n        /* \"#utility.yul\":8680:8682   */\n      0x22\n        /* \"#utility.yul\":8675:8678   */\n      dup4\n        /* \"#utility.yul\":8616:8683   */\n      tag_120\n      jump\t// in\n    tag_217:\n        /* \"#utility.yul\":8609:8683   */\n      swap2\n      pop\n        /* \"#utility.yul\":8692:8785   */\n      tag_218\n        /* \"#utility.yul\":8781:8784   */\n      dup3\n        /* \"#utility.yul\":8692:8785   */\n      tag_125\n      jump\t// in\n    tag_218:\n        /* \"#utility.yul\":8810:8812   */\n      0x40\n        /* \"#utility.yul\":8805:8808   */\n      dup3\n        /* \"#utility.yul\":8801:8813   */\n      add\n        /* \"#utility.yul\":8794:8813   */\n      swap1\n      pop\n        /* \"#utility.yul\":8453:8819   */\n      swap2\n      swap1\n      pop\n      jump\t// out\n        /* \"#utility.yul\":8825:9244   */\n    tag_63:\n        /* \"#utility.yul\":8991:8995   */\n      0x00\n        /* \"#utility.yul\":9029:9031   */\n      0x20\n        /* \"#utility.yul\":9018:9027   */\n      dup3\n        /* \"#utility.yul\":9014:9032   */\n      add\n        /* \"#utility.yul\":9006:9032   */\n      swap1\n      pop\n        /* \"#utility.yul\":9078:9087   */\n      dup2\n        /* \"#utility.yul\":9072:9076   */\n      dup2\n        /* \"#utility.yul\":9068:9088   */\n      sub\n        /* \"#utility.yul\":9064:9065   */\n      0x00\n        /* \"#utility.yul\":9053:9062   */\n      dup4\n        /* \"#utility.yul\":9049:9066   */\n      add\n        /* \"#utility.yul\":9042:9089   */\n      mstore\n        /* \"#utility.yul\":9106:9237   */\n      tag_220\n        /* \"#utility.yul\":9232:9236   */\n      dup2\n        /* \"#utility.yul\":9106:9237   */\n      tag_126\n      jump\t// in\n    tag_220:\n        /* \"#utility.yul\":9098:9237   */\n      swap1\n      pop\n        /* \"#utility.yul\":8825:9244   */\n      swap2\n      swap1\n      pop\n      jump\t// out\n        /* \"#utility.yul\":9250:9430   */\n    tag_127:\n        /* \"#utility.yul\":9298:9375   */\n      0x4e487b7100000000000000000000000000000000000000000000000000000000\n        /* \"#utility.yul\":9295:9296   */\n      0x00\n        /* \"#utility.yul\":9288:9376   */\n      mstore\n        /* \"#utility.yul\":9395:9399   */\n      0x11\n        /* \"#utility.yul\":9392:9393   */\n      0x04\n        /* \"#utility.yul\":9385:9400   */\n      mstore\n        /* \"#utility.yul\":9419:9423   */\n      0x24\n        /* \"#utility.yul\":9416:9417   */\n      0x00\n        /* \"#utility.yul\":9409:9424   */\n      revert\n        /* \"#utility.yul\":9436:9630   */\n    tag_67:\n        /* \"#utility.yul\":9476:9480   */\n      0x00\n        /* \"#utility.yul\":9496:9516   */\n      tag_223\n        /* \"#utility.yul\":9514:9515   */\n      dup3\n        /* \"#utility.yul\":9496:9516   */\n      tag_112\n      jump\t// in\n    tag_223:\n        /* \"#utility.yul\":9491:9516   */\n      swap2\n      pop\n        /* \"#utility.yul\":9530:9550   */\n      tag_224\n        /* \"#utility.yul\":9548:9549   */\n      dup4\n        /* \"#utility.yul\":9530:9550   */\n      tag_112\n      jump\t// in\n    tag_224:\n        /* \"#utility.yul\":9525:9550   */\n      swap3\n      pop\n        /* \"#utility.yul\":9574:9575   */\n      dup3\n        /* \"#utility.yul\":9571:9572   */\n      dup3\n        /* \"#utility.yul\":9567:9576   */\n      sub\n        /* \"#utility.yul\":9559:9576   */\n      swap1\n      pop\n        /* \"#utility.yul\":9598:9599   */\n      dup2\n        /* \"#utility.yul\":9592:9596   */\n      dup2\n        /* \"#utility.yul\":9589:9600   */\n      gt\n        /* \"#utility.yul\":9586:9623   */\n      iszero\n      tag_225\n      jumpi\n        /* \"#utility.yul\":9603:9621   */\n      tag_226\n      tag_127\n      jump\t// in\n    tag_226:\n        /* \"#utility.yul\":9586:9623   */\n    tag_225:\n        /* \"#utility.yul\":9436:9630   */\n      swap3\n      swap2\n      pop\n      pop\n      jump\t// out\n        /* \"#utility.yul\":9636:9809   */\n    tag_128:\n        /* \"#utility.yul\":9776:9801   */\n      0x796f7520617265206e6f7420746865206d616e61676572000000000000000000\n        /* \"#utility.yul\":9772:9773   */\n      0x00\n        /* \"#utility.yul\":9764:9770   */\n      dup3\n        /* \"#utility.yul\":9760:9774   */\n      add\n        /* \"#utility.yul\":9753:9802   */\n      mstore\n        /* \"#utility.yul\":9636:9809   */\n      pop\n      jump\t// out\n        /* \"#utility.yul\":9815:10181   */\n    tag_129:\n        /* \"#utility.yul\":9957:9960   */\n      0x00\n        /* \"#utility.yul\":9978:10045   */\n      tag_229\n        /* \"#utility.yul\":10042:10044   */\n      0x17\n        /* \"#utility.yul\":10037:10040   */\n      dup4\n        /* \"#utility.yul\":9978:10045   */\n      tag_120\n      jump\t// in\n    tag_229:\n        /* \"#utility.yul\":9971:10045   */\n      swap2\n      pop\n        /* \"#utility.yul\":10054:10147   */\n      tag_230\n        /* \"#utility.yul\":10143:10146   */\n      dup3\n        /* \"#utility.yul\":10054:10147   */\n      tag_128\n      jump\t// in\n    tag_230:\n        /* \"#utility.yul\":10172:10174   */\n      0x20\n        /* \"#utility.yul\":10167:10170   */\n      dup3\n        /* \"#utility.yul\":10163:10175   */\n      add\n        /* \"#utility.yul\":10156:10175   */\n      swap1\n      pop\n        /* \"#utility.yul\":9815:10181   */\n      swap2\n      swap1\n      pop\n      jump\t// out\n        /* \"#utility.yul\":10187:10606   */\n    tag_71:\n        /* \"#utility.yul\":10353:10357   */\n      0x00\n        /* \"#utility.yul\":10391:10393   */\n      0x20\n        /* \"#utility.yul\":10380:10389   */\n      dup3\n        /* \"#utility.yul\":10376:10394   */\n      add\n        /* \"#utility.yul\":10368:10394   */\n      swap1\n      pop\n        /* \"#utility.yul\":10440:10449   */\n      dup2\n        /* \"#utility.yul\":10434:10438   */\n      dup2\n        /* \"#utility.yul\":10430:10450   */\n      sub\n        /* \"#utility.yul\":10426:10427   */\n      0x00\n        /* \"#utility.yul\":10415:10424   */\n      dup4\n        /* \"#utility.yul\":10411:10428   */\n      add\n        /* \"#utility.yul\":10404:10451   */\n      mstore\n        /* \"#utility.yul\":10468:10599   */\n      tag_232\n        /* \"#utility.yul\":10594:10598   */\n      dup2\n        /* \"#utility.yul\":10468:10599   */\n      tag_129\n      jump\t// in\n    tag_232:\n        /* \"#utility.yul\":10460:10599   */\n      swap1\n      pop\n        /* \"#utility.yul\":10187:10606   */\n      swap2\n      swap1\n      pop\n      jump\t// out\n        /* \"#utility.yul\":10612:10788   */\n    tag_130:\n        /* \"#utility.yul\":10752:10780   */\n      0x63616e6e6f74206465706f736974207a65726f20616d6f756e74000000000000\n        /* \"#utility.yul\":10748:10749   */\n      0x00\n        /* \"#utility.yul\":10740:10746   */\n      dup3\n        /* \"#utility.yul\":10736:10750   */\n      add\n        /* \"#utility.yul\":10729:10781   */\n      mstore\n        /* \"#utility.yul\":10612:10788   */\n      pop\n      jump\t// out\n        /* \"#utility.yul\":10794:11160   */\n    tag_131:\n        /* \"#utility.yul\":10936:10939   */\n      0x00\n        /* \"#utility.yul\":10957:11024   */\n      tag_235\n        /* \"#utility.yul\":11021:11023   */\n      0x1a\n        /* \"#utility.yul\":11016:11019   */\n      dup4\n        /* \"#utility.yul\":10957:11024   */\n      tag_120\n      jump\t// in\n    tag_235:\n        /* \"#utility.yul\":10950:11024   */\n      swap2\n      pop\n        /* \"#utility.yul\":11033:11126   */\n      tag_236\n        /* \"#utility.yul\":11122:11125   */\n      dup3\n        /* \"#utility.yul\":11033:11126   */\n      tag_130\n      jump\t// in\n    tag_236:\n        /* \"#utility.yul\":11151:11153   */\n      0x20\n        /* \"#utility.yul\":11146:11149   */\n      dup3\n        /* \"#utility.yul\":11142:11154   */\n      add\n        /* \"#utility.yul\":11135:11154   */\n      swap1\n      pop\n        /* \"#utility.yul\":10794:11160   */\n      swap2\n      swap1\n      pop\n      jump\t// out\n        /* \"#utility.yul\":11166:11585   */\n    tag_74:\n        /* \"#utility.yul\":11332:11336   */\n      0x00\n        /* \"#utility.yul\":11370:11372   */\n      0x20\n        /* \"#utility.yul\":11359:11368   */\n      dup3\n        /* \"#utility.yul\":11355:11373   */\n      add\n        /* \"#utility.yul\":11347:11373   */\n      swap1\n      pop\n        /* \"#utility.yul\":11419:11428   */\n      dup2\n        /* \"#utility.yul\":11413:11417   */\n      dup2\n        /* \"#utility.yul\":11409:11429   */\n      sub\n        /* \"#utility.yul\":11405:11406   */\n      0x00\n        /* \"#utility.yul\":11394:11403   */\n      dup4\n        /* \"#utility.yul\":11390:11407   */\n      add\n        /* \"#utility.yul\":11383:11430   */\n      mstore\n        /* \"#utility.yul\":11447:11578   */\n      tag_238\n        /* \"#utility.yul\":11573:11577   */\n      dup2\n        /* \"#utility.yul\":11447:11578   */\n      tag_131\n      jump\t// in\n    tag_238:\n        /* \"#utility.yul\":11439:11578   */\n      swap1\n      pop\n        /* \"#utility.yul\":11166:11585   */\n      swap2\n      swap1\n      pop\n      jump\t// out\n        /* \"#utility.yul\":11591:11782   */\n    tag_76:\n        /* \"#utility.yul\":11631:11634   */\n      0x00\n        /* \"#utility.yul\":11650:11670   */\n      tag_240\n        /* \"#utility.yul\":11668:11669   */\n      dup3\n        /* \"#utility.yul\":11650:11670   */\n      tag_112\n      jump\t// in\n    tag_240:\n        /* \"#utility.yul\":11645:11670   */\n      swap2\n      pop\n        /* \"#utility.yul\":11684:11704   */\n      tag_241\n        /* \"#utility.yul\":11702:11703   */\n      dup4\n        /* \"#utility.yul\":11684:11704   */\n      tag_112\n      jump\t// in\n    tag_241:\n        /* \"#utility.yul\":11679:11704   */\n      swap3\n      pop\n        /* \"#utility.yul\":11727:11728   */\n      dup3\n        /* \"#utility.yul\":11724:11725   */\n      dup3\n        /* \"#utility.yul\":11720:11729   */\n      add\n        /* \"#utility.yul\":11713:11729   */\n      swap1\n      pop\n        /* \"#utility.yul\":11748:11751   */\n      dup1\n        /* \"#utility.yul\":11745:11746   */\n      dup3\n        /* \"#utility.yul\":11742:11752   */\n      gt\n        /* \"#utility.yul\":11739:11775   */\n      iszero\n      tag_242\n      jumpi\n        /* \"#utility.yul\":11755:11773   */\n      tag_243\n      tag_127\n      jump\t// in\n    tag_243:\n        /* \"#utility.yul\":11739:11775   */\n    tag_242:\n        /* \"#utility.yul\":11591:11782   */\n      swap3\n      swap2\n      pop\n      pop\n      jump\t// out\n        /* \"#utility.yul\":11788:11966   */\n    tag_132:\n        /* \"#utility.yul\":11928:11958   */\n      0x796f7520646f6e74206861766520656e6f7567682062616c616e636500000000\n        /* \"#utility.yul\":11924:11925   */\n      0x00\n        /* \"#utility.yul\":11916:11922   */\n      dup3\n        /* \"#utility.yul\":11912:11926   */\n      add\n        /* \"#utility.yul\":11905:11959   */\n      mstore\n        /* \"#utility.yul\":11788:11966   */\n      pop\n      jump\t// out\n        /* \"#utility.yul\":11972:12338   */\n    tag_133:\n        /* \"#utility.yul\":12114:12117   */\n      0x00\n        /* \"#utility.yul\":12135:12202   */\n      tag_246\n        /* \"#utility.yul\":12199:12201   */\n      0x1c\n        /* \"#utility.yul\":12194:12197   */\n      dup4\n        /* \"#utility.yul\":12135:12202   */\n      tag_120\n      jump\t// in\n    tag_246:\n        /* \"#utility.yul\":12128:12202   */\n      swap2\n      pop\n        /* \"#utility.yul\":12211:12304   */\n      tag_247\n        /* \"#utility.yul\":12300:12303   */\n      dup3\n        /* \"#utility.yul\":12211:12304   */\n      tag_132\n      jump\t// in\n    tag_247:\n        /* \"#utility.yul\":12329:12331   */\n      0x20\n        /* \"#utility.yul\":12324:12327   */\n      dup3\n        /* \"#utility.yul\":12320:12332   */\n      add\n        /* \"#utility.yul\":12313:12332   */\n      swap1\n      pop\n        /* \"#utility.yul\":11972:12338   */\n      swap2\n      swap1\n      pop\n      jump\t// out\n        /* \"#utility.yul\":12344:12763   */\n    tag_87:\n        /* \"#utility.yul\":12510:12514   */\n      0x00\n        /* \"#utility.yul\":12548:12550   */\n      0x20\n        /* \"#utility.yul\":12537:12546   */\n      dup3\n        /* \"#utility.yul\":12533:12551   */\n      add\n        /* \"#utility.yul\":12525:12551   */\n      swap1\n      pop\n        /* \"#utility.yul\":12597:12606   */\n      dup2\n        /* \"#utility.yul\":12591:12595   */\n      dup2\n        /* \"#utility.yul\":12587:12607   */\n      sub\n        /* \"#utility.yul\":12583:12584   */\n      0x00\n        /* \"#utility.yul\":12572:12581   */\n      dup4\n        /* \"#utility.yul\":12568:12585   */\n      add\n        /* \"#utility.yul\":12561:12608   */\n      mstore\n        /* \"#utility.yul\":12625:12756   */\n      tag_249\n        /* \"#utility.yul\":12751:12755   */\n      dup2\n        /* \"#utility.yul\":12625:12756   */\n      tag_133\n      jump\t// in\n    tag_249:\n        /* \"#utility.yul\":12617:12756   */\n      swap1\n      pop\n        /* \"#utility.yul\":12344:12763   */\n      swap2\n      swap1\n      pop\n      jump\t// out\n        /* \"#utility.yul\":12769:12993   */\n    tag_134:\n        /* \"#utility.yul\":12909:12943   */\n      0x74696d652073686f756c642062652067726561746572207468616e2074696d65\n        /* \"#utility.yul\":12905:12906   */\n      0x00\n        /* \"#utility.yul\":12897:12903   */\n      dup3\n        /* \"#utility.yul\":12893:12907   */\n      add\n        /* \"#utility.yul\":12886:12944   */\n      mstore\n        /* \"#utility.yul\":12978:12985   */\n      0x7374616d70000000000000000000000000000000000000000000000000000000\n        /* \"#utility.yul\":12973:12975   */\n      0x20\n        /* \"#utility.yul\":12965:12971   */\n      dup3\n        /* \"#utility.yul\":12961:12976   */\n      add\n        /* \"#utility.yul\":12954:12986   */\n      mstore\n        /* \"#utility.yul\":12769:12993   */\n      pop\n      jump\t// out\n        /* \"#utility.yul\":12999:13365   */\n    tag_135:\n        /* \"#utility.yul\":13141:13144   */\n      0x00\n        /* \"#utility.yul\":13162:13229   */\n      tag_252\n        /* \"#utility.yul\":13226:13228   */\n      0x25\n        /* \"#utility.yul\":13221:13224   */\n      dup4\n        /* \"#utility.yul\":13162:13229   */\n      tag_120\n      jump\t// in\n    tag_252:\n        /* \"#utility.yul\":13155:13229   */\n      swap2\n      pop\n        /* \"#utility.yul\":13238:13331   */\n      tag_253\n        /* \"#utility.yul\":13327:13330   */\n      dup3\n        /* \"#utility.yul\":13238:13331   */\n      tag_134\n      jump\t// in\n    tag_253:\n        /* \"#utility.yul\":13356:13358   */\n      0x40\n        /* \"#utility.yul\":13351:13354   */\n      dup3\n        /* \"#utility.yul\":13347:13359   */\n      add\n        /* \"#utility.yul\":13340:13359   */\n      swap1\n      pop\n        /* \"#utility.yul\":12999:13365   */\n      swap2\n      swap1\n      pop\n      jump\t// out\n        /* \"#utility.yul\":13371:13790   */\n    tag_99:\n        /* \"#utility.yul\":13537:13541   */\n      0x00\n        /* \"#utility.yul\":13575:13577   */\n      0x20\n        /* \"#utility.yul\":13564:13573   */\n      dup3\n        /* \"#utility.yul\":13560:13578   */\n      add\n        /* \"#utility.yul\":13552:13578   */\n      swap1\n      pop\n        /* \"#utility.yul\":13624:13633   */\n      dup2\n        /* \"#utility.yul\":13618:13622   */\n      dup2\n        /* \"#utility.yul\":13614:13634   */\n      sub\n        /* \"#utility.yul\":13610:13611   */\n      0x00\n        /* \"#utility.yul\":13599:13608   */\n      dup4\n        /* \"#utility.yul\":13595:13612   */\n      add\n        /* \"#utility.yul\":13588:13635   */\n      mstore\n        /* \"#utility.yul\":13652:13783   */\n      tag_255\n        /* \"#utility.yul\":13778:13782   */\n      dup2\n        /* \"#utility.yul\":13652:13783   */\n      tag_135\n      jump\t// in\n    tag_255:\n        /* \"#utility.yul\":13644:13783   */\n      swap1\n      pop\n        /* \"#utility.yul\":13371:13790   */\n      swap2\n      swap1\n      pop\n      jump\t// out\n\n    auxdata: 0xa2646970667358221220ed0110046c8ee22bea2e3cf5164daf5d8563a254aa52191cb8d79091d2629ff664736f6c63430008120033\n}\n",
				"bytecode": {
					"linkReferences": {},
					"object": "608060405234801561001057600080fd5b50336000806101000a81548173ffffffffffffffffffffffffffffffffffffffff021916908373ffffffffffffffffffffffffffffffffffffffff160217905550611610806100606000396000f3fe60806040526004361061007b5760003560e01c80636e553f651161004e5780636e553f651461012f578063949eaae71461014b578063a9059cbb14610174578063c4b5a990146101905761007b565b80630ae5e739146100805780631b9e16ad146100a95780632e1a7d4d146100d45780635e5c06e2146100f0575b600080fd5b34801561008c57600080fd5b506100a760048036038101906100a29190610f46565b6101ac565b005b3480156100b557600080fd5b506100be610385565b6040516100cb9190610fdd565b60405180910390f35b6100ee60048036038101906100e99190611024565b610446565b005b3480156100fc57600080fd5b5061011760048036038101906101129190610f46565b61063a565b6040516101269392919061106f565b60405180910390f35b610149600480360381019061014491906110a6565b610684565b005b34801561015757600080fd5b50610172600480360381019061016d91906110e6565b6107b2565b005b61018e60048036038101906101899190611139565b610913565b005b6101aa60048036038101906101a59190611179565b610b61565b005b6000600160003373ffffffffffffffffffffffffffffffffffffffff1673ffffffffffffffffffffffffffffffffffffffff1681526020019081526020016000206001015403610231576040517f08c379a000000000000000000000000000000000000000000000000000000000815260040161022890611229565b60405180910390fd5b600160003373ffffffffffffffffffffffffffffffffffffffff1673ffffffffffffffffffffffffffffffffffffffff16815260200190815260200160002060020160009054906101000a900473ffffffffffffffffffffffffffffffffffffffff1673ffffffffffffffffffffffffffffffffffffffff163373ffffffffffffffffffffffffffffffffffffffff1614610301576040517f08c379a00000000000000000000000000000000000000000000000000000000081526004016102f8906112bb565b60405180910390fd5b80600160003373ffffffffffffffffffffffffffffffffffffffff1673ffffffffffffffffffffffffffffffffffffffff16815260200190815260200160002060020160006101000a81548173ffffffffffffffffffffffffffffffffffffffff021916908373ffffffffffffffffffffffffffffffffffffffff16021790555050565b61038d610eac565b600160003373ffffffffffffffffffffffffffffffffffffffff1673ffffffffffffffffffffffffffffffffffffffff16815260200190815260200160002060405180606001604052908160008201548152602001600182015481526020016002820160009054906101000a900473ffffffffffffffffffffffffffffffffffffffff1673ffffffffffffffffffffffffffffffffffffffff1673ffffffffffffffffffffffffffffffffffffffff1681525050905090565b600160003373ffffffffffffffffffffffffffffffffffffffff1673ffffffffffffffffffffffffffffffffffffffff16815260200190815260200160002060020160009054906101000a900473ffffffffffffffffffffffffffffffffffffffff1673ffffffffffffffffffffffffffffffffffffffff163373ffffffffffffffffffffffffffffffffffffffff1614610516576040517f08c379a000000000000000000000000000000000000000000000000000000000815260040161050d906112bb565b60405180910390fd5b60008111610559576040517f08c379a00000000000000000000000000000000000000000000000000000000081526004016105509061134d565b60405180910390fd5b600160003373ffffffffffffffffffffffffffffffffffffffff1673ffffffffffffffffffffffffffffffffffffffff168152602001908152602001600020600101548111156105de576040517f08c379a00000000000000000000000000000000000000000000000000000000081526004016105d590611229565b60405180910390fd5b80600160003373ffffffffffffffffffffffffffffffffffffffff1673ffffffffffffffffffffffffffffffffffffffff1681526020019081526020016000206001016000828254610630919061139c565b9250508190555050565b60016020528060005260406000206000915090508060000154908060010154908060020160009054906101000a900473ffffffffffffffffffffffffffffffffffffffff16905083565b60008054906101000a900473ffffffffffffffffffffffffffffffffffffffff1673ffffffffffffffffffffffffffffffffffffffff163373ffffffffffffffffffffffffffffffffffffffff1614610712576040517f08c379a00000000000000000000000000000000000000000000000000000000081526004016107099061141c565b60405180910390fd5b60008211610755576040517f08c379a000000000000000000000000000000000000000000000000000000000815260040161074c90611488565b60405180910390fd5b81600160008373ffffffffffffffffffffffffffffffffffffffff1673ffffffffffffffffffffffffffffffffffffffff16815260200190815260200160002060010160008282546107a791906114a8565b925050819055505050565b60008054906101000a900473ffffffffffffffffffffffffffffffffffffffff1673ffffffffffffffffffffffffffffffffffffffff163373ffffffffffffffffffffffffffffffffffffffff1614610840576040517f08c379a00000000000000000000000000000000000000000000000000000000081526004016108379061141c565b60405180910390fd5b60405180606001604052808481526020018381526020018273ffffffffffffffffffffffffffffffffffffffff16815250600160008373ffffffffffffffffffffffffffffffffffffffff1673ffffffffffffffffffffffffffffffffffffffff168152602001908152602001600020600082015181600001556020820151816001015560408201518160020160006101000a81548173ffffffffffffffffffffffffffffffffffffffff021916908373ffffffffffffffffffffffffffffffffffffffff160217905550905050505050565b60008111610956576040517f08c379a000000000000000000000000000000000000000000000000000000000815260040161094d9061134d565b60405180910390fd5b600160003373ffffffffffffffffffffffffffffffffffffffff1673ffffffffffffffffffffffffffffffffffffffff16815260200190815260200160002060020160009054906101000a900473ffffffffffffffffffffffffffffffffffffffff1673ffffffffffffffffffffffffffffffffffffffff163373ffffffffffffffffffffffffffffffffffffffff1614610a26576040517f08c379a0000000000000000000000000000000000000000000000000000000008152600401610a1d906112bb565b60405180910390fd5b600160003373ffffffffffffffffffffffffffffffffffffffff1673ffffffffffffffffffffffffffffffffffffffff16815260200190815260200160002060010154811115610aab576040517f08c379a0000000000000000000000000000000000000000000000000000000008152600401610aa290611528565b60405180910390fd5b80600160008473ffffffffffffffffffffffffffffffffffffffff1673ffffffffffffffffffffffffffffffffffffffff1681526020019081526020016000206001016000828254610afd91906114a8565b9250508190555080600160003373ffffffffffffffffffffffffffffffffffffffff1673ffffffffffffffffffffffffffffffffffffffff1681526020019081526020016000206001016000828254610b56919061139c565b925050819055505050565b600160003373ffffffffffffffffffffffffffffffffffffffff1673ffffffffffffffffffffffffffffffffffffffff16815260200190815260200160002060020160009054906101000a900473ffffffffffffffffffffffffffffffffffffffff1673ffffffffffffffffffffffffffffffffffffffff163373ffffffffffffffffffffffffffffffffffffffff1614610c31576040517f08c379a0000000000000000000000000000000000000000000000000000000008152600401610c28906112bb565b60405180910390fd5b600160003373ffffffffffffffffffffffffffffffffffffffff1673ffffffffffffffffffffffffffffffffffffffff16815260200190815260200160002060010154821115610cb6576040517f08c379a0000000000000000000000000000000000000000000000000000000008152600401610cad90611229565b60405180910390fd5b60008211610cf9576040517f08c379a0000000000000000000000000000000000000000000000000000000008152600401610cf09061134d565b60405180910390fd5b428111610d3b576040517f08c379a0000000000000000000000000000000000000000000000000000000008152600401610d32906115ba565b60405180910390fd5b81600160008573ffffffffffffffffffffffffffffffffffffffff1673ffffffffffffffffffffffffffffffffffffffff1681526020019081526020016000206001016000828254610d8d91906114a8565b9250508190555081600160003373ffffffffffffffffffffffffffffffffffffffff1673ffffffffffffffffffffffffffffffffffffffff1681526020019081526020016000206001016000828254610de6919061139c565b92505081905550428111610ea75781600160008573ffffffffffffffffffffffffffffffffffffffff1673ffffffffffffffffffffffffffffffffffffffff1681526020019081526020016000206001016000828254610e46919061139c565b9250508190555081600160003373ffffffffffffffffffffffffffffffffffffffff1673ffffffffffffffffffffffffffffffffffffffff1681526020019081526020016000206001016000828254610e9f91906114a8565b925050819055505b505050565b60405180606001604052806000815260200160008152602001600073ffffffffffffffffffffffffffffffffffffffff1681525090565b600080fd5b600073ffffffffffffffffffffffffffffffffffffffff82169050919050565b6000610f1382610ee8565b9050919050565b610f2381610f08565b8114610f2e57600080fd5b50565b600081359050610f4081610f1a565b92915050565b600060208284031215610f5c57610f5b610ee3565b5b6000610f6a84828501610f31565b91505092915050565b6000819050919050565b610f8681610f73565b82525050565b610f9581610f08565b82525050565b606082016000820151610fb16000850182610f7d565b506020820151610fc46020850182610f7d565b506040820151610fd76040850182610f8c565b50505050565b6000606082019050610ff26000830184610f9b565b92915050565b61100181610f73565b811461100c57600080fd5b50565b60008135905061101e81610ff8565b92915050565b60006020828403121561103a57611039610ee3565b5b60006110488482850161100f565b91505092915050565b61105a81610f73565b82525050565b61106981610f08565b82525050565b60006060820190506110846000830186611051565b6110916020830185611051565b61109e6040830184611060565b949350505050565b600080604083850312156110bd576110bc610ee3565b5b60006110cb8582860161100f565b92505060206110dc85828601610f31565b9150509250929050565b6000806000606084860312156110ff576110fe610ee3565b5b600061110d8682870161100f565b935050602061111e8682870161100f565b925050604061112f86828701610f31565b9150509250925092565b600080604083850312156111505761114f610ee3565b5b600061115e85828601610f31565b925050602061116f8582860161100f565b9150509250929050565b60008060006060848603121561119257611191610ee3565b5b60006111a086828701610f31565b93505060206111b18682870161100f565b92505060406111c28682870161100f565b9150509250925092565b600082825260208201905092915050565b7f62616c616e6365206973206e6f7420656e6f7567680000000000000000000000600082015250565b60006112136015836111cc565b915061121e826111dd565b602082019050919050565b6000602082019050818103600083015261124281611206565b9050919050565b7f796f7520617265206e6f7420746865206f776e6572206f66207468697320616360008201527f636f756e74000000000000000000000000000000000000000000000000000000602082015250565b60006112a56025836111cc565b91506112b082611249565b604082019050919050565b600060208201905081810360008301526112d481611298565b9050919050565b7f616d6f756e742073686f756c642062652067726561746572207468616e207a6560008201527f726f000000000000000000000000000000000000000000000000000000000000602082015250565b60006113376022836111cc565b9150611342826112db565b604082019050919050565b600060208201905081810360008301526113668161132a565b9050919050565b7f4e487b7100000000000000000000000000000000000000000000000000000000600052601160045260246000fd5b60006113a782610f73565b91506113b283610f73565b92508282039050818111156113ca576113c961136d565b5b92915050565b7f796f7520617265206e6f7420746865206d616e61676572000000000000000000600082015250565b60006114066017836111cc565b9150611411826113d0565b602082019050919050565b60006020820190508181036000830152611435816113f9565b9050919050565b7f63616e6e6f74206465706f736974207a65726f20616d6f756e74000000000000600082015250565b6000611472601a836111cc565b915061147d8261143c565b602082019050919050565b600060208201905081810360008301526114a181611465565b9050919050565b60006114b382610f73565b91506114be83610f73565b92508282019050808211156114d6576114d561136d565b5b92915050565b7f796f7520646f6e74206861766520656e6f7567682062616c616e636500000000600082015250565b6000611512601c836111cc565b915061151d826114dc565b602082019050919050565b6000602082019050818103600083015261154181611505565b9050919050565b7f74696d652073686f756c642062652067726561746572207468616e2074696d6560008201527f7374616d70000000000000000000000000000000000000000000000000000000602082015250565b60006115a46025836111cc565b91506115af82611548565b604082019050919050565b600060208201905081810360008301526115d381611597565b905091905056fea2646970667358221220ed0110046c8ee22bea2e3cf5164daf5d8563a254aa52191cb8d79091d2629ff664736f6c63430008120033",
					"opcodes": "PUSH1 0x80 PUSH1 0x40 MSTORE CALLVALUE DUP1 ISZERO PUSH2 0x10 JUMPI PUSH1 0x0 DUP1 REVERT JUMPDEST POP CALLER PUSH1 0x0 DUP1 PUSH2 0x100 EXP DUP2 SLOAD DUP2 PUSH20 0xFFFFFFFFFFFFFFFFFFFFFFFFFFFFFFFFFFFFFFFF MUL NOT AND SWAP1 DUP4 PUSH20 0xFFFFFFFFFFFFFFFFFFFFFFFFFFFFFFFFFFFFFFFF AND MUL OR SWAP1 SSTORE POP PUSH2 0x1610 DUP1 PUSH2 0x60 PUSH1 0x0 CODECOPY PUSH1 0x0 RETURN INVALID PUSH1 0x80 PUSH1 0x40 MSTORE PUSH1 0x4 CALLDATASIZE LT PUSH2 0x7B JUMPI PUSH1 0x0 CALLDATALOAD PUSH1 0xE0 SHR DUP1 PUSH4 0x6E553F65 GT PUSH2 0x4E JUMPI DUP1 PUSH4 0x6E553F65 EQ PUSH2 0x12F JUMPI DUP1 PUSH4 0x949EAAE7 EQ PUSH2 0x14B JUMPI DUP1 PUSH4 0xA9059CBB EQ PUSH2 0x174 JUMPI DUP1 PUSH4 0xC4B5A990 EQ PUSH2 0x190 JUMPI PUSH2 0x7B JUMP JUMPDEST DUP1 PUSH4 0xAE5E739 EQ PUSH2 0x80 JUMPI DUP1 PUSH4 0x1B9E16AD EQ PUSH2 0xA9 JUMPI DUP1 PUSH4 0x2E1A7D4D EQ PUSH2 0xD4 JUMPI DUP1 PUSH4 0x5E5C06E2 EQ PUSH2 0xF0 JUMPI JUMPDEST PUSH1 0x0 DUP1 REVERT JUMPDEST CALLVALUE DUP1 ISZERO PUSH2 0x8C JUMPI PUSH1 0x0 DUP1 REVERT JUMPDEST POP PUSH2 0xA7 PUSH1 0x4 DUP1 CALLDATASIZE SUB DUP2 ADD SWAP1 PUSH2 0xA2 SWAP2 SWAP1 PUSH2 0xF46 JUMP JUMPDEST PUSH2 0x1AC JUMP JUMPDEST STOP JUMPDEST CALLVALUE DUP1 ISZERO PUSH2 0xB5 JUMPI PUSH1 0x0 DUP1 REVERT JUMPDEST POP PUSH2 0xBE PUSH2 0x385 JUMP JUMPDEST PUSH1 0x40 MLOAD PUSH2 0xCB SWAP2 SWAP1 PUSH2 0xFDD JUMP JUMPDEST PUSH1 0x40 MLOAD DUP1 SWAP2 SUB SWAP1 RETURN JUMPDEST PUSH2 0xEE PUSH1 0x4 DUP1 CALLDATASIZE SUB DUP2 ADD SWAP1 PUSH2 0xE9 SWAP2 SWAP1 PUSH2 0x1024 JUMP JUMPDEST PUSH2 0x446 JUMP JUMPDEST STOP JUMPDEST CALLVALUE DUP1 ISZERO PUSH2 0xFC JUMPI PUSH1 0x0 DUP1 REVERT JUMPDEST POP PUSH2 0x117 PUSH1 0x4 DUP1 CALLDATASIZE SUB DUP2 ADD SWAP1 PUSH2 0x112 SWAP2 SWAP1 PUSH2 0xF46 JUMP JUMPDEST PUSH2 0x63A JUMP JUMPDEST PUSH1 0x40 MLOAD PUSH2 0x126 SWAP4 SWAP3 SWAP2 SWAP1 PUSH2 0x106F JUMP JUMPDEST PUSH1 0x40 MLOAD DUP1 SWAP2 SUB SWAP1 RETURN JUMPDEST PUSH2 0x149 PUSH1 0x4 DUP1 CALLDATASIZE SUB DUP2 ADD SWAP1 PUSH2 0x144 SWAP2 SWAP1 PUSH2 0x10A6 JUMP JUMPDEST PUSH2 0x684 JUMP JUMPDEST STOP JUMPDEST CALLVALUE DUP1 ISZERO PUSH2 0x157 JUMPI PUSH1 0x0 DUP1 REVERT JUMPDEST POP PUSH2 0x172 PUSH1 0x4 DUP1 CALLDATASIZE SUB DUP2 ADD SWAP1 PUSH2 0x16D SWAP2 SWAP1 PUSH2 0x10E6 JUMP JUMPDEST PUSH2 0x7B2 JUMP JUMPDEST STOP JUMPDEST PUSH2 0x18E PUSH1 0x4 DUP1 CALLDATASIZE SUB DUP2 ADD SWAP1 PUSH2 0x189 SWAP2 SWAP1 PUSH2 0x1139 JUMP JUMPDEST PUSH2 0x913 JUMP JUMPDEST STOP JUMPDEST PUSH2 0x1AA PUSH1 0x4 DUP1 CALLDATASIZE SUB DUP2 ADD SWAP1 PUSH2 0x1A5 SWAP2 SWAP1 PUSH2 0x1179 JUMP JUMPDEST PUSH2 0xB61 JUMP JUMPDEST STOP JUMPDEST PUSH1 0x0 PUSH1 0x1 PUSH1 0x0 CALLER PUSH20 0xFFFFFFFFFFFFFFFFFFFFFFFFFFFFFFFFFFFFFFFF AND PUSH20 0xFFFFFFFFFFFFFFFFFFFFFFFFFFFFFFFFFFFFFFFF AND DUP2 MSTORE PUSH1 0x20 ADD SWAP1 DUP2 MSTORE PUSH1 0x20 ADD PUSH1 0x0 KECCAK256 PUSH1 0x1 ADD SLOAD SUB PUSH2 0x231 JUMPI PUSH1 0x40 MLOAD PUSH32 0x8C379A000000000000000000000000000000000000000000000000000000000 DUP2 MSTORE PUSH1 0x4 ADD PUSH2 0x228 SWAP1 PUSH2 0x1229 JUMP JUMPDEST PUSH1 0x40 MLOAD DUP1 SWAP2 SUB SWAP1 REVERT JUMPDEST PUSH1 0x1 PUSH1 0x0 CALLER PUSH20 0xFFFFFFFFFFFFFFFFFFFFFFFFFFFFFFFFFFFFFFFF AND PUSH20 0xFFFFFFFFFFFFFFFFFFFFFFFFFFFFFFFFFFFFFFFF AND DUP2 MSTORE PUSH1 0x20 ADD SWAP1 DUP2 MSTORE PUSH1 0x20 ADD PUSH1 0x0 KECCAK256 PUSH1 0x2 ADD PUSH1 0x0 SWAP1 SLOAD SWAP1 PUSH2 0x100 EXP SWAP1 DIV PUSH20 0xFFFFFFFFFFFFFFFFFFFFFFFFFFFFFFFFFFFFFFFF AND PUSH20 0xFFFFFFFFFFFFFFFFFFFFFFFFFFFFFFFFFFFFFFFF AND CALLER PUSH20 0xFFFFFFFFFFFFFFFFFFFFFFFFFFFFFFFFFFFFFFFF AND EQ PUSH2 0x301 JUMPI PUSH1 0x40 MLOAD PUSH32 0x8C379A000000000000000000000000000000000000000000000000000000000 DUP2 MSTORE PUSH1 0x4 ADD PUSH2 0x2F8 SWAP1 PUSH2 0x12BB JUMP JUMPDEST PUSH1 0x40 MLOAD DUP1 SWAP2 SUB SWAP1 REVERT JUMPDEST DUP1 PUSH1 0x1 PUSH1 0x0 CALLER PUSH20 0xFFFFFFFFFFFFFFFFFFFFFFFFFFFFFFFFFFFFFFFF AND PUSH20 0xFFFFFFFFFFFFFFFFFFFFFFFFFFFFFFFFFFFFFFFF AND DUP2 MSTORE PUSH1 0x20 ADD SWAP1 DUP2 MSTORE PUSH1 0x20 ADD PUSH1 0x0 KECCAK256 PUSH1 0x2 ADD PUSH1 0x0 PUSH2 0x100 EXP DUP2 SLOAD DUP2 PUSH20 0xFFFFFFFFFFFFFFFFFFFFFFFFFFFFFFFFFFFFFFFF MUL NOT AND SWAP1 DUP4 PUSH20 0xFFFFFFFFFFFFFFFFFFFFFFFFFFFFFFFFFFFFFFFF AND MUL OR SWAP1 SSTORE POP POP JUMP JUMPDEST PUSH2 0x38D PUSH2 0xEAC JUMP JUMPDEST PUSH1 0x1 PUSH1 0x0 CALLER PUSH20 0xFFFFFFFFFFFFFFFFFFFFFFFFFFFFFFFFFFFFFFFF AND PUSH20 0xFFFFFFFFFFFFFFFFFFFFFFFFFFFFFFFFFFFFFFFF AND DUP2 MSTORE PUSH1 0x20 ADD SWAP1 DUP2 MSTORE PUSH1 0x20 ADD PUSH1 0x0 KECCAK256 PUSH1 0x40 MLOAD DUP1 PUSH1 0x60 ADD PUSH1 0x40 MSTORE SWAP1 DUP2 PUSH1 0x0 DUP3 ADD SLOAD DUP2 MSTORE PUSH1 0x20 ADD PUSH1 0x1 DUP3 ADD SLOAD DUP2 MSTORE PUSH1 0x20 ADD PUSH1 0x2 DUP3 ADD PUSH1 0x0 SWAP1 SLOAD SWAP1 PUSH2 0x100 EXP SWAP1 DIV PUSH20 0xFFFFFFFFFFFFFFFFFFFFFFFFFFFFFFFFFFFFFFFF AND PUSH20 0xFFFFFFFFFFFFFFFFFFFFFFFFFFFFFFFFFFFFFFFF AND PUSH20 0xFFFFFFFFFFFFFFFFFFFFFFFFFFFFFFFFFFFFFFFF AND DUP2 MSTORE POP POP SWAP1 POP SWAP1 JUMP JUMPDEST PUSH1 0x1 PUSH1 0x0 CALLER PUSH20 0xFFFFFFFFFFFFFFFFFFFFFFFFFFFFFFFFFFFFFFFF AND PUSH20 0xFFFFFFFFFFFFFFFFFFFFFFFFFFFFFFFFFFFFFFFF AND DUP2 MSTORE PUSH1 0x20 ADD SWAP1 DUP2 MSTORE PUSH1 0x20 ADD PUSH1 0x0 KECCAK256 PUSH1 0x2 ADD PUSH1 0x0 SWAP1 SLOAD SWAP1 PUSH2 0x100 EXP SWAP1 DIV PUSH20 0xFFFFFFFFFFFFFFFFFFFFFFFFFFFFFFFFFFFFFFFF AND PUSH20 0xFFFFFFFFFFFFFFFFFFFFFFFFFFFFFFFFFFFFFFFF AND CALLER PUSH20 0xFFFFFFFFFFFFFFFFFFFFFFFFFFFFFFFFFFFFFFFF AND EQ PUSH2 0x516 JUMPI PUSH1 0x40 MLOAD PUSH32 0x8C379A000000000000000000000000000000000000000000000000000000000 DUP2 MSTORE PUSH1 0x4 ADD PUSH2 0x50D SWAP1 PUSH2 0x12BB JUMP JUMPDEST PUSH1 0x40 MLOAD DUP1 SWAP2 SUB SWAP1 REVERT JUMPDEST PUSH1 0x0 DUP2 GT PUSH2 0x559 JUMPI PUSH1 0x40 MLOAD PUSH32 0x8C379A000000000000000000000000000000000000000000000000000000000 DUP2 MSTORE PUSH1 0x4 ADD PUSH2 0x550 SWAP1 PUSH2 0x134D JUMP JUMPDEST PUSH1 0x40 MLOAD DUP1 SWAP2 SUB SWAP1 REVERT JUMPDEST PUSH1 0x1 PUSH1 0x0 CALLER PUSH20 0xFFFFFFFFFFFFFFFFFFFFFFFFFFFFFFFFFFFFFFFF AND PUSH20 0xFFFFFFFFFFFFFFFFFFFFFFFFFFFFFFFFFFFFFFFF AND DUP2 MSTORE PUSH1 0x20 ADD SWAP1 DUP2 MSTORE PUSH1 0x20 ADD PUSH1 0x0 KECCAK256 PUSH1 0x1 ADD SLOAD DUP2 GT ISZERO PUSH2 0x5DE JUMPI PUSH1 0x40 MLOAD PUSH32 0x8C379A000000000000000000000000000000000000000000000000000000000 DUP2 MSTORE PUSH1 0x4 ADD PUSH2 0x5D5 SWAP1 PUSH2 0x1229 JUMP JUMPDEST PUSH1 0x40 MLOAD DUP1 SWAP2 SUB SWAP1 REVERT JUMPDEST DUP1 PUSH1 0x1 PUSH1 0x0 CALLER PUSH20 0xFFFFFFFFFFFFFFFFFFFFFFFFFFFFFFFFFFFFFFFF AND PUSH20 0xFFFFFFFFFFFFFFFFFFFFFFFFFFFFFFFFFFFFFFFF AND DUP2 MSTORE PUSH1 0x20 ADD SWAP1 DUP2 MSTORE PUSH1 0x20 ADD PUSH1 0x0 KECCAK256 PUSH1 0x1 ADD PUSH1 0x0 DUP3 DUP3 SLOAD PUSH2 0x630 SWAP2 SWAP1 PUSH2 0x139C JUMP JUMPDEST SWAP3 POP POP DUP2 SWAP1 SSTORE POP POP JUMP JUMPDEST PUSH1 0x1 PUSH1 0x20 MSTORE DUP1 PUSH1 0x0 MSTORE PUSH1 0x40 PUSH1 0x0 KECCAK256 PUSH1 0x0 SWAP2 POP SWAP1 POP DUP1 PUSH1 0x0 ADD SLOAD SWAP1 DUP1 PUSH1 0x1 ADD SLOAD SWAP1 DUP1 PUSH1 0x2 ADD PUSH1 0x0 SWAP1 SLOAD SWAP1 PUSH2 0x100 EXP SWAP1 DIV PUSH20 0xFFFFFFFFFFFFFFFFFFFFFFFFFFFFFFFFFFFFFFFF AND SWAP1 POP DUP4 JUMP JUMPDEST PUSH1 0x0 DUP1 SLOAD SWAP1 PUSH2 0x100 EXP SWAP1 DIV PUSH20 0xFFFFFFFFFFFFFFFFFFFFFFFFFFFFFFFFFFFFFFFF AND PUSH20 0xFFFFFFFFFFFFFFFFFFFFFFFFFFFFFFFFFFFFFFFF AND CALLER PUSH20 0xFFFFFFFFFFFFFFFFFFFFFFFFFFFFFFFFFFFFFFFF AND EQ PUSH2 0x712 JUMPI PUSH1 0x40 MLOAD PUSH32 0x8C379A000000000000000000000000000000000000000000000000000000000 DUP2 MSTORE PUSH1 0x4 ADD PUSH2 0x709 SWAP1 PUSH2 0x141C JUMP JUMPDEST PUSH1 0x40 MLOAD DUP1 SWAP2 SUB SWAP1 REVERT JUMPDEST PUSH1 0x0 DUP3 GT PUSH2 0x755 JUMPI PUSH1 0x40 MLOAD PUSH32 0x8C379A000000000000000000000000000000000000000000000000000000000 DUP2 MSTORE PUSH1 0x4 ADD PUSH2 0x74C SWAP1 PUSH2 0x1488 JUMP JUMPDEST PUSH1 0x40 MLOAD DUP1 SWAP2 SUB SWAP1 REVERT JUMPDEST DUP2 PUSH1 0x1 PUSH1 0x0 DUP4 PUSH20 0xFFFFFFFFFFFFFFFFFFFFFFFFFFFFFFFFFFFFFFFF AND PUSH20 0xFFFFFFFFFFFFFFFFFFFFFFFFFFFFFFFFFFFFFFFF AND DUP2 MSTORE PUSH1 0x20 ADD SWAP1 DUP2 MSTORE PUSH1 0x20 ADD PUSH1 0x0 KECCAK256 PUSH1 0x1 ADD PUSH1 0x0 DUP3 DUP3 SLOAD PUSH2 0x7A7 SWAP2 SWAP1 PUSH2 0x14A8 JUMP JUMPDEST SWAP3 POP POP DUP2 SWAP1 SSTORE POP POP POP JUMP JUMPDEST PUSH1 0x0 DUP1 SLOAD SWAP1 PUSH2 0x100 EXP SWAP1 DIV PUSH20 0xFFFFFFFFFFFFFFFFFFFFFFFFFFFFFFFFFFFFFFFF AND PUSH20 0xFFFFFFFFFFFFFFFFFFFFFFFFFFFFFFFFFFFFFFFF AND CALLER PUSH20 0xFFFFFFFFFFFFFFFFFFFFFFFFFFFFFFFFFFFFFFFF AND EQ PUSH2 0x840 JUMPI PUSH1 0x40 MLOAD PUSH32 0x8C379A000000000000000000000000000000000000000000000000000000000 DUP2 MSTORE PUSH1 0x4 ADD PUSH2 0x837 SWAP1 PUSH2 0x141C JUMP JUMPDEST PUSH1 0x40 MLOAD DUP1 SWAP2 SUB SWAP1 REVERT JUMPDEST PUSH1 0x40 MLOAD DUP1 PUSH1 0x60 ADD PUSH1 0x40 MSTORE DUP1 DUP5 DUP2 MSTORE PUSH1 0x20 ADD DUP4 DUP2 MSTORE PUSH1 0x20 ADD DUP3 PUSH20 0xFFFFFFFFFFFFFFFFFFFFFFFFFFFFFFFFFFFFFFFF AND DUP2 MSTORE POP PUSH1 0x1 PUSH1 0x0 DUP4 PUSH20 0xFFFFFFFFFFFFFFFFFFFFFFFFFFFFFFFFFFFFFFFF AND PUSH20 0xFFFFFFFFFFFFFFFFFFFFFFFFFFFFFFFFFFFFFFFF AND DUP2 MSTORE PUSH1 0x20 ADD SWAP1 DUP2 MSTORE PUSH1 0x20 ADD PUSH1 0x0 KECCAK256 PUSH1 0x0 DUP3 ADD MLOAD DUP2 PUSH1 0x0 ADD SSTORE PUSH1 0x20 DUP3 ADD MLOAD DUP2 PUSH1 0x1 ADD SSTORE PUSH1 0x40 DUP3 ADD MLOAD DUP2 PUSH1 0x2 ADD PUSH1 0x0 PUSH2 0x100 EXP DUP2 SLOAD DUP2 PUSH20 0xFFFFFFFFFFFFFFFFFFFFFFFFFFFFFFFFFFFFFFFF MUL NOT AND SWAP1 DUP4 PUSH20 0xFFFFFFFFFFFFFFFFFFFFFFFFFFFFFFFFFFFFFFFF AND MUL OR SWAP1 SSTORE POP SWAP1 POP POP POP POP POP JUMP JUMPDEST PUSH1 0x0 DUP2 GT PUSH2 0x956 JUMPI PUSH1 0x40 MLOAD PUSH32 0x8C379A000000000000000000000000000000000000000000000000000000000 DUP2 MSTORE PUSH1 0x4 ADD PUSH2 0x94D SWAP1 PUSH2 0x134D JUMP JUMPDEST PUSH1 0x40 MLOAD DUP1 SWAP2 SUB SWAP1 REVERT JUMPDEST PUSH1 0x1 PUSH1 0x0 CALLER PUSH20 0xFFFFFFFFFFFFFFFFFFFFFFFFFFFFFFFFFFFFFFFF AND PUSH20 0xFFFFFFFFFFFFFFFFFFFFFFFFFFFFFFFFFFFFFFFF AND DUP2 MSTORE PUSH1 0x20 ADD SWAP1 DUP2 MSTORE PUSH1 0x20 ADD PUSH1 0x0 KECCAK256 PUSH1 0x2 ADD PUSH1 0x0 SWAP1 SLOAD SWAP1 PUSH2 0x100 EXP SWAP1 DIV PUSH20 0xFFFFFFFFFFFFFFFFFFFFFFFFFFFFFFFFFFFFFFFF AND PUSH20 0xFFFFFFFFFFFFFFFFFFFFFFFFFFFFFFFFFFFFFFFF AND CALLER PUSH20 0xFFFFFFFFFFFFFFFFFFFFFFFFFFFFFFFFFFFFFFFF AND EQ PUSH2 0xA26 JUMPI PUSH1 0x40 MLOAD PUSH32 0x8C379A000000000000000000000000000000000000000000000000000000000 DUP2 MSTORE PUSH1 0x4 ADD PUSH2 0xA1D SWAP1 PUSH2 0x12BB JUMP JUMPDEST PUSH1 0x40 MLOAD DUP1 SWAP2 SUB SWAP1 REVERT JUMPDEST PUSH1 0x1 PUSH1 0x0 CALLER PUSH20 0xFFFFFFFFFFFFFFFFFFFFFFFFFFFFFFFFFFFFFFFF AND PUSH20 0xFFFFFFFFFFFFFFFFFFFFFFFFFFFFFFFFFFFFFFFF AND DUP2 MSTORE PUSH1 0x20 ADD SWAP1 DUP2 MSTORE PUSH1 0x20 ADD PUSH1 0x0 KECCAK256 PUSH1 0x1 ADD SLOAD DUP2 GT ISZERO PUSH2 0xAAB JUMPI PUSH1 0x40 MLOAD PUSH32 0x8C379A000000000000000000000000000000000000000000000000000000000 DUP2 MSTORE PUSH1 0x4 ADD PUSH2 0xAA2 SWAP1 PUSH2 0x1528 JUMP JUMPDEST PUSH1 0x40 MLOAD DUP1 SWAP2 SUB SWAP1 REVERT JUMPDEST DUP1 PUSH1 0x1 PUSH1 0x0 DUP5 PUSH20 0xFFFFFFFFFFFFFFFFFFFFFFFFFFFFFFFFFFFFFFFF AND PUSH20 0xFFFFFFFFFFFFFFFFFFFFFFFFFFFFFFFFFFFFFFFF AND DUP2 MSTORE PUSH1 0x20 ADD SWAP1 DUP2 MSTORE PUSH1 0x20 ADD PUSH1 0x0 KECCAK256 PUSH1 0x1 ADD PUSH1 0x0 DUP3 DUP3 SLOAD PUSH2 0xAFD SWAP2 SWAP1 PUSH2 0x14A8 JUMP JUMPDEST SWAP3 POP POP DUP2 SWAP1 SSTORE POP DUP1 PUSH1 0x1 PUSH1 0x0 CALLER PUSH20 0xFFFFFFFFFFFFFFFFFFFFFFFFFFFFFFFFFFFFFFFF AND PUSH20 0xFFFFFFFFFFFFFFFFFFFFFFFFFFFFFFFFFFFFFFFF AND DUP2 MSTORE PUSH1 0x20 ADD SWAP1 DUP2 MSTORE PUSH1 0x20 ADD PUSH1 0x0 KECCAK256 PUSH1 0x1 ADD PUSH1 0x0 DUP3 DUP3 SLOAD PUSH2 0xB56 SWAP2 SWAP1 PUSH2 0x139C JUMP JUMPDEST SWAP3 POP POP DUP2 SWAP1 SSTORE POP POP POP JUMP JUMPDEST PUSH1 0x1 PUSH1 0x0 CALLER PUSH20 0xFFFFFFFFFFFFFFFFFFFFFFFFFFFFFFFFFFFFFFFF AND PUSH20 0xFFFFFFFFFFFFFFFFFFFFFFFFFFFFFFFFFFFFFFFF AND DUP2 MSTORE PUSH1 0x20 ADD SWAP1 DUP2 MSTORE PUSH1 0x20 ADD PUSH1 0x0 KECCAK256 PUSH1 0x2 ADD PUSH1 0x0 SWAP1 SLOAD SWAP1 PUSH2 0x100 EXP SWAP1 DIV PUSH20 0xFFFFFFFFFFFFFFFFFFFFFFFFFFFFFFFFFFFFFFFF AND PUSH20 0xFFFFFFFFFFFFFFFFFFFFFFFFFFFFFFFFFFFFFFFF AND CALLER PUSH20 0xFFFFFFFFFFFFFFFFFFFFFFFFFFFFFFFFFFFFFFFF AND EQ PUSH2 0xC31 JUMPI PUSH1 0x40 MLOAD PUSH32 0x8C379A000000000000000000000000000000000000000000000000000000000 DUP2 MSTORE PUSH1 0x4 ADD PUSH2 0xC28 SWAP1 PUSH2 0x12BB JUMP JUMPDEST PUSH1 0x40 MLOAD DUP1 SWAP2 SUB SWAP1 REVERT JUMPDEST PUSH1 0x1 PUSH1 0x0 CALLER PUSH20 0xFFFFFFFFFFFFFFFFFFFFFFFFFFFFFFFFFFFFFFFF AND PUSH20 0xFFFFFFFFFFFFFFFFFFFFFFFFFFFFFFFFFFFFFFFF AND DUP2 MSTORE PUSH1 0x20 ADD SWAP1 DUP2 MSTORE PUSH1 0x20 ADD PUSH1 0x0 KECCAK256 PUSH1 0x1 ADD SLOAD DUP3 GT ISZERO PUSH2 0xCB6 JUMPI PUSH1 0x40 MLOAD PUSH32 0x8C379A000000000000000000000000000000000000000000000000000000000 DUP2 MSTORE PUSH1 0x4 ADD PUSH2 0xCAD SWAP1 PUSH2 0x1229 JUMP JUMPDEST PUSH1 0x40 MLOAD DUP1 SWAP2 SUB SWAP1 REVERT JUMPDEST PUSH1 0x0 DUP3 GT PUSH2 0xCF9 JUMPI PUSH1 0x40 MLOAD PUSH32 0x8C379A000000000000000000000000000000000000000000000000000000000 DUP2 MSTORE PUSH1 0x4 ADD PUSH2 0xCF0 SWAP1 PUSH2 0x134D JUMP JUMPDEST PUSH1 0x40 MLOAD DUP1 SWAP2 SUB SWAP1 REVERT JUMPDEST TIMESTAMP DUP2 GT PUSH2 0xD3B JUMPI PUSH1 0x40 MLOAD PUSH32 0x8C379A000000000000000000000000000000000000000000000000000000000 DUP2 MSTORE PUSH1 0x4 ADD PUSH2 0xD32 SWAP1 PUSH2 0x15BA JUMP JUMPDEST PUSH1 0x40 MLOAD DUP1 SWAP2 SUB SWAP1 REVERT JUMPDEST DUP2 PUSH1 0x1 PUSH1 0x0 DUP6 PUSH20 0xFFFFFFFFFFFFFFFFFFFFFFFFFFFFFFFFFFFFFFFF AND PUSH20 0xFFFFFFFFFFFFFFFFFFFFFFFFFFFFFFFFFFFFFFFF AND DUP2 MSTORE PUSH1 0x20 ADD SWAP1 DUP2 MSTORE PUSH1 0x20 ADD PUSH1 0x0 KECCAK256 PUSH1 0x1 ADD PUSH1 0x0 DUP3 DUP3 SLOAD PUSH2 0xD8D SWAP2 SWAP1 PUSH2 0x14A8 JUMP JUMPDEST SWAP3 POP POP DUP2 SWAP1 SSTORE POP DUP2 PUSH1 0x1 PUSH1 0x0 CALLER PUSH20 0xFFFFFFFFFFFFFFFFFFFFFFFFFFFFFFFFFFFFFFFF AND PUSH20 0xFFFFFFFFFFFFFFFFFFFFFFFFFFFFFFFFFFFFFFFF AND DUP2 MSTORE PUSH1 0x20 ADD SWAP1 DUP2 MSTORE PUSH1 0x20 ADD PUSH1 0x0 KECCAK256 PUSH1 0x1 ADD PUSH1 0x0 DUP3 DUP3 SLOAD PUSH2 0xDE6 SWAP2 SWAP1 PUSH2 0x139C JUMP JUMPDEST SWAP3 POP POP DUP2 SWAP1 SSTORE POP TIMESTAMP DUP2 GT PUSH2 0xEA7 JUMPI DUP2 PUSH1 0x1 PUSH1 0x0 DUP6 PUSH20 0xFFFFFFFFFFFFFFFFFFFFFFFFFFFFFFFFFFFFFFFF AND PUSH20 0xFFFFFFFFFFFFFFFFFFFFFFFFFFFFFFFFFFFFFFFF AND DUP2 MSTORE PUSH1 0x20 ADD SWAP1 DUP2 MSTORE PUSH1 0x20 ADD PUSH1 0x0 KECCAK256 PUSH1 0x1 ADD PUSH1 0x0 DUP3 DUP3 SLOAD PUSH2 0xE46 SWAP2 SWAP1 PUSH2 0x139C JUMP JUMPDEST SWAP3 POP POP DUP2 SWAP1 SSTORE POP DUP2 PUSH1 0x1 PUSH1 0x0 CALLER PUSH20 0xFFFFFFFFFFFFFFFFFFFFFFFFFFFFFFFFFFFFFFFF AND PUSH20 0xFFFFFFFFFFFFFFFFFFFFFFFFFFFFFFFFFFFFFFFF AND DUP2 MSTORE PUSH1 0x20 ADD SWAP1 DUP2 MSTORE PUSH1 0x20 ADD PUSH1 0x0 KECCAK256 PUSH1 0x1 ADD PUSH1 0x0 DUP3 DUP3 SLOAD PUSH2 0xE9F SWAP2 SWAP1 PUSH2 0x14A8 JUMP JUMPDEST SWAP3 POP POP DUP2 SWAP1 SSTORE POP JUMPDEST POP POP POP JUMP JUMPDEST PUSH1 0x40 MLOAD DUP1 PUSH1 0x60 ADD PUSH1 0x40 MSTORE DUP1 PUSH1 0x0 DUP2 MSTORE PUSH1 0x20 ADD PUSH1 0x0 DUP2 MSTORE PUSH1 0x20 ADD PUSH1 0x0 PUSH20 0xFFFFFFFFFFFFFFFFFFFFFFFFFFFFFFFFFFFFFFFF AND DUP2 MSTORE POP SWAP1 JUMP JUMPDEST PUSH1 0x0 DUP1 REVERT JUMPDEST PUSH1 0x0 PUSH20 0xFFFFFFFFFFFFFFFFFFFFFFFFFFFFFFFFFFFFFFFF DUP3 AND SWAP1 POP SWAP2 SWAP1 POP JUMP JUMPDEST PUSH1 0x0 PUSH2 0xF13 DUP3 PUSH2 0xEE8 JUMP JUMPDEST SWAP1 POP SWAP2 SWAP1 POP JUMP JUMPDEST PUSH2 0xF23 DUP2 PUSH2 0xF08 JUMP JUMPDEST DUP2 EQ PUSH2 0xF2E JUMPI PUSH1 0x0 DUP1 REVERT JUMPDEST POP JUMP JUMPDEST PUSH1 0x0 DUP2 CALLDATALOAD SWAP1 POP PUSH2 0xF40 DUP2 PUSH2 0xF1A JUMP JUMPDEST SWAP3 SWAP2 POP POP JUMP JUMPDEST PUSH1 0x0 PUSH1 0x20 DUP3 DUP5 SUB SLT ISZERO PUSH2 0xF5C JUMPI PUSH2 0xF5B PUSH2 0xEE3 JUMP JUMPDEST JUMPDEST PUSH1 0x0 PUSH2 0xF6A DUP5 DUP3 DUP6 ADD PUSH2 0xF31 JUMP JUMPDEST SWAP2 POP POP SWAP3 SWAP2 POP POP JUMP JUMPDEST PUSH1 0x0 DUP2 SWAP1 POP SWAP2 SWAP1 POP JUMP JUMPDEST PUSH2 0xF86 DUP2 PUSH2 0xF73 JUMP JUMPDEST DUP3 MSTORE POP POP JUMP JUMPDEST PUSH2 0xF95 DUP2 PUSH2 0xF08 JUMP JUMPDEST DUP3 MSTORE POP POP JUMP JUMPDEST PUSH1 0x60 DUP3 ADD PUSH1 0x0 DUP3 ADD MLOAD PUSH2 0xFB1 PUSH1 0x0 DUP6 ADD DUP3 PUSH2 0xF7D JUMP JUMPDEST POP PUSH1 0x20 DUP3 ADD MLOAD PUSH2 0xFC4 PUSH1 0x20 DUP6 ADD DUP3 PUSH2 0xF7D JUMP JUMPDEST POP PUSH1 0x40 DUP3 ADD MLOAD PUSH2 0xFD7 PUSH1 0x40 DUP6 ADD DUP3 PUSH2 0xF8C JUMP JUMPDEST POP POP POP POP JUMP JUMPDEST PUSH1 0x0 PUSH1 0x60 DUP3 ADD SWAP1 POP PUSH2 0xFF2 PUSH1 0x0 DUP4 ADD DUP5 PUSH2 0xF9B JUMP JUMPDEST SWAP3 SWAP2 POP POP JUMP JUMPDEST PUSH2 0x1001 DUP2 PUSH2 0xF73 JUMP JUMPDEST DUP2 EQ PUSH2 0x100C JUMPI PUSH1 0x0 DUP1 REVERT JUMPDEST POP JUMP JUMPDEST PUSH1 0x0 DUP2 CALLDATALOAD SWAP1 POP PUSH2 0x101E DUP2 PUSH2 0xFF8 JUMP JUMPDEST SWAP3 SWAP2 POP POP JUMP JUMPDEST PUSH1 0x0 PUSH1 0x20 DUP3 DUP5 SUB SLT ISZERO PUSH2 0x103A JUMPI PUSH2 0x1039 PUSH2 0xEE3 JUMP JUMPDEST JUMPDEST PUSH1 0x0 PUSH2 0x1048 DUP5 DUP3 DUP6 ADD PUSH2 0x100F JUMP JUMPDEST SWAP2 POP POP SWAP3 SWAP2 POP POP JUMP JUMPDEST PUSH2 0x105A DUP2 PUSH2 0xF73 JUMP JUMPDEST DUP3 MSTORE POP POP JUMP JUMPDEST PUSH2 0x1069 DUP2 PUSH2 0xF08 JUMP JUMPDEST DUP3 MSTORE POP POP JUMP JUMPDEST PUSH1 0x0 PUSH1 0x60 DUP3 ADD SWAP1 POP PUSH2 0x1084 PUSH1 0x0 DUP4 ADD DUP7 PUSH2 0x1051 JUMP JUMPDEST PUSH2 0x1091 PUSH1 0x20 DUP4 ADD DUP6 PUSH2 0x1051 JUMP JUMPDEST PUSH2 0x109E PUSH1 0x40 DUP4 ADD DUP5 PUSH2 0x1060 JUMP JUMPDEST SWAP5 SWAP4 POP POP POP POP JUMP JUMPDEST PUSH1 0x0 DUP1 PUSH1 0x40 DUP4 DUP6 SUB SLT ISZERO PUSH2 0x10BD JUMPI PUSH2 0x10BC PUSH2 0xEE3 JUMP JUMPDEST JUMPDEST PUSH1 0x0 PUSH2 0x10CB DUP6 DUP3 DUP7 ADD PUSH2 0x100F JUMP JUMPDEST SWAP3 POP POP PUSH1 0x20 PUSH2 0x10DC DUP6 DUP3 DUP7 ADD PUSH2 0xF31 JUMP JUMPDEST SWAP2 POP POP SWAP3 POP SWAP3 SWAP1 POP JUMP JUMPDEST PUSH1 0x0 DUP1 PUSH1 0x0 PUSH1 0x60 DUP5 DUP7 SUB SLT ISZERO PUSH2 0x10FF JUMPI PUSH2 0x10FE PUSH2 0xEE3 JUMP JUMPDEST JUMPDEST PUSH1 0x0 PUSH2 0x110D DUP7 DUP3 DUP8 ADD PUSH2 0x100F JUMP JUMPDEST SWAP4 POP POP PUSH1 0x20 PUSH2 0x111E DUP7 DUP3 DUP8 ADD PUSH2 0x100F JUMP JUMPDEST SWAP3 POP POP PUSH1 0x40 PUSH2 0x112F DUP7 DUP3 DUP8 ADD PUSH2 0xF31 JUMP JUMPDEST SWAP2 POP POP SWAP3 POP SWAP3 POP SWAP3 JUMP JUMPDEST PUSH1 0x0 DUP1 PUSH1 0x40 DUP4 DUP6 SUB SLT ISZERO PUSH2 0x1150 JUMPI PUSH2 0x114F PUSH2 0xEE3 JUMP JUMPDEST JUMPDEST PUSH1 0x0 PUSH2 0x115E DUP6 DUP3 DUP7 ADD PUSH2 0xF31 JUMP JUMPDEST SWAP3 POP POP PUSH1 0x20 PUSH2 0x116F DUP6 DUP3 DUP7 ADD PUSH2 0x100F JUMP JUMPDEST SWAP2 POP POP SWAP3 POP SWAP3 SWAP1 POP JUMP JUMPDEST PUSH1 0x0 DUP1 PUSH1 0x0 PUSH1 0x60 DUP5 DUP7 SUB SLT ISZERO PUSH2 0x1192 JUMPI PUSH2 0x1191 PUSH2 0xEE3 JUMP JUMPDEST JUMPDEST PUSH1 0x0 PUSH2 0x11A0 DUP7 DUP3 DUP8 ADD PUSH2 0xF31 JUMP JUMPDEST SWAP4 POP POP PUSH1 0x20 PUSH2 0x11B1 DUP7 DUP3 DUP8 ADD PUSH2 0x100F JUMP JUMPDEST SWAP3 POP POP PUSH1 0x40 PUSH2 0x11C2 DUP7 DUP3 DUP8 ADD PUSH2 0x100F JUMP JUMPDEST SWAP2 POP POP SWAP3 POP SWAP3 POP SWAP3 JUMP JUMPDEST PUSH1 0x0 DUP3 DUP3 MSTORE PUSH1 0x20 DUP3 ADD SWAP1 POP SWAP3 SWAP2 POP POP JUMP JUMPDEST PUSH32 0x62616C616E6365206973206E6F7420656E6F7567680000000000000000000000 PUSH1 0x0 DUP3 ADD MSTORE POP JUMP JUMPDEST PUSH1 0x0 PUSH2 0x1213 PUSH1 0x15 DUP4 PUSH2 0x11CC JUMP JUMPDEST SWAP2 POP PUSH2 0x121E DUP3 PUSH2 0x11DD JUMP JUMPDEST PUSH1 0x20 DUP3 ADD SWAP1 POP SWAP2 SWAP1 POP JUMP JUMPDEST PUSH1 0x0 PUSH1 0x20 DUP3 ADD SWAP1 POP DUP2 DUP2 SUB PUSH1 0x0 DUP4 ADD MSTORE PUSH2 0x1242 DUP2 PUSH2 0x1206 JUMP JUMPDEST SWAP1 POP SWAP2 SWAP1 POP JUMP JUMPDEST PUSH32 0x796F7520617265206E6F7420746865206F776E6572206F662074686973206163 PUSH1 0x0 DUP3 ADD MSTORE PUSH32 0x636F756E74000000000000000000000000000000000000000000000000000000 PUSH1 0x20 DUP3 ADD MSTORE POP JUMP JUMPDEST PUSH1 0x0 PUSH2 0x12A5 PUSH1 0x25 DUP4 PUSH2 0x11CC JUMP JUMPDEST SWAP2 POP PUSH2 0x12B0 DUP3 PUSH2 0x1249 JUMP JUMPDEST PUSH1 0x40 DUP3 ADD SWAP1 POP SWAP2 SWAP1 POP JUMP JUMPDEST PUSH1 0x0 PUSH1 0x20 DUP3 ADD SWAP1 POP DUP2 DUP2 SUB PUSH1 0x0 DUP4 ADD MSTORE PUSH2 0x12D4 DUP2 PUSH2 0x1298 JUMP JUMPDEST SWAP1 POP SWAP2 SWAP1 POP JUMP JUMPDEST PUSH32 0x616D6F756E742073686F756C642062652067726561746572207468616E207A65 PUSH1 0x0 DUP3 ADD MSTORE PUSH32 0x726F000000000000000000000000000000000000000000000000000000000000 PUSH1 0x20 DUP3 ADD MSTORE POP JUMP JUMPDEST PUSH1 0x0 PUSH2 0x1337 PUSH1 0x22 DUP4 PUSH2 0x11CC JUMP JUMPDEST SWAP2 POP PUSH2 0x1342 DUP3 PUSH2 0x12DB JUMP JUMPDEST PUSH1 0x40 DUP3 ADD SWAP1 POP SWAP2 SWAP1 POP JUMP JUMPDEST PUSH1 0x0 PUSH1 0x20 DUP3 ADD SWAP1 POP DUP2 DUP2 SUB PUSH1 0x0 DUP4 ADD MSTORE PUSH2 0x1366 DUP2 PUSH2 0x132A JUMP JUMPDEST SWAP1 POP SWAP2 SWAP1 POP JUMP JUMPDEST PUSH32 0x4E487B7100000000000000000000000000000000000000000000000000000000 PUSH1 0x0 MSTORE PUSH1 0x11 PUSH1 0x4 MSTORE PUSH1 0x24 PUSH1 0x0 REVERT JUMPDEST PUSH1 0x0 PUSH2 0x13A7 DUP3 PUSH2 0xF73 JUMP JUMPDEST SWAP2 POP PUSH2 0x13B2 DUP4 PUSH2 0xF73 JUMP JUMPDEST SWAP3 POP DUP3 DUP3 SUB SWAP1 POP DUP2 DUP2 GT ISZERO PUSH2 0x13CA JUMPI PUSH2 0x13C9 PUSH2 0x136D JUMP JUMPDEST JUMPDEST SWAP3 SWAP2 POP POP JUMP JUMPDEST PUSH32 0x796F7520617265206E6F7420746865206D616E61676572000000000000000000 PUSH1 0x0 DUP3 ADD MSTORE POP JUMP JUMPDEST PUSH1 0x0 PUSH2 0x1406 PUSH1 0x17 DUP4 PUSH2 0x11CC JUMP JUMPDEST SWAP2 POP PUSH2 0x1411 DUP3 PUSH2 0x13D0 JUMP JUMPDEST PUSH1 0x20 DUP3 ADD SWAP1 POP SWAP2 SWAP1 POP JUMP JUMPDEST PUSH1 0x0 PUSH1 0x20 DUP3 ADD SWAP1 POP DUP2 DUP2 SUB PUSH1 0x0 DUP4 ADD MSTORE PUSH2 0x1435 DUP2 PUSH2 0x13F9 JUMP JUMPDEST SWAP1 POP SWAP2 SWAP1 POP JUMP JUMPDEST PUSH32 0x63616E6E6F74206465706F736974207A65726F20616D6F756E74000000000000 PUSH1 0x0 DUP3 ADD MSTORE POP JUMP JUMPDEST PUSH1 0x0 PUSH2 0x1472 PUSH1 0x1A DUP4 PUSH2 0x11CC JUMP JUMPDEST SWAP2 POP PUSH2 0x147D DUP3 PUSH2 0x143C JUMP JUMPDEST PUSH1 0x20 DUP3 ADD SWAP1 POP SWAP2 SWAP1 POP JUMP JUMPDEST PUSH1 0x0 PUSH1 0x20 DUP3 ADD SWAP1 POP DUP2 DUP2 SUB PUSH1 0x0 DUP4 ADD MSTORE PUSH2 0x14A1 DUP2 PUSH2 0x1465 JUMP JUMPDEST SWAP1 POP SWAP2 SWAP1 POP JUMP JUMPDEST PUSH1 0x0 PUSH2 0x14B3 DUP3 PUSH2 0xF73 JUMP JUMPDEST SWAP2 POP PUSH2 0x14BE DUP4 PUSH2 0xF73 JUMP JUMPDEST SWAP3 POP DUP3 DUP3 ADD SWAP1 POP DUP1 DUP3 GT ISZERO PUSH2 0x14D6 JUMPI PUSH2 0x14D5 PUSH2 0x136D JUMP JUMPDEST JUMPDEST SWAP3 SWAP2 POP POP JUMP JUMPDEST PUSH32 0x796F7520646F6E74206861766520656E6F7567682062616C616E636500000000 PUSH1 0x0 DUP3 ADD MSTORE POP JUMP JUMPDEST PUSH1 0x0 PUSH2 0x1512 PUSH1 0x1C DUP4 PUSH2 0x11CC JUMP JUMPDEST SWAP2 POP PUSH2 0x151D DUP3 PUSH2 0x14DC JUMP JUMPDEST PUSH1 0x20 DUP3 ADD SWAP1 POP SWAP2 SWAP1 POP JUMP JUMPDEST PUSH1 0x0 PUSH1 0x20 DUP3 ADD SWAP1 POP DUP2 DUP2 SUB PUSH1 0x0 DUP4 ADD MSTORE PUSH2 0x1541 DUP2 PUSH2 0x1505 JUMP JUMPDEST SWAP1 POP SWAP2 SWAP1 POP JUMP JUMPDEST PUSH32 0x74696D652073686F756C642062652067726561746572207468616E2074696D65 PUSH1 0x0 DUP3 ADD MSTORE PUSH32 0x7374616D70000000000000000000000000000000000000000000000000000000 PUSH1 0x20 DUP3 ADD MSTORE POP JUMP JUMPDEST PUSH1 0x0 PUSH2 0x15A4 PUSH1 0x25 DUP4 PUSH2 0x11CC JUMP JUMPDEST SWAP2 POP PUSH2 0x15AF DUP3 PUSH2 0x1548 JUMP JUMPDEST PUSH1 0x40 DUP3 ADD SWAP1 POP SWAP2 SWAP1 POP JUMP JUMPDEST PUSH1 0x0 PUSH1 0x20 DUP3 ADD SWAP1 POP DUP2 DUP2 SUB PUSH1 0x0 DUP4 ADD MSTORE PUSH2 0x15D3 DUP2 PUSH2 0x1597 JUMP JUMPDEST SWAP1 POP SWAP2 SWAP1 POP JUMP INVALID LOG2 PUSH5 0x6970667358 0x22 SLT KECCAK256 0xED ADD LT DIV PUSH13 0x8EE22BEA2E3CF5164DAF5D8563 LOG2 SLOAD 0xAA MSTORE NOT SHR 0xB8 0xD7 SWAP1 SWAP2 0xD2 PUSH3 0x9FF664 PUSH20 0x6F6C634300081200330000000000000000000000 "
				},
				"gasEstimates": {
					"creation": {
						"codeDepositCost": "1129600",
						"executionCost": "25440",
						"totalCost": "1155040"
					},
					"external": {
						"accounts(address)": "infinite",
						"addAccount(uint256,uint256,address)": "infinite",
						"deposit(uint256,address)": "infinite",
						"getAccountInfo()": "infinite",
						"giveLoan(address,uint256,uint256)": "infinite",
						"grantAccess(address)": "29301",
						"transfer(address,uint256)": "infinite",
						"withdraw(uint256)": "infinite"
					}
				},
				"methodIdentifiers": {
					"accounts(address)": "5e5c06e2",
					"addAccount(uint256,uint256,address)": "949eaae7",
					"deposit(uint256,address)": "6e553f65",
					"getAccountInfo()": "1b9e16ad",
					"giveLoan(address,uint256,uint256)": "c4b5a990",
					"grantAccess(address)": "0ae5e739",
					"transfer(address,uint256)": "a9059cbb",
					"withdraw(uint256)": "2e1a7d4d"
				}
			},
			"storageLayout": {
				"storage": [
					{
						"astId": 10,
						"contract": "contracts/banking.sol:bank",
						"label": "manager",
						"offset": 0,
						"slot": "0",
						"type": "t_address_payable"
					},
					{
						"astId": 15,
						"contract": "contracts/banking.sol:bank",
						"label": "accounts",
						"offset": 0,
						"slot": "1",
						"type": "t_mapping(t_address,t_struct(account)8_storage)"
					},
					{
						"astId": 17,
						"contract": "contracts/banking.sol:bank",
						"label": "time",
						"offset": 0,
						"slot": "2",
						"type": "t_uint256"
					}
				],
				"types": {
					"t_address": {
						"encoding": "inplace",
						"label": "address",
						"numberOfBytes": "20"
					},
					"t_address_payable": {
						"encoding": "inplace",
						"label": "address payable",
						"numberOfBytes": "20"
					},
					"t_mapping(t_address,t_struct(account)8_storage)": {
						"encoding": "mapping",
						"key": "t_address",
						"label": "mapping(address => struct bank.account)",
						"numberOfBytes": "32",
						"value": "t_struct(account)8_storage"
					},
					"t_struct(account)8_storage": {
						"encoding": "inplace",
						"label": "struct bank.account",
						"members": [
							{
								"astId": 3,
								"contract": "contracts/banking.sol:bank",
								"label": "id",
								"offset": 0,
								"slot": "0",
								"type": "t_uint256"
							},
							{
								"astId": 5,
								"contract": "contracts/banking.sol:bank",
								"label": "balance",
								"offset": 0,
								"slot": "1",
								"type": "t_uint256"
							},
							{
								"astId": 7,
								"contract": "contracts/banking.sol:bank",
								"label": "owner",
								"offset": 0,
								"slot": "2",
								"type": "t_address"
							}
						],
						"numberOfBytes": "96"
					},
					"t_uint256": {
						"encoding": "inplace",
						"label": "uint256",
						"numberOfBytes": "32"
					}
				}
			},
			"userdoc": {
				"kind": "user",
				"methods": {},
				"version": 1
			}
		}
	}
}