{
	"contracts/retail.sol": {
		"Retail": {
			"abi": [
				{
					"inputs": [],
					"stateMutability": "nonpayable",
					"type": "constructor"
				},
				{
					"inputs": [
						{
							"internalType": "uint256",
							"name": "_ID",
							"type": "uint256"
						},
						{
							"internalType": "string",
							"name": "_name",
							"type": "string"
						},
						{
							"internalType": "uint256",
							"name": "_price",
							"type": "uint256"
						},
						{
							"internalType": "uint256",
							"name": "_stock",
							"type": "uint256"
						}
					],
					"name": "addProduct",
					"outputs": [],
					"stateMutability": "nonpayable",
					"type": "function"
				},
				{
					"inputs": [
						{
							"internalType": "address",
							"name": "",
							"type": "address"
						},
						{
							"internalType": "uint256",
							"name": "",
							"type": "uint256"
						}
					],
					"name": "customers",
					"outputs": [
						{
							"internalType": "uint256",
							"name": "ID",
							"type": "uint256"
						},
						{
							"internalType": "string",
							"name": "name",
							"type": "string"
						},
						{
							"internalType": "uint256",
							"name": "price",
							"type": "uint256"
						},
						{
							"internalType": "uint256",
							"name": "stock",
							"type": "uint256"
						}
					],
					"stateMutability": "view",
					"type": "function"
				},
				{
					"inputs": [
						{
							"internalType": "uint256",
							"name": "ID",
							"type": "uint256"
						}
					],
					"name": "getProduct",
					"outputs": [
						{
							"internalType": "uint256",
							"name": "",
							"type": "uint256"
						},
						{
							"internalType": "string",
							"name": "",
							"type": "string"
						},
						{
							"internalType": "uint256",
							"name": "",
							"type": "uint256"
						},
						{
							"internalType": "uint256",
							"name": "",
							"type": "uint256"
						}
					],
					"stateMutability": "view",
					"type": "function"
				},
				{
					"inputs": [
						{
							"internalType": "uint256",
							"name": "",
							"type": "uint256"
						}
					],
					"name": "products",
					"outputs": [
						{
							"internalType": "uint256",
							"name": "ID",
							"type": "uint256"
						},
						{
							"internalType": "string",
							"name": "name",
							"type": "string"
						},
						{
							"internalType": "uint256",
							"name": "price",
							"type": "uint256"
						},
						{
							"internalType": "uint256",
							"name": "stock",
							"type": "uint256"
						}
					],
					"stateMutability": "view",
					"type": "function"
				},
				{
					"inputs": [
						{
							"internalType": "uint256",
							"name": "_productID",
							"type": "uint256"
						}
					],
					"name": "purchase",
					"outputs": [],
					"stateMutability": "payable",
					"type": "function"
				},
				{
					"inputs": [
						{
							"internalType": "uint256",
							"name": "_productID",
							"type": "uint256"
						},
						{
							"internalType": "uint256",
							"name": "newProductID",
							"type": "uint256"
						}
					],
					"name": "replace",
					"outputs": [],
					"stateMutability": "payable",
					"type": "function"
				},
				{
					"inputs": [
						{
							"internalType": "uint256",
							"name": "_productID",
							"type": "uint256"
						},
						{
							"internalType": "uint256",
							"name": "newPrice",
							"type": "uint256"
						}
					],
					"name": "updatePrice",
					"outputs": [],
					"stateMutability": "nonpayable",
					"type": "function"
				},
				{
					"inputs": [
						{
							"internalType": "uint256",
							"name": "_productID",
							"type": "uint256"
						},
						{
							"internalType": "uint256",
							"name": "newStock",
							"type": "uint256"
						}
					],
					"name": "updateStock",
					"outputs": [],
					"stateMutability": "nonpayable",
					"type": "function"
				}
			],
			"devdoc": {
				"kind": "dev",
				"methods": {},
				"version": 1
			},
			"evm": {
				"assembly": "    /* \"contracts/retail.sol\":56:3239  contract Retail{... */\n  mstore(0x40, 0x80)\n    /* \"contracts/retail.sol\":303:358  constructor(){... */\n  callvalue\n  dup1\n  iszero\n  tag_1\n  jumpi\n  0x00\n  dup1\n  revert\ntag_1:\n  pop\n    /* \"contracts/retail.sol\":340:350  msg.sender */\n  caller\n    /* \"contracts/retail.sol\":326:331  owner */\n  0x02\n  0x00\n    /* \"contracts/retail.sol\":326:351  owner=payable(msg.sender) */\n  0x0100\n  exp\n  dup2\n  sload\n  dup2\n  0xffffffffffffffffffffffffffffffffffffffff\n  mul\n  not\n  and\n  swap1\n  dup4\n  0xffffffffffffffffffffffffffffffffffffffff\n  and\n  mul\n  or\n  swap1\n  sstore\n  pop\n    /* \"contracts/retail.sol\":56:3239  contract Retail{... */\n  dataSize(sub_0)\n  dup1\n  dataOffset(sub_0)\n  0x00\n  codecopy\n  0x00\n  return\nstop\n\nsub_0: assembly {\n        /* \"contracts/retail.sol\":56:3239  contract Retail{... */\n      mstore(0x40, 0x80)\n      jumpi(tag_1, lt(calldatasize, 0x04))\n      shr(0xe0, calldataload(0x00))\n      dup1\n      0xb9db15b4\n      gt\n      tag_10\n      jumpi\n      dup1\n      0xb9db15b4\n      eq\n      tag_6\n      jumpi\n      dup1\n      0xc27ed2a2\n      eq\n      tag_7\n      jumpi\n      dup1\n      0xe81cf24c\n      eq\n      tag_8\n      jumpi\n      dup1\n      0xefef39a1\n      eq\n      tag_9\n      jumpi\n      jump(tag_1)\n    tag_10:\n      dup1\n      0x5b1dc14f\n      eq\n      tag_2\n      jumpi\n      dup1\n      0x7acc0b20\n      eq\n      tag_3\n      jumpi\n      dup1\n      0x82367b2d\n      eq\n      tag_4\n      jumpi\n      dup1\n      0x9dfc3dd1\n      eq\n      tag_5\n      jumpi\n    tag_1:\n      0x00\n      dup1\n      revert\n        /* \"contracts/retail.sol\":225:269  mapping(address=>product[]) public customers */\n    tag_2:\n      callvalue\n      dup1\n      iszero\n      tag_11\n      jumpi\n      0x00\n      dup1\n      revert\n    tag_11:\n      pop\n      tag_12\n      0x04\n      dup1\n      calldatasize\n      sub\n      dup2\n      add\n      swap1\n      tag_13\n      swap2\n      swap1\n      tag_14\n      jump\t// in\n    tag_13:\n      tag_15\n      jump\t// in\n    tag_12:\n      mload(0x40)\n      tag_16\n      swap5\n      swap4\n      swap3\n      swap2\n      swap1\n      tag_17\n      jump\t// in\n    tag_16:\n      mload(0x40)\n      dup1\n      swap2\n      sub\n      swap1\n      return\n        /* \"contracts/retail.sol\":181:219  mapping(uint=>product) public products */\n    tag_3:\n      callvalue\n      dup1\n      iszero\n      tag_18\n      jumpi\n      0x00\n      dup1\n      revert\n    tag_18:\n      pop\n      tag_19\n      0x04\n      dup1\n      calldatasize\n      sub\n      dup2\n      add\n      swap1\n      tag_20\n      swap2\n      swap1\n      tag_21\n      jump\t// in\n    tag_20:\n      tag_22\n      jump\t// in\n    tag_19:\n      mload(0x40)\n      tag_23\n      swap5\n      swap4\n      swap3\n      swap2\n      swap1\n      tag_17\n      jump\t// in\n    tag_23:\n      mload(0x40)\n      dup1\n      swap2\n      sub\n      swap1\n      return\n        /* \"contracts/retail.sol\":1164:1586  function updatePrice(uint _productID,uint newPrice) public{... */\n    tag_4:\n      callvalue\n      dup1\n      iszero\n      tag_24\n      jumpi\n      0x00\n      dup1\n      revert\n    tag_24:\n      pop\n      tag_25\n      0x04\n      dup1\n      calldatasize\n      sub\n      dup2\n      add\n      swap1\n      tag_26\n      swap2\n      swap1\n      tag_27\n      jump\t// in\n    tag_26:\n      tag_28\n      jump\t// in\n    tag_25:\n      stop\n        /* \"contracts/retail.sol\":1591:2019  function updateStock(uint _productID,uint newStock) public{... */\n    tag_5:\n      callvalue\n      dup1\n      iszero\n      tag_29\n      jumpi\n      0x00\n      dup1\n      revert\n    tag_29:\n      pop\n      tag_30\n      0x04\n      dup1\n      calldatasize\n      sub\n      dup2\n      add\n      swap1\n      tag_31\n      swap2\n      swap1\n      tag_27\n      jump\t// in\n    tag_31:\n      tag_32\n      jump\t// in\n    tag_30:\n      stop\n        /* \"contracts/retail.sol\":3064:3237  function getProduct(uint ID)public view returns(uint,string memory,uint,uint){... */\n    tag_6:\n      callvalue\n      dup1\n      iszero\n      tag_33\n      jumpi\n      0x00\n      dup1\n      revert\n    tag_33:\n      pop\n      tag_34\n      0x04\n      dup1\n      calldatasize\n      sub\n      dup2\n      add\n      swap1\n      tag_35\n      swap2\n      swap1\n      tag_21\n      jump\t// in\n    tag_35:\n      tag_36\n      jump\t// in\n    tag_34:\n      mload(0x40)\n      tag_37\n      swap5\n      swap4\n      swap3\n      swap2\n      swap1\n      tag_17\n      jump\t// in\n    tag_37:\n      mload(0x40)\n      dup1\n      swap2\n      sub\n      swap1\n      return\n        /* \"contracts/retail.sol\":364:650  function addProduct(uint _ID,string memory _name,uint _price,uint _stock) public{... */\n    tag_7:\n      callvalue\n      dup1\n      iszero\n      tag_38\n      jumpi\n      0x00\n      dup1\n      revert\n    tag_38:\n      pop\n      tag_39\n      0x04\n      dup1\n      calldatasize\n      sub\n      dup2\n      add\n      swap1\n      tag_40\n      swap2\n      swap1\n      tag_41\n      jump\t// in\n    tag_40:\n      tag_42\n      jump\t// in\n    tag_39:\n      stop\n        /* \"contracts/retail.sol\":2024:3059  function replace(uint _productID,uint newProductID) public payable{... */\n    tag_8:\n      tag_43\n      0x04\n      dup1\n      calldatasize\n      sub\n      dup2\n      add\n      swap1\n      tag_44\n      swap2\n      swap1\n      tag_27\n      jump\t// in\n    tag_44:\n      tag_45\n      jump\t// in\n    tag_43:\n      stop\n        /* \"contracts/retail.sol\":661:1159  function purchase(uint _productID) public payable{... */\n    tag_9:\n      tag_46\n      0x04\n      dup1\n      calldatasize\n      sub\n      dup2\n      add\n      swap1\n      tag_47\n      swap2\n      swap1\n      tag_21\n      jump\t// in\n    tag_47:\n      tag_48\n      jump\t// in\n    tag_46:\n      stop\n        /* \"contracts/retail.sol\":225:269  mapping(address=>product[]) public customers */\n    tag_15:\n      mstore(0x20, 0x01)\n      dup2\n      0x00\n      mstore\n      keccak256(0x00, 0x40)\n      dup2\n      dup2\n      sload\n      dup2\n      lt\n      tag_49\n      jumpi\n      0x00\n      dup1\n      revert\n    tag_49:\n      swap1\n      0x00\n      mstore\n      keccak256(0x00, 0x20)\n      swap1\n      0x04\n      mul\n      add\n      0x00\n      swap2\n      pop\n      swap2\n      pop\n      pop\n      dup1\n      0x00\n      add\n      sload\n      swap1\n      dup1\n      0x01\n      add\n      dup1\n      sload\n      tag_51\n      swap1\n      tag_52\n      jump\t// in\n    tag_51:\n      dup1\n      0x1f\n      add\n      0x20\n      dup1\n      swap2\n      div\n      mul\n      0x20\n      add\n      mload(0x40)\n      swap1\n      dup2\n      add\n      0x40\n      mstore\n      dup1\n      swap3\n      swap2\n      swap1\n      dup2\n      dup2\n      mstore\n      0x20\n      add\n      dup3\n      dup1\n      sload\n      tag_53\n      swap1\n      tag_52\n      jump\t// in\n    tag_53:\n      dup1\n      iszero\n      tag_54\n      jumpi\n      dup1\n      0x1f\n      lt\n      tag_55\n      jumpi\n      0x0100\n      dup1\n      dup4\n      sload\n      div\n      mul\n      dup4\n      mstore\n      swap2\n      0x20\n      add\n      swap2\n      jump(tag_54)\n    tag_55:\n      dup3\n      add\n      swap2\n      swap1\n      0x00\n      mstore\n      keccak256(0x00, 0x20)\n      swap1\n    tag_56:\n      dup2\n      sload\n      dup2\n      mstore\n      swap1\n      0x01\n      add\n      swap1\n      0x20\n      add\n      dup1\n      dup4\n      gt\n      tag_56\n      jumpi\n      dup3\n      swap1\n      sub\n      0x1f\n      and\n      dup3\n      add\n      swap2\n    tag_54:\n      pop\n      pop\n      pop\n      pop\n      pop\n      swap1\n      dup1\n      0x02\n      add\n      sload\n      swap1\n      dup1\n      0x03\n      add\n      sload\n      swap1\n      pop\n      dup5\n      jump\t// out\n        /* \"contracts/retail.sol\":181:219  mapping(uint=>product) public products */\n    tag_22:\n      mstore(0x20, 0x00)\n      dup1\n      0x00\n      mstore\n      keccak256(0x00, 0x40)\n      0x00\n      swap2\n      pop\n      swap1\n      pop\n      dup1\n      0x00\n      add\n      sload\n      swap1\n      dup1\n      0x01\n      add\n      dup1\n      sload\n      tag_57\n      swap1\n      tag_52\n      jump\t// in\n    tag_57:\n      dup1\n      0x1f\n      add\n      0x20\n      dup1\n      swap2\n      div\n      mul\n      0x20\n      add\n      mload(0x40)\n      swap1\n      dup2\n      add\n      0x40\n      mstore\n      dup1\n      swap3\n      swap2\n      swap1\n      dup2\n      dup2\n      mstore\n      0x20\n      add\n      dup3\n      dup1\n      sload\n      tag_58\n      swap1\n      tag_52\n      jump\t// in\n    tag_58:\n      dup1\n      iszero\n      tag_59\n      jumpi\n      dup1\n      0x1f\n      lt\n      tag_60\n      jumpi\n      0x0100\n      dup1\n      dup4\n      sload\n      div\n      mul\n      dup4\n      mstore\n      swap2\n      0x20\n      add\n      swap2\n      jump(tag_59)\n    tag_60:\n      dup3\n      add\n      swap2\n      swap1\n      0x00\n      mstore\n      keccak256(0x00, 0x20)\n      swap1\n    tag_61:\n      dup2\n      sload\n      dup2\n      mstore\n      swap1\n      0x01\n      add\n      swap1\n      0x20\n      add\n      dup1\n      dup4\n      gt\n      tag_61\n      jumpi\n      dup3\n      swap1\n      sub\n      0x1f\n      and\n      dup3\n      add\n      swap2\n    tag_59:\n      pop\n      pop\n      pop\n      pop\n      pop\n      swap1\n      dup1\n      0x02\n      add\n      sload\n      swap1\n      dup1\n      0x03\n      add\n      sload\n      swap1\n      pop\n      dup5\n      jump\t// out\n        /* \"contracts/retail.sol\":1164:1586  function updatePrice(uint _productID,uint newPrice) public{... */\n    tag_28:\n        /* \"contracts/retail.sol\":1252:1257  owner */\n      0x02\n      0x00\n      swap1\n      sload\n      swap1\n      0x0100\n      exp\n      swap1\n      div\n      0xffffffffffffffffffffffffffffffffffffffff\n      and\n        /* \"contracts/retail.sol\":1240:1257  msg.sender==owner */\n      0xffffffffffffffffffffffffffffffffffffffff\n      and\n        /* \"contracts/retail.sol\":1240:1250  msg.sender */\n      caller\n        /* \"contracts/retail.sol\":1240:1257  msg.sender==owner */\n      0xffffffffffffffffffffffffffffffffffffffff\n      and\n      eq\n        /* \"contracts/retail.sol\":1232:1282  require(msg.sender==owner,\"you are not the owner\") */\n      tag_63\n      jumpi\n      mload(0x40)\n      0x08c379a000000000000000000000000000000000000000000000000000000000\n      dup2\n      mstore\n      0x04\n      add\n      tag_64\n      swap1\n      tag_65\n      jump\t// in\n    tag_64:\n      mload(0x40)\n      dup1\n      swap2\n      sub\n      swap1\n      revert\n    tag_63:\n        /* \"contracts/retail.sol\":1312:1320  products */\n      0x00\n        /* \"contracts/retail.sol\":1312:1332  products[_productID] */\n      dup1\n        /* \"contracts/retail.sol\":1321:1331  _productID */\n      dup4\n        /* \"contracts/retail.sol\":1312:1332  products[_productID] */\n      dup2\n      mstore\n      0x20\n      add\n      swap1\n      dup2\n      mstore\n      0x20\n      add\n      0x00\n      keccak256\n        /* \"contracts/retail.sol\":1312:1335  products[_productID].ID */\n      0x00\n      add\n      sload\n        /* \"contracts/retail.sol\":1300:1310  _productID */\n      dup3\n        /* \"contracts/retail.sol\":1300:1335  _productID==products[_productID].ID */\n      eq\n        /* \"contracts/retail.sol\":1292:1368  require(_productID==products[_productID].ID,\"this product is not available\") */\n      tag_66\n      jumpi\n      mload(0x40)\n      0x08c379a000000000000000000000000000000000000000000000000000000000\n      dup2\n      mstore\n      0x04\n      add\n      tag_67\n      swap1\n      tag_68\n      jump\t// in\n    tag_67:\n      mload(0x40)\n      dup1\n      swap2\n      sub\n      swap1\n      revert\n    tag_66:\n        /* \"contracts/retail.sol\":1395:1396  0 */\n      0x00\n        /* \"contracts/retail.sol\":1386:1394  newPrice */\n      dup2\n        /* \"contracts/retail.sol\":1386:1396  newPrice>0 */\n      gt\n        /* \"contracts/retail.sol\":1378:1433  require(newPrice>0,\"price should be greater than zero\") */\n      tag_69\n      jumpi\n      mload(0x40)\n      0x08c379a000000000000000000000000000000000000000000000000000000000\n      dup2\n      mstore\n      0x04\n      add\n      tag_70\n      swap1\n      tag_71\n      jump\t// in\n    tag_70:\n      mload(0x40)\n      dup1\n      swap2\n      sub\n      swap1\n      revert\n    tag_69:\n        /* \"contracts/retail.sol\":1461:1469  products */\n      0x00\n        /* \"contracts/retail.sol\":1461:1481  products[_productID] */\n      dup1\n        /* \"contracts/retail.sol\":1470:1480  _productID */\n      dup4\n        /* \"contracts/retail.sol\":1461:1481  products[_productID] */\n      dup2\n      mstore\n      0x20\n      add\n      swap1\n      dup2\n      mstore\n      0x20\n      add\n      0x00\n      keccak256\n        /* \"contracts/retail.sol\":1461:1487  products[_productID].price */\n      0x02\n      add\n      sload\n        /* \"contracts/retail.sol\":1451:1459  newPrice */\n      dup2\n        /* \"contracts/retail.sol\":1451:1487  newPrice!=products[_productID].price */\n      sub\n        /* \"contracts/retail.sol\":1443:1534  require(newPrice!=products[_productID].price,\"no changes in price .please enter new price\") */\n      tag_72\n      jumpi\n      mload(0x40)\n      0x08c379a000000000000000000000000000000000000000000000000000000000\n      dup2\n      mstore\n      0x04\n      add\n      tag_73\n      swap1\n      tag_74\n      jump\t// in\n    tag_73:\n      mload(0x40)\n      dup1\n      swap2\n      sub\n      swap1\n      revert\n    tag_72:\n        /* \"contracts/retail.sol\":1571:1579  newPrice */\n      dup1\n        /* \"contracts/retail.sol\":1544:1552  products */\n      0x00\n        /* \"contracts/retail.sol\":1544:1564  products[_productID] */\n      dup1\n        /* \"contracts/retail.sol\":1553:1563  _productID */\n      dup5\n        /* \"contracts/retail.sol\":1544:1564  products[_productID] */\n      dup2\n      mstore\n      0x20\n      add\n      swap1\n      dup2\n      mstore\n      0x20\n      add\n      0x00\n      keccak256\n        /* \"contracts/retail.sol\":1544:1570  products[_productID].price */\n      0x02\n      add\n        /* \"contracts/retail.sol\":1544:1579  products[_productID].price=newPrice */\n      dup2\n      swap1\n      sstore\n      pop\n        /* \"contracts/retail.sol\":1164:1586  function updatePrice(uint _productID,uint newPrice) public{... */\n      pop\n      pop\n      jump\t// out\n        /* \"contracts/retail.sol\":1591:2019  function updateStock(uint _productID,uint newStock) public{... */\n    tag_32:\n        /* \"contracts/retail.sol\":1679:1684  owner */\n      0x02\n      0x00\n      swap1\n      sload\n      swap1\n      0x0100\n      exp\n      swap1\n      div\n      0xffffffffffffffffffffffffffffffffffffffff\n      and\n        /* \"contracts/retail.sol\":1667:1684  msg.sender==owner */\n      0xffffffffffffffffffffffffffffffffffffffff\n      and\n        /* \"contracts/retail.sol\":1667:1677  msg.sender */\n      caller\n        /* \"contracts/retail.sol\":1667:1684  msg.sender==owner */\n      0xffffffffffffffffffffffffffffffffffffffff\n      and\n      eq\n        /* \"contracts/retail.sol\":1659:1709  require(msg.sender==owner,\"you are not the owner\") */\n      tag_76\n      jumpi\n      mload(0x40)\n      0x08c379a000000000000000000000000000000000000000000000000000000000\n      dup2\n      mstore\n      0x04\n      add\n      tag_77\n      swap1\n      tag_65\n      jump\t// in\n    tag_77:\n      mload(0x40)\n      dup1\n      swap2\n      sub\n      swap1\n      revert\n    tag_76:\n        /* \"contracts/retail.sol\":1739:1747  products */\n      0x00\n        /* \"contracts/retail.sol\":1739:1759  products[_productID] */\n      dup1\n        /* \"contracts/retail.sol\":1748:1758  _productID */\n      dup4\n        /* \"contracts/retail.sol\":1739:1759  products[_productID] */\n      dup2\n      mstore\n      0x20\n      add\n      swap1\n      dup2\n      mstore\n      0x20\n      add\n      0x00\n      keccak256\n        /* \"contracts/retail.sol\":1739:1762  products[_productID].ID */\n      0x00\n      add\n      sload\n        /* \"contracts/retail.sol\":1727:1737  _productID */\n      dup3\n        /* \"contracts/retail.sol\":1727:1762  _productID==products[_productID].ID */\n      eq\n        /* \"contracts/retail.sol\":1719:1795  require(_productID==products[_productID].ID,\"this product is not available\") */\n      tag_78\n      jumpi\n      mload(0x40)\n      0x08c379a000000000000000000000000000000000000000000000000000000000\n      dup2\n      mstore\n      0x04\n      add\n      tag_79\n      swap1\n      tag_68\n      jump\t// in\n    tag_79:\n      mload(0x40)\n      dup1\n      swap2\n      sub\n      swap1\n      revert\n    tag_78:\n        /* \"contracts/retail.sol\":1822:1823  0 */\n      0x00\n        /* \"contracts/retail.sol\":1813:1821  newStock */\n      dup2\n        /* \"contracts/retail.sol\":1813:1823  newStock>0 */\n      gt\n        /* \"contracts/retail.sol\":1805:1860  require(newStock>0,\"price should be greater than zero\") */\n      tag_80\n      jumpi\n      mload(0x40)\n      0x08c379a000000000000000000000000000000000000000000000000000000000\n      dup2\n      mstore\n      0x04\n      add\n      tag_81\n      swap1\n      tag_71\n      jump\t// in\n    tag_81:\n      mload(0x40)\n      dup1\n      swap2\n      sub\n      swap1\n      revert\n    tag_80:\n        /* \"contracts/retail.sol\":1888:1896  products */\n      0x00\n        /* \"contracts/retail.sol\":1888:1908  products[_productID] */\n      dup1\n        /* \"contracts/retail.sol\":1897:1907  _productID */\n      dup4\n        /* \"contracts/retail.sol\":1888:1908  products[_productID] */\n      dup2\n      mstore\n      0x20\n      add\n      swap1\n      dup2\n      mstore\n      0x20\n      add\n      0x00\n      keccak256\n        /* \"contracts/retail.sol\":1888:1914  products[_productID].stock */\n      0x03\n      add\n      sload\n        /* \"contracts/retail.sol\":1878:1886  newStock */\n      dup2\n        /* \"contracts/retail.sol\":1878:1914  newStock!=products[_productID].stock */\n      sub\n        /* \"contracts/retail.sol\":1870:1967  require(newStock!=products[_productID].stock,\"no changes in stock .please enter new stock value\") */\n      tag_82\n      jumpi\n      mload(0x40)\n      0x08c379a000000000000000000000000000000000000000000000000000000000\n      dup2\n      mstore\n      0x04\n      add\n      tag_83\n      swap1\n      tag_84\n      jump\t// in\n    tag_83:\n      mload(0x40)\n      dup1\n      swap2\n      sub\n      swap1\n      revert\n    tag_82:\n        /* \"contracts/retail.sol\":2004:2012  newStock */\n      dup1\n        /* \"contracts/retail.sol\":1977:1985  products */\n      0x00\n        /* \"contracts/retail.sol\":1977:1997  products[_productID] */\n      dup1\n        /* \"contracts/retail.sol\":1986:1996  _productID */\n      dup5\n        /* \"contracts/retail.sol\":1977:1997  products[_productID] */\n      dup2\n      mstore\n      0x20\n      add\n      swap1\n      dup2\n      mstore\n      0x20\n      add\n      0x00\n      keccak256\n        /* \"contracts/retail.sol\":1977:2003  products[_productID].stock */\n      0x03\n      add\n        /* \"contracts/retail.sol\":1977:2012  products[_productID].stock=newStock */\n      dup2\n      swap1\n      sstore\n      pop\n        /* \"contracts/retail.sol\":1591:2019  function updateStock(uint _productID,uint newStock) public{... */\n      pop\n      pop\n      jump\t// out\n        /* \"contracts/retail.sol\":3064:3237  function getProduct(uint ID)public view returns(uint,string memory,uint,uint){... */\n    tag_36:\n        /* \"contracts/retail.sol\":3112:3116  uint */\n      0x00\n        /* \"contracts/retail.sol\":3117:3130  string memory */\n      0x60\n        /* \"contracts/retail.sol\":3131:3135  uint */\n      0x00\n        /* \"contracts/retail.sol\":3136:3140  uint */\n      dup1\n        /* \"contracts/retail.sol\":3158:3166  products */\n      0x00\n        /* \"contracts/retail.sol\":3158:3170  products[ID] */\n      dup1\n        /* \"contracts/retail.sol\":3167:3169  ID */\n      dup7\n        /* \"contracts/retail.sol\":3158:3170  products[ID] */\n      dup2\n      mstore\n      0x20\n      add\n      swap1\n      dup2\n      mstore\n      0x20\n      add\n      0x00\n      keccak256\n        /* \"contracts/retail.sol\":3158:3173  products[ID].ID */\n      0x00\n      add\n      sload\n        /* \"contracts/retail.sol\":3174:3182  products */\n      0x00\n        /* \"contracts/retail.sol\":3174:3186  products[ID] */\n      dup1\n        /* \"contracts/retail.sol\":3183:3185  ID */\n      dup8\n        /* \"contracts/retail.sol\":3174:3186  products[ID] */\n      dup2\n      mstore\n      0x20\n      add\n      swap1\n      dup2\n      mstore\n      0x20\n      add\n      0x00\n      keccak256\n        /* \"contracts/retail.sol\":3174:3191  products[ID].name */\n      0x01\n      add\n        /* \"contracts/retail.sol\":3192:3200  products */\n      0x00\n        /* \"contracts/retail.sol\":3192:3204  products[ID] */\n      dup1\n        /* \"contracts/retail.sol\":3201:3203  ID */\n      dup9\n        /* \"contracts/retail.sol\":3192:3204  products[ID] */\n      dup2\n      mstore\n      0x20\n      add\n      swap1\n      dup2\n      mstore\n      0x20\n      add\n      0x00\n      keccak256\n        /* \"contracts/retail.sol\":3192:3210  products[ID].price */\n      0x02\n      add\n      sload\n        /* \"contracts/retail.sol\":3211:3219  products */\n      0x00\n        /* \"contracts/retail.sol\":3211:3223  products[ID] */\n      dup1\n        /* \"contracts/retail.sol\":3220:3222  ID */\n      dup10\n        /* \"contracts/retail.sol\":3211:3223  products[ID] */\n      dup2\n      mstore\n      0x20\n      add\n      swap1\n      dup2\n      mstore\n      0x20\n      add\n      0x00\n      keccak256\n        /* \"contracts/retail.sol\":3211:3229  products[ID].stock */\n      0x03\n      add\n      sload\n        /* \"contracts/retail.sol\":3151:3230  return(products[ID].ID,products[ID].name,products[ID].price,products[ID].stock) */\n      dup3\n      dup1\n      sload\n      tag_86\n      swap1\n      tag_52\n      jump\t// in\n    tag_86:\n      dup1\n      0x1f\n      add\n      0x20\n      dup1\n      swap2\n      div\n      mul\n      0x20\n      add\n      mload(0x40)\n      swap1\n      dup2\n      add\n      0x40\n      mstore\n      dup1\n      swap3\n      swap2\n      swap1\n      dup2\n      dup2\n      mstore\n      0x20\n      add\n      dup3\n      dup1\n      sload\n      tag_87\n      swap1\n      tag_52\n      jump\t// in\n    tag_87:\n      dup1\n      iszero\n      tag_88\n      jumpi\n      dup1\n      0x1f\n      lt\n      tag_89\n      jumpi\n      0x0100\n      dup1\n      dup4\n      sload\n      div\n      mul\n      dup4\n      mstore\n      swap2\n      0x20\n      add\n      swap2\n      jump(tag_88)\n    tag_89:\n      dup3\n      add\n      swap2\n      swap1\n      0x00\n      mstore\n      keccak256(0x00, 0x20)\n      swap1\n    tag_90:\n      dup2\n      sload\n      dup2\n      mstore\n      swap1\n      0x01\n      add\n      swap1\n      0x20\n      add\n      dup1\n      dup4\n      gt\n      tag_90\n      jumpi\n      dup3\n      swap1\n      sub\n      0x1f\n      and\n      dup3\n      add\n      swap2\n    tag_88:\n      pop\n      pop\n      pop\n      pop\n      pop\n      swap3\n      pop\n      swap4\n      pop\n      swap4\n      pop\n      swap4\n      pop\n      swap4\n      pop\n        /* \"contracts/retail.sol\":3064:3237  function getProduct(uint ID)public view returns(uint,string memory,uint,uint){... */\n      swap2\n      swap4\n      pop\n      swap2\n      swap4\n      jump\t// out\n        /* \"contracts/retail.sol\":364:650  function addProduct(uint _ID,string memory _name,uint _price,uint _stock) public{... */\n    tag_42:\n        /* \"contracts/retail.sol\":474:479  owner */\n      0x02\n      0x00\n      swap1\n      sload\n      swap1\n      0x0100\n      exp\n      swap1\n      div\n      0xffffffffffffffffffffffffffffffffffffffff\n      and\n        /* \"contracts/retail.sol\":462:479  msg.sender==owner */\n      0xffffffffffffffffffffffffffffffffffffffff\n      and\n        /* \"contracts/retail.sol\":462:472  msg.sender */\n      caller\n        /* \"contracts/retail.sol\":462:479  msg.sender==owner */\n      0xffffffffffffffffffffffffffffffffffffffff\n      and\n      eq\n        /* \"contracts/retail.sol\":454:504  require(msg.sender==owner,\"you are not the owner\") */\n      tag_92\n      jumpi\n      mload(0x40)\n      0x08c379a000000000000000000000000000000000000000000000000000000000\n      dup2\n      mstore\n      0x04\n      add\n      tag_93\n      swap1\n      tag_65\n      jump\t// in\n    tag_93:\n      mload(0x40)\n      dup1\n      swap2\n      sub\n      swap1\n      revert\n    tag_92:\n        /* \"contracts/retail.sol\":528:643  product({... */\n      mload(0x40)\n      dup1\n      0x80\n      add\n      0x40\n      mstore\n      dup1\n        /* \"contracts/retail.sol\":553:556  _ID */\n      dup6\n        /* \"contracts/retail.sol\":528:643  product({... */\n      dup2\n      mstore\n      0x20\n      add\n        /* \"contracts/retail.sol\":575:580  _name */\n      dup5\n        /* \"contracts/retail.sol\":528:643  product({... */\n      dup2\n      mstore\n      0x20\n      add\n        /* \"contracts/retail.sol\":600:606  _price */\n      dup4\n        /* \"contracts/retail.sol\":528:643  product({... */\n      dup2\n      mstore\n      0x20\n      add\n        /* \"contracts/retail.sol\":626:632  _stock */\n      dup3\n        /* \"contracts/retail.sol\":528:643  product({... */\n      dup2\n      mstore\n      pop\n        /* \"contracts/retail.sol\":514:522  products */\n      0x00\n        /* \"contracts/retail.sol\":514:527  products[_ID] */\n      dup1\n        /* \"contracts/retail.sol\":523:526  _ID */\n      dup7\n        /* \"contracts/retail.sol\":514:527  products[_ID] */\n      dup2\n      mstore\n      0x20\n      add\n      swap1\n      dup2\n      mstore\n      0x20\n      add\n      0x00\n      keccak256\n        /* \"contracts/retail.sol\":514:643  products[_ID]=product({... */\n      0x00\n      dup3\n      add\n      mload\n      dup2\n      0x00\n      add\n      sstore\n      0x20\n      dup3\n      add\n      mload\n      dup2\n      0x01\n      add\n      swap1\n      dup2\n      tag_94\n      swap2\n      swap1\n      tag_95\n      jump\t// in\n    tag_94:\n      pop\n      0x40\n      dup3\n      add\n      mload\n      dup2\n      0x02\n      add\n      sstore\n      0x60\n      dup3\n      add\n      mload\n      dup2\n      0x03\n      add\n      sstore\n      swap1\n      pop\n      pop\n        /* \"contracts/retail.sol\":364:650  function addProduct(uint _ID,string memory _name,uint _price,uint _stock) public{... */\n      pop\n      pop\n      pop\n      pop\n      jump\t// out\n        /* \"contracts/retail.sol\":2024:3059  function replace(uint _productID,uint newProductID) public payable{... */\n    tag_45:\n        /* \"contracts/retail.sol\":2119:2127  products */\n      0x00\n        /* \"contracts/retail.sol\":2119:2139  products[_productID] */\n      dup1\n        /* \"contracts/retail.sol\":2128:2138  _productID */\n      dup4\n        /* \"contracts/retail.sol\":2119:2139  products[_productID] */\n      dup2\n      mstore\n      0x20\n      add\n      swap1\n      dup2\n      mstore\n      0x20\n      add\n      0x00\n      keccak256\n        /* \"contracts/retail.sol\":2119:2142  products[_productID].ID */\n      0x00\n      add\n      sload\n        /* \"contracts/retail.sol\":2107:2117  _productID */\n      dup3\n        /* \"contracts/retail.sol\":2107:2142  _productID==products[_productID].ID */\n      eq\n        /* \"contracts/retail.sol\":2099:2175  require(_productID==products[_productID].ID,\"this product is not available\") */\n      tag_97\n      jumpi\n      mload(0x40)\n      0x08c379a000000000000000000000000000000000000000000000000000000000\n      dup2\n      mstore\n      0x04\n      add\n      tag_98\n      swap1\n      tag_68\n      jump\t// in\n    tag_98:\n      mload(0x40)\n      dup1\n      swap2\n      sub\n      swap1\n      revert\n    tag_97:\n        /* \"contracts/retail.sol\":2206:2207  0 */\n      0x00\n        /* \"contracts/retail.sol\":2192:2204  newProductID */\n      dup2\n        /* \"contracts/retail.sol\":2192:2207  newProductID!=0 */\n      sub\n        /* \"contracts/retail.sol\":2184:2237  require(newProductID!=0,\"new product does not exist\") */\n      tag_99\n      jumpi\n      mload(0x40)\n      0x08c379a000000000000000000000000000000000000000000000000000000000\n      dup2\n      mstore\n      0x04\n      add\n      tag_100\n      swap1\n      tag_101\n      jump\t// in\n    tag_100:\n      mload(0x40)\n      dup1\n      swap2\n      sub\n      swap1\n      revert\n    tag_99:\n        /* \"contracts/retail.sol\":2398:2406  products */\n      0x00\n        /* \"contracts/retail.sol\":2398:2418  products[_productID] */\n      dup1\n        /* \"contracts/retail.sol\":2407:2417  _productID */\n      dup4\n        /* \"contracts/retail.sol\":2398:2418  products[_productID] */\n      dup2\n      mstore\n      0x20\n      add\n      swap1\n      dup2\n      mstore\n      0x20\n      add\n      0x00\n      keccak256\n        /* \"contracts/retail.sol\":2398:2424  products[_productID].price */\n      0x02\n      add\n      sload\n        /* \"contracts/retail.sol\":2369:2377  products */\n      0x00\n        /* \"contracts/retail.sol\":2369:2391  products[newProductID] */\n      dup1\n        /* \"contracts/retail.sol\":2378:2390  newProductID */\n      dup4\n        /* \"contracts/retail.sol\":2369:2391  products[newProductID] */\n      dup2\n      mstore\n      0x20\n      add\n      swap1\n      dup2\n      mstore\n      0x20\n      add\n      0x00\n      keccak256\n        /* \"contracts/retail.sol\":2369:2397  products[newProductID].price */\n      0x02\n      add\n      sload\n        /* \"contracts/retail.sol\":2369:2424  products[newProductID].price>products[_productID].price */\n      gt\n        /* \"contracts/retail.sol\":2366:2832  if(products[newProductID].price>products[_productID].price){... */\n      iszero\n      tag_102\n      jumpi\n        /* \"contracts/retail.sol\":2446:2462  uint priceDiffer */\n      0x00\n        /* \"contracts/retail.sol\":2492:2500  products */\n      dup1\n        /* \"contracts/retail.sol\":2492:2512  products[_productID] */\n      0x00\n        /* \"contracts/retail.sol\":2501:2511  _productID */\n      dup5\n        /* \"contracts/retail.sol\":2492:2512  products[_productID] */\n      dup2\n      mstore\n      0x20\n      add\n      swap1\n      dup2\n      mstore\n      0x20\n      add\n      0x00\n      keccak256\n        /* \"contracts/retail.sol\":2492:2518  products[_productID].price */\n      0x02\n      add\n      sload\n        /* \"contracts/retail.sol\":2463:2471  products */\n      0x00\n        /* \"contracts/retail.sol\":2463:2485  products[newProductID] */\n      dup1\n        /* \"contracts/retail.sol\":2472:2484  newProductID */\n      dup5\n        /* \"contracts/retail.sol\":2463:2485  products[newProductID] */\n      dup2\n      mstore\n      0x20\n      add\n      swap1\n      dup2\n      mstore\n      0x20\n      add\n      0x00\n      keccak256\n        /* \"contracts/retail.sol\":2463:2491  products[newProductID].price */\n      0x02\n      add\n      sload\n        /* \"contracts/retail.sol\":2463:2518  products[newProductID].price-products[_productID].price */\n      tag_103\n      swap2\n      swap1\n      tag_104\n      jump\t// in\n    tag_103:\n        /* \"contracts/retail.sol\":2446:2518  uint priceDiffer=products[newProductID].price-products[_productID].price */\n      swap1\n      pop\n        /* \"contracts/retail.sol\":2540:2545  owner */\n      0x02\n      0x00\n      swap1\n      sload\n      swap1\n      0x0100\n      exp\n      swap1\n      div\n      0xffffffffffffffffffffffffffffffffffffffff\n      and\n        /* \"contracts/retail.sol\":2540:2554  owner.transfer */\n      0xffffffffffffffffffffffffffffffffffffffff\n      and\n        /* \"contracts/retail.sol\":2540:2567  owner.transfer(priceDiffer) */\n      0x08fc\n        /* \"contracts/retail.sol\":2555:2566  priceDiffer */\n      dup3\n        /* \"contracts/retail.sol\":2540:2567  owner.transfer(priceDiffer) */\n      swap1\n      dup2\n      iszero\n      mul\n      swap1\n      mload(0x40)\n      0x00\n      mload(0x40)\n      dup1\n      dup4\n      sub\n      dup2\n      dup6\n      dup9\n      dup9\n      call\n      swap4\n      pop\n      pop\n      pop\n      pop\n      iszero\n      dup1\n      iszero\n      tag_106\n      jumpi\n      returndatasize\n      0x00\n      dup1\n      returndatacopy\n      revert(0x00, returndatasize)\n    tag_106:\n      pop\n        /* \"contracts/retail.sol\":2425:2585  {... */\n      pop\n        /* \"contracts/retail.sol\":2366:2832  if(products[newProductID].price>products[_productID].price){... */\n      jump(tag_107)\n    tag_102:\n        /* \"contracts/retail.sol\":2620:2628  products */\n      0x00\n        /* \"contracts/retail.sol\":2620:2642  products[newProductID] */\n      dup1\n        /* \"contracts/retail.sol\":2629:2641  newProductID */\n      dup3\n        /* \"contracts/retail.sol\":2620:2642  products[newProductID] */\n      dup2\n      mstore\n      0x20\n      add\n      swap1\n      dup2\n      mstore\n      0x20\n      add\n      0x00\n      keccak256\n        /* \"contracts/retail.sol\":2620:2648  products[newProductID].price */\n      0x02\n      add\n      sload\n        /* \"contracts/retail.sol\":2593:2601  products */\n      0x00\n        /* \"contracts/retail.sol\":2593:2613  products[_productID] */\n      dup1\n        /* \"contracts/retail.sol\":2602:2612  _productID */\n      dup5\n        /* \"contracts/retail.sol\":2593:2613  products[_productID] */\n      dup2\n      mstore\n      0x20\n      add\n      swap1\n      dup2\n      mstore\n      0x20\n      add\n      0x00\n      keccak256\n        /* \"contracts/retail.sol\":2593:2619  products[_productID].price */\n      0x02\n      add\n      sload\n        /* \"contracts/retail.sol\":2593:2648  products[_productID].price>products[newProductID].price */\n      gt\n        /* \"contracts/retail.sol\":2590:2832  if(products[_productID].price>products[newProductID].price){... */\n      iszero\n      tag_108\n      jumpi\n        /* \"contracts/retail.sol\":2670:2690  uint priceDifference */\n      0x00\n        /* \"contracts/retail.sol\":2718:2726  products */\n      dup1\n        /* \"contracts/retail.sol\":2718:2740  products[newProductID] */\n      0x00\n        /* \"contracts/retail.sol\":2727:2739  newProductID */\n      dup4\n        /* \"contracts/retail.sol\":2718:2740  products[newProductID] */\n      dup2\n      mstore\n      0x20\n      add\n      swap1\n      dup2\n      mstore\n      0x20\n      add\n      0x00\n      keccak256\n        /* \"contracts/retail.sol\":2718:2746  products[newProductID].price */\n      0x02\n      add\n      sload\n        /* \"contracts/retail.sol\":2691:2699  products */\n      0x00\n        /* \"contracts/retail.sol\":2691:2711  products[_productID] */\n      dup1\n        /* \"contracts/retail.sol\":2700:2710  _productID */\n      dup6\n        /* \"contracts/retail.sol\":2691:2711  products[_productID] */\n      dup2\n      mstore\n      0x20\n      add\n      swap1\n      dup2\n      mstore\n      0x20\n      add\n      0x00\n      keccak256\n        /* \"contracts/retail.sol\":2691:2717  products[_productID].price */\n      0x02\n      add\n      sload\n        /* \"contracts/retail.sol\":2691:2746  products[_productID].price-products[newProductID].price */\n      tag_109\n      swap2\n      swap1\n      tag_104\n      jump\t// in\n    tag_109:\n        /* \"contracts/retail.sol\":2670:2746  uint priceDifference=products[_productID].price-products[newProductID].price */\n      swap1\n      pop\n        /* \"contracts/retail.sol\":2776:2786  msg.sender */\n      caller\n        /* \"contracts/retail.sol\":2767:2796  payable (msg.sender).transfer */\n      0xffffffffffffffffffffffffffffffffffffffff\n      and\n        /* \"contracts/retail.sol\":2767:2813  payable (msg.sender).transfer(priceDifference) */\n      0x08fc\n        /* \"contracts/retail.sol\":2797:2812  priceDifference */\n      dup3\n        /* \"contracts/retail.sol\":2767:2813  payable (msg.sender).transfer(priceDifference) */\n      swap1\n      dup2\n      iszero\n      mul\n      swap1\n      mload(0x40)\n      0x00\n      mload(0x40)\n      dup1\n      dup4\n      sub\n      dup2\n      dup6\n      dup9\n      dup9\n      call\n      swap4\n      pop\n      pop\n      pop\n      pop\n      iszero\n      dup1\n      iszero\n      tag_111\n      jumpi\n      returndatasize\n      0x00\n      dup1\n      returndatacopy\n      revert(0x00, returndatasize)\n    tag_111:\n      pop\n        /* \"contracts/retail.sol\":2649:2832  {... */\n      pop\n        /* \"contracts/retail.sol\":2590:2832  if(products[_productID].price>products[newProductID].price){... */\n    tag_108:\n        /* \"contracts/retail.sol\":2366:2832  if(products[newProductID].price>products[_productID].price){... */\n    tag_107:\n        /* \"contracts/retail.sol\":2849:2855  uint i */\n      0x00\n        /* \"contracts/retail.sol\":2845:3053  for(uint i=0;i<customers[msg.sender].length;i++){... */\n    tag_112:\n        /* \"contracts/retail.sol\":2860:2869  customers */\n      0x01\n        /* \"contracts/retail.sol\":2860:2881  customers[msg.sender] */\n      0x00\n        /* \"contracts/retail.sol\":2870:2880  msg.sender */\n      caller\n        /* \"contracts/retail.sol\":2860:2881  customers[msg.sender] */\n      0xffffffffffffffffffffffffffffffffffffffff\n      and\n      0xffffffffffffffffffffffffffffffffffffffff\n      and\n      dup2\n      mstore\n      0x20\n      add\n      swap1\n      dup2\n      mstore\n      0x20\n      add\n      0x00\n      keccak256\n        /* \"contracts/retail.sol\":2860:2888  customers[msg.sender].length */\n      dup1\n      sload\n      swap1\n      pop\n        /* \"contracts/retail.sol\":2858:2859  i */\n      dup2\n        /* \"contracts/retail.sol\":2858:2888  i<customers[msg.sender].length */\n      lt\n        /* \"contracts/retail.sol\":2845:3053  for(uint i=0;i<customers[msg.sender].length;i++){... */\n      iszero\n      tag_113\n      jumpi\n        /* \"contracts/retail.sol\":2926:2935  customers */\n      0x01\n        /* \"contracts/retail.sol\":2926:2947  customers[msg.sender] */\n      0x00\n        /* \"contracts/retail.sol\":2936:2946  msg.sender */\n      caller\n        /* \"contracts/retail.sol\":2926:2947  customers[msg.sender] */\n      0xffffffffffffffffffffffffffffffffffffffff\n      and\n      0xffffffffffffffffffffffffffffffffffffffff\n      and\n      dup2\n      mstore\n      0x20\n      add\n      swap1\n      dup2\n      mstore\n      0x20\n      add\n      0x00\n      keccak256\n        /* \"contracts/retail.sol\":2948:2949  i */\n      dup2\n        /* \"contracts/retail.sol\":2926:2950  customers[msg.sender][i] */\n      dup2\n      sload\n      dup2\n      lt\n      tag_115\n      jumpi\n      tag_116\n      tag_117\n      jump\t// in\n    tag_116:\n    tag_115:\n      swap1\n      0x00\n      mstore\n      keccak256(0x00, 0x20)\n      swap1\n      0x04\n      mul\n      add\n        /* \"contracts/retail.sol\":2926:2953  customers[msg.sender][i].ID */\n      0x00\n      add\n      sload\n        /* \"contracts/retail.sol\":2914:2924  _productID */\n      dup4\n        /* \"contracts/retail.sol\":2914:2953  _productID==customers[msg.sender][i].ID */\n      sub\n        /* \"contracts/retail.sol\":2911:3033  if(_productID==customers[msg.sender][i].ID){... */\n      tag_119\n      jumpi\n        /* \"contracts/retail.sol\":2997:3005  products */\n      0x00\n        /* \"contracts/retail.sol\":2997:3019  products[newProductID] */\n      dup1\n        /* \"contracts/retail.sol\":3006:3018  newProductID */\n      dup4\n        /* \"contracts/retail.sol\":2997:3019  products[newProductID] */\n      dup2\n      mstore\n      0x20\n      add\n      swap1\n      dup2\n      mstore\n      0x20\n      add\n      0x00\n      keccak256\n        /* \"contracts/retail.sol\":2972:2981  customers */\n      0x01\n        /* \"contracts/retail.sol\":2972:2993  customers[msg.sender] */\n      0x00\n        /* \"contracts/retail.sol\":2982:2992  msg.sender */\n      caller\n        /* \"contracts/retail.sol\":2972:2993  customers[msg.sender] */\n      0xffffffffffffffffffffffffffffffffffffffff\n      and\n      0xffffffffffffffffffffffffffffffffffffffff\n      and\n      dup2\n      mstore\n      0x20\n      add\n      swap1\n      dup2\n      mstore\n      0x20\n      add\n      0x00\n      keccak256\n        /* \"contracts/retail.sol\":2994:2995  i */\n      dup3\n        /* \"contracts/retail.sol\":2972:2996  customers[msg.sender][i] */\n      dup2\n      sload\n      dup2\n      lt\n      tag_120\n      jumpi\n      tag_121\n      tag_117\n      jump\t// in\n    tag_121:\n    tag_120:\n      swap1\n      0x00\n      mstore\n      keccak256(0x00, 0x20)\n      swap1\n      0x04\n      mul\n      add\n        /* \"contracts/retail.sol\":2972:3019  customers[msg.sender][i]=products[newProductID] */\n      0x00\n      dup3\n      add\n      sload\n      dup2\n      0x00\n      add\n      sstore\n      0x01\n      dup3\n      add\n      dup2\n      0x01\n      add\n      swap1\n      dup2\n      tag_123\n      swap2\n      swap1\n      tag_124\n      jump\t// in\n    tag_123:\n      pop\n      0x02\n      dup3\n      add\n      sload\n      dup2\n      0x02\n      add\n      sstore\n      0x03\n      dup3\n      add\n      sload\n      dup2\n      0x03\n      add\n      sstore\n      swap1\n      pop\n      pop\n        /* \"contracts/retail.sol\":2911:3033  if(_productID==customers[msg.sender][i].ID){... */\n    tag_119:\n        /* \"contracts/retail.sol\":2889:2892  i++ */\n      dup1\n      dup1\n      tag_125\n      swap1\n      tag_126\n      jump\t// in\n    tag_125:\n      swap2\n      pop\n      pop\n        /* \"contracts/retail.sol\":2845:3053  for(uint i=0;i<customers[msg.sender].length;i++){... */\n      jump(tag_112)\n    tag_113:\n      pop\n        /* \"contracts/retail.sol\":2024:3059  function replace(uint _productID,uint newProductID) public payable{... */\n      pop\n      pop\n      jump\t// out\n        /* \"contracts/retail.sol\":661:1159  function purchase(uint _productID) public payable{... */\n    tag_48:\n        /* \"contracts/retail.sol\":753:754  0 */\n      0x00\n        /* \"contracts/retail.sol\":728:736  products */\n      dup1\n        /* \"contracts/retail.sol\":728:748  products[_productID] */\n      0x00\n        /* \"contracts/retail.sol\":737:747  _productID */\n      dup4\n        /* \"contracts/retail.sol\":728:748  products[_productID] */\n      dup2\n      mstore\n      0x20\n      add\n      swap1\n      dup2\n      mstore\n      0x20\n      add\n      0x00\n      keccak256\n        /* \"contracts/retail.sol\":728:751  products[_productID].ID */\n      0x00\n      add\n      sload\n        /* \"contracts/retail.sol\":728:754  products[_productID].ID!=0 */\n      sub\n        /* \"contracts/retail.sol\":720:787  require(products[_productID].ID!=0,\"this product is not available\") */\n      tag_128\n      jumpi\n      mload(0x40)\n      0x08c379a000000000000000000000000000000000000000000000000000000000\n      dup2\n      mstore\n      0x04\n      add\n      tag_129\n      swap1\n      tag_68\n      jump\t// in\n    tag_129:\n      mload(0x40)\n      dup1\n      swap2\n      sub\n      swap1\n      revert\n    tag_128:\n        /* \"contracts/retail.sol\":816:824  products */\n      0x00\n        /* \"contracts/retail.sol\":816:836  products[_productID] */\n      dup1\n        /* \"contracts/retail.sol\":825:835  _productID */\n      dup3\n        /* \"contracts/retail.sol\":816:836  products[_productID] */\n      dup2\n      mstore\n      0x20\n      add\n      swap1\n      dup2\n      mstore\n      0x20\n      add\n      0x00\n      keccak256\n        /* \"contracts/retail.sol\":816:842  products[_productID].price */\n      0x02\n      add\n      sload\n        /* \"contracts/retail.sol\":805:814  msg.value */\n      callvalue\n        /* \"contracts/retail.sol\":805:842  msg.value>=products[_productID].price */\n      lt\n      iszero\n        /* \"contracts/retail.sol\":797:886  require(msg.value>=products[_productID].price,\"amount is not enough to buy this product\") */\n      tag_130\n      jumpi\n      mload(0x40)\n      0x08c379a000000000000000000000000000000000000000000000000000000000\n      dup2\n      mstore\n      0x04\n      add\n      tag_131\n      swap1\n      tag_132\n      jump\t// in\n    tag_131:\n      mload(0x40)\n      dup1\n      swap2\n      sub\n      swap1\n      revert\n    tag_130:\n        /* \"contracts/retail.sol\":932:933  0 */\n      0x00\n        /* \"contracts/retail.sol\":904:912  products */\n      dup1\n        /* \"contracts/retail.sol\":904:924  products[_productID] */\n      0x00\n        /* \"contracts/retail.sol\":913:923  _productID */\n      dup4\n        /* \"contracts/retail.sol\":904:924  products[_productID] */\n      dup2\n      mstore\n      0x20\n      add\n      swap1\n      dup2\n      mstore\n      0x20\n      add\n      0x00\n      keccak256\n        /* \"contracts/retail.sol\":904:930  products[_productID].stock */\n      0x03\n      add\n      sload\n        /* \"contracts/retail.sol\":904:933  products[_productID].stock!=0 */\n      sub\n        /* \"contracts/retail.sol\":896:965  require(products[_productID].stock!=0,\"this product is out of stock\") */\n      tag_133\n      jumpi\n      mload(0x40)\n      0x08c379a000000000000000000000000000000000000000000000000000000000\n      dup2\n      mstore\n      0x04\n      add\n      tag_134\n      swap1\n      tag_135\n      jump\t// in\n    tag_134:\n      mload(0x40)\n      dup1\n      swap2\n      sub\n      swap1\n      revert\n    tag_133:\n        /* \"contracts/retail.sol\":975:1003  product storage productsData */\n      0x00\n        /* \"contracts/retail.sol\":1004:1012  products */\n      dup1\n        /* \"contracts/retail.sol\":1004:1024  products[_productID] */\n      0x00\n        /* \"contracts/retail.sol\":1013:1023  _productID */\n      dup4\n        /* \"contracts/retail.sol\":1004:1024  products[_productID] */\n      dup2\n      mstore\n      0x20\n      add\n      swap1\n      dup2\n      mstore\n      0x20\n      add\n      0x00\n      keccak256\n        /* \"contracts/retail.sol\":975:1024  product storage productsData=products[_productID] */\n      swap1\n      pop\n        /* \"contracts/retail.sol\":1034:1043  customers */\n      0x01\n        /* \"contracts/retail.sol\":1034:1055  customers[msg.sender] */\n      0x00\n        /* \"contracts/retail.sol\":1044:1054  msg.sender */\n      caller\n        /* \"contracts/retail.sol\":1034:1055  customers[msg.sender] */\n      0xffffffffffffffffffffffffffffffffffffffff\n      and\n      0xffffffffffffffffffffffffffffffffffffffff\n      and\n      dup2\n      mstore\n      0x20\n      add\n      swap1\n      dup2\n      mstore\n      0x20\n      add\n      0x00\n      keccak256\n        /* \"contracts/retail.sol\":1061:1073  productsData */\n      dup2\n        /* \"contracts/retail.sol\":1034:1074  customers[msg.sender].push(productsData) */\n      swap1\n      dup1\n      0x01\n      dup2\n      sload\n      add\n      dup1\n      dup3\n      sstore\n      dup1\n      swap2\n      pop\n      pop\n      0x01\n      swap1\n      sub\n      swap1\n      0x00\n      mstore\n      keccak256(0x00, 0x20)\n      swap1\n      0x04\n      mul\n      add\n      0x00\n      swap1\n      swap2\n      swap1\n      swap2\n      swap1\n      swap2\n      pop\n      0x00\n      dup3\n      add\n      sload\n      dup2\n      0x00\n      add\n      sstore\n      0x01\n      dup3\n      add\n      dup2\n      0x01\n      add\n      swap1\n      dup2\n      tag_137\n      swap2\n      swap1\n      tag_124\n      jump\t// in\n    tag_137:\n      pop\n      0x02\n      dup3\n      add\n      sload\n      dup2\n      0x02\n      add\n      sstore\n      0x03\n      dup3\n      add\n      sload\n      dup2\n      0x03\n      add\n      sstore\n      pop\n      pop\n        /* \"contracts/retail.sol\":1084:1089  owner */\n      0x02\n      0x00\n      swap1\n      sload\n      swap1\n      0x0100\n      exp\n      swap1\n      div\n      0xffffffffffffffffffffffffffffffffffffffff\n      and\n        /* \"contracts/retail.sol\":1084:1098  owner.transfer */\n      0xffffffffffffffffffffffffffffffffffffffff\n      and\n        /* \"contracts/retail.sol\":1084:1109  owner.transfer(msg.value) */\n      0x08fc\n        /* \"contracts/retail.sol\":1099:1108  msg.value */\n      callvalue\n        /* \"contracts/retail.sol\":1084:1109  owner.transfer(msg.value) */\n      swap1\n      dup2\n      iszero\n      mul\n      swap1\n      mload(0x40)\n      0x00\n      mload(0x40)\n      dup1\n      dup4\n      sub\n      dup2\n      dup6\n      dup9\n      dup9\n      call\n      swap4\n      pop\n      pop\n      pop\n      pop\n      iszero\n      dup1\n      iszero\n      tag_139\n      jumpi\n      returndatasize\n      0x00\n      dup1\n      returndatacopy\n      revert(0x00, returndatasize)\n    tag_139:\n      pop\n        /* \"contracts/retail.sol\":1147:1148  1 */\n      0x01\n        /* \"contracts/retail.sol\":1119:1127  products */\n      0x00\n        /* \"contracts/retail.sol\":1119:1139  products[_productID] */\n      dup1\n        /* \"contracts/retail.sol\":1128:1138  _productID */\n      dup5\n        /* \"contracts/retail.sol\":1119:1139  products[_productID] */\n      dup2\n      mstore\n      0x20\n      add\n      swap1\n      dup2\n      mstore\n      0x20\n      add\n      0x00\n      keccak256\n        /* \"contracts/retail.sol\":1119:1145  products[_productID].stock */\n      0x03\n      add\n      0x00\n        /* \"contracts/retail.sol\":1119:1148  products[_productID].stock-=1 */\n      dup3\n      dup3\n      sload\n      tag_140\n      swap2\n      swap1\n      tag_104\n      jump\t// in\n    tag_140:\n      swap3\n      pop\n      pop\n      dup2\n      swap1\n      sstore\n      pop\n        /* \"contracts/retail.sol\":710:1159  {... */\n      pop\n        /* \"contracts/retail.sol\":661:1159  function purchase(uint _productID) public payable{... */\n      pop\n      jump\t// out\n        /* \"#utility.yul\":7:82   */\n    tag_141:\n        /* \"#utility.yul\":40:46   */\n      0x00\n        /* \"#utility.yul\":73:75   */\n      0x40\n        /* \"#utility.yul\":67:76   */\n      mload\n        /* \"#utility.yul\":57:76   */\n      swap1\n      pop\n        /* \"#utility.yul\":7:82   */\n      swap1\n      jump\t// out\n        /* \"#utility.yul\":88:205   */\n    tag_142:\n        /* \"#utility.yul\":197:198   */\n      0x00\n        /* \"#utility.yul\":194:195   */\n      dup1\n        /* \"#utility.yul\":187:199   */\n      revert\n        /* \"#utility.yul\":211:328   */\n    tag_143:\n        /* \"#utility.yul\":320:321   */\n      0x00\n        /* \"#utility.yul\":317:318   */\n      dup1\n        /* \"#utility.yul\":310:322   */\n      revert\n        /* \"#utility.yul\":334:460   */\n    tag_144:\n        /* \"#utility.yul\":371:378   */\n      0x00\n        /* \"#utility.yul\":411:453   */\n      0xffffffffffffffffffffffffffffffffffffffff\n        /* \"#utility.yul\":404:409   */\n      dup3\n        /* \"#utility.yul\":400:454   */\n      and\n        /* \"#utility.yul\":389:454   */\n      swap1\n      pop\n        /* \"#utility.yul\":334:460   */\n      swap2\n      swap1\n      pop\n      jump\t// out\n        /* \"#utility.yul\":466:562   */\n    tag_145:\n        /* \"#utility.yul\":503:510   */\n      0x00\n        /* \"#utility.yul\":532:556   */\n      tag_206\n        /* \"#utility.yul\":550:555   */\n      dup3\n        /* \"#utility.yul\":532:556   */\n      tag_144\n      jump\t// in\n    tag_206:\n        /* \"#utility.yul\":521:556   */\n      swap1\n      pop\n        /* \"#utility.yul\":466:562   */\n      swap2\n      swap1\n      pop\n      jump\t// out\n        /* \"#utility.yul\":568:690   */\n    tag_146:\n        /* \"#utility.yul\":641:665   */\n      tag_208\n        /* \"#utility.yul\":659:664   */\n      dup2\n        /* \"#utility.yul\":641:665   */\n      tag_145\n      jump\t// in\n    tag_208:\n        /* \"#utility.yul\":634:639   */\n      dup2\n        /* \"#utility.yul\":631:666   */\n      eq\n        /* \"#utility.yul\":621:684   */\n      tag_209\n      jumpi\n        /* \"#utility.yul\":680:681   */\n      0x00\n        /* \"#utility.yul\":677:678   */\n      dup1\n        /* \"#utility.yul\":670:682   */\n      revert\n        /* \"#utility.yul\":621:684   */\n    tag_209:\n        /* \"#utility.yul\":568:690   */\n      pop\n      jump\t// out\n        /* \"#utility.yul\":696:835   */\n    tag_147:\n        /* \"#utility.yul\":742:747   */\n      0x00\n        /* \"#utility.yul\":780:786   */\n      dup2\n        /* \"#utility.yul\":767:787   */\n      calldataload\n        /* \"#utility.yul\":758:787   */\n      swap1\n      pop\n        /* \"#utility.yul\":796:829   */\n      tag_211\n        /* \"#utility.yul\":823:828   */\n      dup2\n        /* \"#utility.yul\":796:829   */\n      tag_146\n      jump\t// in\n    tag_211:\n        /* \"#utility.yul\":696:835   */\n      swap3\n      swap2\n      pop\n      pop\n      jump\t// out\n        /* \"#utility.yul\":841:918   */\n    tag_148:\n        /* \"#utility.yul\":878:885   */\n      0x00\n        /* \"#utility.yul\":907:912   */\n      dup2\n        /* \"#utility.yul\":896:912   */\n      swap1\n      pop\n        /* \"#utility.yul\":841:918   */\n      swap2\n      swap1\n      pop\n      jump\t// out\n        /* \"#utility.yul\":924:1046   */\n    tag_149:\n        /* \"#utility.yul\":997:1021   */\n      tag_214\n        /* \"#utility.yul\":1015:1020   */\n      dup2\n        /* \"#utility.yul\":997:1021   */\n      tag_148\n      jump\t// in\n    tag_214:\n        /* \"#utility.yul\":990:995   */\n      dup2\n        /* \"#utility.yul\":987:1022   */\n      eq\n        /* \"#utility.yul\":977:1040   */\n      tag_215\n      jumpi\n        /* \"#utility.yul\":1036:1037   */\n      0x00\n        /* \"#utility.yul\":1033:1034   */\n      dup1\n        /* \"#utility.yul\":1026:1038   */\n      revert\n        /* \"#utility.yul\":977:1040   */\n    tag_215:\n        /* \"#utility.yul\":924:1046   */\n      pop\n      jump\t// out\n        /* \"#utility.yul\":1052:1191   */\n    tag_150:\n        /* \"#utility.yul\":1098:1103   */\n      0x00\n        /* \"#utility.yul\":1136:1142   */\n      dup2\n        /* \"#utility.yul\":1123:1143   */\n      calldataload\n        /* \"#utility.yul\":1114:1143   */\n      swap1\n      pop\n        /* \"#utility.yul\":1152:1185   */\n      tag_217\n        /* \"#utility.yul\":1179:1184   */\n      dup2\n        /* \"#utility.yul\":1152:1185   */\n      tag_149\n      jump\t// in\n    tag_217:\n        /* \"#utility.yul\":1052:1191   */\n      swap3\n      swap2\n      pop\n      pop\n      jump\t// out\n        /* \"#utility.yul\":1197:1671   */\n    tag_14:\n        /* \"#utility.yul\":1265:1271   */\n      0x00\n        /* \"#utility.yul\":1273:1279   */\n      dup1\n        /* \"#utility.yul\":1322:1324   */\n      0x40\n        /* \"#utility.yul\":1310:1319   */\n      dup4\n        /* \"#utility.yul\":1301:1308   */\n      dup6\n        /* \"#utility.yul\":1297:1320   */\n      sub\n        /* \"#utility.yul\":1293:1325   */\n      slt\n        /* \"#utility.yul\":1290:1409   */\n      iszero\n      tag_219\n      jumpi\n        /* \"#utility.yul\":1328:1407   */\n      tag_220\n      tag_142\n      jump\t// in\n    tag_220:\n        /* \"#utility.yul\":1290:1409   */\n    tag_219:\n        /* \"#utility.yul\":1448:1449   */\n      0x00\n        /* \"#utility.yul\":1473:1526   */\n      tag_221\n        /* \"#utility.yul\":1518:1525   */\n      dup6\n        /* \"#utility.yul\":1509:1515   */\n      dup3\n        /* \"#utility.yul\":1498:1507   */\n      dup7\n        /* \"#utility.yul\":1494:1516   */\n      add\n        /* \"#utility.yul\":1473:1526   */\n      tag_147\n      jump\t// in\n    tag_221:\n        /* \"#utility.yul\":1463:1526   */\n      swap3\n      pop\n        /* \"#utility.yul\":1419:1536   */\n      pop\n        /* \"#utility.yul\":1575:1577   */\n      0x20\n        /* \"#utility.yul\":1601:1654   */\n      tag_222\n        /* \"#utility.yul\":1646:1653   */\n      dup6\n        /* \"#utility.yul\":1637:1643   */\n      dup3\n        /* \"#utility.yul\":1626:1635   */\n      dup7\n        /* \"#utility.yul\":1622:1644   */\n      add\n        /* \"#utility.yul\":1601:1654   */\n      tag_150\n      jump\t// in\n    tag_222:\n        /* \"#utility.yul\":1591:1654   */\n      swap2\n      pop\n        /* \"#utility.yul\":1546:1664   */\n      pop\n        /* \"#utility.yul\":1197:1671   */\n      swap3\n      pop\n      swap3\n      swap1\n      pop\n      jump\t// out\n        /* \"#utility.yul\":1677:1795   */\n    tag_151:\n        /* \"#utility.yul\":1764:1788   */\n      tag_224\n        /* \"#utility.yul\":1782:1787   */\n      dup2\n        /* \"#utility.yul\":1764:1788   */\n      tag_148\n      jump\t// in\n    tag_224:\n        /* \"#utility.yul\":1759:1762   */\n      dup3\n        /* \"#utility.yul\":1752:1789   */\n      mstore\n        /* \"#utility.yul\":1677:1795   */\n      pop\n      pop\n      jump\t// out\n        /* \"#utility.yul\":1801:1900   */\n    tag_152:\n        /* \"#utility.yul\":1853:1859   */\n      0x00\n        /* \"#utility.yul\":1887:1892   */\n      dup2\n        /* \"#utility.yul\":1881:1893   */\n      mload\n        /* \"#utility.yul\":1871:1893   */\n      swap1\n      pop\n        /* \"#utility.yul\":1801:1900   */\n      swap2\n      swap1\n      pop\n      jump\t// out\n        /* \"#utility.yul\":1906:2075   */\n    tag_153:\n        /* \"#utility.yul\":1990:2001   */\n      0x00\n        /* \"#utility.yul\":2024:2030   */\n      dup3\n        /* \"#utility.yul\":2019:2022   */\n      dup3\n        /* \"#utility.yul\":2012:2031   */\n      mstore\n        /* \"#utility.yul\":2064:2068   */\n      0x20\n        /* \"#utility.yul\":2059:2062   */\n      dup3\n        /* \"#utility.yul\":2055:2069   */\n      add\n        /* \"#utility.yul\":2040:2069   */\n      swap1\n      pop\n        /* \"#utility.yul\":1906:2075   */\n      swap3\n      swap2\n      pop\n      pop\n      jump\t// out\n        /* \"#utility.yul\":2081:2327   */\n    tag_154:\n        /* \"#utility.yul\":2162:2163   */\n      0x00\n        /* \"#utility.yul\":2172:2285   */\n    tag_228:\n        /* \"#utility.yul\":2186:2192   */\n      dup4\n        /* \"#utility.yul\":2183:2184   */\n      dup2\n        /* \"#utility.yul\":2180:2193   */\n      lt\n        /* \"#utility.yul\":2172:2285   */\n      iszero\n      tag_230\n      jumpi\n        /* \"#utility.yul\":2271:2272   */\n      dup1\n        /* \"#utility.yul\":2266:2269   */\n      dup3\n        /* \"#utility.yul\":2262:2273   */\n      add\n        /* \"#utility.yul\":2256:2274   */\n      mload\n        /* \"#utility.yul\":2252:2253   */\n      dup2\n        /* \"#utility.yul\":2247:2250   */\n      dup5\n        /* \"#utility.yul\":2243:2254   */\n      add\n        /* \"#utility.yul\":2236:2275   */\n      mstore\n        /* \"#utility.yul\":2208:2210   */\n      0x20\n        /* \"#utility.yul\":2205:2206   */\n      dup2\n        /* \"#utility.yul\":2201:2211   */\n      add\n        /* \"#utility.yul\":2196:2211   */\n      swap1\n      pop\n        /* \"#utility.yul\":2172:2285   */\n      jump(tag_228)\n    tag_230:\n        /* \"#utility.yul\":2319:2320   */\n      0x00\n        /* \"#utility.yul\":2310:2316   */\n      dup5\n        /* \"#utility.yul\":2305:2308   */\n      dup5\n        /* \"#utility.yul\":2301:2317   */\n      add\n        /* \"#utility.yul\":2294:2321   */\n      mstore\n        /* \"#utility.yul\":2143:2327   */\n      pop\n        /* \"#utility.yul\":2081:2327   */\n      pop\n      pop\n      pop\n      jump\t// out\n        /* \"#utility.yul\":2333:2435   */\n    tag_155:\n        /* \"#utility.yul\":2374:2380   */\n      0x00\n        /* \"#utility.yul\":2425:2427   */\n      0x1f\n        /* \"#utility.yul\":2421:2428   */\n      not\n        /* \"#utility.yul\":2416:2418   */\n      0x1f\n        /* \"#utility.yul\":2409:2414   */\n      dup4\n        /* \"#utility.yul\":2405:2419   */\n      add\n        /* \"#utility.yul\":2401:2429   */\n      and\n        /* \"#utility.yul\":2391:2429   */\n      swap1\n      pop\n        /* \"#utility.yul\":2333:2435   */\n      swap2\n      swap1\n      pop\n      jump\t// out\n        /* \"#utility.yul\":2441:2818   */\n    tag_156:\n        /* \"#utility.yul\":2529:2532   */\n      0x00\n        /* \"#utility.yul\":2557:2596   */\n      tag_233\n        /* \"#utility.yul\":2590:2595   */\n      dup3\n        /* \"#utility.yul\":2557:2596   */\n      tag_152\n      jump\t// in\n    tag_233:\n        /* \"#utility.yul\":2612:2683   */\n      tag_234\n        /* \"#utility.yul\":2676:2682   */\n      dup2\n        /* \"#utility.yul\":2671:2674   */\n      dup6\n        /* \"#utility.yul\":2612:2683   */\n      tag_153\n      jump\t// in\n    tag_234:\n        /* \"#utility.yul\":2605:2683   */\n      swap4\n      pop\n        /* \"#utility.yul\":2692:2757   */\n      tag_235\n        /* \"#utility.yul\":2750:2756   */\n      dup2\n        /* \"#utility.yul\":2745:2748   */\n      dup6\n        /* \"#utility.yul\":2738:2742   */\n      0x20\n        /* \"#utility.yul\":2731:2736   */\n      dup7\n        /* \"#utility.yul\":2727:2743   */\n      add\n        /* \"#utility.yul\":2692:2757   */\n      tag_154\n      jump\t// in\n    tag_235:\n        /* \"#utility.yul\":2782:2811   */\n      tag_236\n        /* \"#utility.yul\":2804:2810   */\n      dup2\n        /* \"#utility.yul\":2782:2811   */\n      tag_155\n      jump\t// in\n    tag_236:\n        /* \"#utility.yul\":2777:2780   */\n      dup5\n        /* \"#utility.yul\":2773:2812   */\n      add\n        /* \"#utility.yul\":2766:2812   */\n      swap2\n      pop\n        /* \"#utility.yul\":2533:2818   */\n      pop\n        /* \"#utility.yul\":2441:2818   */\n      swap3\n      swap2\n      pop\n      pop\n      jump\t// out\n        /* \"#utility.yul\":2824:3468   */\n    tag_17:\n        /* \"#utility.yul\":3021:3025   */\n      0x00\n        /* \"#utility.yul\":3059:3062   */\n      0x80\n        /* \"#utility.yul\":3048:3057   */\n      dup3\n        /* \"#utility.yul\":3044:3063   */\n      add\n        /* \"#utility.yul\":3036:3063   */\n      swap1\n      pop\n        /* \"#utility.yul\":3073:3144   */\n      tag_238\n        /* \"#utility.yul\":3141:3142   */\n      0x00\n        /* \"#utility.yul\":3130:3139   */\n      dup4\n        /* \"#utility.yul\":3126:3143   */\n      add\n        /* \"#utility.yul\":3117:3123   */\n      dup8\n        /* \"#utility.yul\":3073:3144   */\n      tag_151\n      jump\t// in\n    tag_238:\n        /* \"#utility.yul\":3191:3200   */\n      dup2\n        /* \"#utility.yul\":3185:3189   */\n      dup2\n        /* \"#utility.yul\":3181:3201   */\n      sub\n        /* \"#utility.yul\":3176:3178   */\n      0x20\n        /* \"#utility.yul\":3165:3174   */\n      dup4\n        /* \"#utility.yul\":3161:3179   */\n      add\n        /* \"#utility.yul\":3154:3202   */\n      mstore\n        /* \"#utility.yul\":3219:3297   */\n      tag_239\n        /* \"#utility.yul\":3292:3296   */\n      dup2\n        /* \"#utility.yul\":3283:3289   */\n      dup7\n        /* \"#utility.yul\":3219:3297   */\n      tag_156\n      jump\t// in\n    tag_239:\n        /* \"#utility.yul\":3211:3297   */\n      swap1\n      pop\n        /* \"#utility.yul\":3307:3379   */\n      tag_240\n        /* \"#utility.yul\":3375:3377   */\n      0x40\n        /* \"#utility.yul\":3364:3373   */\n      dup4\n        /* \"#utility.yul\":3360:3378   */\n      add\n        /* \"#utility.yul\":3351:3357   */\n      dup6\n        /* \"#utility.yul\":3307:3379   */\n      tag_151\n      jump\t// in\n    tag_240:\n        /* \"#utility.yul\":3389:3461   */\n      tag_241\n        /* \"#utility.yul\":3457:3459   */\n      0x60\n        /* \"#utility.yul\":3446:3455   */\n      dup4\n        /* \"#utility.yul\":3442:3460   */\n      add\n        /* \"#utility.yul\":3433:3439   */\n      dup5\n        /* \"#utility.yul\":3389:3461   */\n      tag_151\n      jump\t// in\n    tag_241:\n        /* \"#utility.yul\":2824:3468   */\n      swap6\n      swap5\n      pop\n      pop\n      pop\n      pop\n      pop\n      jump\t// out\n        /* \"#utility.yul\":3474:3803   */\n    tag_21:\n        /* \"#utility.yul\":3533:3539   */\n      0x00\n        /* \"#utility.yul\":3582:3584   */\n      0x20\n        /* \"#utility.yul\":3570:3579   */\n      dup3\n        /* \"#utility.yul\":3561:3568   */\n      dup5\n        /* \"#utility.yul\":3557:3580   */\n      sub\n        /* \"#utility.yul\":3553:3585   */\n      slt\n        /* \"#utility.yul\":3550:3669   */\n      iszero\n      tag_243\n      jumpi\n        /* \"#utility.yul\":3588:3667   */\n      tag_244\n      tag_142\n      jump\t// in\n    tag_244:\n        /* \"#utility.yul\":3550:3669   */\n    tag_243:\n        /* \"#utility.yul\":3708:3709   */\n      0x00\n        /* \"#utility.yul\":3733:3786   */\n      tag_245\n        /* \"#utility.yul\":3778:3785   */\n      dup5\n        /* \"#utility.yul\":3769:3775   */\n      dup3\n        /* \"#utility.yul\":3758:3767   */\n      dup6\n        /* \"#utility.yul\":3754:3776   */\n      add\n        /* \"#utility.yul\":3733:3786   */\n      tag_150\n      jump\t// in\n    tag_245:\n        /* \"#utility.yul\":3723:3786   */\n      swap2\n      pop\n        /* \"#utility.yul\":3679:3796   */\n      pop\n        /* \"#utility.yul\":3474:3803   */\n      swap3\n      swap2\n      pop\n      pop\n      jump\t// out\n        /* \"#utility.yul\":3809:4283   */\n    tag_27:\n        /* \"#utility.yul\":3877:3883   */\n      0x00\n        /* \"#utility.yul\":3885:3891   */\n      dup1\n        /* \"#utility.yul\":3934:3936   */\n      0x40\n        /* \"#utility.yul\":3922:3931   */\n      dup4\n        /* \"#utility.yul\":3913:3920   */\n      dup6\n        /* \"#utility.yul\":3909:3932   */\n      sub\n        /* \"#utility.yul\":3905:3937   */\n      slt\n        /* \"#utility.yul\":3902:4021   */\n      iszero\n      tag_247\n      jumpi\n        /* \"#utility.yul\":3940:4019   */\n      tag_248\n      tag_142\n      jump\t// in\n    tag_248:\n        /* \"#utility.yul\":3902:4021   */\n    tag_247:\n        /* \"#utility.yul\":4060:4061   */\n      0x00\n        /* \"#utility.yul\":4085:4138   */\n      tag_249\n        /* \"#utility.yul\":4130:4137   */\n      dup6\n        /* \"#utility.yul\":4121:4127   */\n      dup3\n        /* \"#utility.yul\":4110:4119   */\n      dup7\n        /* \"#utility.yul\":4106:4128   */\n      add\n        /* \"#utility.yul\":4085:4138   */\n      tag_150\n      jump\t// in\n    tag_249:\n        /* \"#utility.yul\":4075:4138   */\n      swap3\n      pop\n        /* \"#utility.yul\":4031:4148   */\n      pop\n        /* \"#utility.yul\":4187:4189   */\n      0x20\n        /* \"#utility.yul\":4213:4266   */\n      tag_250\n        /* \"#utility.yul\":4258:4265   */\n      dup6\n        /* \"#utility.yul\":4249:4255   */\n      dup3\n        /* \"#utility.yul\":4238:4247   */\n      dup7\n        /* \"#utility.yul\":4234:4256   */\n      add\n        /* \"#utility.yul\":4213:4266   */\n      tag_150\n      jump\t// in\n    tag_250:\n        /* \"#utility.yul\":4203:4266   */\n      swap2\n      pop\n        /* \"#utility.yul\":4158:4276   */\n      pop\n        /* \"#utility.yul\":3809:4283   */\n      swap3\n      pop\n      swap3\n      swap1\n      pop\n      jump\t// out\n        /* \"#utility.yul\":4289:4406   */\n    tag_157:\n        /* \"#utility.yul\":4398:4399   */\n      0x00\n        /* \"#utility.yul\":4395:4396   */\n      dup1\n        /* \"#utility.yul\":4388:4400   */\n      revert\n        /* \"#utility.yul\":4412:4529   */\n    tag_158:\n        /* \"#utility.yul\":4521:4522   */\n      0x00\n        /* \"#utility.yul\":4518:4519   */\n      dup1\n        /* \"#utility.yul\":4511:4523   */\n      revert\n        /* \"#utility.yul\":4535:4715   */\n    tag_159:\n        /* \"#utility.yul\":4583:4660   */\n      0x4e487b7100000000000000000000000000000000000000000000000000000000\n        /* \"#utility.yul\":4580:4581   */\n      0x00\n        /* \"#utility.yul\":4573:4661   */\n      mstore\n        /* \"#utility.yul\":4680:4684   */\n      0x41\n        /* \"#utility.yul\":4677:4678   */\n      0x04\n        /* \"#utility.yul\":4670:4685   */\n      mstore\n        /* \"#utility.yul\":4704:4708   */\n      0x24\n        /* \"#utility.yul\":4701:4702   */\n      0x00\n        /* \"#utility.yul\":4694:4709   */\n      revert\n        /* \"#utility.yul\":4721:5002   */\n    tag_160:\n        /* \"#utility.yul\":4804:4831   */\n      tag_255\n        /* \"#utility.yul\":4826:4830   */\n      dup3\n        /* \"#utility.yul\":4804:4831   */\n      tag_155\n      jump\t// in\n    tag_255:\n        /* \"#utility.yul\":4796:4802   */\n      dup2\n        /* \"#utility.yul\":4792:4832   */\n      add\n        /* \"#utility.yul\":4934:4940   */\n      dup2\n        /* \"#utility.yul\":4922:4932   */\n      dup2\n        /* \"#utility.yul\":4919:4941   */\n      lt\n        /* \"#utility.yul\":4898:4916   */\n      0xffffffffffffffff\n        /* \"#utility.yul\":4886:4896   */\n      dup3\n        /* \"#utility.yul\":4883:4917   */\n      gt\n        /* \"#utility.yul\":4880:4942   */\n      or\n        /* \"#utility.yul\":4877:4965   */\n      iszero\n      tag_256\n      jumpi\n        /* \"#utility.yul\":4945:4963   */\n      tag_257\n      tag_159\n      jump\t// in\n    tag_257:\n        /* \"#utility.yul\":4877:4965   */\n    tag_256:\n        /* \"#utility.yul\":4985:4995   */\n      dup1\n        /* \"#utility.yul\":4981:4983   */\n      0x40\n        /* \"#utility.yul\":4974:4996   */\n      mstore\n        /* \"#utility.yul\":4764:5002   */\n      pop\n        /* \"#utility.yul\":4721:5002   */\n      pop\n      pop\n      jump\t// out\n        /* \"#utility.yul\":5008:5137   */\n    tag_161:\n        /* \"#utility.yul\":5042:5048   */\n      0x00\n        /* \"#utility.yul\":5069:5089   */\n      tag_259\n      tag_141\n      jump\t// in\n    tag_259:\n        /* \"#utility.yul\":5059:5089   */\n      swap1\n      pop\n        /* \"#utility.yul\":5098:5131   */\n      tag_260\n        /* \"#utility.yul\":5126:5130   */\n      dup3\n        /* \"#utility.yul\":5118:5124   */\n      dup3\n        /* \"#utility.yul\":5098:5131   */\n      tag_160\n      jump\t// in\n    tag_260:\n        /* \"#utility.yul\":5008:5137   */\n      swap2\n      swap1\n      pop\n      jump\t// out\n        /* \"#utility.yul\":5143:5451   */\n    tag_162:\n        /* \"#utility.yul\":5205:5209   */\n      0x00\n        /* \"#utility.yul\":5295:5313   */\n      0xffffffffffffffff\n        /* \"#utility.yul\":5287:5293   */\n      dup3\n        /* \"#utility.yul\":5284:5314   */\n      gt\n        /* \"#utility.yul\":5281:5337   */\n      iszero\n      tag_262\n      jumpi\n        /* \"#utility.yul\":5317:5335   */\n      tag_263\n      tag_159\n      jump\t// in\n    tag_263:\n        /* \"#utility.yul\":5281:5337   */\n    tag_262:\n        /* \"#utility.yul\":5355:5384   */\n      tag_264\n        /* \"#utility.yul\":5377:5383   */\n      dup3\n        /* \"#utility.yul\":5355:5384   */\n      tag_155\n      jump\t// in\n    tag_264:\n        /* \"#utility.yul\":5347:5384   */\n      swap1\n      pop\n        /* \"#utility.yul\":5439:5443   */\n      0x20\n        /* \"#utility.yul\":5433:5437   */\n      dup2\n        /* \"#utility.yul\":5429:5444   */\n      add\n        /* \"#utility.yul\":5421:5444   */\n      swap1\n      pop\n        /* \"#utility.yul\":5143:5451   */\n      swap2\n      swap1\n      pop\n      jump\t// out\n        /* \"#utility.yul\":5457:5603   */\n    tag_163:\n        /* \"#utility.yul\":5554:5560   */\n      dup3\n        /* \"#utility.yul\":5549:5552   */\n      dup2\n        /* \"#utility.yul\":5544:5547   */\n      dup4\n        /* \"#utility.yul\":5531:5561   */\n      calldatacopy\n        /* \"#utility.yul\":5595:5596   */\n      0x00\n        /* \"#utility.yul\":5586:5592   */\n      dup4\n        /* \"#utility.yul\":5581:5584   */\n      dup4\n        /* \"#utility.yul\":5577:5593   */\n      add\n        /* \"#utility.yul\":5570:5597   */\n      mstore\n        /* \"#utility.yul\":5457:5603   */\n      pop\n      pop\n      pop\n      jump\t// out\n        /* \"#utility.yul\":5609:6034   */\n    tag_164:\n        /* \"#utility.yul\":5687:5692   */\n      0x00\n        /* \"#utility.yul\":5712:5778   */\n      tag_267\n        /* \"#utility.yul\":5728:5777   */\n      tag_268\n        /* \"#utility.yul\":5770:5776   */\n      dup5\n        /* \"#utility.yul\":5728:5777   */\n      tag_162\n      jump\t// in\n    tag_268:\n        /* \"#utility.yul\":5712:5778   */\n      tag_161\n      jump\t// in\n    tag_267:\n        /* \"#utility.yul\":5703:5778   */\n      swap1\n      pop\n        /* \"#utility.yul\":5801:5807   */\n      dup3\n        /* \"#utility.yul\":5794:5799   */\n      dup2\n        /* \"#utility.yul\":5787:5808   */\n      mstore\n        /* \"#utility.yul\":5839:5843   */\n      0x20\n        /* \"#utility.yul\":5832:5837   */\n      dup2\n        /* \"#utility.yul\":5828:5844   */\n      add\n        /* \"#utility.yul\":5877:5880   */\n      dup5\n        /* \"#utility.yul\":5868:5874   */\n      dup5\n        /* \"#utility.yul\":5863:5866   */\n      dup5\n        /* \"#utility.yul\":5859:5875   */\n      add\n        /* \"#utility.yul\":5856:5881   */\n      gt\n        /* \"#utility.yul\":5853:5965   */\n      iszero\n      tag_269\n      jumpi\n        /* \"#utility.yul\":5884:5963   */\n      tag_270\n      tag_158\n      jump\t// in\n    tag_270:\n        /* \"#utility.yul\":5853:5965   */\n    tag_269:\n        /* \"#utility.yul\":5974:6028   */\n      tag_271\n        /* \"#utility.yul\":6021:6027   */\n      dup5\n        /* \"#utility.yul\":6016:6019   */\n      dup3\n        /* \"#utility.yul\":6011:6014   */\n      dup6\n        /* \"#utility.yul\":5974:6028   */\n      tag_163\n      jump\t// in\n    tag_271:\n        /* \"#utility.yul\":5693:6034   */\n      pop\n        /* \"#utility.yul\":5609:6034   */\n      swap4\n      swap3\n      pop\n      pop\n      pop\n      jump\t// out\n        /* \"#utility.yul\":6054:6394   */\n    tag_165:\n        /* \"#utility.yul\":6110:6115   */\n      0x00\n        /* \"#utility.yul\":6159:6162   */\n      dup3\n        /* \"#utility.yul\":6152:6156   */\n      0x1f\n        /* \"#utility.yul\":6144:6150   */\n      dup4\n        /* \"#utility.yul\":6140:6157   */\n      add\n        /* \"#utility.yul\":6136:6163   */\n      slt\n        /* \"#utility.yul\":6126:6248   */\n      tag_273\n      jumpi\n        /* \"#utility.yul\":6167:6246   */\n      tag_274\n      tag_157\n      jump\t// in\n    tag_274:\n        /* \"#utility.yul\":6126:6248   */\n    tag_273:\n        /* \"#utility.yul\":6284:6290   */\n      dup2\n        /* \"#utility.yul\":6271:6291   */\n      calldataload\n        /* \"#utility.yul\":6309:6388   */\n      tag_275\n        /* \"#utility.yul\":6384:6387   */\n      dup5\n        /* \"#utility.yul\":6376:6382   */\n      dup3\n        /* \"#utility.yul\":6369:6373   */\n      0x20\n        /* \"#utility.yul\":6361:6367   */\n      dup7\n        /* \"#utility.yul\":6357:6374   */\n      add\n        /* \"#utility.yul\":6309:6388   */\n      tag_164\n      jump\t// in\n    tag_275:\n        /* \"#utility.yul\":6300:6388   */\n      swap2\n      pop\n        /* \"#utility.yul\":6116:6394   */\n      pop\n        /* \"#utility.yul\":6054:6394   */\n      swap3\n      swap2\n      pop\n      pop\n      jump\t// out\n        /* \"#utility.yul\":6400:7345   */\n    tag_41:\n        /* \"#utility.yul\":6496:6502   */\n      0x00\n        /* \"#utility.yul\":6504:6510   */\n      dup1\n        /* \"#utility.yul\":6512:6518   */\n      0x00\n        /* \"#utility.yul\":6520:6526   */\n      dup1\n        /* \"#utility.yul\":6569:6572   */\n      0x80\n        /* \"#utility.yul\":6557:6566   */\n      dup6\n        /* \"#utility.yul\":6548:6555   */\n      dup8\n        /* \"#utility.yul\":6544:6567   */\n      sub\n        /* \"#utility.yul\":6540:6573   */\n      slt\n        /* \"#utility.yul\":6537:6657   */\n      iszero\n      tag_277\n      jumpi\n        /* \"#utility.yul\":6576:6655   */\n      tag_278\n      tag_142\n      jump\t// in\n    tag_278:\n        /* \"#utility.yul\":6537:6657   */\n    tag_277:\n        /* \"#utility.yul\":6696:6697   */\n      0x00\n        /* \"#utility.yul\":6721:6774   */\n      tag_279\n        /* \"#utility.yul\":6766:6773   */\n      dup8\n        /* \"#utility.yul\":6757:6763   */\n      dup3\n        /* \"#utility.yul\":6746:6755   */\n      dup9\n        /* \"#utility.yul\":6742:6764   */\n      add\n        /* \"#utility.yul\":6721:6774   */\n      tag_150\n      jump\t// in\n    tag_279:\n        /* \"#utility.yul\":6711:6774   */\n      swap5\n      pop\n        /* \"#utility.yul\":6667:6784   */\n      pop\n        /* \"#utility.yul\":6851:6853   */\n      0x20\n        /* \"#utility.yul\":6840:6849   */\n      dup6\n        /* \"#utility.yul\":6836:6854   */\n      add\n        /* \"#utility.yul\":6823:6855   */\n      calldataload\n        /* \"#utility.yul\":6882:6900   */\n      0xffffffffffffffff\n        /* \"#utility.yul\":6874:6880   */\n      dup2\n        /* \"#utility.yul\":6871:6901   */\n      gt\n        /* \"#utility.yul\":6868:6985   */\n      iszero\n      tag_280\n      jumpi\n        /* \"#utility.yul\":6904:6983   */\n      tag_281\n      tag_143\n      jump\t// in\n    tag_281:\n        /* \"#utility.yul\":6868:6985   */\n    tag_280:\n        /* \"#utility.yul\":7009:7072   */\n      tag_282\n        /* \"#utility.yul\":7064:7071   */\n      dup8\n        /* \"#utility.yul\":7055:7061   */\n      dup3\n        /* \"#utility.yul\":7044:7053   */\n      dup9\n        /* \"#utility.yul\":7040:7062   */\n      add\n        /* \"#utility.yul\":7009:7072   */\n      tag_165\n      jump\t// in\n    tag_282:\n        /* \"#utility.yul\":6999:7072   */\n      swap4\n      pop\n        /* \"#utility.yul\":6794:7082   */\n      pop\n        /* \"#utility.yul\":7121:7123   */\n      0x40\n        /* \"#utility.yul\":7147:7200   */\n      tag_283\n        /* \"#utility.yul\":7192:7199   */\n      dup8\n        /* \"#utility.yul\":7183:7189   */\n      dup3\n        /* \"#utility.yul\":7172:7181   */\n      dup9\n        /* \"#utility.yul\":7168:7190   */\n      add\n        /* \"#utility.yul\":7147:7200   */\n      tag_150\n      jump\t// in\n    tag_283:\n        /* \"#utility.yul\":7137:7200   */\n      swap3\n      pop\n        /* \"#utility.yul\":7092:7210   */\n      pop\n        /* \"#utility.yul\":7249:7251   */\n      0x60\n        /* \"#utility.yul\":7275:7328   */\n      tag_284\n        /* \"#utility.yul\":7320:7327   */\n      dup8\n        /* \"#utility.yul\":7311:7317   */\n      dup3\n        /* \"#utility.yul\":7300:7309   */\n      dup9\n        /* \"#utility.yul\":7296:7318   */\n      add\n        /* \"#utility.yul\":7275:7328   */\n      tag_150\n      jump\t// in\n    tag_284:\n        /* \"#utility.yul\":7265:7328   */\n      swap2\n      pop\n        /* \"#utility.yul\":7220:7338   */\n      pop\n        /* \"#utility.yul\":6400:7345   */\n      swap3\n      swap6\n      swap2\n      swap5\n      pop\n      swap3\n      pop\n      jump\t// out\n        /* \"#utility.yul\":7351:7531   */\n    tag_166:\n        /* \"#utility.yul\":7399:7476   */\n      0x4e487b7100000000000000000000000000000000000000000000000000000000\n        /* \"#utility.yul\":7396:7397   */\n      0x00\n        /* \"#utility.yul\":7389:7477   */\n      mstore\n        /* \"#utility.yul\":7496:7500   */\n      0x22\n        /* \"#utility.yul\":7493:7494   */\n      0x04\n        /* \"#utility.yul\":7486:7501   */\n      mstore\n        /* \"#utility.yul\":7520:7524   */\n      0x24\n        /* \"#utility.yul\":7517:7518   */\n      0x00\n        /* \"#utility.yul\":7510:7525   */\n      revert\n        /* \"#utility.yul\":7537:7857   */\n    tag_52:\n        /* \"#utility.yul\":7581:7587   */\n      0x00\n        /* \"#utility.yul\":7618:7619   */\n      0x02\n        /* \"#utility.yul\":7612:7616   */\n      dup3\n        /* \"#utility.yul\":7608:7620   */\n      div\n        /* \"#utility.yul\":7598:7620   */\n      swap1\n      pop\n        /* \"#utility.yul\":7665:7666   */\n      0x01\n        /* \"#utility.yul\":7659:7663   */\n      dup3\n        /* \"#utility.yul\":7655:7667   */\n      and\n        /* \"#utility.yul\":7686:7704   */\n      dup1\n        /* \"#utility.yul\":7676:7757   */\n      tag_287\n      jumpi\n        /* \"#utility.yul\":7742:7746   */\n      0x7f\n        /* \"#utility.yul\":7734:7740   */\n      dup3\n        /* \"#utility.yul\":7730:7747   */\n      and\n        /* \"#utility.yul\":7720:7747   */\n      swap2\n      pop\n        /* \"#utility.yul\":7676:7757   */\n    tag_287:\n        /* \"#utility.yul\":7804:7806   */\n      0x20\n        /* \"#utility.yul\":7796:7802   */\n      dup3\n        /* \"#utility.yul\":7793:7807   */\n      lt\n        /* \"#utility.yul\":7773:7791   */\n      dup2\n        /* \"#utility.yul\":7770:7808   */\n      sub\n        /* \"#utility.yul\":7767:7851   */\n      tag_288\n      jumpi\n        /* \"#utility.yul\":7823:7841   */\n      tag_289\n      tag_166\n      jump\t// in\n    tag_289:\n        /* \"#utility.yul\":7767:7851   */\n    tag_288:\n        /* \"#utility.yul\":7588:7857   */\n      pop\n        /* \"#utility.yul\":7537:7857   */\n      swap2\n      swap1\n      pop\n      jump\t// out\n        /* \"#utility.yul\":7863:8034   */\n    tag_167:\n        /* \"#utility.yul\":8003:8026   */\n      0x796f7520617265206e6f7420746865206f776e65720000000000000000000000\n        /* \"#utility.yul\":7999:8000   */\n      0x00\n        /* \"#utility.yul\":7991:7997   */\n      dup3\n        /* \"#utility.yul\":7987:8001   */\n      add\n        /* \"#utility.yul\":7980:8027   */\n      mstore\n        /* \"#utility.yul\":7863:8034   */\n      pop\n      jump\t// out\n        /* \"#utility.yul\":8040:8406   */\n    tag_168:\n        /* \"#utility.yul\":8182:8185   */\n      0x00\n        /* \"#utility.yul\":8203:8270   */\n      tag_292\n        /* \"#utility.yul\":8267:8269   */\n      0x15\n        /* \"#utility.yul\":8262:8265   */\n      dup4\n        /* \"#utility.yul\":8203:8270   */\n      tag_153\n      jump\t// in\n    tag_292:\n        /* \"#utility.yul\":8196:8270   */\n      swap2\n      pop\n        /* \"#utility.yul\":8279:8372   */\n      tag_293\n        /* \"#utility.yul\":8368:8371   */\n      dup3\n        /* \"#utility.yul\":8279:8372   */\n      tag_167\n      jump\t// in\n    tag_293:\n        /* \"#utility.yul\":8397:8399   */\n      0x20\n        /* \"#utility.yul\":8392:8395   */\n      dup3\n        /* \"#utility.yul\":8388:8400   */\n      add\n        /* \"#utility.yul\":8381:8400   */\n      swap1\n      pop\n        /* \"#utility.yul\":8040:8406   */\n      swap2\n      swap1\n      pop\n      jump\t// out\n        /* \"#utility.yul\":8412:8831   */\n    tag_65:\n        /* \"#utility.yul\":8578:8582   */\n      0x00\n        /* \"#utility.yul\":8616:8618   */\n      0x20\n        /* \"#utility.yul\":8605:8614   */\n      dup3\n        /* \"#utility.yul\":8601:8619   */\n      add\n        /* \"#utility.yul\":8593:8619   */\n      swap1\n      pop\n        /* \"#utility.yul\":8665:8674   */\n      dup2\n        /* \"#utility.yul\":8659:8663   */\n      dup2\n        /* \"#utility.yul\":8655:8675   */\n      sub\n        /* \"#utility.yul\":8651:8652   */\n      0x00\n        /* \"#utility.yul\":8640:8649   */\n      dup4\n        /* \"#utility.yul\":8636:8653   */\n      add\n        /* \"#utility.yul\":8629:8676   */\n      mstore\n        /* \"#utility.yul\":8693:8824   */\n      tag_295\n        /* \"#utility.yul\":8819:8823   */\n      dup2\n        /* \"#utility.yul\":8693:8824   */\n      tag_168\n      jump\t// in\n    tag_295:\n        /* \"#utility.yul\":8685:8824   */\n      swap1\n      pop\n        /* \"#utility.yul\":8412:8831   */\n      swap2\n      swap1\n      pop\n      jump\t// out\n        /* \"#utility.yul\":8837:9016   */\n    tag_169:\n        /* \"#utility.yul\":8977:9008   */\n      0x746869732070726f64756374206973206e6f7420617661696c61626c65000000\n        /* \"#utility.yul\":8973:8974   */\n      0x00\n        /* \"#utility.yul\":8965:8971   */\n      dup3\n        /* \"#utility.yul\":8961:8975   */\n      add\n        /* \"#utility.yul\":8954:9009   */\n      mstore\n        /* \"#utility.yul\":8837:9016   */\n      pop\n      jump\t// out\n        /* \"#utility.yul\":9022:9388   */\n    tag_170:\n        /* \"#utility.yul\":9164:9167   */\n      0x00\n        /* \"#utility.yul\":9185:9252   */\n      tag_298\n        /* \"#utility.yul\":9249:9251   */\n      0x1d\n        /* \"#utility.yul\":9244:9247   */\n      dup4\n        /* \"#utility.yul\":9185:9252   */\n      tag_153\n      jump\t// in\n    tag_298:\n        /* \"#utility.yul\":9178:9252   */\n      swap2\n      pop\n        /* \"#utility.yul\":9261:9354   */\n      tag_299\n        /* \"#utility.yul\":9350:9353   */\n      dup3\n        /* \"#utility.yul\":9261:9354   */\n      tag_169\n      jump\t// in\n    tag_299:\n        /* \"#utility.yul\":9379:9381   */\n      0x20\n        /* \"#utility.yul\":9374:9377   */\n      dup3\n        /* \"#utility.yul\":9370:9382   */\n      add\n        /* \"#utility.yul\":9363:9382   */\n      swap1\n      pop\n        /* \"#utility.yul\":9022:9388   */\n      swap2\n      swap1\n      pop\n      jump\t// out\n        /* \"#utility.yul\":9394:9813   */\n    tag_68:\n        /* \"#utility.yul\":9560:9564   */\n      0x00\n        /* \"#utility.yul\":9598:9600   */\n      0x20\n        /* \"#utility.yul\":9587:9596   */\n      dup3\n        /* \"#utility.yul\":9583:9601   */\n      add\n        /* \"#utility.yul\":9575:9601   */\n      swap1\n      pop\n        /* \"#utility.yul\":9647:9656   */\n      dup2\n        /* \"#utility.yul\":9641:9645   */\n      dup2\n        /* \"#utility.yul\":9637:9657   */\n      sub\n        /* \"#utility.yul\":9633:9634   */\n      0x00\n        /* \"#utility.yul\":9622:9631   */\n      dup4\n        /* \"#utility.yul\":9618:9635   */\n      add\n        /* \"#utility.yul\":9611:9658   */\n      mstore\n        /* \"#utility.yul\":9675:9806   */\n      tag_301\n        /* \"#utility.yul\":9801:9805   */\n      dup2\n        /* \"#utility.yul\":9675:9806   */\n      tag_170\n      jump\t// in\n    tag_301:\n        /* \"#utility.yul\":9667:9806   */\n      swap1\n      pop\n        /* \"#utility.yul\":9394:9813   */\n      swap2\n      swap1\n      pop\n      jump\t// out\n        /* \"#utility.yul\":9819:10039   */\n    tag_171:\n        /* \"#utility.yul\":9959:9993   */\n      0x70726963652073686f756c642062652067726561746572207468616e207a6572\n        /* \"#utility.yul\":9955:9956   */\n      0x00\n        /* \"#utility.yul\":9947:9953   */\n      dup3\n        /* \"#utility.yul\":9943:9957   */\n      add\n        /* \"#utility.yul\":9936:9994   */\n      mstore\n        /* \"#utility.yul\":10028:10031   */\n      0x6f00000000000000000000000000000000000000000000000000000000000000\n        /* \"#utility.yul\":10023:10025   */\n      0x20\n        /* \"#utility.yul\":10015:10021   */\n      dup3\n        /* \"#utility.yul\":10011:10026   */\n      add\n        /* \"#utility.yul\":10004:10032   */\n      mstore\n        /* \"#utility.yul\":9819:10039   */\n      pop\n      jump\t// out\n        /* \"#utility.yul\":10045:10411   */\n    tag_172:\n        /* \"#utility.yul\":10187:10190   */\n      0x00\n        /* \"#utility.yul\":10208:10275   */\n      tag_304\n        /* \"#utility.yul\":10272:10274   */\n      0x21\n        /* \"#utility.yul\":10267:10270   */\n      dup4\n        /* \"#utility.yul\":10208:10275   */\n      tag_153\n      jump\t// in\n    tag_304:\n        /* \"#utility.yul\":10201:10275   */\n      swap2\n      pop\n        /* \"#utility.yul\":10284:10377   */\n      tag_305\n        /* \"#utility.yul\":10373:10376   */\n      dup3\n        /* \"#utility.yul\":10284:10377   */\n      tag_171\n      jump\t// in\n    tag_305:\n        /* \"#utility.yul\":10402:10404   */\n      0x40\n        /* \"#utility.yul\":10397:10400   */\n      dup3\n        /* \"#utility.yul\":10393:10405   */\n      add\n        /* \"#utility.yul\":10386:10405   */\n      swap1\n      pop\n        /* \"#utility.yul\":10045:10411   */\n      swap2\n      swap1\n      pop\n      jump\t// out\n        /* \"#utility.yul\":10417:10836   */\n    tag_71:\n        /* \"#utility.yul\":10583:10587   */\n      0x00\n        /* \"#utility.yul\":10621:10623   */\n      0x20\n        /* \"#utility.yul\":10610:10619   */\n      dup3\n        /* \"#utility.yul\":10606:10624   */\n      add\n        /* \"#utility.yul\":10598:10624   */\n      swap1\n      pop\n        /* \"#utility.yul\":10670:10679   */\n      dup2\n        /* \"#utility.yul\":10664:10668   */\n      dup2\n        /* \"#utility.yul\":10660:10680   */\n      sub\n        /* \"#utility.yul\":10656:10657   */\n      0x00\n        /* \"#utility.yul\":10645:10654   */\n      dup4\n        /* \"#utility.yul\":10641:10658   */\n      add\n        /* \"#utility.yul\":10634:10681   */\n      mstore\n        /* \"#utility.yul\":10698:10829   */\n      tag_307\n        /* \"#utility.yul\":10824:10828   */\n      dup2\n        /* \"#utility.yul\":10698:10829   */\n      tag_172\n      jump\t// in\n    tag_307:\n        /* \"#utility.yul\":10690:10829   */\n      swap1\n      pop\n        /* \"#utility.yul\":10417:10836   */\n      swap2\n      swap1\n      pop\n      jump\t// out\n        /* \"#utility.yul\":10842:11072   */\n    tag_173:\n        /* \"#utility.yul\":10982:11016   */\n      0x6e6f206368616e67657320696e207072696365202e706c6561736520656e7465\n        /* \"#utility.yul\":10978:10979   */\n      0x00\n        /* \"#utility.yul\":10970:10976   */\n      dup3\n        /* \"#utility.yul\":10966:10980   */\n      add\n        /* \"#utility.yul\":10959:11017   */\n      mstore\n        /* \"#utility.yul\":11051:11064   */\n      0x72206e6577207072696365000000000000000000000000000000000000000000\n        /* \"#utility.yul\":11046:11048   */\n      0x20\n        /* \"#utility.yul\":11038:11044   */\n      dup3\n        /* \"#utility.yul\":11034:11049   */\n      add\n        /* \"#utility.yul\":11027:11065   */\n      mstore\n        /* \"#utility.yul\":10842:11072   */\n      pop\n      jump\t// out\n        /* \"#utility.yul\":11078:11444   */\n    tag_174:\n        /* \"#utility.yul\":11220:11223   */\n      0x00\n        /* \"#utility.yul\":11241:11308   */\n      tag_310\n        /* \"#utility.yul\":11305:11307   */\n      0x2b\n        /* \"#utility.yul\":11300:11303   */\n      dup4\n        /* \"#utility.yul\":11241:11308   */\n      tag_153\n      jump\t// in\n    tag_310:\n        /* \"#utility.yul\":11234:11308   */\n      swap2\n      pop\n        /* \"#utility.yul\":11317:11410   */\n      tag_311\n        /* \"#utility.yul\":11406:11409   */\n      dup3\n        /* \"#utility.yul\":11317:11410   */\n      tag_173\n      jump\t// in\n    tag_311:\n        /* \"#utility.yul\":11435:11437   */\n      0x40\n        /* \"#utility.yul\":11430:11433   */\n      dup3\n        /* \"#utility.yul\":11426:11438   */\n      add\n        /* \"#utility.yul\":11419:11438   */\n      swap1\n      pop\n        /* \"#utility.yul\":11078:11444   */\n      swap2\n      swap1\n      pop\n      jump\t// out\n        /* \"#utility.yul\":11450:11869   */\n    tag_74:\n        /* \"#utility.yul\":11616:11620   */\n      0x00\n        /* \"#utility.yul\":11654:11656   */\n      0x20\n        /* \"#utility.yul\":11643:11652   */\n      dup3\n        /* \"#utility.yul\":11639:11657   */\n      add\n        /* \"#utility.yul\":11631:11657   */\n      swap1\n      pop\n        /* \"#utility.yul\":11703:11712   */\n      dup2\n        /* \"#utility.yul\":11697:11701   */\n      dup2\n        /* \"#utility.yul\":11693:11713   */\n      sub\n        /* \"#utility.yul\":11689:11690   */\n      0x00\n        /* \"#utility.yul\":11678:11687   */\n      dup4\n        /* \"#utility.yul\":11674:11691   */\n      add\n        /* \"#utility.yul\":11667:11714   */\n      mstore\n        /* \"#utility.yul\":11731:11862   */\n      tag_313\n        /* \"#utility.yul\":11857:11861   */\n      dup2\n        /* \"#utility.yul\":11731:11862   */\n      tag_174\n      jump\t// in\n    tag_313:\n        /* \"#utility.yul\":11723:11862   */\n      swap1\n      pop\n        /* \"#utility.yul\":11450:11869   */\n      swap2\n      swap1\n      pop\n      jump\t// out\n        /* \"#utility.yul\":11875:12111   */\n    tag_175:\n        /* \"#utility.yul\":12015:12049   */\n      0x6e6f206368616e67657320696e2073746f636b202e706c6561736520656e7465\n        /* \"#utility.yul\":12011:12012   */\n      0x00\n        /* \"#utility.yul\":12003:12009   */\n      dup3\n        /* \"#utility.yul\":11999:12013   */\n      add\n        /* \"#utility.yul\":11992:12050   */\n      mstore\n        /* \"#utility.yul\":12084:12103   */\n      0x72206e65772073746f636b2076616c7565000000000000000000000000000000\n        /* \"#utility.yul\":12079:12081   */\n      0x20\n        /* \"#utility.yul\":12071:12077   */\n      dup3\n        /* \"#utility.yul\":12067:12082   */\n      add\n        /* \"#utility.yul\":12060:12104   */\n      mstore\n        /* \"#utility.yul\":11875:12111   */\n      pop\n      jump\t// out\n        /* \"#utility.yul\":12117:12483   */\n    tag_176:\n        /* \"#utility.yul\":12259:12262   */\n      0x00\n        /* \"#utility.yul\":12280:12347   */\n      tag_316\n        /* \"#utility.yul\":12344:12346   */\n      0x31\n        /* \"#utility.yul\":12339:12342   */\n      dup4\n        /* \"#utility.yul\":12280:12347   */\n      tag_153\n      jump\t// in\n    tag_316:\n        /* \"#utility.yul\":12273:12347   */\n      swap2\n      pop\n        /* \"#utility.yul\":12356:12449   */\n      tag_317\n        /* \"#utility.yul\":12445:12448   */\n      dup3\n        /* \"#utility.yul\":12356:12449   */\n      tag_175\n      jump\t// in\n    tag_317:\n        /* \"#utility.yul\":12474:12476   */\n      0x40\n        /* \"#utility.yul\":12469:12472   */\n      dup3\n        /* \"#utility.yul\":12465:12477   */\n      add\n        /* \"#utility.yul\":12458:12477   */\n      swap1\n      pop\n        /* \"#utility.yul\":12117:12483   */\n      swap2\n      swap1\n      pop\n      jump\t// out\n        /* \"#utility.yul\":12489:12908   */\n    tag_84:\n        /* \"#utility.yul\":12655:12659   */\n      0x00\n        /* \"#utility.yul\":12693:12695   */\n      0x20\n        /* \"#utility.yul\":12682:12691   */\n      dup3\n        /* \"#utility.yul\":12678:12696   */\n      add\n        /* \"#utility.yul\":12670:12696   */\n      swap1\n      pop\n        /* \"#utility.yul\":12742:12751   */\n      dup2\n        /* \"#utility.yul\":12736:12740   */\n      dup2\n        /* \"#utility.yul\":12732:12752   */\n      sub\n        /* \"#utility.yul\":12728:12729   */\n      0x00\n        /* \"#utility.yul\":12717:12726   */\n      dup4\n        /* \"#utility.yul\":12713:12730   */\n      add\n        /* \"#utility.yul\":12706:12753   */\n      mstore\n        /* \"#utility.yul\":12770:12901   */\n      tag_319\n        /* \"#utility.yul\":12896:12900   */\n      dup2\n        /* \"#utility.yul\":12770:12901   */\n      tag_176\n      jump\t// in\n    tag_319:\n        /* \"#utility.yul\":12762:12901   */\n      swap1\n      pop\n        /* \"#utility.yul\":12489:12908   */\n      swap2\n      swap1\n      pop\n      jump\t// out\n        /* \"#utility.yul\":12914:13055   */\n    tag_177:\n        /* \"#utility.yul\":12963:12967   */\n      0x00\n        /* \"#utility.yul\":12986:12989   */\n      dup2\n        /* \"#utility.yul\":12978:12989   */\n      swap1\n      pop\n        /* \"#utility.yul\":13009:13012   */\n      dup2\n        /* \"#utility.yul\":13006:13007   */\n      0x00\n        /* \"#utility.yul\":12999:13013   */\n      mstore\n        /* \"#utility.yul\":13043:13047   */\n      0x20\n        /* \"#utility.yul\":13040:13041   */\n      0x00\n        /* \"#utility.yul\":13030:13048   */\n      keccak256\n        /* \"#utility.yul\":13022:13048   */\n      swap1\n      pop\n        /* \"#utility.yul\":12914:13055   */\n      swap2\n      swap1\n      pop\n      jump\t// out\n        /* \"#utility.yul\":13061:13154   */\n    tag_178:\n        /* \"#utility.yul\":13098:13104   */\n      0x00\n        /* \"#utility.yul\":13145:13147   */\n      0x20\n        /* \"#utility.yul\":13140:13142   */\n      0x1f\n        /* \"#utility.yul\":13133:13138   */\n      dup4\n        /* \"#utility.yul\":13129:13143   */\n      add\n        /* \"#utility.yul\":13125:13148   */\n      div\n        /* \"#utility.yul\":13115:13148   */\n      swap1\n      pop\n        /* \"#utility.yul\":13061:13154   */\n      swap2\n      swap1\n      pop\n      jump\t// out\n        /* \"#utility.yul\":13160:13267   */\n    tag_179:\n        /* \"#utility.yul\":13204:13212   */\n      0x00\n        /* \"#utility.yul\":13254:13259   */\n      dup3\n        /* \"#utility.yul\":13248:13252   */\n      dup3\n        /* \"#utility.yul\":13244:13260   */\n      shl\n        /* \"#utility.yul\":13223:13260   */\n      swap1\n      pop\n        /* \"#utility.yul\":13160:13267   */\n      swap3\n      swap2\n      pop\n      pop\n      jump\t// out\n        /* \"#utility.yul\":13273:13666   */\n    tag_180:\n        /* \"#utility.yul\":13342:13348   */\n      0x00\n        /* \"#utility.yul\":13392:13393   */\n      0x08\n        /* \"#utility.yul\":13380:13390   */\n      dup4\n        /* \"#utility.yul\":13376:13394   */\n      mul\n        /* \"#utility.yul\":13415:13512   */\n      tag_324\n        /* \"#utility.yul\":13445:13511   */\n      0xffffffffffffffffffffffffffffffffffffffffffffffffffffffffffffffff\n        /* \"#utility.yul\":13434:13443   */\n      dup3\n        /* \"#utility.yul\":13415:13512   */\n      tag_179\n      jump\t// in\n    tag_324:\n        /* \"#utility.yul\":13533:13572   */\n      tag_325\n        /* \"#utility.yul\":13563:13571   */\n      dup7\n        /* \"#utility.yul\":13552:13561   */\n      dup4\n        /* \"#utility.yul\":13533:13572   */\n      tag_179\n      jump\t// in\n    tag_325:\n        /* \"#utility.yul\":13521:13572   */\n      swap6\n      pop\n        /* \"#utility.yul\":13605:13609   */\n      dup1\n        /* \"#utility.yul\":13601:13610   */\n      not\n        /* \"#utility.yul\":13594:13599   */\n      dup5\n        /* \"#utility.yul\":13590:13611   */\n      and\n        /* \"#utility.yul\":13581:13611   */\n      swap4\n      pop\n        /* \"#utility.yul\":13654:13658   */\n      dup1\n        /* \"#utility.yul\":13644:13652   */\n      dup7\n        /* \"#utility.yul\":13640:13659   */\n      and\n        /* \"#utility.yul\":13633:13638   */\n      dup5\n        /* \"#utility.yul\":13630:13660   */\n      or\n        /* \"#utility.yul\":13620:13660   */\n      swap3\n      pop\n        /* \"#utility.yul\":13349:13666   */\n      pop\n      pop\n        /* \"#utility.yul\":13273:13666   */\n      swap4\n      swap3\n      pop\n      pop\n      pop\n      jump\t// out\n        /* \"#utility.yul\":13672:13732   */\n    tag_181:\n        /* \"#utility.yul\":13700:13703   */\n      0x00\n        /* \"#utility.yul\":13721:13726   */\n      dup2\n        /* \"#utility.yul\":13714:13726   */\n      swap1\n      pop\n        /* \"#utility.yul\":13672:13732   */\n      swap2\n      swap1\n      pop\n      jump\t// out\n        /* \"#utility.yul\":13738:13880   */\n    tag_182:\n        /* \"#utility.yul\":13788:13797   */\n      0x00\n        /* \"#utility.yul\":13821:13874   */\n      tag_328\n        /* \"#utility.yul\":13839:13873   */\n      tag_329\n        /* \"#utility.yul\":13848:13872   */\n      tag_330\n        /* \"#utility.yul\":13866:13871   */\n      dup5\n        /* \"#utility.yul\":13848:13872   */\n      tag_148\n      jump\t// in\n    tag_330:\n        /* \"#utility.yul\":13839:13873   */\n      tag_181\n      jump\t// in\n    tag_329:\n        /* \"#utility.yul\":13821:13874   */\n      tag_148\n      jump\t// in\n    tag_328:\n        /* \"#utility.yul\":13808:13874   */\n      swap1\n      pop\n        /* \"#utility.yul\":13738:13880   */\n      swap2\n      swap1\n      pop\n      jump\t// out\n        /* \"#utility.yul\":13886:13961   */\n    tag_183:\n        /* \"#utility.yul\":13929:13932   */\n      0x00\n        /* \"#utility.yul\":13950:13955   */\n      dup2\n        /* \"#utility.yul\":13943:13955   */\n      swap1\n      pop\n        /* \"#utility.yul\":13886:13961   */\n      swap2\n      swap1\n      pop\n      jump\t// out\n        /* \"#utility.yul\":13967:14236   */\n    tag_184:\n        /* \"#utility.yul\":14077:14116   */\n      tag_333\n        /* \"#utility.yul\":14108:14115   */\n      dup4\n        /* \"#utility.yul\":14077:14116   */\n      tag_182\n      jump\t// in\n    tag_333:\n        /* \"#utility.yul\":14138:14229   */\n      tag_334\n        /* \"#utility.yul\":14187:14228   */\n      tag_335\n        /* \"#utility.yul\":14211:14227   */\n      dup3\n        /* \"#utility.yul\":14187:14228   */\n      tag_183\n      jump\t// in\n    tag_335:\n        /* \"#utility.yul\":14179:14185   */\n      dup5\n        /* \"#utility.yul\":14172:14176   */\n      dup5\n        /* \"#utility.yul\":14166:14177   */\n      sload\n        /* \"#utility.yul\":14138:14229   */\n      tag_180\n      jump\t// in\n    tag_334:\n        /* \"#utility.yul\":14132:14136   */\n      dup3\n        /* \"#utility.yul\":14125:14230   */\n      sstore\n        /* \"#utility.yul\":14043:14236   */\n      pop\n        /* \"#utility.yul\":13967:14236   */\n      pop\n      pop\n      pop\n      jump\t// out\n        /* \"#utility.yul\":14242:14315   */\n    tag_185:\n        /* \"#utility.yul\":14287:14290   */\n      0x00\n        /* \"#utility.yul\":14242:14315   */\n      swap1\n      jump\t// out\n        /* \"#utility.yul\":14321:14510   */\n    tag_186:\n        /* \"#utility.yul\":14398:14430   */\n      tag_338\n      tag_185\n      jump\t// in\n    tag_338:\n        /* \"#utility.yul\":14439:14504   */\n      tag_339\n        /* \"#utility.yul\":14497:14503   */\n      dup2\n        /* \"#utility.yul\":14489:14495   */\n      dup5\n        /* \"#utility.yul\":14483:14487   */\n      dup5\n        /* \"#utility.yul\":14439:14504   */\n      tag_184\n      jump\t// in\n    tag_339:\n        /* \"#utility.yul\":14374:14510   */\n      pop\n        /* \"#utility.yul\":14321:14510   */\n      pop\n      pop\n      jump\t// out\n        /* \"#utility.yul\":14516:14702   */\n    tag_187:\n        /* \"#utility.yul\":14576:14696   */\n    tag_341:\n        /* \"#utility.yul\":14593:14596   */\n      dup2\n        /* \"#utility.yul\":14586:14591   */\n      dup2\n        /* \"#utility.yul\":14583:14597   */\n      lt\n        /* \"#utility.yul\":14576:14696   */\n      iszero\n      tag_343\n      jumpi\n        /* \"#utility.yul\":14647:14686   */\n      tag_344\n        /* \"#utility.yul\":14684:14685   */\n      0x00\n        /* \"#utility.yul\":14677:14682   */\n      dup3\n        /* \"#utility.yul\":14647:14686   */\n      tag_186\n      jump\t// in\n    tag_344:\n        /* \"#utility.yul\":14620:14621   */\n      0x01\n        /* \"#utility.yul\":14613:14618   */\n      dup2\n        /* \"#utility.yul\":14609:14622   */\n      add\n        /* \"#utility.yul\":14600:14622   */\n      swap1\n      pop\n        /* \"#utility.yul\":14576:14696   */\n      jump(tag_341)\n    tag_343:\n        /* \"#utility.yul\":14516:14702   */\n      pop\n      pop\n      jump\t// out\n        /* \"#utility.yul\":14708:15251   */\n    tag_188:\n        /* \"#utility.yul\":14809:14811   */\n      0x1f\n        /* \"#utility.yul\":14804:14807   */\n      dup3\n        /* \"#utility.yul\":14801:14812   */\n      gt\n        /* \"#utility.yul\":14798:15244   */\n      iszero\n      tag_346\n      jumpi\n        /* \"#utility.yul\":14843:14881   */\n      tag_347\n        /* \"#utility.yul\":14875:14880   */\n      dup2\n        /* \"#utility.yul\":14843:14881   */\n      tag_177\n      jump\t// in\n    tag_347:\n        /* \"#utility.yul\":14927:14956   */\n      tag_348\n        /* \"#utility.yul\":14945:14955   */\n      dup5\n        /* \"#utility.yul\":14927:14956   */\n      tag_178\n      jump\t// in\n    tag_348:\n        /* \"#utility.yul\":14917:14925   */\n      dup2\n        /* \"#utility.yul\":14913:14957   */\n      add\n        /* \"#utility.yul\":15110:15112   */\n      0x20\n        /* \"#utility.yul\":15098:15108   */\n      dup6\n        /* \"#utility.yul\":15095:15113   */\n      lt\n        /* \"#utility.yul\":15092:15141   */\n      iszero\n      tag_349\n      jumpi\n        /* \"#utility.yul\":15131:15139   */\n      dup2\n        /* \"#utility.yul\":15116:15139   */\n      swap1\n      pop\n        /* \"#utility.yul\":15092:15141   */\n    tag_349:\n        /* \"#utility.yul\":15154:15234   */\n      tag_350\n        /* \"#utility.yul\":15210:15232   */\n      tag_351\n        /* \"#utility.yul\":15228:15231   */\n      dup6\n        /* \"#utility.yul\":15210:15232   */\n      tag_178\n      jump\t// in\n    tag_351:\n        /* \"#utility.yul\":15200:15208   */\n      dup4\n        /* \"#utility.yul\":15196:15233   */\n      add\n        /* \"#utility.yul\":15183:15194   */\n      dup3\n        /* \"#utility.yul\":15154:15234   */\n      tag_187\n      jump\t// in\n    tag_350:\n        /* \"#utility.yul\":14813:15244   */\n      pop\n      pop\n        /* \"#utility.yul\":14798:15244   */\n    tag_346:\n        /* \"#utility.yul\":14708:15251   */\n      pop\n      pop\n      pop\n      jump\t// out\n        /* \"#utility.yul\":15257:15374   */\n    tag_189:\n        /* \"#utility.yul\":15311:15319   */\n      0x00\n        /* \"#utility.yul\":15361:15366   */\n      dup3\n        /* \"#utility.yul\":15355:15359   */\n      dup3\n        /* \"#utility.yul\":15351:15367   */\n      shr\n        /* \"#utility.yul\":15330:15367   */\n      swap1\n      pop\n        /* \"#utility.yul\":15257:15374   */\n      swap3\n      swap2\n      pop\n      pop\n      jump\t// out\n        /* \"#utility.yul\":15380:15549   */\n    tag_190:\n        /* \"#utility.yul\":15424:15430   */\n      0x00\n        /* \"#utility.yul\":15457:15508   */\n      tag_354\n        /* \"#utility.yul\":15505:15506   */\n      0x00\n        /* \"#utility.yul\":15501:15507   */\n      not\n        /* \"#utility.yul\":15493:15498   */\n      dup5\n        /* \"#utility.yul\":15490:15491   */\n      0x08\n        /* \"#utility.yul\":15486:15499   */\n      mul\n        /* \"#utility.yul\":15457:15508   */\n      tag_189\n      jump\t// in\n    tag_354:\n        /* \"#utility.yul\":15453:15509   */\n      not\n        /* \"#utility.yul\":15538:15542   */\n      dup1\n        /* \"#utility.yul\":15532:15536   */\n      dup4\n        /* \"#utility.yul\":15528:15543   */\n      and\n        /* \"#utility.yul\":15518:15543   */\n      swap2\n      pop\n        /* \"#utility.yul\":15431:15549   */\n      pop\n        /* \"#utility.yul\":15380:15549   */\n      swap3\n      swap2\n      pop\n      pop\n      jump\t// out\n        /* \"#utility.yul\":15554:15849   */\n    tag_191:\n        /* \"#utility.yul\":15630:15634   */\n      0x00\n        /* \"#utility.yul\":15776:15805   */\n      tag_356\n        /* \"#utility.yul\":15801:15804   */\n      dup4\n        /* \"#utility.yul\":15795:15799   */\n      dup4\n        /* \"#utility.yul\":15776:15805   */\n      tag_190\n      jump\t// in\n    tag_356:\n        /* \"#utility.yul\":15768:15805   */\n      swap2\n      pop\n        /* \"#utility.yul\":15838:15841   */\n      dup3\n        /* \"#utility.yul\":15835:15836   */\n      0x02\n        /* \"#utility.yul\":15831:15842   */\n      mul\n        /* \"#utility.yul\":15825:15829   */\n      dup3\n        /* \"#utility.yul\":15822:15843   */\n      or\n        /* \"#utility.yul\":15814:15843   */\n      swap1\n      pop\n        /* \"#utility.yul\":15554:15849   */\n      swap3\n      swap2\n      pop\n      pop\n      jump\t// out\n        /* \"#utility.yul\":15854:17249   */\n    tag_95:\n        /* \"#utility.yul\":15971:16008   */\n      tag_358\n        /* \"#utility.yul\":16004:16007   */\n      dup3\n        /* \"#utility.yul\":15971:16008   */\n      tag_152\n      jump\t// in\n    tag_358:\n        /* \"#utility.yul\":16073:16091   */\n      0xffffffffffffffff\n        /* \"#utility.yul\":16065:16071   */\n      dup2\n        /* \"#utility.yul\":16062:16092   */\n      gt\n        /* \"#utility.yul\":16059:16115   */\n      iszero\n      tag_359\n      jumpi\n        /* \"#utility.yul\":16095:16113   */\n      tag_360\n      tag_159\n      jump\t// in\n    tag_360:\n        /* \"#utility.yul\":16059:16115   */\n    tag_359:\n        /* \"#utility.yul\":16139:16177   */\n      tag_361\n        /* \"#utility.yul\":16171:16175   */\n      dup3\n        /* \"#utility.yul\":16165:16176   */\n      sload\n        /* \"#utility.yul\":16139:16177   */\n      tag_52\n      jump\t// in\n    tag_361:\n        /* \"#utility.yul\":16224:16291   */\n      tag_362\n        /* \"#utility.yul\":16284:16290   */\n      dup3\n        /* \"#utility.yul\":16276:16282   */\n      dup3\n        /* \"#utility.yul\":16270:16274   */\n      dup6\n        /* \"#utility.yul\":16224:16291   */\n      tag_188\n      jump\t// in\n    tag_362:\n        /* \"#utility.yul\":16318:16319   */\n      0x00\n        /* \"#utility.yul\":16342:16346   */\n      0x20\n        /* \"#utility.yul\":16329:16346   */\n      swap1\n      pop\n        /* \"#utility.yul\":16374:16376   */\n      0x1f\n        /* \"#utility.yul\":16366:16372   */\n      dup4\n        /* \"#utility.yul\":16363:16377   */\n      gt\n        /* \"#utility.yul\":16391:16392   */\n      0x01\n        /* \"#utility.yul\":16386:17004   */\n      dup2\n      eq\n      tag_364\n      jumpi\n        /* \"#utility.yul\":17048:17049   */\n      0x00\n        /* \"#utility.yul\":17065:17071   */\n      dup5\n        /* \"#utility.yul\":17062:17139   */\n      iszero\n      tag_365\n      jumpi\n        /* \"#utility.yul\":17114:17123   */\n      dup3\n        /* \"#utility.yul\":17109:17112   */\n      dup8\n        /* \"#utility.yul\":17105:17124   */\n      add\n        /* \"#utility.yul\":17099:17125   */\n      mload\n        /* \"#utility.yul\":17090:17125   */\n      swap1\n      pop\n        /* \"#utility.yul\":17062:17139   */\n    tag_365:\n        /* \"#utility.yul\":17165:17232   */\n      tag_366\n        /* \"#utility.yul\":17225:17231   */\n      dup6\n        /* \"#utility.yul\":17218:17223   */\n      dup3\n        /* \"#utility.yul\":17165:17232   */\n      tag_191\n      jump\t// in\n    tag_366:\n        /* \"#utility.yul\":17159:17163   */\n      dup7\n        /* \"#utility.yul\":17152:17233   */\n      sstore\n        /* \"#utility.yul\":17021:17243   */\n      pop\n        /* \"#utility.yul\":16356:17243   */\n      jump(tag_363)\n        /* \"#utility.yul\":16386:17004   */\n    tag_364:\n        /* \"#utility.yul\":16438:16442   */\n      0x1f\n        /* \"#utility.yul\":16434:16443   */\n      not\n        /* \"#utility.yul\":16426:16432   */\n      dup5\n        /* \"#utility.yul\":16422:16444   */\n      and\n        /* \"#utility.yul\":16472:16509   */\n      tag_367\n        /* \"#utility.yul\":16504:16508   */\n      dup7\n        /* \"#utility.yul\":16472:16509   */\n      tag_177\n      jump\t// in\n    tag_367:\n        /* \"#utility.yul\":16531:16532   */\n      0x00\n        /* \"#utility.yul\":16545:16753   */\n    tag_368:\n        /* \"#utility.yul\":16559:16566   */\n      dup3\n        /* \"#utility.yul\":16556:16557   */\n      dup2\n        /* \"#utility.yul\":16553:16567   */\n      lt\n        /* \"#utility.yul\":16545:16753   */\n      iszero\n      tag_370\n      jumpi\n        /* \"#utility.yul\":16638:16647   */\n      dup5\n        /* \"#utility.yul\":16633:16636   */\n      dup10\n        /* \"#utility.yul\":16629:16648   */\n      add\n        /* \"#utility.yul\":16623:16649   */\n      mload\n        /* \"#utility.yul\":16615:16621   */\n      dup3\n        /* \"#utility.yul\":16608:16650   */\n      sstore\n        /* \"#utility.yul\":16689:16690   */\n      0x01\n        /* \"#utility.yul\":16681:16687   */\n      dup3\n        /* \"#utility.yul\":16677:16691   */\n      add\n        /* \"#utility.yul\":16667:16691   */\n      swap2\n      pop\n        /* \"#utility.yul\":16736:16738   */\n      0x20\n        /* \"#utility.yul\":16725:16734   */\n      dup6\n        /* \"#utility.yul\":16721:16739   */\n      add\n        /* \"#utility.yul\":16708:16739   */\n      swap5\n      pop\n        /* \"#utility.yul\":16582:16586   */\n      0x20\n        /* \"#utility.yul\":16579:16580   */\n      dup2\n        /* \"#utility.yul\":16575:16587   */\n      add\n        /* \"#utility.yul\":16570:16587   */\n      swap1\n      pop\n        /* \"#utility.yul\":16545:16753   */\n      jump(tag_368)\n    tag_370:\n        /* \"#utility.yul\":16781:16787   */\n      dup7\n        /* \"#utility.yul\":16772:16779   */\n      dup4\n        /* \"#utility.yul\":16769:16788   */\n      lt\n        /* \"#utility.yul\":16766:16945   */\n      iszero\n      tag_371\n      jumpi\n        /* \"#utility.yul\":16839:16848   */\n      dup5\n        /* \"#utility.yul\":16834:16837   */\n      dup10\n        /* \"#utility.yul\":16830:16849   */\n      add\n        /* \"#utility.yul\":16824:16850   */\n      mload\n        /* \"#utility.yul\":16882:16930   */\n      tag_372\n        /* \"#utility.yul\":16924:16928   */\n      0x1f\n        /* \"#utility.yul\":16916:16922   */\n      dup10\n        /* \"#utility.yul\":16912:16929   */\n      and\n        /* \"#utility.yul\":16901:16910   */\n      dup3\n        /* \"#utility.yul\":16882:16930   */\n      tag_190\n      jump\t// in\n    tag_372:\n        /* \"#utility.yul\":16874:16880   */\n      dup4\n        /* \"#utility.yul\":16867:16931   */\n      sstore\n        /* \"#utility.yul\":16789:16945   */\n      pop\n        /* \"#utility.yul\":16766:16945   */\n    tag_371:\n        /* \"#utility.yul\":16991:16992   */\n      0x01\n        /* \"#utility.yul\":16987:16988   */\n      0x02\n        /* \"#utility.yul\":16979:16985   */\n      dup9\n        /* \"#utility.yul\":16975:16989   */\n      mul\n        /* \"#utility.yul\":16971:16993   */\n      add\n        /* \"#utility.yul\":16965:16969   */\n      dup9\n        /* \"#utility.yul\":16958:16994   */\n      sstore\n        /* \"#utility.yul\":16393:17004   */\n      pop\n      pop\n      pop\n        /* \"#utility.yul\":16356:17243   */\n    tag_363:\n      pop\n        /* \"#utility.yul\":15946:17249   */\n      pop\n      pop\n      pop\n        /* \"#utility.yul\":15854:17249   */\n      pop\n      pop\n      jump\t// out\n        /* \"#utility.yul\":17255:17431   */\n    tag_192:\n        /* \"#utility.yul\":17395:17423   */\n      0x6e65772070726f6475637420646f6573206e6f74206578697374000000000000\n        /* \"#utility.yul\":17391:17392   */\n      0x00\n        /* \"#utility.yul\":17383:17389   */\n      dup3\n        /* \"#utility.yul\":17379:17393   */\n      add\n        /* \"#utility.yul\":17372:17424   */\n      mstore\n        /* \"#utility.yul\":17255:17431   */\n      pop\n      jump\t// out\n        /* \"#utility.yul\":17437:17803   */\n    tag_193:\n        /* \"#utility.yul\":17579:17582   */\n      0x00\n        /* \"#utility.yul\":17600:17667   */\n      tag_375\n        /* \"#utility.yul\":17664:17666   */\n      0x1a\n        /* \"#utility.yul\":17659:17662   */\n      dup4\n        /* \"#utility.yul\":17600:17667   */\n      tag_153\n      jump\t// in\n    tag_375:\n        /* \"#utility.yul\":17593:17667   */\n      swap2\n      pop\n        /* \"#utility.yul\":17676:17769   */\n      tag_376\n        /* \"#utility.yul\":17765:17768   */\n      dup3\n        /* \"#utility.yul\":17676:17769   */\n      tag_192\n      jump\t// in\n    tag_376:\n        /* \"#utility.yul\":17794:17796   */\n      0x20\n        /* \"#utility.yul\":17789:17792   */\n      dup3\n        /* \"#utility.yul\":17785:17797   */\n      add\n        /* \"#utility.yul\":17778:17797   */\n      swap1\n      pop\n        /* \"#utility.yul\":17437:17803   */\n      swap2\n      swap1\n      pop\n      jump\t// out\n        /* \"#utility.yul\":17809:18228   */\n    tag_101:\n        /* \"#utility.yul\":17975:17979   */\n      0x00\n        /* \"#utility.yul\":18013:18015   */\n      0x20\n        /* \"#utility.yul\":18002:18011   */\n      dup3\n        /* \"#utility.yul\":17998:18016   */\n      add\n        /* \"#utility.yul\":17990:18016   */\n      swap1\n      pop\n        /* \"#utility.yul\":18062:18071   */\n      dup2\n        /* \"#utility.yul\":18056:18060   */\n      dup2\n        /* \"#utility.yul\":18052:18072   */\n      sub\n        /* \"#utility.yul\":18048:18049   */\n      0x00\n        /* \"#utility.yul\":18037:18046   */\n      dup4\n        /* \"#utility.yul\":18033:18050   */\n      add\n        /* \"#utility.yul\":18026:18073   */\n      mstore\n        /* \"#utility.yul\":18090:18221   */\n      tag_378\n        /* \"#utility.yul\":18216:18220   */\n      dup2\n        /* \"#utility.yul\":18090:18221   */\n      tag_193\n      jump\t// in\n    tag_378:\n        /* \"#utility.yul\":18082:18221   */\n      swap1\n      pop\n        /* \"#utility.yul\":17809:18228   */\n      swap2\n      swap1\n      pop\n      jump\t// out\n        /* \"#utility.yul\":18234:18414   */\n    tag_194:\n        /* \"#utility.yul\":18282:18359   */\n      0x4e487b7100000000000000000000000000000000000000000000000000000000\n        /* \"#utility.yul\":18279:18280   */\n      0x00\n        /* \"#utility.yul\":18272:18360   */\n      mstore\n        /* \"#utility.yul\":18379:18383   */\n      0x11\n        /* \"#utility.yul\":18376:18377   */\n      0x04\n        /* \"#utility.yul\":18369:18384   */\n      mstore\n        /* \"#utility.yul\":18403:18407   */\n      0x24\n        /* \"#utility.yul\":18400:18401   */\n      0x00\n        /* \"#utility.yul\":18393:18408   */\n      revert\n        /* \"#utility.yul\":18420:18614   */\n    tag_104:\n        /* \"#utility.yul\":18460:18464   */\n      0x00\n        /* \"#utility.yul\":18480:18500   */\n      tag_381\n        /* \"#utility.yul\":18498:18499   */\n      dup3\n        /* \"#utility.yul\":18480:18500   */\n      tag_148\n      jump\t// in\n    tag_381:\n        /* \"#utility.yul\":18475:18500   */\n      swap2\n      pop\n        /* \"#utility.yul\":18514:18534   */\n      tag_382\n        /* \"#utility.yul\":18532:18533   */\n      dup4\n        /* \"#utility.yul\":18514:18534   */\n      tag_148\n      jump\t// in\n    tag_382:\n        /* \"#utility.yul\":18509:18534   */\n      swap3\n      pop\n        /* \"#utility.yul\":18558:18559   */\n      dup3\n        /* \"#utility.yul\":18555:18556   */\n      dup3\n        /* \"#utility.yul\":18551:18560   */\n      sub\n        /* \"#utility.yul\":18543:18560   */\n      swap1\n      pop\n        /* \"#utility.yul\":18582:18583   */\n      dup2\n        /* \"#utility.yul\":18576:18580   */\n      dup2\n        /* \"#utility.yul\":18573:18584   */\n      gt\n        /* \"#utility.yul\":18570:18607   */\n      iszero\n      tag_383\n      jumpi\n        /* \"#utility.yul\":18587:18605   */\n      tag_384\n      tag_194\n      jump\t// in\n    tag_384:\n        /* \"#utility.yul\":18570:18607   */\n    tag_383:\n        /* \"#utility.yul\":18420:18614   */\n      swap3\n      swap2\n      pop\n      pop\n      jump\t// out\n        /* \"#utility.yul\":18620:18800   */\n    tag_117:\n        /* \"#utility.yul\":18668:18745   */\n      0x4e487b7100000000000000000000000000000000000000000000000000000000\n        /* \"#utility.yul\":18665:18666   */\n      0x00\n        /* \"#utility.yul\":18658:18746   */\n      mstore\n        /* \"#utility.yul\":18765:18769   */\n      0x32\n        /* \"#utility.yul\":18762:18763   */\n      0x04\n        /* \"#utility.yul\":18755:18770   */\n      mstore\n        /* \"#utility.yul\":18789:18793   */\n      0x24\n        /* \"#utility.yul\":18786:18787   */\n      0x00\n        /* \"#utility.yul\":18779:18794   */\n      revert\n        /* \"#utility.yul\":18806:18955   */\n    tag_195:\n        /* \"#utility.yul\":18855:18861   */\n      0x00\n        /* \"#utility.yul\":18889:18894   */\n      dup2\n        /* \"#utility.yul\":18883:18895   */\n      sload\n        /* \"#utility.yul\":18873:18895   */\n      swap1\n      pop\n        /* \"#utility.yul\":18915:18948   */\n      tag_387\n        /* \"#utility.yul\":18941:18947   */\n      dup2\n        /* \"#utility.yul\":18915:18948   */\n      tag_52\n      jump\t// in\n    tag_387:\n        /* \"#utility.yul\":18905:18948   */\n      swap1\n      pop\n        /* \"#utility.yul\":18806:18955   */\n      swap2\n      swap1\n      pop\n      jump\t// out\n        /* \"#utility.yul\":18961:20412   */\n    tag_124:\n        /* \"#utility.yul\":19072:19075   */\n      dup2\n        /* \"#utility.yul\":19066:19070   */\n      dup2\n        /* \"#utility.yul\":19063:19076   */\n      sub\n        /* \"#utility.yul\":19060:19086   */\n      tag_389\n      jumpi\n        /* \"#utility.yul\":19079:19084   */\n      pop\n      pop\n      jump(tag_388)\n        /* \"#utility.yul\":19060:19086   */\n    tag_389:\n        /* \"#utility.yul\":19110:19144   */\n      tag_390\n        /* \"#utility.yul\":19140:19143   */\n      dup3\n        /* \"#utility.yul\":19110:19144   */\n      tag_195\n      jump\t// in\n    tag_390:\n        /* \"#utility.yul\":19209:19227   */\n      0xffffffffffffffff\n        /* \"#utility.yul\":19201:19207   */\n      dup2\n        /* \"#utility.yul\":19198:19228   */\n      gt\n        /* \"#utility.yul\":19195:19251   */\n      iszero\n      tag_391\n      jumpi\n        /* \"#utility.yul\":19231:19249   */\n      tag_392\n      tag_159\n      jump\t// in\n    tag_392:\n        /* \"#utility.yul\":19195:19251   */\n    tag_391:\n        /* \"#utility.yul\":19275:19313   */\n      tag_393\n        /* \"#utility.yul\":19307:19311   */\n      dup3\n        /* \"#utility.yul\":19301:19312   */\n      sload\n        /* \"#utility.yul\":19275:19313   */\n      tag_52\n      jump\t// in\n    tag_393:\n        /* \"#utility.yul\":19360:19427   */\n      tag_394\n        /* \"#utility.yul\":19420:19426   */\n      dup3\n        /* \"#utility.yul\":19412:19418   */\n      dup3\n        /* \"#utility.yul\":19406:19410   */\n      dup6\n        /* \"#utility.yul\":19360:19427   */\n      tag_188\n      jump\t// in\n    tag_394:\n        /* \"#utility.yul\":19454:19455   */\n      0x00\n        /* \"#utility.yul\":19483:19485   */\n      0x1f\n        /* \"#utility.yul\":19475:19481   */\n      dup4\n        /* \"#utility.yul\":19472:19486   */\n      gt\n        /* \"#utility.yul\":19500:19501   */\n      0x01\n        /* \"#utility.yul\":19495:20167   */\n      dup2\n      eq\n      tag_396\n      jumpi\n        /* \"#utility.yul\":20211:20212   */\n      0x00\n        /* \"#utility.yul\":20228:20234   */\n      dup5\n        /* \"#utility.yul\":20225:20302   */\n      iszero\n      tag_397\n      jumpi\n        /* \"#utility.yul\":20277:20286   */\n      dup3\n        /* \"#utility.yul\":20272:20275   */\n      dup8\n        /* \"#utility.yul\":20268:20287   */\n      add\n        /* \"#utility.yul\":20262:20288   */\n      sload\n        /* \"#utility.yul\":20253:20288   */\n      swap1\n      pop\n        /* \"#utility.yul\":20225:20302   */\n    tag_397:\n        /* \"#utility.yul\":20328:20395   */\n      tag_398\n        /* \"#utility.yul\":20388:20394   */\n      dup6\n        /* \"#utility.yul\":20381:20386   */\n      dup3\n        /* \"#utility.yul\":20328:20395   */\n      tag_191\n      jump\t// in\n    tag_398:\n        /* \"#utility.yul\":20322:20326   */\n      dup7\n        /* \"#utility.yul\":20315:20396   */\n      sstore\n        /* \"#utility.yul\":20184:20406   */\n      pop\n        /* \"#utility.yul\":19465:20406   */\n      jump(tag_395)\n        /* \"#utility.yul\":19495:20167   */\n    tag_396:\n        /* \"#utility.yul\":19547:19551   */\n      0x1f\n        /* \"#utility.yul\":19543:19552   */\n      not\n        /* \"#utility.yul\":19535:19541   */\n      dup5\n        /* \"#utility.yul\":19531:19553   */\n      and\n        /* \"#utility.yul\":19573:19609   */\n      tag_399\n        /* \"#utility.yul\":19605:19608   */\n      dup8\n        /* \"#utility.yul\":19573:19609   */\n      tag_177\n      jump\t// in\n    tag_399:\n        /* \"#utility.yul\":19566:19609   */\n      swap7\n      pop\n        /* \"#utility.yul\":19636:19673   */\n      tag_400\n        /* \"#utility.yul\":19668:19672   */\n      dup7\n        /* \"#utility.yul\":19636:19673   */\n      tag_177\n      jump\t// in\n    tag_400:\n        /* \"#utility.yul\":19695:19696   */\n      0x00\n        /* \"#utility.yul\":19709:19916   */\n    tag_401:\n        /* \"#utility.yul\":19723:19730   */\n      dup3\n        /* \"#utility.yul\":19720:19721   */\n      dup2\n        /* \"#utility.yul\":19717:19731   */\n      lt\n        /* \"#utility.yul\":19709:19916   */\n      iszero\n      tag_403\n      jumpi\n        /* \"#utility.yul\":19802:19811   */\n      dup5\n        /* \"#utility.yul\":19797:19800   */\n      dup10\n        /* \"#utility.yul\":19793:19812   */\n      add\n        /* \"#utility.yul\":19787:19813   */\n      sload\n        /* \"#utility.yul\":19779:19785   */\n      dup3\n        /* \"#utility.yul\":19772:19814   */\n      sstore\n        /* \"#utility.yul\":19853:19854   */\n      0x01\n        /* \"#utility.yul\":19845:19851   */\n      dup3\n        /* \"#utility.yul\":19841:19855   */\n      add\n        /* \"#utility.yul\":19831:19855   */\n      swap2\n      pop\n        /* \"#utility.yul\":19900:19901   */\n      0x01\n        /* \"#utility.yul\":19889:19898   */\n      dup6\n        /* \"#utility.yul\":19885:19902   */\n      add\n        /* \"#utility.yul\":19872:19902   */\n      swap5\n      pop\n        /* \"#utility.yul\":19746:19750   */\n      0x20\n        /* \"#utility.yul\":19743:19744   */\n      dup2\n        /* \"#utility.yul\":19739:19751   */\n      add\n        /* \"#utility.yul\":19734:19751   */\n      swap1\n      pop\n        /* \"#utility.yul\":19709:19916   */\n      jump(tag_401)\n    tag_403:\n        /* \"#utility.yul\":19944:19950   */\n      dup7\n        /* \"#utility.yul\":19935:19942   */\n      dup4\n        /* \"#utility.yul\":19932:19951   */\n      lt\n        /* \"#utility.yul\":19929:20108   */\n      iszero\n      tag_404\n      jumpi\n        /* \"#utility.yul\":20002:20011   */\n      dup5\n        /* \"#utility.yul\":19997:20000   */\n      dup10\n        /* \"#utility.yul\":19993:20012   */\n      add\n        /* \"#utility.yul\":19987:20013   */\n      sload\n        /* \"#utility.yul\":20045:20093   */\n      tag_405\n        /* \"#utility.yul\":20087:20091   */\n      0x1f\n        /* \"#utility.yul\":20079:20085   */\n      dup10\n        /* \"#utility.yul\":20075:20092   */\n      and\n        /* \"#utility.yul\":20064:20073   */\n      dup3\n        /* \"#utility.yul\":20045:20093   */\n      tag_190\n      jump\t// in\n    tag_405:\n        /* \"#utility.yul\":20037:20043   */\n      dup4\n        /* \"#utility.yul\":20030:20094   */\n      sstore\n        /* \"#utility.yul\":19952:20108   */\n      pop\n        /* \"#utility.yul\":19929:20108   */\n    tag_404:\n        /* \"#utility.yul\":20154:20155   */\n      0x01\n        /* \"#utility.yul\":20150:20151   */\n      0x02\n        /* \"#utility.yul\":20142:20148   */\n      dup9\n        /* \"#utility.yul\":20138:20152   */\n      mul\n        /* \"#utility.yul\":20134:20156   */\n      add\n        /* \"#utility.yul\":20128:20132   */\n      dup9\n        /* \"#utility.yul\":20121:20157   */\n      sstore\n        /* \"#utility.yul\":19502:20167   */\n      pop\n      pop\n      pop\n        /* \"#utility.yul\":19465:20406   */\n    tag_395:\n      pop\n        /* \"#utility.yul\":19050:20412   */\n      pop\n      pop\n      pop\n        /* \"#utility.yul\":18961:20412   */\n      pop\n      pop\n    tag_388:\n      jump\t// out\n        /* \"#utility.yul\":20418:20651   */\n    tag_126:\n        /* \"#utility.yul\":20457:20460   */\n      0x00\n        /* \"#utility.yul\":20480:20504   */\n      tag_407\n        /* \"#utility.yul\":20498:20503   */\n      dup3\n        /* \"#utility.yul\":20480:20504   */\n      tag_148\n      jump\t// in\n    tag_407:\n        /* \"#utility.yul\":20471:20504   */\n      swap2\n      pop\n        /* \"#utility.yul\":20526:20592   */\n      0xffffffffffffffffffffffffffffffffffffffffffffffffffffffffffffffff\n        /* \"#utility.yul\":20519:20524   */\n      dup3\n        /* \"#utility.yul\":20516:20593   */\n      sub\n        /* \"#utility.yul\":20513:20616   */\n      tag_408\n      jumpi\n        /* \"#utility.yul\":20596:20614   */\n      tag_409\n      tag_194\n      jump\t// in\n    tag_409:\n        /* \"#utility.yul\":20513:20616   */\n    tag_408:\n        /* \"#utility.yul\":20643:20644   */\n      0x01\n        /* \"#utility.yul\":20636:20641   */\n      dup3\n        /* \"#utility.yul\":20632:20645   */\n      add\n        /* \"#utility.yul\":20625:20645   */\n      swap1\n      pop\n        /* \"#utility.yul\":20418:20651   */\n      swap2\n      swap1\n      pop\n      jump\t// out\n        /* \"#utility.yul\":20657:20884   */\n    tag_196:\n        /* \"#utility.yul\":20797:20831   */\n      0x616d6f756e74206973206e6f7420656e6f75676820746f206275792074686973\n        /* \"#utility.yul\":20793:20794   */\n      0x00\n        /* \"#utility.yul\":20785:20791   */\n      dup3\n        /* \"#utility.yul\":20781:20795   */\n      add\n        /* \"#utility.yul\":20774:20832   */\n      mstore\n        /* \"#utility.yul\":20866:20876   */\n      0x2070726f64756374000000000000000000000000000000000000000000000000\n        /* \"#utility.yul\":20861:20863   */\n      0x20\n        /* \"#utility.yul\":20853:20859   */\n      dup3\n        /* \"#utility.yul\":20849:20864   */\n      add\n        /* \"#utility.yul\":20842:20877   */\n      mstore\n        /* \"#utility.yul\":20657:20884   */\n      pop\n      jump\t// out\n        /* \"#utility.yul\":20890:21256   */\n    tag_197:\n        /* \"#utility.yul\":21032:21035   */\n      0x00\n        /* \"#utility.yul\":21053:21120   */\n      tag_412\n        /* \"#utility.yul\":21117:21119   */\n      0x28\n        /* \"#utility.yul\":21112:21115   */\n      dup4\n        /* \"#utility.yul\":21053:21120   */\n      tag_153\n      jump\t// in\n    tag_412:\n        /* \"#utility.yul\":21046:21120   */\n      swap2\n      pop\n        /* \"#utility.yul\":21129:21222   */\n      tag_413\n        /* \"#utility.yul\":21218:21221   */\n      dup3\n        /* \"#utility.yul\":21129:21222   */\n      tag_196\n      jump\t// in\n    tag_413:\n        /* \"#utility.yul\":21247:21249   */\n      0x40\n        /* \"#utility.yul\":21242:21245   */\n      dup3\n        /* \"#utility.yul\":21238:21250   */\n      add\n        /* \"#utility.yul\":21231:21250   */\n      swap1\n      pop\n        /* \"#utility.yul\":20890:21256   */\n      swap2\n      swap1\n      pop\n      jump\t// out\n        /* \"#utility.yul\":21262:21681   */\n    tag_132:\n        /* \"#utility.yul\":21428:21432   */\n      0x00\n        /* \"#utility.yul\":21466:21468   */\n      0x20\n        /* \"#utility.yul\":21455:21464   */\n      dup3\n        /* \"#utility.yul\":21451:21469   */\n      add\n        /* \"#utility.yul\":21443:21469   */\n      swap1\n      pop\n        /* \"#utility.yul\":21515:21524   */\n      dup2\n        /* \"#utility.yul\":21509:21513   */\n      dup2\n        /* \"#utility.yul\":21505:21525   */\n      sub\n        /* \"#utility.yul\":21501:21502   */\n      0x00\n        /* \"#utility.yul\":21490:21499   */\n      dup4\n        /* \"#utility.yul\":21486:21503   */\n      add\n        /* \"#utility.yul\":21479:21526   */\n      mstore\n        /* \"#utility.yul\":21543:21674   */\n      tag_415\n        /* \"#utility.yul\":21669:21673   */\n      dup2\n        /* \"#utility.yul\":21543:21674   */\n      tag_197\n      jump\t// in\n    tag_415:\n        /* \"#utility.yul\":21535:21674   */\n      swap1\n      pop\n        /* \"#utility.yul\":21262:21681   */\n      swap2\n      swap1\n      pop\n      jump\t// out\n        /* \"#utility.yul\":21687:21865   */\n    tag_198:\n        /* \"#utility.yul\":21827:21857   */\n      0x746869732070726f64756374206973206f7574206f662073746f636b00000000\n        /* \"#utility.yul\":21823:21824   */\n      0x00\n        /* \"#utility.yul\":21815:21821   */\n      dup3\n        /* \"#utility.yul\":21811:21825   */\n      add\n        /* \"#utility.yul\":21804:21858   */\n      mstore\n        /* \"#utility.yul\":21687:21865   */\n      pop\n      jump\t// out\n        /* \"#utility.yul\":21871:22237   */\n    tag_199:\n        /* \"#utility.yul\":22013:22016   */\n      0x00\n        /* \"#utility.yul\":22034:22101   */\n      tag_418\n        /* \"#utility.yul\":22098:22100   */\n      0x1c\n        /* \"#utility.yul\":22093:22096   */\n      dup4\n        /* \"#utility.yul\":22034:22101   */\n      tag_153\n      jump\t// in\n    tag_418:\n        /* \"#utility.yul\":22027:22101   */\n      swap2\n      pop\n        /* \"#utility.yul\":22110:22203   */\n      tag_419\n        /* \"#utility.yul\":22199:22202   */\n      dup3\n        /* \"#utility.yul\":22110:22203   */\n      tag_198\n      jump\t// in\n    tag_419:\n        /* \"#utility.yul\":22228:22230   */\n      0x20\n        /* \"#utility.yul\":22223:22226   */\n      dup3\n        /* \"#utility.yul\":22219:22231   */\n      add\n        /* \"#utility.yul\":22212:22231   */\n      swap1\n      pop\n        /* \"#utility.yul\":21871:22237   */\n      swap2\n      swap1\n      pop\n      jump\t// out\n        /* \"#utility.yul\":22243:22662   */\n    tag_135:\n        /* \"#utility.yul\":22409:22413   */\n      0x00\n        /* \"#utility.yul\":22447:22449   */\n      0x20\n        /* \"#utility.yul\":22436:22445   */\n      dup3\n        /* \"#utility.yul\":22432:22450   */\n      add\n        /* \"#utility.yul\":22424:22450   */\n      swap1\n      pop\n        /* \"#utility.yul\":22496:22505   */\n      dup2\n        /* \"#utility.yul\":22490:22494   */\n      dup2\n        /* \"#utility.yul\":22486:22506   */\n      sub\n        /* \"#utility.yul\":22482:22483   */\n      0x00\n        /* \"#utility.yul\":22471:22480   */\n      dup4\n        /* \"#utility.yul\":22467:22484   */\n      add\n        /* \"#utility.yul\":22460:22507   */\n      mstore\n        /* \"#utility.yul\":22524:22655   */\n      tag_421\n        /* \"#utility.yul\":22650:22654   */\n      dup2\n        /* \"#utility.yul\":22524:22655   */\n      tag_199\n      jump\t// in\n    tag_421:\n        /* \"#utility.yul\":22516:22655   */\n      swap1\n      pop\n        /* \"#utility.yul\":22243:22662   */\n      swap2\n      swap1\n      pop\n      jump\t// out\n\n    auxdata: 0xa2646970667358221220ab32c82d817f65c6611451dce1f394d0651d5438e088f043c7edcc614b64a0d964736f6c63430008120033\n}\n",
				"bytecode": {
					"linkReferences": {},
					"object": "608060405234801561001057600080fd5b5033600260006101000a81548173ffffffffffffffffffffffffffffffffffffffff021916908373ffffffffffffffffffffffffffffffffffffffff160217905550611b8a806100616000396000f3fe60806040526004361061007b5760003560e01c8063b9db15b41161004e578063b9db15b414610152578063c27ed2a214610192578063e81cf24c146101bb578063efef39a1146101d75761007b565b80635b1dc14f146100805780637acc0b20146100c057806382367b2d146101005780639dfc3dd114610129575b600080fd5b34801561008c57600080fd5b506100a760048036038101906100a29190610f56565b6101f3565b6040516100b79493929190611035565b60405180910390f35b3480156100cc57600080fd5b506100e760048036038101906100e29190611081565b6102c8565b6040516100f79493929190611035565b60405180910390f35b34801561010c57600080fd5b50610127600480360381019061012291906110ae565b610380565b005b34801561013557600080fd5b50610150600480360381019061014b91906110ae565b61051f565b005b34801561015e57600080fd5b5061017960048036038101906101749190611081565b6106be565b6040516101899493929190611035565b60405180910390f35b34801561019e57600080fd5b506101b960048036038101906101b49190611223565b6107b7565b005b6101d560048036038101906101d091906110ae565b6108b7565b005b6101f160048036038101906101ec9190611081565b610c58565b005b6001602052816000526040600020818154811061020f57600080fd5b906000526020600020906004020160009150915050806000015490806001018054610239906112d5565b80601f0160208091040260200160405190810160405280929190818152602001828054610265906112d5565b80156102b25780601f10610287576101008083540402835291602001916102b2565b820191906000526020600020905b81548152906001019060200180831161029557829003601f168201915b5050505050908060020154908060030154905084565b60006020528060005260406000206000915090508060000154908060010180546102f1906112d5565b80601f016020809104026020016040519081016040528092919081815260200182805461031d906112d5565b801561036a5780601f1061033f5761010080835404028352916020019161036a565b820191906000526020600020905b81548152906001019060200180831161034d57829003601f168201915b5050505050908060020154908060030154905084565b600260009054906101000a900473ffffffffffffffffffffffffffffffffffffffff1673ffffffffffffffffffffffffffffffffffffffff163373ffffffffffffffffffffffffffffffffffffffff1614610410576040517f08c379a000000000000000000000000000000000000000000000000000000000815260040161040790611352565b60405180910390fd5b600080838152602001908152602001600020600001548214610467576040517f08c379a000000000000000000000000000000000000000000000000000000000815260040161045e906113be565b60405180910390fd5b600081116104aa576040517f08c379a00000000000000000000000000000000000000000000000000000000081526004016104a190611450565b60405180910390fd5b600080838152602001908152602001600020600201548103610501576040517f08c379a00000000000000000000000000000000000000000000000000000000081526004016104f8906114e2565b60405180910390fd5b80600080848152602001908152602001600020600201819055505050565b600260009054906101000a900473ffffffffffffffffffffffffffffffffffffffff1673ffffffffffffffffffffffffffffffffffffffff163373ffffffffffffffffffffffffffffffffffffffff16146105af576040517f08c379a00000000000000000000000000000000000000000000000000000000081526004016105a690611352565b60405180910390fd5b600080838152602001908152602001600020600001548214610606576040517f08c379a00000000000000000000000000000000000000000000000000000000081526004016105fd906113be565b60405180910390fd5b60008111610649576040517f08c379a000000000000000000000000000000000000000000000000000000000815260040161064090611450565b60405180910390fd5b6000808381526020019081526020016000206003015481036106a0576040517f08c379a000000000000000000000000000000000000000000000000000000000815260040161069790611574565b60405180910390fd5b80600080848152602001908152602001600020600301819055505050565b60006060600080600080868152602001908152602001600020600001546000808781526020019081526020016000206001016000808881526020019081526020016000206002015460008089815260200190815260200160002060030154828054610728906112d5565b80601f0160208091040260200160405190810160405280929190818152602001828054610754906112d5565b80156107a15780601f10610776576101008083540402835291602001916107a1565b820191906000526020600020905b81548152906001019060200180831161078457829003601f168201915b5050505050925093509350935093509193509193565b600260009054906101000a900473ffffffffffffffffffffffffffffffffffffffff1673ffffffffffffffffffffffffffffffffffffffff163373ffffffffffffffffffffffffffffffffffffffff1614610847576040517f08c379a000000000000000000000000000000000000000000000000000000000815260040161083e90611352565b60405180910390fd5b6040518060800160405280858152602001848152602001838152602001828152506000808681526020019081526020016000206000820151816000015560208201518160010190816108999190611740565b50604082015181600201556060820151816003015590505050505050565b60008083815260200190815260200160002060000154821461090e576040517f08c379a0000000000000000000000000000000000000000000000000000000008152600401610905906113be565b60405180910390fd5b60008103610951576040517f08c379a00000000000000000000000000000000000000000000000000000000081526004016109489061185e565b60405180910390fd5b60008083815260200190815260200160002060020154600080838152602001908152602001600020600201541115610a2c57600080600084815260200190815260200160002060020154600080848152602001908152602001600020600201546109bb91906118ad565b9050600260009054906101000a900473ffffffffffffffffffffffffffffffffffffffff1673ffffffffffffffffffffffffffffffffffffffff166108fc829081150290604051600060405180830381858888f19350505050158015610a25573d6000803e3d6000fd5b5050610ae2565b60008082815260200190815260200160002060020154600080848152602001908152602001600020600201541115610ae15760008060008381526020019081526020016000206002015460008085815260200190815260200160002060020154610a9691906118ad565b90503373ffffffffffffffffffffffffffffffffffffffff166108fc829081150290604051600060405180830381858888f19350505050158015610ade573d6000803e3d6000fd5b50505b5b60005b600160003373ffffffffffffffffffffffffffffffffffffffff1673ffffffffffffffffffffffffffffffffffffffff16815260200190815260200160002080549050811015610c5357600160003373ffffffffffffffffffffffffffffffffffffffff1673ffffffffffffffffffffffffffffffffffffffff1681526020019081526020016000208181548110610b8057610b7f6118e1565b5b9060005260206000209060040201600001548303610c4057600080838152602001908152602001600020600160003373ffffffffffffffffffffffffffffffffffffffff1673ffffffffffffffffffffffffffffffffffffffff1681526020019081526020016000208281548110610bfb57610bfa6118e1565b5b90600052602060002090600402016000820154816000015560018201816001019081610c279190611926565b5060028201548160020155600382015481600301559050505b8080610c4b90611a0e565b915050610ae5565b505050565b60008060008381526020019081526020016000206000015403610cb0576040517f08c379a0000000000000000000000000000000000000000000000000000000008152600401610ca7906113be565b60405180910390fd5b60008082815260200190815260200160002060020154341015610d08576040517f08c379a0000000000000000000000000000000000000000000000000000000008152600401610cff90611ac8565b60405180910390fd5b60008060008381526020019081526020016000206003015403610d60576040517f08c379a0000000000000000000000000000000000000000000000000000000008152600401610d5790611b34565b60405180910390fd5b60008060008381526020019081526020016000209050600160003373ffffffffffffffffffffffffffffffffffffffff1673ffffffffffffffffffffffffffffffffffffffff1681526020019081526020016000208190806001815401808255809150506001900390600052602060002090600402016000909190919091506000820154816000015560018201816001019081610dfd9190611926565b5060028201548160020155600382015481600301555050600260009054906101000a900473ffffffffffffffffffffffffffffffffffffffff1673ffffffffffffffffffffffffffffffffffffffff166108fc349081150290604051600060405180830381858888f19350505050158015610e7c573d6000803e3d6000fd5b5060016000808481526020019081526020016000206003016000828254610ea391906118ad565b925050819055505050565b6000604051905090565b600080fd5b600080fd5b600073ffffffffffffffffffffffffffffffffffffffff82169050919050565b6000610eed82610ec2565b9050919050565b610efd81610ee2565b8114610f0857600080fd5b50565b600081359050610f1a81610ef4565b92915050565b6000819050919050565b610f3381610f20565b8114610f3e57600080fd5b50565b600081359050610f5081610f2a565b92915050565b60008060408385031215610f6d57610f6c610eb8565b5b6000610f7b85828601610f0b565b9250506020610f8c85828601610f41565b9150509250929050565b610f9f81610f20565b82525050565b600081519050919050565b600082825260208201905092915050565b60005b83811015610fdf578082015181840152602081019050610fc4565b60008484015250505050565b6000601f19601f8301169050919050565b600061100782610fa5565b6110118185610fb0565b9350611021818560208601610fc1565b61102a81610feb565b840191505092915050565b600060808201905061104a6000830187610f96565b818103602083015261105c8186610ffc565b905061106b6040830185610f96565b6110786060830184610f96565b95945050505050565b60006020828403121561109757611096610eb8565b5b60006110a584828501610f41565b91505092915050565b600080604083850312156110c5576110c4610eb8565b5b60006110d385828601610f41565b92505060206110e485828601610f41565b9150509250929050565b600080fd5b600080fd5b7f4e487b7100000000000000000000000000000000000000000000000000000000600052604160045260246000fd5b61113082610feb565b810181811067ffffffffffffffff8211171561114f5761114e6110f8565b5b80604052505050565b6000611162610eae565b905061116e8282611127565b919050565b600067ffffffffffffffff82111561118e5761118d6110f8565b5b61119782610feb565b9050602081019050919050565b82818337600083830152505050565b60006111c66111c184611173565b611158565b9050828152602081018484840111156111e2576111e16110f3565b5b6111ed8482856111a4565b509392505050565b600082601f83011261120a576112096110ee565b5b813561121a8482602086016111b3565b91505092915050565b6000806000806080858703121561123d5761123c610eb8565b5b600061124b87828801610f41565b945050602085013567ffffffffffffffff81111561126c5761126b610ebd565b5b611278878288016111f5565b935050604061128987828801610f41565b925050606061129a87828801610f41565b91505092959194509250565b7f4e487b7100000000000000000000000000000000000000000000000000000000600052602260045260246000fd5b600060028204905060018216806112ed57607f821691505b602082108103611300576112ff6112a6565b5b50919050565b7f796f7520617265206e6f7420746865206f776e65720000000000000000000000600082015250565b600061133c601583610fb0565b915061134782611306565b602082019050919050565b6000602082019050818103600083015261136b8161132f565b9050919050565b7f746869732070726f64756374206973206e6f7420617661696c61626c65000000600082015250565b60006113a8601d83610fb0565b91506113b382611372565b602082019050919050565b600060208201905081810360008301526113d78161139b565b9050919050565b7f70726963652073686f756c642062652067726561746572207468616e207a657260008201527f6f00000000000000000000000000000000000000000000000000000000000000602082015250565b600061143a602183610fb0565b9150611445826113de565b604082019050919050565b600060208201905081810360008301526114698161142d565b9050919050565b7f6e6f206368616e67657320696e207072696365202e706c6561736520656e746560008201527f72206e6577207072696365000000000000000000000000000000000000000000602082015250565b60006114cc602b83610fb0565b91506114d782611470565b604082019050919050565b600060208201905081810360008301526114fb816114bf565b9050919050565b7f6e6f206368616e67657320696e2073746f636b202e706c6561736520656e746560008201527f72206e65772073746f636b2076616c7565000000000000000000000000000000602082015250565b600061155e603183610fb0565b915061156982611502565b604082019050919050565b6000602082019050818103600083015261158d81611551565b9050919050565b60008190508160005260206000209050919050565b60006020601f8301049050919050565b600082821b905092915050565b6000600883026115f67fffffffffffffffffffffffffffffffffffffffffffffffffffffffffffffffff826115b9565b61160086836115b9565b95508019841693508086168417925050509392505050565b6000819050919050565b600061163d61163861163384610f20565b611618565b610f20565b9050919050565b6000819050919050565b61165783611622565b61166b61166382611644565b8484546115c6565b825550505050565b600090565b611680611673565b61168b81848461164e565b505050565b5b818110156116af576116a4600082611678565b600181019050611691565b5050565b601f8211156116f4576116c581611594565b6116ce846115a9565b810160208510156116dd578190505b6116f16116e9856115a9565b830182611690565b50505b505050565b600082821c905092915050565b6000611717600019846008026116f9565b1980831691505092915050565b60006117308383611706565b9150826002028217905092915050565b61174982610fa5565b67ffffffffffffffff811115611762576117616110f8565b5b61176c82546112d5565b6117778282856116b3565b600060209050601f8311600181146117aa5760008415611798578287015190505b6117a28582611724565b86555061180a565b601f1984166117b886611594565b60005b828110156117e0578489015182556001820191506020850194506020810190506117bb565b868310156117fd57848901516117f9601f891682611706565b8355505b6001600288020188555050505b505050505050565b7f6e65772070726f6475637420646f6573206e6f74206578697374000000000000600082015250565b6000611848601a83610fb0565b915061185382611812565b602082019050919050565b600060208201905081810360008301526118778161183b565b9050919050565b7f4e487b7100000000000000000000000000000000000000000000000000000000600052601160045260246000fd5b60006118b882610f20565b91506118c383610f20565b92508282039050818111156118db576118da61187e565b5b92915050565b7f4e487b7100000000000000000000000000000000000000000000000000000000600052603260045260246000fd5b60008154905061191f816112d5565b9050919050565b818103611934575050611a0c565b61193d82611910565b67ffffffffffffffff811115611956576119556110f8565b5b61196082546112d5565b61196b8282856116b3565b6000601f83116001811461199a5760008415611988578287015490505b6119928582611724565b865550611a05565b601f1984166119a887611594565b96506119b386611594565b60005b828110156119db578489015482556001820191506001850194506020810190506119b6565b868310156119f857848901546119f4601f891682611706565b8355505b6001600288020188555050505b5050505050505b565b6000611a1982610f20565b91507fffffffffffffffffffffffffffffffffffffffffffffffffffffffffffffffff8203611a4b57611a4a61187e565b5b600182019050919050565b7f616d6f756e74206973206e6f7420656e6f75676820746f20627579207468697360008201527f2070726f64756374000000000000000000000000000000000000000000000000602082015250565b6000611ab2602883610fb0565b9150611abd82611a56565b604082019050919050565b60006020820190508181036000830152611ae181611aa5565b9050919050565b7f746869732070726f64756374206973206f7574206f662073746f636b00000000600082015250565b6000611b1e601c83610fb0565b9150611b2982611ae8565b602082019050919050565b60006020820190508181036000830152611b4d81611b11565b905091905056fea2646970667358221220ab32c82d817f65c6611451dce1f394d0651d5438e088f043c7edcc614b64a0d964736f6c63430008120033",
					"opcodes": "PUSH1 0x80 PUSH1 0x40 MSTORE CALLVALUE DUP1 ISZERO PUSH2 0x10 JUMPI PUSH1 0x0 DUP1 REVERT JUMPDEST POP CALLER PUSH1 0x2 PUSH1 0x0 PUSH2 0x100 EXP DUP2 SLOAD DUP2 PUSH20 0xFFFFFFFFFFFFFFFFFFFFFFFFFFFFFFFFFFFFFFFF MUL NOT AND SWAP1 DUP4 PUSH20 0xFFFFFFFFFFFFFFFFFFFFFFFFFFFFFFFFFFFFFFFF AND MUL OR SWAP1 SSTORE POP PUSH2 0x1B8A DUP1 PUSH2 0x61 PUSH1 0x0 CODECOPY PUSH1 0x0 RETURN INVALID PUSH1 0x80 PUSH1 0x40 MSTORE PUSH1 0x4 CALLDATASIZE LT PUSH2 0x7B JUMPI PUSH1 0x0 CALLDATALOAD PUSH1 0xE0 SHR DUP1 PUSH4 0xB9DB15B4 GT PUSH2 0x4E JUMPI DUP1 PUSH4 0xB9DB15B4 EQ PUSH2 0x152 JUMPI DUP1 PUSH4 0xC27ED2A2 EQ PUSH2 0x192 JUMPI DUP1 PUSH4 0xE81CF24C EQ PUSH2 0x1BB JUMPI DUP1 PUSH4 0xEFEF39A1 EQ PUSH2 0x1D7 JUMPI PUSH2 0x7B JUMP JUMPDEST DUP1 PUSH4 0x5B1DC14F EQ PUSH2 0x80 JUMPI DUP1 PUSH4 0x7ACC0B20 EQ PUSH2 0xC0 JUMPI DUP1 PUSH4 0x82367B2D EQ PUSH2 0x100 JUMPI DUP1 PUSH4 0x9DFC3DD1 EQ PUSH2 0x129 JUMPI JUMPDEST PUSH1 0x0 DUP1 REVERT JUMPDEST CALLVALUE DUP1 ISZERO PUSH2 0x8C JUMPI PUSH1 0x0 DUP1 REVERT JUMPDEST POP PUSH2 0xA7 PUSH1 0x4 DUP1 CALLDATASIZE SUB DUP2 ADD SWAP1 PUSH2 0xA2 SWAP2 SWAP1 PUSH2 0xF56 JUMP JUMPDEST PUSH2 0x1F3 JUMP JUMPDEST PUSH1 0x40 MLOAD PUSH2 0xB7 SWAP5 SWAP4 SWAP3 SWAP2 SWAP1 PUSH2 0x1035 JUMP JUMPDEST PUSH1 0x40 MLOAD DUP1 SWAP2 SUB SWAP1 RETURN JUMPDEST CALLVALUE DUP1 ISZERO PUSH2 0xCC JUMPI PUSH1 0x0 DUP1 REVERT JUMPDEST POP PUSH2 0xE7 PUSH1 0x4 DUP1 CALLDATASIZE SUB DUP2 ADD SWAP1 PUSH2 0xE2 SWAP2 SWAP1 PUSH2 0x1081 JUMP JUMPDEST PUSH2 0x2C8 JUMP JUMPDEST PUSH1 0x40 MLOAD PUSH2 0xF7 SWAP5 SWAP4 SWAP3 SWAP2 SWAP1 PUSH2 0x1035 JUMP JUMPDEST PUSH1 0x40 MLOAD DUP1 SWAP2 SUB SWAP1 RETURN JUMPDEST CALLVALUE DUP1 ISZERO PUSH2 0x10C JUMPI PUSH1 0x0 DUP1 REVERT JUMPDEST POP PUSH2 0x127 PUSH1 0x4 DUP1 CALLDATASIZE SUB DUP2 ADD SWAP1 PUSH2 0x122 SWAP2 SWAP1 PUSH2 0x10AE JUMP JUMPDEST PUSH2 0x380 JUMP JUMPDEST STOP JUMPDEST CALLVALUE DUP1 ISZERO PUSH2 0x135 JUMPI PUSH1 0x0 DUP1 REVERT JUMPDEST POP PUSH2 0x150 PUSH1 0x4 DUP1 CALLDATASIZE SUB DUP2 ADD SWAP1 PUSH2 0x14B SWAP2 SWAP1 PUSH2 0x10AE JUMP JUMPDEST PUSH2 0x51F JUMP JUMPDEST STOP JUMPDEST CALLVALUE DUP1 ISZERO PUSH2 0x15E JUMPI PUSH1 0x0 DUP1 REVERT JUMPDEST POP PUSH2 0x179 PUSH1 0x4 DUP1 CALLDATASIZE SUB DUP2 ADD SWAP1 PUSH2 0x174 SWAP2 SWAP1 PUSH2 0x1081 JUMP JUMPDEST PUSH2 0x6BE JUMP JUMPDEST PUSH1 0x40 MLOAD PUSH2 0x189 SWAP5 SWAP4 SWAP3 SWAP2 SWAP1 PUSH2 0x1035 JUMP JUMPDEST PUSH1 0x40 MLOAD DUP1 SWAP2 SUB SWAP1 RETURN JUMPDEST CALLVALUE DUP1 ISZERO PUSH2 0x19E JUMPI PUSH1 0x0 DUP1 REVERT JUMPDEST POP PUSH2 0x1B9 PUSH1 0x4 DUP1 CALLDATASIZE SUB DUP2 ADD SWAP1 PUSH2 0x1B4 SWAP2 SWAP1 PUSH2 0x1223 JUMP JUMPDEST PUSH2 0x7B7 JUMP JUMPDEST STOP JUMPDEST PUSH2 0x1D5 PUSH1 0x4 DUP1 CALLDATASIZE SUB DUP2 ADD SWAP1 PUSH2 0x1D0 SWAP2 SWAP1 PUSH2 0x10AE JUMP JUMPDEST PUSH2 0x8B7 JUMP JUMPDEST STOP JUMPDEST PUSH2 0x1F1 PUSH1 0x4 DUP1 CALLDATASIZE SUB DUP2 ADD SWAP1 PUSH2 0x1EC SWAP2 SWAP1 PUSH2 0x1081 JUMP JUMPDEST PUSH2 0xC58 JUMP JUMPDEST STOP JUMPDEST PUSH1 0x1 PUSH1 0x20 MSTORE DUP2 PUSH1 0x0 MSTORE PUSH1 0x40 PUSH1 0x0 KECCAK256 DUP2 DUP2 SLOAD DUP2 LT PUSH2 0x20F JUMPI PUSH1 0x0 DUP1 REVERT JUMPDEST SWAP1 PUSH1 0x0 MSTORE PUSH1 0x20 PUSH1 0x0 KECCAK256 SWAP1 PUSH1 0x4 MUL ADD PUSH1 0x0 SWAP2 POP SWAP2 POP POP DUP1 PUSH1 0x0 ADD SLOAD SWAP1 DUP1 PUSH1 0x1 ADD DUP1 SLOAD PUSH2 0x239 SWAP1 PUSH2 0x12D5 JUMP JUMPDEST DUP1 PUSH1 0x1F ADD PUSH1 0x20 DUP1 SWAP2 DIV MUL PUSH1 0x20 ADD PUSH1 0x40 MLOAD SWAP1 DUP2 ADD PUSH1 0x40 MSTORE DUP1 SWAP3 SWAP2 SWAP1 DUP2 DUP2 MSTORE PUSH1 0x20 ADD DUP3 DUP1 SLOAD PUSH2 0x265 SWAP1 PUSH2 0x12D5 JUMP JUMPDEST DUP1 ISZERO PUSH2 0x2B2 JUMPI DUP1 PUSH1 0x1F LT PUSH2 0x287 JUMPI PUSH2 0x100 DUP1 DUP4 SLOAD DIV MUL DUP4 MSTORE SWAP2 PUSH1 0x20 ADD SWAP2 PUSH2 0x2B2 JUMP JUMPDEST DUP3 ADD SWAP2 SWAP1 PUSH1 0x0 MSTORE PUSH1 0x20 PUSH1 0x0 KECCAK256 SWAP1 JUMPDEST DUP2 SLOAD DUP2 MSTORE SWAP1 PUSH1 0x1 ADD SWAP1 PUSH1 0x20 ADD DUP1 DUP4 GT PUSH2 0x295 JUMPI DUP3 SWAP1 SUB PUSH1 0x1F AND DUP3 ADD SWAP2 JUMPDEST POP POP POP POP POP SWAP1 DUP1 PUSH1 0x2 ADD SLOAD SWAP1 DUP1 PUSH1 0x3 ADD SLOAD SWAP1 POP DUP5 JUMP JUMPDEST PUSH1 0x0 PUSH1 0x20 MSTORE DUP1 PUSH1 0x0 MSTORE PUSH1 0x40 PUSH1 0x0 KECCAK256 PUSH1 0x0 SWAP2 POP SWAP1 POP DUP1 PUSH1 0x0 ADD SLOAD SWAP1 DUP1 PUSH1 0x1 ADD DUP1 SLOAD PUSH2 0x2F1 SWAP1 PUSH2 0x12D5 JUMP JUMPDEST DUP1 PUSH1 0x1F ADD PUSH1 0x20 DUP1 SWAP2 DIV MUL PUSH1 0x20 ADD PUSH1 0x40 MLOAD SWAP1 DUP2 ADD PUSH1 0x40 MSTORE DUP1 SWAP3 SWAP2 SWAP1 DUP2 DUP2 MSTORE PUSH1 0x20 ADD DUP3 DUP1 SLOAD PUSH2 0x31D SWAP1 PUSH2 0x12D5 JUMP JUMPDEST DUP1 ISZERO PUSH2 0x36A JUMPI DUP1 PUSH1 0x1F LT PUSH2 0x33F JUMPI PUSH2 0x100 DUP1 DUP4 SLOAD DIV MUL DUP4 MSTORE SWAP2 PUSH1 0x20 ADD SWAP2 PUSH2 0x36A JUMP JUMPDEST DUP3 ADD SWAP2 SWAP1 PUSH1 0x0 MSTORE PUSH1 0x20 PUSH1 0x0 KECCAK256 SWAP1 JUMPDEST DUP2 SLOAD DUP2 MSTORE SWAP1 PUSH1 0x1 ADD SWAP1 PUSH1 0x20 ADD DUP1 DUP4 GT PUSH2 0x34D JUMPI DUP3 SWAP1 SUB PUSH1 0x1F AND DUP3 ADD SWAP2 JUMPDEST POP POP POP POP POP SWAP1 DUP1 PUSH1 0x2 ADD SLOAD SWAP1 DUP1 PUSH1 0x3 ADD SLOAD SWAP1 POP DUP5 JUMP JUMPDEST PUSH1 0x2 PUSH1 0x0 SWAP1 SLOAD SWAP1 PUSH2 0x100 EXP SWAP1 DIV PUSH20 0xFFFFFFFFFFFFFFFFFFFFFFFFFFFFFFFFFFFFFFFF AND PUSH20 0xFFFFFFFFFFFFFFFFFFFFFFFFFFFFFFFFFFFFFFFF AND CALLER PUSH20 0xFFFFFFFFFFFFFFFFFFFFFFFFFFFFFFFFFFFFFFFF AND EQ PUSH2 0x410 JUMPI PUSH1 0x40 MLOAD PUSH32 0x8C379A000000000000000000000000000000000000000000000000000000000 DUP2 MSTORE PUSH1 0x4 ADD PUSH2 0x407 SWAP1 PUSH2 0x1352 JUMP JUMPDEST PUSH1 0x40 MLOAD DUP1 SWAP2 SUB SWAP1 REVERT JUMPDEST PUSH1 0x0 DUP1 DUP4 DUP2 MSTORE PUSH1 0x20 ADD SWAP1 DUP2 MSTORE PUSH1 0x20 ADD PUSH1 0x0 KECCAK256 PUSH1 0x0 ADD SLOAD DUP3 EQ PUSH2 0x467 JUMPI PUSH1 0x40 MLOAD PUSH32 0x8C379A000000000000000000000000000000000000000000000000000000000 DUP2 MSTORE PUSH1 0x4 ADD PUSH2 0x45E SWAP1 PUSH2 0x13BE JUMP JUMPDEST PUSH1 0x40 MLOAD DUP1 SWAP2 SUB SWAP1 REVERT JUMPDEST PUSH1 0x0 DUP2 GT PUSH2 0x4AA JUMPI PUSH1 0x40 MLOAD PUSH32 0x8C379A000000000000000000000000000000000000000000000000000000000 DUP2 MSTORE PUSH1 0x4 ADD PUSH2 0x4A1 SWAP1 PUSH2 0x1450 JUMP JUMPDEST PUSH1 0x40 MLOAD DUP1 SWAP2 SUB SWAP1 REVERT JUMPDEST PUSH1 0x0 DUP1 DUP4 DUP2 MSTORE PUSH1 0x20 ADD SWAP1 DUP2 MSTORE PUSH1 0x20 ADD PUSH1 0x0 KECCAK256 PUSH1 0x2 ADD SLOAD DUP2 SUB PUSH2 0x501 JUMPI PUSH1 0x40 MLOAD PUSH32 0x8C379A000000000000000000000000000000000000000000000000000000000 DUP2 MSTORE PUSH1 0x4 ADD PUSH2 0x4F8 SWAP1 PUSH2 0x14E2 JUMP JUMPDEST PUSH1 0x40 MLOAD DUP1 SWAP2 SUB SWAP1 REVERT JUMPDEST DUP1 PUSH1 0x0 DUP1 DUP5 DUP2 MSTORE PUSH1 0x20 ADD SWAP1 DUP2 MSTORE PUSH1 0x20 ADD PUSH1 0x0 KECCAK256 PUSH1 0x2 ADD DUP2 SWAP1 SSTORE POP POP POP JUMP JUMPDEST PUSH1 0x2 PUSH1 0x0 SWAP1 SLOAD SWAP1 PUSH2 0x100 EXP SWAP1 DIV PUSH20 0xFFFFFFFFFFFFFFFFFFFFFFFFFFFFFFFFFFFFFFFF AND PUSH20 0xFFFFFFFFFFFFFFFFFFFFFFFFFFFFFFFFFFFFFFFF AND CALLER PUSH20 0xFFFFFFFFFFFFFFFFFFFFFFFFFFFFFFFFFFFFFFFF AND EQ PUSH2 0x5AF JUMPI PUSH1 0x40 MLOAD PUSH32 0x8C379A000000000000000000000000000000000000000000000000000000000 DUP2 MSTORE PUSH1 0x4 ADD PUSH2 0x5A6 SWAP1 PUSH2 0x1352 JUMP JUMPDEST PUSH1 0x40 MLOAD DUP1 SWAP2 SUB SWAP1 REVERT JUMPDEST PUSH1 0x0 DUP1 DUP4 DUP2 MSTORE PUSH1 0x20 ADD SWAP1 DUP2 MSTORE PUSH1 0x20 ADD PUSH1 0x0 KECCAK256 PUSH1 0x0 ADD SLOAD DUP3 EQ PUSH2 0x606 JUMPI PUSH1 0x40 MLOAD PUSH32 0x8C379A000000000000000000000000000000000000000000000000000000000 DUP2 MSTORE PUSH1 0x4 ADD PUSH2 0x5FD SWAP1 PUSH2 0x13BE JUMP JUMPDEST PUSH1 0x40 MLOAD DUP1 SWAP2 SUB SWAP1 REVERT JUMPDEST PUSH1 0x0 DUP2 GT PUSH2 0x649 JUMPI PUSH1 0x40 MLOAD PUSH32 0x8C379A000000000000000000000000000000000000000000000000000000000 DUP2 MSTORE PUSH1 0x4 ADD PUSH2 0x640 SWAP1 PUSH2 0x1450 JUMP JUMPDEST PUSH1 0x40 MLOAD DUP1 SWAP2 SUB SWAP1 REVERT JUMPDEST PUSH1 0x0 DUP1 DUP4 DUP2 MSTORE PUSH1 0x20 ADD SWAP1 DUP2 MSTORE PUSH1 0x20 ADD PUSH1 0x0 KECCAK256 PUSH1 0x3 ADD SLOAD DUP2 SUB PUSH2 0x6A0 JUMPI PUSH1 0x40 MLOAD PUSH32 0x8C379A000000000000000000000000000000000000000000000000000000000 DUP2 MSTORE PUSH1 0x4 ADD PUSH2 0x697 SWAP1 PUSH2 0x1574 JUMP JUMPDEST PUSH1 0x40 MLOAD DUP1 SWAP2 SUB SWAP1 REVERT JUMPDEST DUP1 PUSH1 0x0 DUP1 DUP5 DUP2 MSTORE PUSH1 0x20 ADD SWAP1 DUP2 MSTORE PUSH1 0x20 ADD PUSH1 0x0 KECCAK256 PUSH1 0x3 ADD DUP2 SWAP1 SSTORE POP POP POP JUMP JUMPDEST PUSH1 0x0 PUSH1 0x60 PUSH1 0x0 DUP1 PUSH1 0x0 DUP1 DUP7 DUP2 MSTORE PUSH1 0x20 ADD SWAP1 DUP2 MSTORE PUSH1 0x20 ADD PUSH1 0x0 KECCAK256 PUSH1 0x0 ADD SLOAD PUSH1 0x0 DUP1 DUP8 DUP2 MSTORE PUSH1 0x20 ADD SWAP1 DUP2 MSTORE PUSH1 0x20 ADD PUSH1 0x0 KECCAK256 PUSH1 0x1 ADD PUSH1 0x0 DUP1 DUP9 DUP2 MSTORE PUSH1 0x20 ADD SWAP1 DUP2 MSTORE PUSH1 0x20 ADD PUSH1 0x0 KECCAK256 PUSH1 0x2 ADD SLOAD PUSH1 0x0 DUP1 DUP10 DUP2 MSTORE PUSH1 0x20 ADD SWAP1 DUP2 MSTORE PUSH1 0x20 ADD PUSH1 0x0 KECCAK256 PUSH1 0x3 ADD SLOAD DUP3 DUP1 SLOAD PUSH2 0x728 SWAP1 PUSH2 0x12D5 JUMP JUMPDEST DUP1 PUSH1 0x1F ADD PUSH1 0x20 DUP1 SWAP2 DIV MUL PUSH1 0x20 ADD PUSH1 0x40 MLOAD SWAP1 DUP2 ADD PUSH1 0x40 MSTORE DUP1 SWAP3 SWAP2 SWAP1 DUP2 DUP2 MSTORE PUSH1 0x20 ADD DUP3 DUP1 SLOAD PUSH2 0x754 SWAP1 PUSH2 0x12D5 JUMP JUMPDEST DUP1 ISZERO PUSH2 0x7A1 JUMPI DUP1 PUSH1 0x1F LT PUSH2 0x776 JUMPI PUSH2 0x100 DUP1 DUP4 SLOAD DIV MUL DUP4 MSTORE SWAP2 PUSH1 0x20 ADD SWAP2 PUSH2 0x7A1 JUMP JUMPDEST DUP3 ADD SWAP2 SWAP1 PUSH1 0x0 MSTORE PUSH1 0x20 PUSH1 0x0 KECCAK256 SWAP1 JUMPDEST DUP2 SLOAD DUP2 MSTORE SWAP1 PUSH1 0x1 ADD SWAP1 PUSH1 0x20 ADD DUP1 DUP4 GT PUSH2 0x784 JUMPI DUP3 SWAP1 SUB PUSH1 0x1F AND DUP3 ADD SWAP2 JUMPDEST POP POP POP POP POP SWAP3 POP SWAP4 POP SWAP4 POP SWAP4 POP SWAP4 POP SWAP2 SWAP4 POP SWAP2 SWAP4 JUMP JUMPDEST PUSH1 0x2 PUSH1 0x0 SWAP1 SLOAD SWAP1 PUSH2 0x100 EXP SWAP1 DIV PUSH20 0xFFFFFFFFFFFFFFFFFFFFFFFFFFFFFFFFFFFFFFFF AND PUSH20 0xFFFFFFFFFFFFFFFFFFFFFFFFFFFFFFFFFFFFFFFF AND CALLER PUSH20 0xFFFFFFFFFFFFFFFFFFFFFFFFFFFFFFFFFFFFFFFF AND EQ PUSH2 0x847 JUMPI PUSH1 0x40 MLOAD PUSH32 0x8C379A000000000000000000000000000000000000000000000000000000000 DUP2 MSTORE PUSH1 0x4 ADD PUSH2 0x83E SWAP1 PUSH2 0x1352 JUMP JUMPDEST PUSH1 0x40 MLOAD DUP1 SWAP2 SUB SWAP1 REVERT JUMPDEST PUSH1 0x40 MLOAD DUP1 PUSH1 0x80 ADD PUSH1 0x40 MSTORE DUP1 DUP6 DUP2 MSTORE PUSH1 0x20 ADD DUP5 DUP2 MSTORE PUSH1 0x20 ADD DUP4 DUP2 MSTORE PUSH1 0x20 ADD DUP3 DUP2 MSTORE POP PUSH1 0x0 DUP1 DUP7 DUP2 MSTORE PUSH1 0x20 ADD SWAP1 DUP2 MSTORE PUSH1 0x20 ADD PUSH1 0x0 KECCAK256 PUSH1 0x0 DUP3 ADD MLOAD DUP2 PUSH1 0x0 ADD SSTORE PUSH1 0x20 DUP3 ADD MLOAD DUP2 PUSH1 0x1 ADD SWAP1 DUP2 PUSH2 0x899 SWAP2 SWAP1 PUSH2 0x1740 JUMP JUMPDEST POP PUSH1 0x40 DUP3 ADD MLOAD DUP2 PUSH1 0x2 ADD SSTORE PUSH1 0x60 DUP3 ADD MLOAD DUP2 PUSH1 0x3 ADD SSTORE SWAP1 POP POP POP POP POP POP JUMP JUMPDEST PUSH1 0x0 DUP1 DUP4 DUP2 MSTORE PUSH1 0x20 ADD SWAP1 DUP2 MSTORE PUSH1 0x20 ADD PUSH1 0x0 KECCAK256 PUSH1 0x0 ADD SLOAD DUP3 EQ PUSH2 0x90E JUMPI PUSH1 0x40 MLOAD PUSH32 0x8C379A000000000000000000000000000000000000000000000000000000000 DUP2 MSTORE PUSH1 0x4 ADD PUSH2 0x905 SWAP1 PUSH2 0x13BE JUMP JUMPDEST PUSH1 0x40 MLOAD DUP1 SWAP2 SUB SWAP1 REVERT JUMPDEST PUSH1 0x0 DUP2 SUB PUSH2 0x951 JUMPI PUSH1 0x40 MLOAD PUSH32 0x8C379A000000000000000000000000000000000000000000000000000000000 DUP2 MSTORE PUSH1 0x4 ADD PUSH2 0x948 SWAP1 PUSH2 0x185E JUMP JUMPDEST PUSH1 0x40 MLOAD DUP1 SWAP2 SUB SWAP1 REVERT JUMPDEST PUSH1 0x0 DUP1 DUP4 DUP2 MSTORE PUSH1 0x20 ADD SWAP1 DUP2 MSTORE PUSH1 0x20 ADD PUSH1 0x0 KECCAK256 PUSH1 0x2 ADD SLOAD PUSH1 0x0 DUP1 DUP4 DUP2 MSTORE PUSH1 0x20 ADD SWAP1 DUP2 MSTORE PUSH1 0x20 ADD PUSH1 0x0 KECCAK256 PUSH1 0x2 ADD SLOAD GT ISZERO PUSH2 0xA2C JUMPI PUSH1 0x0 DUP1 PUSH1 0x0 DUP5 DUP2 MSTORE PUSH1 0x20 ADD SWAP1 DUP2 MSTORE PUSH1 0x20 ADD PUSH1 0x0 KECCAK256 PUSH1 0x2 ADD SLOAD PUSH1 0x0 DUP1 DUP5 DUP2 MSTORE PUSH1 0x20 ADD SWAP1 DUP2 MSTORE PUSH1 0x20 ADD PUSH1 0x0 KECCAK256 PUSH1 0x2 ADD SLOAD PUSH2 0x9BB SWAP2 SWAP1 PUSH2 0x18AD JUMP JUMPDEST SWAP1 POP PUSH1 0x2 PUSH1 0x0 SWAP1 SLOAD SWAP1 PUSH2 0x100 EXP SWAP1 DIV PUSH20 0xFFFFFFFFFFFFFFFFFFFFFFFFFFFFFFFFFFFFFFFF AND PUSH20 0xFFFFFFFFFFFFFFFFFFFFFFFFFFFFFFFFFFFFFFFF AND PUSH2 0x8FC DUP3 SWAP1 DUP2 ISZERO MUL SWAP1 PUSH1 0x40 MLOAD PUSH1 0x0 PUSH1 0x40 MLOAD DUP1 DUP4 SUB DUP2 DUP6 DUP9 DUP9 CALL SWAP4 POP POP POP POP ISZERO DUP1 ISZERO PUSH2 0xA25 JUMPI RETURNDATASIZE PUSH1 0x0 DUP1 RETURNDATACOPY RETURNDATASIZE PUSH1 0x0 REVERT JUMPDEST POP POP PUSH2 0xAE2 JUMP JUMPDEST PUSH1 0x0 DUP1 DUP3 DUP2 MSTORE PUSH1 0x20 ADD SWAP1 DUP2 MSTORE PUSH1 0x20 ADD PUSH1 0x0 KECCAK256 PUSH1 0x2 ADD SLOAD PUSH1 0x0 DUP1 DUP5 DUP2 MSTORE PUSH1 0x20 ADD SWAP1 DUP2 MSTORE PUSH1 0x20 ADD PUSH1 0x0 KECCAK256 PUSH1 0x2 ADD SLOAD GT ISZERO PUSH2 0xAE1 JUMPI PUSH1 0x0 DUP1 PUSH1 0x0 DUP4 DUP2 MSTORE PUSH1 0x20 ADD SWAP1 DUP2 MSTORE PUSH1 0x20 ADD PUSH1 0x0 KECCAK256 PUSH1 0x2 ADD SLOAD PUSH1 0x0 DUP1 DUP6 DUP2 MSTORE PUSH1 0x20 ADD SWAP1 DUP2 MSTORE PUSH1 0x20 ADD PUSH1 0x0 KECCAK256 PUSH1 0x2 ADD SLOAD PUSH2 0xA96 SWAP2 SWAP1 PUSH2 0x18AD JUMP JUMPDEST SWAP1 POP CALLER PUSH20 0xFFFFFFFFFFFFFFFFFFFFFFFFFFFFFFFFFFFFFFFF AND PUSH2 0x8FC DUP3 SWAP1 DUP2 ISZERO MUL SWAP1 PUSH1 0x40 MLOAD PUSH1 0x0 PUSH1 0x40 MLOAD DUP1 DUP4 SUB DUP2 DUP6 DUP9 DUP9 CALL SWAP4 POP POP POP POP ISZERO DUP1 ISZERO PUSH2 0xADE JUMPI RETURNDATASIZE PUSH1 0x0 DUP1 RETURNDATACOPY RETURNDATASIZE PUSH1 0x0 REVERT JUMPDEST POP POP JUMPDEST JUMPDEST PUSH1 0x0 JUMPDEST PUSH1 0x1 PUSH1 0x0 CALLER PUSH20 0xFFFFFFFFFFFFFFFFFFFFFFFFFFFFFFFFFFFFFFFF AND PUSH20 0xFFFFFFFFFFFFFFFFFFFFFFFFFFFFFFFFFFFFFFFF AND DUP2 MSTORE PUSH1 0x20 ADD SWAP1 DUP2 MSTORE PUSH1 0x20 ADD PUSH1 0x0 KECCAK256 DUP1 SLOAD SWAP1 POP DUP2 LT ISZERO PUSH2 0xC53 JUMPI PUSH1 0x1 PUSH1 0x0 CALLER PUSH20 0xFFFFFFFFFFFFFFFFFFFFFFFFFFFFFFFFFFFFFFFF AND PUSH20 0xFFFFFFFFFFFFFFFFFFFFFFFFFFFFFFFFFFFFFFFF AND DUP2 MSTORE PUSH1 0x20 ADD SWAP1 DUP2 MSTORE PUSH1 0x20 ADD PUSH1 0x0 KECCAK256 DUP2 DUP2 SLOAD DUP2 LT PUSH2 0xB80 JUMPI PUSH2 0xB7F PUSH2 0x18E1 JUMP JUMPDEST JUMPDEST SWAP1 PUSH1 0x0 MSTORE PUSH1 0x20 PUSH1 0x0 KECCAK256 SWAP1 PUSH1 0x4 MUL ADD PUSH1 0x0 ADD SLOAD DUP4 SUB PUSH2 0xC40 JUMPI PUSH1 0x0 DUP1 DUP4 DUP2 MSTORE PUSH1 0x20 ADD SWAP1 DUP2 MSTORE PUSH1 0x20 ADD PUSH1 0x0 KECCAK256 PUSH1 0x1 PUSH1 0x0 CALLER PUSH20 0xFFFFFFFFFFFFFFFFFFFFFFFFFFFFFFFFFFFFFFFF AND PUSH20 0xFFFFFFFFFFFFFFFFFFFFFFFFFFFFFFFFFFFFFFFF AND DUP2 MSTORE PUSH1 0x20 ADD SWAP1 DUP2 MSTORE PUSH1 0x20 ADD PUSH1 0x0 KECCAK256 DUP3 DUP2 SLOAD DUP2 LT PUSH2 0xBFB JUMPI PUSH2 0xBFA PUSH2 0x18E1 JUMP JUMPDEST JUMPDEST SWAP1 PUSH1 0x0 MSTORE PUSH1 0x20 PUSH1 0x0 KECCAK256 SWAP1 PUSH1 0x4 MUL ADD PUSH1 0x0 DUP3 ADD SLOAD DUP2 PUSH1 0x0 ADD SSTORE PUSH1 0x1 DUP3 ADD DUP2 PUSH1 0x1 ADD SWAP1 DUP2 PUSH2 0xC27 SWAP2 SWAP1 PUSH2 0x1926 JUMP JUMPDEST POP PUSH1 0x2 DUP3 ADD SLOAD DUP2 PUSH1 0x2 ADD SSTORE PUSH1 0x3 DUP3 ADD SLOAD DUP2 PUSH1 0x3 ADD SSTORE SWAP1 POP POP JUMPDEST DUP1 DUP1 PUSH2 0xC4B SWAP1 PUSH2 0x1A0E JUMP JUMPDEST SWAP2 POP POP PUSH2 0xAE5 JUMP JUMPDEST POP POP POP JUMP JUMPDEST PUSH1 0x0 DUP1 PUSH1 0x0 DUP4 DUP2 MSTORE PUSH1 0x20 ADD SWAP1 DUP2 MSTORE PUSH1 0x20 ADD PUSH1 0x0 KECCAK256 PUSH1 0x0 ADD SLOAD SUB PUSH2 0xCB0 JUMPI PUSH1 0x40 MLOAD PUSH32 0x8C379A000000000000000000000000000000000000000000000000000000000 DUP2 MSTORE PUSH1 0x4 ADD PUSH2 0xCA7 SWAP1 PUSH2 0x13BE JUMP JUMPDEST PUSH1 0x40 MLOAD DUP1 SWAP2 SUB SWAP1 REVERT JUMPDEST PUSH1 0x0 DUP1 DUP3 DUP2 MSTORE PUSH1 0x20 ADD SWAP1 DUP2 MSTORE PUSH1 0x20 ADD PUSH1 0x0 KECCAK256 PUSH1 0x2 ADD SLOAD CALLVALUE LT ISZERO PUSH2 0xD08 JUMPI PUSH1 0x40 MLOAD PUSH32 0x8C379A000000000000000000000000000000000000000000000000000000000 DUP2 MSTORE PUSH1 0x4 ADD PUSH2 0xCFF SWAP1 PUSH2 0x1AC8 JUMP JUMPDEST PUSH1 0x40 MLOAD DUP1 SWAP2 SUB SWAP1 REVERT JUMPDEST PUSH1 0x0 DUP1 PUSH1 0x0 DUP4 DUP2 MSTORE PUSH1 0x20 ADD SWAP1 DUP2 MSTORE PUSH1 0x20 ADD PUSH1 0x0 KECCAK256 PUSH1 0x3 ADD SLOAD SUB PUSH2 0xD60 JUMPI PUSH1 0x40 MLOAD PUSH32 0x8C379A000000000000000000000000000000000000000000000000000000000 DUP2 MSTORE PUSH1 0x4 ADD PUSH2 0xD57 SWAP1 PUSH2 0x1B34 JUMP JUMPDEST PUSH1 0x40 MLOAD DUP1 SWAP2 SUB SWAP1 REVERT JUMPDEST PUSH1 0x0 DUP1 PUSH1 0x0 DUP4 DUP2 MSTORE PUSH1 0x20 ADD SWAP1 DUP2 MSTORE PUSH1 0x20 ADD PUSH1 0x0 KECCAK256 SWAP1 POP PUSH1 0x1 PUSH1 0x0 CALLER PUSH20 0xFFFFFFFFFFFFFFFFFFFFFFFFFFFFFFFFFFFFFFFF AND PUSH20 0xFFFFFFFFFFFFFFFFFFFFFFFFFFFFFFFFFFFFFFFF AND DUP2 MSTORE PUSH1 0x20 ADD SWAP1 DUP2 MSTORE PUSH1 0x20 ADD PUSH1 0x0 KECCAK256 DUP2 SWAP1 DUP1 PUSH1 0x1 DUP2 SLOAD ADD DUP1 DUP3 SSTORE DUP1 SWAP2 POP POP PUSH1 0x1 SWAP1 SUB SWAP1 PUSH1 0x0 MSTORE PUSH1 0x20 PUSH1 0x0 KECCAK256 SWAP1 PUSH1 0x4 MUL ADD PUSH1 0x0 SWAP1 SWAP2 SWAP1 SWAP2 SWAP1 SWAP2 POP PUSH1 0x0 DUP3 ADD SLOAD DUP2 PUSH1 0x0 ADD SSTORE PUSH1 0x1 DUP3 ADD DUP2 PUSH1 0x1 ADD SWAP1 DUP2 PUSH2 0xDFD SWAP2 SWAP1 PUSH2 0x1926 JUMP JUMPDEST POP PUSH1 0x2 DUP3 ADD SLOAD DUP2 PUSH1 0x2 ADD SSTORE PUSH1 0x3 DUP3 ADD SLOAD DUP2 PUSH1 0x3 ADD SSTORE POP POP PUSH1 0x2 PUSH1 0x0 SWAP1 SLOAD SWAP1 PUSH2 0x100 EXP SWAP1 DIV PUSH20 0xFFFFFFFFFFFFFFFFFFFFFFFFFFFFFFFFFFFFFFFF AND PUSH20 0xFFFFFFFFFFFFFFFFFFFFFFFFFFFFFFFFFFFFFFFF AND PUSH2 0x8FC CALLVALUE SWAP1 DUP2 ISZERO MUL SWAP1 PUSH1 0x40 MLOAD PUSH1 0x0 PUSH1 0x40 MLOAD DUP1 DUP4 SUB DUP2 DUP6 DUP9 DUP9 CALL SWAP4 POP POP POP POP ISZERO DUP1 ISZERO PUSH2 0xE7C JUMPI RETURNDATASIZE PUSH1 0x0 DUP1 RETURNDATACOPY RETURNDATASIZE PUSH1 0x0 REVERT JUMPDEST POP PUSH1 0x1 PUSH1 0x0 DUP1 DUP5 DUP2 MSTORE PUSH1 0x20 ADD SWAP1 DUP2 MSTORE PUSH1 0x20 ADD PUSH1 0x0 KECCAK256 PUSH1 0x3 ADD PUSH1 0x0 DUP3 DUP3 SLOAD PUSH2 0xEA3 SWAP2 SWAP1 PUSH2 0x18AD JUMP JUMPDEST SWAP3 POP POP DUP2 SWAP1 SSTORE POP POP POP JUMP JUMPDEST PUSH1 0x0 PUSH1 0x40 MLOAD SWAP1 POP SWAP1 JUMP JUMPDEST PUSH1 0x0 DUP1 REVERT JUMPDEST PUSH1 0x0 DUP1 REVERT JUMPDEST PUSH1 0x0 PUSH20 0xFFFFFFFFFFFFFFFFFFFFFFFFFFFFFFFFFFFFFFFF DUP3 AND SWAP1 POP SWAP2 SWAP1 POP JUMP JUMPDEST PUSH1 0x0 PUSH2 0xEED DUP3 PUSH2 0xEC2 JUMP JUMPDEST SWAP1 POP SWAP2 SWAP1 POP JUMP JUMPDEST PUSH2 0xEFD DUP2 PUSH2 0xEE2 JUMP JUMPDEST DUP2 EQ PUSH2 0xF08 JUMPI PUSH1 0x0 DUP1 REVERT JUMPDEST POP JUMP JUMPDEST PUSH1 0x0 DUP2 CALLDATALOAD SWAP1 POP PUSH2 0xF1A DUP2 PUSH2 0xEF4 JUMP JUMPDEST SWAP3 SWAP2 POP POP JUMP JUMPDEST PUSH1 0x0 DUP2 SWAP1 POP SWAP2 SWAP1 POP JUMP JUMPDEST PUSH2 0xF33 DUP2 PUSH2 0xF20 JUMP JUMPDEST DUP2 EQ PUSH2 0xF3E JUMPI PUSH1 0x0 DUP1 REVERT JUMPDEST POP JUMP JUMPDEST PUSH1 0x0 DUP2 CALLDATALOAD SWAP1 POP PUSH2 0xF50 DUP2 PUSH2 0xF2A JUMP JUMPDEST SWAP3 SWAP2 POP POP JUMP JUMPDEST PUSH1 0x0 DUP1 PUSH1 0x40 DUP4 DUP6 SUB SLT ISZERO PUSH2 0xF6D JUMPI PUSH2 0xF6C PUSH2 0xEB8 JUMP JUMPDEST JUMPDEST PUSH1 0x0 PUSH2 0xF7B DUP6 DUP3 DUP7 ADD PUSH2 0xF0B JUMP JUMPDEST SWAP3 POP POP PUSH1 0x20 PUSH2 0xF8C DUP6 DUP3 DUP7 ADD PUSH2 0xF41 JUMP JUMPDEST SWAP2 POP POP SWAP3 POP SWAP3 SWAP1 POP JUMP JUMPDEST PUSH2 0xF9F DUP2 PUSH2 0xF20 JUMP JUMPDEST DUP3 MSTORE POP POP JUMP JUMPDEST PUSH1 0x0 DUP2 MLOAD SWAP1 POP SWAP2 SWAP1 POP JUMP JUMPDEST PUSH1 0x0 DUP3 DUP3 MSTORE PUSH1 0x20 DUP3 ADD SWAP1 POP SWAP3 SWAP2 POP POP JUMP JUMPDEST PUSH1 0x0 JUMPDEST DUP4 DUP2 LT ISZERO PUSH2 0xFDF JUMPI DUP1 DUP3 ADD MLOAD DUP2 DUP5 ADD MSTORE PUSH1 0x20 DUP2 ADD SWAP1 POP PUSH2 0xFC4 JUMP JUMPDEST PUSH1 0x0 DUP5 DUP5 ADD MSTORE POP POP POP POP JUMP JUMPDEST PUSH1 0x0 PUSH1 0x1F NOT PUSH1 0x1F DUP4 ADD AND SWAP1 POP SWAP2 SWAP1 POP JUMP JUMPDEST PUSH1 0x0 PUSH2 0x1007 DUP3 PUSH2 0xFA5 JUMP JUMPDEST PUSH2 0x1011 DUP2 DUP6 PUSH2 0xFB0 JUMP JUMPDEST SWAP4 POP PUSH2 0x1021 DUP2 DUP6 PUSH1 0x20 DUP7 ADD PUSH2 0xFC1 JUMP JUMPDEST PUSH2 0x102A DUP2 PUSH2 0xFEB JUMP JUMPDEST DUP5 ADD SWAP2 POP POP SWAP3 SWAP2 POP POP JUMP JUMPDEST PUSH1 0x0 PUSH1 0x80 DUP3 ADD SWAP1 POP PUSH2 0x104A PUSH1 0x0 DUP4 ADD DUP8 PUSH2 0xF96 JUMP JUMPDEST DUP2 DUP2 SUB PUSH1 0x20 DUP4 ADD MSTORE PUSH2 0x105C DUP2 DUP7 PUSH2 0xFFC JUMP JUMPDEST SWAP1 POP PUSH2 0x106B PUSH1 0x40 DUP4 ADD DUP6 PUSH2 0xF96 JUMP JUMPDEST PUSH2 0x1078 PUSH1 0x60 DUP4 ADD DUP5 PUSH2 0xF96 JUMP JUMPDEST SWAP6 SWAP5 POP POP POP POP POP JUMP JUMPDEST PUSH1 0x0 PUSH1 0x20 DUP3 DUP5 SUB SLT ISZERO PUSH2 0x1097 JUMPI PUSH2 0x1096 PUSH2 0xEB8 JUMP JUMPDEST JUMPDEST PUSH1 0x0 PUSH2 0x10A5 DUP5 DUP3 DUP6 ADD PUSH2 0xF41 JUMP JUMPDEST SWAP2 POP POP SWAP3 SWAP2 POP POP JUMP JUMPDEST PUSH1 0x0 DUP1 PUSH1 0x40 DUP4 DUP6 SUB SLT ISZERO PUSH2 0x10C5 JUMPI PUSH2 0x10C4 PUSH2 0xEB8 JUMP JUMPDEST JUMPDEST PUSH1 0x0 PUSH2 0x10D3 DUP6 DUP3 DUP7 ADD PUSH2 0xF41 JUMP JUMPDEST SWAP3 POP POP PUSH1 0x20 PUSH2 0x10E4 DUP6 DUP3 DUP7 ADD PUSH2 0xF41 JUMP JUMPDEST SWAP2 POP POP SWAP3 POP SWAP3 SWAP1 POP JUMP JUMPDEST PUSH1 0x0 DUP1 REVERT JUMPDEST PUSH1 0x0 DUP1 REVERT JUMPDEST PUSH32 0x4E487B7100000000000000000000000000000000000000000000000000000000 PUSH1 0x0 MSTORE PUSH1 0x41 PUSH1 0x4 MSTORE PUSH1 0x24 PUSH1 0x0 REVERT JUMPDEST PUSH2 0x1130 DUP3 PUSH2 0xFEB JUMP JUMPDEST DUP2 ADD DUP2 DUP2 LT PUSH8 0xFFFFFFFFFFFFFFFF DUP3 GT OR ISZERO PUSH2 0x114F JUMPI PUSH2 0x114E PUSH2 0x10F8 JUMP JUMPDEST JUMPDEST DUP1 PUSH1 0x40 MSTORE POP POP POP JUMP JUMPDEST PUSH1 0x0 PUSH2 0x1162 PUSH2 0xEAE JUMP JUMPDEST SWAP1 POP PUSH2 0x116E DUP3 DUP3 PUSH2 0x1127 JUMP JUMPDEST SWAP2 SWAP1 POP JUMP JUMPDEST PUSH1 0x0 PUSH8 0xFFFFFFFFFFFFFFFF DUP3 GT ISZERO PUSH2 0x118E JUMPI PUSH2 0x118D PUSH2 0x10F8 JUMP JUMPDEST JUMPDEST PUSH2 0x1197 DUP3 PUSH2 0xFEB JUMP JUMPDEST SWAP1 POP PUSH1 0x20 DUP2 ADD SWAP1 POP SWAP2 SWAP1 POP JUMP JUMPDEST DUP3 DUP2 DUP4 CALLDATACOPY PUSH1 0x0 DUP4 DUP4 ADD MSTORE POP POP POP JUMP JUMPDEST PUSH1 0x0 PUSH2 0x11C6 PUSH2 0x11C1 DUP5 PUSH2 0x1173 JUMP JUMPDEST PUSH2 0x1158 JUMP JUMPDEST SWAP1 POP DUP3 DUP2 MSTORE PUSH1 0x20 DUP2 ADD DUP5 DUP5 DUP5 ADD GT ISZERO PUSH2 0x11E2 JUMPI PUSH2 0x11E1 PUSH2 0x10F3 JUMP JUMPDEST JUMPDEST PUSH2 0x11ED DUP5 DUP3 DUP6 PUSH2 0x11A4 JUMP JUMPDEST POP SWAP4 SWAP3 POP POP POP JUMP JUMPDEST PUSH1 0x0 DUP3 PUSH1 0x1F DUP4 ADD SLT PUSH2 0x120A JUMPI PUSH2 0x1209 PUSH2 0x10EE JUMP JUMPDEST JUMPDEST DUP2 CALLDATALOAD PUSH2 0x121A DUP5 DUP3 PUSH1 0x20 DUP7 ADD PUSH2 0x11B3 JUMP JUMPDEST SWAP2 POP POP SWAP3 SWAP2 POP POP JUMP JUMPDEST PUSH1 0x0 DUP1 PUSH1 0x0 DUP1 PUSH1 0x80 DUP6 DUP8 SUB SLT ISZERO PUSH2 0x123D JUMPI PUSH2 0x123C PUSH2 0xEB8 JUMP JUMPDEST JUMPDEST PUSH1 0x0 PUSH2 0x124B DUP8 DUP3 DUP9 ADD PUSH2 0xF41 JUMP JUMPDEST SWAP5 POP POP PUSH1 0x20 DUP6 ADD CALLDATALOAD PUSH8 0xFFFFFFFFFFFFFFFF DUP2 GT ISZERO PUSH2 0x126C JUMPI PUSH2 0x126B PUSH2 0xEBD JUMP JUMPDEST JUMPDEST PUSH2 0x1278 DUP8 DUP3 DUP9 ADD PUSH2 0x11F5 JUMP JUMPDEST SWAP4 POP POP PUSH1 0x40 PUSH2 0x1289 DUP8 DUP3 DUP9 ADD PUSH2 0xF41 JUMP JUMPDEST SWAP3 POP POP PUSH1 0x60 PUSH2 0x129A DUP8 DUP3 DUP9 ADD PUSH2 0xF41 JUMP JUMPDEST SWAP2 POP POP SWAP3 SWAP6 SWAP2 SWAP5 POP SWAP3 POP JUMP JUMPDEST PUSH32 0x4E487B7100000000000000000000000000000000000000000000000000000000 PUSH1 0x0 MSTORE PUSH1 0x22 PUSH1 0x4 MSTORE PUSH1 0x24 PUSH1 0x0 REVERT JUMPDEST PUSH1 0x0 PUSH1 0x2 DUP3 DIV SWAP1 POP PUSH1 0x1 DUP3 AND DUP1 PUSH2 0x12ED JUMPI PUSH1 0x7F DUP3 AND SWAP2 POP JUMPDEST PUSH1 0x20 DUP3 LT DUP2 SUB PUSH2 0x1300 JUMPI PUSH2 0x12FF PUSH2 0x12A6 JUMP JUMPDEST JUMPDEST POP SWAP2 SWAP1 POP JUMP JUMPDEST PUSH32 0x796F7520617265206E6F7420746865206F776E65720000000000000000000000 PUSH1 0x0 DUP3 ADD MSTORE POP JUMP JUMPDEST PUSH1 0x0 PUSH2 0x133C PUSH1 0x15 DUP4 PUSH2 0xFB0 JUMP JUMPDEST SWAP2 POP PUSH2 0x1347 DUP3 PUSH2 0x1306 JUMP JUMPDEST PUSH1 0x20 DUP3 ADD SWAP1 POP SWAP2 SWAP1 POP JUMP JUMPDEST PUSH1 0x0 PUSH1 0x20 DUP3 ADD SWAP1 POP DUP2 DUP2 SUB PUSH1 0x0 DUP4 ADD MSTORE PUSH2 0x136B DUP2 PUSH2 0x132F JUMP JUMPDEST SWAP1 POP SWAP2 SWAP1 POP JUMP JUMPDEST PUSH32 0x746869732070726F64756374206973206E6F7420617661696C61626C65000000 PUSH1 0x0 DUP3 ADD MSTORE POP JUMP JUMPDEST PUSH1 0x0 PUSH2 0x13A8 PUSH1 0x1D DUP4 PUSH2 0xFB0 JUMP JUMPDEST SWAP2 POP PUSH2 0x13B3 DUP3 PUSH2 0x1372 JUMP JUMPDEST PUSH1 0x20 DUP3 ADD SWAP1 POP SWAP2 SWAP1 POP JUMP JUMPDEST PUSH1 0x0 PUSH1 0x20 DUP3 ADD SWAP1 POP DUP2 DUP2 SUB PUSH1 0x0 DUP4 ADD MSTORE PUSH2 0x13D7 DUP2 PUSH2 0x139B JUMP JUMPDEST SWAP1 POP SWAP2 SWAP1 POP JUMP JUMPDEST PUSH32 0x70726963652073686F756C642062652067726561746572207468616E207A6572 PUSH1 0x0 DUP3 ADD MSTORE PUSH32 0x6F00000000000000000000000000000000000000000000000000000000000000 PUSH1 0x20 DUP3 ADD MSTORE POP JUMP JUMPDEST PUSH1 0x0 PUSH2 0x143A PUSH1 0x21 DUP4 PUSH2 0xFB0 JUMP JUMPDEST SWAP2 POP PUSH2 0x1445 DUP3 PUSH2 0x13DE JUMP JUMPDEST PUSH1 0x40 DUP3 ADD SWAP1 POP SWAP2 SWAP1 POP JUMP JUMPDEST PUSH1 0x0 PUSH1 0x20 DUP3 ADD SWAP1 POP DUP2 DUP2 SUB PUSH1 0x0 DUP4 ADD MSTORE PUSH2 0x1469 DUP2 PUSH2 0x142D JUMP JUMPDEST SWAP1 POP SWAP2 SWAP1 POP JUMP JUMPDEST PUSH32 0x6E6F206368616E67657320696E207072696365202E706C6561736520656E7465 PUSH1 0x0 DUP3 ADD MSTORE PUSH32 0x72206E6577207072696365000000000000000000000000000000000000000000 PUSH1 0x20 DUP3 ADD MSTORE POP JUMP JUMPDEST PUSH1 0x0 PUSH2 0x14CC PUSH1 0x2B DUP4 PUSH2 0xFB0 JUMP JUMPDEST SWAP2 POP PUSH2 0x14D7 DUP3 PUSH2 0x1470 JUMP JUMPDEST PUSH1 0x40 DUP3 ADD SWAP1 POP SWAP2 SWAP1 POP JUMP JUMPDEST PUSH1 0x0 PUSH1 0x20 DUP3 ADD SWAP1 POP DUP2 DUP2 SUB PUSH1 0x0 DUP4 ADD MSTORE PUSH2 0x14FB DUP2 PUSH2 0x14BF JUMP JUMPDEST SWAP1 POP SWAP2 SWAP1 POP JUMP JUMPDEST PUSH32 0x6E6F206368616E67657320696E2073746F636B202E706C6561736520656E7465 PUSH1 0x0 DUP3 ADD MSTORE PUSH32 0x72206E65772073746F636B2076616C7565000000000000000000000000000000 PUSH1 0x20 DUP3 ADD MSTORE POP JUMP JUMPDEST PUSH1 0x0 PUSH2 0x155E PUSH1 0x31 DUP4 PUSH2 0xFB0 JUMP JUMPDEST SWAP2 POP PUSH2 0x1569 DUP3 PUSH2 0x1502 JUMP JUMPDEST PUSH1 0x40 DUP3 ADD SWAP1 POP SWAP2 SWAP1 POP JUMP JUMPDEST PUSH1 0x0 PUSH1 0x20 DUP3 ADD SWAP1 POP DUP2 DUP2 SUB PUSH1 0x0 DUP4 ADD MSTORE PUSH2 0x158D DUP2 PUSH2 0x1551 JUMP JUMPDEST SWAP1 POP SWAP2 SWAP1 POP JUMP JUMPDEST PUSH1 0x0 DUP2 SWAP1 POP DUP2 PUSH1 0x0 MSTORE PUSH1 0x20 PUSH1 0x0 KECCAK256 SWAP1 POP SWAP2 SWAP1 POP JUMP JUMPDEST PUSH1 0x0 PUSH1 0x20 PUSH1 0x1F DUP4 ADD DIV SWAP1 POP SWAP2 SWAP1 POP JUMP JUMPDEST PUSH1 0x0 DUP3 DUP3 SHL SWAP1 POP SWAP3 SWAP2 POP POP JUMP JUMPDEST PUSH1 0x0 PUSH1 0x8 DUP4 MUL PUSH2 0x15F6 PUSH32 0xFFFFFFFFFFFFFFFFFFFFFFFFFFFFFFFFFFFFFFFFFFFFFFFFFFFFFFFFFFFFFFFF DUP3 PUSH2 0x15B9 JUMP JUMPDEST PUSH2 0x1600 DUP7 DUP4 PUSH2 0x15B9 JUMP JUMPDEST SWAP6 POP DUP1 NOT DUP5 AND SWAP4 POP DUP1 DUP7 AND DUP5 OR SWAP3 POP POP POP SWAP4 SWAP3 POP POP POP JUMP JUMPDEST PUSH1 0x0 DUP2 SWAP1 POP SWAP2 SWAP1 POP JUMP JUMPDEST PUSH1 0x0 PUSH2 0x163D PUSH2 0x1638 PUSH2 0x1633 DUP5 PUSH2 0xF20 JUMP JUMPDEST PUSH2 0x1618 JUMP JUMPDEST PUSH2 0xF20 JUMP JUMPDEST SWAP1 POP SWAP2 SWAP1 POP JUMP JUMPDEST PUSH1 0x0 DUP2 SWAP1 POP SWAP2 SWAP1 POP JUMP JUMPDEST PUSH2 0x1657 DUP4 PUSH2 0x1622 JUMP JUMPDEST PUSH2 0x166B PUSH2 0x1663 DUP3 PUSH2 0x1644 JUMP JUMPDEST DUP5 DUP5 SLOAD PUSH2 0x15C6 JUMP JUMPDEST DUP3 SSTORE POP POP POP POP JUMP JUMPDEST PUSH1 0x0 SWAP1 JUMP JUMPDEST PUSH2 0x1680 PUSH2 0x1673 JUMP JUMPDEST PUSH2 0x168B DUP2 DUP5 DUP5 PUSH2 0x164E JUMP JUMPDEST POP POP POP JUMP JUMPDEST JUMPDEST DUP2 DUP2 LT ISZERO PUSH2 0x16AF JUMPI PUSH2 0x16A4 PUSH1 0x0 DUP3 PUSH2 0x1678 JUMP JUMPDEST PUSH1 0x1 DUP2 ADD SWAP1 POP PUSH2 0x1691 JUMP JUMPDEST POP POP JUMP JUMPDEST PUSH1 0x1F DUP3 GT ISZERO PUSH2 0x16F4 JUMPI PUSH2 0x16C5 DUP2 PUSH2 0x1594 JUMP JUMPDEST PUSH2 0x16CE DUP5 PUSH2 0x15A9 JUMP JUMPDEST DUP2 ADD PUSH1 0x20 DUP6 LT ISZERO PUSH2 0x16DD JUMPI DUP2 SWAP1 POP JUMPDEST PUSH2 0x16F1 PUSH2 0x16E9 DUP6 PUSH2 0x15A9 JUMP JUMPDEST DUP4 ADD DUP3 PUSH2 0x1690 JUMP JUMPDEST POP POP JUMPDEST POP POP POP JUMP JUMPDEST PUSH1 0x0 DUP3 DUP3 SHR SWAP1 POP SWAP3 SWAP2 POP POP JUMP JUMPDEST PUSH1 0x0 PUSH2 0x1717 PUSH1 0x0 NOT DUP5 PUSH1 0x8 MUL PUSH2 0x16F9 JUMP JUMPDEST NOT DUP1 DUP4 AND SWAP2 POP POP SWAP3 SWAP2 POP POP JUMP JUMPDEST PUSH1 0x0 PUSH2 0x1730 DUP4 DUP4 PUSH2 0x1706 JUMP JUMPDEST SWAP2 POP DUP3 PUSH1 0x2 MUL DUP3 OR SWAP1 POP SWAP3 SWAP2 POP POP JUMP JUMPDEST PUSH2 0x1749 DUP3 PUSH2 0xFA5 JUMP JUMPDEST PUSH8 0xFFFFFFFFFFFFFFFF DUP2 GT ISZERO PUSH2 0x1762 JUMPI PUSH2 0x1761 PUSH2 0x10F8 JUMP JUMPDEST JUMPDEST PUSH2 0x176C DUP3 SLOAD PUSH2 0x12D5 JUMP JUMPDEST PUSH2 0x1777 DUP3 DUP3 DUP6 PUSH2 0x16B3 JUMP JUMPDEST PUSH1 0x0 PUSH1 0x20 SWAP1 POP PUSH1 0x1F DUP4 GT PUSH1 0x1 DUP2 EQ PUSH2 0x17AA JUMPI PUSH1 0x0 DUP5 ISZERO PUSH2 0x1798 JUMPI DUP3 DUP8 ADD MLOAD SWAP1 POP JUMPDEST PUSH2 0x17A2 DUP6 DUP3 PUSH2 0x1724 JUMP JUMPDEST DUP7 SSTORE POP PUSH2 0x180A JUMP JUMPDEST PUSH1 0x1F NOT DUP5 AND PUSH2 0x17B8 DUP7 PUSH2 0x1594 JUMP JUMPDEST PUSH1 0x0 JUMPDEST DUP3 DUP2 LT ISZERO PUSH2 0x17E0 JUMPI DUP5 DUP10 ADD MLOAD DUP3 SSTORE PUSH1 0x1 DUP3 ADD SWAP2 POP PUSH1 0x20 DUP6 ADD SWAP5 POP PUSH1 0x20 DUP2 ADD SWAP1 POP PUSH2 0x17BB JUMP JUMPDEST DUP7 DUP4 LT ISZERO PUSH2 0x17FD JUMPI DUP5 DUP10 ADD MLOAD PUSH2 0x17F9 PUSH1 0x1F DUP10 AND DUP3 PUSH2 0x1706 JUMP JUMPDEST DUP4 SSTORE POP JUMPDEST PUSH1 0x1 PUSH1 0x2 DUP9 MUL ADD DUP9 SSTORE POP POP POP JUMPDEST POP POP POP POP POP POP JUMP JUMPDEST PUSH32 0x6E65772070726F6475637420646F6573206E6F74206578697374000000000000 PUSH1 0x0 DUP3 ADD MSTORE POP JUMP JUMPDEST PUSH1 0x0 PUSH2 0x1848 PUSH1 0x1A DUP4 PUSH2 0xFB0 JUMP JUMPDEST SWAP2 POP PUSH2 0x1853 DUP3 PUSH2 0x1812 JUMP JUMPDEST PUSH1 0x20 DUP3 ADD SWAP1 POP SWAP2 SWAP1 POP JUMP JUMPDEST PUSH1 0x0 PUSH1 0x20 DUP3 ADD SWAP1 POP DUP2 DUP2 SUB PUSH1 0x0 DUP4 ADD MSTORE PUSH2 0x1877 DUP2 PUSH2 0x183B JUMP JUMPDEST SWAP1 POP SWAP2 SWAP1 POP JUMP JUMPDEST PUSH32 0x4E487B7100000000000000000000000000000000000000000000000000000000 PUSH1 0x0 MSTORE PUSH1 0x11 PUSH1 0x4 MSTORE PUSH1 0x24 PUSH1 0x0 REVERT JUMPDEST PUSH1 0x0 PUSH2 0x18B8 DUP3 PUSH2 0xF20 JUMP JUMPDEST SWAP2 POP PUSH2 0x18C3 DUP4 PUSH2 0xF20 JUMP JUMPDEST SWAP3 POP DUP3 DUP3 SUB SWAP1 POP DUP2 DUP2 GT ISZERO PUSH2 0x18DB JUMPI PUSH2 0x18DA PUSH2 0x187E JUMP JUMPDEST JUMPDEST SWAP3 SWAP2 POP POP JUMP JUMPDEST PUSH32 0x4E487B7100000000000000000000000000000000000000000000000000000000 PUSH1 0x0 MSTORE PUSH1 0x32 PUSH1 0x4 MSTORE PUSH1 0x24 PUSH1 0x0 REVERT JUMPDEST PUSH1 0x0 DUP2 SLOAD SWAP1 POP PUSH2 0x191F DUP2 PUSH2 0x12D5 JUMP JUMPDEST SWAP1 POP SWAP2 SWAP1 POP JUMP JUMPDEST DUP2 DUP2 SUB PUSH2 0x1934 JUMPI POP POP PUSH2 0x1A0C JUMP JUMPDEST PUSH2 0x193D DUP3 PUSH2 0x1910 JUMP JUMPDEST PUSH8 0xFFFFFFFFFFFFFFFF DUP2 GT ISZERO PUSH2 0x1956 JUMPI PUSH2 0x1955 PUSH2 0x10F8 JUMP JUMPDEST JUMPDEST PUSH2 0x1960 DUP3 SLOAD PUSH2 0x12D5 JUMP JUMPDEST PUSH2 0x196B DUP3 DUP3 DUP6 PUSH2 0x16B3 JUMP JUMPDEST PUSH1 0x0 PUSH1 0x1F DUP4 GT PUSH1 0x1 DUP2 EQ PUSH2 0x199A JUMPI PUSH1 0x0 DUP5 ISZERO PUSH2 0x1988 JUMPI DUP3 DUP8 ADD SLOAD SWAP1 POP JUMPDEST PUSH2 0x1992 DUP6 DUP3 PUSH2 0x1724 JUMP JUMPDEST DUP7 SSTORE POP PUSH2 0x1A05 JUMP JUMPDEST PUSH1 0x1F NOT DUP5 AND PUSH2 0x19A8 DUP8 PUSH2 0x1594 JUMP JUMPDEST SWAP7 POP PUSH2 0x19B3 DUP7 PUSH2 0x1594 JUMP JUMPDEST PUSH1 0x0 JUMPDEST DUP3 DUP2 LT ISZERO PUSH2 0x19DB JUMPI DUP5 DUP10 ADD SLOAD DUP3 SSTORE PUSH1 0x1 DUP3 ADD SWAP2 POP PUSH1 0x1 DUP6 ADD SWAP5 POP PUSH1 0x20 DUP2 ADD SWAP1 POP PUSH2 0x19B6 JUMP JUMPDEST DUP7 DUP4 LT ISZERO PUSH2 0x19F8 JUMPI DUP5 DUP10 ADD SLOAD PUSH2 0x19F4 PUSH1 0x1F DUP10 AND DUP3 PUSH2 0x1706 JUMP JUMPDEST DUP4 SSTORE POP JUMPDEST PUSH1 0x1 PUSH1 0x2 DUP9 MUL ADD DUP9 SSTORE POP POP POP JUMPDEST POP POP POP POP POP POP JUMPDEST JUMP JUMPDEST PUSH1 0x0 PUSH2 0x1A19 DUP3 PUSH2 0xF20 JUMP JUMPDEST SWAP2 POP PUSH32 0xFFFFFFFFFFFFFFFFFFFFFFFFFFFFFFFFFFFFFFFFFFFFFFFFFFFFFFFFFFFFFFFF DUP3 SUB PUSH2 0x1A4B JUMPI PUSH2 0x1A4A PUSH2 0x187E JUMP JUMPDEST JUMPDEST PUSH1 0x1 DUP3 ADD SWAP1 POP SWAP2 SWAP1 POP JUMP JUMPDEST PUSH32 0x616D6F756E74206973206E6F7420656E6F75676820746F206275792074686973 PUSH1 0x0 DUP3 ADD MSTORE PUSH32 0x2070726F64756374000000000000000000000000000000000000000000000000 PUSH1 0x20 DUP3 ADD MSTORE POP JUMP JUMPDEST PUSH1 0x0 PUSH2 0x1AB2 PUSH1 0x28 DUP4 PUSH2 0xFB0 JUMP JUMPDEST SWAP2 POP PUSH2 0x1ABD DUP3 PUSH2 0x1A56 JUMP JUMPDEST PUSH1 0x40 DUP3 ADD SWAP1 POP SWAP2 SWAP1 POP JUMP JUMPDEST PUSH1 0x0 PUSH1 0x20 DUP3 ADD SWAP1 POP DUP2 DUP2 SUB PUSH1 0x0 DUP4 ADD MSTORE PUSH2 0x1AE1 DUP2 PUSH2 0x1AA5 JUMP JUMPDEST SWAP1 POP SWAP2 SWAP1 POP JUMP JUMPDEST PUSH32 0x746869732070726F64756374206973206F7574206F662073746F636B00000000 PUSH1 0x0 DUP3 ADD MSTORE POP JUMP JUMPDEST PUSH1 0x0 PUSH2 0x1B1E PUSH1 0x1C DUP4 PUSH2 0xFB0 JUMP JUMPDEST SWAP2 POP PUSH2 0x1B29 DUP3 PUSH2 0x1AE8 JUMP JUMPDEST PUSH1 0x20 DUP3 ADD SWAP1 POP SWAP2 SWAP1 POP JUMP JUMPDEST PUSH1 0x0 PUSH1 0x20 DUP3 ADD SWAP1 POP DUP2 DUP2 SUB PUSH1 0x0 DUP4 ADD MSTORE PUSH2 0x1B4D DUP2 PUSH2 0x1B11 JUMP JUMPDEST SWAP1 POP SWAP2 SWAP1 POP JUMP INVALID LOG2 PUSH5 0x6970667358 0x22 SLT KECCAK256 0xAB ORIGIN 0xC8 0x2D DUP2 PUSH32 0x65C6611451DCE1F394D0651D5438E088F043C7EDCC614B64A0D964736F6C6343 STOP ADDMOD SLT STOP CALLER "
				},
				"gasEstimates": {
					"creation": {
						"codeDepositCost": "1410000",
						"executionCost": "25738",
						"totalCost": "1435738"
					},
					"external": {
						"addProduct(uint256,string,uint256,uint256)": "infinite",
						"customers(address,uint256)": "infinite",
						"getProduct(uint256)": "infinite",
						"products(uint256)": "infinite",
						"purchase(uint256)": "infinite",
						"replace(uint256,uint256)": "infinite",
						"updatePrice(uint256,uint256)": "infinite",
						"updateStock(uint256,uint256)": "infinite"
					}
				},
				"methodIdentifiers": {
					"addProduct(uint256,string,uint256,uint256)": "c27ed2a2",
					"customers(address,uint256)": "5b1dc14f",
					"getProduct(uint256)": "b9db15b4",
					"products(uint256)": "7acc0b20",
					"purchase(uint256)": "efef39a1",
					"replace(uint256,uint256)": "e81cf24c",
					"updatePrice(uint256,uint256)": "82367b2d",
					"updateStock(uint256,uint256)": "9dfc3dd1"
				}
			},
			"storageLayout": {
				"storage": [
					{
						"astId": 15,
						"contract": "contracts/retail.sol:Retail",
						"label": "products",
						"offset": 0,
						"slot": "0",
						"type": "t_mapping(t_uint256,t_struct(product)10_storage)"
					},
					{
						"astId": 21,
						"contract": "contracts/retail.sol:Retail",
						"label": "customers",
						"offset": 0,
						"slot": "1",
						"type": "t_mapping(t_address,t_array(t_struct(product)10_storage)dyn_storage)"
					},
					{
						"astId": 23,
						"contract": "contracts/retail.sol:Retail",
						"label": "owner",
						"offset": 0,
						"slot": "2",
						"type": "t_address_payable"
					}
				],
				"types": {
					"t_address": {
						"encoding": "inplace",
						"label": "address",
						"numberOfBytes": "20"
					},
					"t_address_payable": {
						"encoding": "inplace",
						"label": "address payable",
						"numberOfBytes": "20"
					},
					"t_array(t_struct(product)10_storage)dyn_storage": {
						"base": "t_struct(product)10_storage",
						"encoding": "dynamic_array",
						"label": "struct Retail.product[]",
						"numberOfBytes": "32"
					},
					"t_mapping(t_address,t_array(t_struct(product)10_storage)dyn_storage)": {
						"encoding": "mapping",
						"key": "t_address",
						"label": "mapping(address => struct Retail.product[])",
						"numberOfBytes": "32",
						"value": "t_array(t_struct(product)10_storage)dyn_storage"
					},
					"t_mapping(t_uint256,t_struct(product)10_storage)": {
						"encoding": "mapping",
						"key": "t_uint256",
						"label": "mapping(uint256 => struct Retail.product)",
						"numberOfBytes": "32",
						"value": "t_struct(product)10_storage"
					},
					"t_string_storage": {
						"encoding": "bytes",
						"label": "string",
						"numberOfBytes": "32"
					},
					"t_struct(product)10_storage": {
						"encoding": "inplace",
						"label": "struct Retail.product",
						"members": [
							{
								"astId": 3,
								"contract": "contracts/retail.sol:Retail",
								"label": "ID",
								"offset": 0,
								"slot": "0",
								"type": "t_uint256"
							},
							{
								"astId": 5,
								"contract": "contracts/retail.sol:Retail",
								"label": "name",
								"offset": 0,
								"slot": "1",
								"type": "t_string_storage"
							},
							{
								"astId": 7,
								"contract": "contracts/retail.sol:Retail",
								"label": "price",
								"offset": 0,
								"slot": "2",
								"type": "t_uint256"
							},
							{
								"astId": 9,
								"contract": "contracts/retail.sol:Retail",
								"label": "stock",
								"offset": 0,
								"slot": "3",
								"type": "t_uint256"
							}
						],
						"numberOfBytes": "128"
					},
					"t_uint256": {
						"encoding": "inplace",
						"label": "uint256",
						"numberOfBytes": "32"
					}
				}
			},
			"userdoc": {
				"kind": "user",
				"methods": {},
				"version": 1
			}
		}
	}
}